{
	"FlightGuard/contracts/FlightGuardToken.sol": {
		"FlightGuardToken": {
			"abi": [
				{
					"inputs": [],
					"stateMutability": "nonpayable",
					"type": "constructor"
				},
				{
					"anonymous": false,
					"inputs": [
						{
							"indexed": true,
							"internalType": "address",
							"name": "owner",
							"type": "address"
						},
						{
							"indexed": true,
							"internalType": "address",
							"name": "spender",
							"type": "address"
						},
						{
							"indexed": false,
							"internalType": "uint256",
							"name": "value",
							"type": "uint256"
						}
					],
					"name": "Approval",
					"type": "event"
				},
				{
					"anonymous": false,
					"inputs": [
						{
							"indexed": true,
							"internalType": "uint256",
							"name": "proposalId",
							"type": "uint256"
						},
						{
							"indexed": false,
							"internalType": "address",
							"name": "proposer",
							"type": "address"
						},
						{
							"indexed": false,
							"internalType": "string",
							"name": "description",
							"type": "string"
						}
					],
					"name": "ProposalCreated",
					"type": "event"
				},
				{
					"anonymous": false,
					"inputs": [
						{
							"indexed": true,
							"internalType": "uint256",
							"name": "proposalId",
							"type": "uint256"
						}
					],
					"name": "ProposalExecuted",
					"type": "event"
				},
				{
					"anonymous": false,
					"inputs": [
						{
							"indexed": true,
							"internalType": "address",
							"name": "from",
							"type": "address"
						},
						{
							"indexed": true,
							"internalType": "address",
							"name": "to",
							"type": "address"
						},
						{
							"indexed": false,
							"internalType": "uint256",
							"name": "value",
							"type": "uint256"
						}
					],
					"name": "Transfer",
					"type": "event"
				},
				{
					"anonymous": false,
					"inputs": [
						{
							"indexed": true,
							"internalType": "uint256",
							"name": "proposalId",
							"type": "uint256"
						},
						{
							"indexed": false,
							"internalType": "address",
							"name": "voter",
							"type": "address"
						},
						{
							"indexed": false,
							"internalType": "bool",
							"name": "support",
							"type": "bool"
						},
						{
							"indexed": false,
							"internalType": "uint256",
							"name": "weight",
							"type": "uint256"
						}
					],
					"name": "Voted",
					"type": "event"
				},
				{
					"inputs": [
						{
							"internalType": "address",
							"name": "",
							"type": "address"
						},
						{
							"internalType": "address",
							"name": "",
							"type": "address"
						}
					],
					"name": "allowance",
					"outputs": [
						{
							"internalType": "uint256",
							"name": "",
							"type": "uint256"
						}
					],
					"stateMutability": "view",
					"type": "function"
				},
				{
					"inputs": [
						{
							"internalType": "address",
							"name": "_spender",
							"type": "address"
						},
						{
							"internalType": "uint256",
							"name": "_value",
							"type": "uint256"
						}
					],
					"name": "approve",
					"outputs": [
						{
							"internalType": "bool",
							"name": "",
							"type": "bool"
						}
					],
					"stateMutability": "nonpayable",
					"type": "function"
				},
				{
					"inputs": [
						{
							"internalType": "address",
							"name": "",
							"type": "address"
						}
					],
					"name": "balanceOf",
					"outputs": [
						{
							"internalType": "uint256",
							"name": "",
							"type": "uint256"
						}
					],
					"stateMutability": "view",
					"type": "function"
				},
				{
					"inputs": [
						{
							"internalType": "string",
							"name": "_description",
							"type": "string"
						}
					],
					"name": "createProposal",
					"outputs": [
						{
							"internalType": "uint256",
							"name": "",
							"type": "uint256"
						}
					],
					"stateMutability": "nonpayable",
					"type": "function"
				},
				{
					"inputs": [],
					"name": "decimals",
					"outputs": [
						{
							"internalType": "uint8",
							"name": "",
							"type": "uint8"
						}
					],
					"stateMutability": "view",
					"type": "function"
				},
				{
					"inputs": [
						{
							"internalType": "uint256",
							"name": "_proposalId",
							"type": "uint256"
						}
					],
					"name": "executeProposal",
					"outputs": [],
					"stateMutability": "nonpayable",
					"type": "function"
				},
				{
					"inputs": [],
					"name": "governance",
					"outputs": [
						{
							"internalType": "address",
							"name": "",
							"type": "address"
						}
					],
					"stateMutability": "view",
					"type": "function"
				},
				{
					"inputs": [],
					"name": "name",
					"outputs": [
						{
							"internalType": "string",
							"name": "",
							"type": "string"
						}
					],
					"stateMutability": "view",
					"type": "function"
				},
				{
					"inputs": [],
					"name": "proposalCount",
					"outputs": [
						{
							"internalType": "uint256",
							"name": "",
							"type": "uint256"
						}
					],
					"stateMutability": "view",
					"type": "function"
				},
				{
					"inputs": [
						{
							"internalType": "uint256",
							"name": "",
							"type": "uint256"
						}
					],
					"name": "proposals",
					"outputs": [
						{
							"internalType": "address",
							"name": "proposer",
							"type": "address"
						},
						{
							"internalType": "string",
							"name": "description",
							"type": "string"
						},
						{
							"internalType": "uint256",
							"name": "forVotes",
							"type": "uint256"
						},
						{
							"internalType": "uint256",
							"name": "againstVotes",
							"type": "uint256"
						},
						{
							"internalType": "bool",
							"name": "executed",
							"type": "bool"
						},
						{
							"internalType": "bool",
							"name": "active",
							"type": "bool"
						},
						{
							"internalType": "uint256",
							"name": "endTime",
							"type": "uint256"
						}
					],
					"stateMutability": "view",
					"type": "function"
				},
				{
					"inputs": [
						{
							"internalType": "address",
							"name": "_newGovernance",
							"type": "address"
						}
					],
					"name": "setGovernance",
					"outputs": [],
					"stateMutability": "nonpayable",
					"type": "function"
				},
				{
					"inputs": [],
					"name": "symbol",
					"outputs": [
						{
							"internalType": "string",
							"name": "",
							"type": "string"
						}
					],
					"stateMutability": "view",
					"type": "function"
				},
				{
					"inputs": [],
					"name": "totalSupply",
					"outputs": [
						{
							"internalType": "uint256",
							"name": "",
							"type": "uint256"
						}
					],
					"stateMutability": "view",
					"type": "function"
				},
				{
					"inputs": [
						{
							"internalType": "address",
							"name": "_to",
							"type": "address"
						},
						{
							"internalType": "uint256",
							"name": "_value",
							"type": "uint256"
						}
					],
					"name": "transfer",
					"outputs": [
						{
							"internalType": "bool",
							"name": "",
							"type": "bool"
						}
					],
					"stateMutability": "nonpayable",
					"type": "function"
				},
				{
					"inputs": [
						{
							"internalType": "address",
							"name": "_from",
							"type": "address"
						},
						{
							"internalType": "address",
							"name": "_to",
							"type": "address"
						},
						{
							"internalType": "uint256",
							"name": "_value",
							"type": "uint256"
						}
					],
					"name": "transferFrom",
					"outputs": [
						{
							"internalType": "bool",
							"name": "",
							"type": "bool"
						}
					],
					"stateMutability": "nonpayable",
					"type": "function"
				},
				{
					"inputs": [
						{
							"internalType": "uint256",
							"name": "_proposalId",
							"type": "uint256"
						},
						{
							"internalType": "bool",
							"name": "_support",
							"type": "bool"
						}
					],
					"name": "vote",
					"outputs": [],
					"stateMutability": "nonpayable",
					"type": "function"
				}
			],
			"devdoc": {
				"details": "ERC20 Token for the FlightGuard ecosystem with governance capabilities",
				"kind": "dev",
				"methods": {
					"approve(address,uint256)": {
						"details": "Approve spender to withdraw from your account up to _value",
						"params": {
							"_spender": "Address authorized to spend",
							"_value": "Amount they can spend"
						},
						"returns": {
							"_0": "Success status"
						}
					},
					"constructor": {
						"details": "Constructor mints initial tokens to the deployer"
					},
					"createProposal(string)": {
						"details": "Creates a governance proposal",
						"params": {
							"_description": "Description of the proposal"
						},
						"returns": {
							"_0": "proposalId The ID of the created proposal"
						}
					},
					"executeProposal(uint256)": {
						"details": "Execute a passed proposal",
						"params": {
							"_proposalId": "ID of the proposal to execute"
						}
					},
					"setGovernance(address)": {
						"details": "Change the governance address (controlled by governance)",
						"params": {
							"_newGovernance": "The new governance address"
						}
					},
					"transfer(address,uint256)": {
						"details": "Transfer tokens to a specified address",
						"params": {
							"_to": "Recipient address",
							"_value": "Amount to transfer"
						},
						"returns": {
							"_0": "Success status"
						}
					},
					"transferFrom(address,address,uint256)": {
						"details": "Transfer tokens from one address to another",
						"params": {
							"_from": "Address to transfer from",
							"_to": "Address to transfer to",
							"_value": "Amount to transfer"
						},
						"returns": {
							"_0": "Success status"
						}
					},
					"vote(uint256,bool)": {
						"details": "Vote on an active proposal",
						"params": {
							"_proposalId": "ID of the proposal",
							"_support": "Whether to support the proposal"
						}
					}
				},
				"title": "FlightGuardToken",
				"version": 1
			},
			"evm": {
				"assembly": "    /* \"FlightGuard/contracts/FlightGuardToken.sol\":180:6473  contract FlightGuardToken {... */\n  mstore(0x40, 0x80)\n    /* \"FlightGuard/contracts/FlightGuardToken.sol\":235:275  string public name = \"FlightGuard Token\" */\n  mload(0x40)\n  dup1\n  0x40\n  add\n  0x40\n  mstore\n  dup1\n  0x11\n  dup2\n  mstore\n  0x20\n  add\n  0x466c69676874477561726420546f6b656e000000000000000000000000000000\n  dup2\n  mstore\n  pop\n  0x00\n  swap1\n  dup2\n  tag_1\n  swap2\n  swap1\n  tag_2\n  jump\t// in\ntag_1:\n  pop\n    /* \"FlightGuard/contracts/FlightGuardToken.sol\":282:310  string public symbol = \"FGT\" */\n  mload(0x40)\n  dup1\n  0x40\n  add\n  0x40\n  mstore\n  dup1\n  0x03\n  dup2\n  mstore\n  0x20\n  add\n  0x4647540000000000000000000000000000000000000000000000000000000000\n  dup2\n  mstore\n  pop\n  0x01\n  swap1\n  dup2\n  tag_3\n  swap2\n  swap1\n  tag_2\n  jump\t// in\ntag_3:\n  pop\n    /* \"FlightGuard/contracts/FlightGuardToken.sol\":341:343  18 */\n  0x12\n    /* \"FlightGuard/contracts/FlightGuardToken.sol\":317:343  uint8 public decimals = 18 */\n  0x02\n  exp(0x0100, 0x00)\n  dup2\n  sload\n  dup2\n  0xff\n  mul\n  not\n  and\n  swap1\n  dup4\n  0xff\n  and\n  mul\n  or\n  swap1\n  sstore\n  pop\n    /* \"FlightGuard/contracts/FlightGuardToken.sol\":1467:1830  constructor() {... */\n  callvalue\n  dup1\n  iszero\n  tag_4\n  jumpi\n  0x00\n  dup1\n  revert\ntag_4:\n  pop\n    /* \"FlightGuard/contracts/FlightGuardToken.sol\":1505:1515  msg.sender */\n  caller\n    /* \"FlightGuard/contracts/FlightGuardToken.sol\":1492:1502  governance */\n  0x06\n  0x00\n    /* \"FlightGuard/contracts/FlightGuardToken.sol\":1492:1515  governance = msg.sender */\n  0x0100\n  exp\n  dup2\n  sload\n  dup2\n  0xffffffffffffffffffffffffffffffffffffffff\n  mul\n  not\n  and\n  swap1\n  dup4\n  0xffffffffffffffffffffffffffffffffffffffff\n  and\n  mul\n  or\n  swap1\n  sstore\n  pop\n    /* \"FlightGuard/contracts/FlightGuardToken.sol\":1588:1609  uint256 initialSupply */\n  0x00\n    /* \"FlightGuard/contracts/FlightGuardToken.sol\":1634:1642  decimals */\n  0x02\n  0x00\n  swap1\n  sload\n  swap1\n  0x0100\n  exp\n  swap1\n  div\n  0xff\n  and\n    /* \"FlightGuard/contracts/FlightGuardToken.sol\":1626:1643  uint256(decimals) */\n  0xff\n  and\n    /* \"FlightGuard/contracts/FlightGuardToken.sol\":1622:1624  10 */\n  0x0a\n    /* \"FlightGuard/contracts/FlightGuardToken.sol\":1622:1643  10**uint256(decimals) */\n  tag_7\n  swap2\n  swap1\n  tag_8\n  jump\t// in\ntag_7:\n    /* \"FlightGuard/contracts/FlightGuardToken.sol\":1612:1619  1000000 */\n  0x0f4240\n    /* \"FlightGuard/contracts/FlightGuardToken.sol\":1612:1643  1000000 * 10**uint256(decimals) */\n  tag_9\n  swap2\n  swap1\n  tag_10\n  jump\t// in\ntag_9:\n    /* \"FlightGuard/contracts/FlightGuardToken.sol\":1588:1643  uint256 initialSupply = 1000000 * 10**uint256(decimals) */\n  swap1\n  pop\n    /* \"FlightGuard/contracts/FlightGuardToken.sol\":1698:1711  initialSupply */\n  dup1\n    /* \"FlightGuard/contracts/FlightGuardToken.sol\":1674:1683  balanceOf */\n  0x04\n    /* \"FlightGuard/contracts/FlightGuardToken.sol\":1674:1695  balanceOf[msg.sender] */\n  0x00\n    /* \"FlightGuard/contracts/FlightGuardToken.sol\":1684:1694  msg.sender */\n  caller\n    /* \"FlightGuard/contracts/FlightGuardToken.sol\":1674:1695  balanceOf[msg.sender] */\n  0xffffffffffffffffffffffffffffffffffffffff\n  and\n  0xffffffffffffffffffffffffffffffffffffffff\n  and\n  dup2\n  mstore\n  0x20\n  add\n  swap1\n  dup2\n  mstore\n  0x20\n  add\n  0x00\n  keccak256\n    /* \"FlightGuard/contracts/FlightGuardToken.sol\":1674:1711  balanceOf[msg.sender] = initialSupply */\n  dup2\n  swap1\n  sstore\n  pop\n    /* \"FlightGuard/contracts/FlightGuardToken.sol\":1736:1749  initialSupply */\n  dup1\n    /* \"FlightGuard/contracts/FlightGuardToken.sol\":1722:1733  totalSupply */\n  0x03\n    /* \"FlightGuard/contracts/FlightGuardToken.sol\":1722:1749  totalSupply = initialSupply */\n  dup2\n  swap1\n  sstore\n  pop\n    /* \"FlightGuard/contracts/FlightGuardToken.sol\":1796:1806  msg.sender */\n  caller\n    /* \"FlightGuard/contracts/FlightGuardToken.sol\":1775:1822  Transfer(address(0), msg.sender, initialSupply) */\n  0xffffffffffffffffffffffffffffffffffffffff\n  and\n    /* \"FlightGuard/contracts/FlightGuardToken.sol\":1792:1793  0 */\n  0x00\n    /* \"FlightGuard/contracts/FlightGuardToken.sol\":1775:1822  Transfer(address(0), msg.sender, initialSupply) */\n  0xffffffffffffffffffffffffffffffffffffffff\n  and\n  0xddf252ad1be2c89b69c2b068fc378daa952ba7f163c4a11628f55a4df523b3ef\n    /* \"FlightGuard/contracts/FlightGuardToken.sol\":1808:1821  initialSupply */\n  dup4\n    /* \"FlightGuard/contracts/FlightGuardToken.sol\":1775:1822  Transfer(address(0), msg.sender, initialSupply) */\n  mload(0x40)\n  tag_11\n  swap2\n  swap1\n  tag_12\n  jump\t// in\ntag_11:\n  mload(0x40)\n  dup1\n  swap2\n  sub\n  swap1\n  log3\n    /* \"FlightGuard/contracts/FlightGuardToken.sol\":1481:1830  {... */\n  pop\n    /* \"FlightGuard/contracts/FlightGuardToken.sol\":180:6473  contract FlightGuardToken {... */\n  jump(tag_13)\n    /* \"#utility.yul\":7:106   */\ntag_14:\n    /* \"#utility.yul\":59:65   */\n  0x00\n    /* \"#utility.yul\":93:98   */\n  dup2\n    /* \"#utility.yul\":87:99   */\n  mload\n    /* \"#utility.yul\":77:99   */\n  swap1\n  pop\n    /* \"#utility.yul\":7:106   */\n  swap2\n  swap1\n  pop\n  jump\t// out\n    /* \"#utility.yul\":112:292   */\ntag_15:\n    /* \"#utility.yul\":160:237   */\n  0x4e487b7100000000000000000000000000000000000000000000000000000000\n    /* \"#utility.yul\":157:158   */\n  0x00\n    /* \"#utility.yul\":150:238   */\n  mstore\n    /* \"#utility.yul\":257:261   */\n  0x41\n    /* \"#utility.yul\":254:255   */\n  0x04\n    /* \"#utility.yul\":247:262   */\n  mstore\n    /* \"#utility.yul\":281:285   */\n  0x24\n    /* \"#utility.yul\":278:279   */\n  0x00\n    /* \"#utility.yul\":271:286   */\n  revert\n    /* \"#utility.yul\":298:478   */\ntag_16:\n    /* \"#utility.yul\":346:423   */\n  0x4e487b7100000000000000000000000000000000000000000000000000000000\n    /* \"#utility.yul\":343:344   */\n  0x00\n    /* \"#utility.yul\":336:424   */\n  mstore\n    /* \"#utility.yul\":443:447   */\n  0x22\n    /* \"#utility.yul\":440:441   */\n  0x04\n    /* \"#utility.yul\":433:448   */\n  mstore\n    /* \"#utility.yul\":467:471   */\n  0x24\n    /* \"#utility.yul\":464:465   */\n  0x00\n    /* \"#utility.yul\":457:472   */\n  revert\n    /* \"#utility.yul\":484:804   */\ntag_17:\n    /* \"#utility.yul\":528:534   */\n  0x00\n    /* \"#utility.yul\":565:566   */\n  0x02\n    /* \"#utility.yul\":559:563   */\n  dup3\n    /* \"#utility.yul\":555:567   */\n  div\n    /* \"#utility.yul\":545:567   */\n  swap1\n  pop\n    /* \"#utility.yul\":612:613   */\n  0x01\n    /* \"#utility.yul\":606:610   */\n  dup3\n    /* \"#utility.yul\":602:614   */\n  and\n    /* \"#utility.yul\":633:651   */\n  dup1\n    /* \"#utility.yul\":623:704   */\n  tag_44\n  jumpi\n    /* \"#utility.yul\":689:693   */\n  0x7f\n    /* \"#utility.yul\":681:687   */\n  dup3\n    /* \"#utility.yul\":677:694   */\n  and\n    /* \"#utility.yul\":667:694   */\n  swap2\n  pop\n    /* \"#utility.yul\":623:704   */\ntag_44:\n    /* \"#utility.yul\":751:753   */\n  0x20\n    /* \"#utility.yul\":743:749   */\n  dup3\n    /* \"#utility.yul\":740:754   */\n  lt\n    /* \"#utility.yul\":720:738   */\n  dup2\n    /* \"#utility.yul\":717:755   */\n  sub\n    /* \"#utility.yul\":714:798   */\n  tag_45\n  jumpi\n    /* \"#utility.yul\":770:788   */\n  tag_46\n  tag_16\n  jump\t// in\ntag_46:\n    /* \"#utility.yul\":714:798   */\ntag_45:\n    /* \"#utility.yul\":535:804   */\n  pop\n    /* \"#utility.yul\":484:804   */\n  swap2\n  swap1\n  pop\n  jump\t// out\n    /* \"#utility.yul\":810:951   */\ntag_18:\n    /* \"#utility.yul\":859:863   */\n  0x00\n    /* \"#utility.yul\":882:885   */\n  dup2\n    /* \"#utility.yul\":874:885   */\n  swap1\n  pop\n    /* \"#utility.yul\":905:908   */\n  dup2\n    /* \"#utility.yul\":902:903   */\n  0x00\n    /* \"#utility.yul\":895:909   */\n  mstore\n    /* \"#utility.yul\":939:943   */\n  0x20\n    /* \"#utility.yul\":936:937   */\n  0x00\n    /* \"#utility.yul\":926:944   */\n  keccak256\n    /* \"#utility.yul\":918:944   */\n  swap1\n  pop\n    /* \"#utility.yul\":810:951   */\n  swap2\n  swap1\n  pop\n  jump\t// out\n    /* \"#utility.yul\":957:1050   */\ntag_19:\n    /* \"#utility.yul\":994:1000   */\n  0x00\n    /* \"#utility.yul\":1041:1043   */\n  0x20\n    /* \"#utility.yul\":1036:1038   */\n  0x1f\n    /* \"#utility.yul\":1029:1034   */\n  dup4\n    /* \"#utility.yul\":1025:1039   */\n  add\n    /* \"#utility.yul\":1021:1044   */\n  div\n    /* \"#utility.yul\":1011:1044   */\n  swap1\n  pop\n    /* \"#utility.yul\":957:1050   */\n  swap2\n  swap1\n  pop\n  jump\t// out\n    /* \"#utility.yul\":1056:1163   */\ntag_20:\n    /* \"#utility.yul\":1100:1108   */\n  0x00\n    /* \"#utility.yul\":1150:1155   */\n  dup3\n    /* \"#utility.yul\":1144:1148   */\n  dup3\n    /* \"#utility.yul\":1140:1156   */\n  shl\n    /* \"#utility.yul\":1119:1156   */\n  swap1\n  pop\n    /* \"#utility.yul\":1056:1163   */\n  swap3\n  swap2\n  pop\n  pop\n  jump\t// out\n    /* \"#utility.yul\":1169:1562   */\ntag_21:\n    /* \"#utility.yul\":1238:1244   */\n  0x00\n    /* \"#utility.yul\":1288:1289   */\n  0x08\n    /* \"#utility.yul\":1276:1286   */\n  dup4\n    /* \"#utility.yul\":1272:1290   */\n  mul\n    /* \"#utility.yul\":1311:1408   */\n  tag_51\n    /* \"#utility.yul\":1341:1407   */\n  0xffffffffffffffffffffffffffffffffffffffffffffffffffffffffffffffff\n    /* \"#utility.yul\":1330:1339   */\n  dup3\n    /* \"#utility.yul\":1311:1408   */\n  tag_20\n  jump\t// in\ntag_51:\n    /* \"#utility.yul\":1429:1468   */\n  tag_52\n    /* \"#utility.yul\":1459:1467   */\n  dup7\n    /* \"#utility.yul\":1448:1457   */\n  dup4\n    /* \"#utility.yul\":1429:1468   */\n  tag_20\n  jump\t// in\ntag_52:\n    /* \"#utility.yul\":1417:1468   */\n  swap6\n  pop\n    /* \"#utility.yul\":1501:1505   */\n  dup1\n    /* \"#utility.yul\":1497:1506   */\n  not\n    /* \"#utility.yul\":1490:1495   */\n  dup5\n    /* \"#utility.yul\":1486:1507   */\n  and\n    /* \"#utility.yul\":1477:1507   */\n  swap4\n  pop\n    /* \"#utility.yul\":1550:1554   */\n  dup1\n    /* \"#utility.yul\":1540:1548   */\n  dup7\n    /* \"#utility.yul\":1536:1555   */\n  and\n    /* \"#utility.yul\":1529:1534   */\n  dup5\n    /* \"#utility.yul\":1526:1556   */\n  or\n    /* \"#utility.yul\":1516:1556   */\n  swap3\n  pop\n    /* \"#utility.yul\":1245:1562   */\n  pop\n  pop\n    /* \"#utility.yul\":1169:1562   */\n  swap4\n  swap3\n  pop\n  pop\n  pop\n  jump\t// out\n    /* \"#utility.yul\":1568:1645   */\ntag_22:\n    /* \"#utility.yul\":1605:1612   */\n  0x00\n    /* \"#utility.yul\":1634:1639   */\n  dup2\n    /* \"#utility.yul\":1623:1639   */\n  swap1\n  pop\n    /* \"#utility.yul\":1568:1645   */\n  swap2\n  swap1\n  pop\n  jump\t// out\n    /* \"#utility.yul\":1651:1711   */\ntag_23:\n    /* \"#utility.yul\":1679:1682   */\n  0x00\n    /* \"#utility.yul\":1700:1705   */\n  dup2\n    /* \"#utility.yul\":1693:1705   */\n  swap1\n  pop\n    /* \"#utility.yul\":1651:1711   */\n  swap2\n  swap1\n  pop\n  jump\t// out\n    /* \"#utility.yul\":1717:1859   */\ntag_24:\n    /* \"#utility.yul\":1767:1776   */\n  0x00\n    /* \"#utility.yul\":1800:1853   */\n  tag_56\n    /* \"#utility.yul\":1818:1852   */\n  tag_57\n    /* \"#utility.yul\":1827:1851   */\n  tag_58\n    /* \"#utility.yul\":1845:1850   */\n  dup5\n    /* \"#utility.yul\":1827:1851   */\n  tag_22\n  jump\t// in\ntag_58:\n    /* \"#utility.yul\":1818:1852   */\n  tag_23\n  jump\t// in\ntag_57:\n    /* \"#utility.yul\":1800:1853   */\n  tag_22\n  jump\t// in\ntag_56:\n    /* \"#utility.yul\":1787:1853   */\n  swap1\n  pop\n    /* \"#utility.yul\":1717:1859   */\n  swap2\n  swap1\n  pop\n  jump\t// out\n    /* \"#utility.yul\":1865:1940   */\ntag_25:\n    /* \"#utility.yul\":1908:1911   */\n  0x00\n    /* \"#utility.yul\":1929:1934   */\n  dup2\n    /* \"#utility.yul\":1922:1934   */\n  swap1\n  pop\n    /* \"#utility.yul\":1865:1940   */\n  swap2\n  swap1\n  pop\n  jump\t// out\n    /* \"#utility.yul\":1946:2215   */\ntag_26:\n    /* \"#utility.yul\":2056:2095   */\n  tag_61\n    /* \"#utility.yul\":2087:2094   */\n  dup4\n    /* \"#utility.yul\":2056:2095   */\n  tag_24\n  jump\t// in\ntag_61:\n    /* \"#utility.yul\":2117:2208   */\n  tag_62\n    /* \"#utility.yul\":2166:2207   */\n  tag_63\n    /* \"#utility.yul\":2190:2206   */\n  dup3\n    /* \"#utility.yul\":2166:2207   */\n  tag_25\n  jump\t// in\ntag_63:\n    /* \"#utility.yul\":2158:2164   */\n  dup5\n    /* \"#utility.yul\":2151:2155   */\n  dup5\n    /* \"#utility.yul\":2145:2156   */\n  sload\n    /* \"#utility.yul\":2117:2208   */\n  tag_21\n  jump\t// in\ntag_62:\n    /* \"#utility.yul\":2111:2115   */\n  dup3\n    /* \"#utility.yul\":2104:2209   */\n  sstore\n    /* \"#utility.yul\":2022:2215   */\n  pop\n    /* \"#utility.yul\":1946:2215   */\n  pop\n  pop\n  pop\n  jump\t// out\n    /* \"#utility.yul\":2221:2294   */\ntag_27:\n    /* \"#utility.yul\":2266:2269   */\n  0x00\n    /* \"#utility.yul\":2221:2294   */\n  swap1\n  jump\t// out\n    /* \"#utility.yul\":2300:2489   */\ntag_28:\n    /* \"#utility.yul\":2377:2409   */\n  tag_66\n  tag_27\n  jump\t// in\ntag_66:\n    /* \"#utility.yul\":2418:2483   */\n  tag_67\n    /* \"#utility.yul\":2476:2482   */\n  dup2\n    /* \"#utility.yul\":2468:2474   */\n  dup5\n    /* \"#utility.yul\":2462:2466   */\n  dup5\n    /* \"#utility.yul\":2418:2483   */\n  tag_26\n  jump\t// in\ntag_67:\n    /* \"#utility.yul\":2353:2489   */\n  pop\n    /* \"#utility.yul\":2300:2489   */\n  pop\n  pop\n  jump\t// out\n    /* \"#utility.yul\":2495:2681   */\ntag_29:\n    /* \"#utility.yul\":2555:2675   */\ntag_69:\n    /* \"#utility.yul\":2572:2575   */\n  dup2\n    /* \"#utility.yul\":2565:2570   */\n  dup2\n    /* \"#utility.yul\":2562:2576   */\n  lt\n    /* \"#utility.yul\":2555:2675   */\n  iszero\n  tag_71\n  jumpi\n    /* \"#utility.yul\":2626:2665   */\n  tag_72\n    /* \"#utility.yul\":2663:2664   */\n  0x00\n    /* \"#utility.yul\":2656:2661   */\n  dup3\n    /* \"#utility.yul\":2626:2665   */\n  tag_28\n  jump\t// in\ntag_72:\n    /* \"#utility.yul\":2599:2600   */\n  0x01\n    /* \"#utility.yul\":2592:2597   */\n  dup2\n    /* \"#utility.yul\":2588:2601   */\n  add\n    /* \"#utility.yul\":2579:2601   */\n  swap1\n  pop\n    /* \"#utility.yul\":2555:2675   */\n  jump(tag_69)\ntag_71:\n    /* \"#utility.yul\":2495:2681   */\n  pop\n  pop\n  jump\t// out\n    /* \"#utility.yul\":2687:3230   */\ntag_30:\n    /* \"#utility.yul\":2788:2790   */\n  0x1f\n    /* \"#utility.yul\":2783:2786   */\n  dup3\n    /* \"#utility.yul\":2780:2791   */\n  gt\n    /* \"#utility.yul\":2777:3223   */\n  iszero\n  tag_74\n  jumpi\n    /* \"#utility.yul\":2822:2860   */\n  tag_75\n    /* \"#utility.yul\":2854:2859   */\n  dup2\n    /* \"#utility.yul\":2822:2860   */\n  tag_18\n  jump\t// in\ntag_75:\n    /* \"#utility.yul\":2906:2935   */\n  tag_76\n    /* \"#utility.yul\":2924:2934   */\n  dup5\n    /* \"#utility.yul\":2906:2935   */\n  tag_19\n  jump\t// in\ntag_76:\n    /* \"#utility.yul\":2896:2904   */\n  dup2\n    /* \"#utility.yul\":2892:2936   */\n  add\n    /* \"#utility.yul\":3089:3091   */\n  0x20\n    /* \"#utility.yul\":3077:3087   */\n  dup6\n    /* \"#utility.yul\":3074:3092   */\n  lt\n    /* \"#utility.yul\":3071:3120   */\n  iszero\n  tag_77\n  jumpi\n    /* \"#utility.yul\":3110:3118   */\n  dup2\n    /* \"#utility.yul\":3095:3118   */\n  swap1\n  pop\n    /* \"#utility.yul\":3071:3120   */\ntag_77:\n    /* \"#utility.yul\":3133:3213   */\n  tag_78\n    /* \"#utility.yul\":3189:3211   */\n  tag_79\n    /* \"#utility.yul\":3207:3210   */\n  dup6\n    /* \"#utility.yul\":3189:3211   */\n  tag_19\n  jump\t// in\ntag_79:\n    /* \"#utility.yul\":3179:3187   */\n  dup4\n    /* \"#utility.yul\":3175:3212   */\n  add\n    /* \"#utility.yul\":3162:3173   */\n  dup3\n    /* \"#utility.yul\":3133:3213   */\n  tag_29\n  jump\t// in\ntag_78:\n    /* \"#utility.yul\":2792:3223   */\n  pop\n  pop\n    /* \"#utility.yul\":2777:3223   */\ntag_74:\n    /* \"#utility.yul\":2687:3230   */\n  pop\n  pop\n  pop\n  jump\t// out\n    /* \"#utility.yul\":3236:3353   */\ntag_31:\n    /* \"#utility.yul\":3290:3298   */\n  0x00\n    /* \"#utility.yul\":3340:3345   */\n  dup3\n    /* \"#utility.yul\":3334:3338   */\n  dup3\n    /* \"#utility.yul\":3330:3346   */\n  shr\n    /* \"#utility.yul\":3309:3346   */\n  swap1\n  pop\n    /* \"#utility.yul\":3236:3353   */\n  swap3\n  swap2\n  pop\n  pop\n  jump\t// out\n    /* \"#utility.yul\":3359:3528   */\ntag_32:\n    /* \"#utility.yul\":3403:3409   */\n  0x00\n    /* \"#utility.yul\":3436:3487   */\n  tag_82\n    /* \"#utility.yul\":3484:3485   */\n  0x00\n    /* \"#utility.yul\":3480:3486   */\n  not\n    /* \"#utility.yul\":3472:3477   */\n  dup5\n    /* \"#utility.yul\":3469:3470   */\n  0x08\n    /* \"#utility.yul\":3465:3478   */\n  mul\n    /* \"#utility.yul\":3436:3487   */\n  tag_31\n  jump\t// in\ntag_82:\n    /* \"#utility.yul\":3432:3488   */\n  not\n    /* \"#utility.yul\":3517:3521   */\n  dup1\n    /* \"#utility.yul\":3511:3515   */\n  dup4\n    /* \"#utility.yul\":3507:3522   */\n  and\n    /* \"#utility.yul\":3497:3522   */\n  swap2\n  pop\n    /* \"#utility.yul\":3410:3528   */\n  pop\n    /* \"#utility.yul\":3359:3528   */\n  swap3\n  swap2\n  pop\n  pop\n  jump\t// out\n    /* \"#utility.yul\":3533:3828   */\ntag_33:\n    /* \"#utility.yul\":3609:3613   */\n  0x00\n    /* \"#utility.yul\":3755:3784   */\n  tag_84\n    /* \"#utility.yul\":3780:3783   */\n  dup4\n    /* \"#utility.yul\":3774:3778   */\n  dup4\n    /* \"#utility.yul\":3755:3784   */\n  tag_32\n  jump\t// in\ntag_84:\n    /* \"#utility.yul\":3747:3784   */\n  swap2\n  pop\n    /* \"#utility.yul\":3817:3820   */\n  dup3\n    /* \"#utility.yul\":3814:3815   */\n  0x02\n    /* \"#utility.yul\":3810:3821   */\n  mul\n    /* \"#utility.yul\":3804:3808   */\n  dup3\n    /* \"#utility.yul\":3801:3822   */\n  or\n    /* \"#utility.yul\":3793:3822   */\n  swap1\n  pop\n    /* \"#utility.yul\":3533:3828   */\n  swap3\n  swap2\n  pop\n  pop\n  jump\t// out\n    /* \"#utility.yul\":3833:5228   */\ntag_2:\n    /* \"#utility.yul\":3950:3987   */\n  tag_86\n    /* \"#utility.yul\":3983:3986   */\n  dup3\n    /* \"#utility.yul\":3950:3987   */\n  tag_14\n  jump\t// in\ntag_86:\n    /* \"#utility.yul\":4052:4070   */\n  0xffffffffffffffff\n    /* \"#utility.yul\":4044:4050   */\n  dup2\n    /* \"#utility.yul\":4041:4071   */\n  gt\n    /* \"#utility.yul\":4038:4094   */\n  iszero\n  tag_87\n  jumpi\n    /* \"#utility.yul\":4074:4092   */\n  tag_88\n  tag_15\n  jump\t// in\ntag_88:\n    /* \"#utility.yul\":4038:4094   */\ntag_87:\n    /* \"#utility.yul\":4118:4156   */\n  tag_89\n    /* \"#utility.yul\":4150:4154   */\n  dup3\n    /* \"#utility.yul\":4144:4155   */\n  sload\n    /* \"#utility.yul\":4118:4156   */\n  tag_17\n  jump\t// in\ntag_89:\n    /* \"#utility.yul\":4203:4270   */\n  tag_90\n    /* \"#utility.yul\":4263:4269   */\n  dup3\n    /* \"#utility.yul\":4255:4261   */\n  dup3\n    /* \"#utility.yul\":4249:4253   */\n  dup6\n    /* \"#utility.yul\":4203:4270   */\n  tag_30\n  jump\t// in\ntag_90:\n    /* \"#utility.yul\":4297:4298   */\n  0x00\n    /* \"#utility.yul\":4321:4325   */\n  0x20\n    /* \"#utility.yul\":4308:4325   */\n  swap1\n  pop\n    /* \"#utility.yul\":4353:4355   */\n  0x1f\n    /* \"#utility.yul\":4345:4351   */\n  dup4\n    /* \"#utility.yul\":4342:4356   */\n  gt\n    /* \"#utility.yul\":4370:4371   */\n  0x01\n    /* \"#utility.yul\":4365:4983   */\n  dup2\n  eq\n  tag_92\n  jumpi\n    /* \"#utility.yul\":5027:5028   */\n  0x00\n    /* \"#utility.yul\":5044:5050   */\n  dup5\n    /* \"#utility.yul\":5041:5118   */\n  iszero\n  tag_93\n  jumpi\n    /* \"#utility.yul\":5093:5102   */\n  dup3\n    /* \"#utility.yul\":5088:5091   */\n  dup8\n    /* \"#utility.yul\":5084:5103   */\n  add\n    /* \"#utility.yul\":5078:5104   */\n  mload\n    /* \"#utility.yul\":5069:5104   */\n  swap1\n  pop\n    /* \"#utility.yul\":5041:5118   */\ntag_93:\n    /* \"#utility.yul\":5144:5211   */\n  tag_94\n    /* \"#utility.yul\":5204:5210   */\n  dup6\n    /* \"#utility.yul\":5197:5202   */\n  dup3\n    /* \"#utility.yul\":5144:5211   */\n  tag_33\n  jump\t// in\ntag_94:\n    /* \"#utility.yul\":5138:5142   */\n  dup7\n    /* \"#utility.yul\":5131:5212   */\n  sstore\n    /* \"#utility.yul\":5000:5222   */\n  pop\n    /* \"#utility.yul\":4335:5222   */\n  jump(tag_91)\n    /* \"#utility.yul\":4365:4983   */\ntag_92:\n    /* \"#utility.yul\":4417:4421   */\n  0x1f\n    /* \"#utility.yul\":4413:4422   */\n  not\n    /* \"#utility.yul\":4405:4411   */\n  dup5\n    /* \"#utility.yul\":4401:4423   */\n  and\n    /* \"#utility.yul\":4451:4488   */\n  tag_95\n    /* \"#utility.yul\":4483:4487   */\n  dup7\n    /* \"#utility.yul\":4451:4488   */\n  tag_18\n  jump\t// in\ntag_95:\n    /* \"#utility.yul\":4510:4511   */\n  0x00\n    /* \"#utility.yul\":4524:4732   */\ntag_96:\n    /* \"#utility.yul\":4538:4545   */\n  dup3\n    /* \"#utility.yul\":4535:4536   */\n  dup2\n    /* \"#utility.yul\":4532:4546   */\n  lt\n    /* \"#utility.yul\":4524:4732   */\n  iszero\n  tag_98\n  jumpi\n    /* \"#utility.yul\":4617:4626   */\n  dup5\n    /* \"#utility.yul\":4612:4615   */\n  dup10\n    /* \"#utility.yul\":4608:4627   */\n  add\n    /* \"#utility.yul\":4602:4628   */\n  mload\n    /* \"#utility.yul\":4594:4600   */\n  dup3\n    /* \"#utility.yul\":4587:4629   */\n  sstore\n    /* \"#utility.yul\":4668:4669   */\n  0x01\n    /* \"#utility.yul\":4660:4666   */\n  dup3\n    /* \"#utility.yul\":4656:4670   */\n  add\n    /* \"#utility.yul\":4646:4670   */\n  swap2\n  pop\n    /* \"#utility.yul\":4715:4717   */\n  0x20\n    /* \"#utility.yul\":4704:4713   */\n  dup6\n    /* \"#utility.yul\":4700:4718   */\n  add\n    /* \"#utility.yul\":4687:4718   */\n  swap5\n  pop\n    /* \"#utility.yul\":4561:4565   */\n  0x20\n    /* \"#utility.yul\":4558:4559   */\n  dup2\n    /* \"#utility.yul\":4554:4566   */\n  add\n    /* \"#utility.yul\":4549:4566   */\n  swap1\n  pop\n    /* \"#utility.yul\":4524:4732   */\n  jump(tag_96)\ntag_98:\n    /* \"#utility.yul\":4760:4766   */\n  dup7\n    /* \"#utility.yul\":4751:4758   */\n  dup4\n    /* \"#utility.yul\":4748:4767   */\n  lt\n    /* \"#utility.yul\":4745:4924   */\n  iszero\n  tag_99\n  jumpi\n    /* \"#utility.yul\":4818:4827   */\n  dup5\n    /* \"#utility.yul\":4813:4816   */\n  dup10\n    /* \"#utility.yul\":4809:4828   */\n  add\n    /* \"#utility.yul\":4803:4829   */\n  mload\n    /* \"#utility.yul\":4861:4909   */\n  tag_100\n    /* \"#utility.yul\":4903:4907   */\n  0x1f\n    /* \"#utility.yul\":4895:4901   */\n  dup10\n    /* \"#utility.yul\":4891:4908   */\n  and\n    /* \"#utility.yul\":4880:4889   */\n  dup3\n    /* \"#utility.yul\":4861:4909   */\n  tag_32\n  jump\t// in\ntag_100:\n    /* \"#utility.yul\":4853:4859   */\n  dup4\n    /* \"#utility.yul\":4846:4910   */\n  sstore\n    /* \"#utility.yul\":4768:4924   */\n  pop\n    /* \"#utility.yul\":4745:4924   */\ntag_99:\n    /* \"#utility.yul\":4970:4971   */\n  0x01\n    /* \"#utility.yul\":4966:4967   */\n  0x02\n    /* \"#utility.yul\":4958:4964   */\n  dup9\n    /* \"#utility.yul\":4954:4968   */\n  mul\n    /* \"#utility.yul\":4950:4972   */\n  add\n    /* \"#utility.yul\":4944:4948   */\n  dup9\n    /* \"#utility.yul\":4937:4973   */\n  sstore\n    /* \"#utility.yul\":4372:4983   */\n  pop\n  pop\n  pop\n    /* \"#utility.yul\":4335:5222   */\ntag_91:\n  pop\n    /* \"#utility.yul\":3925:5228   */\n  pop\n  pop\n  pop\n    /* \"#utility.yul\":3833:5228   */\n  pop\n  pop\n  jump\t// out\n    /* \"#utility.yul\":5234:5414   */\ntag_34:\n    /* \"#utility.yul\":5282:5359   */\n  0x4e487b7100000000000000000000000000000000000000000000000000000000\n    /* \"#utility.yul\":5279:5280   */\n  0x00\n    /* \"#utility.yul\":5272:5360   */\n  mstore\n    /* \"#utility.yul\":5379:5383   */\n  0x11\n    /* \"#utility.yul\":5376:5377   */\n  0x04\n    /* \"#utility.yul\":5369:5384   */\n  mstore\n    /* \"#utility.yul\":5403:5407   */\n  0x24\n    /* \"#utility.yul\":5400:5401   */\n  0x00\n    /* \"#utility.yul\":5393:5408   */\n  revert\n    /* \"#utility.yul\":5420:5522   */\ntag_35:\n    /* \"#utility.yul\":5462:5470   */\n  0x00\n    /* \"#utility.yul\":5509:5514   */\n  dup2\n    /* \"#utility.yul\":5506:5507   */\n  0x01\n    /* \"#utility.yul\":5502:5515   */\n  shr\n    /* \"#utility.yul\":5481:5515   */\n  swap1\n  pop\n    /* \"#utility.yul\":5420:5522   */\n  swap2\n  swap1\n  pop\n  jump\t// out\n    /* \"#utility.yul\":5528:6376   */\ntag_36:\n    /* \"#utility.yul\":5589:5594   */\n  0x00\n    /* \"#utility.yul\":5596:5600   */\n  dup1\n    /* \"#utility.yul\":5620:5626   */\n  dup3\n    /* \"#utility.yul\":5611:5626   */\n  swap2\n  pop\n    /* \"#utility.yul\":5644:5649   */\n  dup4\n    /* \"#utility.yul\":5635:5649   */\n  swap1\n  pop\n    /* \"#utility.yul\":5658:6370   */\ntag_104:\n    /* \"#utility.yul\":5679:5680   */\n  0x01\n    /* \"#utility.yul\":5669:5677   */\n  dup6\n    /* \"#utility.yul\":5666:5681   */\n  gt\n    /* \"#utility.yul\":5658:6370   */\n  iszero\n  tag_106\n  jumpi\n    /* \"#utility.yul\":5774:5778   */\n  dup1\n    /* \"#utility.yul\":5769:5772   */\n  dup7\n    /* \"#utility.yul\":5765:5779   */\n  div\n    /* \"#utility.yul\":5759:5763   */\n  dup2\n    /* \"#utility.yul\":5756:5780   */\n  gt\n    /* \"#utility.yul\":5753:5803   */\n  iszero\n  tag_107\n  jumpi\n    /* \"#utility.yul\":5783:5801   */\n  tag_108\n  tag_34\n  jump\t// in\ntag_108:\n    /* \"#utility.yul\":5753:5803   */\ntag_107:\n    /* \"#utility.yul\":5833:5834   */\n  0x01\n    /* \"#utility.yul\":5823:5831   */\n  dup6\n    /* \"#utility.yul\":5819:5835   */\n  and\n    /* \"#utility.yul\":5816:6267   */\n  iszero\n  tag_109\n  jumpi\n    /* \"#utility.yul\":6248:6252   */\n  dup1\n    /* \"#utility.yul\":6241:6246   */\n  dup3\n    /* \"#utility.yul\":6237:6253   */\n  mul\n    /* \"#utility.yul\":6228:6253   */\n  swap2\n  pop\n    /* \"#utility.yul\":5816:6267   */\ntag_109:\n    /* \"#utility.yul\":6298:6302   */\n  dup1\n    /* \"#utility.yul\":6292:6296   */\n  dup2\n    /* \"#utility.yul\":6288:6303   */\n  mul\n    /* \"#utility.yul\":6280:6303   */\n  swap1\n  pop\n    /* \"#utility.yul\":6328:6360   */\n  tag_110\n    /* \"#utility.yul\":6351:6359   */\n  dup6\n    /* \"#utility.yul\":6328:6360   */\n  tag_35\n  jump\t// in\ntag_110:\n    /* \"#utility.yul\":6316:6360   */\n  swap5\n  pop\n    /* \"#utility.yul\":5658:6370   */\n  jump(tag_104)\ntag_106:\n    /* \"#utility.yul\":5528:6376   */\n  swap5\n  pop\n  swap5\n  swap3\n  pop\n  pop\n  pop\n  jump\t// out\n    /* \"#utility.yul\":6382:7455   */\ntag_37:\n    /* \"#utility.yul\":6436:6441   */\n  0x00\n    /* \"#utility.yul\":6627:6635   */\n  dup3\n    /* \"#utility.yul\":6617:6657   */\n  tag_112\n  jumpi\n    /* \"#utility.yul\":6648:6649   */\n  0x01\n    /* \"#utility.yul\":6639:6649   */\n  swap1\n  pop\n    /* \"#utility.yul\":6650:6655   */\n  jump(tag_111)\n    /* \"#utility.yul\":6617:6657   */\ntag_112:\n    /* \"#utility.yul\":6676:6680   */\n  dup2\n    /* \"#utility.yul\":6666:6702   */\n  tag_113\n  jumpi\n    /* \"#utility.yul\":6693:6694   */\n  0x00\n    /* \"#utility.yul\":6684:6694   */\n  swap1\n  pop\n    /* \"#utility.yul\":6695:6700   */\n  jump(tag_111)\n    /* \"#utility.yul\":6666:6702   */\ntag_113:\n    /* \"#utility.yul\":6762:6766   */\n  dup2\n    /* \"#utility.yul\":6810:6811   */\n  0x01\n    /* \"#utility.yul\":6805:6832   */\n  dup2\n  eq\n  tag_115\n  jumpi\n    /* \"#utility.yul\":6846:6847   */\n  0x02\n    /* \"#utility.yul\":6841:7032   */\n  dup2\n  eq\n  tag_116\n  jumpi\n    /* \"#utility.yul\":6755:7032   */\n  jump(tag_114)\n    /* \"#utility.yul\":6805:6832   */\ntag_115:\n    /* \"#utility.yul\":6823:6824   */\n  0x01\n    /* \"#utility.yul\":6814:6824   */\n  swap2\n  pop\n    /* \"#utility.yul\":6825:6830   */\n  pop\n  jump(tag_111)\n    /* \"#utility.yul\":6841:7032   */\ntag_116:\n    /* \"#utility.yul\":6886:6889   */\n  0xff\n    /* \"#utility.yul\":6876:6884   */\n  dup5\n    /* \"#utility.yul\":6873:6890   */\n  gt\n    /* \"#utility.yul\":6870:6913   */\n  iszero\n  tag_117\n  jumpi\n    /* \"#utility.yul\":6893:6911   */\n  tag_118\n  tag_34\n  jump\t// in\ntag_118:\n    /* \"#utility.yul\":6870:6913   */\ntag_117:\n    /* \"#utility.yul\":6942:6950   */\n  dup4\n    /* \"#utility.yul\":6939:6940   */\n  0x02\n    /* \"#utility.yul\":6935:6951   */\n  exp\n    /* \"#utility.yul\":6926:6951   */\n  swap2\n  pop\n    /* \"#utility.yul\":6977:6980   */\n  dup5\n    /* \"#utility.yul\":6970:6975   */\n  dup3\n    /* \"#utility.yul\":6967:6981   */\n  gt\n    /* \"#utility.yul\":6964:7004   */\n  iszero\n  tag_119\n  jumpi\n    /* \"#utility.yul\":6984:7002   */\n  tag_120\n  tag_34\n  jump\t// in\ntag_120:\n    /* \"#utility.yul\":6964:7004   */\ntag_119:\n    /* \"#utility.yul\":7017:7022   */\n  pop\n  jump(tag_111)\n    /* \"#utility.yul\":6755:7032   */\ntag_114:\n  pop\n    /* \"#utility.yul\":7141:7143   */\n  0x20\n    /* \"#utility.yul\":7131:7139   */\n  dup4\n    /* \"#utility.yul\":7128:7144   */\n  lt\n    /* \"#utility.yul\":7122:7125   */\n  0x0133\n    /* \"#utility.yul\":7116:7120   */\n  dup4\n    /* \"#utility.yul\":7113:7126   */\n  lt\n    /* \"#utility.yul\":7109:7145   */\n  and\n    /* \"#utility.yul\":7091:7093   */\n  0x4e\n    /* \"#utility.yul\":7081:7089   */\n  dup5\n    /* \"#utility.yul\":7078:7094   */\n  lt\n    /* \"#utility.yul\":7073:7075   */\n  0x0b\n    /* \"#utility.yul\":7067:7071   */\n  dup5\n    /* \"#utility.yul\":7064:7076   */\n  lt\n    /* \"#utility.yul\":7060:7095   */\n  and\n    /* \"#utility.yul\":7044:7155   */\n  or\n    /* \"#utility.yul\":7041:7287   */\n  iszero\n  tag_121\n  jumpi\n    /* \"#utility.yul\":7197:7205   */\n  dup3\n    /* \"#utility.yul\":7191:7195   */\n  dup3\n    /* \"#utility.yul\":7187:7206   */\n  exp\n    /* \"#utility.yul\":7178:7206   */\n  swap1\n  pop\n    /* \"#utility.yul\":7232:7235   */\n  dup4\n    /* \"#utility.yul\":7225:7230   */\n  dup2\n    /* \"#utility.yul\":7222:7236   */\n  gt\n    /* \"#utility.yul\":7219:7259   */\n  iszero\n  tag_122\n  jumpi\n    /* \"#utility.yul\":7239:7257   */\n  tag_123\n  tag_34\n  jump\t// in\ntag_123:\n    /* \"#utility.yul\":7219:7259   */\ntag_122:\n    /* \"#utility.yul\":7272:7277   */\n  jump(tag_111)\n    /* \"#utility.yul\":7041:7287   */\ntag_121:\n    /* \"#utility.yul\":7312:7354   */\n  tag_124\n    /* \"#utility.yul\":7350:7353   */\n  dup5\n    /* \"#utility.yul\":7340:7348   */\n  dup5\n    /* \"#utility.yul\":7334:7338   */\n  dup5\n    /* \"#utility.yul\":7331:7332   */\n  0x01\n    /* \"#utility.yul\":7312:7354   */\n  tag_36\n  jump\t// in\ntag_124:\n    /* \"#utility.yul\":7297:7354   */\n  swap3\n  pop\n  swap1\n  pop\n    /* \"#utility.yul\":7386:7390   */\n  dup2\n    /* \"#utility.yul\":7381:7384   */\n  dup5\n    /* \"#utility.yul\":7377:7391   */\n  div\n    /* \"#utility.yul\":7370:7375   */\n  dup2\n    /* \"#utility.yul\":7367:7392   */\n  gt\n    /* \"#utility.yul\":7364:7415   */\n  iszero\n  tag_125\n  jumpi\n    /* \"#utility.yul\":7395:7413   */\n  tag_126\n  tag_34\n  jump\t// in\ntag_126:\n    /* \"#utility.yul\":7364:7415   */\ntag_125:\n    /* \"#utility.yul\":7444:7448   */\n  dup2\n    /* \"#utility.yul\":7437:7442   */\n  dup2\n    /* \"#utility.yul\":7433:7449   */\n  mul\n    /* \"#utility.yul\":7424:7449   */\n  swap1\n  pop\n    /* \"#utility.yul\":6382:7455   */\ntag_111:\n  swap4\n  swap3\n  pop\n  pop\n  pop\n  jump\t// out\n    /* \"#utility.yul\":7461:7746   */\ntag_8:\n    /* \"#utility.yul\":7521:7526   */\n  0x00\n    /* \"#utility.yul\":7545:7568   */\n  tag_128\n    /* \"#utility.yul\":7563:7567   */\n  dup3\n    /* \"#utility.yul\":7545:7568   */\n  tag_22\n  jump\t// in\ntag_128:\n    /* \"#utility.yul\":7537:7568   */\n  swap2\n  pop\n    /* \"#utility.yul\":7589:7616   */\n  tag_129\n    /* \"#utility.yul\":7607:7615   */\n  dup4\n    /* \"#utility.yul\":7589:7616   */\n  tag_22\n  jump\t// in\ntag_129:\n    /* \"#utility.yul\":7577:7616   */\n  swap3\n  pop\n    /* \"#utility.yul\":7635:7739   */\n  tag_130\n    /* \"#utility.yul\":7672:7738   */\n  0xffffffffffffffffffffffffffffffffffffffffffffffffffffffffffffffff\n    /* \"#utility.yul\":7662:7670   */\n  dup5\n    /* \"#utility.yul\":7656:7660   */\n  dup5\n    /* \"#utility.yul\":7635:7739   */\n  tag_37\n  jump\t// in\ntag_130:\n    /* \"#utility.yul\":7626:7739   */\n  swap1\n  pop\n    /* \"#utility.yul\":7461:7746   */\n  swap3\n  swap2\n  pop\n  pop\n  jump\t// out\n    /* \"#utility.yul\":7752:8162   */\ntag_10:\n    /* \"#utility.yul\":7792:7799   */\n  0x00\n    /* \"#utility.yul\":7815:7835   */\n  tag_132\n    /* \"#utility.yul\":7833:7834   */\n  dup3\n    /* \"#utility.yul\":7815:7835   */\n  tag_22\n  jump\t// in\ntag_132:\n    /* \"#utility.yul\":7810:7835   */\n  swap2\n  pop\n    /* \"#utility.yul\":7849:7869   */\n  tag_133\n    /* \"#utility.yul\":7867:7868   */\n  dup4\n    /* \"#utility.yul\":7849:7869   */\n  tag_22\n  jump\t// in\ntag_133:\n    /* \"#utility.yul\":7844:7869   */\n  swap3\n  pop\n    /* \"#utility.yul\":7904:7905   */\n  dup3\n    /* \"#utility.yul\":7901:7902   */\n  dup3\n    /* \"#utility.yul\":7897:7906   */\n  mul\n    /* \"#utility.yul\":7926:7956   */\n  tag_134\n    /* \"#utility.yul\":7944:7955   */\n  dup2\n    /* \"#utility.yul\":7926:7956   */\n  tag_22\n  jump\t// in\ntag_134:\n    /* \"#utility.yul\":7915:7956   */\n  swap2\n  pop\n    /* \"#utility.yul\":8105:8106   */\n  dup3\n    /* \"#utility.yul\":8096:8103   */\n  dup3\n    /* \"#utility.yul\":8092:8107   */\n  div\n    /* \"#utility.yul\":8089:8090   */\n  dup5\n    /* \"#utility.yul\":8086:8108   */\n  eq\n    /* \"#utility.yul\":8066:8067   */\n  dup4\n    /* \"#utility.yul\":8059:8068   */\n  iszero\n    /* \"#utility.yul\":8039:8122   */\n  or\n    /* \"#utility.yul\":8016:8155   */\n  tag_135\n  jumpi\n    /* \"#utility.yul\":8135:8153   */\n  tag_136\n  tag_34\n  jump\t// in\ntag_136:\n    /* \"#utility.yul\":8016:8155   */\ntag_135:\n    /* \"#utility.yul\":7800:8162   */\n  pop\n    /* \"#utility.yul\":7752:8162   */\n  swap3\n  swap2\n  pop\n  pop\n  jump\t// out\n    /* \"#utility.yul\":8168:8286   */\ntag_38:\n    /* \"#utility.yul\":8255:8279   */\n  tag_138\n    /* \"#utility.yul\":8273:8278   */\n  dup2\n    /* \"#utility.yul\":8255:8279   */\n  tag_22\n  jump\t// in\ntag_138:\n    /* \"#utility.yul\":8250:8253   */\n  dup3\n    /* \"#utility.yul\":8243:8280   */\n  mstore\n    /* \"#utility.yul\":8168:8286   */\n  pop\n  pop\n  jump\t// out\n    /* \"#utility.yul\":8292:8514   */\ntag_12:\n    /* \"#utility.yul\":8385:8389   */\n  0x00\n    /* \"#utility.yul\":8423:8425   */\n  0x20\n    /* \"#utility.yul\":8412:8421   */\n  dup3\n    /* \"#utility.yul\":8408:8426   */\n  add\n    /* \"#utility.yul\":8400:8426   */\n  swap1\n  pop\n    /* \"#utility.yul\":8436:8507   */\n  tag_140\n    /* \"#utility.yul\":8504:8505   */\n  0x00\n    /* \"#utility.yul\":8493:8502   */\n  dup4\n    /* \"#utility.yul\":8489:8506   */\n  add\n    /* \"#utility.yul\":8480:8486   */\n  dup5\n    /* \"#utility.yul\":8436:8507   */\n  tag_38\n  jump\t// in\ntag_140:\n    /* \"#utility.yul\":8292:8514   */\n  swap3\n  swap2\n  pop\n  pop\n  jump\t// out\n    /* \"FlightGuard/contracts/FlightGuardToken.sol\":180:6473  contract FlightGuardToken {... */\ntag_13:\n  dataSize(sub_0)\n  dup1\n  dataOffset(sub_0)\n  0x00\n  codecopy\n  0x00\n  return\nstop\n\nsub_0: assembly {\n        /* \"FlightGuard/contracts/FlightGuardToken.sol\":180:6473  contract FlightGuardToken {... */\n      mstore(0x40, 0x80)\n      callvalue\n      dup1\n      iszero\n      tag_1\n      jumpi\n      0x00\n      dup1\n      revert\n    tag_1:\n      pop\n      jumpi(tag_2, lt(calldatasize, 0x04))\n      shr(0xe0, calldataload(0x00))\n      dup1\n      0x5aa6e675\n      gt\n      tag_19\n      jumpi\n      dup1\n      0xab033ea9\n      gt\n      tag_20\n      jumpi\n      dup1\n      0xab033ea9\n      eq\n      tag_15\n      jumpi\n      dup1\n      0xc9d27afe\n      eq\n      tag_16\n      jumpi\n      dup1\n      0xda35c664\n      eq\n      tag_17\n      jumpi\n      dup1\n      0xdd62ed3e\n      eq\n      tag_18\n      jumpi\n      jump(tag_2)\n    tag_20:\n      dup1\n      0x5aa6e675\n      eq\n      tag_11\n      jumpi\n      dup1\n      0x70a08231\n      eq\n      tag_12\n      jumpi\n      dup1\n      0x95d89b41\n      eq\n      tag_13\n      jumpi\n      dup1\n      0xa9059cbb\n      eq\n      tag_14\n      jumpi\n      jump(tag_2)\n    tag_19:\n      dup1\n      0x18160ddd\n      gt\n      tag_21\n      jumpi\n      dup1\n      0x18160ddd\n      eq\n      tag_7\n      jumpi\n      dup1\n      0x23b872dd\n      eq\n      tag_8\n      jumpi\n      dup1\n      0x313ce567\n      eq\n      tag_9\n      jumpi\n      dup1\n      0x49c2a1a6\n      eq\n      tag_10\n      jumpi\n      jump(tag_2)\n    tag_21:\n      dup1\n      0x013cf08b\n      eq\n      tag_3\n      jumpi\n      dup1\n      0x06fdde03\n      eq\n      tag_4\n      jumpi\n      dup1\n      0x095ea7b3\n      eq\n      tag_5\n      jumpi\n      dup1\n      0x0d61b519\n      eq\n      tag_6\n      jumpi\n    tag_2:\n      0x00\n      dup1\n      revert\n        /* \"FlightGuard/contracts/FlightGuardToken.sol\":904:949  mapping(uint256 => Proposal) public proposals */\n    tag_3:\n      tag_22\n      0x04\n      dup1\n      calldatasize\n      sub\n      dup2\n      add\n      swap1\n      tag_23\n      swap2\n      swap1\n      tag_24\n      jump\t// in\n    tag_23:\n      tag_25\n      jump\t// in\n    tag_22:\n      mload(0x40)\n      tag_26\n      swap8\n      swap7\n      swap6\n      swap5\n      swap4\n      swap3\n      swap2\n      swap1\n      tag_27\n      jump\t// in\n    tag_26:\n      mload(0x40)\n      dup1\n      swap2\n      sub\n      swap1\n      return\n        /* \"FlightGuard/contracts/FlightGuardToken.sol\":235:275  string public name = \"FlightGuard Token\" */\n    tag_4:\n      tag_28\n      tag_29\n      jump\t// in\n    tag_28:\n      mload(0x40)\n      tag_30\n      swap2\n      swap1\n      tag_31\n      jump\t// in\n    tag_30:\n      mload(0x40)\n      dup1\n      swap2\n      sub\n      swap1\n      return\n        /* \"FlightGuard/contracts/FlightGuardToken.sol\":2637:2847  function approve(address _spender, uint256 _value) external returns (bool) {... */\n    tag_5:\n      tag_32\n      0x04\n      dup1\n      calldatasize\n      sub\n      dup2\n      add\n      swap1\n      tag_33\n      swap2\n      swap1\n      tag_34\n      jump\t// in\n    tag_33:\n      tag_35\n      jump\t// in\n    tag_32:\n      mload(0x40)\n      tag_36\n      swap2\n      swap1\n      tag_37\n      jump\t// in\n    tag_36:\n      mload(0x40)\n      dup1\n      swap2\n      sub\n      swap1\n      return\n        /* \"FlightGuard/contracts/FlightGuardToken.sol\":5425:6148  function executeProposal(uint256 _proposalId) external {... */\n    tag_6:\n      tag_38\n      0x04\n      dup1\n      calldatasize\n      sub\n      dup2\n      add\n      swap1\n      tag_39\n      swap2\n      swap1\n      tag_24\n      jump\t// in\n    tag_39:\n      tag_40\n      jump\t// in\n    tag_38:\n      stop\n        /* \"FlightGuard/contracts/FlightGuardToken.sol\":350:376  uint256 public totalSupply */\n    tag_7:\n      tag_41\n      tag_42\n      jump\t// in\n    tag_41:\n      mload(0x40)\n      tag_43\n      swap2\n      swap1\n      tag_44\n      jump\t// in\n    tag_43:\n      mload(0x40)\n      dup1\n      swap2\n      sub\n      swap1\n      return\n        /* \"FlightGuard/contracts/FlightGuardToken.sol\":3094:3618  function transferFrom(address _from, address _to, uint256 _value) external returns (bool) {... */\n    tag_8:\n      tag_45\n      0x04\n      dup1\n      calldatasize\n      sub\n      dup2\n      add\n      swap1\n      tag_46\n      swap2\n      swap1\n      tag_47\n      jump\t// in\n    tag_46:\n      tag_48\n      jump\t// in\n    tag_45:\n      mload(0x40)\n      tag_49\n      swap2\n      swap1\n      tag_37\n      jump\t// in\n    tag_49:\n      mload(0x40)\n      dup1\n      swap2\n      sub\n      swap1\n      return\n        /* \"FlightGuard/contracts/FlightGuardToken.sol\":317:343  uint8 public decimals = 18 */\n    tag_9:\n      tag_50\n      tag_51\n      jump\t// in\n    tag_50:\n      mload(0x40)\n      tag_52\n      swap2\n      swap1\n      tag_53\n      jump\t// in\n    tag_52:\n      mload(0x40)\n      dup1\n      swap2\n      sub\n      swap1\n      return\n        /* \"FlightGuard/contracts/FlightGuardToken.sol\":3805:4461  function createProposal(string memory _description) external returns (uint256) {... */\n    tag_10:\n      tag_54\n      0x04\n      dup1\n      calldatasize\n      sub\n      dup2\n      add\n      swap1\n      tag_55\n      swap2\n      swap1\n      tag_56\n      jump\t// in\n    tag_55:\n      tag_57\n      jump\t// in\n    tag_54:\n      mload(0x40)\n      tag_58\n      swap2\n      swap1\n      tag_44\n      jump\t// in\n    tag_58:\n      mload(0x40)\n      dup1\n      swap2\n      sub\n      swap1\n      return\n        /* \"FlightGuard/contracts/FlightGuardToken.sol\":568:593  address public governance */\n    tag_11:\n      tag_59\n      tag_60\n      jump\t// in\n    tag_59:\n      mload(0x40)\n      tag_61\n      swap2\n      swap1\n      tag_62\n      jump\t// in\n    tag_61:\n      mload(0x40)\n      dup1\n      swap2\n      sub\n      swap1\n      return\n        /* \"FlightGuard/contracts/FlightGuardToken.sol\":421:465  mapping(address => uint256) public balanceOf */\n    tag_12:\n      tag_63\n      0x04\n      dup1\n      calldatasize\n      sub\n      dup2\n      add\n      swap1\n      tag_64\n      swap2\n      swap1\n      tag_65\n      jump\t// in\n    tag_64:\n      tag_66\n      jump\t// in\n    tag_63:\n      mload(0x40)\n      tag_67\n      swap2\n      swap1\n      tag_44\n      jump\t// in\n    tag_67:\n      mload(0x40)\n      dup1\n      swap2\n      sub\n      swap1\n      return\n        /* \"FlightGuard/contracts/FlightGuardToken.sol\":282:310  string public symbol = \"FGT\" */\n    tag_13:\n      tag_68\n      tag_69\n      jump\t// in\n    tag_68:\n      mload(0x40)\n      tag_70\n      swap2\n      swap1\n      tag_31\n      jump\t// in\n    tag_70:\n      mload(0x40)\n      dup1\n      swap2\n      sub\n      swap1\n      return\n        /* \"FlightGuard/contracts/FlightGuardToken.sol\":2021:2408  function transfer(address _to, uint256 _value) external returns (bool) {... */\n    tag_14:\n      tag_71\n      0x04\n      dup1\n      calldatasize\n      sub\n      dup2\n      add\n      swap1\n      tag_72\n      swap2\n      swap1\n      tag_34\n      jump\t// in\n    tag_72:\n      tag_73\n      jump\t// in\n    tag_71:\n      mload(0x40)\n      tag_74\n      swap2\n      swap1\n      tag_37\n      jump\t// in\n    tag_74:\n      mload(0x40)\n      dup1\n      swap2\n      sub\n      swap1\n      return\n        /* \"FlightGuard/contracts/FlightGuardToken.sol\":6305:6470  function setGovernance(address _newGovernance) external {... */\n    tag_15:\n      tag_75\n      0x04\n      dup1\n      calldatasize\n      sub\n      dup2\n      add\n      swap1\n      tag_76\n      swap2\n      swap1\n      tag_65\n      jump\t// in\n    tag_76:\n      tag_77\n      jump\t// in\n    tag_75:\n      stop\n        /* \"FlightGuard/contracts/FlightGuardToken.sol\":4633:5299  function vote(uint256 _proposalId, bool _support) external {... */\n    tag_16:\n      tag_78\n      0x04\n      dup1\n      calldatasize\n      sub\n      dup2\n      add\n      swap1\n      tag_79\n      swap2\n      swap1\n      tag_80\n      jump\t// in\n    tag_79:\n      tag_81\n      jump\t// in\n    tag_78:\n      stop\n        /* \"FlightGuard/contracts/FlightGuardToken.sol\":600:628  uint256 public proposalCount */\n    tag_17:\n      tag_82\n      tag_83\n      jump\t// in\n    tag_82:\n      mload(0x40)\n      tag_84\n      swap2\n      swap1\n      tag_44\n      jump\t// in\n    tag_84:\n      mload(0x40)\n      dup1\n      swap2\n      sub\n      swap1\n      return\n        /* \"FlightGuard/contracts/FlightGuardToken.sol\":472:536  mapping(address => mapping(address => uint256)) public allowance */\n    tag_18:\n      tag_85\n      0x04\n      dup1\n      calldatasize\n      sub\n      dup2\n      add\n      swap1\n      tag_86\n      swap2\n      swap1\n      tag_87\n      jump\t// in\n    tag_86:\n      tag_88\n      jump\t// in\n    tag_85:\n      mload(0x40)\n      tag_89\n      swap2\n      swap1\n      tag_44\n      jump\t// in\n    tag_89:\n      mload(0x40)\n      dup1\n      swap2\n      sub\n      swap1\n      return\n        /* \"FlightGuard/contracts/FlightGuardToken.sol\":904:949  mapping(uint256 => Proposal) public proposals */\n    tag_25:\n      mstore(0x20, 0x08)\n      dup1\n      0x00\n      mstore\n      keccak256(0x00, 0x40)\n      0x00\n      swap2\n      pop\n      swap1\n      pop\n      dup1\n      0x00\n      add\n      0x00\n      swap1\n      sload\n      swap1\n      0x0100\n      exp\n      swap1\n      div\n      0xffffffffffffffffffffffffffffffffffffffff\n      and\n      swap1\n      dup1\n      0x01\n      add\n      dup1\n      sload\n      tag_90\n      swap1\n      tag_91\n      jump\t// in\n    tag_90:\n      dup1\n      0x1f\n      add\n      0x20\n      dup1\n      swap2\n      div\n      mul\n      0x20\n      add\n      mload(0x40)\n      swap1\n      dup2\n      add\n      0x40\n      mstore\n      dup1\n      swap3\n      swap2\n      swap1\n      dup2\n      dup2\n      mstore\n      0x20\n      add\n      dup3\n      dup1\n      sload\n      tag_92\n      swap1\n      tag_91\n      jump\t// in\n    tag_92:\n      dup1\n      iszero\n      tag_93\n      jumpi\n      dup1\n      0x1f\n      lt\n      tag_94\n      jumpi\n      0x0100\n      dup1\n      dup4\n      sload\n      div\n      mul\n      dup4\n      mstore\n      swap2\n      0x20\n      add\n      swap2\n      jump(tag_93)\n    tag_94:\n      dup3\n      add\n      swap2\n      swap1\n      0x00\n      mstore\n      keccak256(0x00, 0x20)\n      swap1\n    tag_95:\n      dup2\n      sload\n      dup2\n      mstore\n      swap1\n      0x01\n      add\n      swap1\n      0x20\n      add\n      dup1\n      dup4\n      gt\n      tag_95\n      jumpi\n      dup3\n      swap1\n      sub\n      0x1f\n      and\n      dup3\n      add\n      swap2\n    tag_93:\n      pop\n      pop\n      pop\n      pop\n      pop\n      swap1\n      dup1\n      0x02\n      add\n      sload\n      swap1\n      dup1\n      0x03\n      add\n      sload\n      swap1\n      dup1\n      0x04\n      add\n      0x00\n      swap1\n      sload\n      swap1\n      0x0100\n      exp\n      swap1\n      div\n      0xff\n      and\n      swap1\n      dup1\n      0x04\n      add\n      0x01\n      swap1\n      sload\n      swap1\n      0x0100\n      exp\n      swap1\n      div\n      0xff\n      and\n      swap1\n      dup1\n      0x05\n      add\n      sload\n      swap1\n      pop\n      dup8\n      jump\t// out\n        /* \"FlightGuard/contracts/FlightGuardToken.sol\":235:275  string public name = \"FlightGuard Token\" */\n    tag_29:\n      0x00\n      dup1\n      sload\n      tag_96\n      swap1\n      tag_91\n      jump\t// in\n    tag_96:\n      dup1\n      0x1f\n      add\n      0x20\n      dup1\n      swap2\n      div\n      mul\n      0x20\n      add\n      mload(0x40)\n      swap1\n      dup2\n      add\n      0x40\n      mstore\n      dup1\n      swap3\n      swap2\n      swap1\n      dup2\n      dup2\n      mstore\n      0x20\n      add\n      dup3\n      dup1\n      sload\n      tag_97\n      swap1\n      tag_91\n      jump\t// in\n    tag_97:\n      dup1\n      iszero\n      tag_98\n      jumpi\n      dup1\n      0x1f\n      lt\n      tag_99\n      jumpi\n      0x0100\n      dup1\n      dup4\n      sload\n      div\n      mul\n      dup4\n      mstore\n      swap2\n      0x20\n      add\n      swap2\n      jump(tag_98)\n    tag_99:\n      dup3\n      add\n      swap2\n      swap1\n      0x00\n      mstore\n      keccak256(0x00, 0x20)\n      swap1\n    tag_100:\n      dup2\n      sload\n      dup2\n      mstore\n      swap1\n      0x01\n      add\n      swap1\n      0x20\n      add\n      dup1\n      dup4\n      gt\n      tag_100\n      jumpi\n      dup3\n      swap1\n      sub\n      0x1f\n      and\n      dup3\n      add\n      swap2\n    tag_98:\n      pop\n      pop\n      pop\n      pop\n      pop\n      dup2\n      jump\t// out\n        /* \"FlightGuard/contracts/FlightGuardToken.sol\":2637:2847  function approve(address _spender, uint256 _value) external returns (bool) {... */\n    tag_35:\n        /* \"FlightGuard/contracts/FlightGuardToken.sol\":2706:2710  bool */\n      0x00\n        /* \"FlightGuard/contracts/FlightGuardToken.sol\":2757:2763  _value */\n      dup2\n        /* \"FlightGuard/contracts/FlightGuardToken.sol\":2723:2732  allowance */\n      0x05\n        /* \"FlightGuard/contracts/FlightGuardToken.sol\":2723:2744  allowance[msg.sender] */\n      0x00\n        /* \"FlightGuard/contracts/FlightGuardToken.sol\":2733:2743  msg.sender */\n      caller\n        /* \"FlightGuard/contracts/FlightGuardToken.sol\":2723:2744  allowance[msg.sender] */\n      0xffffffffffffffffffffffffffffffffffffffff\n      and\n      0xffffffffffffffffffffffffffffffffffffffff\n      and\n      dup2\n      mstore\n      0x20\n      add\n      swap1\n      dup2\n      mstore\n      0x20\n      add\n      0x00\n      keccak256\n        /* \"FlightGuard/contracts/FlightGuardToken.sol\":2723:2754  allowance[msg.sender][_spender] */\n      0x00\n        /* \"FlightGuard/contracts/FlightGuardToken.sol\":2745:2753  _spender */\n      dup6\n        /* \"FlightGuard/contracts/FlightGuardToken.sol\":2723:2754  allowance[msg.sender][_spender] */\n      0xffffffffffffffffffffffffffffffffffffffff\n      and\n      0xffffffffffffffffffffffffffffffffffffffff\n      and\n      dup2\n      mstore\n      0x20\n      add\n      swap1\n      dup2\n      mstore\n      0x20\n      add\n      0x00\n      keccak256\n        /* \"FlightGuard/contracts/FlightGuardToken.sol\":2723:2763  allowance[msg.sender][_spender] = _value */\n      dup2\n      swap1\n      sstore\n      pop\n        /* \"FlightGuard/contracts/FlightGuardToken.sol\":2800:2808  _spender */\n      dup3\n        /* \"FlightGuard/contracts/FlightGuardToken.sol\":2779:2817  Approval(msg.sender, _spender, _value) */\n      0xffffffffffffffffffffffffffffffffffffffff\n      and\n        /* \"FlightGuard/contracts/FlightGuardToken.sol\":2788:2798  msg.sender */\n      caller\n        /* \"FlightGuard/contracts/FlightGuardToken.sol\":2779:2817  Approval(msg.sender, _spender, _value) */\n      0xffffffffffffffffffffffffffffffffffffffff\n      and\n      0x8c5be1e5ebec7d5bd14f71427d1e84f3dd0314c0f7b2291e5b200ac8c7c3b925\n        /* \"FlightGuard/contracts/FlightGuardToken.sol\":2810:2816  _value */\n      dup5\n        /* \"FlightGuard/contracts/FlightGuardToken.sol\":2779:2817  Approval(msg.sender, _spender, _value) */\n      mload(0x40)\n      tag_102\n      swap2\n      swap1\n      tag_44\n      jump\t// in\n    tag_102:\n      mload(0x40)\n      dup1\n      swap2\n      sub\n      swap1\n      log3\n        /* \"FlightGuard/contracts/FlightGuardToken.sol\":2835:2839  true */\n      0x01\n        /* \"FlightGuard/contracts/FlightGuardToken.sol\":2828:2839  return true */\n      swap1\n      pop\n        /* \"FlightGuard/contracts/FlightGuardToken.sol\":2637:2847  function approve(address _spender, uint256 _value) external returns (bool) {... */\n      swap3\n      swap2\n      pop\n      pop\n      jump\t// out\n        /* \"FlightGuard/contracts/FlightGuardToken.sol\":5425:6148  function executeProposal(uint256 _proposalId) external {... */\n    tag_40:\n        /* \"FlightGuard/contracts/FlightGuardToken.sol\":5491:5516  Proposal storage proposal */\n      0x00\n        /* \"FlightGuard/contracts/FlightGuardToken.sol\":5519:5528  proposals */\n      0x08\n        /* \"FlightGuard/contracts/FlightGuardToken.sol\":5519:5541  proposals[_proposalId] */\n      0x00\n        /* \"FlightGuard/contracts/FlightGuardToken.sol\":5529:5540  _proposalId */\n      dup4\n        /* \"FlightGuard/contracts/FlightGuardToken.sol\":5519:5541  proposals[_proposalId] */\n      dup2\n      mstore\n      0x20\n      add\n      swap1\n      dup2\n      mstore\n      0x20\n      add\n      0x00\n      keccak256\n        /* \"FlightGuard/contracts/FlightGuardToken.sol\":5491:5541  Proposal storage proposal = proposals[_proposalId] */\n      swap1\n      pop\n        /* \"FlightGuard/contracts/FlightGuardToken.sol\":5570:5578  proposal */\n      dup1\n        /* \"FlightGuard/contracts/FlightGuardToken.sol\":5570:5585  proposal.active */\n      0x04\n      add\n      0x01\n      swap1\n      sload\n      swap1\n      0x0100\n      exp\n      swap1\n      div\n      0xff\n      and\n        /* \"FlightGuard/contracts/FlightGuardToken.sol\":5562:5609  require(proposal.active, \"Proposal not active\") */\n      tag_104\n      jumpi\n      mload(0x40)\n      0x08c379a000000000000000000000000000000000000000000000000000000000\n      dup2\n      mstore\n      0x04\n      add\n      tag_105\n      swap1\n      tag_106\n      jump\t// in\n    tag_105:\n      mload(0x40)\n      dup1\n      swap2\n      sub\n      swap1\n      revert\n    tag_104:\n        /* \"FlightGuard/contracts/FlightGuardToken.sol\":5647:5655  proposal */\n      dup1\n        /* \"FlightGuard/contracts/FlightGuardToken.sol\":5647:5663  proposal.endTime */\n      0x05\n      add\n      sload\n        /* \"FlightGuard/contracts/FlightGuardToken.sol\":5628:5643  block.timestamp */\n      timestamp\n        /* \"FlightGuard/contracts/FlightGuardToken.sol\":5628:5663  block.timestamp >= proposal.endTime */\n      lt\n      iszero\n        /* \"FlightGuard/contracts/FlightGuardToken.sol\":5620:5691  require(block.timestamp >= proposal.endTime, \"Voting period not ended\") */\n      tag_107\n      jumpi\n      mload(0x40)\n      0x08c379a000000000000000000000000000000000000000000000000000000000\n      dup2\n      mstore\n      0x04\n      add\n      tag_108\n      swap1\n      tag_109\n      jump\t// in\n    tag_108:\n      mload(0x40)\n      dup1\n      swap2\n      sub\n      swap1\n      revert\n    tag_107:\n        /* \"FlightGuard/contracts/FlightGuardToken.sol\":5711:5719  proposal */\n      dup1\n        /* \"FlightGuard/contracts/FlightGuardToken.sol\":5711:5728  proposal.executed */\n      0x04\n      add\n      0x00\n      swap1\n      sload\n      swap1\n      0x0100\n      exp\n      swap1\n      div\n      0xff\n      and\n        /* \"FlightGuard/contracts/FlightGuardToken.sol\":5710:5728  !proposal.executed */\n      iszero\n        /* \"FlightGuard/contracts/FlightGuardToken.sol\":5702:5758  require(!proposal.executed, \"Proposal already executed\") */\n      tag_110\n      jumpi\n      mload(0x40)\n      0x08c379a000000000000000000000000000000000000000000000000000000000\n      dup2\n      mstore\n      0x04\n      add\n      tag_111\n      swap1\n      tag_112\n      jump\t// in\n    tag_111:\n      mload(0x40)\n      dup1\n      swap2\n      sub\n      swap1\n      revert\n    tag_110:\n        /* \"FlightGuard/contracts/FlightGuardToken.sol\":5797:5805  proposal */\n      dup1\n        /* \"FlightGuard/contracts/FlightGuardToken.sol\":5797:5818  proposal.againstVotes */\n      0x03\n      add\n      sload\n        /* \"FlightGuard/contracts/FlightGuardToken.sol\":5777:5785  proposal */\n      dup2\n        /* \"FlightGuard/contracts/FlightGuardToken.sol\":5777:5794  proposal.forVotes */\n      0x02\n      add\n      sload\n        /* \"FlightGuard/contracts/FlightGuardToken.sol\":5777:5818  proposal.forVotes > proposal.againstVotes */\n      gt\n        /* \"FlightGuard/contracts/FlightGuardToken.sol\":5769:5844  require(proposal.forVotes > proposal.againstVotes, \"Proposal did not pass\") */\n      tag_113\n      jumpi\n      mload(0x40)\n      0x08c379a000000000000000000000000000000000000000000000000000000000\n      dup2\n      mstore\n      0x04\n      add\n      tag_114\n      swap1\n      tag_115\n      jump\t// in\n    tag_114:\n      mload(0x40)\n      dup1\n      swap2\n      sub\n      swap1\n      revert\n    tag_113:\n        /* \"FlightGuard/contracts/FlightGuardToken.sol\":5885:5889  true */\n      0x01\n        /* \"FlightGuard/contracts/FlightGuardToken.sol\":5865:5873  proposal */\n      dup2\n        /* \"FlightGuard/contracts/FlightGuardToken.sol\":5865:5882  proposal.executed */\n      0x04\n      add\n      0x00\n        /* \"FlightGuard/contracts/FlightGuardToken.sol\":5865:5889  proposal.executed = true */\n      0x0100\n      exp\n      dup2\n      sload\n      dup2\n      0xff\n      mul\n      not\n      and\n      swap1\n      dup4\n      iszero\n      iszero\n      mul\n      or\n      swap1\n      sstore\n      pop\n        /* \"FlightGuard/contracts/FlightGuardToken.sol\":5918:5923  false */\n      0x00\n        /* \"FlightGuard/contracts/FlightGuardToken.sol\":5900:5908  proposal */\n      dup2\n        /* \"FlightGuard/contracts/FlightGuardToken.sol\":5900:5915  proposal.active */\n      0x04\n      add\n      0x01\n        /* \"FlightGuard/contracts/FlightGuardToken.sol\":5900:5923  proposal.active = false */\n      0x0100\n      exp\n      dup2\n      sload\n      dup2\n      0xff\n      mul\n      not\n      and\n      swap1\n      dup4\n      iszero\n      iszero\n      mul\n      or\n      swap1\n      sstore\n      pop\n        /* \"FlightGuard/contracts/FlightGuardToken.sol\":5966:5977  _proposalId */\n      dup2\n        /* \"FlightGuard/contracts/FlightGuardToken.sol\":5949:5978  ProposalExecuted(_proposalId) */\n      0x712ae1383f79ac853f8d882153778e0260ef8f03b504e2866e0593e04d2b291f\n      mload(0x40)\n      mload(0x40)\n      dup1\n      swap2\n      sub\n      swap1\n      log2\n        /* \"FlightGuard/contracts/FlightGuardToken.sol\":5480:6148  {... */\n      pop\n        /* \"FlightGuard/contracts/FlightGuardToken.sol\":5425:6148  function executeProposal(uint256 _proposalId) external {... */\n      pop\n      jump\t// out\n        /* \"FlightGuard/contracts/FlightGuardToken.sol\":350:376  uint256 public totalSupply */\n    tag_42:\n      sload(0x03)\n      dup2\n      jump\t// out\n        /* \"FlightGuard/contracts/FlightGuardToken.sol\":3094:3618  function transferFrom(address _from, address _to, uint256 _value) external returns (bool) {... */\n    tag_48:\n        /* \"FlightGuard/contracts/FlightGuardToken.sol\":3178:3182  bool */\n      0x00\n        /* \"FlightGuard/contracts/FlightGuardToken.sol\":3218:3219  0 */\n      dup1\n        /* \"FlightGuard/contracts/FlightGuardToken.sol\":3203:3220  _to != address(0) */\n      0xffffffffffffffffffffffffffffffffffffffff\n      and\n        /* \"FlightGuard/contracts/FlightGuardToken.sol\":3203:3206  _to */\n      dup4\n        /* \"FlightGuard/contracts/FlightGuardToken.sol\":3203:3220  _to != address(0) */\n      0xffffffffffffffffffffffffffffffffffffffff\n      and\n      sub\n        /* \"FlightGuard/contracts/FlightGuardToken.sol\":3195:3249  require(_to != address(0), \"Transfer to zero address\") */\n      tag_117\n      jumpi\n      mload(0x40)\n      0x08c379a000000000000000000000000000000000000000000000000000000000\n      dup2\n      mstore\n      0x04\n      add\n      tag_118\n      swap1\n      tag_119\n      jump\t// in\n    tag_118:\n      mload(0x40)\n      dup1\n      swap2\n      sub\n      swap1\n      revert\n    tag_117:\n        /* \"FlightGuard/contracts/FlightGuardToken.sol\":3288:3294  _value */\n      dup2\n        /* \"FlightGuard/contracts/FlightGuardToken.sol\":3268:3277  balanceOf */\n      0x04\n        /* \"FlightGuard/contracts/FlightGuardToken.sol\":3268:3284  balanceOf[_from] */\n      0x00\n        /* \"FlightGuard/contracts/FlightGuardToken.sol\":3278:3283  _from */\n      dup7\n        /* \"FlightGuard/contracts/FlightGuardToken.sol\":3268:3284  balanceOf[_from] */\n      0xffffffffffffffffffffffffffffffffffffffff\n      and\n      0xffffffffffffffffffffffffffffffffffffffff\n      and\n      dup2\n      mstore\n      0x20\n      add\n      swap1\n      dup2\n      mstore\n      0x20\n      add\n      0x00\n      keccak256\n      sload\n        /* \"FlightGuard/contracts/FlightGuardToken.sol\":3268:3294  balanceOf[_from] >= _value */\n      lt\n      iszero\n        /* \"FlightGuard/contracts/FlightGuardToken.sol\":3260:3319  require(balanceOf[_from] >= _value, \"Insufficient balance\") */\n      tag_120\n      jumpi\n      mload(0x40)\n      0x08c379a000000000000000000000000000000000000000000000000000000000\n      dup2\n      mstore\n      0x04\n      add\n      tag_121\n      swap1\n      tag_122\n      jump\t// in\n    tag_121:\n      mload(0x40)\n      dup1\n      swap2\n      sub\n      swap1\n      revert\n    tag_120:\n        /* \"FlightGuard/contracts/FlightGuardToken.sol\":3370:3376  _value */\n      dup2\n        /* \"FlightGuard/contracts/FlightGuardToken.sol\":3338:3347  allowance */\n      0x05\n        /* \"FlightGuard/contracts/FlightGuardToken.sol\":3338:3354  allowance[_from] */\n      0x00\n        /* \"FlightGuard/contracts/FlightGuardToken.sol\":3348:3353  _from */\n      dup7\n        /* \"FlightGuard/contracts/FlightGuardToken.sol\":3338:3354  allowance[_from] */\n      0xffffffffffffffffffffffffffffffffffffffff\n      and\n      0xffffffffffffffffffffffffffffffffffffffff\n      and\n      dup2\n      mstore\n      0x20\n      add\n      swap1\n      dup2\n      mstore\n      0x20\n      add\n      0x00\n      keccak256\n        /* \"FlightGuard/contracts/FlightGuardToken.sol\":3338:3366  allowance[_from][msg.sender] */\n      0x00\n        /* \"FlightGuard/contracts/FlightGuardToken.sol\":3355:3365  msg.sender */\n      caller\n        /* \"FlightGuard/contracts/FlightGuardToken.sol\":3338:3366  allowance[_from][msg.sender] */\n      0xffffffffffffffffffffffffffffffffffffffff\n      and\n      0xffffffffffffffffffffffffffffffffffffffff\n      and\n      dup2\n      mstore\n      0x20\n      add\n      swap1\n      dup2\n      mstore\n      0x20\n      add\n      0x00\n      keccak256\n      sload\n        /* \"FlightGuard/contracts/FlightGuardToken.sol\":3338:3376  allowance[_from][msg.sender] >= _value */\n      lt\n      iszero\n        /* \"FlightGuard/contracts/FlightGuardToken.sol\":3330:3403  require(allowance[_from][msg.sender] >= _value, \"Insufficient allowance\") */\n      tag_123\n      jumpi\n      mload(0x40)\n      0x08c379a000000000000000000000000000000000000000000000000000000000\n      dup2\n      mstore\n      0x04\n      add\n      tag_124\n      swap1\n      tag_125\n      jump\t// in\n    tag_124:\n      mload(0x40)\n      dup1\n      swap2\n      sub\n      swap1\n      revert\n    tag_123:\n        /* \"FlightGuard/contracts/FlightGuardToken.sol\":3444:3450  _value */\n      dup2\n        /* \"FlightGuard/contracts/FlightGuardToken.sol\":3424:3433  balanceOf */\n      0x04\n        /* \"FlightGuard/contracts/FlightGuardToken.sol\":3424:3440  balanceOf[_from] */\n      0x00\n        /* \"FlightGuard/contracts/FlightGuardToken.sol\":3434:3439  _from */\n      dup7\n        /* \"FlightGuard/contracts/FlightGuardToken.sol\":3424:3440  balanceOf[_from] */\n      0xffffffffffffffffffffffffffffffffffffffff\n      and\n      0xffffffffffffffffffffffffffffffffffffffff\n      and\n      dup2\n      mstore\n      0x20\n      add\n      swap1\n      dup2\n      mstore\n      0x20\n      add\n      0x00\n      keccak256\n      0x00\n        /* \"FlightGuard/contracts/FlightGuardToken.sol\":3424:3450  balanceOf[_from] -= _value */\n      dup3\n      dup3\n      sload\n      tag_126\n      swap2\n      swap1\n      tag_127\n      jump\t// in\n    tag_126:\n      swap3\n      pop\n      pop\n      dup2\n      swap1\n      sstore\n      pop\n        /* \"FlightGuard/contracts/FlightGuardToken.sol\":3479:3485  _value */\n      dup2\n        /* \"FlightGuard/contracts/FlightGuardToken.sol\":3461:3470  balanceOf */\n      0x04\n        /* \"FlightGuard/contracts/FlightGuardToken.sol\":3461:3475  balanceOf[_to] */\n      0x00\n        /* \"FlightGuard/contracts/FlightGuardToken.sol\":3471:3474  _to */\n      dup6\n        /* \"FlightGuard/contracts/FlightGuardToken.sol\":3461:3475  balanceOf[_to] */\n      0xffffffffffffffffffffffffffffffffffffffff\n      and\n      0xffffffffffffffffffffffffffffffffffffffff\n      and\n      dup2\n      mstore\n      0x20\n      add\n      swap1\n      dup2\n      mstore\n      0x20\n      add\n      0x00\n      keccak256\n      0x00\n        /* \"FlightGuard/contracts/FlightGuardToken.sol\":3461:3485  balanceOf[_to] += _value */\n      dup3\n      dup3\n      sload\n      tag_128\n      swap2\n      swap1\n      tag_129\n      jump\t// in\n    tag_128:\n      swap3\n      pop\n      pop\n      dup2\n      swap1\n      sstore\n      pop\n        /* \"FlightGuard/contracts/FlightGuardToken.sol\":3528:3534  _value */\n      dup2\n        /* \"FlightGuard/contracts/FlightGuardToken.sol\":3496:3505  allowance */\n      0x05\n        /* \"FlightGuard/contracts/FlightGuardToken.sol\":3496:3512  allowance[_from] */\n      0x00\n        /* \"FlightGuard/contracts/FlightGuardToken.sol\":3506:3511  _from */\n      dup7\n        /* \"FlightGuard/contracts/FlightGuardToken.sol\":3496:3512  allowance[_from] */\n      0xffffffffffffffffffffffffffffffffffffffff\n      and\n      0xffffffffffffffffffffffffffffffffffffffff\n      and\n      dup2\n      mstore\n      0x20\n      add\n      swap1\n      dup2\n      mstore\n      0x20\n      add\n      0x00\n      keccak256\n        /* \"FlightGuard/contracts/FlightGuardToken.sol\":3496:3524  allowance[_from][msg.sender] */\n      0x00\n        /* \"FlightGuard/contracts/FlightGuardToken.sol\":3513:3523  msg.sender */\n      caller\n        /* \"FlightGuard/contracts/FlightGuardToken.sol\":3496:3524  allowance[_from][msg.sender] */\n      0xffffffffffffffffffffffffffffffffffffffff\n      and\n      0xffffffffffffffffffffffffffffffffffffffff\n      and\n      dup2\n      mstore\n      0x20\n      add\n      swap1\n      dup2\n      mstore\n      0x20\n      add\n      0x00\n      keccak256\n      0x00\n        /* \"FlightGuard/contracts/FlightGuardToken.sol\":3496:3534  allowance[_from][msg.sender] -= _value */\n      dup3\n      dup3\n      sload\n      tag_130\n      swap2\n      swap1\n      tag_127\n      jump\t// in\n    tag_130:\n      swap3\n      pop\n      pop\n      dup2\n      swap1\n      sstore\n      pop\n        /* \"FlightGuard/contracts/FlightGuardToken.sol\":3576:3579  _to */\n      dup3\n        /* \"FlightGuard/contracts/FlightGuardToken.sol\":3560:3588  Transfer(_from, _to, _value) */\n      0xffffffffffffffffffffffffffffffffffffffff\n      and\n        /* \"FlightGuard/contracts/FlightGuardToken.sol\":3569:3574  _from */\n      dup5\n        /* \"FlightGuard/contracts/FlightGuardToken.sol\":3560:3588  Transfer(_from, _to, _value) */\n      0xffffffffffffffffffffffffffffffffffffffff\n      and\n      0xddf252ad1be2c89b69c2b068fc378daa952ba7f163c4a11628f55a4df523b3ef\n        /* \"FlightGuard/contracts/FlightGuardToken.sol\":3581:3587  _value */\n      dup5\n        /* \"FlightGuard/contracts/FlightGuardToken.sol\":3560:3588  Transfer(_from, _to, _value) */\n      mload(0x40)\n      tag_131\n      swap2\n      swap1\n      tag_44\n      jump\t// in\n    tag_131:\n      mload(0x40)\n      dup1\n      swap2\n      sub\n      swap1\n      log3\n        /* \"FlightGuard/contracts/FlightGuardToken.sol\":3606:3610  true */\n      0x01\n        /* \"FlightGuard/contracts/FlightGuardToken.sol\":3599:3610  return true */\n      swap1\n      pop\n        /* \"FlightGuard/contracts/FlightGuardToken.sol\":3094:3618  function transferFrom(address _from, address _to, uint256 _value) external returns (bool) {... */\n      swap4\n      swap3\n      pop\n      pop\n      pop\n      jump\t// out\n        /* \"FlightGuard/contracts/FlightGuardToken.sol\":317:343  uint8 public decimals = 18 */\n    tag_51:\n      0x02\n      0x00\n      swap1\n      sload\n      swap1\n      0x0100\n      exp\n      swap1\n      div\n      0xff\n      and\n      dup2\n      jump\t// out\n        /* \"FlightGuard/contracts/FlightGuardToken.sol\":3805:4461  function createProposal(string memory _description) external returns (uint256) {... */\n    tag_57:\n        /* \"FlightGuard/contracts/FlightGuardToken.sol\":3875:3882  uint256 */\n      0x00\n        /* \"FlightGuard/contracts/FlightGuardToken.sol\":3947:3955  decimals */\n      0x02\n      0x00\n      swap1\n      sload\n      swap1\n      0x0100\n      exp\n      swap1\n      div\n      0xff\n      and\n        /* \"FlightGuard/contracts/FlightGuardToken.sol\":3939:3956  uint256(decimals) */\n      0xff\n      and\n        /* \"FlightGuard/contracts/FlightGuardToken.sol\":3935:3937  10 */\n      0x0a\n        /* \"FlightGuard/contracts/FlightGuardToken.sol\":3935:3956  10**uint256(decimals) */\n      tag_133\n      swap2\n      swap1\n      tag_134\n      jump\t// in\n    tag_133:\n        /* \"FlightGuard/contracts/FlightGuardToken.sol\":3928:3932  1000 */\n      0x03e8\n        /* \"FlightGuard/contracts/FlightGuardToken.sol\":3928:3956  1000 * 10**uint256(decimals) */\n      tag_135\n      swap2\n      swap1\n      tag_136\n      jump\t// in\n    tag_135:\n        /* \"FlightGuard/contracts/FlightGuardToken.sol\":3903:3912  balanceOf */\n      0x04\n        /* \"FlightGuard/contracts/FlightGuardToken.sol\":3903:3924  balanceOf[msg.sender] */\n      0x00\n        /* \"FlightGuard/contracts/FlightGuardToken.sol\":3913:3923  msg.sender */\n      caller\n        /* \"FlightGuard/contracts/FlightGuardToken.sol\":3903:3924  balanceOf[msg.sender] */\n      0xffffffffffffffffffffffffffffffffffffffff\n      and\n      0xffffffffffffffffffffffffffffffffffffffff\n      and\n      dup2\n      mstore\n      0x20\n      add\n      swap1\n      dup2\n      mstore\n      0x20\n      add\n      0x00\n      keccak256\n      sload\n        /* \"FlightGuard/contracts/FlightGuardToken.sol\":3903:3956  balanceOf[msg.sender] >= 1000 * 10**uint256(decimals) */\n      lt\n      iszero\n        /* \"FlightGuard/contracts/FlightGuardToken.sol\":3895:3996  require(balanceOf[msg.sender] >= 1000 * 10**uint256(decimals), \"Need 1000 tokens to create proposal\") */\n      tag_137\n      jumpi\n      mload(0x40)\n      0x08c379a000000000000000000000000000000000000000000000000000000000\n      dup2\n      mstore\n      0x04\n      add\n      tag_138\n      swap1\n      tag_139\n      jump\t// in\n    tag_138:\n      mload(0x40)\n      dup1\n      swap2\n      sub\n      swap1\n      revert\n    tag_137:\n        /* \"FlightGuard/contracts/FlightGuardToken.sol\":4017:4035  uint256 proposalId */\n      0x00\n        /* \"FlightGuard/contracts/FlightGuardToken.sol\":4038:4051  proposalCount */\n      0x07\n      0x00\n        /* \"FlightGuard/contracts/FlightGuardToken.sol\":4038:4053  proposalCount++ */\n      dup2\n      sload\n      dup1\n      swap3\n      swap2\n      swap1\n      tag_140\n      swap1\n      tag_141\n      jump\t// in\n    tag_140:\n      swap2\n      swap1\n      pop\n      sstore\n        /* \"FlightGuard/contracts/FlightGuardToken.sol\":4017:4053  uint256 proposalId = proposalCount++ */\n      swap1\n      pop\n        /* \"FlightGuard/contracts/FlightGuardToken.sol\":4064:4092  Proposal storage newProposal */\n      0x00\n        /* \"FlightGuard/contracts/FlightGuardToken.sol\":4095:4104  proposals */\n      0x08\n        /* \"FlightGuard/contracts/FlightGuardToken.sol\":4095:4116  proposals[proposalId] */\n      0x00\n        /* \"FlightGuard/contracts/FlightGuardToken.sol\":4105:4115  proposalId */\n      dup4\n        /* \"FlightGuard/contracts/FlightGuardToken.sol\":4095:4116  proposals[proposalId] */\n      dup2\n      mstore\n      0x20\n      add\n      swap1\n      dup2\n      mstore\n      0x20\n      add\n      0x00\n      keccak256\n        /* \"FlightGuard/contracts/FlightGuardToken.sol\":4064:4116  Proposal storage newProposal = proposals[proposalId] */\n      swap1\n      pop\n        /* \"FlightGuard/contracts/FlightGuardToken.sol\":4160:4170  msg.sender */\n      caller\n        /* \"FlightGuard/contracts/FlightGuardToken.sol\":4137:4148  newProposal */\n      dup2\n        /* \"FlightGuard/contracts/FlightGuardToken.sol\":4137:4157  newProposal.proposer */\n      0x00\n      add\n      0x00\n        /* \"FlightGuard/contracts/FlightGuardToken.sol\":4137:4170  newProposal.proposer = msg.sender */\n      0x0100\n      exp\n      dup2\n      sload\n      dup2\n      0xffffffffffffffffffffffffffffffffffffffff\n      mul\n      not\n      and\n      swap1\n      dup4\n      0xffffffffffffffffffffffffffffffffffffffff\n      and\n      mul\n      or\n      swap1\n      sstore\n      pop\n        /* \"FlightGuard/contracts/FlightGuardToken.sol\":4207:4219  _description */\n      dup4\n        /* \"FlightGuard/contracts/FlightGuardToken.sol\":4181:4192  newProposal */\n      dup2\n        /* \"FlightGuard/contracts/FlightGuardToken.sol\":4181:4204  newProposal.description */\n      0x01\n      add\n        /* \"FlightGuard/contracts/FlightGuardToken.sol\":4181:4219  newProposal.description = _description */\n      swap1\n      dup2\n      tag_142\n      swap2\n      swap1\n      tag_143\n      jump\t// in\n    tag_142:\n      pop\n        /* \"FlightGuard/contracts/FlightGuardToken.sol\":4251:4255  true */\n      0x01\n        /* \"FlightGuard/contracts/FlightGuardToken.sol\":4230:4241  newProposal */\n      dup2\n        /* \"FlightGuard/contracts/FlightGuardToken.sol\":4230:4248  newProposal.active */\n      0x04\n      add\n      0x01\n        /* \"FlightGuard/contracts/FlightGuardToken.sol\":4230:4255  newProposal.active = true */\n      0x0100\n      exp\n      dup2\n      sload\n      dup2\n      0xff\n      mul\n      not\n      and\n      swap1\n      dup4\n      iszero\n      iszero\n      mul\n      or\n      swap1\n      sstore\n      pop\n        /* \"FlightGuard/contracts/FlightGuardToken.sol\":4306:4312  7 days */\n      0x093a80\n        /* \"FlightGuard/contracts/FlightGuardToken.sol\":4288:4303  block.timestamp */\n      timestamp\n        /* \"FlightGuard/contracts/FlightGuardToken.sol\":4288:4312  block.timestamp + 7 days */\n      tag_144\n      swap2\n      swap1\n      tag_129\n      jump\t// in\n    tag_144:\n        /* \"FlightGuard/contracts/FlightGuardToken.sol\":4266:4277  newProposal */\n      dup2\n        /* \"FlightGuard/contracts/FlightGuardToken.sol\":4266:4285  newProposal.endTime */\n      0x05\n      add\n        /* \"FlightGuard/contracts/FlightGuardToken.sol\":4266:4312  newProposal.endTime = block.timestamp + 7 days */\n      dup2\n      swap1\n      sstore\n      pop\n        /* \"FlightGuard/contracts/FlightGuardToken.sol\":4378:4388  proposalId */\n      dup2\n        /* \"FlightGuard/contracts/FlightGuardToken.sol\":4362:4415  ProposalCreated(proposalId, msg.sender, _description) */\n      0x7585f467599d0f008985f231af99293be388626ac16ca59505c2f8f88969cd63\n        /* \"FlightGuard/contracts/FlightGuardToken.sol\":4390:4400  msg.sender */\n      caller\n        /* \"FlightGuard/contracts/FlightGuardToken.sol\":4402:4414  _description */\n      dup7\n        /* \"FlightGuard/contracts/FlightGuardToken.sol\":4362:4415  ProposalCreated(proposalId, msg.sender, _description) */\n      mload(0x40)\n      tag_145\n      swap3\n      swap2\n      swap1\n      tag_146\n      jump\t// in\n    tag_145:\n      mload(0x40)\n      dup1\n      swap2\n      sub\n      swap1\n      log2\n        /* \"FlightGuard/contracts/FlightGuardToken.sol\":4443:4453  proposalId */\n      dup2\n        /* \"FlightGuard/contracts/FlightGuardToken.sol\":4436:4453  return proposalId */\n      swap3\n      pop\n      pop\n      pop\n        /* \"FlightGuard/contracts/FlightGuardToken.sol\":3805:4461  function createProposal(string memory _description) external returns (uint256) {... */\n      swap2\n      swap1\n      pop\n      jump\t// out\n        /* \"FlightGuard/contracts/FlightGuardToken.sol\":568:593  address public governance */\n    tag_60:\n      0x06\n      0x00\n      swap1\n      sload\n      swap1\n      0x0100\n      exp\n      swap1\n      div\n      0xffffffffffffffffffffffffffffffffffffffff\n      and\n      dup2\n      jump\t// out\n        /* \"FlightGuard/contracts/FlightGuardToken.sol\":421:465  mapping(address => uint256) public balanceOf */\n    tag_66:\n      mstore(0x20, 0x04)\n      dup1\n      0x00\n      mstore\n      keccak256(0x00, 0x40)\n      0x00\n      swap2\n      pop\n      swap1\n      pop\n      sload\n      dup2\n      jump\t// out\n        /* \"FlightGuard/contracts/FlightGuardToken.sol\":282:310  string public symbol = \"FGT\" */\n    tag_69:\n      0x01\n      dup1\n      sload\n      tag_147\n      swap1\n      tag_91\n      jump\t// in\n    tag_147:\n      dup1\n      0x1f\n      add\n      0x20\n      dup1\n      swap2\n      div\n      mul\n      0x20\n      add\n      mload(0x40)\n      swap1\n      dup2\n      add\n      0x40\n      mstore\n      dup1\n      swap3\n      swap2\n      swap1\n      dup2\n      dup2\n      mstore\n      0x20\n      add\n      dup3\n      dup1\n      sload\n      tag_148\n      swap1\n      tag_91\n      jump\t// in\n    tag_148:\n      dup1\n      iszero\n      tag_149\n      jumpi\n      dup1\n      0x1f\n      lt\n      tag_150\n      jumpi\n      0x0100\n      dup1\n      dup4\n      sload\n      div\n      mul\n      dup4\n      mstore\n      swap2\n      0x20\n      add\n      swap2\n      jump(tag_149)\n    tag_150:\n      dup3\n      add\n      swap2\n      swap1\n      0x00\n      mstore\n      keccak256(0x00, 0x20)\n      swap1\n    tag_151:\n      dup2\n      sload\n      dup2\n      mstore\n      swap1\n      0x01\n      add\n      swap1\n      0x20\n      add\n      dup1\n      dup4\n      gt\n      tag_151\n      jumpi\n      dup3\n      swap1\n      sub\n      0x1f\n      and\n      dup3\n      add\n      swap2\n    tag_149:\n      pop\n      pop\n      pop\n      pop\n      pop\n      dup2\n      jump\t// out\n        /* \"FlightGuard/contracts/FlightGuardToken.sol\":2021:2408  function transfer(address _to, uint256 _value) external returns (bool) {... */\n    tag_73:\n        /* \"FlightGuard/contracts/FlightGuardToken.sol\":2086:2090  bool */\n      0x00\n        /* \"FlightGuard/contracts/FlightGuardToken.sol\":2126:2127  0 */\n      dup1\n        /* \"FlightGuard/contracts/FlightGuardToken.sol\":2111:2128  _to != address(0) */\n      0xffffffffffffffffffffffffffffffffffffffff\n      and\n        /* \"FlightGuard/contracts/FlightGuardToken.sol\":2111:2114  _to */\n      dup4\n        /* \"FlightGuard/contracts/FlightGuardToken.sol\":2111:2128  _to != address(0) */\n      0xffffffffffffffffffffffffffffffffffffffff\n      and\n      sub\n        /* \"FlightGuard/contracts/FlightGuardToken.sol\":2103:2157  require(_to != address(0), \"Transfer to zero address\") */\n      tag_153\n      jumpi\n      mload(0x40)\n      0x08c379a000000000000000000000000000000000000000000000000000000000\n      dup2\n      mstore\n      0x04\n      add\n      tag_154\n      swap1\n      tag_119\n      jump\t// in\n    tag_154:\n      mload(0x40)\n      dup1\n      swap2\n      sub\n      swap1\n      revert\n    tag_153:\n        /* \"FlightGuard/contracts/FlightGuardToken.sol\":2201:2207  _value */\n      dup2\n        /* \"FlightGuard/contracts/FlightGuardToken.sol\":2176:2185  balanceOf */\n      0x04\n        /* \"FlightGuard/contracts/FlightGuardToken.sol\":2176:2197  balanceOf[msg.sender] */\n      0x00\n        /* \"FlightGuard/contracts/FlightGuardToken.sol\":2186:2196  msg.sender */\n      caller\n        /* \"FlightGuard/contracts/FlightGuardToken.sol\":2176:2197  balanceOf[msg.sender] */\n      0xffffffffffffffffffffffffffffffffffffffff\n      and\n      0xffffffffffffffffffffffffffffffffffffffff\n      and\n      dup2\n      mstore\n      0x20\n      add\n      swap1\n      dup2\n      mstore\n      0x20\n      add\n      0x00\n      keccak256\n      sload\n        /* \"FlightGuard/contracts/FlightGuardToken.sol\":2176:2207  balanceOf[msg.sender] >= _value */\n      lt\n      iszero\n        /* \"FlightGuard/contracts/FlightGuardToken.sol\":2168:2232  require(balanceOf[msg.sender] >= _value, \"Insufficient balance\") */\n      tag_155\n      jumpi\n      mload(0x40)\n      0x08c379a000000000000000000000000000000000000000000000000000000000\n      dup2\n      mstore\n      0x04\n      add\n      tag_156\n      swap1\n      tag_122\n      jump\t// in\n    tag_156:\n      mload(0x40)\n      dup1\n      swap2\n      sub\n      swap1\n      revert\n    tag_155:\n        /* \"FlightGuard/contracts/FlightGuardToken.sol\":2278:2284  _value */\n      dup2\n        /* \"FlightGuard/contracts/FlightGuardToken.sol\":2253:2262  balanceOf */\n      0x04\n        /* \"FlightGuard/contracts/FlightGuardToken.sol\":2253:2274  balanceOf[msg.sender] */\n      0x00\n        /* \"FlightGuard/contracts/FlightGuardToken.sol\":2263:2273  msg.sender */\n      caller\n        /* \"FlightGuard/contracts/FlightGuardToken.sol\":2253:2274  balanceOf[msg.sender] */\n      0xffffffffffffffffffffffffffffffffffffffff\n      and\n      0xffffffffffffffffffffffffffffffffffffffff\n      and\n      dup2\n      mstore\n      0x20\n      add\n      swap1\n      dup2\n      mstore\n      0x20\n      add\n      0x00\n      keccak256\n      0x00\n        /* \"FlightGuard/contracts/FlightGuardToken.sol\":2253:2284  balanceOf[msg.sender] -= _value */\n      dup3\n      dup3\n      sload\n      tag_157\n      swap2\n      swap1\n      tag_127\n      jump\t// in\n    tag_157:\n      swap3\n      pop\n      pop\n      dup2\n      swap1\n      sstore\n      pop\n        /* \"FlightGuard/contracts/FlightGuardToken.sol\":2313:2319  _value */\n      dup2\n        /* \"FlightGuard/contracts/FlightGuardToken.sol\":2295:2304  balanceOf */\n      0x04\n        /* \"FlightGuard/contracts/FlightGuardToken.sol\":2295:2309  balanceOf[_to] */\n      0x00\n        /* \"FlightGuard/contracts/FlightGuardToken.sol\":2305:2308  _to */\n      dup6\n        /* \"FlightGuard/contracts/FlightGuardToken.sol\":2295:2309  balanceOf[_to] */\n      0xffffffffffffffffffffffffffffffffffffffff\n      and\n      0xffffffffffffffffffffffffffffffffffffffff\n      and\n      dup2\n      mstore\n      0x20\n      add\n      swap1\n      dup2\n      mstore\n      0x20\n      add\n      0x00\n      keccak256\n      0x00\n        /* \"FlightGuard/contracts/FlightGuardToken.sol\":2295:2319  balanceOf[_to] += _value */\n      dup3\n      dup3\n      sload\n      tag_158\n      swap2\n      swap1\n      tag_129\n      jump\t// in\n    tag_158:\n      swap3\n      pop\n      pop\n      dup2\n      swap1\n      sstore\n      pop\n        /* \"FlightGuard/contracts/FlightGuardToken.sol\":2366:2369  _to */\n      dup3\n        /* \"FlightGuard/contracts/FlightGuardToken.sol\":2345:2378  Transfer(msg.sender, _to, _value) */\n      0xffffffffffffffffffffffffffffffffffffffff\n      and\n        /* \"FlightGuard/contracts/FlightGuardToken.sol\":2354:2364  msg.sender */\n      caller\n        /* \"FlightGuard/contracts/FlightGuardToken.sol\":2345:2378  Transfer(msg.sender, _to, _value) */\n      0xffffffffffffffffffffffffffffffffffffffff\n      and\n      0xddf252ad1be2c89b69c2b068fc378daa952ba7f163c4a11628f55a4df523b3ef\n        /* \"FlightGuard/contracts/FlightGuardToken.sol\":2371:2377  _value */\n      dup5\n        /* \"FlightGuard/contracts/FlightGuardToken.sol\":2345:2378  Transfer(msg.sender, _to, _value) */\n      mload(0x40)\n      tag_159\n      swap2\n      swap1\n      tag_44\n      jump\t// in\n    tag_159:\n      mload(0x40)\n      dup1\n      swap2\n      sub\n      swap1\n      log3\n        /* \"FlightGuard/contracts/FlightGuardToken.sol\":2396:2400  true */\n      0x01\n        /* \"FlightGuard/contracts/FlightGuardToken.sol\":2389:2400  return true */\n      swap1\n      pop\n        /* \"FlightGuard/contracts/FlightGuardToken.sol\":2021:2408  function transfer(address _to, uint256 _value) external returns (bool) {... */\n      swap3\n      swap2\n      pop\n      pop\n      jump\t// out\n        /* \"FlightGuard/contracts/FlightGuardToken.sol\":6305:6470  function setGovernance(address _newGovernance) external {... */\n    tag_77:\n        /* \"FlightGuard/contracts/FlightGuardToken.sol\":6394:6404  governance */\n      0x06\n      0x00\n      swap1\n      sload\n      swap1\n      0x0100\n      exp\n      swap1\n      div\n      0xffffffffffffffffffffffffffffffffffffffff\n      and\n        /* \"FlightGuard/contracts/FlightGuardToken.sol\":6380:6404  msg.sender == governance */\n      0xffffffffffffffffffffffffffffffffffffffff\n      and\n        /* \"FlightGuard/contracts/FlightGuardToken.sol\":6380:6390  msg.sender */\n      caller\n        /* \"FlightGuard/contracts/FlightGuardToken.sol\":6380:6404  msg.sender == governance */\n      0xffffffffffffffffffffffffffffffffffffffff\n      and\n      eq\n        /* \"FlightGuard/contracts/FlightGuardToken.sol\":6372:6424  require(msg.sender == governance, \"Only governance\") */\n      tag_161\n      jumpi\n      mload(0x40)\n      0x08c379a000000000000000000000000000000000000000000000000000000000\n      dup2\n      mstore\n      0x04\n      add\n      tag_162\n      swap1\n      tag_163\n      jump\t// in\n    tag_162:\n      mload(0x40)\n      dup1\n      swap2\n      sub\n      swap1\n      revert\n    tag_161:\n        /* \"FlightGuard/contracts/FlightGuardToken.sol\":6448:6462  _newGovernance */\n      dup1\n        /* \"FlightGuard/contracts/FlightGuardToken.sol\":6435:6445  governance */\n      0x06\n      0x00\n        /* \"FlightGuard/contracts/FlightGuardToken.sol\":6435:6462  governance = _newGovernance */\n      0x0100\n      exp\n      dup2\n      sload\n      dup2\n      0xffffffffffffffffffffffffffffffffffffffff\n      mul\n      not\n      and\n      swap1\n      dup4\n      0xffffffffffffffffffffffffffffffffffffffff\n      and\n      mul\n      or\n      swap1\n      sstore\n      pop\n        /* \"FlightGuard/contracts/FlightGuardToken.sol\":6305:6470  function setGovernance(address _newGovernance) external {... */\n      pop\n      jump\t// out\n        /* \"FlightGuard/contracts/FlightGuardToken.sol\":4633:5299  function vote(uint256 _proposalId, bool _support) external {... */\n    tag_81:\n        /* \"FlightGuard/contracts/FlightGuardToken.sol\":4703:4728  Proposal storage proposal */\n      0x00\n        /* \"FlightGuard/contracts/FlightGuardToken.sol\":4731:4740  proposals */\n      0x08\n        /* \"FlightGuard/contracts/FlightGuardToken.sol\":4731:4753  proposals[_proposalId] */\n      0x00\n        /* \"FlightGuard/contracts/FlightGuardToken.sol\":4741:4752  _proposalId */\n      dup5\n        /* \"FlightGuard/contracts/FlightGuardToken.sol\":4731:4753  proposals[_proposalId] */\n      dup2\n      mstore\n      0x20\n      add\n      swap1\n      dup2\n      mstore\n      0x20\n      add\n      0x00\n      keccak256\n        /* \"FlightGuard/contracts/FlightGuardToken.sol\":4703:4753  Proposal storage proposal = proposals[_proposalId] */\n      swap1\n      pop\n        /* \"FlightGuard/contracts/FlightGuardToken.sol\":4782:4790  proposal */\n      dup1\n        /* \"FlightGuard/contracts/FlightGuardToken.sol\":4782:4797  proposal.active */\n      0x04\n      add\n      0x01\n      swap1\n      sload\n      swap1\n      0x0100\n      exp\n      swap1\n      div\n      0xff\n      and\n        /* \"FlightGuard/contracts/FlightGuardToken.sol\":4774:4821  require(proposal.active, \"Proposal not active\") */\n      tag_165\n      jumpi\n      mload(0x40)\n      0x08c379a000000000000000000000000000000000000000000000000000000000\n      dup2\n      mstore\n      0x04\n      add\n      tag_166\n      swap1\n      tag_106\n      jump\t// in\n    tag_166:\n      mload(0x40)\n      dup1\n      swap2\n      sub\n      swap1\n      revert\n    tag_165:\n        /* \"FlightGuard/contracts/FlightGuardToken.sol\":4858:4866  proposal */\n      dup1\n        /* \"FlightGuard/contracts/FlightGuardToken.sol\":4858:4874  proposal.endTime */\n      0x05\n      add\n      sload\n        /* \"FlightGuard/contracts/FlightGuardToken.sol\":4840:4855  block.timestamp */\n      timestamp\n        /* \"FlightGuard/contracts/FlightGuardToken.sol\":4840:4874  block.timestamp < proposal.endTime */\n      lt\n        /* \"FlightGuard/contracts/FlightGuardToken.sol\":4832:4898  require(block.timestamp < proposal.endTime, \"Voting period ended\") */\n      tag_167\n      jumpi\n      mload(0x40)\n      0x08c379a000000000000000000000000000000000000000000000000000000000\n      dup2\n      mstore\n      0x04\n      add\n      tag_168\n      swap1\n      tag_169\n      jump\t// in\n    tag_168:\n      mload(0x40)\n      dup1\n      swap2\n      sub\n      swap1\n      revert\n    tag_167:\n        /* \"FlightGuard/contracts/FlightGuardToken.sol\":4918:4926  proposal */\n      dup1\n        /* \"FlightGuard/contracts/FlightGuardToken.sol\":4918:4932  proposal.voted */\n      0x06\n      add\n        /* \"FlightGuard/contracts/FlightGuardToken.sol\":4918:4944  proposal.voted[msg.sender] */\n      0x00\n        /* \"FlightGuard/contracts/FlightGuardToken.sol\":4933:4943  msg.sender */\n      caller\n        /* \"FlightGuard/contracts/FlightGuardToken.sol\":4918:4944  proposal.voted[msg.sender] */\n      0xffffffffffffffffffffffffffffffffffffffff\n      and\n      0xffffffffffffffffffffffffffffffffffffffff\n      and\n      dup2\n      mstore\n      0x20\n      add\n      swap1\n      dup2\n      mstore\n      0x20\n      add\n      0x00\n      keccak256\n      0x00\n      swap1\n      sload\n      swap1\n      0x0100\n      exp\n      swap1\n      div\n      0xff\n      and\n        /* \"FlightGuard/contracts/FlightGuardToken.sol\":4917:4944  !proposal.voted[msg.sender] */\n      iszero\n        /* \"FlightGuard/contracts/FlightGuardToken.sol\":4909:4962  require(!proposal.voted[msg.sender], \"Already voted\") */\n      tag_170\n      jumpi\n      mload(0x40)\n      0x08c379a000000000000000000000000000000000000000000000000000000000\n      dup2\n      mstore\n      0x04\n      add\n      tag_171\n      swap1\n      tag_172\n      jump\t// in\n    tag_171:\n      mload(0x40)\n      dup1\n      swap2\n      sub\n      swap1\n      revert\n    tag_170:\n        /* \"FlightGuard/contracts/FlightGuardToken.sol\":5012:5016  true */\n      0x01\n        /* \"FlightGuard/contracts/FlightGuardToken.sol\":4983:4991  proposal */\n      dup2\n        /* \"FlightGuard/contracts/FlightGuardToken.sol\":4983:4997  proposal.voted */\n      0x06\n      add\n        /* \"FlightGuard/contracts/FlightGuardToken.sol\":4983:5009  proposal.voted[msg.sender] */\n      0x00\n        /* \"FlightGuard/contracts/FlightGuardToken.sol\":4998:5008  msg.sender */\n      caller\n        /* \"FlightGuard/contracts/FlightGuardToken.sol\":4983:5009  proposal.voted[msg.sender] */\n      0xffffffffffffffffffffffffffffffffffffffff\n      and\n      0xffffffffffffffffffffffffffffffffffffffff\n      and\n      dup2\n      mstore\n      0x20\n      add\n      swap1\n      dup2\n      mstore\n      0x20\n      add\n      0x00\n      keccak256\n      0x00\n        /* \"FlightGuard/contracts/FlightGuardToken.sol\":4983:5016  proposal.voted[msg.sender] = true */\n      0x0100\n      exp\n      dup2\n      sload\n      dup2\n      0xff\n      mul\n      not\n      and\n      swap1\n      dup4\n      iszero\n      iszero\n      mul\n      or\n      swap1\n      sstore\n      pop\n        /* \"FlightGuard/contracts/FlightGuardToken.sol\":5037:5051  uint256 weight */\n      0x00\n        /* \"FlightGuard/contracts/FlightGuardToken.sol\":5054:5063  balanceOf */\n      0x04\n        /* \"FlightGuard/contracts/FlightGuardToken.sol\":5054:5075  balanceOf[msg.sender] */\n      0x00\n        /* \"FlightGuard/contracts/FlightGuardToken.sol\":5064:5074  msg.sender */\n      caller\n        /* \"FlightGuard/contracts/FlightGuardToken.sol\":5054:5075  balanceOf[msg.sender] */\n      0xffffffffffffffffffffffffffffffffffffffff\n      and\n      0xffffffffffffffffffffffffffffffffffffffff\n      and\n      dup2\n      mstore\n      0x20\n      add\n      swap1\n      dup2\n      mstore\n      0x20\n      add\n      0x00\n      keccak256\n      sload\n        /* \"FlightGuard/contracts/FlightGuardToken.sol\":5037:5075  uint256 weight = balanceOf[msg.sender] */\n      swap1\n      pop\n        /* \"FlightGuard/contracts/FlightGuardToken.sol\":5090:5098  _support */\n      dup3\n        /* \"FlightGuard/contracts/FlightGuardToken.sol\":5086:5218  if (_support) {... */\n      iszero\n      tag_173\n      jumpi\n        /* \"FlightGuard/contracts/FlightGuardToken.sol\":5136:5142  weight */\n      dup1\n        /* \"FlightGuard/contracts/FlightGuardToken.sol\":5115:5123  proposal */\n      dup3\n        /* \"FlightGuard/contracts/FlightGuardToken.sol\":5115:5132  proposal.forVotes */\n      0x02\n      add\n      0x00\n        /* \"FlightGuard/contracts/FlightGuardToken.sol\":5115:5142  proposal.forVotes += weight */\n      dup3\n      dup3\n      sload\n      tag_174\n      swap2\n      swap1\n      tag_129\n      jump\t// in\n    tag_174:\n      swap3\n      pop\n      pop\n      dup2\n      swap1\n      sstore\n      pop\n        /* \"FlightGuard/contracts/FlightGuardToken.sol\":5086:5218  if (_support) {... */\n      jump(tag_175)\n    tag_173:\n        /* \"FlightGuard/contracts/FlightGuardToken.sol\":5200:5206  weight */\n      dup1\n        /* \"FlightGuard/contracts/FlightGuardToken.sol\":5175:5183  proposal */\n      dup3\n        /* \"FlightGuard/contracts/FlightGuardToken.sol\":5175:5196  proposal.againstVotes */\n      0x03\n      add\n      0x00\n        /* \"FlightGuard/contracts/FlightGuardToken.sol\":5175:5206  proposal.againstVotes += weight */\n      dup3\n      dup3\n      sload\n      tag_176\n      swap2\n      swap1\n      tag_129\n      jump\t// in\n    tag_176:\n      swap3\n      pop\n      pop\n      dup2\n      swap1\n      sstore\n      pop\n        /* \"FlightGuard/contracts/FlightGuardToken.sol\":5086:5218  if (_support) {... */\n    tag_175:\n        /* \"FlightGuard/contracts/FlightGuardToken.sol\":5249:5260  _proposalId */\n      dup4\n        /* \"FlightGuard/contracts/FlightGuardToken.sol\":5243:5291  Voted(_proposalId, msg.sender, _support, weight) */\n      0x7c2de587c00d75474a0c6c6fa96fd3b45dc974cd4e8a75f712bb84c950dce1b5\n        /* \"FlightGuard/contracts/FlightGuardToken.sol\":5262:5272  msg.sender */\n      caller\n        /* \"FlightGuard/contracts/FlightGuardToken.sol\":5274:5282  _support */\n      dup6\n        /* \"FlightGuard/contracts/FlightGuardToken.sol\":5284:5290  weight */\n      dup5\n        /* \"FlightGuard/contracts/FlightGuardToken.sol\":5243:5291  Voted(_proposalId, msg.sender, _support, weight) */\n      mload(0x40)\n      tag_177\n      swap4\n      swap3\n      swap2\n      swap1\n      tag_178\n      jump\t// in\n    tag_177:\n      mload(0x40)\n      dup1\n      swap2\n      sub\n      swap1\n      log2\n        /* \"FlightGuard/contracts/FlightGuardToken.sol\":4692:5299  {... */\n      pop\n      pop\n        /* \"FlightGuard/contracts/FlightGuardToken.sol\":4633:5299  function vote(uint256 _proposalId, bool _support) external {... */\n      pop\n      pop\n      jump\t// out\n        /* \"FlightGuard/contracts/FlightGuardToken.sol\":600:628  uint256 public proposalCount */\n    tag_83:\n      sload(0x07)\n      dup2\n      jump\t// out\n        /* \"FlightGuard/contracts/FlightGuardToken.sol\":472:536  mapping(address => mapping(address => uint256)) public allowance */\n    tag_88:\n      mstore(0x20, 0x05)\n      dup2\n      0x00\n      mstore\n      mstore(0x20, keccak256(0x00, 0x40))\n      dup1\n      0x00\n      mstore\n      keccak256(0x00, 0x40)\n      0x00\n      swap2\n      pop\n      swap2\n      pop\n      pop\n      sload\n      dup2\n      jump\t// out\n        /* \"#utility.yul\":7:82   */\n    tag_179:\n        /* \"#utility.yul\":40:46   */\n      0x00\n        /* \"#utility.yul\":73:75   */\n      0x40\n        /* \"#utility.yul\":67:76   */\n      mload\n        /* \"#utility.yul\":57:76   */\n      swap1\n      pop\n        /* \"#utility.yul\":7:82   */\n      swap1\n      jump\t// out\n        /* \"#utility.yul\":88:205   */\n    tag_180:\n        /* \"#utility.yul\":197:198   */\n      0x00\n        /* \"#utility.yul\":194:195   */\n      dup1\n        /* \"#utility.yul\":187:199   */\n      revert\n        /* \"#utility.yul\":211:328   */\n    tag_181:\n        /* \"#utility.yul\":320:321   */\n      0x00\n        /* \"#utility.yul\":317:318   */\n      dup1\n        /* \"#utility.yul\":310:322   */\n      revert\n        /* \"#utility.yul\":334:411   */\n    tag_182:\n        /* \"#utility.yul\":371:378   */\n      0x00\n        /* \"#utility.yul\":400:405   */\n      dup2\n        /* \"#utility.yul\":389:405   */\n      swap1\n      pop\n        /* \"#utility.yul\":334:411   */\n      swap2\n      swap1\n      pop\n      jump\t// out\n        /* \"#utility.yul\":417:539   */\n    tag_183:\n        /* \"#utility.yul\":490:514   */\n      tag_259\n        /* \"#utility.yul\":508:513   */\n      dup2\n        /* \"#utility.yul\":490:514   */\n      tag_182\n      jump\t// in\n    tag_259:\n        /* \"#utility.yul\":483:488   */\n      dup2\n        /* \"#utility.yul\":480:515   */\n      eq\n        /* \"#utility.yul\":470:533   */\n      tag_260\n      jumpi\n        /* \"#utility.yul\":529:530   */\n      0x00\n        /* \"#utility.yul\":526:527   */\n      dup1\n        /* \"#utility.yul\":519:531   */\n      revert\n        /* \"#utility.yul\":470:533   */\n    tag_260:\n        /* \"#utility.yul\":417:539   */\n      pop\n      jump\t// out\n        /* \"#utility.yul\":545:684   */\n    tag_184:\n        /* \"#utility.yul\":591:596   */\n      0x00\n        /* \"#utility.yul\":629:635   */\n      dup2\n        /* \"#utility.yul\":616:636   */\n      calldataload\n        /* \"#utility.yul\":607:636   */\n      swap1\n      pop\n        /* \"#utility.yul\":645:678   */\n      tag_262\n        /* \"#utility.yul\":672:677   */\n      dup2\n        /* \"#utility.yul\":645:678   */\n      tag_183\n      jump\t// in\n    tag_262:\n        /* \"#utility.yul\":545:684   */\n      swap3\n      swap2\n      pop\n      pop\n      jump\t// out\n        /* \"#utility.yul\":690:1019   */\n    tag_24:\n        /* \"#utility.yul\":749:755   */\n      0x00\n        /* \"#utility.yul\":798:800   */\n      0x20\n        /* \"#utility.yul\":786:795   */\n      dup3\n        /* \"#utility.yul\":777:784   */\n      dup5\n        /* \"#utility.yul\":773:796   */\n      sub\n        /* \"#utility.yul\":769:801   */\n      slt\n        /* \"#utility.yul\":766:885   */\n      iszero\n      tag_264\n      jumpi\n        /* \"#utility.yul\":804:883   */\n      tag_265\n      tag_180\n      jump\t// in\n    tag_265:\n        /* \"#utility.yul\":766:885   */\n    tag_264:\n        /* \"#utility.yul\":924:925   */\n      0x00\n        /* \"#utility.yul\":949:1002   */\n      tag_266\n        /* \"#utility.yul\":994:1001   */\n      dup5\n        /* \"#utility.yul\":985:991   */\n      dup3\n        /* \"#utility.yul\":974:983   */\n      dup6\n        /* \"#utility.yul\":970:992   */\n      add\n        /* \"#utility.yul\":949:1002   */\n      tag_184\n      jump\t// in\n    tag_266:\n        /* \"#utility.yul\":939:1002   */\n      swap2\n      pop\n        /* \"#utility.yul\":895:1012   */\n      pop\n        /* \"#utility.yul\":690:1019   */\n      swap3\n      swap2\n      pop\n      pop\n      jump\t// out\n        /* \"#utility.yul\":1025:1151   */\n    tag_185:\n        /* \"#utility.yul\":1062:1069   */\n      0x00\n        /* \"#utility.yul\":1102:1144   */\n      0xffffffffffffffffffffffffffffffffffffffff\n        /* \"#utility.yul\":1095:1100   */\n      dup3\n        /* \"#utility.yul\":1091:1145   */\n      and\n        /* \"#utility.yul\":1080:1145   */\n      swap1\n      pop\n        /* \"#utility.yul\":1025:1151   */\n      swap2\n      swap1\n      pop\n      jump\t// out\n        /* \"#utility.yul\":1157:1253   */\n    tag_186:\n        /* \"#utility.yul\":1194:1201   */\n      0x00\n        /* \"#utility.yul\":1223:1247   */\n      tag_269\n        /* \"#utility.yul\":1241:1246   */\n      dup3\n        /* \"#utility.yul\":1223:1247   */\n      tag_185\n      jump\t// in\n    tag_269:\n        /* \"#utility.yul\":1212:1247   */\n      swap1\n      pop\n        /* \"#utility.yul\":1157:1253   */\n      swap2\n      swap1\n      pop\n      jump\t// out\n        /* \"#utility.yul\":1259:1377   */\n    tag_187:\n        /* \"#utility.yul\":1346:1370   */\n      tag_271\n        /* \"#utility.yul\":1364:1369   */\n      dup2\n        /* \"#utility.yul\":1346:1370   */\n      tag_186\n      jump\t// in\n    tag_271:\n        /* \"#utility.yul\":1341:1344   */\n      dup3\n        /* \"#utility.yul\":1334:1371   */\n      mstore\n        /* \"#utility.yul\":1259:1377   */\n      pop\n      pop\n      jump\t// out\n        /* \"#utility.yul\":1383:1482   */\n    tag_188:\n        /* \"#utility.yul\":1435:1441   */\n      0x00\n        /* \"#utility.yul\":1469:1474   */\n      dup2\n        /* \"#utility.yul\":1463:1475   */\n      mload\n        /* \"#utility.yul\":1453:1475   */\n      swap1\n      pop\n        /* \"#utility.yul\":1383:1482   */\n      swap2\n      swap1\n      pop\n      jump\t// out\n        /* \"#utility.yul\":1488:1657   */\n    tag_189:\n        /* \"#utility.yul\":1572:1583   */\n      0x00\n        /* \"#utility.yul\":1606:1612   */\n      dup3\n        /* \"#utility.yul\":1601:1604   */\n      dup3\n        /* \"#utility.yul\":1594:1613   */\n      mstore\n        /* \"#utility.yul\":1646:1650   */\n      0x20\n        /* \"#utility.yul\":1641:1644   */\n      dup3\n        /* \"#utility.yul\":1637:1651   */\n      add\n        /* \"#utility.yul\":1622:1651   */\n      swap1\n      pop\n        /* \"#utility.yul\":1488:1657   */\n      swap3\n      swap2\n      pop\n      pop\n      jump\t// out\n        /* \"#utility.yul\":1663:1802   */\n    tag_190:\n        /* \"#utility.yul\":1752:1758   */\n      dup3\n        /* \"#utility.yul\":1747:1750   */\n      dup2\n        /* \"#utility.yul\":1742:1745   */\n      dup4\n        /* \"#utility.yul\":1736:1759   */\n      mcopy\n        /* \"#utility.yul\":1793:1794   */\n      0x00\n        /* \"#utility.yul\":1784:1790   */\n      dup4\n        /* \"#utility.yul\":1779:1782   */\n      dup4\n        /* \"#utility.yul\":1775:1791   */\n      add\n        /* \"#utility.yul\":1768:1795   */\n      mstore\n        /* \"#utility.yul\":1663:1802   */\n      pop\n      pop\n      pop\n      jump\t// out\n        /* \"#utility.yul\":1808:1910   */\n    tag_191:\n        /* \"#utility.yul\":1849:1855   */\n      0x00\n        /* \"#utility.yul\":1900:1902   */\n      0x1f\n        /* \"#utility.yul\":1896:1903   */\n      not\n        /* \"#utility.yul\":1891:1893   */\n      0x1f\n        /* \"#utility.yul\":1884:1889   */\n      dup4\n        /* \"#utility.yul\":1880:1894   */\n      add\n        /* \"#utility.yul\":1876:1904   */\n      and\n        /* \"#utility.yul\":1866:1904   */\n      swap1\n      pop\n        /* \"#utility.yul\":1808:1910   */\n      swap2\n      swap1\n      pop\n      jump\t// out\n        /* \"#utility.yul\":1916:2293   */\n    tag_192:\n        /* \"#utility.yul\":2004:2007   */\n      0x00\n        /* \"#utility.yul\":2032:2071   */\n      tag_277\n        /* \"#utility.yul\":2065:2070   */\n      dup3\n        /* \"#utility.yul\":2032:2071   */\n      tag_188\n      jump\t// in\n    tag_277:\n        /* \"#utility.yul\":2087:2158   */\n      tag_278\n        /* \"#utility.yul\":2151:2157   */\n      dup2\n        /* \"#utility.yul\":2146:2149   */\n      dup6\n        /* \"#utility.yul\":2087:2158   */\n      tag_189\n      jump\t// in\n    tag_278:\n        /* \"#utility.yul\":2080:2158   */\n      swap4\n      pop\n        /* \"#utility.yul\":2167:2232   */\n      tag_279\n        /* \"#utility.yul\":2225:2231   */\n      dup2\n        /* \"#utility.yul\":2220:2223   */\n      dup6\n        /* \"#utility.yul\":2213:2217   */\n      0x20\n        /* \"#utility.yul\":2206:2211   */\n      dup7\n        /* \"#utility.yul\":2202:2218   */\n      add\n        /* \"#utility.yul\":2167:2232   */\n      tag_190\n      jump\t// in\n    tag_279:\n        /* \"#utility.yul\":2257:2286   */\n      tag_280\n        /* \"#utility.yul\":2279:2285   */\n      dup2\n        /* \"#utility.yul\":2257:2286   */\n      tag_191\n      jump\t// in\n    tag_280:\n        /* \"#utility.yul\":2252:2255   */\n      dup5\n        /* \"#utility.yul\":2248:2287   */\n      add\n        /* \"#utility.yul\":2241:2287   */\n      swap2\n      pop\n        /* \"#utility.yul\":2008:2293   */\n      pop\n        /* \"#utility.yul\":1916:2293   */\n      swap3\n      swap2\n      pop\n      pop\n      jump\t// out\n        /* \"#utility.yul\":2299:2417   */\n    tag_193:\n        /* \"#utility.yul\":2386:2410   */\n      tag_282\n        /* \"#utility.yul\":2404:2409   */\n      dup2\n        /* \"#utility.yul\":2386:2410   */\n      tag_182\n      jump\t// in\n    tag_282:\n        /* \"#utility.yul\":2381:2384   */\n      dup3\n        /* \"#utility.yul\":2374:2411   */\n      mstore\n        /* \"#utility.yul\":2299:2417   */\n      pop\n      pop\n      jump\t// out\n        /* \"#utility.yul\":2423:2513   */\n    tag_194:\n        /* \"#utility.yul\":2457:2464   */\n      0x00\n        /* \"#utility.yul\":2500:2505   */\n      dup2\n        /* \"#utility.yul\":2493:2506   */\n      iszero\n        /* \"#utility.yul\":2486:2507   */\n      iszero\n        /* \"#utility.yul\":2475:2507   */\n      swap1\n      pop\n        /* \"#utility.yul\":2423:2513   */\n      swap2\n      swap1\n      pop\n      jump\t// out\n        /* \"#utility.yul\":2519:2628   */\n    tag_195:\n        /* \"#utility.yul\":2600:2621   */\n      tag_285\n        /* \"#utility.yul\":2615:2620   */\n      dup2\n        /* \"#utility.yul\":2600:2621   */\n      tag_194\n      jump\t// in\n    tag_285:\n        /* \"#utility.yul\":2595:2598   */\n      dup3\n        /* \"#utility.yul\":2588:2622   */\n      mstore\n        /* \"#utility.yul\":2519:2628   */\n      pop\n      pop\n      jump\t// out\n        /* \"#utility.yul\":2634:3587   */\n    tag_27:\n        /* \"#utility.yul\":2903:2907   */\n      0x00\n        /* \"#utility.yul\":2941:2944   */\n      0xe0\n        /* \"#utility.yul\":2930:2939   */\n      dup3\n        /* \"#utility.yul\":2926:2945   */\n      add\n        /* \"#utility.yul\":2918:2945   */\n      swap1\n      pop\n        /* \"#utility.yul\":2955:3026   */\n      tag_287\n        /* \"#utility.yul\":3023:3024   */\n      0x00\n        /* \"#utility.yul\":3012:3021   */\n      dup4\n        /* \"#utility.yul\":3008:3025   */\n      add\n        /* \"#utility.yul\":2999:3005   */\n      dup11\n        /* \"#utility.yul\":2955:3026   */\n      tag_187\n      jump\t// in\n    tag_287:\n        /* \"#utility.yul\":3073:3082   */\n      dup2\n        /* \"#utility.yul\":3067:3071   */\n      dup2\n        /* \"#utility.yul\":3063:3083   */\n      sub\n        /* \"#utility.yul\":3058:3060   */\n      0x20\n        /* \"#utility.yul\":3047:3056   */\n      dup4\n        /* \"#utility.yul\":3043:3061   */\n      add\n        /* \"#utility.yul\":3036:3084   */\n      mstore\n        /* \"#utility.yul\":3101:3179   */\n      tag_288\n        /* \"#utility.yul\":3174:3178   */\n      dup2\n        /* \"#utility.yul\":3165:3171   */\n      dup10\n        /* \"#utility.yul\":3101:3179   */\n      tag_192\n      jump\t// in\n    tag_288:\n        /* \"#utility.yul\":3093:3179   */\n      swap1\n      pop\n        /* \"#utility.yul\":3189:3261   */\n      tag_289\n        /* \"#utility.yul\":3257:3259   */\n      0x40\n        /* \"#utility.yul\":3246:3255   */\n      dup4\n        /* \"#utility.yul\":3242:3260   */\n      add\n        /* \"#utility.yul\":3233:3239   */\n      dup9\n        /* \"#utility.yul\":3189:3261   */\n      tag_193\n      jump\t// in\n    tag_289:\n        /* \"#utility.yul\":3271:3343   */\n      tag_290\n        /* \"#utility.yul\":3339:3341   */\n      0x60\n        /* \"#utility.yul\":3328:3337   */\n      dup4\n        /* \"#utility.yul\":3324:3342   */\n      add\n        /* \"#utility.yul\":3315:3321   */\n      dup8\n        /* \"#utility.yul\":3271:3343   */\n      tag_193\n      jump\t// in\n    tag_290:\n        /* \"#utility.yul\":3353:3420   */\n      tag_291\n        /* \"#utility.yul\":3415:3418   */\n      0x80\n        /* \"#utility.yul\":3404:3413   */\n      dup4\n        /* \"#utility.yul\":3400:3419   */\n      add\n        /* \"#utility.yul\":3391:3397   */\n      dup7\n        /* \"#utility.yul\":3353:3420   */\n      tag_195\n      jump\t// in\n    tag_291:\n        /* \"#utility.yul\":3430:3497   */\n      tag_292\n        /* \"#utility.yul\":3492:3495   */\n      0xa0\n        /* \"#utility.yul\":3481:3490   */\n      dup4\n        /* \"#utility.yul\":3477:3496   */\n      add\n        /* \"#utility.yul\":3468:3474   */\n      dup6\n        /* \"#utility.yul\":3430:3497   */\n      tag_195\n      jump\t// in\n    tag_292:\n        /* \"#utility.yul\":3507:3580   */\n      tag_293\n        /* \"#utility.yul\":3575:3578   */\n      0xc0\n        /* \"#utility.yul\":3564:3573   */\n      dup4\n        /* \"#utility.yul\":3560:3579   */\n      add\n        /* \"#utility.yul\":3551:3557   */\n      dup5\n        /* \"#utility.yul\":3507:3580   */\n      tag_193\n      jump\t// in\n    tag_293:\n        /* \"#utility.yul\":2634:3587   */\n      swap9\n      swap8\n      pop\n      pop\n      pop\n      pop\n      pop\n      pop\n      pop\n      pop\n      jump\t// out\n        /* \"#utility.yul\":3593:3906   */\n    tag_31:\n        /* \"#utility.yul\":3706:3710   */\n      0x00\n        /* \"#utility.yul\":3744:3746   */\n      0x20\n        /* \"#utility.yul\":3733:3742   */\n      dup3\n        /* \"#utility.yul\":3729:3747   */\n      add\n        /* \"#utility.yul\":3721:3747   */\n      swap1\n      pop\n        /* \"#utility.yul\":3793:3802   */\n      dup2\n        /* \"#utility.yul\":3787:3791   */\n      dup2\n        /* \"#utility.yul\":3783:3803   */\n      sub\n        /* \"#utility.yul\":3779:3780   */\n      0x00\n        /* \"#utility.yul\":3768:3777   */\n      dup4\n        /* \"#utility.yul\":3764:3781   */\n      add\n        /* \"#utility.yul\":3757:3804   */\n      mstore\n        /* \"#utility.yul\":3821:3899   */\n      tag_295\n        /* \"#utility.yul\":3894:3898   */\n      dup2\n        /* \"#utility.yul\":3885:3891   */\n      dup5\n        /* \"#utility.yul\":3821:3899   */\n      tag_192\n      jump\t// in\n    tag_295:\n        /* \"#utility.yul\":3813:3899   */\n      swap1\n      pop\n        /* \"#utility.yul\":3593:3906   */\n      swap3\n      swap2\n      pop\n      pop\n      jump\t// out\n        /* \"#utility.yul\":3912:4034   */\n    tag_196:\n        /* \"#utility.yul\":3985:4009   */\n      tag_297\n        /* \"#utility.yul\":4003:4008   */\n      dup2\n        /* \"#utility.yul\":3985:4009   */\n      tag_186\n      jump\t// in\n    tag_297:\n        /* \"#utility.yul\":3978:3983   */\n      dup2\n        /* \"#utility.yul\":3975:4010   */\n      eq\n        /* \"#utility.yul\":3965:4028   */\n      tag_298\n      jumpi\n        /* \"#utility.yul\":4024:4025   */\n      0x00\n        /* \"#utility.yul\":4021:4022   */\n      dup1\n        /* \"#utility.yul\":4014:4026   */\n      revert\n        /* \"#utility.yul\":3965:4028   */\n    tag_298:\n        /* \"#utility.yul\":3912:4034   */\n      pop\n      jump\t// out\n        /* \"#utility.yul\":4040:4179   */\n    tag_197:\n        /* \"#utility.yul\":4086:4091   */\n      0x00\n        /* \"#utility.yul\":4124:4130   */\n      dup2\n        /* \"#utility.yul\":4111:4131   */\n      calldataload\n        /* \"#utility.yul\":4102:4131   */\n      swap1\n      pop\n        /* \"#utility.yul\":4140:4173   */\n      tag_300\n        /* \"#utility.yul\":4167:4172   */\n      dup2\n        /* \"#utility.yul\":4140:4173   */\n      tag_196\n      jump\t// in\n    tag_300:\n        /* \"#utility.yul\":4040:4179   */\n      swap3\n      swap2\n      pop\n      pop\n      jump\t// out\n        /* \"#utility.yul\":4185:4659   */\n    tag_34:\n        /* \"#utility.yul\":4253:4259   */\n      0x00\n        /* \"#utility.yul\":4261:4267   */\n      dup1\n        /* \"#utility.yul\":4310:4312   */\n      0x40\n        /* \"#utility.yul\":4298:4307   */\n      dup4\n        /* \"#utility.yul\":4289:4296   */\n      dup6\n        /* \"#utility.yul\":4285:4308   */\n      sub\n        /* \"#utility.yul\":4281:4313   */\n      slt\n        /* \"#utility.yul\":4278:4397   */\n      iszero\n      tag_302\n      jumpi\n        /* \"#utility.yul\":4316:4395   */\n      tag_303\n      tag_180\n      jump\t// in\n    tag_303:\n        /* \"#utility.yul\":4278:4397   */\n    tag_302:\n        /* \"#utility.yul\":4436:4437   */\n      0x00\n        /* \"#utility.yul\":4461:4514   */\n      tag_304\n        /* \"#utility.yul\":4506:4513   */\n      dup6\n        /* \"#utility.yul\":4497:4503   */\n      dup3\n        /* \"#utility.yul\":4486:4495   */\n      dup7\n        /* \"#utility.yul\":4482:4504   */\n      add\n        /* \"#utility.yul\":4461:4514   */\n      tag_197\n      jump\t// in\n    tag_304:\n        /* \"#utility.yul\":4451:4514   */\n      swap3\n      pop\n        /* \"#utility.yul\":4407:4524   */\n      pop\n        /* \"#utility.yul\":4563:4565   */\n      0x20\n        /* \"#utility.yul\":4589:4642   */\n      tag_305\n        /* \"#utility.yul\":4634:4641   */\n      dup6\n        /* \"#utility.yul\":4625:4631   */\n      dup3\n        /* \"#utility.yul\":4614:4623   */\n      dup7\n        /* \"#utility.yul\":4610:4632   */\n      add\n        /* \"#utility.yul\":4589:4642   */\n      tag_184\n      jump\t// in\n    tag_305:\n        /* \"#utility.yul\":4579:4642   */\n      swap2\n      pop\n        /* \"#utility.yul\":4534:4652   */\n      pop\n        /* \"#utility.yul\":4185:4659   */\n      swap3\n      pop\n      swap3\n      swap1\n      pop\n      jump\t// out\n        /* \"#utility.yul\":4665:4875   */\n    tag_37:\n        /* \"#utility.yul\":4752:4756   */\n      0x00\n        /* \"#utility.yul\":4790:4792   */\n      0x20\n        /* \"#utility.yul\":4779:4788   */\n      dup3\n        /* \"#utility.yul\":4775:4793   */\n      add\n        /* \"#utility.yul\":4767:4793   */\n      swap1\n      pop\n        /* \"#utility.yul\":4803:4868   */\n      tag_307\n        /* \"#utility.yul\":4865:4866   */\n      0x00\n        /* \"#utility.yul\":4854:4863   */\n      dup4\n        /* \"#utility.yul\":4850:4867   */\n      add\n        /* \"#utility.yul\":4841:4847   */\n      dup5\n        /* \"#utility.yul\":4803:4868   */\n      tag_195\n      jump\t// in\n    tag_307:\n        /* \"#utility.yul\":4665:4875   */\n      swap3\n      swap2\n      pop\n      pop\n      jump\t// out\n        /* \"#utility.yul\":4881:5103   */\n    tag_44:\n        /* \"#utility.yul\":4974:4978   */\n      0x00\n        /* \"#utility.yul\":5012:5014   */\n      0x20\n        /* \"#utility.yul\":5001:5010   */\n      dup3\n        /* \"#utility.yul\":4997:5015   */\n      add\n        /* \"#utility.yul\":4989:5015   */\n      swap1\n      pop\n        /* \"#utility.yul\":5025:5096   */\n      tag_309\n        /* \"#utility.yul\":5093:5094   */\n      0x00\n        /* \"#utility.yul\":5082:5091   */\n      dup4\n        /* \"#utility.yul\":5078:5095   */\n      add\n        /* \"#utility.yul\":5069:5075   */\n      dup5\n        /* \"#utility.yul\":5025:5096   */\n      tag_193\n      jump\t// in\n    tag_309:\n        /* \"#utility.yul\":4881:5103   */\n      swap3\n      swap2\n      pop\n      pop\n      jump\t// out\n        /* \"#utility.yul\":5109:5728   */\n    tag_47:\n        /* \"#utility.yul\":5186:5192   */\n      0x00\n        /* \"#utility.yul\":5194:5200   */\n      dup1\n        /* \"#utility.yul\":5202:5208   */\n      0x00\n        /* \"#utility.yul\":5251:5253   */\n      0x60\n        /* \"#utility.yul\":5239:5248   */\n      dup5\n        /* \"#utility.yul\":5230:5237   */\n      dup7\n        /* \"#utility.yul\":5226:5249   */\n      sub\n        /* \"#utility.yul\":5222:5254   */\n      slt\n        /* \"#utility.yul\":5219:5338   */\n      iszero\n      tag_311\n      jumpi\n        /* \"#utility.yul\":5257:5336   */\n      tag_312\n      tag_180\n      jump\t// in\n    tag_312:\n        /* \"#utility.yul\":5219:5338   */\n    tag_311:\n        /* \"#utility.yul\":5377:5378   */\n      0x00\n        /* \"#utility.yul\":5402:5455   */\n      tag_313\n        /* \"#utility.yul\":5447:5454   */\n      dup7\n        /* \"#utility.yul\":5438:5444   */\n      dup3\n        /* \"#utility.yul\":5427:5436   */\n      dup8\n        /* \"#utility.yul\":5423:5445   */\n      add\n        /* \"#utility.yul\":5402:5455   */\n      tag_197\n      jump\t// in\n    tag_313:\n        /* \"#utility.yul\":5392:5455   */\n      swap4\n      pop\n        /* \"#utility.yul\":5348:5465   */\n      pop\n        /* \"#utility.yul\":5504:5506   */\n      0x20\n        /* \"#utility.yul\":5530:5583   */\n      tag_314\n        /* \"#utility.yul\":5575:5582   */\n      dup7\n        /* \"#utility.yul\":5566:5572   */\n      dup3\n        /* \"#utility.yul\":5555:5564   */\n      dup8\n        /* \"#utility.yul\":5551:5573   */\n      add\n        /* \"#utility.yul\":5530:5583   */\n      tag_197\n      jump\t// in\n    tag_314:\n        /* \"#utility.yul\":5520:5583   */\n      swap3\n      pop\n        /* \"#utility.yul\":5475:5593   */\n      pop\n        /* \"#utility.yul\":5632:5634   */\n      0x40\n        /* \"#utility.yul\":5658:5711   */\n      tag_315\n        /* \"#utility.yul\":5703:5710   */\n      dup7\n        /* \"#utility.yul\":5694:5700   */\n      dup3\n        /* \"#utility.yul\":5683:5692   */\n      dup8\n        /* \"#utility.yul\":5679:5701   */\n      add\n        /* \"#utility.yul\":5658:5711   */\n      tag_184\n      jump\t// in\n    tag_315:\n        /* \"#utility.yul\":5648:5711   */\n      swap2\n      pop\n        /* \"#utility.yul\":5603:5721   */\n      pop\n        /* \"#utility.yul\":5109:5728   */\n      swap3\n      pop\n      swap3\n      pop\n      swap3\n      jump\t// out\n        /* \"#utility.yul\":5734:5820   */\n    tag_198:\n        /* \"#utility.yul\":5769:5776   */\n      0x00\n        /* \"#utility.yul\":5809:5813   */\n      0xff\n        /* \"#utility.yul\":5802:5807   */\n      dup3\n        /* \"#utility.yul\":5798:5814   */\n      and\n        /* \"#utility.yul\":5787:5814   */\n      swap1\n      pop\n        /* \"#utility.yul\":5734:5820   */\n      swap2\n      swap1\n      pop\n      jump\t// out\n        /* \"#utility.yul\":5826:5938   */\n    tag_199:\n        /* \"#utility.yul\":5909:5931   */\n      tag_318\n        /* \"#utility.yul\":5925:5930   */\n      dup2\n        /* \"#utility.yul\":5909:5931   */\n      tag_198\n      jump\t// in\n    tag_318:\n        /* \"#utility.yul\":5904:5907   */\n      dup3\n        /* \"#utility.yul\":5897:5932   */\n      mstore\n        /* \"#utility.yul\":5826:5938   */\n      pop\n      pop\n      jump\t// out\n        /* \"#utility.yul\":5944:6158   */\n    tag_53:\n        /* \"#utility.yul\":6033:6037   */\n      0x00\n        /* \"#utility.yul\":6071:6073   */\n      0x20\n        /* \"#utility.yul\":6060:6069   */\n      dup3\n        /* \"#utility.yul\":6056:6074   */\n      add\n        /* \"#utility.yul\":6048:6074   */\n      swap1\n      pop\n        /* \"#utility.yul\":6084:6151   */\n      tag_320\n        /* \"#utility.yul\":6148:6149   */\n      0x00\n        /* \"#utility.yul\":6137:6146   */\n      dup4\n        /* \"#utility.yul\":6133:6150   */\n      add\n        /* \"#utility.yul\":6124:6130   */\n      dup5\n        /* \"#utility.yul\":6084:6151   */\n      tag_199\n      jump\t// in\n    tag_320:\n        /* \"#utility.yul\":5944:6158   */\n      swap3\n      swap2\n      pop\n      pop\n      jump\t// out\n        /* \"#utility.yul\":6164:6281   */\n    tag_200:\n        /* \"#utility.yul\":6273:6274   */\n      0x00\n        /* \"#utility.yul\":6270:6271   */\n      dup1\n        /* \"#utility.yul\":6263:6275   */\n      revert\n        /* \"#utility.yul\":6287:6404   */\n    tag_201:\n        /* \"#utility.yul\":6396:6397   */\n      0x00\n        /* \"#utility.yul\":6393:6394   */\n      dup1\n        /* \"#utility.yul\":6386:6398   */\n      revert\n        /* \"#utility.yul\":6410:6590   */\n    tag_202:\n        /* \"#utility.yul\":6458:6535   */\n      0x4e487b7100000000000000000000000000000000000000000000000000000000\n        /* \"#utility.yul\":6455:6456   */\n      0x00\n        /* \"#utility.yul\":6448:6536   */\n      mstore\n        /* \"#utility.yul\":6555:6559   */\n      0x41\n        /* \"#utility.yul\":6552:6553   */\n      0x04\n        /* \"#utility.yul\":6545:6560   */\n      mstore\n        /* \"#utility.yul\":6579:6583   */\n      0x24\n        /* \"#utility.yul\":6576:6577   */\n      0x00\n        /* \"#utility.yul\":6569:6584   */\n      revert\n        /* \"#utility.yul\":6596:6877   */\n    tag_203:\n        /* \"#utility.yul\":6679:6706   */\n      tag_325\n        /* \"#utility.yul\":6701:6705   */\n      dup3\n        /* \"#utility.yul\":6679:6706   */\n      tag_191\n      jump\t// in\n    tag_325:\n        /* \"#utility.yul\":6671:6677   */\n      dup2\n        /* \"#utility.yul\":6667:6707   */\n      add\n        /* \"#utility.yul\":6809:6815   */\n      dup2\n        /* \"#utility.yul\":6797:6807   */\n      dup2\n        /* \"#utility.yul\":6794:6816   */\n      lt\n        /* \"#utility.yul\":6773:6791   */\n      0xffffffffffffffff\n        /* \"#utility.yul\":6761:6771   */\n      dup3\n        /* \"#utility.yul\":6758:6792   */\n      gt\n        /* \"#utility.yul\":6755:6817   */\n      or\n        /* \"#utility.yul\":6752:6840   */\n      iszero\n      tag_326\n      jumpi\n        /* \"#utility.yul\":6820:6838   */\n      tag_327\n      tag_202\n      jump\t// in\n    tag_327:\n        /* \"#utility.yul\":6752:6840   */\n    tag_326:\n        /* \"#utility.yul\":6860:6870   */\n      dup1\n        /* \"#utility.yul\":6856:6858   */\n      0x40\n        /* \"#utility.yul\":6849:6871   */\n      mstore\n        /* \"#utility.yul\":6639:6877   */\n      pop\n        /* \"#utility.yul\":6596:6877   */\n      pop\n      pop\n      jump\t// out\n        /* \"#utility.yul\":6883:7012   */\n    tag_204:\n        /* \"#utility.yul\":6917:6923   */\n      0x00\n        /* \"#utility.yul\":6944:6964   */\n      tag_329\n      tag_179\n      jump\t// in\n    tag_329:\n        /* \"#utility.yul\":6934:6964   */\n      swap1\n      pop\n        /* \"#utility.yul\":6973:7006   */\n      tag_330\n        /* \"#utility.yul\":7001:7005   */\n      dup3\n        /* \"#utility.yul\":6993:6999   */\n      dup3\n        /* \"#utility.yul\":6973:7006   */\n      tag_203\n      jump\t// in\n    tag_330:\n        /* \"#utility.yul\":6883:7012   */\n      swap2\n      swap1\n      pop\n      jump\t// out\n        /* \"#utility.yul\":7018:7326   */\n    tag_205:\n        /* \"#utility.yul\":7080:7084   */\n      0x00\n        /* \"#utility.yul\":7170:7188   */\n      0xffffffffffffffff\n        /* \"#utility.yul\":7162:7168   */\n      dup3\n        /* \"#utility.yul\":7159:7189   */\n      gt\n        /* \"#utility.yul\":7156:7212   */\n      iszero\n      tag_332\n      jumpi\n        /* \"#utility.yul\":7192:7210   */\n      tag_333\n      tag_202\n      jump\t// in\n    tag_333:\n        /* \"#utility.yul\":7156:7212   */\n    tag_332:\n        /* \"#utility.yul\":7230:7259   */\n      tag_334\n        /* \"#utility.yul\":7252:7258   */\n      dup3\n        /* \"#utility.yul\":7230:7259   */\n      tag_191\n      jump\t// in\n    tag_334:\n        /* \"#utility.yul\":7222:7259   */\n      swap1\n      pop\n        /* \"#utility.yul\":7314:7318   */\n      0x20\n        /* \"#utility.yul\":7308:7312   */\n      dup2\n        /* \"#utility.yul\":7304:7319   */\n      add\n        /* \"#utility.yul\":7296:7319   */\n      swap1\n      pop\n        /* \"#utility.yul\":7018:7326   */\n      swap2\n      swap1\n      pop\n      jump\t// out\n        /* \"#utility.yul\":7332:7480   */\n    tag_206:\n        /* \"#utility.yul\":7430:7436   */\n      dup3\n        /* \"#utility.yul\":7425:7428   */\n      dup2\n        /* \"#utility.yul\":7420:7423   */\n      dup4\n        /* \"#utility.yul\":7407:7437   */\n      calldatacopy\n        /* \"#utility.yul\":7471:7472   */\n      0x00\n        /* \"#utility.yul\":7462:7468   */\n      dup4\n        /* \"#utility.yul\":7457:7460   */\n      dup4\n        /* \"#utility.yul\":7453:7469   */\n      add\n        /* \"#utility.yul\":7446:7473   */\n      mstore\n        /* \"#utility.yul\":7332:7480   */\n      pop\n      pop\n      pop\n      jump\t// out\n        /* \"#utility.yul\":7486:7911   */\n    tag_207:\n        /* \"#utility.yul\":7564:7569   */\n      0x00\n        /* \"#utility.yul\":7589:7655   */\n      tag_337\n        /* \"#utility.yul\":7605:7654   */\n      tag_338\n        /* \"#utility.yul\":7647:7653   */\n      dup5\n        /* \"#utility.yul\":7605:7654   */\n      tag_205\n      jump\t// in\n    tag_338:\n        /* \"#utility.yul\":7589:7655   */\n      tag_204\n      jump\t// in\n    tag_337:\n        /* \"#utility.yul\":7580:7655   */\n      swap1\n      pop\n        /* \"#utility.yul\":7678:7684   */\n      dup3\n        /* \"#utility.yul\":7671:7676   */\n      dup2\n        /* \"#utility.yul\":7664:7685   */\n      mstore\n        /* \"#utility.yul\":7716:7720   */\n      0x20\n        /* \"#utility.yul\":7709:7714   */\n      dup2\n        /* \"#utility.yul\":7705:7721   */\n      add\n        /* \"#utility.yul\":7754:7757   */\n      dup5\n        /* \"#utility.yul\":7745:7751   */\n      dup5\n        /* \"#utility.yul\":7740:7743   */\n      dup5\n        /* \"#utility.yul\":7736:7752   */\n      add\n        /* \"#utility.yul\":7733:7758   */\n      gt\n        /* \"#utility.yul\":7730:7842   */\n      iszero\n      tag_339\n      jumpi\n        /* \"#utility.yul\":7761:7840   */\n      tag_340\n      tag_201\n      jump\t// in\n    tag_340:\n        /* \"#utility.yul\":7730:7842   */\n    tag_339:\n        /* \"#utility.yul\":7851:7905   */\n      tag_341\n        /* \"#utility.yul\":7898:7904   */\n      dup5\n        /* \"#utility.yul\":7893:7896   */\n      dup3\n        /* \"#utility.yul\":7888:7891   */\n      dup6\n        /* \"#utility.yul\":7851:7905   */\n      tag_206\n      jump\t// in\n    tag_341:\n        /* \"#utility.yul\":7570:7911   */\n      pop\n        /* \"#utility.yul\":7486:7911   */\n      swap4\n      swap3\n      pop\n      pop\n      pop\n      jump\t// out\n        /* \"#utility.yul\":7931:8271   */\n    tag_208:\n        /* \"#utility.yul\":7987:7992   */\n      0x00\n        /* \"#utility.yul\":8036:8039   */\n      dup3\n        /* \"#utility.yul\":8029:8033   */\n      0x1f\n        /* \"#utility.yul\":8021:8027   */\n      dup4\n        /* \"#utility.yul\":8017:8034   */\n      add\n        /* \"#utility.yul\":8013:8040   */\n      slt\n        /* \"#utility.yul\":8003:8125   */\n      tag_343\n      jumpi\n        /* \"#utility.yul\":8044:8123   */\n      tag_344\n      tag_200\n      jump\t// in\n    tag_344:\n        /* \"#utility.yul\":8003:8125   */\n    tag_343:\n        /* \"#utility.yul\":8161:8167   */\n      dup2\n        /* \"#utility.yul\":8148:8168   */\n      calldataload\n        /* \"#utility.yul\":8186:8265   */\n      tag_345\n        /* \"#utility.yul\":8261:8264   */\n      dup5\n        /* \"#utility.yul\":8253:8259   */\n      dup3\n        /* \"#utility.yul\":8246:8250   */\n      0x20\n        /* \"#utility.yul\":8238:8244   */\n      dup7\n        /* \"#utility.yul\":8234:8251   */\n      add\n        /* \"#utility.yul\":8186:8265   */\n      tag_207\n      jump\t// in\n    tag_345:\n        /* \"#utility.yul\":8177:8265   */\n      swap2\n      pop\n        /* \"#utility.yul\":7993:8271   */\n      pop\n        /* \"#utility.yul\":7931:8271   */\n      swap3\n      swap2\n      pop\n      pop\n      jump\t// out\n        /* \"#utility.yul\":8277:8786   */\n    tag_56:\n        /* \"#utility.yul\":8346:8352   */\n      0x00\n        /* \"#utility.yul\":8395:8397   */\n      0x20\n        /* \"#utility.yul\":8383:8392   */\n      dup3\n        /* \"#utility.yul\":8374:8381   */\n      dup5\n        /* \"#utility.yul\":8370:8393   */\n      sub\n        /* \"#utility.yul\":8366:8398   */\n      slt\n        /* \"#utility.yul\":8363:8482   */\n      iszero\n      tag_347\n      jumpi\n        /* \"#utility.yul\":8401:8480   */\n      tag_348\n      tag_180\n      jump\t// in\n    tag_348:\n        /* \"#utility.yul\":8363:8482   */\n    tag_347:\n        /* \"#utility.yul\":8549:8550   */\n      0x00\n        /* \"#utility.yul\":8538:8547   */\n      dup3\n        /* \"#utility.yul\":8534:8551   */\n      add\n        /* \"#utility.yul\":8521:8552   */\n      calldataload\n        /* \"#utility.yul\":8579:8597   */\n      0xffffffffffffffff\n        /* \"#utility.yul\":8571:8577   */\n      dup2\n        /* \"#utility.yul\":8568:8598   */\n      gt\n        /* \"#utility.yul\":8565:8682   */\n      iszero\n      tag_349\n      jumpi\n        /* \"#utility.yul\":8601:8680   */\n      tag_350\n      tag_181\n      jump\t// in\n    tag_350:\n        /* \"#utility.yul\":8565:8682   */\n    tag_349:\n        /* \"#utility.yul\":8706:8769   */\n      tag_351\n        /* \"#utility.yul\":8761:8768   */\n      dup5\n        /* \"#utility.yul\":8752:8758   */\n      dup3\n        /* \"#utility.yul\":8741:8750   */\n      dup6\n        /* \"#utility.yul\":8737:8759   */\n      add\n        /* \"#utility.yul\":8706:8769   */\n      tag_208\n      jump\t// in\n    tag_351:\n        /* \"#utility.yul\":8696:8769   */\n      swap2\n      pop\n        /* \"#utility.yul\":8492:8779   */\n      pop\n        /* \"#utility.yul\":8277:8786   */\n      swap3\n      swap2\n      pop\n      pop\n      jump\t// out\n        /* \"#utility.yul\":8792:9014   */\n    tag_62:\n        /* \"#utility.yul\":8885:8889   */\n      0x00\n        /* \"#utility.yul\":8923:8925   */\n      0x20\n        /* \"#utility.yul\":8912:8921   */\n      dup3\n        /* \"#utility.yul\":8908:8926   */\n      add\n        /* \"#utility.yul\":8900:8926   */\n      swap1\n      pop\n        /* \"#utility.yul\":8936:9007   */\n      tag_353\n        /* \"#utility.yul\":9004:9005   */\n      0x00\n        /* \"#utility.yul\":8993:9002   */\n      dup4\n        /* \"#utility.yul\":8989:9006   */\n      add\n        /* \"#utility.yul\":8980:8986   */\n      dup5\n        /* \"#utility.yul\":8936:9007   */\n      tag_187\n      jump\t// in\n    tag_353:\n        /* \"#utility.yul\":8792:9014   */\n      swap3\n      swap2\n      pop\n      pop\n      jump\t// out\n        /* \"#utility.yul\":9020:9349   */\n    tag_65:\n        /* \"#utility.yul\":9079:9085   */\n      0x00\n        /* \"#utility.yul\":9128:9130   */\n      0x20\n        /* \"#utility.yul\":9116:9125   */\n      dup3\n        /* \"#utility.yul\":9107:9114   */\n      dup5\n        /* \"#utility.yul\":9103:9126   */\n      sub\n        /* \"#utility.yul\":9099:9131   */\n      slt\n        /* \"#utility.yul\":9096:9215   */\n      iszero\n      tag_355\n      jumpi\n        /* \"#utility.yul\":9134:9213   */\n      tag_356\n      tag_180\n      jump\t// in\n    tag_356:\n        /* \"#utility.yul\":9096:9215   */\n    tag_355:\n        /* \"#utility.yul\":9254:9255   */\n      0x00\n        /* \"#utility.yul\":9279:9332   */\n      tag_357\n        /* \"#utility.yul\":9324:9331   */\n      dup5\n        /* \"#utility.yul\":9315:9321   */\n      dup3\n        /* \"#utility.yul\":9304:9313   */\n      dup6\n        /* \"#utility.yul\":9300:9322   */\n      add\n        /* \"#utility.yul\":9279:9332   */\n      tag_197\n      jump\t// in\n    tag_357:\n        /* \"#utility.yul\":9269:9332   */\n      swap2\n      pop\n        /* \"#utility.yul\":9225:9342   */\n      pop\n        /* \"#utility.yul\":9020:9349   */\n      swap3\n      swap2\n      pop\n      pop\n      jump\t// out\n        /* \"#utility.yul\":9355:9471   */\n    tag_209:\n        /* \"#utility.yul\":9425:9446   */\n      tag_359\n        /* \"#utility.yul\":9440:9445   */\n      dup2\n        /* \"#utility.yul\":9425:9446   */\n      tag_194\n      jump\t// in\n    tag_359:\n        /* \"#utility.yul\":9418:9423   */\n      dup2\n        /* \"#utility.yul\":9415:9447   */\n      eq\n        /* \"#utility.yul\":9405:9465   */\n      tag_360\n      jumpi\n        /* \"#utility.yul\":9461:9462   */\n      0x00\n        /* \"#utility.yul\":9458:9459   */\n      dup1\n        /* \"#utility.yul\":9451:9463   */\n      revert\n        /* \"#utility.yul\":9405:9465   */\n    tag_360:\n        /* \"#utility.yul\":9355:9471   */\n      pop\n      jump\t// out\n        /* \"#utility.yul\":9477:9610   */\n    tag_210:\n        /* \"#utility.yul\":9520:9525   */\n      0x00\n        /* \"#utility.yul\":9558:9564   */\n      dup2\n        /* \"#utility.yul\":9545:9565   */\n      calldataload\n        /* \"#utility.yul\":9536:9565   */\n      swap1\n      pop\n        /* \"#utility.yul\":9574:9604   */\n      tag_362\n        /* \"#utility.yul\":9598:9603   */\n      dup2\n        /* \"#utility.yul\":9574:9604   */\n      tag_209\n      jump\t// in\n    tag_362:\n        /* \"#utility.yul\":9477:9610   */\n      swap3\n      swap2\n      pop\n      pop\n      jump\t// out\n        /* \"#utility.yul\":9616:10084   */\n    tag_80:\n        /* \"#utility.yul\":9681:9687   */\n      0x00\n        /* \"#utility.yul\":9689:9695   */\n      dup1\n        /* \"#utility.yul\":9738:9740   */\n      0x40\n        /* \"#utility.yul\":9726:9735   */\n      dup4\n        /* \"#utility.yul\":9717:9724   */\n      dup6\n        /* \"#utility.yul\":9713:9736   */\n      sub\n        /* \"#utility.yul\":9709:9741   */\n      slt\n        /* \"#utility.yul\":9706:9825   */\n      iszero\n      tag_364\n      jumpi\n        /* \"#utility.yul\":9744:9823   */\n      tag_365\n      tag_180\n      jump\t// in\n    tag_365:\n        /* \"#utility.yul\":9706:9825   */\n    tag_364:\n        /* \"#utility.yul\":9864:9865   */\n      0x00\n        /* \"#utility.yul\":9889:9942   */\n      tag_366\n        /* \"#utility.yul\":9934:9941   */\n      dup6\n        /* \"#utility.yul\":9925:9931   */\n      dup3\n        /* \"#utility.yul\":9914:9923   */\n      dup7\n        /* \"#utility.yul\":9910:9932   */\n      add\n        /* \"#utility.yul\":9889:9942   */\n      tag_184\n      jump\t// in\n    tag_366:\n        /* \"#utility.yul\":9879:9942   */\n      swap3\n      pop\n        /* \"#utility.yul\":9835:9952   */\n      pop\n        /* \"#utility.yul\":9991:9993   */\n      0x20\n        /* \"#utility.yul\":10017:10067   */\n      tag_367\n        /* \"#utility.yul\":10059:10066   */\n      dup6\n        /* \"#utility.yul\":10050:10056   */\n      dup3\n        /* \"#utility.yul\":10039:10048   */\n      dup7\n        /* \"#utility.yul\":10035:10057   */\n      add\n        /* \"#utility.yul\":10017:10067   */\n      tag_210\n      jump\t// in\n    tag_367:\n        /* \"#utility.yul\":10007:10067   */\n      swap2\n      pop\n        /* \"#utility.yul\":9962:10077   */\n      pop\n        /* \"#utility.yul\":9616:10084   */\n      swap3\n      pop\n      swap3\n      swap1\n      pop\n      jump\t// out\n        /* \"#utility.yul\":10090:10564   */\n    tag_87:\n        /* \"#utility.yul\":10158:10164   */\n      0x00\n        /* \"#utility.yul\":10166:10172   */\n      dup1\n        /* \"#utility.yul\":10215:10217   */\n      0x40\n        /* \"#utility.yul\":10203:10212   */\n      dup4\n        /* \"#utility.yul\":10194:10201   */\n      dup6\n        /* \"#utility.yul\":10190:10213   */\n      sub\n        /* \"#utility.yul\":10186:10218   */\n      slt\n        /* \"#utility.yul\":10183:10302   */\n      iszero\n      tag_369\n      jumpi\n        /* \"#utility.yul\":10221:10300   */\n      tag_370\n      tag_180\n      jump\t// in\n    tag_370:\n        /* \"#utility.yul\":10183:10302   */\n    tag_369:\n        /* \"#utility.yul\":10341:10342   */\n      0x00\n        /* \"#utility.yul\":10366:10419   */\n      tag_371\n        /* \"#utility.yul\":10411:10418   */\n      dup6\n        /* \"#utility.yul\":10402:10408   */\n      dup3\n        /* \"#utility.yul\":10391:10400   */\n      dup7\n        /* \"#utility.yul\":10387:10409   */\n      add\n        /* \"#utility.yul\":10366:10419   */\n      tag_197\n      jump\t// in\n    tag_371:\n        /* \"#utility.yul\":10356:10419   */\n      swap3\n      pop\n        /* \"#utility.yul\":10312:10429   */\n      pop\n        /* \"#utility.yul\":10468:10470   */\n      0x20\n        /* \"#utility.yul\":10494:10547   */\n      tag_372\n        /* \"#utility.yul\":10539:10546   */\n      dup6\n        /* \"#utility.yul\":10530:10536   */\n      dup3\n        /* \"#utility.yul\":10519:10528   */\n      dup7\n        /* \"#utility.yul\":10515:10537   */\n      add\n        /* \"#utility.yul\":10494:10547   */\n      tag_197\n      jump\t// in\n    tag_372:\n        /* \"#utility.yul\":10484:10547   */\n      swap2\n      pop\n        /* \"#utility.yul\":10439:10557   */\n      pop\n        /* \"#utility.yul\":10090:10564   */\n      swap3\n      pop\n      swap3\n      swap1\n      pop\n      jump\t// out\n        /* \"#utility.yul\":10570:10750   */\n    tag_211:\n        /* \"#utility.yul\":10618:10695   */\n      0x4e487b7100000000000000000000000000000000000000000000000000000000\n        /* \"#utility.yul\":10615:10616   */\n      0x00\n        /* \"#utility.yul\":10608:10696   */\n      mstore\n        /* \"#utility.yul\":10715:10719   */\n      0x22\n        /* \"#utility.yul\":10712:10713   */\n      0x04\n        /* \"#utility.yul\":10705:10720   */\n      mstore\n        /* \"#utility.yul\":10739:10743   */\n      0x24\n        /* \"#utility.yul\":10736:10737   */\n      0x00\n        /* \"#utility.yul\":10729:10744   */\n      revert\n        /* \"#utility.yul\":10756:11076   */\n    tag_91:\n        /* \"#utility.yul\":10800:10806   */\n      0x00\n        /* \"#utility.yul\":10837:10838   */\n      0x02\n        /* \"#utility.yul\":10831:10835   */\n      dup3\n        /* \"#utility.yul\":10827:10839   */\n      div\n        /* \"#utility.yul\":10817:10839   */\n      swap1\n      pop\n        /* \"#utility.yul\":10884:10885   */\n      0x01\n        /* \"#utility.yul\":10878:10882   */\n      dup3\n        /* \"#utility.yul\":10874:10886   */\n      and\n        /* \"#utility.yul\":10905:10923   */\n      dup1\n        /* \"#utility.yul\":10895:10976   */\n      tag_375\n      jumpi\n        /* \"#utility.yul\":10961:10965   */\n      0x7f\n        /* \"#utility.yul\":10953:10959   */\n      dup3\n        /* \"#utility.yul\":10949:10966   */\n      and\n        /* \"#utility.yul\":10939:10966   */\n      swap2\n      pop\n        /* \"#utility.yul\":10895:10976   */\n    tag_375:\n        /* \"#utility.yul\":11023:11025   */\n      0x20\n        /* \"#utility.yul\":11015:11021   */\n      dup3\n        /* \"#utility.yul\":11012:11026   */\n      lt\n        /* \"#utility.yul\":10992:11010   */\n      dup2\n        /* \"#utility.yul\":10989:11027   */\n      sub\n        /* \"#utility.yul\":10986:11070   */\n      tag_376\n      jumpi\n        /* \"#utility.yul\":11042:11060   */\n      tag_377\n      tag_211\n      jump\t// in\n    tag_377:\n        /* \"#utility.yul\":10986:11070   */\n    tag_376:\n        /* \"#utility.yul\":10807:11076   */\n      pop\n        /* \"#utility.yul\":10756:11076   */\n      swap2\n      swap1\n      pop\n      jump\t// out\n        /* \"#utility.yul\":11082:11251   */\n    tag_212:\n        /* \"#utility.yul\":11222:11243   */\n      0x50726f706f73616c206e6f742061637469766500000000000000000000000000\n        /* \"#utility.yul\":11218:11219   */\n      0x00\n        /* \"#utility.yul\":11210:11216   */\n      dup3\n        /* \"#utility.yul\":11206:11220   */\n      add\n        /* \"#utility.yul\":11199:11244   */\n      mstore\n        /* \"#utility.yul\":11082:11251   */\n      pop\n      jump\t// out\n        /* \"#utility.yul\":11257:11623   */\n    tag_213:\n        /* \"#utility.yul\":11399:11402   */\n      0x00\n        /* \"#utility.yul\":11420:11487   */\n      tag_380\n        /* \"#utility.yul\":11484:11486   */\n      0x13\n        /* \"#utility.yul\":11479:11482   */\n      dup4\n        /* \"#utility.yul\":11420:11487   */\n      tag_189\n      jump\t// in\n    tag_380:\n        /* \"#utility.yul\":11413:11487   */\n      swap2\n      pop\n        /* \"#utility.yul\":11496:11589   */\n      tag_381\n        /* \"#utility.yul\":11585:11588   */\n      dup3\n        /* \"#utility.yul\":11496:11589   */\n      tag_212\n      jump\t// in\n    tag_381:\n        /* \"#utility.yul\":11614:11616   */\n      0x20\n        /* \"#utility.yul\":11609:11612   */\n      dup3\n        /* \"#utility.yul\":11605:11617   */\n      add\n        /* \"#utility.yul\":11598:11617   */\n      swap1\n      pop\n        /* \"#utility.yul\":11257:11623   */\n      swap2\n      swap1\n      pop\n      jump\t// out\n        /* \"#utility.yul\":11629:12048   */\n    tag_106:\n        /* \"#utility.yul\":11795:11799   */\n      0x00\n        /* \"#utility.yul\":11833:11835   */\n      0x20\n        /* \"#utility.yul\":11822:11831   */\n      dup3\n        /* \"#utility.yul\":11818:11836   */\n      add\n        /* \"#utility.yul\":11810:11836   */\n      swap1\n      pop\n        /* \"#utility.yul\":11882:11891   */\n      dup2\n        /* \"#utility.yul\":11876:11880   */\n      dup2\n        /* \"#utility.yul\":11872:11892   */\n      sub\n        /* \"#utility.yul\":11868:11869   */\n      0x00\n        /* \"#utility.yul\":11857:11866   */\n      dup4\n        /* \"#utility.yul\":11853:11870   */\n      add\n        /* \"#utility.yul\":11846:11893   */\n      mstore\n        /* \"#utility.yul\":11910:12041   */\n      tag_383\n        /* \"#utility.yul\":12036:12040   */\n      dup2\n        /* \"#utility.yul\":11910:12041   */\n      tag_213\n      jump\t// in\n    tag_383:\n        /* \"#utility.yul\":11902:12041   */\n      swap1\n      pop\n        /* \"#utility.yul\":11629:12048   */\n      swap2\n      swap1\n      pop\n      jump\t// out\n        /* \"#utility.yul\":12054:12227   */\n    tag_214:\n        /* \"#utility.yul\":12194:12219   */\n      0x566f74696e6720706572696f64206e6f7420656e646564000000000000000000\n        /* \"#utility.yul\":12190:12191   */\n      0x00\n        /* \"#utility.yul\":12182:12188   */\n      dup3\n        /* \"#utility.yul\":12178:12192   */\n      add\n        /* \"#utility.yul\":12171:12220   */\n      mstore\n        /* \"#utility.yul\":12054:12227   */\n      pop\n      jump\t// out\n        /* \"#utility.yul\":12233:12599   */\n    tag_215:\n        /* \"#utility.yul\":12375:12378   */\n      0x00\n        /* \"#utility.yul\":12396:12463   */\n      tag_386\n        /* \"#utility.yul\":12460:12462   */\n      0x17\n        /* \"#utility.yul\":12455:12458   */\n      dup4\n        /* \"#utility.yul\":12396:12463   */\n      tag_189\n      jump\t// in\n    tag_386:\n        /* \"#utility.yul\":12389:12463   */\n      swap2\n      pop\n        /* \"#utility.yul\":12472:12565   */\n      tag_387\n        /* \"#utility.yul\":12561:12564   */\n      dup3\n        /* \"#utility.yul\":12472:12565   */\n      tag_214\n      jump\t// in\n    tag_387:\n        /* \"#utility.yul\":12590:12592   */\n      0x20\n        /* \"#utility.yul\":12585:12588   */\n      dup3\n        /* \"#utility.yul\":12581:12593   */\n      add\n        /* \"#utility.yul\":12574:12593   */\n      swap1\n      pop\n        /* \"#utility.yul\":12233:12599   */\n      swap2\n      swap1\n      pop\n      jump\t// out\n        /* \"#utility.yul\":12605:13024   */\n    tag_109:\n        /* \"#utility.yul\":12771:12775   */\n      0x00\n        /* \"#utility.yul\":12809:12811   */\n      0x20\n        /* \"#utility.yul\":12798:12807   */\n      dup3\n        /* \"#utility.yul\":12794:12812   */\n      add\n        /* \"#utility.yul\":12786:12812   */\n      swap1\n      pop\n        /* \"#utility.yul\":12858:12867   */\n      dup2\n        /* \"#utility.yul\":12852:12856   */\n      dup2\n        /* \"#utility.yul\":12848:12868   */\n      sub\n        /* \"#utility.yul\":12844:12845   */\n      0x00\n        /* \"#utility.yul\":12833:12842   */\n      dup4\n        /* \"#utility.yul\":12829:12846   */\n      add\n        /* \"#utility.yul\":12822:12869   */\n      mstore\n        /* \"#utility.yul\":12886:13017   */\n      tag_389\n        /* \"#utility.yul\":13012:13016   */\n      dup2\n        /* \"#utility.yul\":12886:13017   */\n      tag_215\n      jump\t// in\n    tag_389:\n        /* \"#utility.yul\":12878:13017   */\n      swap1\n      pop\n        /* \"#utility.yul\":12605:13024   */\n      swap2\n      swap1\n      pop\n      jump\t// out\n        /* \"#utility.yul\":13030:13205   */\n    tag_216:\n        /* \"#utility.yul\":13170:13197   */\n      0x50726f706f73616c20616c726561647920657865637574656400000000000000\n        /* \"#utility.yul\":13166:13167   */\n      0x00\n        /* \"#utility.yul\":13158:13164   */\n      dup3\n        /* \"#utility.yul\":13154:13168   */\n      add\n        /* \"#utility.yul\":13147:13198   */\n      mstore\n        /* \"#utility.yul\":13030:13205   */\n      pop\n      jump\t// out\n        /* \"#utility.yul\":13211:13577   */\n    tag_217:\n        /* \"#utility.yul\":13353:13356   */\n      0x00\n        /* \"#utility.yul\":13374:13441   */\n      tag_392\n        /* \"#utility.yul\":13438:13440   */\n      0x19\n        /* \"#utility.yul\":13433:13436   */\n      dup4\n        /* \"#utility.yul\":13374:13441   */\n      tag_189\n      jump\t// in\n    tag_392:\n        /* \"#utility.yul\":13367:13441   */\n      swap2\n      pop\n        /* \"#utility.yul\":13450:13543   */\n      tag_393\n        /* \"#utility.yul\":13539:13542   */\n      dup3\n        /* \"#utility.yul\":13450:13543   */\n      tag_216\n      jump\t// in\n    tag_393:\n        /* \"#utility.yul\":13568:13570   */\n      0x20\n        /* \"#utility.yul\":13563:13566   */\n      dup3\n        /* \"#utility.yul\":13559:13571   */\n      add\n        /* \"#utility.yul\":13552:13571   */\n      swap1\n      pop\n        /* \"#utility.yul\":13211:13577   */\n      swap2\n      swap1\n      pop\n      jump\t// out\n        /* \"#utility.yul\":13583:14002   */\n    tag_112:\n        /* \"#utility.yul\":13749:13753   */\n      0x00\n        /* \"#utility.yul\":13787:13789   */\n      0x20\n        /* \"#utility.yul\":13776:13785   */\n      dup3\n        /* \"#utility.yul\":13772:13790   */\n      add\n        /* \"#utility.yul\":13764:13790   */\n      swap1\n      pop\n        /* \"#utility.yul\":13836:13845   */\n      dup2\n        /* \"#utility.yul\":13830:13834   */\n      dup2\n        /* \"#utility.yul\":13826:13846   */\n      sub\n        /* \"#utility.yul\":13822:13823   */\n      0x00\n        /* \"#utility.yul\":13811:13820   */\n      dup4\n        /* \"#utility.yul\":13807:13824   */\n      add\n        /* \"#utility.yul\":13800:13847   */\n      mstore\n        /* \"#utility.yul\":13864:13995   */\n      tag_395\n        /* \"#utility.yul\":13990:13994   */\n      dup2\n        /* \"#utility.yul\":13864:13995   */\n      tag_217\n      jump\t// in\n    tag_395:\n        /* \"#utility.yul\":13856:13995   */\n      swap1\n      pop\n        /* \"#utility.yul\":13583:14002   */\n      swap2\n      swap1\n      pop\n      jump\t// out\n        /* \"#utility.yul\":14008:14179   */\n    tag_218:\n        /* \"#utility.yul\":14148:14171   */\n      0x50726f706f73616c20646964206e6f7420706173730000000000000000000000\n        /* \"#utility.yul\":14144:14145   */\n      0x00\n        /* \"#utility.yul\":14136:14142   */\n      dup3\n        /* \"#utility.yul\":14132:14146   */\n      add\n        /* \"#utility.yul\":14125:14172   */\n      mstore\n        /* \"#utility.yul\":14008:14179   */\n      pop\n      jump\t// out\n        /* \"#utility.yul\":14185:14551   */\n    tag_219:\n        /* \"#utility.yul\":14327:14330   */\n      0x00\n        /* \"#utility.yul\":14348:14415   */\n      tag_398\n        /* \"#utility.yul\":14412:14414   */\n      0x15\n        /* \"#utility.yul\":14407:14410   */\n      dup4\n        /* \"#utility.yul\":14348:14415   */\n      tag_189\n      jump\t// in\n    tag_398:\n        /* \"#utility.yul\":14341:14415   */\n      swap2\n      pop\n        /* \"#utility.yul\":14424:14517   */\n      tag_399\n        /* \"#utility.yul\":14513:14516   */\n      dup3\n        /* \"#utility.yul\":14424:14517   */\n      tag_218\n      jump\t// in\n    tag_399:\n        /* \"#utility.yul\":14542:14544   */\n      0x20\n        /* \"#utility.yul\":14537:14540   */\n      dup3\n        /* \"#utility.yul\":14533:14545   */\n      add\n        /* \"#utility.yul\":14526:14545   */\n      swap1\n      pop\n        /* \"#utility.yul\":14185:14551   */\n      swap2\n      swap1\n      pop\n      jump\t// out\n        /* \"#utility.yul\":14557:14976   */\n    tag_115:\n        /* \"#utility.yul\":14723:14727   */\n      0x00\n        /* \"#utility.yul\":14761:14763   */\n      0x20\n        /* \"#utility.yul\":14750:14759   */\n      dup3\n        /* \"#utility.yul\":14746:14764   */\n      add\n        /* \"#utility.yul\":14738:14764   */\n      swap1\n      pop\n        /* \"#utility.yul\":14810:14819   */\n      dup2\n        /* \"#utility.yul\":14804:14808   */\n      dup2\n        /* \"#utility.yul\":14800:14820   */\n      sub\n        /* \"#utility.yul\":14796:14797   */\n      0x00\n        /* \"#utility.yul\":14785:14794   */\n      dup4\n        /* \"#utility.yul\":14781:14798   */\n      add\n        /* \"#utility.yul\":14774:14821   */\n      mstore\n        /* \"#utility.yul\":14838:14969   */\n      tag_401\n        /* \"#utility.yul\":14964:14968   */\n      dup2\n        /* \"#utility.yul\":14838:14969   */\n      tag_219\n      jump\t// in\n    tag_401:\n        /* \"#utility.yul\":14830:14969   */\n      swap1\n      pop\n        /* \"#utility.yul\":14557:14976   */\n      swap2\n      swap1\n      pop\n      jump\t// out\n        /* \"#utility.yul\":14982:15156   */\n    tag_220:\n        /* \"#utility.yul\":15122:15148   */\n      0x5472616e7366657220746f207a65726f20616464726573730000000000000000\n        /* \"#utility.yul\":15118:15119   */\n      0x00\n        /* \"#utility.yul\":15110:15116   */\n      dup3\n        /* \"#utility.yul\":15106:15120   */\n      add\n        /* \"#utility.yul\":15099:15149   */\n      mstore\n        /* \"#utility.yul\":14982:15156   */\n      pop\n      jump\t// out\n        /* \"#utility.yul\":15162:15528   */\n    tag_221:\n        /* \"#utility.yul\":15304:15307   */\n      0x00\n        /* \"#utility.yul\":15325:15392   */\n      tag_404\n        /* \"#utility.yul\":15389:15391   */\n      0x18\n        /* \"#utility.yul\":15384:15387   */\n      dup4\n        /* \"#utility.yul\":15325:15392   */\n      tag_189\n      jump\t// in\n    tag_404:\n        /* \"#utility.yul\":15318:15392   */\n      swap2\n      pop\n        /* \"#utility.yul\":15401:15494   */\n      tag_405\n        /* \"#utility.yul\":15490:15493   */\n      dup3\n        /* \"#utility.yul\":15401:15494   */\n      tag_220\n      jump\t// in\n    tag_405:\n        /* \"#utility.yul\":15519:15521   */\n      0x20\n        /* \"#utility.yul\":15514:15517   */\n      dup3\n        /* \"#utility.yul\":15510:15522   */\n      add\n        /* \"#utility.yul\":15503:15522   */\n      swap1\n      pop\n        /* \"#utility.yul\":15162:15528   */\n      swap2\n      swap1\n      pop\n      jump\t// out\n        /* \"#utility.yul\":15534:15953   */\n    tag_119:\n        /* \"#utility.yul\":15700:15704   */\n      0x00\n        /* \"#utility.yul\":15738:15740   */\n      0x20\n        /* \"#utility.yul\":15727:15736   */\n      dup3\n        /* \"#utility.yul\":15723:15741   */\n      add\n        /* \"#utility.yul\":15715:15741   */\n      swap1\n      pop\n        /* \"#utility.yul\":15787:15796   */\n      dup2\n        /* \"#utility.yul\":15781:15785   */\n      dup2\n        /* \"#utility.yul\":15777:15797   */\n      sub\n        /* \"#utility.yul\":15773:15774   */\n      0x00\n        /* \"#utility.yul\":15762:15771   */\n      dup4\n        /* \"#utility.yul\":15758:15775   */\n      add\n        /* \"#utility.yul\":15751:15798   */\n      mstore\n        /* \"#utility.yul\":15815:15946   */\n      tag_407\n        /* \"#utility.yul\":15941:15945   */\n      dup2\n        /* \"#utility.yul\":15815:15946   */\n      tag_221\n      jump\t// in\n    tag_407:\n        /* \"#utility.yul\":15807:15946   */\n      swap1\n      pop\n        /* \"#utility.yul\":15534:15953   */\n      swap2\n      swap1\n      pop\n      jump\t// out\n        /* \"#utility.yul\":15959:16129   */\n    tag_222:\n        /* \"#utility.yul\":16099:16121   */\n      0x496e73756666696369656e742062616c616e6365000000000000000000000000\n        /* \"#utility.yul\":16095:16096   */\n      0x00\n        /* \"#utility.yul\":16087:16093   */\n      dup3\n        /* \"#utility.yul\":16083:16097   */\n      add\n        /* \"#utility.yul\":16076:16122   */\n      mstore\n        /* \"#utility.yul\":15959:16129   */\n      pop\n      jump\t// out\n        /* \"#utility.yul\":16135:16501   */\n    tag_223:\n        /* \"#utility.yul\":16277:16280   */\n      0x00\n        /* \"#utility.yul\":16298:16365   */\n      tag_410\n        /* \"#utility.yul\":16362:16364   */\n      0x14\n        /* \"#utility.yul\":16357:16360   */\n      dup4\n        /* \"#utility.yul\":16298:16365   */\n      tag_189\n      jump\t// in\n    tag_410:\n        /* \"#utility.yul\":16291:16365   */\n      swap2\n      pop\n        /* \"#utility.yul\":16374:16467   */\n      tag_411\n        /* \"#utility.yul\":16463:16466   */\n      dup3\n        /* \"#utility.yul\":16374:16467   */\n      tag_222\n      jump\t// in\n    tag_411:\n        /* \"#utility.yul\":16492:16494   */\n      0x20\n        /* \"#utility.yul\":16487:16490   */\n      dup3\n        /* \"#utility.yul\":16483:16495   */\n      add\n        /* \"#utility.yul\":16476:16495   */\n      swap1\n      pop\n        /* \"#utility.yul\":16135:16501   */\n      swap2\n      swap1\n      pop\n      jump\t// out\n        /* \"#utility.yul\":16507:16926   */\n    tag_122:\n        /* \"#utility.yul\":16673:16677   */\n      0x00\n        /* \"#utility.yul\":16711:16713   */\n      0x20\n        /* \"#utility.yul\":16700:16709   */\n      dup3\n        /* \"#utility.yul\":16696:16714   */\n      add\n        /* \"#utility.yul\":16688:16714   */\n      swap1\n      pop\n        /* \"#utility.yul\":16760:16769   */\n      dup2\n        /* \"#utility.yul\":16754:16758   */\n      dup2\n        /* \"#utility.yul\":16750:16770   */\n      sub\n        /* \"#utility.yul\":16746:16747   */\n      0x00\n        /* \"#utility.yul\":16735:16744   */\n      dup4\n        /* \"#utility.yul\":16731:16748   */\n      add\n        /* \"#utility.yul\":16724:16771   */\n      mstore\n        /* \"#utility.yul\":16788:16919   */\n      tag_413\n        /* \"#utility.yul\":16914:16918   */\n      dup2\n        /* \"#utility.yul\":16788:16919   */\n      tag_223\n      jump\t// in\n    tag_413:\n        /* \"#utility.yul\":16780:16919   */\n      swap1\n      pop\n        /* \"#utility.yul\":16507:16926   */\n      swap2\n      swap1\n      pop\n      jump\t// out\n        /* \"#utility.yul\":16932:17104   */\n    tag_224:\n        /* \"#utility.yul\":17072:17096   */\n      0x496e73756666696369656e7420616c6c6f77616e636500000000000000000000\n        /* \"#utility.yul\":17068:17069   */\n      0x00\n        /* \"#utility.yul\":17060:17066   */\n      dup3\n        /* \"#utility.yul\":17056:17070   */\n      add\n        /* \"#utility.yul\":17049:17097   */\n      mstore\n        /* \"#utility.yul\":16932:17104   */\n      pop\n      jump\t// out\n        /* \"#utility.yul\":17110:17476   */\n    tag_225:\n        /* \"#utility.yul\":17252:17255   */\n      0x00\n        /* \"#utility.yul\":17273:17340   */\n      tag_416\n        /* \"#utility.yul\":17337:17339   */\n      0x16\n        /* \"#utility.yul\":17332:17335   */\n      dup4\n        /* \"#utility.yul\":17273:17340   */\n      tag_189\n      jump\t// in\n    tag_416:\n        /* \"#utility.yul\":17266:17340   */\n      swap2\n      pop\n        /* \"#utility.yul\":17349:17442   */\n      tag_417\n        /* \"#utility.yul\":17438:17441   */\n      dup3\n        /* \"#utility.yul\":17349:17442   */\n      tag_224\n      jump\t// in\n    tag_417:\n        /* \"#utility.yul\":17467:17469   */\n      0x20\n        /* \"#utility.yul\":17462:17465   */\n      dup3\n        /* \"#utility.yul\":17458:17470   */\n      add\n        /* \"#utility.yul\":17451:17470   */\n      swap1\n      pop\n        /* \"#utility.yul\":17110:17476   */\n      swap2\n      swap1\n      pop\n      jump\t// out\n        /* \"#utility.yul\":17482:17901   */\n    tag_125:\n        /* \"#utility.yul\":17648:17652   */\n      0x00\n        /* \"#utility.yul\":17686:17688   */\n      0x20\n        /* \"#utility.yul\":17675:17684   */\n      dup3\n        /* \"#utility.yul\":17671:17689   */\n      add\n        /* \"#utility.yul\":17663:17689   */\n      swap1\n      pop\n        /* \"#utility.yul\":17735:17744   */\n      dup2\n        /* \"#utility.yul\":17729:17733   */\n      dup2\n        /* \"#utility.yul\":17725:17745   */\n      sub\n        /* \"#utility.yul\":17721:17722   */\n      0x00\n        /* \"#utility.yul\":17710:17719   */\n      dup4\n        /* \"#utility.yul\":17706:17723   */\n      add\n        /* \"#utility.yul\":17699:17746   */\n      mstore\n        /* \"#utility.yul\":17763:17894   */\n      tag_419\n        /* \"#utility.yul\":17889:17893   */\n      dup2\n        /* \"#utility.yul\":17763:17894   */\n      tag_225\n      jump\t// in\n    tag_419:\n        /* \"#utility.yul\":17755:17894   */\n      swap1\n      pop\n        /* \"#utility.yul\":17482:17901   */\n      swap2\n      swap1\n      pop\n      jump\t// out\n        /* \"#utility.yul\":17907:18087   */\n    tag_226:\n        /* \"#utility.yul\":17955:18032   */\n      0x4e487b7100000000000000000000000000000000000000000000000000000000\n        /* \"#utility.yul\":17952:17953   */\n      0x00\n        /* \"#utility.yul\":17945:18033   */\n      mstore\n        /* \"#utility.yul\":18052:18056   */\n      0x11\n        /* \"#utility.yul\":18049:18050   */\n      0x04\n        /* \"#utility.yul\":18042:18057   */\n      mstore\n        /* \"#utility.yul\":18076:18080   */\n      0x24\n        /* \"#utility.yul\":18073:18074   */\n      0x00\n        /* \"#utility.yul\":18066:18081   */\n      revert\n        /* \"#utility.yul\":18093:18287   */\n    tag_127:\n        /* \"#utility.yul\":18133:18137   */\n      0x00\n        /* \"#utility.yul\":18153:18173   */\n      tag_422\n        /* \"#utility.yul\":18171:18172   */\n      dup3\n        /* \"#utility.yul\":18153:18173   */\n      tag_182\n      jump\t// in\n    tag_422:\n        /* \"#utility.yul\":18148:18173   */\n      swap2\n      pop\n        /* \"#utility.yul\":18187:18207   */\n      tag_423\n        /* \"#utility.yul\":18205:18206   */\n      dup4\n        /* \"#utility.yul\":18187:18207   */\n      tag_182\n      jump\t// in\n    tag_423:\n        /* \"#utility.yul\":18182:18207   */\n      swap3\n      pop\n        /* \"#utility.yul\":18231:18232   */\n      dup3\n        /* \"#utility.yul\":18228:18229   */\n      dup3\n        /* \"#utility.yul\":18224:18233   */\n      sub\n        /* \"#utility.yul\":18216:18233   */\n      swap1\n      pop\n        /* \"#utility.yul\":18255:18256   */\n      dup2\n        /* \"#utility.yul\":18249:18253   */\n      dup2\n        /* \"#utility.yul\":18246:18257   */\n      gt\n        /* \"#utility.yul\":18243:18280   */\n      iszero\n      tag_424\n      jumpi\n        /* \"#utility.yul\":18260:18278   */\n      tag_425\n      tag_226\n      jump\t// in\n    tag_425:\n        /* \"#utility.yul\":18243:18280   */\n    tag_424:\n        /* \"#utility.yul\":18093:18287   */\n      swap3\n      swap2\n      pop\n      pop\n      jump\t// out\n        /* \"#utility.yul\":18293:18484   */\n    tag_129:\n        /* \"#utility.yul\":18333:18336   */\n      0x00\n        /* \"#utility.yul\":18352:18372   */\n      tag_427\n        /* \"#utility.yul\":18370:18371   */\n      dup3\n        /* \"#utility.yul\":18352:18372   */\n      tag_182\n      jump\t// in\n    tag_427:\n        /* \"#utility.yul\":18347:18372   */\n      swap2\n      pop\n        /* \"#utility.yul\":18386:18406   */\n      tag_428\n        /* \"#utility.yul\":18404:18405   */\n      dup4\n        /* \"#utility.yul\":18386:18406   */\n      tag_182\n      jump\t// in\n    tag_428:\n        /* \"#utility.yul\":18381:18406   */\n      swap3\n      pop\n        /* \"#utility.yul\":18429:18430   */\n      dup3\n        /* \"#utility.yul\":18426:18427   */\n      dup3\n        /* \"#utility.yul\":18422:18431   */\n      add\n        /* \"#utility.yul\":18415:18431   */\n      swap1\n      pop\n        /* \"#utility.yul\":18450:18453   */\n      dup1\n        /* \"#utility.yul\":18447:18448   */\n      dup3\n        /* \"#utility.yul\":18444:18454   */\n      gt\n        /* \"#utility.yul\":18441:18477   */\n      iszero\n      tag_429\n      jumpi\n        /* \"#utility.yul\":18457:18475   */\n      tag_430\n      tag_226\n      jump\t// in\n    tag_430:\n        /* \"#utility.yul\":18441:18477   */\n    tag_429:\n        /* \"#utility.yul\":18293:18484   */\n      swap3\n      swap2\n      pop\n      pop\n      jump\t// out\n        /* \"#utility.yul\":18490:18592   */\n    tag_227:\n        /* \"#utility.yul\":18532:18540   */\n      0x00\n        /* \"#utility.yul\":18579:18584   */\n      dup2\n        /* \"#utility.yul\":18576:18577   */\n      0x01\n        /* \"#utility.yul\":18572:18585   */\n      shr\n        /* \"#utility.yul\":18551:18585   */\n      swap1\n      pop\n        /* \"#utility.yul\":18490:18592   */\n      swap2\n      swap1\n      pop\n      jump\t// out\n        /* \"#utility.yul\":18598:19446   */\n    tag_228:\n        /* \"#utility.yul\":18659:18664   */\n      0x00\n        /* \"#utility.yul\":18666:18670   */\n      dup1\n        /* \"#utility.yul\":18690:18696   */\n      dup3\n        /* \"#utility.yul\":18681:18696   */\n      swap2\n      pop\n        /* \"#utility.yul\":18714:18719   */\n      dup4\n        /* \"#utility.yul\":18705:18719   */\n      swap1\n      pop\n        /* \"#utility.yul\":18728:19440   */\n    tag_433:\n        /* \"#utility.yul\":18749:18750   */\n      0x01\n        /* \"#utility.yul\":18739:18747   */\n      dup6\n        /* \"#utility.yul\":18736:18751   */\n      gt\n        /* \"#utility.yul\":18728:19440   */\n      iszero\n      tag_435\n      jumpi\n        /* \"#utility.yul\":18844:18848   */\n      dup1\n        /* \"#utility.yul\":18839:18842   */\n      dup7\n        /* \"#utility.yul\":18835:18849   */\n      div\n        /* \"#utility.yul\":18829:18833   */\n      dup2\n        /* \"#utility.yul\":18826:18850   */\n      gt\n        /* \"#utility.yul\":18823:18873   */\n      iszero\n      tag_436\n      jumpi\n        /* \"#utility.yul\":18853:18871   */\n      tag_437\n      tag_226\n      jump\t// in\n    tag_437:\n        /* \"#utility.yul\":18823:18873   */\n    tag_436:\n        /* \"#utility.yul\":18903:18904   */\n      0x01\n        /* \"#utility.yul\":18893:18901   */\n      dup6\n        /* \"#utility.yul\":18889:18905   */\n      and\n        /* \"#utility.yul\":18886:19337   */\n      iszero\n      tag_438\n      jumpi\n        /* \"#utility.yul\":19318:19322   */\n      dup1\n        /* \"#utility.yul\":19311:19316   */\n      dup3\n        /* \"#utility.yul\":19307:19323   */\n      mul\n        /* \"#utility.yul\":19298:19323   */\n      swap2\n      pop\n        /* \"#utility.yul\":18886:19337   */\n    tag_438:\n        /* \"#utility.yul\":19368:19372   */\n      dup1\n        /* \"#utility.yul\":19362:19366   */\n      dup2\n        /* \"#utility.yul\":19358:19373   */\n      mul\n        /* \"#utility.yul\":19350:19373   */\n      swap1\n      pop\n        /* \"#utility.yul\":19398:19430   */\n      tag_439\n        /* \"#utility.yul\":19421:19429   */\n      dup6\n        /* \"#utility.yul\":19398:19430   */\n      tag_227\n      jump\t// in\n    tag_439:\n        /* \"#utility.yul\":19386:19430   */\n      swap5\n      pop\n        /* \"#utility.yul\":18728:19440   */\n      jump(tag_433)\n    tag_435:\n        /* \"#utility.yul\":18598:19446   */\n      swap5\n      pop\n      swap5\n      swap3\n      pop\n      pop\n      pop\n      jump\t// out\n        /* \"#utility.yul\":19452:20525   */\n    tag_229:\n        /* \"#utility.yul\":19506:19511   */\n      0x00\n        /* \"#utility.yul\":19697:19705   */\n      dup3\n        /* \"#utility.yul\":19687:19727   */\n      tag_441\n      jumpi\n        /* \"#utility.yul\":19718:19719   */\n      0x01\n        /* \"#utility.yul\":19709:19719   */\n      swap1\n      pop\n        /* \"#utility.yul\":19720:19725   */\n      jump(tag_440)\n        /* \"#utility.yul\":19687:19727   */\n    tag_441:\n        /* \"#utility.yul\":19746:19750   */\n      dup2\n        /* \"#utility.yul\":19736:19772   */\n      tag_442\n      jumpi\n        /* \"#utility.yul\":19763:19764   */\n      0x00\n        /* \"#utility.yul\":19754:19764   */\n      swap1\n      pop\n        /* \"#utility.yul\":19765:19770   */\n      jump(tag_440)\n        /* \"#utility.yul\":19736:19772   */\n    tag_442:\n        /* \"#utility.yul\":19832:19836   */\n      dup2\n        /* \"#utility.yul\":19880:19881   */\n      0x01\n        /* \"#utility.yul\":19875:19902   */\n      dup2\n      eq\n      tag_444\n      jumpi\n        /* \"#utility.yul\":19916:19917   */\n      0x02\n        /* \"#utility.yul\":19911:20102   */\n      dup2\n      eq\n      tag_445\n      jumpi\n        /* \"#utility.yul\":19825:20102   */\n      jump(tag_443)\n        /* \"#utility.yul\":19875:19902   */\n    tag_444:\n        /* \"#utility.yul\":19893:19894   */\n      0x01\n        /* \"#utility.yul\":19884:19894   */\n      swap2\n      pop\n        /* \"#utility.yul\":19895:19900   */\n      pop\n      jump(tag_440)\n        /* \"#utility.yul\":19911:20102   */\n    tag_445:\n        /* \"#utility.yul\":19956:19959   */\n      0xff\n        /* \"#utility.yul\":19946:19954   */\n      dup5\n        /* \"#utility.yul\":19943:19960   */\n      gt\n        /* \"#utility.yul\":19940:19983   */\n      iszero\n      tag_446\n      jumpi\n        /* \"#utility.yul\":19963:19981   */\n      tag_447\n      tag_226\n      jump\t// in\n    tag_447:\n        /* \"#utility.yul\":19940:19983   */\n    tag_446:\n        /* \"#utility.yul\":20012:20020   */\n      dup4\n        /* \"#utility.yul\":20009:20010   */\n      0x02\n        /* \"#utility.yul\":20005:20021   */\n      exp\n        /* \"#utility.yul\":19996:20021   */\n      swap2\n      pop\n        /* \"#utility.yul\":20047:20050   */\n      dup5\n        /* \"#utility.yul\":20040:20045   */\n      dup3\n        /* \"#utility.yul\":20037:20051   */\n      gt\n        /* \"#utility.yul\":20034:20074   */\n      iszero\n      tag_448\n      jumpi\n        /* \"#utility.yul\":20054:20072   */\n      tag_449\n      tag_226\n      jump\t// in\n    tag_449:\n        /* \"#utility.yul\":20034:20074   */\n    tag_448:\n        /* \"#utility.yul\":20087:20092   */\n      pop\n      jump(tag_440)\n        /* \"#utility.yul\":19825:20102   */\n    tag_443:\n      pop\n        /* \"#utility.yul\":20211:20213   */\n      0x20\n        /* \"#utility.yul\":20201:20209   */\n      dup4\n        /* \"#utility.yul\":20198:20214   */\n      lt\n        /* \"#utility.yul\":20192:20195   */\n      0x0133\n        /* \"#utility.yul\":20186:20190   */\n      dup4\n        /* \"#utility.yul\":20183:20196   */\n      lt\n        /* \"#utility.yul\":20179:20215   */\n      and\n        /* \"#utility.yul\":20161:20163   */\n      0x4e\n        /* \"#utility.yul\":20151:20159   */\n      dup5\n        /* \"#utility.yul\":20148:20164   */\n      lt\n        /* \"#utility.yul\":20143:20145   */\n      0x0b\n        /* \"#utility.yul\":20137:20141   */\n      dup5\n        /* \"#utility.yul\":20134:20146   */\n      lt\n        /* \"#utility.yul\":20130:20165   */\n      and\n        /* \"#utility.yul\":20114:20225   */\n      or\n        /* \"#utility.yul\":20111:20357   */\n      iszero\n      tag_450\n      jumpi\n        /* \"#utility.yul\":20267:20275   */\n      dup3\n        /* \"#utility.yul\":20261:20265   */\n      dup3\n        /* \"#utility.yul\":20257:20276   */\n      exp\n        /* \"#utility.yul\":20248:20276   */\n      swap1\n      pop\n        /* \"#utility.yul\":20302:20305   */\n      dup4\n        /* \"#utility.yul\":20295:20300   */\n      dup2\n        /* \"#utility.yul\":20292:20306   */\n      gt\n        /* \"#utility.yul\":20289:20329   */\n      iszero\n      tag_451\n      jumpi\n        /* \"#utility.yul\":20309:20327   */\n      tag_452\n      tag_226\n      jump\t// in\n    tag_452:\n        /* \"#utility.yul\":20289:20329   */\n    tag_451:\n        /* \"#utility.yul\":20342:20347   */\n      jump(tag_440)\n        /* \"#utility.yul\":20111:20357   */\n    tag_450:\n        /* \"#utility.yul\":20382:20424   */\n      tag_453\n        /* \"#utility.yul\":20420:20423   */\n      dup5\n        /* \"#utility.yul\":20410:20418   */\n      dup5\n        /* \"#utility.yul\":20404:20408   */\n      dup5\n        /* \"#utility.yul\":20401:20402   */\n      0x01\n        /* \"#utility.yul\":20382:20424   */\n      tag_228\n      jump\t// in\n    tag_453:\n        /* \"#utility.yul\":20367:20424   */\n      swap3\n      pop\n      swap1\n      pop\n        /* \"#utility.yul\":20456:20460   */\n      dup2\n        /* \"#utility.yul\":20451:20454   */\n      dup5\n        /* \"#utility.yul\":20447:20461   */\n      div\n        /* \"#utility.yul\":20440:20445   */\n      dup2\n        /* \"#utility.yul\":20437:20462   */\n      gt\n        /* \"#utility.yul\":20434:20485   */\n      iszero\n      tag_454\n      jumpi\n        /* \"#utility.yul\":20465:20483   */\n      tag_455\n      tag_226\n      jump\t// in\n    tag_455:\n        /* \"#utility.yul\":20434:20485   */\n    tag_454:\n        /* \"#utility.yul\":20514:20518   */\n      dup2\n        /* \"#utility.yul\":20507:20512   */\n      dup2\n        /* \"#utility.yul\":20503:20519   */\n      mul\n        /* \"#utility.yul\":20494:20519   */\n      swap1\n      pop\n        /* \"#utility.yul\":19452:20525   */\n    tag_440:\n      swap4\n      swap3\n      pop\n      pop\n      pop\n      jump\t// out\n        /* \"#utility.yul\":20531:20816   */\n    tag_134:\n        /* \"#utility.yul\":20591:20596   */\n      0x00\n        /* \"#utility.yul\":20615:20638   */\n      tag_457\n        /* \"#utility.yul\":20633:20637   */\n      dup3\n        /* \"#utility.yul\":20615:20638   */\n      tag_182\n      jump\t// in\n    tag_457:\n        /* \"#utility.yul\":20607:20638   */\n      swap2\n      pop\n        /* \"#utility.yul\":20659:20686   */\n      tag_458\n        /* \"#utility.yul\":20677:20685   */\n      dup4\n        /* \"#utility.yul\":20659:20686   */\n      tag_182\n      jump\t// in\n    tag_458:\n        /* \"#utility.yul\":20647:20686   */\n      swap3\n      pop\n        /* \"#utility.yul\":20705:20809   */\n      tag_459\n        /* \"#utility.yul\":20742:20808   */\n      0xffffffffffffffffffffffffffffffffffffffffffffffffffffffffffffffff\n        /* \"#utility.yul\":20732:20740   */\n      dup5\n        /* \"#utility.yul\":20726:20730   */\n      dup5\n        /* \"#utility.yul\":20705:20809   */\n      tag_229\n      jump\t// in\n    tag_459:\n        /* \"#utility.yul\":20696:20809   */\n      swap1\n      pop\n        /* \"#utility.yul\":20531:20816   */\n      swap3\n      swap2\n      pop\n      pop\n      jump\t// out\n        /* \"#utility.yul\":20822:21232   */\n    tag_136:\n        /* \"#utility.yul\":20862:20869   */\n      0x00\n        /* \"#utility.yul\":20885:20905   */\n      tag_461\n        /* \"#utility.yul\":20903:20904   */\n      dup3\n        /* \"#utility.yul\":20885:20905   */\n      tag_182\n      jump\t// in\n    tag_461:\n        /* \"#utility.yul\":20880:20905   */\n      swap2\n      pop\n        /* \"#utility.yul\":20919:20939   */\n      tag_462\n        /* \"#utility.yul\":20937:20938   */\n      dup4\n        /* \"#utility.yul\":20919:20939   */\n      tag_182\n      jump\t// in\n    tag_462:\n        /* \"#utility.yul\":20914:20939   */\n      swap3\n      pop\n        /* \"#utility.yul\":20974:20975   */\n      dup3\n        /* \"#utility.yul\":20971:20972   */\n      dup3\n        /* \"#utility.yul\":20967:20976   */\n      mul\n        /* \"#utility.yul\":20996:21026   */\n      tag_463\n        /* \"#utility.yul\":21014:21025   */\n      dup2\n        /* \"#utility.yul\":20996:21026   */\n      tag_182\n      jump\t// in\n    tag_463:\n        /* \"#utility.yul\":20985:21026   */\n      swap2\n      pop\n        /* \"#utility.yul\":21175:21176   */\n      dup3\n        /* \"#utility.yul\":21166:21173   */\n      dup3\n        /* \"#utility.yul\":21162:21177   */\n      div\n        /* \"#utility.yul\":21159:21160   */\n      dup5\n        /* \"#utility.yul\":21156:21178   */\n      eq\n        /* \"#utility.yul\":21136:21137   */\n      dup4\n        /* \"#utility.yul\":21129:21138   */\n      iszero\n        /* \"#utility.yul\":21109:21192   */\n      or\n        /* \"#utility.yul\":21086:21225   */\n      tag_464\n      jumpi\n        /* \"#utility.yul\":21205:21223   */\n      tag_465\n      tag_226\n      jump\t// in\n    tag_465:\n        /* \"#utility.yul\":21086:21225   */\n    tag_464:\n        /* \"#utility.yul\":20870:21232   */\n      pop\n        /* \"#utility.yul\":20822:21232   */\n      swap3\n      swap2\n      pop\n      pop\n      jump\t// out\n        /* \"#utility.yul\":21238:21460   */\n    tag_230:\n        /* \"#utility.yul\":21378:21412   */\n      0x4e656564203130303020746f6b656e7320746f206372656174652070726f706f\n        /* \"#utility.yul\":21374:21375   */\n      0x00\n        /* \"#utility.yul\":21366:21372   */\n      dup3\n        /* \"#utility.yul\":21362:21376   */\n      add\n        /* \"#utility.yul\":21355:21413   */\n      mstore\n        /* \"#utility.yul\":21447:21452   */\n      0x73616c0000000000000000000000000000000000000000000000000000000000\n        /* \"#utility.yul\":21442:21444   */\n      0x20\n        /* \"#utility.yul\":21434:21440   */\n      dup3\n        /* \"#utility.yul\":21430:21445   */\n      add\n        /* \"#utility.yul\":21423:21453   */\n      mstore\n        /* \"#utility.yul\":21238:21460   */\n      pop\n      jump\t// out\n        /* \"#utility.yul\":21466:21832   */\n    tag_231:\n        /* \"#utility.yul\":21608:21611   */\n      0x00\n        /* \"#utility.yul\":21629:21696   */\n      tag_468\n        /* \"#utility.yul\":21693:21695   */\n      0x23\n        /* \"#utility.yul\":21688:21691   */\n      dup4\n        /* \"#utility.yul\":21629:21696   */\n      tag_189\n      jump\t// in\n    tag_468:\n        /* \"#utility.yul\":21622:21696   */\n      swap2\n      pop\n        /* \"#utility.yul\":21705:21798   */\n      tag_469\n        /* \"#utility.yul\":21794:21797   */\n      dup3\n        /* \"#utility.yul\":21705:21798   */\n      tag_230\n      jump\t// in\n    tag_469:\n        /* \"#utility.yul\":21823:21825   */\n      0x40\n        /* \"#utility.yul\":21818:21821   */\n      dup3\n        /* \"#utility.yul\":21814:21826   */\n      add\n        /* \"#utility.yul\":21807:21826   */\n      swap1\n      pop\n        /* \"#utility.yul\":21466:21832   */\n      swap2\n      swap1\n      pop\n      jump\t// out\n        /* \"#utility.yul\":21838:22257   */\n    tag_139:\n        /* \"#utility.yul\":22004:22008   */\n      0x00\n        /* \"#utility.yul\":22042:22044   */\n      0x20\n        /* \"#utility.yul\":22031:22040   */\n      dup3\n        /* \"#utility.yul\":22027:22045   */\n      add\n        /* \"#utility.yul\":22019:22045   */\n      swap1\n      pop\n        /* \"#utility.yul\":22091:22100   */\n      dup2\n        /* \"#utility.yul\":22085:22089   */\n      dup2\n        /* \"#utility.yul\":22081:22101   */\n      sub\n        /* \"#utility.yul\":22077:22078   */\n      0x00\n        /* \"#utility.yul\":22066:22075   */\n      dup4\n        /* \"#utility.yul\":22062:22079   */\n      add\n        /* \"#utility.yul\":22055:22102   */\n      mstore\n        /* \"#utility.yul\":22119:22250   */\n      tag_471\n        /* \"#utility.yul\":22245:22249   */\n      dup2\n        /* \"#utility.yul\":22119:22250   */\n      tag_231\n      jump\t// in\n    tag_471:\n        /* \"#utility.yul\":22111:22250   */\n      swap1\n      pop\n        /* \"#utility.yul\":21838:22257   */\n      swap2\n      swap1\n      pop\n      jump\t// out\n        /* \"#utility.yul\":22263:22496   */\n    tag_141:\n        /* \"#utility.yul\":22302:22305   */\n      0x00\n        /* \"#utility.yul\":22325:22349   */\n      tag_473\n        /* \"#utility.yul\":22343:22348   */\n      dup3\n        /* \"#utility.yul\":22325:22349   */\n      tag_182\n      jump\t// in\n    tag_473:\n        /* \"#utility.yul\":22316:22349   */\n      swap2\n      pop\n        /* \"#utility.yul\":22371:22437   */\n      0xffffffffffffffffffffffffffffffffffffffffffffffffffffffffffffffff\n        /* \"#utility.yul\":22364:22369   */\n      dup3\n        /* \"#utility.yul\":22361:22438   */\n      sub\n        /* \"#utility.yul\":22358:22461   */\n      tag_474\n      jumpi\n        /* \"#utility.yul\":22441:22459   */\n      tag_475\n      tag_226\n      jump\t// in\n    tag_475:\n        /* \"#utility.yul\":22358:22461   */\n    tag_474:\n        /* \"#utility.yul\":22488:22489   */\n      0x01\n        /* \"#utility.yul\":22481:22486   */\n      dup3\n        /* \"#utility.yul\":22477:22490   */\n      add\n        /* \"#utility.yul\":22470:22490   */\n      swap1\n      pop\n        /* \"#utility.yul\":22263:22496   */\n      swap2\n      swap1\n      pop\n      jump\t// out\n        /* \"#utility.yul\":22502:22643   */\n    tag_232:\n        /* \"#utility.yul\":22551:22555   */\n      0x00\n        /* \"#utility.yul\":22574:22577   */\n      dup2\n        /* \"#utility.yul\":22566:22577   */\n      swap1\n      pop\n        /* \"#utility.yul\":22597:22600   */\n      dup2\n        /* \"#utility.yul\":22594:22595   */\n      0x00\n        /* \"#utility.yul\":22587:22601   */\n      mstore\n        /* \"#utility.yul\":22631:22635   */\n      0x20\n        /* \"#utility.yul\":22628:22629   */\n      0x00\n        /* \"#utility.yul\":22618:22636   */\n      keccak256\n        /* \"#utility.yul\":22610:22636   */\n      swap1\n      pop\n        /* \"#utility.yul\":22502:22643   */\n      swap2\n      swap1\n      pop\n      jump\t// out\n        /* \"#utility.yul\":22649:22742   */\n    tag_233:\n        /* \"#utility.yul\":22686:22692   */\n      0x00\n        /* \"#utility.yul\":22733:22735   */\n      0x20\n        /* \"#utility.yul\":22728:22730   */\n      0x1f\n        /* \"#utility.yul\":22721:22726   */\n      dup4\n        /* \"#utility.yul\":22717:22731   */\n      add\n        /* \"#utility.yul\":22713:22736   */\n      div\n        /* \"#utility.yul\":22703:22736   */\n      swap1\n      pop\n        /* \"#utility.yul\":22649:22742   */\n      swap2\n      swap1\n      pop\n      jump\t// out\n        /* \"#utility.yul\":22748:22855   */\n    tag_234:\n        /* \"#utility.yul\":22792:22800   */\n      0x00\n        /* \"#utility.yul\":22842:22847   */\n      dup3\n        /* \"#utility.yul\":22836:22840   */\n      dup3\n        /* \"#utility.yul\":22832:22848   */\n      shl\n        /* \"#utility.yul\":22811:22848   */\n      swap1\n      pop\n        /* \"#utility.yul\":22748:22855   */\n      swap3\n      swap2\n      pop\n      pop\n      jump\t// out\n        /* \"#utility.yul\":22861:23254   */\n    tag_235:\n        /* \"#utility.yul\":22930:22936   */\n      0x00\n        /* \"#utility.yul\":22980:22981   */\n      0x08\n        /* \"#utility.yul\":22968:22978   */\n      dup4\n        /* \"#utility.yul\":22964:22982   */\n      mul\n        /* \"#utility.yul\":23003:23100   */\n      tag_480\n        /* \"#utility.yul\":23033:23099   */\n      0xffffffffffffffffffffffffffffffffffffffffffffffffffffffffffffffff\n        /* \"#utility.yul\":23022:23031   */\n      dup3\n        /* \"#utility.yul\":23003:23100   */\n      tag_234\n      jump\t// in\n    tag_480:\n        /* \"#utility.yul\":23121:23160   */\n      tag_481\n        /* \"#utility.yul\":23151:23159   */\n      dup7\n        /* \"#utility.yul\":23140:23149   */\n      dup4\n        /* \"#utility.yul\":23121:23160   */\n      tag_234\n      jump\t// in\n    tag_481:\n        /* \"#utility.yul\":23109:23160   */\n      swap6\n      pop\n        /* \"#utility.yul\":23193:23197   */\n      dup1\n        /* \"#utility.yul\":23189:23198   */\n      not\n        /* \"#utility.yul\":23182:23187   */\n      dup5\n        /* \"#utility.yul\":23178:23199   */\n      and\n        /* \"#utility.yul\":23169:23199   */\n      swap4\n      pop\n        /* \"#utility.yul\":23242:23246   */\n      dup1\n        /* \"#utility.yul\":23232:23240   */\n      dup7\n        /* \"#utility.yul\":23228:23247   */\n      and\n        /* \"#utility.yul\":23221:23226   */\n      dup5\n        /* \"#utility.yul\":23218:23248   */\n      or\n        /* \"#utility.yul\":23208:23248   */\n      swap3\n      pop\n        /* \"#utility.yul\":22937:23254   */\n      pop\n      pop\n        /* \"#utility.yul\":22861:23254   */\n      swap4\n      swap3\n      pop\n      pop\n      pop\n      jump\t// out\n        /* \"#utility.yul\":23260:23320   */\n    tag_236:\n        /* \"#utility.yul\":23288:23291   */\n      0x00\n        /* \"#utility.yul\":23309:23314   */\n      dup2\n        /* \"#utility.yul\":23302:23314   */\n      swap1\n      pop\n        /* \"#utility.yul\":23260:23320   */\n      swap2\n      swap1\n      pop\n      jump\t// out\n        /* \"#utility.yul\":23326:23468   */\n    tag_237:\n        /* \"#utility.yul\":23376:23385   */\n      0x00\n        /* \"#utility.yul\":23409:23462   */\n      tag_484\n        /* \"#utility.yul\":23427:23461   */\n      tag_485\n        /* \"#utility.yul\":23436:23460   */\n      tag_486\n        /* \"#utility.yul\":23454:23459   */\n      dup5\n        /* \"#utility.yul\":23436:23460   */\n      tag_182\n      jump\t// in\n    tag_486:\n        /* \"#utility.yul\":23427:23461   */\n      tag_236\n      jump\t// in\n    tag_485:\n        /* \"#utility.yul\":23409:23462   */\n      tag_182\n      jump\t// in\n    tag_484:\n        /* \"#utility.yul\":23396:23462   */\n      swap1\n      pop\n        /* \"#utility.yul\":23326:23468   */\n      swap2\n      swap1\n      pop\n      jump\t// out\n        /* \"#utility.yul\":23474:23549   */\n    tag_238:\n        /* \"#utility.yul\":23517:23520   */\n      0x00\n        /* \"#utility.yul\":23538:23543   */\n      dup2\n        /* \"#utility.yul\":23531:23543   */\n      swap1\n      pop\n        /* \"#utility.yul\":23474:23549   */\n      swap2\n      swap1\n      pop\n      jump\t// out\n        /* \"#utility.yul\":23555:23824   */\n    tag_239:\n        /* \"#utility.yul\":23665:23704   */\n      tag_489\n        /* \"#utility.yul\":23696:23703   */\n      dup4\n        /* \"#utility.yul\":23665:23704   */\n      tag_237\n      jump\t// in\n    tag_489:\n        /* \"#utility.yul\":23726:23817   */\n      tag_490\n        /* \"#utility.yul\":23775:23816   */\n      tag_491\n        /* \"#utility.yul\":23799:23815   */\n      dup3\n        /* \"#utility.yul\":23775:23816   */\n      tag_238\n      jump\t// in\n    tag_491:\n        /* \"#utility.yul\":23767:23773   */\n      dup5\n        /* \"#utility.yul\":23760:23764   */\n      dup5\n        /* \"#utility.yul\":23754:23765   */\n      sload\n        /* \"#utility.yul\":23726:23817   */\n      tag_235\n      jump\t// in\n    tag_490:\n        /* \"#utility.yul\":23720:23724   */\n      dup3\n        /* \"#utility.yul\":23713:23818   */\n      sstore\n        /* \"#utility.yul\":23631:23824   */\n      pop\n        /* \"#utility.yul\":23555:23824   */\n      pop\n      pop\n      pop\n      jump\t// out\n        /* \"#utility.yul\":23830:23903   */\n    tag_240:\n        /* \"#utility.yul\":23875:23878   */\n      0x00\n        /* \"#utility.yul\":23830:23903   */\n      swap1\n      jump\t// out\n        /* \"#utility.yul\":23909:24098   */\n    tag_241:\n        /* \"#utility.yul\":23986:24018   */\n      tag_494\n      tag_240\n      jump\t// in\n    tag_494:\n        /* \"#utility.yul\":24027:24092   */\n      tag_495\n        /* \"#utility.yul\":24085:24091   */\n      dup2\n        /* \"#utility.yul\":24077:24083   */\n      dup5\n        /* \"#utility.yul\":24071:24075   */\n      dup5\n        /* \"#utility.yul\":24027:24092   */\n      tag_239\n      jump\t// in\n    tag_495:\n        /* \"#utility.yul\":23962:24098   */\n      pop\n        /* \"#utility.yul\":23909:24098   */\n      pop\n      pop\n      jump\t// out\n        /* \"#utility.yul\":24104:24290   */\n    tag_242:\n        /* \"#utility.yul\":24164:24284   */\n    tag_497:\n        /* \"#utility.yul\":24181:24184   */\n      dup2\n        /* \"#utility.yul\":24174:24179   */\n      dup2\n        /* \"#utility.yul\":24171:24185   */\n      lt\n        /* \"#utility.yul\":24164:24284   */\n      iszero\n      tag_499\n      jumpi\n        /* \"#utility.yul\":24235:24274   */\n      tag_500\n        /* \"#utility.yul\":24272:24273   */\n      0x00\n        /* \"#utility.yul\":24265:24270   */\n      dup3\n        /* \"#utility.yul\":24235:24274   */\n      tag_241\n      jump\t// in\n    tag_500:\n        /* \"#utility.yul\":24208:24209   */\n      0x01\n        /* \"#utility.yul\":24201:24206   */\n      dup2\n        /* \"#utility.yul\":24197:24210   */\n      add\n        /* \"#utility.yul\":24188:24210   */\n      swap1\n      pop\n        /* \"#utility.yul\":24164:24284   */\n      jump(tag_497)\n    tag_499:\n        /* \"#utility.yul\":24104:24290   */\n      pop\n      pop\n      jump\t// out\n        /* \"#utility.yul\":24296:24839   */\n    tag_243:\n        /* \"#utility.yul\":24397:24399   */\n      0x1f\n        /* \"#utility.yul\":24392:24395   */\n      dup3\n        /* \"#utility.yul\":24389:24400   */\n      gt\n        /* \"#utility.yul\":24386:24832   */\n      iszero\n      tag_502\n      jumpi\n        /* \"#utility.yul\":24431:24469   */\n      tag_503\n        /* \"#utility.yul\":24463:24468   */\n      dup2\n        /* \"#utility.yul\":24431:24469   */\n      tag_232\n      jump\t// in\n    tag_503:\n        /* \"#utility.yul\":24515:24544   */\n      tag_504\n        /* \"#utility.yul\":24533:24543   */\n      dup5\n        /* \"#utility.yul\":24515:24544   */\n      tag_233\n      jump\t// in\n    tag_504:\n        /* \"#utility.yul\":24505:24513   */\n      dup2\n        /* \"#utility.yul\":24501:24545   */\n      add\n        /* \"#utility.yul\":24698:24700   */\n      0x20\n        /* \"#utility.yul\":24686:24696   */\n      dup6\n        /* \"#utility.yul\":24683:24701   */\n      lt\n        /* \"#utility.yul\":24680:24729   */\n      iszero\n      tag_505\n      jumpi\n        /* \"#utility.yul\":24719:24727   */\n      dup2\n        /* \"#utility.yul\":24704:24727   */\n      swap1\n      pop\n        /* \"#utility.yul\":24680:24729   */\n    tag_505:\n        /* \"#utility.yul\":24742:24822   */\n      tag_506\n        /* \"#utility.yul\":24798:24820   */\n      tag_507\n        /* \"#utility.yul\":24816:24819   */\n      dup6\n        /* \"#utility.yul\":24798:24820   */\n      tag_233\n      jump\t// in\n    tag_507:\n        /* \"#utility.yul\":24788:24796   */\n      dup4\n        /* \"#utility.yul\":24784:24821   */\n      add\n        /* \"#utility.yul\":24771:24782   */\n      dup3\n        /* \"#utility.yul\":24742:24822   */\n      tag_242\n      jump\t// in\n    tag_506:\n        /* \"#utility.yul\":24401:24832   */\n      pop\n      pop\n        /* \"#utility.yul\":24386:24832   */\n    tag_502:\n        /* \"#utility.yul\":24296:24839   */\n      pop\n      pop\n      pop\n      jump\t// out\n        /* \"#utility.yul\":24845:24962   */\n    tag_244:\n        /* \"#utility.yul\":24899:24907   */\n      0x00\n        /* \"#utility.yul\":24949:24954   */\n      dup3\n        /* \"#utility.yul\":24943:24947   */\n      dup3\n        /* \"#utility.yul\":24939:24955   */\n      shr\n        /* \"#utility.yul\":24918:24955   */\n      swap1\n      pop\n        /* \"#utility.yul\":24845:24962   */\n      swap3\n      swap2\n      pop\n      pop\n      jump\t// out\n        /* \"#utility.yul\":24968:25137   */\n    tag_245:\n        /* \"#utility.yul\":25012:25018   */\n      0x00\n        /* \"#utility.yul\":25045:25096   */\n      tag_510\n        /* \"#utility.yul\":25093:25094   */\n      0x00\n        /* \"#utility.yul\":25089:25095   */\n      not\n        /* \"#utility.yul\":25081:25086   */\n      dup5\n        /* \"#utility.yul\":25078:25079   */\n      0x08\n        /* \"#utility.yul\":25074:25087   */\n      mul\n        /* \"#utility.yul\":25045:25096   */\n      tag_244\n      jump\t// in\n    tag_510:\n        /* \"#utility.yul\":25041:25097   */\n      not\n        /* \"#utility.yul\":25126:25130   */\n      dup1\n        /* \"#utility.yul\":25120:25124   */\n      dup4\n        /* \"#utility.yul\":25116:25131   */\n      and\n        /* \"#utility.yul\":25106:25131   */\n      swap2\n      pop\n        /* \"#utility.yul\":25019:25137   */\n      pop\n        /* \"#utility.yul\":24968:25137   */\n      swap3\n      swap2\n      pop\n      pop\n      jump\t// out\n        /* \"#utility.yul\":25142:25437   */\n    tag_246:\n        /* \"#utility.yul\":25218:25222   */\n      0x00\n        /* \"#utility.yul\":25364:25393   */\n      tag_512\n        /* \"#utility.yul\":25389:25392   */\n      dup4\n        /* \"#utility.yul\":25383:25387   */\n      dup4\n        /* \"#utility.yul\":25364:25393   */\n      tag_245\n      jump\t// in\n    tag_512:\n        /* \"#utility.yul\":25356:25393   */\n      swap2\n      pop\n        /* \"#utility.yul\":25426:25429   */\n      dup3\n        /* \"#utility.yul\":25423:25424   */\n      0x02\n        /* \"#utility.yul\":25419:25430   */\n      mul\n        /* \"#utility.yul\":25413:25417   */\n      dup3\n        /* \"#utility.yul\":25410:25431   */\n      or\n        /* \"#utility.yul\":25402:25431   */\n      swap1\n      pop\n        /* \"#utility.yul\":25142:25437   */\n      swap3\n      swap2\n      pop\n      pop\n      jump\t// out\n        /* \"#utility.yul\":25442:26837   */\n    tag_143:\n        /* \"#utility.yul\":25559:25596   */\n      tag_514\n        /* \"#utility.yul\":25592:25595   */\n      dup3\n        /* \"#utility.yul\":25559:25596   */\n      tag_188\n      jump\t// in\n    tag_514:\n        /* \"#utility.yul\":25661:25679   */\n      0xffffffffffffffff\n        /* \"#utility.yul\":25653:25659   */\n      dup2\n        /* \"#utility.yul\":25650:25680   */\n      gt\n        /* \"#utility.yul\":25647:25703   */\n      iszero\n      tag_515\n      jumpi\n        /* \"#utility.yul\":25683:25701   */\n      tag_516\n      tag_202\n      jump\t// in\n    tag_516:\n        /* \"#utility.yul\":25647:25703   */\n    tag_515:\n        /* \"#utility.yul\":25727:25765   */\n      tag_517\n        /* \"#utility.yul\":25759:25763   */\n      dup3\n        /* \"#utility.yul\":25753:25764   */\n      sload\n        /* \"#utility.yul\":25727:25765   */\n      tag_91\n      jump\t// in\n    tag_517:\n        /* \"#utility.yul\":25812:25879   */\n      tag_518\n        /* \"#utility.yul\":25872:25878   */\n      dup3\n        /* \"#utility.yul\":25864:25870   */\n      dup3\n        /* \"#utility.yul\":25858:25862   */\n      dup6\n        /* \"#utility.yul\":25812:25879   */\n      tag_243\n      jump\t// in\n    tag_518:\n        /* \"#utility.yul\":25906:25907   */\n      0x00\n        /* \"#utility.yul\":25930:25934   */\n      0x20\n        /* \"#utility.yul\":25917:25934   */\n      swap1\n      pop\n        /* \"#utility.yul\":25962:25964   */\n      0x1f\n        /* \"#utility.yul\":25954:25960   */\n      dup4\n        /* \"#utility.yul\":25951:25965   */\n      gt\n        /* \"#utility.yul\":25979:25980   */\n      0x01\n        /* \"#utility.yul\":25974:26592   */\n      dup2\n      eq\n      tag_520\n      jumpi\n        /* \"#utility.yul\":26636:26637   */\n      0x00\n        /* \"#utility.yul\":26653:26659   */\n      dup5\n        /* \"#utility.yul\":26650:26727   */\n      iszero\n      tag_521\n      jumpi\n        /* \"#utility.yul\":26702:26711   */\n      dup3\n        /* \"#utility.yul\":26697:26700   */\n      dup8\n        /* \"#utility.yul\":26693:26712   */\n      add\n        /* \"#utility.yul\":26687:26713   */\n      mload\n        /* \"#utility.yul\":26678:26713   */\n      swap1\n      pop\n        /* \"#utility.yul\":26650:26727   */\n    tag_521:\n        /* \"#utility.yul\":26753:26820   */\n      tag_522\n        /* \"#utility.yul\":26813:26819   */\n      dup6\n        /* \"#utility.yul\":26806:26811   */\n      dup3\n        /* \"#utility.yul\":26753:26820   */\n      tag_246\n      jump\t// in\n    tag_522:\n        /* \"#utility.yul\":26747:26751   */\n      dup7\n        /* \"#utility.yul\":26740:26821   */\n      sstore\n        /* \"#utility.yul\":26609:26831   */\n      pop\n        /* \"#utility.yul\":25944:26831   */\n      jump(tag_519)\n        /* \"#utility.yul\":25974:26592   */\n    tag_520:\n        /* \"#utility.yul\":26026:26030   */\n      0x1f\n        /* \"#utility.yul\":26022:26031   */\n      not\n        /* \"#utility.yul\":26014:26020   */\n      dup5\n        /* \"#utility.yul\":26010:26032   */\n      and\n        /* \"#utility.yul\":26060:26097   */\n      tag_523\n        /* \"#utility.yul\":26092:26096   */\n      dup7\n        /* \"#utility.yul\":26060:26097   */\n      tag_232\n      jump\t// in\n    tag_523:\n        /* \"#utility.yul\":26119:26120   */\n      0x00\n        /* \"#utility.yul\":26133:26341   */\n    tag_524:\n        /* \"#utility.yul\":26147:26154   */\n      dup3\n        /* \"#utility.yul\":26144:26145   */\n      dup2\n        /* \"#utility.yul\":26141:26155   */\n      lt\n        /* \"#utility.yul\":26133:26341   */\n      iszero\n      tag_526\n      jumpi\n        /* \"#utility.yul\":26226:26235   */\n      dup5\n        /* \"#utility.yul\":26221:26224   */\n      dup10\n        /* \"#utility.yul\":26217:26236   */\n      add\n        /* \"#utility.yul\":26211:26237   */\n      mload\n        /* \"#utility.yul\":26203:26209   */\n      dup3\n        /* \"#utility.yul\":26196:26238   */\n      sstore\n        /* \"#utility.yul\":26277:26278   */\n      0x01\n        /* \"#utility.yul\":26269:26275   */\n      dup3\n        /* \"#utility.yul\":26265:26279   */\n      add\n        /* \"#utility.yul\":26255:26279   */\n      swap2\n      pop\n        /* \"#utility.yul\":26324:26326   */\n      0x20\n        /* \"#utility.yul\":26313:26322   */\n      dup6\n        /* \"#utility.yul\":26309:26327   */\n      add\n        /* \"#utility.yul\":26296:26327   */\n      swap5\n      pop\n        /* \"#utility.yul\":26170:26174   */\n      0x20\n        /* \"#utility.yul\":26167:26168   */\n      dup2\n        /* \"#utility.yul\":26163:26175   */\n      add\n        /* \"#utility.yul\":26158:26175   */\n      swap1\n      pop\n        /* \"#utility.yul\":26133:26341   */\n      jump(tag_524)\n    tag_526:\n        /* \"#utility.yul\":26369:26375   */\n      dup7\n        /* \"#utility.yul\":26360:26367   */\n      dup4\n        /* \"#utility.yul\":26357:26376   */\n      lt\n        /* \"#utility.yul\":26354:26533   */\n      iszero\n      tag_527\n      jumpi\n        /* \"#utility.yul\":26427:26436   */\n      dup5\n        /* \"#utility.yul\":26422:26425   */\n      dup10\n        /* \"#utility.yul\":26418:26437   */\n      add\n        /* \"#utility.yul\":26412:26438   */\n      mload\n        /* \"#utility.yul\":26470:26518   */\n      tag_528\n        /* \"#utility.yul\":26512:26516   */\n      0x1f\n        /* \"#utility.yul\":26504:26510   */\n      dup10\n        /* \"#utility.yul\":26500:26517   */\n      and\n        /* \"#utility.yul\":26489:26498   */\n      dup3\n        /* \"#utility.yul\":26470:26518   */\n      tag_245\n      jump\t// in\n    tag_528:\n        /* \"#utility.yul\":26462:26468   */\n      dup4\n        /* \"#utility.yul\":26455:26519   */\n      sstore\n        /* \"#utility.yul\":26377:26533   */\n      pop\n        /* \"#utility.yul\":26354:26533   */\n    tag_527:\n        /* \"#utility.yul\":26579:26580   */\n      0x01\n        /* \"#utility.yul\":26575:26576   */\n      0x02\n        /* \"#utility.yul\":26567:26573   */\n      dup9\n        /* \"#utility.yul\":26563:26577   */\n      mul\n        /* \"#utility.yul\":26559:26581   */\n      add\n        /* \"#utility.yul\":26553:26557   */\n      dup9\n        /* \"#utility.yul\":26546:26582   */\n      sstore\n        /* \"#utility.yul\":25981:26592   */\n      pop\n      pop\n      pop\n        /* \"#utility.yul\":25944:26831   */\n    tag_519:\n      pop\n        /* \"#utility.yul\":25534:26837   */\n      pop\n      pop\n      pop\n        /* \"#utility.yul\":25442:26837   */\n      pop\n      pop\n      jump\t// out\n        /* \"#utility.yul\":26843:27266   */\n    tag_146:\n        /* \"#utility.yul\":26984:26988   */\n      0x00\n        /* \"#utility.yul\":27022:27024   */\n      0x40\n        /* \"#utility.yul\":27011:27020   */\n      dup3\n        /* \"#utility.yul\":27007:27025   */\n      add\n        /* \"#utility.yul\":26999:27025   */\n      swap1\n      pop\n        /* \"#utility.yul\":27035:27106   */\n      tag_530\n        /* \"#utility.yul\":27103:27104   */\n      0x00\n        /* \"#utility.yul\":27092:27101   */\n      dup4\n        /* \"#utility.yul\":27088:27105   */\n      add\n        /* \"#utility.yul\":27079:27085   */\n      dup6\n        /* \"#utility.yul\":27035:27106   */\n      tag_187\n      jump\t// in\n    tag_530:\n        /* \"#utility.yul\":27153:27162   */\n      dup2\n        /* \"#utility.yul\":27147:27151   */\n      dup2\n        /* \"#utility.yul\":27143:27163   */\n      sub\n        /* \"#utility.yul\":27138:27140   */\n      0x20\n        /* \"#utility.yul\":27127:27136   */\n      dup4\n        /* \"#utility.yul\":27123:27141   */\n      add\n        /* \"#utility.yul\":27116:27164   */\n      mstore\n        /* \"#utility.yul\":27181:27259   */\n      tag_531\n        /* \"#utility.yul\":27254:27258   */\n      dup2\n        /* \"#utility.yul\":27245:27251   */\n      dup5\n        /* \"#utility.yul\":27181:27259   */\n      tag_192\n      jump\t// in\n    tag_531:\n        /* \"#utility.yul\":27173:27259   */\n      swap1\n      pop\n        /* \"#utility.yul\":26843:27266   */\n      swap4\n      swap3\n      pop\n      pop\n      pop\n      jump\t// out\n        /* \"#utility.yul\":27272:27437   */\n    tag_247:\n        /* \"#utility.yul\":27412:27429   */\n      0x4f6e6c7920676f7665726e616e63650000000000000000000000000000000000\n        /* \"#utility.yul\":27408:27409   */\n      0x00\n        /* \"#utility.yul\":27400:27406   */\n      dup3\n        /* \"#utility.yul\":27396:27410   */\n      add\n        /* \"#utility.yul\":27389:27430   */\n      mstore\n        /* \"#utility.yul\":27272:27437   */\n      pop\n      jump\t// out\n        /* \"#utility.yul\":27443:27809   */\n    tag_248:\n        /* \"#utility.yul\":27585:27588   */\n      0x00\n        /* \"#utility.yul\":27606:27673   */\n      tag_534\n        /* \"#utility.yul\":27670:27672   */\n      0x0f\n        /* \"#utility.yul\":27665:27668   */\n      dup4\n        /* \"#utility.yul\":27606:27673   */\n      tag_189\n      jump\t// in\n    tag_534:\n        /* \"#utility.yul\":27599:27673   */\n      swap2\n      pop\n        /* \"#utility.yul\":27682:27775   */\n      tag_535\n        /* \"#utility.yul\":27771:27774   */\n      dup3\n        /* \"#utility.yul\":27682:27775   */\n      tag_247\n      jump\t// in\n    tag_535:\n        /* \"#utility.yul\":27800:27802   */\n      0x20\n        /* \"#utility.yul\":27795:27798   */\n      dup3\n        /* \"#utility.yul\":27791:27803   */\n      add\n        /* \"#utility.yul\":27784:27803   */\n      swap1\n      pop\n        /* \"#utility.yul\":27443:27809   */\n      swap2\n      swap1\n      pop\n      jump\t// out\n        /* \"#utility.yul\":27815:28234   */\n    tag_163:\n        /* \"#utility.yul\":27981:27985   */\n      0x00\n        /* \"#utility.yul\":28019:28021   */\n      0x20\n        /* \"#utility.yul\":28008:28017   */\n      dup3\n        /* \"#utility.yul\":28004:28022   */\n      add\n        /* \"#utility.yul\":27996:28022   */\n      swap1\n      pop\n        /* \"#utility.yul\":28068:28077   */\n      dup2\n        /* \"#utility.yul\":28062:28066   */\n      dup2\n        /* \"#utility.yul\":28058:28078   */\n      sub\n        /* \"#utility.yul\":28054:28055   */\n      0x00\n        /* \"#utility.yul\":28043:28052   */\n      dup4\n        /* \"#utility.yul\":28039:28056   */\n      add\n        /* \"#utility.yul\":28032:28079   */\n      mstore\n        /* \"#utility.yul\":28096:28227   */\n      tag_537\n        /* \"#utility.yul\":28222:28226   */\n      dup2\n        /* \"#utility.yul\":28096:28227   */\n      tag_248\n      jump\t// in\n    tag_537:\n        /* \"#utility.yul\":28088:28227   */\n      swap1\n      pop\n        /* \"#utility.yul\":27815:28234   */\n      swap2\n      swap1\n      pop\n      jump\t// out\n        /* \"#utility.yul\":28240:28409   */\n    tag_249:\n        /* \"#utility.yul\":28380:28401   */\n      0x566f74696e6720706572696f6420656e64656400000000000000000000000000\n        /* \"#utility.yul\":28376:28377   */\n      0x00\n        /* \"#utility.yul\":28368:28374   */\n      dup3\n        /* \"#utility.yul\":28364:28378   */\n      add\n        /* \"#utility.yul\":28357:28402   */\n      mstore\n        /* \"#utility.yul\":28240:28409   */\n      pop\n      jump\t// out\n        /* \"#utility.yul\":28415:28781   */\n    tag_250:\n        /* \"#utility.yul\":28557:28560   */\n      0x00\n        /* \"#utility.yul\":28578:28645   */\n      tag_540\n        /* \"#utility.yul\":28642:28644   */\n      0x13\n        /* \"#utility.yul\":28637:28640   */\n      dup4\n        /* \"#utility.yul\":28578:28645   */\n      tag_189\n      jump\t// in\n    tag_540:\n        /* \"#utility.yul\":28571:28645   */\n      swap2\n      pop\n        /* \"#utility.yul\":28654:28747   */\n      tag_541\n        /* \"#utility.yul\":28743:28746   */\n      dup3\n        /* \"#utility.yul\":28654:28747   */\n      tag_249\n      jump\t// in\n    tag_541:\n        /* \"#utility.yul\":28772:28774   */\n      0x20\n        /* \"#utility.yul\":28767:28770   */\n      dup3\n        /* \"#utility.yul\":28763:28775   */\n      add\n        /* \"#utility.yul\":28756:28775   */\n      swap1\n      pop\n        /* \"#utility.yul\":28415:28781   */\n      swap2\n      swap1\n      pop\n      jump\t// out\n        /* \"#utility.yul\":28787:29206   */\n    tag_169:\n        /* \"#utility.yul\":28953:28957   */\n      0x00\n        /* \"#utility.yul\":28991:28993   */\n      0x20\n        /* \"#utility.yul\":28980:28989   */\n      dup3\n        /* \"#utility.yul\":28976:28994   */\n      add\n        /* \"#utility.yul\":28968:28994   */\n      swap1\n      pop\n        /* \"#utility.yul\":29040:29049   */\n      dup2\n        /* \"#utility.yul\":29034:29038   */\n      dup2\n        /* \"#utility.yul\":29030:29050   */\n      sub\n        /* \"#utility.yul\":29026:29027   */\n      0x00\n        /* \"#utility.yul\":29015:29024   */\n      dup4\n        /* \"#utility.yul\":29011:29028   */\n      add\n        /* \"#utility.yul\":29004:29051   */\n      mstore\n        /* \"#utility.yul\":29068:29199   */\n      tag_543\n        /* \"#utility.yul\":29194:29198   */\n      dup2\n        /* \"#utility.yul\":29068:29199   */\n      tag_250\n      jump\t// in\n    tag_543:\n        /* \"#utility.yul\":29060:29199   */\n      swap1\n      pop\n        /* \"#utility.yul\":28787:29206   */\n      swap2\n      swap1\n      pop\n      jump\t// out\n        /* \"#utility.yul\":29212:29375   */\n    tag_251:\n        /* \"#utility.yul\":29352:29367   */\n      0x416c726561647920766f74656400000000000000000000000000000000000000\n        /* \"#utility.yul\":29348:29349   */\n      0x00\n        /* \"#utility.yul\":29340:29346   */\n      dup3\n        /* \"#utility.yul\":29336:29350   */\n      add\n        /* \"#utility.yul\":29329:29368   */\n      mstore\n        /* \"#utility.yul\":29212:29375   */\n      pop\n      jump\t// out\n        /* \"#utility.yul\":29381:29747   */\n    tag_252:\n        /* \"#utility.yul\":29523:29526   */\n      0x00\n        /* \"#utility.yul\":29544:29611   */\n      tag_546\n        /* \"#utility.yul\":29608:29610   */\n      0x0d\n        /* \"#utility.yul\":29603:29606   */\n      dup4\n        /* \"#utility.yul\":29544:29611   */\n      tag_189\n      jump\t// in\n    tag_546:\n        /* \"#utility.yul\":29537:29611   */\n      swap2\n      pop\n        /* \"#utility.yul\":29620:29713   */\n      tag_547\n        /* \"#utility.yul\":29709:29712   */\n      dup3\n        /* \"#utility.yul\":29620:29713   */\n      tag_251\n      jump\t// in\n    tag_547:\n        /* \"#utility.yul\":29738:29740   */\n      0x20\n        /* \"#utility.yul\":29733:29736   */\n      dup3\n        /* \"#utility.yul\":29729:29741   */\n      add\n        /* \"#utility.yul\":29722:29741   */\n      swap1\n      pop\n        /* \"#utility.yul\":29381:29747   */\n      swap2\n      swap1\n      pop\n      jump\t// out\n        /* \"#utility.yul\":29753:30172   */\n    tag_172:\n        /* \"#utility.yul\":29919:29923   */\n      0x00\n        /* \"#utility.yul\":29957:29959   */\n      0x20\n        /* \"#utility.yul\":29946:29955   */\n      dup3\n        /* \"#utility.yul\":29942:29960   */\n      add\n        /* \"#utility.yul\":29934:29960   */\n      swap1\n      pop\n        /* \"#utility.yul\":30006:30015   */\n      dup2\n        /* \"#utility.yul\":30000:30004   */\n      dup2\n        /* \"#utility.yul\":29996:30016   */\n      sub\n        /* \"#utility.yul\":29992:29993   */\n      0x00\n        /* \"#utility.yul\":29981:29990   */\n      dup4\n        /* \"#utility.yul\":29977:29994   */\n      add\n        /* \"#utility.yul\":29970:30017   */\n      mstore\n        /* \"#utility.yul\":30034:30165   */\n      tag_549\n        /* \"#utility.yul\":30160:30164   */\n      dup2\n        /* \"#utility.yul\":30034:30165   */\n      tag_252\n      jump\t// in\n    tag_549:\n        /* \"#utility.yul\":30026:30165   */\n      swap1\n      pop\n        /* \"#utility.yul\":29753:30172   */\n      swap2\n      swap1\n      pop\n      jump\t// out\n        /* \"#utility.yul\":30178:30608   */\n    tag_178:\n        /* \"#utility.yul\":30321:30325   */\n      0x00\n        /* \"#utility.yul\":30359:30361   */\n      0x60\n        /* \"#utility.yul\":30348:30357   */\n      dup3\n        /* \"#utility.yul\":30344:30362   */\n      add\n        /* \"#utility.yul\":30336:30362   */\n      swap1\n      pop\n        /* \"#utility.yul\":30372:30443   */\n      tag_551\n        /* \"#utility.yul\":30440:30441   */\n      0x00\n        /* \"#utility.yul\":30429:30438   */\n      dup4\n        /* \"#utility.yul\":30425:30442   */\n      add\n        /* \"#utility.yul\":30416:30422   */\n      dup7\n        /* \"#utility.yul\":30372:30443   */\n      tag_187\n      jump\t// in\n    tag_551:\n        /* \"#utility.yul\":30453:30519   */\n      tag_552\n        /* \"#utility.yul\":30515:30517   */\n      0x20\n        /* \"#utility.yul\":30504:30513   */\n      dup4\n        /* \"#utility.yul\":30500:30518   */\n      add\n        /* \"#utility.yul\":30491:30497   */\n      dup6\n        /* \"#utility.yul\":30453:30519   */\n      tag_195\n      jump\t// in\n    tag_552:\n        /* \"#utility.yul\":30529:30601   */\n      tag_553\n        /* \"#utility.yul\":30597:30599   */\n      0x40\n        /* \"#utility.yul\":30586:30595   */\n      dup4\n        /* \"#utility.yul\":30582:30600   */\n      add\n        /* \"#utility.yul\":30573:30579   */\n      dup5\n        /* \"#utility.yul\":30529:30601   */\n      tag_193\n      jump\t// in\n    tag_553:\n        /* \"#utility.yul\":30178:30608   */\n      swap5\n      swap4\n      pop\n      pop\n      pop\n      pop\n      jump\t// out\n\n    auxdata: 0xa2646970667358221220751758dff6add12b3d87b701f3de3352ea487cf385f46ad20ff3fdd36c17679664736f6c634300081a0033\n}\n",
				"bytecode": {
					"linkReferences": {},
					"object": "60806040526040518060400160405280601181526020017f466c69676874477561726420546f6b656e0000000000000000000000000000008152505f90816100479190610411565b506040518060400160405280600381526020017f46475400000000000000000000000000000000000000000000000000000000008152506001908161008c9190610411565b50601260025f6101000a81548160ff021916908360ff1602179055503480156100b3575f80fd5b503360065f6101000a81548173ffffffffffffffffffffffffffffffffffffffff021916908373ffffffffffffffffffffffffffffffffffffffff1602179055505f60025f9054906101000a900460ff1660ff16600a610113919061063c565b620f42406101219190610686565b90508060045f3373ffffffffffffffffffffffffffffffffffffffff1673ffffffffffffffffffffffffffffffffffffffff1681526020019081526020015f2081905550806003819055503373ffffffffffffffffffffffffffffffffffffffff165f73ffffffffffffffffffffffffffffffffffffffff167fddf252ad1be2c89b69c2b068fc378daa952ba7f163c4a11628f55a4df523b3ef836040516101c991906106d6565b60405180910390a3506106ef565b5f81519050919050565b7f4e487b71000000000000000000000000000000000000000000000000000000005f52604160045260245ffd5b7f4e487b71000000000000000000000000000000000000000000000000000000005f52602260045260245ffd5b5f600282049050600182168061025257607f821691505b6020821081036102655761026461020e565b5b50919050565b5f819050815f5260205f209050919050565b5f6020601f8301049050919050565b5f82821b905092915050565b5f600883026102c77fffffffffffffffffffffffffffffffffffffffffffffffffffffffffffffffff8261028c565b6102d1868361028c565b95508019841693508086168417925050509392505050565b5f819050919050565b5f819050919050565b5f61031561031061030b846102e9565b6102f2565b6102e9565b9050919050565b5f819050919050565b61032e836102fb565b61034261033a8261031c565b848454610298565b825550505050565b5f90565b61035661034a565b610361818484610325565b505050565b5b81811015610384576103795f8261034e565b600181019050610367565b5050565b601f8211156103c95761039a8161026b565b6103a38461027d565b810160208510156103b2578190505b6103c66103be8561027d565b830182610366565b50505b505050565b5f82821c905092915050565b5f6103e95f19846008026103ce565b1980831691505092915050565b5f61040183836103da565b9150826002028217905092915050565b61041a826101d7565b67ffffffffffffffff811115610433576104326101e1565b5b61043d825461023b565b610448828285610388565b5f60209050601f831160018114610479575f8415610467578287015190505b61047185826103f6565b8655506104d8565b601f1984166104878661026b565b5f5b828110156104ae57848901518255600182019150602085019450602081019050610489565b868310156104cb57848901516104c7601f8916826103da565b8355505b6001600288020188555050505b505050505050565b7f4e487b71000000000000000000000000000000000000000000000000000000005f52601160045260245ffd5b5f8160011c9050919050565b5f808291508390505b60018511156105625780860481111561053e5761053d6104e0565b5b600185161561054d5780820291505b808102905061055b8561050d565b9450610522565b94509492505050565b5f8261057a5760019050610635565b81610587575f9050610635565b816001811461059d57600281146105a7576105d6565b6001915050610635565b60ff8411156105b9576105b86104e0565b5b8360020a9150848211156105d0576105cf6104e0565b5b50610635565b5060208310610133831016604e8410600b841016171561060b5782820a905083811115610606576106056104e0565b5b610635565b6106188484846001610519565b9250905081840481111561062f5761062e6104e0565b5b81810290505b9392505050565b5f610646826102e9565b9150610651836102e9565b925061067e7fffffffffffffffffffffffffffffffffffffffffffffffffffffffffffffffff848461056b565b905092915050565b5f610690826102e9565b915061069b836102e9565b92508282026106a9816102e9565b915082820484148315176106c0576106bf6104e0565b5b5092915050565b6106d0816102e9565b82525050565b5f6020820190506106e95f8301846106c7565b92915050565b61228a806106fc5f395ff3fe608060405234801561000f575f80fd5b50600436106100fe575f3560e01c80635aa6e67511610095578063ab033ea911610064578063ab033ea9146102da578063c9d27afe146102f6578063da35c66414610312578063dd62ed3e14610330576100fe565b80635aa6e6751461023e57806370a082311461025c57806395d89b411461028c578063a9059cbb146102aa576100fe565b806318160ddd116100d157806318160ddd146101a257806323b872dd146101c0578063313ce567146101f057806349c2a1a61461020e576100fe565b8063013cf08b1461010257806306fdde0314610138578063095ea7b3146101565780630d61b51914610186575b5f80fd5b61011c600480360381019061011791906112e4565b610360565b60405161012f97969594939291906113e7565b60405180910390f35b61014061045c565b60405161014d919061145b565b60405180910390f35b610170600480360381019061016b91906114a5565b6104e7565b60405161017d91906114e3565b60405180910390f35b6101a0600480360381019061019b91906112e4565b6105d4565b005b6101aa610784565b6040516101b791906114fc565b60405180910390f35b6101da60048036038101906101d59190611515565b61078a565b6040516101e791906114e3565b60405180910390f35b6101f8610ad8565b6040516102059190611580565b60405180910390f35b610228600480360381019061022391906116c5565b610aea565b60405161023591906114fc565b60405180910390f35b610246610c8d565b604051610253919061170c565b60405180910390f35b61027660048036038101906102719190611725565b610cb2565b60405161028391906114fc565b60405180910390f35b610294610cc7565b6040516102a1919061145b565b60405180910390f35b6102c460048036038101906102bf91906114a5565b610d53565b6040516102d191906114e3565b60405180910390f35b6102f460048036038101906102ef9190611725565b610f57565b005b610310600480360381019061030b919061177a565b611029565b005b61031a61127a565b60405161032791906114fc565b60405180910390f35b61034a600480360381019061034591906117b8565b611280565b60405161035791906114fc565b60405180910390f35b6008602052805f5260405f205f91509050805f015f9054906101000a900473ffffffffffffffffffffffffffffffffffffffff16908060010180546103a490611823565b80601f01602080910402602001604051908101604052809291908181526020018280546103d090611823565b801561041b5780601f106103f25761010080835404028352916020019161041b565b820191905f5260205f20905b8154815290600101906020018083116103fe57829003601f168201915b505050505090806002015490806003015490806004015f9054906101000a900460ff16908060040160019054906101000a900460ff16908060050154905087565b5f805461046890611823565b80601f016020809104026020016040519081016040528092919081815260200182805461049490611823565b80156104df5780601f106104b6576101008083540402835291602001916104df565b820191905f5260205f20905b8154815290600101906020018083116104c257829003601f168201915b505050505081565b5f8160055f3373ffffffffffffffffffffffffffffffffffffffff1673ffffffffffffffffffffffffffffffffffffffff1681526020019081526020015f205f8573ffffffffffffffffffffffffffffffffffffffff1673ffffffffffffffffffffffffffffffffffffffff1681526020019081526020015f20819055508273ffffffffffffffffffffffffffffffffffffffff163373ffffffffffffffffffffffffffffffffffffffff167f8c5be1e5ebec7d5bd14f71427d1e84f3dd0314c0f7b2291e5b200ac8c7c3b925846040516105c291906114fc565b60405180910390a36001905092915050565b5f60085f8381526020019081526020015f2090508060040160019054906101000a900460ff16610639576040517f08c379a00000000000000000000000000000000000000000000000000000000081526004016106309061189d565b60405180910390fd5b8060050154421015610680576040517f08c379a000000000000000000000000000000000000000000000000000000000815260040161067790611905565b60405180910390fd5b806004015f9054906101000a900460ff16156106d1576040517f08c379a00000000000000000000000000000000000000000000000000000000081526004016106c89061196d565b60405180910390fd5b806003015481600201541161071b576040517f08c379a0000000000000000000000000000000000000000000000000000000008152600401610712906119d5565b60405180910390fd5b6001816004015f6101000a81548160ff0219169083151502179055505f8160040160016101000a81548160ff021916908315150217905550817f712ae1383f79ac853f8d882153778e0260ef8f03b504e2866e0593e04d2b291f60405160405180910390a25050565b60035481565b5f8073ffffffffffffffffffffffffffffffffffffffff168373ffffffffffffffffffffffffffffffffffffffff16036107f9576040517f08c379a00000000000000000000000000000000000000000000000000000000081526004016107f090611a3d565b60405180910390fd5b8160045f8673ffffffffffffffffffffffffffffffffffffffff1673ffffffffffffffffffffffffffffffffffffffff1681526020019081526020015f20541015610879576040517f08c379a000000000000000000000000000000000000000000000000000000000815260040161087090611aa5565b60405180910390fd5b8160055f8673ffffffffffffffffffffffffffffffffffffffff1673ffffffffffffffffffffffffffffffffffffffff1681526020019081526020015f205f3373ffffffffffffffffffffffffffffffffffffffff1673ffffffffffffffffffffffffffffffffffffffff1681526020019081526020015f20541015610934576040517f08c379a000000000000000000000000000000000000000000000000000000000815260040161092b90611b0d565b60405180910390fd5b8160045f8673ffffffffffffffffffffffffffffffffffffffff1673ffffffffffffffffffffffffffffffffffffffff1681526020019081526020015f205f8282546109809190611b58565b925050819055508160045f8573ffffffffffffffffffffffffffffffffffffffff1673ffffffffffffffffffffffffffffffffffffffff1681526020019081526020015f205f8282546109d39190611b8b565b925050819055508160055f8673ffffffffffffffffffffffffffffffffffffffff1673ffffffffffffffffffffffffffffffffffffffff1681526020019081526020015f205f3373ffffffffffffffffffffffffffffffffffffffff1673ffffffffffffffffffffffffffffffffffffffff1681526020019081526020015f205f828254610a619190611b58565b925050819055508273ffffffffffffffffffffffffffffffffffffffff168473ffffffffffffffffffffffffffffffffffffffff167fddf252ad1be2c89b69c2b068fc378daa952ba7f163c4a11628f55a4df523b3ef84604051610ac591906114fc565b60405180910390a3600190509392505050565b60025f9054906101000a900460ff1681565b5f60025f9054906101000a900460ff1660ff16600a610b099190611ced565b6103e8610b169190611d37565b60045f3373ffffffffffffffffffffffffffffffffffffffff1673ffffffffffffffffffffffffffffffffffffffff1681526020019081526020015f20541015610b95576040517f08c379a0000000000000000000000000000000000000000000000000000000008152600401610b8c90611de8565b60405180910390fd5b5f60075f815480929190610ba890611e06565b9190505590505f60085f8381526020019081526020015f20905033815f015f6101000a81548173ffffffffffffffffffffffffffffffffffffffff021916908373ffffffffffffffffffffffffffffffffffffffff16021790555083816001019081610c149190611fea565b5060018160040160016101000a81548160ff02191690831515021790555062093a8042610c419190611b8b565b8160050181905550817f7585f467599d0f008985f231af99293be388626ac16ca59505c2f8f88969cd633386604051610c7b9291906120b9565b60405180910390a28192505050919050565b60065f9054906101000a900473ffffffffffffffffffffffffffffffffffffffff1681565b6004602052805f5260405f205f915090505481565b60018054610cd490611823565b80601f0160208091040260200160405190810160405280929190818152602001828054610d0090611823565b8015610d4b5780601f10610d2257610100808354040283529160200191610d4b565b820191905f5260205f20905b815481529060010190602001808311610d2e57829003601f168201915b505050505081565b5f8073ffffffffffffffffffffffffffffffffffffffff168373ffffffffffffffffffffffffffffffffffffffff1603610dc2576040517f08c379a0000000000000000000000000000000000000000000000000000000008152600401610db990611a3d565b60405180910390fd5b8160045f3373ffffffffffffffffffffffffffffffffffffffff1673ffffffffffffffffffffffffffffffffffffffff1681526020019081526020015f20541015610e42576040517f08c379a0000000000000000000000000000000000000000000000000000000008152600401610e3990611aa5565b60405180910390fd5b8160045f3373ffffffffffffffffffffffffffffffffffffffff1673ffffffffffffffffffffffffffffffffffffffff1681526020019081526020015f205f828254610e8e9190611b58565b925050819055508160045f8573ffffffffffffffffffffffffffffffffffffffff1673ffffffffffffffffffffffffffffffffffffffff1681526020019081526020015f205f828254610ee19190611b8b565b925050819055508273ffffffffffffffffffffffffffffffffffffffff163373ffffffffffffffffffffffffffffffffffffffff167fddf252ad1be2c89b69c2b068fc378daa952ba7f163c4a11628f55a4df523b3ef84604051610f4591906114fc565b60405180910390a36001905092915050565b60065f9054906101000a900473ffffffffffffffffffffffffffffffffffffffff1673ffffffffffffffffffffffffffffffffffffffff163373ffffffffffffffffffffffffffffffffffffffff1614610fe6576040517f08c379a0000000000000000000000000000000000000000000000000000000008152600401610fdd90612131565b60405180910390fd5b8060065f6101000a81548173ffffffffffffffffffffffffffffffffffffffff021916908373ffffffffffffffffffffffffffffffffffffffff16021790555050565b5f60085f8481526020019081526020015f2090508060040160019054906101000a900460ff1661108e576040517f08c379a00000000000000000000000000000000000000000000000000000000081526004016110859061189d565b60405180910390fd5b806005015442106110d4576040517f08c379a00000000000000000000000000000000000000000000000000000000081526004016110cb90612199565b60405180910390fd5b806006015f3373ffffffffffffffffffffffffffffffffffffffff1673ffffffffffffffffffffffffffffffffffffffff1681526020019081526020015f205f9054906101000a900460ff1615611160576040517f08c379a000000000000000000000000000000000000000000000000000000000815260040161115790612201565b60405180910390fd5b6001816006015f3373ffffffffffffffffffffffffffffffffffffffff1673ffffffffffffffffffffffffffffffffffffffff1681526020019081526020015f205f6101000a81548160ff0219169083151502179055505f60045f3373ffffffffffffffffffffffffffffffffffffffff1673ffffffffffffffffffffffffffffffffffffffff1681526020019081526020015f20549050821561121d5780826002015f8282546112119190611b8b565b92505081905550611238565b80826003015f8282546112309190611b8b565b925050819055505b837f7c2de587c00d75474a0c6c6fa96fd3b45dc974cd4e8a75f712bb84c950dce1b533858460405161126c9392919061221f565b60405180910390a250505050565b60075481565b6005602052815f5260405f20602052805f5260405f205f91509150505481565b5f604051905090565b5f80fd5b5f80fd5b5f819050919050565b6112c3816112b1565b81146112cd575f80fd5b50565b5f813590506112de816112ba565b92915050565b5f602082840312156112f9576112f86112a9565b5b5f611306848285016112d0565b91505092915050565b5f73ffffffffffffffffffffffffffffffffffffffff82169050919050565b5f6113388261130f565b9050919050565b6113488161132e565b82525050565b5f81519050919050565b5f82825260208201905092915050565b8281835e5f83830152505050565b5f601f19601f8301169050919050565b5f6113908261134e565b61139a8185611358565b93506113aa818560208601611368565b6113b381611376565b840191505092915050565b6113c7816112b1565b82525050565b5f8115159050919050565b6113e1816113cd565b82525050565b5f60e0820190506113fa5f83018a61133f565b818103602083015261140c8189611386565b905061141b60408301886113be565b61142860608301876113be565b61143560808301866113d8565b61144260a08301856113d8565b61144f60c08301846113be565b98975050505050505050565b5f6020820190508181035f8301526114738184611386565b905092915050565b6114848161132e565b811461148e575f80fd5b50565b5f8135905061149f8161147b565b92915050565b5f80604083850312156114bb576114ba6112a9565b5b5f6114c885828601611491565b92505060206114d9858286016112d0565b9150509250929050565b5f6020820190506114f65f8301846113d8565b92915050565b5f60208201905061150f5f8301846113be565b92915050565b5f805f6060848603121561152c5761152b6112a9565b5b5f61153986828701611491565b935050602061154a86828701611491565b925050604061155b868287016112d0565b9150509250925092565b5f60ff82169050919050565b61157a81611565565b82525050565b5f6020820190506115935f830184611571565b92915050565b5f80fd5b5f80fd5b7f4e487b71000000000000000000000000000000000000000000000000000000005f52604160045260245ffd5b6115d782611376565b810181811067ffffffffffffffff821117156115f6576115f56115a1565b5b80604052505050565b5f6116086112a0565b905061161482826115ce565b919050565b5f67ffffffffffffffff821115611633576116326115a1565b5b61163c82611376565b9050602081019050919050565b828183375f83830152505050565b5f61166961166484611619565b6115ff565b9050828152602081018484840111156116855761168461159d565b5b611690848285611649565b509392505050565b5f82601f8301126116ac576116ab611599565b5b81356116bc848260208601611657565b91505092915050565b5f602082840312156116da576116d96112a9565b5b5f82013567ffffffffffffffff8111156116f7576116f66112ad565b5b61170384828501611698565b91505092915050565b5f60208201905061171f5f83018461133f565b92915050565b5f6020828403121561173a576117396112a9565b5b5f61174784828501611491565b91505092915050565b611759816113cd565b8114611763575f80fd5b50565b5f8135905061177481611750565b92915050565b5f80604083850312156117905761178f6112a9565b5b5f61179d858286016112d0565b92505060206117ae85828601611766565b9150509250929050565b5f80604083850312156117ce576117cd6112a9565b5b5f6117db85828601611491565b92505060206117ec85828601611491565b9150509250929050565b7f4e487b71000000000000000000000000000000000000000000000000000000005f52602260045260245ffd5b5f600282049050600182168061183a57607f821691505b60208210810361184d5761184c6117f6565b5b50919050565b7f50726f706f73616c206e6f7420616374697665000000000000000000000000005f82015250565b5f611887601383611358565b915061189282611853565b602082019050919050565b5f6020820190508181035f8301526118b48161187b565b9050919050565b7f566f74696e6720706572696f64206e6f7420656e6465640000000000000000005f82015250565b5f6118ef601783611358565b91506118fa826118bb565b602082019050919050565b5f6020820190508181035f83015261191c816118e3565b9050919050565b7f50726f706f73616c20616c7265616479206578656375746564000000000000005f82015250565b5f611957601983611358565b915061196282611923565b602082019050919050565b5f6020820190508181035f8301526119848161194b565b9050919050565b7f50726f706f73616c20646964206e6f74207061737300000000000000000000005f82015250565b5f6119bf601583611358565b91506119ca8261198b565b602082019050919050565b5f6020820190508181035f8301526119ec816119b3565b9050919050565b7f5472616e7366657220746f207a65726f206164647265737300000000000000005f82015250565b5f611a27601883611358565b9150611a32826119f3565b602082019050919050565b5f6020820190508181035f830152611a5481611a1b565b9050919050565b7f496e73756666696369656e742062616c616e63650000000000000000000000005f82015250565b5f611a8f601483611358565b9150611a9a82611a5b565b602082019050919050565b5f6020820190508181035f830152611abc81611a83565b9050919050565b7f496e73756666696369656e7420616c6c6f77616e6365000000000000000000005f82015250565b5f611af7601683611358565b9150611b0282611ac3565b602082019050919050565b5f6020820190508181035f830152611b2481611aeb565b9050919050565b7f4e487b71000000000000000000000000000000000000000000000000000000005f52601160045260245ffd5b5f611b62826112b1565b9150611b6d836112b1565b9250828203905081811115611b8557611b84611b2b565b5b92915050565b5f611b95826112b1565b9150611ba0836112b1565b9250828201905080821115611bb857611bb7611b2b565b5b92915050565b5f8160011c9050919050565b5f808291508390505b6001851115611c1357808604811115611bef57611bee611b2b565b5b6001851615611bfe5780820291505b8081029050611c0c85611bbe565b9450611bd3565b94509492505050565b5f82611c2b5760019050611ce6565b81611c38575f9050611ce6565b8160018114611c4e5760028114611c5857611c87565b6001915050611ce6565b60ff841115611c6a57611c69611b2b565b5b8360020a915084821115611c8157611c80611b2b565b5b50611ce6565b5060208310610133831016604e8410600b8410161715611cbc5782820a905083811115611cb757611cb6611b2b565b5b611ce6565b611cc98484846001611bca565b92509050818404811115611ce057611cdf611b2b565b5b81810290505b9392505050565b5f611cf7826112b1565b9150611d02836112b1565b9250611d2f7fffffffffffffffffffffffffffffffffffffffffffffffffffffffffffffffff8484611c1c565b905092915050565b5f611d41826112b1565b9150611d4c836112b1565b9250828202611d5a816112b1565b91508282048414831517611d7157611d70611b2b565b5b5092915050565b7f4e656564203130303020746f6b656e7320746f206372656174652070726f706f5f8201527f73616c0000000000000000000000000000000000000000000000000000000000602082015250565b5f611dd2602383611358565b9150611ddd82611d78565b604082019050919050565b5f6020820190508181035f830152611dff81611dc6565b9050919050565b5f611e10826112b1565b91507fffffffffffffffffffffffffffffffffffffffffffffffffffffffffffffffff8203611e4257611e41611b2b565b5b600182019050919050565b5f819050815f5260205f209050919050565b5f6020601f8301049050919050565b5f82821b905092915050565b5f60088302611ea97fffffffffffffffffffffffffffffffffffffffffffffffffffffffffffffffff82611e6e565b611eb38683611e6e565b95508019841693508086168417925050509392505050565b5f819050919050565b5f611eee611ee9611ee4846112b1565b611ecb565b6112b1565b9050919050565b5f819050919050565b611f0783611ed4565b611f1b611f1382611ef5565b848454611e7a565b825550505050565b5f90565b611f2f611f23565b611f3a818484611efe565b505050565b5b81811015611f5d57611f525f82611f27565b600181019050611f40565b5050565b601f821115611fa257611f7381611e4d565b611f7c84611e5f565b81016020851015611f8b578190505b611f9f611f9785611e5f565b830182611f3f565b50505b505050565b5f82821c905092915050565b5f611fc25f1984600802611fa7565b1980831691505092915050565b5f611fda8383611fb3565b9150826002028217905092915050565b611ff38261134e565b67ffffffffffffffff81111561200c5761200b6115a1565b5b6120168254611823565b612021828285611f61565b5f60209050601f831160018114612052575f8415612040578287015190505b61204a8582611fcf565b8655506120b1565b601f19841661206086611e4d565b5f5b8281101561208757848901518255600182019150602085019450602081019050612062565b868310156120a457848901516120a0601f891682611fb3565b8355505b6001600288020188555050505b505050505050565b5f6040820190506120cc5f83018561133f565b81810360208301526120de8184611386565b90509392505050565b7f4f6e6c7920676f7665726e616e636500000000000000000000000000000000005f82015250565b5f61211b600f83611358565b9150612126826120e7565b602082019050919050565b5f6020820190508181035f8301526121488161210f565b9050919050565b7f566f74696e6720706572696f6420656e646564000000000000000000000000005f82015250565b5f612183601383611358565b915061218e8261214f565b602082019050919050565b5f6020820190508181035f8301526121b081612177565b9050919050565b7f416c726561647920766f746564000000000000000000000000000000000000005f82015250565b5f6121eb600d83611358565b91506121f6826121b7565b602082019050919050565b5f6020820190508181035f830152612218816121df565b9050919050565b5f6060820190506122325f83018661133f565b61223f60208301856113d8565b61224c60408301846113be565b94935050505056fea2646970667358221220751758dff6add12b3d87b701f3de3352ea487cf385f46ad20ff3fdd36c17679664736f6c634300081a0033",
					"opcodes": "PUSH1 0x80 PUSH1 0x40 MSTORE PUSH1 0x40 MLOAD DUP1 PUSH1 0x40 ADD PUSH1 0x40 MSTORE DUP1 PUSH1 0x11 DUP2 MSTORE PUSH1 0x20 ADD PUSH32 0x466C69676874477561726420546F6B656E000000000000000000000000000000 DUP2 MSTORE POP PUSH0 SWAP1 DUP2 PUSH2 0x47 SWAP2 SWAP1 PUSH2 0x411 JUMP JUMPDEST POP PUSH1 0x40 MLOAD DUP1 PUSH1 0x40 ADD PUSH1 0x40 MSTORE DUP1 PUSH1 0x3 DUP2 MSTORE PUSH1 0x20 ADD PUSH32 0x4647540000000000000000000000000000000000000000000000000000000000 DUP2 MSTORE POP PUSH1 0x1 SWAP1 DUP2 PUSH2 0x8C SWAP2 SWAP1 PUSH2 0x411 JUMP JUMPDEST POP PUSH1 0x12 PUSH1 0x2 PUSH0 PUSH2 0x100 EXP DUP2 SLOAD DUP2 PUSH1 0xFF MUL NOT AND SWAP1 DUP4 PUSH1 0xFF AND MUL OR SWAP1 SSTORE POP CALLVALUE DUP1 ISZERO PUSH2 0xB3 JUMPI PUSH0 DUP1 REVERT JUMPDEST POP CALLER PUSH1 0x6 PUSH0 PUSH2 0x100 EXP DUP2 SLOAD DUP2 PUSH20 0xFFFFFFFFFFFFFFFFFFFFFFFFFFFFFFFFFFFFFFFF MUL NOT AND SWAP1 DUP4 PUSH20 0xFFFFFFFFFFFFFFFFFFFFFFFFFFFFFFFFFFFFFFFF AND MUL OR SWAP1 SSTORE POP PUSH0 PUSH1 0x2 PUSH0 SWAP1 SLOAD SWAP1 PUSH2 0x100 EXP SWAP1 DIV PUSH1 0xFF AND PUSH1 0xFF AND PUSH1 0xA PUSH2 0x113 SWAP2 SWAP1 PUSH2 0x63C JUMP JUMPDEST PUSH3 0xF4240 PUSH2 0x121 SWAP2 SWAP1 PUSH2 0x686 JUMP JUMPDEST SWAP1 POP DUP1 PUSH1 0x4 PUSH0 CALLER PUSH20 0xFFFFFFFFFFFFFFFFFFFFFFFFFFFFFFFFFFFFFFFF AND PUSH20 0xFFFFFFFFFFFFFFFFFFFFFFFFFFFFFFFFFFFFFFFF AND DUP2 MSTORE PUSH1 0x20 ADD SWAP1 DUP2 MSTORE PUSH1 0x20 ADD PUSH0 KECCAK256 DUP2 SWAP1 SSTORE POP DUP1 PUSH1 0x3 DUP2 SWAP1 SSTORE POP CALLER PUSH20 0xFFFFFFFFFFFFFFFFFFFFFFFFFFFFFFFFFFFFFFFF AND PUSH0 PUSH20 0xFFFFFFFFFFFFFFFFFFFFFFFFFFFFFFFFFFFFFFFF AND PUSH32 0xDDF252AD1BE2C89B69C2B068FC378DAA952BA7F163C4A11628F55A4DF523B3EF DUP4 PUSH1 0x40 MLOAD PUSH2 0x1C9 SWAP2 SWAP1 PUSH2 0x6D6 JUMP JUMPDEST PUSH1 0x40 MLOAD DUP1 SWAP2 SUB SWAP1 LOG3 POP PUSH2 0x6EF JUMP JUMPDEST PUSH0 DUP2 MLOAD SWAP1 POP SWAP2 SWAP1 POP JUMP JUMPDEST PUSH32 0x4E487B7100000000000000000000000000000000000000000000000000000000 PUSH0 MSTORE PUSH1 0x41 PUSH1 0x4 MSTORE PUSH1 0x24 PUSH0 REVERT JUMPDEST PUSH32 0x4E487B7100000000000000000000000000000000000000000000000000000000 PUSH0 MSTORE PUSH1 0x22 PUSH1 0x4 MSTORE PUSH1 0x24 PUSH0 REVERT JUMPDEST PUSH0 PUSH1 0x2 DUP3 DIV SWAP1 POP PUSH1 0x1 DUP3 AND DUP1 PUSH2 0x252 JUMPI PUSH1 0x7F DUP3 AND SWAP2 POP JUMPDEST PUSH1 0x20 DUP3 LT DUP2 SUB PUSH2 0x265 JUMPI PUSH2 0x264 PUSH2 0x20E JUMP JUMPDEST JUMPDEST POP SWAP2 SWAP1 POP JUMP JUMPDEST PUSH0 DUP2 SWAP1 POP DUP2 PUSH0 MSTORE PUSH1 0x20 PUSH0 KECCAK256 SWAP1 POP SWAP2 SWAP1 POP JUMP JUMPDEST PUSH0 PUSH1 0x20 PUSH1 0x1F DUP4 ADD DIV SWAP1 POP SWAP2 SWAP1 POP JUMP JUMPDEST PUSH0 DUP3 DUP3 SHL SWAP1 POP SWAP3 SWAP2 POP POP JUMP JUMPDEST PUSH0 PUSH1 0x8 DUP4 MUL PUSH2 0x2C7 PUSH32 0xFFFFFFFFFFFFFFFFFFFFFFFFFFFFFFFFFFFFFFFFFFFFFFFFFFFFFFFFFFFFFFFF DUP3 PUSH2 0x28C JUMP JUMPDEST PUSH2 0x2D1 DUP7 DUP4 PUSH2 0x28C JUMP JUMPDEST SWAP6 POP DUP1 NOT DUP5 AND SWAP4 POP DUP1 DUP7 AND DUP5 OR SWAP3 POP POP POP SWAP4 SWAP3 POP POP POP JUMP JUMPDEST PUSH0 DUP2 SWAP1 POP SWAP2 SWAP1 POP JUMP JUMPDEST PUSH0 DUP2 SWAP1 POP SWAP2 SWAP1 POP JUMP JUMPDEST PUSH0 PUSH2 0x315 PUSH2 0x310 PUSH2 0x30B DUP5 PUSH2 0x2E9 JUMP JUMPDEST PUSH2 0x2F2 JUMP JUMPDEST PUSH2 0x2E9 JUMP JUMPDEST SWAP1 POP SWAP2 SWAP1 POP JUMP JUMPDEST PUSH0 DUP2 SWAP1 POP SWAP2 SWAP1 POP JUMP JUMPDEST PUSH2 0x32E DUP4 PUSH2 0x2FB JUMP JUMPDEST PUSH2 0x342 PUSH2 0x33A DUP3 PUSH2 0x31C JUMP JUMPDEST DUP5 DUP5 SLOAD PUSH2 0x298 JUMP JUMPDEST DUP3 SSTORE POP POP POP POP JUMP JUMPDEST PUSH0 SWAP1 JUMP JUMPDEST PUSH2 0x356 PUSH2 0x34A JUMP JUMPDEST PUSH2 0x361 DUP2 DUP5 DUP5 PUSH2 0x325 JUMP JUMPDEST POP POP POP JUMP JUMPDEST JUMPDEST DUP2 DUP2 LT ISZERO PUSH2 0x384 JUMPI PUSH2 0x379 PUSH0 DUP3 PUSH2 0x34E JUMP JUMPDEST PUSH1 0x1 DUP2 ADD SWAP1 POP PUSH2 0x367 JUMP JUMPDEST POP POP JUMP JUMPDEST PUSH1 0x1F DUP3 GT ISZERO PUSH2 0x3C9 JUMPI PUSH2 0x39A DUP2 PUSH2 0x26B JUMP JUMPDEST PUSH2 0x3A3 DUP5 PUSH2 0x27D JUMP JUMPDEST DUP2 ADD PUSH1 0x20 DUP6 LT ISZERO PUSH2 0x3B2 JUMPI DUP2 SWAP1 POP JUMPDEST PUSH2 0x3C6 PUSH2 0x3BE DUP6 PUSH2 0x27D JUMP JUMPDEST DUP4 ADD DUP3 PUSH2 0x366 JUMP JUMPDEST POP POP JUMPDEST POP POP POP JUMP JUMPDEST PUSH0 DUP3 DUP3 SHR SWAP1 POP SWAP3 SWAP2 POP POP JUMP JUMPDEST PUSH0 PUSH2 0x3E9 PUSH0 NOT DUP5 PUSH1 0x8 MUL PUSH2 0x3CE JUMP JUMPDEST NOT DUP1 DUP4 AND SWAP2 POP POP SWAP3 SWAP2 POP POP JUMP JUMPDEST PUSH0 PUSH2 0x401 DUP4 DUP4 PUSH2 0x3DA JUMP JUMPDEST SWAP2 POP DUP3 PUSH1 0x2 MUL DUP3 OR SWAP1 POP SWAP3 SWAP2 POP POP JUMP JUMPDEST PUSH2 0x41A DUP3 PUSH2 0x1D7 JUMP JUMPDEST PUSH8 0xFFFFFFFFFFFFFFFF DUP2 GT ISZERO PUSH2 0x433 JUMPI PUSH2 0x432 PUSH2 0x1E1 JUMP JUMPDEST JUMPDEST PUSH2 0x43D DUP3 SLOAD PUSH2 0x23B JUMP JUMPDEST PUSH2 0x448 DUP3 DUP3 DUP6 PUSH2 0x388 JUMP JUMPDEST PUSH0 PUSH1 0x20 SWAP1 POP PUSH1 0x1F DUP4 GT PUSH1 0x1 DUP2 EQ PUSH2 0x479 JUMPI PUSH0 DUP5 ISZERO PUSH2 0x467 JUMPI DUP3 DUP8 ADD MLOAD SWAP1 POP JUMPDEST PUSH2 0x471 DUP6 DUP3 PUSH2 0x3F6 JUMP JUMPDEST DUP7 SSTORE POP PUSH2 0x4D8 JUMP JUMPDEST PUSH1 0x1F NOT DUP5 AND PUSH2 0x487 DUP7 PUSH2 0x26B JUMP JUMPDEST PUSH0 JUMPDEST DUP3 DUP2 LT ISZERO PUSH2 0x4AE JUMPI DUP5 DUP10 ADD MLOAD DUP3 SSTORE PUSH1 0x1 DUP3 ADD SWAP2 POP PUSH1 0x20 DUP6 ADD SWAP5 POP PUSH1 0x20 DUP2 ADD SWAP1 POP PUSH2 0x489 JUMP JUMPDEST DUP7 DUP4 LT ISZERO PUSH2 0x4CB JUMPI DUP5 DUP10 ADD MLOAD PUSH2 0x4C7 PUSH1 0x1F DUP10 AND DUP3 PUSH2 0x3DA JUMP JUMPDEST DUP4 SSTORE POP JUMPDEST PUSH1 0x1 PUSH1 0x2 DUP9 MUL ADD DUP9 SSTORE POP POP POP JUMPDEST POP POP POP POP POP POP JUMP JUMPDEST PUSH32 0x4E487B7100000000000000000000000000000000000000000000000000000000 PUSH0 MSTORE PUSH1 0x11 PUSH1 0x4 MSTORE PUSH1 0x24 PUSH0 REVERT JUMPDEST PUSH0 DUP2 PUSH1 0x1 SHR SWAP1 POP SWAP2 SWAP1 POP JUMP JUMPDEST PUSH0 DUP1 DUP3 SWAP2 POP DUP4 SWAP1 POP JUMPDEST PUSH1 0x1 DUP6 GT ISZERO PUSH2 0x562 JUMPI DUP1 DUP7 DIV DUP2 GT ISZERO PUSH2 0x53E JUMPI PUSH2 0x53D PUSH2 0x4E0 JUMP JUMPDEST JUMPDEST PUSH1 0x1 DUP6 AND ISZERO PUSH2 0x54D JUMPI DUP1 DUP3 MUL SWAP2 POP JUMPDEST DUP1 DUP2 MUL SWAP1 POP PUSH2 0x55B DUP6 PUSH2 0x50D JUMP JUMPDEST SWAP5 POP PUSH2 0x522 JUMP JUMPDEST SWAP5 POP SWAP5 SWAP3 POP POP POP JUMP JUMPDEST PUSH0 DUP3 PUSH2 0x57A JUMPI PUSH1 0x1 SWAP1 POP PUSH2 0x635 JUMP JUMPDEST DUP2 PUSH2 0x587 JUMPI PUSH0 SWAP1 POP PUSH2 0x635 JUMP JUMPDEST DUP2 PUSH1 0x1 DUP2 EQ PUSH2 0x59D JUMPI PUSH1 0x2 DUP2 EQ PUSH2 0x5A7 JUMPI PUSH2 0x5D6 JUMP JUMPDEST PUSH1 0x1 SWAP2 POP POP PUSH2 0x635 JUMP JUMPDEST PUSH1 0xFF DUP5 GT ISZERO PUSH2 0x5B9 JUMPI PUSH2 0x5B8 PUSH2 0x4E0 JUMP JUMPDEST JUMPDEST DUP4 PUSH1 0x2 EXP SWAP2 POP DUP5 DUP3 GT ISZERO PUSH2 0x5D0 JUMPI PUSH2 0x5CF PUSH2 0x4E0 JUMP JUMPDEST JUMPDEST POP PUSH2 0x635 JUMP JUMPDEST POP PUSH1 0x20 DUP4 LT PUSH2 0x133 DUP4 LT AND PUSH1 0x4E DUP5 LT PUSH1 0xB DUP5 LT AND OR ISZERO PUSH2 0x60B JUMPI DUP3 DUP3 EXP SWAP1 POP DUP4 DUP2 GT ISZERO PUSH2 0x606 JUMPI PUSH2 0x605 PUSH2 0x4E0 JUMP JUMPDEST JUMPDEST PUSH2 0x635 JUMP JUMPDEST PUSH2 0x618 DUP5 DUP5 DUP5 PUSH1 0x1 PUSH2 0x519 JUMP JUMPDEST SWAP3 POP SWAP1 POP DUP2 DUP5 DIV DUP2 GT ISZERO PUSH2 0x62F JUMPI PUSH2 0x62E PUSH2 0x4E0 JUMP JUMPDEST JUMPDEST DUP2 DUP2 MUL SWAP1 POP JUMPDEST SWAP4 SWAP3 POP POP POP JUMP JUMPDEST PUSH0 PUSH2 0x646 DUP3 PUSH2 0x2E9 JUMP JUMPDEST SWAP2 POP PUSH2 0x651 DUP4 PUSH2 0x2E9 JUMP JUMPDEST SWAP3 POP PUSH2 0x67E PUSH32 0xFFFFFFFFFFFFFFFFFFFFFFFFFFFFFFFFFFFFFFFFFFFFFFFFFFFFFFFFFFFFFFFF DUP5 DUP5 PUSH2 0x56B JUMP JUMPDEST SWAP1 POP SWAP3 SWAP2 POP POP JUMP JUMPDEST PUSH0 PUSH2 0x690 DUP3 PUSH2 0x2E9 JUMP JUMPDEST SWAP2 POP PUSH2 0x69B DUP4 PUSH2 0x2E9 JUMP JUMPDEST SWAP3 POP DUP3 DUP3 MUL PUSH2 0x6A9 DUP2 PUSH2 0x2E9 JUMP JUMPDEST SWAP2 POP DUP3 DUP3 DIV DUP5 EQ DUP4 ISZERO OR PUSH2 0x6C0 JUMPI PUSH2 0x6BF PUSH2 0x4E0 JUMP JUMPDEST JUMPDEST POP SWAP3 SWAP2 POP POP JUMP JUMPDEST PUSH2 0x6D0 DUP2 PUSH2 0x2E9 JUMP JUMPDEST DUP3 MSTORE POP POP JUMP JUMPDEST PUSH0 PUSH1 0x20 DUP3 ADD SWAP1 POP PUSH2 0x6E9 PUSH0 DUP4 ADD DUP5 PUSH2 0x6C7 JUMP JUMPDEST SWAP3 SWAP2 POP POP JUMP JUMPDEST PUSH2 0x228A DUP1 PUSH2 0x6FC PUSH0 CODECOPY PUSH0 RETURN INVALID PUSH1 0x80 PUSH1 0x40 MSTORE CALLVALUE DUP1 ISZERO PUSH2 0xF JUMPI PUSH0 DUP1 REVERT JUMPDEST POP PUSH1 0x4 CALLDATASIZE LT PUSH2 0xFE JUMPI PUSH0 CALLDATALOAD PUSH1 0xE0 SHR DUP1 PUSH4 0x5AA6E675 GT PUSH2 0x95 JUMPI DUP1 PUSH4 0xAB033EA9 GT PUSH2 0x64 JUMPI DUP1 PUSH4 0xAB033EA9 EQ PUSH2 0x2DA JUMPI DUP1 PUSH4 0xC9D27AFE EQ PUSH2 0x2F6 JUMPI DUP1 PUSH4 0xDA35C664 EQ PUSH2 0x312 JUMPI DUP1 PUSH4 0xDD62ED3E EQ PUSH2 0x330 JUMPI PUSH2 0xFE JUMP JUMPDEST DUP1 PUSH4 0x5AA6E675 EQ PUSH2 0x23E JUMPI DUP1 PUSH4 0x70A08231 EQ PUSH2 0x25C JUMPI DUP1 PUSH4 0x95D89B41 EQ PUSH2 0x28C JUMPI DUP1 PUSH4 0xA9059CBB EQ PUSH2 0x2AA JUMPI PUSH2 0xFE JUMP JUMPDEST DUP1 PUSH4 0x18160DDD GT PUSH2 0xD1 JUMPI DUP1 PUSH4 0x18160DDD EQ PUSH2 0x1A2 JUMPI DUP1 PUSH4 0x23B872DD EQ PUSH2 0x1C0 JUMPI DUP1 PUSH4 0x313CE567 EQ PUSH2 0x1F0 JUMPI DUP1 PUSH4 0x49C2A1A6 EQ PUSH2 0x20E JUMPI PUSH2 0xFE JUMP JUMPDEST DUP1 PUSH4 0x13CF08B EQ PUSH2 0x102 JUMPI DUP1 PUSH4 0x6FDDE03 EQ PUSH2 0x138 JUMPI DUP1 PUSH4 0x95EA7B3 EQ PUSH2 0x156 JUMPI DUP1 PUSH4 0xD61B519 EQ PUSH2 0x186 JUMPI JUMPDEST PUSH0 DUP1 REVERT JUMPDEST PUSH2 0x11C PUSH1 0x4 DUP1 CALLDATASIZE SUB DUP2 ADD SWAP1 PUSH2 0x117 SWAP2 SWAP1 PUSH2 0x12E4 JUMP JUMPDEST PUSH2 0x360 JUMP JUMPDEST PUSH1 0x40 MLOAD PUSH2 0x12F SWAP8 SWAP7 SWAP6 SWAP5 SWAP4 SWAP3 SWAP2 SWAP1 PUSH2 0x13E7 JUMP JUMPDEST PUSH1 0x40 MLOAD DUP1 SWAP2 SUB SWAP1 RETURN JUMPDEST PUSH2 0x140 PUSH2 0x45C JUMP JUMPDEST PUSH1 0x40 MLOAD PUSH2 0x14D SWAP2 SWAP1 PUSH2 0x145B JUMP JUMPDEST PUSH1 0x40 MLOAD DUP1 SWAP2 SUB SWAP1 RETURN JUMPDEST PUSH2 0x170 PUSH1 0x4 DUP1 CALLDATASIZE SUB DUP2 ADD SWAP1 PUSH2 0x16B SWAP2 SWAP1 PUSH2 0x14A5 JUMP JUMPDEST PUSH2 0x4E7 JUMP JUMPDEST PUSH1 0x40 MLOAD PUSH2 0x17D SWAP2 SWAP1 PUSH2 0x14E3 JUMP JUMPDEST PUSH1 0x40 MLOAD DUP1 SWAP2 SUB SWAP1 RETURN JUMPDEST PUSH2 0x1A0 PUSH1 0x4 DUP1 CALLDATASIZE SUB DUP2 ADD SWAP1 PUSH2 0x19B SWAP2 SWAP1 PUSH2 0x12E4 JUMP JUMPDEST PUSH2 0x5D4 JUMP JUMPDEST STOP JUMPDEST PUSH2 0x1AA PUSH2 0x784 JUMP JUMPDEST PUSH1 0x40 MLOAD PUSH2 0x1B7 SWAP2 SWAP1 PUSH2 0x14FC JUMP JUMPDEST PUSH1 0x40 MLOAD DUP1 SWAP2 SUB SWAP1 RETURN JUMPDEST PUSH2 0x1DA PUSH1 0x4 DUP1 CALLDATASIZE SUB DUP2 ADD SWAP1 PUSH2 0x1D5 SWAP2 SWAP1 PUSH2 0x1515 JUMP JUMPDEST PUSH2 0x78A JUMP JUMPDEST PUSH1 0x40 MLOAD PUSH2 0x1E7 SWAP2 SWAP1 PUSH2 0x14E3 JUMP JUMPDEST PUSH1 0x40 MLOAD DUP1 SWAP2 SUB SWAP1 RETURN JUMPDEST PUSH2 0x1F8 PUSH2 0xAD8 JUMP JUMPDEST PUSH1 0x40 MLOAD PUSH2 0x205 SWAP2 SWAP1 PUSH2 0x1580 JUMP JUMPDEST PUSH1 0x40 MLOAD DUP1 SWAP2 SUB SWAP1 RETURN JUMPDEST PUSH2 0x228 PUSH1 0x4 DUP1 CALLDATASIZE SUB DUP2 ADD SWAP1 PUSH2 0x223 SWAP2 SWAP1 PUSH2 0x16C5 JUMP JUMPDEST PUSH2 0xAEA JUMP JUMPDEST PUSH1 0x40 MLOAD PUSH2 0x235 SWAP2 SWAP1 PUSH2 0x14FC JUMP JUMPDEST PUSH1 0x40 MLOAD DUP1 SWAP2 SUB SWAP1 RETURN JUMPDEST PUSH2 0x246 PUSH2 0xC8D JUMP JUMPDEST PUSH1 0x40 MLOAD PUSH2 0x253 SWAP2 SWAP1 PUSH2 0x170C JUMP JUMPDEST PUSH1 0x40 MLOAD DUP1 SWAP2 SUB SWAP1 RETURN JUMPDEST PUSH2 0x276 PUSH1 0x4 DUP1 CALLDATASIZE SUB DUP2 ADD SWAP1 PUSH2 0x271 SWAP2 SWAP1 PUSH2 0x1725 JUMP JUMPDEST PUSH2 0xCB2 JUMP JUMPDEST PUSH1 0x40 MLOAD PUSH2 0x283 SWAP2 SWAP1 PUSH2 0x14FC JUMP JUMPDEST PUSH1 0x40 MLOAD DUP1 SWAP2 SUB SWAP1 RETURN JUMPDEST PUSH2 0x294 PUSH2 0xCC7 JUMP JUMPDEST PUSH1 0x40 MLOAD PUSH2 0x2A1 SWAP2 SWAP1 PUSH2 0x145B JUMP JUMPDEST PUSH1 0x40 MLOAD DUP1 SWAP2 SUB SWAP1 RETURN JUMPDEST PUSH2 0x2C4 PUSH1 0x4 DUP1 CALLDATASIZE SUB DUP2 ADD SWAP1 PUSH2 0x2BF SWAP2 SWAP1 PUSH2 0x14A5 JUMP JUMPDEST PUSH2 0xD53 JUMP JUMPDEST PUSH1 0x40 MLOAD PUSH2 0x2D1 SWAP2 SWAP1 PUSH2 0x14E3 JUMP JUMPDEST PUSH1 0x40 MLOAD DUP1 SWAP2 SUB SWAP1 RETURN JUMPDEST PUSH2 0x2F4 PUSH1 0x4 DUP1 CALLDATASIZE SUB DUP2 ADD SWAP1 PUSH2 0x2EF SWAP2 SWAP1 PUSH2 0x1725 JUMP JUMPDEST PUSH2 0xF57 JUMP JUMPDEST STOP JUMPDEST PUSH2 0x310 PUSH1 0x4 DUP1 CALLDATASIZE SUB DUP2 ADD SWAP1 PUSH2 0x30B SWAP2 SWAP1 PUSH2 0x177A JUMP JUMPDEST PUSH2 0x1029 JUMP JUMPDEST STOP JUMPDEST PUSH2 0x31A PUSH2 0x127A JUMP JUMPDEST PUSH1 0x40 MLOAD PUSH2 0x327 SWAP2 SWAP1 PUSH2 0x14FC JUMP JUMPDEST PUSH1 0x40 MLOAD DUP1 SWAP2 SUB SWAP1 RETURN JUMPDEST PUSH2 0x34A PUSH1 0x4 DUP1 CALLDATASIZE SUB DUP2 ADD SWAP1 PUSH2 0x345 SWAP2 SWAP1 PUSH2 0x17B8 JUMP JUMPDEST PUSH2 0x1280 JUMP JUMPDEST PUSH1 0x40 MLOAD PUSH2 0x357 SWAP2 SWAP1 PUSH2 0x14FC JUMP JUMPDEST PUSH1 0x40 MLOAD DUP1 SWAP2 SUB SWAP1 RETURN JUMPDEST PUSH1 0x8 PUSH1 0x20 MSTORE DUP1 PUSH0 MSTORE PUSH1 0x40 PUSH0 KECCAK256 PUSH0 SWAP2 POP SWAP1 POP DUP1 PUSH0 ADD PUSH0 SWAP1 SLOAD SWAP1 PUSH2 0x100 EXP SWAP1 DIV PUSH20 0xFFFFFFFFFFFFFFFFFFFFFFFFFFFFFFFFFFFFFFFF AND SWAP1 DUP1 PUSH1 0x1 ADD DUP1 SLOAD PUSH2 0x3A4 SWAP1 PUSH2 0x1823 JUMP JUMPDEST DUP1 PUSH1 0x1F ADD PUSH1 0x20 DUP1 SWAP2 DIV MUL PUSH1 0x20 ADD PUSH1 0x40 MLOAD SWAP1 DUP2 ADD PUSH1 0x40 MSTORE DUP1 SWAP3 SWAP2 SWAP1 DUP2 DUP2 MSTORE PUSH1 0x20 ADD DUP3 DUP1 SLOAD PUSH2 0x3D0 SWAP1 PUSH2 0x1823 JUMP JUMPDEST DUP1 ISZERO PUSH2 0x41B JUMPI DUP1 PUSH1 0x1F LT PUSH2 0x3F2 JUMPI PUSH2 0x100 DUP1 DUP4 SLOAD DIV MUL DUP4 MSTORE SWAP2 PUSH1 0x20 ADD SWAP2 PUSH2 0x41B JUMP JUMPDEST DUP3 ADD SWAP2 SWAP1 PUSH0 MSTORE PUSH1 0x20 PUSH0 KECCAK256 SWAP1 JUMPDEST DUP2 SLOAD DUP2 MSTORE SWAP1 PUSH1 0x1 ADD SWAP1 PUSH1 0x20 ADD DUP1 DUP4 GT PUSH2 0x3FE JUMPI DUP3 SWAP1 SUB PUSH1 0x1F AND DUP3 ADD SWAP2 JUMPDEST POP POP POP POP POP SWAP1 DUP1 PUSH1 0x2 ADD SLOAD SWAP1 DUP1 PUSH1 0x3 ADD SLOAD SWAP1 DUP1 PUSH1 0x4 ADD PUSH0 SWAP1 SLOAD SWAP1 PUSH2 0x100 EXP SWAP1 DIV PUSH1 0xFF AND SWAP1 DUP1 PUSH1 0x4 ADD PUSH1 0x1 SWAP1 SLOAD SWAP1 PUSH2 0x100 EXP SWAP1 DIV PUSH1 0xFF AND SWAP1 DUP1 PUSH1 0x5 ADD SLOAD SWAP1 POP DUP8 JUMP JUMPDEST PUSH0 DUP1 SLOAD PUSH2 0x468 SWAP1 PUSH2 0x1823 JUMP JUMPDEST DUP1 PUSH1 0x1F ADD PUSH1 0x20 DUP1 SWAP2 DIV MUL PUSH1 0x20 ADD PUSH1 0x40 MLOAD SWAP1 DUP2 ADD PUSH1 0x40 MSTORE DUP1 SWAP3 SWAP2 SWAP1 DUP2 DUP2 MSTORE PUSH1 0x20 ADD DUP3 DUP1 SLOAD PUSH2 0x494 SWAP1 PUSH2 0x1823 JUMP JUMPDEST DUP1 ISZERO PUSH2 0x4DF JUMPI DUP1 PUSH1 0x1F LT PUSH2 0x4B6 JUMPI PUSH2 0x100 DUP1 DUP4 SLOAD DIV MUL DUP4 MSTORE SWAP2 PUSH1 0x20 ADD SWAP2 PUSH2 0x4DF JUMP JUMPDEST DUP3 ADD SWAP2 SWAP1 PUSH0 MSTORE PUSH1 0x20 PUSH0 KECCAK256 SWAP1 JUMPDEST DUP2 SLOAD DUP2 MSTORE SWAP1 PUSH1 0x1 ADD SWAP1 PUSH1 0x20 ADD DUP1 DUP4 GT PUSH2 0x4C2 JUMPI DUP3 SWAP1 SUB PUSH1 0x1F AND DUP3 ADD SWAP2 JUMPDEST POP POP POP POP POP DUP2 JUMP JUMPDEST PUSH0 DUP2 PUSH1 0x5 PUSH0 CALLER PUSH20 0xFFFFFFFFFFFFFFFFFFFFFFFFFFFFFFFFFFFFFFFF AND PUSH20 0xFFFFFFFFFFFFFFFFFFFFFFFFFFFFFFFFFFFFFFFF AND DUP2 MSTORE PUSH1 0x20 ADD SWAP1 DUP2 MSTORE PUSH1 0x20 ADD PUSH0 KECCAK256 PUSH0 DUP6 PUSH20 0xFFFFFFFFFFFFFFFFFFFFFFFFFFFFFFFFFFFFFFFF AND PUSH20 0xFFFFFFFFFFFFFFFFFFFFFFFFFFFFFFFFFFFFFFFF AND DUP2 MSTORE PUSH1 0x20 ADD SWAP1 DUP2 MSTORE PUSH1 0x20 ADD PUSH0 KECCAK256 DUP2 SWAP1 SSTORE POP DUP3 PUSH20 0xFFFFFFFFFFFFFFFFFFFFFFFFFFFFFFFFFFFFFFFF AND CALLER PUSH20 0xFFFFFFFFFFFFFFFFFFFFFFFFFFFFFFFFFFFFFFFF AND PUSH32 0x8C5BE1E5EBEC7D5BD14F71427D1E84F3DD0314C0F7B2291E5B200AC8C7C3B925 DUP5 PUSH1 0x40 MLOAD PUSH2 0x5C2 SWAP2 SWAP1 PUSH2 0x14FC JUMP JUMPDEST PUSH1 0x40 MLOAD DUP1 SWAP2 SUB SWAP1 LOG3 PUSH1 0x1 SWAP1 POP SWAP3 SWAP2 POP POP JUMP JUMPDEST PUSH0 PUSH1 0x8 PUSH0 DUP4 DUP2 MSTORE PUSH1 0x20 ADD SWAP1 DUP2 MSTORE PUSH1 0x20 ADD PUSH0 KECCAK256 SWAP1 POP DUP1 PUSH1 0x4 ADD PUSH1 0x1 SWAP1 SLOAD SWAP1 PUSH2 0x100 EXP SWAP1 DIV PUSH1 0xFF AND PUSH2 0x639 JUMPI PUSH1 0x40 MLOAD PUSH32 0x8C379A000000000000000000000000000000000000000000000000000000000 DUP2 MSTORE PUSH1 0x4 ADD PUSH2 0x630 SWAP1 PUSH2 0x189D JUMP JUMPDEST PUSH1 0x40 MLOAD DUP1 SWAP2 SUB SWAP1 REVERT JUMPDEST DUP1 PUSH1 0x5 ADD SLOAD TIMESTAMP LT ISZERO PUSH2 0x680 JUMPI PUSH1 0x40 MLOAD PUSH32 0x8C379A000000000000000000000000000000000000000000000000000000000 DUP2 MSTORE PUSH1 0x4 ADD PUSH2 0x677 SWAP1 PUSH2 0x1905 JUMP JUMPDEST PUSH1 0x40 MLOAD DUP1 SWAP2 SUB SWAP1 REVERT JUMPDEST DUP1 PUSH1 0x4 ADD PUSH0 SWAP1 SLOAD SWAP1 PUSH2 0x100 EXP SWAP1 DIV PUSH1 0xFF AND ISZERO PUSH2 0x6D1 JUMPI PUSH1 0x40 MLOAD PUSH32 0x8C379A000000000000000000000000000000000000000000000000000000000 DUP2 MSTORE PUSH1 0x4 ADD PUSH2 0x6C8 SWAP1 PUSH2 0x196D JUMP JUMPDEST PUSH1 0x40 MLOAD DUP1 SWAP2 SUB SWAP1 REVERT JUMPDEST DUP1 PUSH1 0x3 ADD SLOAD DUP2 PUSH1 0x2 ADD SLOAD GT PUSH2 0x71B JUMPI PUSH1 0x40 MLOAD PUSH32 0x8C379A000000000000000000000000000000000000000000000000000000000 DUP2 MSTORE PUSH1 0x4 ADD PUSH2 0x712 SWAP1 PUSH2 0x19D5 JUMP JUMPDEST PUSH1 0x40 MLOAD DUP1 SWAP2 SUB SWAP1 REVERT JUMPDEST PUSH1 0x1 DUP2 PUSH1 0x4 ADD PUSH0 PUSH2 0x100 EXP DUP2 SLOAD DUP2 PUSH1 0xFF MUL NOT AND SWAP1 DUP4 ISZERO ISZERO MUL OR SWAP1 SSTORE POP PUSH0 DUP2 PUSH1 0x4 ADD PUSH1 0x1 PUSH2 0x100 EXP DUP2 SLOAD DUP2 PUSH1 0xFF MUL NOT AND SWAP1 DUP4 ISZERO ISZERO MUL OR SWAP1 SSTORE POP DUP2 PUSH32 0x712AE1383F79AC853F8D882153778E0260EF8F03B504E2866E0593E04D2B291F PUSH1 0x40 MLOAD PUSH1 0x40 MLOAD DUP1 SWAP2 SUB SWAP1 LOG2 POP POP JUMP JUMPDEST PUSH1 0x3 SLOAD DUP2 JUMP JUMPDEST PUSH0 DUP1 PUSH20 0xFFFFFFFFFFFFFFFFFFFFFFFFFFFFFFFFFFFFFFFF AND DUP4 PUSH20 0xFFFFFFFFFFFFFFFFFFFFFFFFFFFFFFFFFFFFFFFF AND SUB PUSH2 0x7F9 JUMPI PUSH1 0x40 MLOAD PUSH32 0x8C379A000000000000000000000000000000000000000000000000000000000 DUP2 MSTORE PUSH1 0x4 ADD PUSH2 0x7F0 SWAP1 PUSH2 0x1A3D JUMP JUMPDEST PUSH1 0x40 MLOAD DUP1 SWAP2 SUB SWAP1 REVERT JUMPDEST DUP2 PUSH1 0x4 PUSH0 DUP7 PUSH20 0xFFFFFFFFFFFFFFFFFFFFFFFFFFFFFFFFFFFFFFFF AND PUSH20 0xFFFFFFFFFFFFFFFFFFFFFFFFFFFFFFFFFFFFFFFF AND DUP2 MSTORE PUSH1 0x20 ADD SWAP1 DUP2 MSTORE PUSH1 0x20 ADD PUSH0 KECCAK256 SLOAD LT ISZERO PUSH2 0x879 JUMPI PUSH1 0x40 MLOAD PUSH32 0x8C379A000000000000000000000000000000000000000000000000000000000 DUP2 MSTORE PUSH1 0x4 ADD PUSH2 0x870 SWAP1 PUSH2 0x1AA5 JUMP JUMPDEST PUSH1 0x40 MLOAD DUP1 SWAP2 SUB SWAP1 REVERT JUMPDEST DUP2 PUSH1 0x5 PUSH0 DUP7 PUSH20 0xFFFFFFFFFFFFFFFFFFFFFFFFFFFFFFFFFFFFFFFF AND PUSH20 0xFFFFFFFFFFFFFFFFFFFFFFFFFFFFFFFFFFFFFFFF AND DUP2 MSTORE PUSH1 0x20 ADD SWAP1 DUP2 MSTORE PUSH1 0x20 ADD PUSH0 KECCAK256 PUSH0 CALLER PUSH20 0xFFFFFFFFFFFFFFFFFFFFFFFFFFFFFFFFFFFFFFFF AND PUSH20 0xFFFFFFFFFFFFFFFFFFFFFFFFFFFFFFFFFFFFFFFF AND DUP2 MSTORE PUSH1 0x20 ADD SWAP1 DUP2 MSTORE PUSH1 0x20 ADD PUSH0 KECCAK256 SLOAD LT ISZERO PUSH2 0x934 JUMPI PUSH1 0x40 MLOAD PUSH32 0x8C379A000000000000000000000000000000000000000000000000000000000 DUP2 MSTORE PUSH1 0x4 ADD PUSH2 0x92B SWAP1 PUSH2 0x1B0D JUMP JUMPDEST PUSH1 0x40 MLOAD DUP1 SWAP2 SUB SWAP1 REVERT JUMPDEST DUP2 PUSH1 0x4 PUSH0 DUP7 PUSH20 0xFFFFFFFFFFFFFFFFFFFFFFFFFFFFFFFFFFFFFFFF AND PUSH20 0xFFFFFFFFFFFFFFFFFFFFFFFFFFFFFFFFFFFFFFFF AND DUP2 MSTORE PUSH1 0x20 ADD SWAP1 DUP2 MSTORE PUSH1 0x20 ADD PUSH0 KECCAK256 PUSH0 DUP3 DUP3 SLOAD PUSH2 0x980 SWAP2 SWAP1 PUSH2 0x1B58 JUMP JUMPDEST SWAP3 POP POP DUP2 SWAP1 SSTORE POP DUP2 PUSH1 0x4 PUSH0 DUP6 PUSH20 0xFFFFFFFFFFFFFFFFFFFFFFFFFFFFFFFFFFFFFFFF AND PUSH20 0xFFFFFFFFFFFFFFFFFFFFFFFFFFFFFFFFFFFFFFFF AND DUP2 MSTORE PUSH1 0x20 ADD SWAP1 DUP2 MSTORE PUSH1 0x20 ADD PUSH0 KECCAK256 PUSH0 DUP3 DUP3 SLOAD PUSH2 0x9D3 SWAP2 SWAP1 PUSH2 0x1B8B JUMP JUMPDEST SWAP3 POP POP DUP2 SWAP1 SSTORE POP DUP2 PUSH1 0x5 PUSH0 DUP7 PUSH20 0xFFFFFFFFFFFFFFFFFFFFFFFFFFFFFFFFFFFFFFFF AND PUSH20 0xFFFFFFFFFFFFFFFFFFFFFFFFFFFFFFFFFFFFFFFF AND DUP2 MSTORE PUSH1 0x20 ADD SWAP1 DUP2 MSTORE PUSH1 0x20 ADD PUSH0 KECCAK256 PUSH0 CALLER PUSH20 0xFFFFFFFFFFFFFFFFFFFFFFFFFFFFFFFFFFFFFFFF AND PUSH20 0xFFFFFFFFFFFFFFFFFFFFFFFFFFFFFFFFFFFFFFFF AND DUP2 MSTORE PUSH1 0x20 ADD SWAP1 DUP2 MSTORE PUSH1 0x20 ADD PUSH0 KECCAK256 PUSH0 DUP3 DUP3 SLOAD PUSH2 0xA61 SWAP2 SWAP1 PUSH2 0x1B58 JUMP JUMPDEST SWAP3 POP POP DUP2 SWAP1 SSTORE POP DUP3 PUSH20 0xFFFFFFFFFFFFFFFFFFFFFFFFFFFFFFFFFFFFFFFF AND DUP5 PUSH20 0xFFFFFFFFFFFFFFFFFFFFFFFFFFFFFFFFFFFFFFFF AND PUSH32 0xDDF252AD1BE2C89B69C2B068FC378DAA952BA7F163C4A11628F55A4DF523B3EF DUP5 PUSH1 0x40 MLOAD PUSH2 0xAC5 SWAP2 SWAP1 PUSH2 0x14FC JUMP JUMPDEST PUSH1 0x40 MLOAD DUP1 SWAP2 SUB SWAP1 LOG3 PUSH1 0x1 SWAP1 POP SWAP4 SWAP3 POP POP POP JUMP JUMPDEST PUSH1 0x2 PUSH0 SWAP1 SLOAD SWAP1 PUSH2 0x100 EXP SWAP1 DIV PUSH1 0xFF AND DUP2 JUMP JUMPDEST PUSH0 PUSH1 0x2 PUSH0 SWAP1 SLOAD SWAP1 PUSH2 0x100 EXP SWAP1 DIV PUSH1 0xFF AND PUSH1 0xFF AND PUSH1 0xA PUSH2 0xB09 SWAP2 SWAP1 PUSH2 0x1CED JUMP JUMPDEST PUSH2 0x3E8 PUSH2 0xB16 SWAP2 SWAP1 PUSH2 0x1D37 JUMP JUMPDEST PUSH1 0x4 PUSH0 CALLER PUSH20 0xFFFFFFFFFFFFFFFFFFFFFFFFFFFFFFFFFFFFFFFF AND PUSH20 0xFFFFFFFFFFFFFFFFFFFFFFFFFFFFFFFFFFFFFFFF AND DUP2 MSTORE PUSH1 0x20 ADD SWAP1 DUP2 MSTORE PUSH1 0x20 ADD PUSH0 KECCAK256 SLOAD LT ISZERO PUSH2 0xB95 JUMPI PUSH1 0x40 MLOAD PUSH32 0x8C379A000000000000000000000000000000000000000000000000000000000 DUP2 MSTORE PUSH1 0x4 ADD PUSH2 0xB8C SWAP1 PUSH2 0x1DE8 JUMP JUMPDEST PUSH1 0x40 MLOAD DUP1 SWAP2 SUB SWAP1 REVERT JUMPDEST PUSH0 PUSH1 0x7 PUSH0 DUP2 SLOAD DUP1 SWAP3 SWAP2 SWAP1 PUSH2 0xBA8 SWAP1 PUSH2 0x1E06 JUMP JUMPDEST SWAP2 SWAP1 POP SSTORE SWAP1 POP PUSH0 PUSH1 0x8 PUSH0 DUP4 DUP2 MSTORE PUSH1 0x20 ADD SWAP1 DUP2 MSTORE PUSH1 0x20 ADD PUSH0 KECCAK256 SWAP1 POP CALLER DUP2 PUSH0 ADD PUSH0 PUSH2 0x100 EXP DUP2 SLOAD DUP2 PUSH20 0xFFFFFFFFFFFFFFFFFFFFFFFFFFFFFFFFFFFFFFFF MUL NOT AND SWAP1 DUP4 PUSH20 0xFFFFFFFFFFFFFFFFFFFFFFFFFFFFFFFFFFFFFFFF AND MUL OR SWAP1 SSTORE POP DUP4 DUP2 PUSH1 0x1 ADD SWAP1 DUP2 PUSH2 0xC14 SWAP2 SWAP1 PUSH2 0x1FEA JUMP JUMPDEST POP PUSH1 0x1 DUP2 PUSH1 0x4 ADD PUSH1 0x1 PUSH2 0x100 EXP DUP2 SLOAD DUP2 PUSH1 0xFF MUL NOT AND SWAP1 DUP4 ISZERO ISZERO MUL OR SWAP1 SSTORE POP PUSH3 0x93A80 TIMESTAMP PUSH2 0xC41 SWAP2 SWAP1 PUSH2 0x1B8B JUMP JUMPDEST DUP2 PUSH1 0x5 ADD DUP2 SWAP1 SSTORE POP DUP2 PUSH32 0x7585F467599D0F008985F231AF99293BE388626AC16CA59505C2F8F88969CD63 CALLER DUP7 PUSH1 0x40 MLOAD PUSH2 0xC7B SWAP3 SWAP2 SWAP1 PUSH2 0x20B9 JUMP JUMPDEST PUSH1 0x40 MLOAD DUP1 SWAP2 SUB SWAP1 LOG2 DUP2 SWAP3 POP POP POP SWAP2 SWAP1 POP JUMP JUMPDEST PUSH1 0x6 PUSH0 SWAP1 SLOAD SWAP1 PUSH2 0x100 EXP SWAP1 DIV PUSH20 0xFFFFFFFFFFFFFFFFFFFFFFFFFFFFFFFFFFFFFFFF AND DUP2 JUMP JUMPDEST PUSH1 0x4 PUSH1 0x20 MSTORE DUP1 PUSH0 MSTORE PUSH1 0x40 PUSH0 KECCAK256 PUSH0 SWAP2 POP SWAP1 POP SLOAD DUP2 JUMP JUMPDEST PUSH1 0x1 DUP1 SLOAD PUSH2 0xCD4 SWAP1 PUSH2 0x1823 JUMP JUMPDEST DUP1 PUSH1 0x1F ADD PUSH1 0x20 DUP1 SWAP2 DIV MUL PUSH1 0x20 ADD PUSH1 0x40 MLOAD SWAP1 DUP2 ADD PUSH1 0x40 MSTORE DUP1 SWAP3 SWAP2 SWAP1 DUP2 DUP2 MSTORE PUSH1 0x20 ADD DUP3 DUP1 SLOAD PUSH2 0xD00 SWAP1 PUSH2 0x1823 JUMP JUMPDEST DUP1 ISZERO PUSH2 0xD4B JUMPI DUP1 PUSH1 0x1F LT PUSH2 0xD22 JUMPI PUSH2 0x100 DUP1 DUP4 SLOAD DIV MUL DUP4 MSTORE SWAP2 PUSH1 0x20 ADD SWAP2 PUSH2 0xD4B JUMP JUMPDEST DUP3 ADD SWAP2 SWAP1 PUSH0 MSTORE PUSH1 0x20 PUSH0 KECCAK256 SWAP1 JUMPDEST DUP2 SLOAD DUP2 MSTORE SWAP1 PUSH1 0x1 ADD SWAP1 PUSH1 0x20 ADD DUP1 DUP4 GT PUSH2 0xD2E JUMPI DUP3 SWAP1 SUB PUSH1 0x1F AND DUP3 ADD SWAP2 JUMPDEST POP POP POP POP POP DUP2 JUMP JUMPDEST PUSH0 DUP1 PUSH20 0xFFFFFFFFFFFFFFFFFFFFFFFFFFFFFFFFFFFFFFFF AND DUP4 PUSH20 0xFFFFFFFFFFFFFFFFFFFFFFFFFFFFFFFFFFFFFFFF AND SUB PUSH2 0xDC2 JUMPI PUSH1 0x40 MLOAD PUSH32 0x8C379A000000000000000000000000000000000000000000000000000000000 DUP2 MSTORE PUSH1 0x4 ADD PUSH2 0xDB9 SWAP1 PUSH2 0x1A3D JUMP JUMPDEST PUSH1 0x40 MLOAD DUP1 SWAP2 SUB SWAP1 REVERT JUMPDEST DUP2 PUSH1 0x4 PUSH0 CALLER PUSH20 0xFFFFFFFFFFFFFFFFFFFFFFFFFFFFFFFFFFFFFFFF AND PUSH20 0xFFFFFFFFFFFFFFFFFFFFFFFFFFFFFFFFFFFFFFFF AND DUP2 MSTORE PUSH1 0x20 ADD SWAP1 DUP2 MSTORE PUSH1 0x20 ADD PUSH0 KECCAK256 SLOAD LT ISZERO PUSH2 0xE42 JUMPI PUSH1 0x40 MLOAD PUSH32 0x8C379A000000000000000000000000000000000000000000000000000000000 DUP2 MSTORE PUSH1 0x4 ADD PUSH2 0xE39 SWAP1 PUSH2 0x1AA5 JUMP JUMPDEST PUSH1 0x40 MLOAD DUP1 SWAP2 SUB SWAP1 REVERT JUMPDEST DUP2 PUSH1 0x4 PUSH0 CALLER PUSH20 0xFFFFFFFFFFFFFFFFFFFFFFFFFFFFFFFFFFFFFFFF AND PUSH20 0xFFFFFFFFFFFFFFFFFFFFFFFFFFFFFFFFFFFFFFFF AND DUP2 MSTORE PUSH1 0x20 ADD SWAP1 DUP2 MSTORE PUSH1 0x20 ADD PUSH0 KECCAK256 PUSH0 DUP3 DUP3 SLOAD PUSH2 0xE8E SWAP2 SWAP1 PUSH2 0x1B58 JUMP JUMPDEST SWAP3 POP POP DUP2 SWAP1 SSTORE POP DUP2 PUSH1 0x4 PUSH0 DUP6 PUSH20 0xFFFFFFFFFFFFFFFFFFFFFFFFFFFFFFFFFFFFFFFF AND PUSH20 0xFFFFFFFFFFFFFFFFFFFFFFFFFFFFFFFFFFFFFFFF AND DUP2 MSTORE PUSH1 0x20 ADD SWAP1 DUP2 MSTORE PUSH1 0x20 ADD PUSH0 KECCAK256 PUSH0 DUP3 DUP3 SLOAD PUSH2 0xEE1 SWAP2 SWAP1 PUSH2 0x1B8B JUMP JUMPDEST SWAP3 POP POP DUP2 SWAP1 SSTORE POP DUP3 PUSH20 0xFFFFFFFFFFFFFFFFFFFFFFFFFFFFFFFFFFFFFFFF AND CALLER PUSH20 0xFFFFFFFFFFFFFFFFFFFFFFFFFFFFFFFFFFFFFFFF AND PUSH32 0xDDF252AD1BE2C89B69C2B068FC378DAA952BA7F163C4A11628F55A4DF523B3EF DUP5 PUSH1 0x40 MLOAD PUSH2 0xF45 SWAP2 SWAP1 PUSH2 0x14FC JUMP JUMPDEST PUSH1 0x40 MLOAD DUP1 SWAP2 SUB SWAP1 LOG3 PUSH1 0x1 SWAP1 POP SWAP3 SWAP2 POP POP JUMP JUMPDEST PUSH1 0x6 PUSH0 SWAP1 SLOAD SWAP1 PUSH2 0x100 EXP SWAP1 DIV PUSH20 0xFFFFFFFFFFFFFFFFFFFFFFFFFFFFFFFFFFFFFFFF AND PUSH20 0xFFFFFFFFFFFFFFFFFFFFFFFFFFFFFFFFFFFFFFFF AND CALLER PUSH20 0xFFFFFFFFFFFFFFFFFFFFFFFFFFFFFFFFFFFFFFFF AND EQ PUSH2 0xFE6 JUMPI PUSH1 0x40 MLOAD PUSH32 0x8C379A000000000000000000000000000000000000000000000000000000000 DUP2 MSTORE PUSH1 0x4 ADD PUSH2 0xFDD SWAP1 PUSH2 0x2131 JUMP JUMPDEST PUSH1 0x40 MLOAD DUP1 SWAP2 SUB SWAP1 REVERT JUMPDEST DUP1 PUSH1 0x6 PUSH0 PUSH2 0x100 EXP DUP2 SLOAD DUP2 PUSH20 0xFFFFFFFFFFFFFFFFFFFFFFFFFFFFFFFFFFFFFFFF MUL NOT AND SWAP1 DUP4 PUSH20 0xFFFFFFFFFFFFFFFFFFFFFFFFFFFFFFFFFFFFFFFF AND MUL OR SWAP1 SSTORE POP POP JUMP JUMPDEST PUSH0 PUSH1 0x8 PUSH0 DUP5 DUP2 MSTORE PUSH1 0x20 ADD SWAP1 DUP2 MSTORE PUSH1 0x20 ADD PUSH0 KECCAK256 SWAP1 POP DUP1 PUSH1 0x4 ADD PUSH1 0x1 SWAP1 SLOAD SWAP1 PUSH2 0x100 EXP SWAP1 DIV PUSH1 0xFF AND PUSH2 0x108E JUMPI PUSH1 0x40 MLOAD PUSH32 0x8C379A000000000000000000000000000000000000000000000000000000000 DUP2 MSTORE PUSH1 0x4 ADD PUSH2 0x1085 SWAP1 PUSH2 0x189D JUMP JUMPDEST PUSH1 0x40 MLOAD DUP1 SWAP2 SUB SWAP1 REVERT JUMPDEST DUP1 PUSH1 0x5 ADD SLOAD TIMESTAMP LT PUSH2 0x10D4 JUMPI PUSH1 0x40 MLOAD PUSH32 0x8C379A000000000000000000000000000000000000000000000000000000000 DUP2 MSTORE PUSH1 0x4 ADD PUSH2 0x10CB SWAP1 PUSH2 0x2199 JUMP JUMPDEST PUSH1 0x40 MLOAD DUP1 SWAP2 SUB SWAP1 REVERT JUMPDEST DUP1 PUSH1 0x6 ADD PUSH0 CALLER PUSH20 0xFFFFFFFFFFFFFFFFFFFFFFFFFFFFFFFFFFFFFFFF AND PUSH20 0xFFFFFFFFFFFFFFFFFFFFFFFFFFFFFFFFFFFFFFFF AND DUP2 MSTORE PUSH1 0x20 ADD SWAP1 DUP2 MSTORE PUSH1 0x20 ADD PUSH0 KECCAK256 PUSH0 SWAP1 SLOAD SWAP1 PUSH2 0x100 EXP SWAP1 DIV PUSH1 0xFF AND ISZERO PUSH2 0x1160 JUMPI PUSH1 0x40 MLOAD PUSH32 0x8C379A000000000000000000000000000000000000000000000000000000000 DUP2 MSTORE PUSH1 0x4 ADD PUSH2 0x1157 SWAP1 PUSH2 0x2201 JUMP JUMPDEST PUSH1 0x40 MLOAD DUP1 SWAP2 SUB SWAP1 REVERT JUMPDEST PUSH1 0x1 DUP2 PUSH1 0x6 ADD PUSH0 CALLER PUSH20 0xFFFFFFFFFFFFFFFFFFFFFFFFFFFFFFFFFFFFFFFF AND PUSH20 0xFFFFFFFFFFFFFFFFFFFFFFFFFFFFFFFFFFFFFFFF AND DUP2 MSTORE PUSH1 0x20 ADD SWAP1 DUP2 MSTORE PUSH1 0x20 ADD PUSH0 KECCAK256 PUSH0 PUSH2 0x100 EXP DUP2 SLOAD DUP2 PUSH1 0xFF MUL NOT AND SWAP1 DUP4 ISZERO ISZERO MUL OR SWAP1 SSTORE POP PUSH0 PUSH1 0x4 PUSH0 CALLER PUSH20 0xFFFFFFFFFFFFFFFFFFFFFFFFFFFFFFFFFFFFFFFF AND PUSH20 0xFFFFFFFFFFFFFFFFFFFFFFFFFFFFFFFFFFFFFFFF AND DUP2 MSTORE PUSH1 0x20 ADD SWAP1 DUP2 MSTORE PUSH1 0x20 ADD PUSH0 KECCAK256 SLOAD SWAP1 POP DUP3 ISZERO PUSH2 0x121D JUMPI DUP1 DUP3 PUSH1 0x2 ADD PUSH0 DUP3 DUP3 SLOAD PUSH2 0x1211 SWAP2 SWAP1 PUSH2 0x1B8B JUMP JUMPDEST SWAP3 POP POP DUP2 SWAP1 SSTORE POP PUSH2 0x1238 JUMP JUMPDEST DUP1 DUP3 PUSH1 0x3 ADD PUSH0 DUP3 DUP3 SLOAD PUSH2 0x1230 SWAP2 SWAP1 PUSH2 0x1B8B JUMP JUMPDEST SWAP3 POP POP DUP2 SWAP1 SSTORE POP JUMPDEST DUP4 PUSH32 0x7C2DE587C00D75474A0C6C6FA96FD3B45DC974CD4E8A75F712BB84C950DCE1B5 CALLER DUP6 DUP5 PUSH1 0x40 MLOAD PUSH2 0x126C SWAP4 SWAP3 SWAP2 SWAP1 PUSH2 0x221F JUMP JUMPDEST PUSH1 0x40 MLOAD DUP1 SWAP2 SUB SWAP1 LOG2 POP POP POP POP JUMP JUMPDEST PUSH1 0x7 SLOAD DUP2 JUMP JUMPDEST PUSH1 0x5 PUSH1 0x20 MSTORE DUP2 PUSH0 MSTORE PUSH1 0x40 PUSH0 KECCAK256 PUSH1 0x20 MSTORE DUP1 PUSH0 MSTORE PUSH1 0x40 PUSH0 KECCAK256 PUSH0 SWAP2 POP SWAP2 POP POP SLOAD DUP2 JUMP JUMPDEST PUSH0 PUSH1 0x40 MLOAD SWAP1 POP SWAP1 JUMP JUMPDEST PUSH0 DUP1 REVERT JUMPDEST PUSH0 DUP1 REVERT JUMPDEST PUSH0 DUP2 SWAP1 POP SWAP2 SWAP1 POP JUMP JUMPDEST PUSH2 0x12C3 DUP2 PUSH2 0x12B1 JUMP JUMPDEST DUP2 EQ PUSH2 0x12CD JUMPI PUSH0 DUP1 REVERT JUMPDEST POP JUMP JUMPDEST PUSH0 DUP2 CALLDATALOAD SWAP1 POP PUSH2 0x12DE DUP2 PUSH2 0x12BA JUMP JUMPDEST SWAP3 SWAP2 POP POP JUMP JUMPDEST PUSH0 PUSH1 0x20 DUP3 DUP5 SUB SLT ISZERO PUSH2 0x12F9 JUMPI PUSH2 0x12F8 PUSH2 0x12A9 JUMP JUMPDEST JUMPDEST PUSH0 PUSH2 0x1306 DUP5 DUP3 DUP6 ADD PUSH2 0x12D0 JUMP JUMPDEST SWAP2 POP POP SWAP3 SWAP2 POP POP JUMP JUMPDEST PUSH0 PUSH20 0xFFFFFFFFFFFFFFFFFFFFFFFFFFFFFFFFFFFFFFFF DUP3 AND SWAP1 POP SWAP2 SWAP1 POP JUMP JUMPDEST PUSH0 PUSH2 0x1338 DUP3 PUSH2 0x130F JUMP JUMPDEST SWAP1 POP SWAP2 SWAP1 POP JUMP JUMPDEST PUSH2 0x1348 DUP2 PUSH2 0x132E JUMP JUMPDEST DUP3 MSTORE POP POP JUMP JUMPDEST PUSH0 DUP2 MLOAD SWAP1 POP SWAP2 SWAP1 POP JUMP JUMPDEST PUSH0 DUP3 DUP3 MSTORE PUSH1 0x20 DUP3 ADD SWAP1 POP SWAP3 SWAP2 POP POP JUMP JUMPDEST DUP3 DUP2 DUP4 MCOPY PUSH0 DUP4 DUP4 ADD MSTORE POP POP POP JUMP JUMPDEST PUSH0 PUSH1 0x1F NOT PUSH1 0x1F DUP4 ADD AND SWAP1 POP SWAP2 SWAP1 POP JUMP JUMPDEST PUSH0 PUSH2 0x1390 DUP3 PUSH2 0x134E JUMP JUMPDEST PUSH2 0x139A DUP2 DUP6 PUSH2 0x1358 JUMP JUMPDEST SWAP4 POP PUSH2 0x13AA DUP2 DUP6 PUSH1 0x20 DUP7 ADD PUSH2 0x1368 JUMP JUMPDEST PUSH2 0x13B3 DUP2 PUSH2 0x1376 JUMP JUMPDEST DUP5 ADD SWAP2 POP POP SWAP3 SWAP2 POP POP JUMP JUMPDEST PUSH2 0x13C7 DUP2 PUSH2 0x12B1 JUMP JUMPDEST DUP3 MSTORE POP POP JUMP JUMPDEST PUSH0 DUP2 ISZERO ISZERO SWAP1 POP SWAP2 SWAP1 POP JUMP JUMPDEST PUSH2 0x13E1 DUP2 PUSH2 0x13CD JUMP JUMPDEST DUP3 MSTORE POP POP JUMP JUMPDEST PUSH0 PUSH1 0xE0 DUP3 ADD SWAP1 POP PUSH2 0x13FA PUSH0 DUP4 ADD DUP11 PUSH2 0x133F JUMP JUMPDEST DUP2 DUP2 SUB PUSH1 0x20 DUP4 ADD MSTORE PUSH2 0x140C DUP2 DUP10 PUSH2 0x1386 JUMP JUMPDEST SWAP1 POP PUSH2 0x141B PUSH1 0x40 DUP4 ADD DUP9 PUSH2 0x13BE JUMP JUMPDEST PUSH2 0x1428 PUSH1 0x60 DUP4 ADD DUP8 PUSH2 0x13BE JUMP JUMPDEST PUSH2 0x1435 PUSH1 0x80 DUP4 ADD DUP7 PUSH2 0x13D8 JUMP JUMPDEST PUSH2 0x1442 PUSH1 0xA0 DUP4 ADD DUP6 PUSH2 0x13D8 JUMP JUMPDEST PUSH2 0x144F PUSH1 0xC0 DUP4 ADD DUP5 PUSH2 0x13BE JUMP JUMPDEST SWAP9 SWAP8 POP POP POP POP POP POP POP POP JUMP JUMPDEST PUSH0 PUSH1 0x20 DUP3 ADD SWAP1 POP DUP2 DUP2 SUB PUSH0 DUP4 ADD MSTORE PUSH2 0x1473 DUP2 DUP5 PUSH2 0x1386 JUMP JUMPDEST SWAP1 POP SWAP3 SWAP2 POP POP JUMP JUMPDEST PUSH2 0x1484 DUP2 PUSH2 0x132E JUMP JUMPDEST DUP2 EQ PUSH2 0x148E JUMPI PUSH0 DUP1 REVERT JUMPDEST POP JUMP JUMPDEST PUSH0 DUP2 CALLDATALOAD SWAP1 POP PUSH2 0x149F DUP2 PUSH2 0x147B JUMP JUMPDEST SWAP3 SWAP2 POP POP JUMP JUMPDEST PUSH0 DUP1 PUSH1 0x40 DUP4 DUP6 SUB SLT ISZERO PUSH2 0x14BB JUMPI PUSH2 0x14BA PUSH2 0x12A9 JUMP JUMPDEST JUMPDEST PUSH0 PUSH2 0x14C8 DUP6 DUP3 DUP7 ADD PUSH2 0x1491 JUMP JUMPDEST SWAP3 POP POP PUSH1 0x20 PUSH2 0x14D9 DUP6 DUP3 DUP7 ADD PUSH2 0x12D0 JUMP JUMPDEST SWAP2 POP POP SWAP3 POP SWAP3 SWAP1 POP JUMP JUMPDEST PUSH0 PUSH1 0x20 DUP3 ADD SWAP1 POP PUSH2 0x14F6 PUSH0 DUP4 ADD DUP5 PUSH2 0x13D8 JUMP JUMPDEST SWAP3 SWAP2 POP POP JUMP JUMPDEST PUSH0 PUSH1 0x20 DUP3 ADD SWAP1 POP PUSH2 0x150F PUSH0 DUP4 ADD DUP5 PUSH2 0x13BE JUMP JUMPDEST SWAP3 SWAP2 POP POP JUMP JUMPDEST PUSH0 DUP1 PUSH0 PUSH1 0x60 DUP5 DUP7 SUB SLT ISZERO PUSH2 0x152C JUMPI PUSH2 0x152B PUSH2 0x12A9 JUMP JUMPDEST JUMPDEST PUSH0 PUSH2 0x1539 DUP7 DUP3 DUP8 ADD PUSH2 0x1491 JUMP JUMPDEST SWAP4 POP POP PUSH1 0x20 PUSH2 0x154A DUP7 DUP3 DUP8 ADD PUSH2 0x1491 JUMP JUMPDEST SWAP3 POP POP PUSH1 0x40 PUSH2 0x155B DUP7 DUP3 DUP8 ADD PUSH2 0x12D0 JUMP JUMPDEST SWAP2 POP POP SWAP3 POP SWAP3 POP SWAP3 JUMP JUMPDEST PUSH0 PUSH1 0xFF DUP3 AND SWAP1 POP SWAP2 SWAP1 POP JUMP JUMPDEST PUSH2 0x157A DUP2 PUSH2 0x1565 JUMP JUMPDEST DUP3 MSTORE POP POP JUMP JUMPDEST PUSH0 PUSH1 0x20 DUP3 ADD SWAP1 POP PUSH2 0x1593 PUSH0 DUP4 ADD DUP5 PUSH2 0x1571 JUMP JUMPDEST SWAP3 SWAP2 POP POP JUMP JUMPDEST PUSH0 DUP1 REVERT JUMPDEST PUSH0 DUP1 REVERT JUMPDEST PUSH32 0x4E487B7100000000000000000000000000000000000000000000000000000000 PUSH0 MSTORE PUSH1 0x41 PUSH1 0x4 MSTORE PUSH1 0x24 PUSH0 REVERT JUMPDEST PUSH2 0x15D7 DUP3 PUSH2 0x1376 JUMP JUMPDEST DUP2 ADD DUP2 DUP2 LT PUSH8 0xFFFFFFFFFFFFFFFF DUP3 GT OR ISZERO PUSH2 0x15F6 JUMPI PUSH2 0x15F5 PUSH2 0x15A1 JUMP JUMPDEST JUMPDEST DUP1 PUSH1 0x40 MSTORE POP POP POP JUMP JUMPDEST PUSH0 PUSH2 0x1608 PUSH2 0x12A0 JUMP JUMPDEST SWAP1 POP PUSH2 0x1614 DUP3 DUP3 PUSH2 0x15CE JUMP JUMPDEST SWAP2 SWAP1 POP JUMP JUMPDEST PUSH0 PUSH8 0xFFFFFFFFFFFFFFFF DUP3 GT ISZERO PUSH2 0x1633 JUMPI PUSH2 0x1632 PUSH2 0x15A1 JUMP JUMPDEST JUMPDEST PUSH2 0x163C DUP3 PUSH2 0x1376 JUMP JUMPDEST SWAP1 POP PUSH1 0x20 DUP2 ADD SWAP1 POP SWAP2 SWAP1 POP JUMP JUMPDEST DUP3 DUP2 DUP4 CALLDATACOPY PUSH0 DUP4 DUP4 ADD MSTORE POP POP POP JUMP JUMPDEST PUSH0 PUSH2 0x1669 PUSH2 0x1664 DUP5 PUSH2 0x1619 JUMP JUMPDEST PUSH2 0x15FF JUMP JUMPDEST SWAP1 POP DUP3 DUP2 MSTORE PUSH1 0x20 DUP2 ADD DUP5 DUP5 DUP5 ADD GT ISZERO PUSH2 0x1685 JUMPI PUSH2 0x1684 PUSH2 0x159D JUMP JUMPDEST JUMPDEST PUSH2 0x1690 DUP5 DUP3 DUP6 PUSH2 0x1649 JUMP JUMPDEST POP SWAP4 SWAP3 POP POP POP JUMP JUMPDEST PUSH0 DUP3 PUSH1 0x1F DUP4 ADD SLT PUSH2 0x16AC JUMPI PUSH2 0x16AB PUSH2 0x1599 JUMP JUMPDEST JUMPDEST DUP2 CALLDATALOAD PUSH2 0x16BC DUP5 DUP3 PUSH1 0x20 DUP7 ADD PUSH2 0x1657 JUMP JUMPDEST SWAP2 POP POP SWAP3 SWAP2 POP POP JUMP JUMPDEST PUSH0 PUSH1 0x20 DUP3 DUP5 SUB SLT ISZERO PUSH2 0x16DA JUMPI PUSH2 0x16D9 PUSH2 0x12A9 JUMP JUMPDEST JUMPDEST PUSH0 DUP3 ADD CALLDATALOAD PUSH8 0xFFFFFFFFFFFFFFFF DUP2 GT ISZERO PUSH2 0x16F7 JUMPI PUSH2 0x16F6 PUSH2 0x12AD JUMP JUMPDEST JUMPDEST PUSH2 0x1703 DUP5 DUP3 DUP6 ADD PUSH2 0x1698 JUMP JUMPDEST SWAP2 POP POP SWAP3 SWAP2 POP POP JUMP JUMPDEST PUSH0 PUSH1 0x20 DUP3 ADD SWAP1 POP PUSH2 0x171F PUSH0 DUP4 ADD DUP5 PUSH2 0x133F JUMP JUMPDEST SWAP3 SWAP2 POP POP JUMP JUMPDEST PUSH0 PUSH1 0x20 DUP3 DUP5 SUB SLT ISZERO PUSH2 0x173A JUMPI PUSH2 0x1739 PUSH2 0x12A9 JUMP JUMPDEST JUMPDEST PUSH0 PUSH2 0x1747 DUP5 DUP3 DUP6 ADD PUSH2 0x1491 JUMP JUMPDEST SWAP2 POP POP SWAP3 SWAP2 POP POP JUMP JUMPDEST PUSH2 0x1759 DUP2 PUSH2 0x13CD JUMP JUMPDEST DUP2 EQ PUSH2 0x1763 JUMPI PUSH0 DUP1 REVERT JUMPDEST POP JUMP JUMPDEST PUSH0 DUP2 CALLDATALOAD SWAP1 POP PUSH2 0x1774 DUP2 PUSH2 0x1750 JUMP JUMPDEST SWAP3 SWAP2 POP POP JUMP JUMPDEST PUSH0 DUP1 PUSH1 0x40 DUP4 DUP6 SUB SLT ISZERO PUSH2 0x1790 JUMPI PUSH2 0x178F PUSH2 0x12A9 JUMP JUMPDEST JUMPDEST PUSH0 PUSH2 0x179D DUP6 DUP3 DUP7 ADD PUSH2 0x12D0 JUMP JUMPDEST SWAP3 POP POP PUSH1 0x20 PUSH2 0x17AE DUP6 DUP3 DUP7 ADD PUSH2 0x1766 JUMP JUMPDEST SWAP2 POP POP SWAP3 POP SWAP3 SWAP1 POP JUMP JUMPDEST PUSH0 DUP1 PUSH1 0x40 DUP4 DUP6 SUB SLT ISZERO PUSH2 0x17CE JUMPI PUSH2 0x17CD PUSH2 0x12A9 JUMP JUMPDEST JUMPDEST PUSH0 PUSH2 0x17DB DUP6 DUP3 DUP7 ADD PUSH2 0x1491 JUMP JUMPDEST SWAP3 POP POP PUSH1 0x20 PUSH2 0x17EC DUP6 DUP3 DUP7 ADD PUSH2 0x1491 JUMP JUMPDEST SWAP2 POP POP SWAP3 POP SWAP3 SWAP1 POP JUMP JUMPDEST PUSH32 0x4E487B7100000000000000000000000000000000000000000000000000000000 PUSH0 MSTORE PUSH1 0x22 PUSH1 0x4 MSTORE PUSH1 0x24 PUSH0 REVERT JUMPDEST PUSH0 PUSH1 0x2 DUP3 DIV SWAP1 POP PUSH1 0x1 DUP3 AND DUP1 PUSH2 0x183A JUMPI PUSH1 0x7F DUP3 AND SWAP2 POP JUMPDEST PUSH1 0x20 DUP3 LT DUP2 SUB PUSH2 0x184D JUMPI PUSH2 0x184C PUSH2 0x17F6 JUMP JUMPDEST JUMPDEST POP SWAP2 SWAP1 POP JUMP JUMPDEST PUSH32 0x50726F706F73616C206E6F742061637469766500000000000000000000000000 PUSH0 DUP3 ADD MSTORE POP JUMP JUMPDEST PUSH0 PUSH2 0x1887 PUSH1 0x13 DUP4 PUSH2 0x1358 JUMP JUMPDEST SWAP2 POP PUSH2 0x1892 DUP3 PUSH2 0x1853 JUMP JUMPDEST PUSH1 0x20 DUP3 ADD SWAP1 POP SWAP2 SWAP1 POP JUMP JUMPDEST PUSH0 PUSH1 0x20 DUP3 ADD SWAP1 POP DUP2 DUP2 SUB PUSH0 DUP4 ADD MSTORE PUSH2 0x18B4 DUP2 PUSH2 0x187B JUMP JUMPDEST SWAP1 POP SWAP2 SWAP1 POP JUMP JUMPDEST PUSH32 0x566F74696E6720706572696F64206E6F7420656E646564000000000000000000 PUSH0 DUP3 ADD MSTORE POP JUMP JUMPDEST PUSH0 PUSH2 0x18EF PUSH1 0x17 DUP4 PUSH2 0x1358 JUMP JUMPDEST SWAP2 POP PUSH2 0x18FA DUP3 PUSH2 0x18BB JUMP JUMPDEST PUSH1 0x20 DUP3 ADD SWAP1 POP SWAP2 SWAP1 POP JUMP JUMPDEST PUSH0 PUSH1 0x20 DUP3 ADD SWAP1 POP DUP2 DUP2 SUB PUSH0 DUP4 ADD MSTORE PUSH2 0x191C DUP2 PUSH2 0x18E3 JUMP JUMPDEST SWAP1 POP SWAP2 SWAP1 POP JUMP JUMPDEST PUSH32 0x50726F706F73616C20616C726561647920657865637574656400000000000000 PUSH0 DUP3 ADD MSTORE POP JUMP JUMPDEST PUSH0 PUSH2 0x1957 PUSH1 0x19 DUP4 PUSH2 0x1358 JUMP JUMPDEST SWAP2 POP PUSH2 0x1962 DUP3 PUSH2 0x1923 JUMP JUMPDEST PUSH1 0x20 DUP3 ADD SWAP1 POP SWAP2 SWAP1 POP JUMP JUMPDEST PUSH0 PUSH1 0x20 DUP3 ADD SWAP1 POP DUP2 DUP2 SUB PUSH0 DUP4 ADD MSTORE PUSH2 0x1984 DUP2 PUSH2 0x194B JUMP JUMPDEST SWAP1 POP SWAP2 SWAP1 POP JUMP JUMPDEST PUSH32 0x50726F706F73616C20646964206E6F7420706173730000000000000000000000 PUSH0 DUP3 ADD MSTORE POP JUMP JUMPDEST PUSH0 PUSH2 0x19BF PUSH1 0x15 DUP4 PUSH2 0x1358 JUMP JUMPDEST SWAP2 POP PUSH2 0x19CA DUP3 PUSH2 0x198B JUMP JUMPDEST PUSH1 0x20 DUP3 ADD SWAP1 POP SWAP2 SWAP1 POP JUMP JUMPDEST PUSH0 PUSH1 0x20 DUP3 ADD SWAP1 POP DUP2 DUP2 SUB PUSH0 DUP4 ADD MSTORE PUSH2 0x19EC DUP2 PUSH2 0x19B3 JUMP JUMPDEST SWAP1 POP SWAP2 SWAP1 POP JUMP JUMPDEST PUSH32 0x5472616E7366657220746F207A65726F20616464726573730000000000000000 PUSH0 DUP3 ADD MSTORE POP JUMP JUMPDEST PUSH0 PUSH2 0x1A27 PUSH1 0x18 DUP4 PUSH2 0x1358 JUMP JUMPDEST SWAP2 POP PUSH2 0x1A32 DUP3 PUSH2 0x19F3 JUMP JUMPDEST PUSH1 0x20 DUP3 ADD SWAP1 POP SWAP2 SWAP1 POP JUMP JUMPDEST PUSH0 PUSH1 0x20 DUP3 ADD SWAP1 POP DUP2 DUP2 SUB PUSH0 DUP4 ADD MSTORE PUSH2 0x1A54 DUP2 PUSH2 0x1A1B JUMP JUMPDEST SWAP1 POP SWAP2 SWAP1 POP JUMP JUMPDEST PUSH32 0x496E73756666696369656E742062616C616E6365000000000000000000000000 PUSH0 DUP3 ADD MSTORE POP JUMP JUMPDEST PUSH0 PUSH2 0x1A8F PUSH1 0x14 DUP4 PUSH2 0x1358 JUMP JUMPDEST SWAP2 POP PUSH2 0x1A9A DUP3 PUSH2 0x1A5B JUMP JUMPDEST PUSH1 0x20 DUP3 ADD SWAP1 POP SWAP2 SWAP1 POP JUMP JUMPDEST PUSH0 PUSH1 0x20 DUP3 ADD SWAP1 POP DUP2 DUP2 SUB PUSH0 DUP4 ADD MSTORE PUSH2 0x1ABC DUP2 PUSH2 0x1A83 JUMP JUMPDEST SWAP1 POP SWAP2 SWAP1 POP JUMP JUMPDEST PUSH32 0x496E73756666696369656E7420616C6C6F77616E636500000000000000000000 PUSH0 DUP3 ADD MSTORE POP JUMP JUMPDEST PUSH0 PUSH2 0x1AF7 PUSH1 0x16 DUP4 PUSH2 0x1358 JUMP JUMPDEST SWAP2 POP PUSH2 0x1B02 DUP3 PUSH2 0x1AC3 JUMP JUMPDEST PUSH1 0x20 DUP3 ADD SWAP1 POP SWAP2 SWAP1 POP JUMP JUMPDEST PUSH0 PUSH1 0x20 DUP3 ADD SWAP1 POP DUP2 DUP2 SUB PUSH0 DUP4 ADD MSTORE PUSH2 0x1B24 DUP2 PUSH2 0x1AEB JUMP JUMPDEST SWAP1 POP SWAP2 SWAP1 POP JUMP JUMPDEST PUSH32 0x4E487B7100000000000000000000000000000000000000000000000000000000 PUSH0 MSTORE PUSH1 0x11 PUSH1 0x4 MSTORE PUSH1 0x24 PUSH0 REVERT JUMPDEST PUSH0 PUSH2 0x1B62 DUP3 PUSH2 0x12B1 JUMP JUMPDEST SWAP2 POP PUSH2 0x1B6D DUP4 PUSH2 0x12B1 JUMP JUMPDEST SWAP3 POP DUP3 DUP3 SUB SWAP1 POP DUP2 DUP2 GT ISZERO PUSH2 0x1B85 JUMPI PUSH2 0x1B84 PUSH2 0x1B2B JUMP JUMPDEST JUMPDEST SWAP3 SWAP2 POP POP JUMP JUMPDEST PUSH0 PUSH2 0x1B95 DUP3 PUSH2 0x12B1 JUMP JUMPDEST SWAP2 POP PUSH2 0x1BA0 DUP4 PUSH2 0x12B1 JUMP JUMPDEST SWAP3 POP DUP3 DUP3 ADD SWAP1 POP DUP1 DUP3 GT ISZERO PUSH2 0x1BB8 JUMPI PUSH2 0x1BB7 PUSH2 0x1B2B JUMP JUMPDEST JUMPDEST SWAP3 SWAP2 POP POP JUMP JUMPDEST PUSH0 DUP2 PUSH1 0x1 SHR SWAP1 POP SWAP2 SWAP1 POP JUMP JUMPDEST PUSH0 DUP1 DUP3 SWAP2 POP DUP4 SWAP1 POP JUMPDEST PUSH1 0x1 DUP6 GT ISZERO PUSH2 0x1C13 JUMPI DUP1 DUP7 DIV DUP2 GT ISZERO PUSH2 0x1BEF JUMPI PUSH2 0x1BEE PUSH2 0x1B2B JUMP JUMPDEST JUMPDEST PUSH1 0x1 DUP6 AND ISZERO PUSH2 0x1BFE JUMPI DUP1 DUP3 MUL SWAP2 POP JUMPDEST DUP1 DUP2 MUL SWAP1 POP PUSH2 0x1C0C DUP6 PUSH2 0x1BBE JUMP JUMPDEST SWAP5 POP PUSH2 0x1BD3 JUMP JUMPDEST SWAP5 POP SWAP5 SWAP3 POP POP POP JUMP JUMPDEST PUSH0 DUP3 PUSH2 0x1C2B JUMPI PUSH1 0x1 SWAP1 POP PUSH2 0x1CE6 JUMP JUMPDEST DUP2 PUSH2 0x1C38 JUMPI PUSH0 SWAP1 POP PUSH2 0x1CE6 JUMP JUMPDEST DUP2 PUSH1 0x1 DUP2 EQ PUSH2 0x1C4E JUMPI PUSH1 0x2 DUP2 EQ PUSH2 0x1C58 JUMPI PUSH2 0x1C87 JUMP JUMPDEST PUSH1 0x1 SWAP2 POP POP PUSH2 0x1CE6 JUMP JUMPDEST PUSH1 0xFF DUP5 GT ISZERO PUSH2 0x1C6A JUMPI PUSH2 0x1C69 PUSH2 0x1B2B JUMP JUMPDEST JUMPDEST DUP4 PUSH1 0x2 EXP SWAP2 POP DUP5 DUP3 GT ISZERO PUSH2 0x1C81 JUMPI PUSH2 0x1C80 PUSH2 0x1B2B JUMP JUMPDEST JUMPDEST POP PUSH2 0x1CE6 JUMP JUMPDEST POP PUSH1 0x20 DUP4 LT PUSH2 0x133 DUP4 LT AND PUSH1 0x4E DUP5 LT PUSH1 0xB DUP5 LT AND OR ISZERO PUSH2 0x1CBC JUMPI DUP3 DUP3 EXP SWAP1 POP DUP4 DUP2 GT ISZERO PUSH2 0x1CB7 JUMPI PUSH2 0x1CB6 PUSH2 0x1B2B JUMP JUMPDEST JUMPDEST PUSH2 0x1CE6 JUMP JUMPDEST PUSH2 0x1CC9 DUP5 DUP5 DUP5 PUSH1 0x1 PUSH2 0x1BCA JUMP JUMPDEST SWAP3 POP SWAP1 POP DUP2 DUP5 DIV DUP2 GT ISZERO PUSH2 0x1CE0 JUMPI PUSH2 0x1CDF PUSH2 0x1B2B JUMP JUMPDEST JUMPDEST DUP2 DUP2 MUL SWAP1 POP JUMPDEST SWAP4 SWAP3 POP POP POP JUMP JUMPDEST PUSH0 PUSH2 0x1CF7 DUP3 PUSH2 0x12B1 JUMP JUMPDEST SWAP2 POP PUSH2 0x1D02 DUP4 PUSH2 0x12B1 JUMP JUMPDEST SWAP3 POP PUSH2 0x1D2F PUSH32 0xFFFFFFFFFFFFFFFFFFFFFFFFFFFFFFFFFFFFFFFFFFFFFFFFFFFFFFFFFFFFFFFF DUP5 DUP5 PUSH2 0x1C1C JUMP JUMPDEST SWAP1 POP SWAP3 SWAP2 POP POP JUMP JUMPDEST PUSH0 PUSH2 0x1D41 DUP3 PUSH2 0x12B1 JUMP JUMPDEST SWAP2 POP PUSH2 0x1D4C DUP4 PUSH2 0x12B1 JUMP JUMPDEST SWAP3 POP DUP3 DUP3 MUL PUSH2 0x1D5A DUP2 PUSH2 0x12B1 JUMP JUMPDEST SWAP2 POP DUP3 DUP3 DIV DUP5 EQ DUP4 ISZERO OR PUSH2 0x1D71 JUMPI PUSH2 0x1D70 PUSH2 0x1B2B JUMP JUMPDEST JUMPDEST POP SWAP3 SWAP2 POP POP JUMP JUMPDEST PUSH32 0x4E656564203130303020746F6B656E7320746F206372656174652070726F706F PUSH0 DUP3 ADD MSTORE PUSH32 0x73616C0000000000000000000000000000000000000000000000000000000000 PUSH1 0x20 DUP3 ADD MSTORE POP JUMP JUMPDEST PUSH0 PUSH2 0x1DD2 PUSH1 0x23 DUP4 PUSH2 0x1358 JUMP JUMPDEST SWAP2 POP PUSH2 0x1DDD DUP3 PUSH2 0x1D78 JUMP JUMPDEST PUSH1 0x40 DUP3 ADD SWAP1 POP SWAP2 SWAP1 POP JUMP JUMPDEST PUSH0 PUSH1 0x20 DUP3 ADD SWAP1 POP DUP2 DUP2 SUB PUSH0 DUP4 ADD MSTORE PUSH2 0x1DFF DUP2 PUSH2 0x1DC6 JUMP JUMPDEST SWAP1 POP SWAP2 SWAP1 POP JUMP JUMPDEST PUSH0 PUSH2 0x1E10 DUP3 PUSH2 0x12B1 JUMP JUMPDEST SWAP2 POP PUSH32 0xFFFFFFFFFFFFFFFFFFFFFFFFFFFFFFFFFFFFFFFFFFFFFFFFFFFFFFFFFFFFFFFF DUP3 SUB PUSH2 0x1E42 JUMPI PUSH2 0x1E41 PUSH2 0x1B2B JUMP JUMPDEST JUMPDEST PUSH1 0x1 DUP3 ADD SWAP1 POP SWAP2 SWAP1 POP JUMP JUMPDEST PUSH0 DUP2 SWAP1 POP DUP2 PUSH0 MSTORE PUSH1 0x20 PUSH0 KECCAK256 SWAP1 POP SWAP2 SWAP1 POP JUMP JUMPDEST PUSH0 PUSH1 0x20 PUSH1 0x1F DUP4 ADD DIV SWAP1 POP SWAP2 SWAP1 POP JUMP JUMPDEST PUSH0 DUP3 DUP3 SHL SWAP1 POP SWAP3 SWAP2 POP POP JUMP JUMPDEST PUSH0 PUSH1 0x8 DUP4 MUL PUSH2 0x1EA9 PUSH32 0xFFFFFFFFFFFFFFFFFFFFFFFFFFFFFFFFFFFFFFFFFFFFFFFFFFFFFFFFFFFFFFFF DUP3 PUSH2 0x1E6E JUMP JUMPDEST PUSH2 0x1EB3 DUP7 DUP4 PUSH2 0x1E6E JUMP JUMPDEST SWAP6 POP DUP1 NOT DUP5 AND SWAP4 POP DUP1 DUP7 AND DUP5 OR SWAP3 POP POP POP SWAP4 SWAP3 POP POP POP JUMP JUMPDEST PUSH0 DUP2 SWAP1 POP SWAP2 SWAP1 POP JUMP JUMPDEST PUSH0 PUSH2 0x1EEE PUSH2 0x1EE9 PUSH2 0x1EE4 DUP5 PUSH2 0x12B1 JUMP JUMPDEST PUSH2 0x1ECB JUMP JUMPDEST PUSH2 0x12B1 JUMP JUMPDEST SWAP1 POP SWAP2 SWAP1 POP JUMP JUMPDEST PUSH0 DUP2 SWAP1 POP SWAP2 SWAP1 POP JUMP JUMPDEST PUSH2 0x1F07 DUP4 PUSH2 0x1ED4 JUMP JUMPDEST PUSH2 0x1F1B PUSH2 0x1F13 DUP3 PUSH2 0x1EF5 JUMP JUMPDEST DUP5 DUP5 SLOAD PUSH2 0x1E7A JUMP JUMPDEST DUP3 SSTORE POP POP POP POP JUMP JUMPDEST PUSH0 SWAP1 JUMP JUMPDEST PUSH2 0x1F2F PUSH2 0x1F23 JUMP JUMPDEST PUSH2 0x1F3A DUP2 DUP5 DUP5 PUSH2 0x1EFE JUMP JUMPDEST POP POP POP JUMP JUMPDEST JUMPDEST DUP2 DUP2 LT ISZERO PUSH2 0x1F5D JUMPI PUSH2 0x1F52 PUSH0 DUP3 PUSH2 0x1F27 JUMP JUMPDEST PUSH1 0x1 DUP2 ADD SWAP1 POP PUSH2 0x1F40 JUMP JUMPDEST POP POP JUMP JUMPDEST PUSH1 0x1F DUP3 GT ISZERO PUSH2 0x1FA2 JUMPI PUSH2 0x1F73 DUP2 PUSH2 0x1E4D JUMP JUMPDEST PUSH2 0x1F7C DUP5 PUSH2 0x1E5F JUMP JUMPDEST DUP2 ADD PUSH1 0x20 DUP6 LT ISZERO PUSH2 0x1F8B JUMPI DUP2 SWAP1 POP JUMPDEST PUSH2 0x1F9F PUSH2 0x1F97 DUP6 PUSH2 0x1E5F JUMP JUMPDEST DUP4 ADD DUP3 PUSH2 0x1F3F JUMP JUMPDEST POP POP JUMPDEST POP POP POP JUMP JUMPDEST PUSH0 DUP3 DUP3 SHR SWAP1 POP SWAP3 SWAP2 POP POP JUMP JUMPDEST PUSH0 PUSH2 0x1FC2 PUSH0 NOT DUP5 PUSH1 0x8 MUL PUSH2 0x1FA7 JUMP JUMPDEST NOT DUP1 DUP4 AND SWAP2 POP POP SWAP3 SWAP2 POP POP JUMP JUMPDEST PUSH0 PUSH2 0x1FDA DUP4 DUP4 PUSH2 0x1FB3 JUMP JUMPDEST SWAP2 POP DUP3 PUSH1 0x2 MUL DUP3 OR SWAP1 POP SWAP3 SWAP2 POP POP JUMP JUMPDEST PUSH2 0x1FF3 DUP3 PUSH2 0x134E JUMP JUMPDEST PUSH8 0xFFFFFFFFFFFFFFFF DUP2 GT ISZERO PUSH2 0x200C JUMPI PUSH2 0x200B PUSH2 0x15A1 JUMP JUMPDEST JUMPDEST PUSH2 0x2016 DUP3 SLOAD PUSH2 0x1823 JUMP JUMPDEST PUSH2 0x2021 DUP3 DUP3 DUP6 PUSH2 0x1F61 JUMP JUMPDEST PUSH0 PUSH1 0x20 SWAP1 POP PUSH1 0x1F DUP4 GT PUSH1 0x1 DUP2 EQ PUSH2 0x2052 JUMPI PUSH0 DUP5 ISZERO PUSH2 0x2040 JUMPI DUP3 DUP8 ADD MLOAD SWAP1 POP JUMPDEST PUSH2 0x204A DUP6 DUP3 PUSH2 0x1FCF JUMP JUMPDEST DUP7 SSTORE POP PUSH2 0x20B1 JUMP JUMPDEST PUSH1 0x1F NOT DUP5 AND PUSH2 0x2060 DUP7 PUSH2 0x1E4D JUMP JUMPDEST PUSH0 JUMPDEST DUP3 DUP2 LT ISZERO PUSH2 0x2087 JUMPI DUP5 DUP10 ADD MLOAD DUP3 SSTORE PUSH1 0x1 DUP3 ADD SWAP2 POP PUSH1 0x20 DUP6 ADD SWAP5 POP PUSH1 0x20 DUP2 ADD SWAP1 POP PUSH2 0x2062 JUMP JUMPDEST DUP7 DUP4 LT ISZERO PUSH2 0x20A4 JUMPI DUP5 DUP10 ADD MLOAD PUSH2 0x20A0 PUSH1 0x1F DUP10 AND DUP3 PUSH2 0x1FB3 JUMP JUMPDEST DUP4 SSTORE POP JUMPDEST PUSH1 0x1 PUSH1 0x2 DUP9 MUL ADD DUP9 SSTORE POP POP POP JUMPDEST POP POP POP POP POP POP JUMP JUMPDEST PUSH0 PUSH1 0x40 DUP3 ADD SWAP1 POP PUSH2 0x20CC PUSH0 DUP4 ADD DUP6 PUSH2 0x133F JUMP JUMPDEST DUP2 DUP2 SUB PUSH1 0x20 DUP4 ADD MSTORE PUSH2 0x20DE DUP2 DUP5 PUSH2 0x1386 JUMP JUMPDEST SWAP1 POP SWAP4 SWAP3 POP POP POP JUMP JUMPDEST PUSH32 0x4F6E6C7920676F7665726E616E63650000000000000000000000000000000000 PUSH0 DUP3 ADD MSTORE POP JUMP JUMPDEST PUSH0 PUSH2 0x211B PUSH1 0xF DUP4 PUSH2 0x1358 JUMP JUMPDEST SWAP2 POP PUSH2 0x2126 DUP3 PUSH2 0x20E7 JUMP JUMPDEST PUSH1 0x20 DUP3 ADD SWAP1 POP SWAP2 SWAP1 POP JUMP JUMPDEST PUSH0 PUSH1 0x20 DUP3 ADD SWAP1 POP DUP2 DUP2 SUB PUSH0 DUP4 ADD MSTORE PUSH2 0x2148 DUP2 PUSH2 0x210F JUMP JUMPDEST SWAP1 POP SWAP2 SWAP1 POP JUMP JUMPDEST PUSH32 0x566F74696E6720706572696F6420656E64656400000000000000000000000000 PUSH0 DUP3 ADD MSTORE POP JUMP JUMPDEST PUSH0 PUSH2 0x2183 PUSH1 0x13 DUP4 PUSH2 0x1358 JUMP JUMPDEST SWAP2 POP PUSH2 0x218E DUP3 PUSH2 0x214F JUMP JUMPDEST PUSH1 0x20 DUP3 ADD SWAP1 POP SWAP2 SWAP1 POP JUMP JUMPDEST PUSH0 PUSH1 0x20 DUP3 ADD SWAP1 POP DUP2 DUP2 SUB PUSH0 DUP4 ADD MSTORE PUSH2 0x21B0 DUP2 PUSH2 0x2177 JUMP JUMPDEST SWAP1 POP SWAP2 SWAP1 POP JUMP JUMPDEST PUSH32 0x416C726561647920766F74656400000000000000000000000000000000000000 PUSH0 DUP3 ADD MSTORE POP JUMP JUMPDEST PUSH0 PUSH2 0x21EB PUSH1 0xD DUP4 PUSH2 0x1358 JUMP JUMPDEST SWAP2 POP PUSH2 0x21F6 DUP3 PUSH2 0x21B7 JUMP JUMPDEST PUSH1 0x20 DUP3 ADD SWAP1 POP SWAP2 SWAP1 POP JUMP JUMPDEST PUSH0 PUSH1 0x20 DUP3 ADD SWAP1 POP DUP2 DUP2 SUB PUSH0 DUP4 ADD MSTORE PUSH2 0x2218 DUP2 PUSH2 0x21DF JUMP JUMPDEST SWAP1 POP SWAP2 SWAP1 POP JUMP JUMPDEST PUSH0 PUSH1 0x60 DUP3 ADD SWAP1 POP PUSH2 0x2232 PUSH0 DUP4 ADD DUP7 PUSH2 0x133F JUMP JUMPDEST PUSH2 0x223F PUSH1 0x20 DUP4 ADD DUP6 PUSH2 0x13D8 JUMP JUMPDEST PUSH2 0x224C PUSH1 0x40 DUP4 ADD DUP5 PUSH2 0x13BE JUMP JUMPDEST SWAP5 SWAP4 POP POP POP POP JUMP INVALID LOG2 PUSH5 0x6970667358 0x22 SLT KECCAK256 PUSH22 0x1758DFF6ADD12B3D87B701F3DE3352EA487CF385F46A 0xD2 0xF RETURN REVERT 0xD3 PUSH13 0x17679664736F6C634300081A00 CALLER "
				},
				"gasEstimates": {
					"creation": {
						"codeDepositCost": "1768400",
						"executionCost": "infinite",
						"totalCost": "infinite"
					},
					"external": {
						"allowance(address,address)": "infinite",
						"approve(address,uint256)": "infinite",
						"balanceOf(address)": "2847",
						"createProposal(string)": "infinite",
						"decimals()": "2533",
						"executeProposal(uint256)": "61064",
						"governance()": "2531",
						"name()": "infinite",
						"proposalCount()": "2491",
						"proposals(uint256)": "infinite",
						"setGovernance(address)": "26906",
						"symbol()": "infinite",
						"totalSupply()": "2448",
						"transfer(address,uint256)": "infinite",
						"transferFrom(address,address,uint256)": "infinite",
						"vote(uint256,bool)": "infinite"
					}
				},
				"methodIdentifiers": {
					"allowance(address,address)": "dd62ed3e",
					"approve(address,uint256)": "095ea7b3",
					"balanceOf(address)": "70a08231",
					"createProposal(string)": "49c2a1a6",
					"decimals()": "313ce567",
					"executeProposal(uint256)": "0d61b519",
					"governance()": "5aa6e675",
					"name()": "06fdde03",
					"proposalCount()": "da35c664",
					"proposals(uint256)": "013cf08b",
					"setGovernance(address)": "ab033ea9",
					"symbol()": "95d89b41",
					"totalSupply()": "18160ddd",
					"transfer(address,uint256)": "a9059cbb",
					"transferFrom(address,address,uint256)": "23b872dd",
					"vote(uint256,bool)": "c9d27afe"
				}
			},
			"storageLayout": {
				"storage": [
					{
						"astId": 5,
						"contract": "FlightGuard/contracts/FlightGuardToken.sol:FlightGuardToken",
						"label": "name",
						"offset": 0,
						"slot": "0",
						"type": "t_string_storage"
					},
					{
						"astId": 8,
						"contract": "FlightGuard/contracts/FlightGuardToken.sol:FlightGuardToken",
						"label": "symbol",
						"offset": 0,
						"slot": "1",
						"type": "t_string_storage"
					},
					{
						"astId": 11,
						"contract": "FlightGuard/contracts/FlightGuardToken.sol:FlightGuardToken",
						"label": "decimals",
						"offset": 0,
						"slot": "2",
						"type": "t_uint8"
					},
					{
						"astId": 13,
						"contract": "FlightGuard/contracts/FlightGuardToken.sol:FlightGuardToken",
						"label": "totalSupply",
						"offset": 0,
						"slot": "3",
						"type": "t_uint256"
					},
					{
						"astId": 17,
						"contract": "FlightGuard/contracts/FlightGuardToken.sol:FlightGuardToken",
						"label": "balanceOf",
						"offset": 0,
						"slot": "4",
						"type": "t_mapping(t_address,t_uint256)"
					},
					{
						"astId": 23,
						"contract": "FlightGuard/contracts/FlightGuardToken.sol:FlightGuardToken",
						"label": "allowance",
						"offset": 0,
						"slot": "5",
						"type": "t_mapping(t_address,t_mapping(t_address,t_uint256))"
					},
					{
						"astId": 25,
						"contract": "FlightGuard/contracts/FlightGuardToken.sol:FlightGuardToken",
						"label": "governance",
						"offset": 0,
						"slot": "6",
						"type": "t_address"
					},
					{
						"astId": 27,
						"contract": "FlightGuard/contracts/FlightGuardToken.sol:FlightGuardToken",
						"label": "proposalCount",
						"offset": 0,
						"slot": "7",
						"type": "t_uint256"
					},
					{
						"astId": 51,
						"contract": "FlightGuard/contracts/FlightGuardToken.sol:FlightGuardToken",
						"label": "proposals",
						"offset": 0,
						"slot": "8",
						"type": "t_mapping(t_uint256,t_struct(Proposal)46_storage)"
					}
				],
				"types": {
					"t_address": {
						"encoding": "inplace",
						"label": "address",
						"numberOfBytes": "20"
					},
					"t_bool": {
						"encoding": "inplace",
						"label": "bool",
						"numberOfBytes": "1"
					},
					"t_mapping(t_address,t_bool)": {
						"encoding": "mapping",
						"key": "t_address",
						"label": "mapping(address => bool)",
						"numberOfBytes": "32",
						"value": "t_bool"
					},
					"t_mapping(t_address,t_mapping(t_address,t_uint256))": {
						"encoding": "mapping",
						"key": "t_address",
						"label": "mapping(address => mapping(address => uint256))",
						"numberOfBytes": "32",
						"value": "t_mapping(t_address,t_uint256)"
					},
					"t_mapping(t_address,t_uint256)": {
						"encoding": "mapping",
						"key": "t_address",
						"label": "mapping(address => uint256)",
						"numberOfBytes": "32",
						"value": "t_uint256"
					},
					"t_mapping(t_uint256,t_struct(Proposal)46_storage)": {
						"encoding": "mapping",
						"key": "t_uint256",
						"label": "mapping(uint256 => struct FlightGuardToken.Proposal)",
						"numberOfBytes": "32",
						"value": "t_struct(Proposal)46_storage"
					},
					"t_string_storage": {
						"encoding": "bytes",
						"label": "string",
						"numberOfBytes": "32"
					},
					"t_struct(Proposal)46_storage": {
						"encoding": "inplace",
						"label": "struct FlightGuardToken.Proposal",
						"members": [
							{
								"astId": 29,
								"contract": "FlightGuard/contracts/FlightGuardToken.sol:FlightGuardToken",
								"label": "proposer",
								"offset": 0,
								"slot": "0",
								"type": "t_address"
							},
							{
								"astId": 31,
								"contract": "FlightGuard/contracts/FlightGuardToken.sol:FlightGuardToken",
								"label": "description",
								"offset": 0,
								"slot": "1",
								"type": "t_string_storage"
							},
							{
								"astId": 33,
								"contract": "FlightGuard/contracts/FlightGuardToken.sol:FlightGuardToken",
								"label": "forVotes",
								"offset": 0,
								"slot": "2",
								"type": "t_uint256"
							},
							{
								"astId": 35,
								"contract": "FlightGuard/contracts/FlightGuardToken.sol:FlightGuardToken",
								"label": "againstVotes",
								"offset": 0,
								"slot": "3",
								"type": "t_uint256"
							},
							{
								"astId": 37,
								"contract": "FlightGuard/contracts/FlightGuardToken.sol:FlightGuardToken",
								"label": "executed",
								"offset": 0,
								"slot": "4",
								"type": "t_bool"
							},
							{
								"astId": 39,
								"contract": "FlightGuard/contracts/FlightGuardToken.sol:FlightGuardToken",
								"label": "active",
								"offset": 1,
								"slot": "4",
								"type": "t_bool"
							},
							{
								"astId": 41,
								"contract": "FlightGuard/contracts/FlightGuardToken.sol:FlightGuardToken",
								"label": "endTime",
								"offset": 0,
								"slot": "5",
								"type": "t_uint256"
							},
							{
								"astId": 45,
								"contract": "FlightGuard/contracts/FlightGuardToken.sol:FlightGuardToken",
								"label": "voted",
								"offset": 0,
								"slot": "6",
								"type": "t_mapping(t_address,t_bool)"
							}
						],
						"numberOfBytes": "224"
					},
					"t_uint256": {
						"encoding": "inplace",
						"label": "uint256",
						"numberOfBytes": "32"
					},
					"t_uint8": {
						"encoding": "inplace",
						"label": "uint8",
						"numberOfBytes": "1"
					}
				}
			},
			"userdoc": {
				"kind": "user",
				"methods": {},
				"version": 1
			}
		}
	}
}