{
	"FlightGuard/contracts/FlightGuardRegistry.sol": {
		"FlightGuardRegistry": {
			"abi": [
				{
					"inputs": [],
					"stateMutability": "nonpayable",
					"type": "constructor"
				},
				{
					"anonymous": false,
					"inputs": [
						{
							"indexed": false,
							"internalType": "string",
							"name": "airlineCode",
							"type": "string"
						},
						{
							"indexed": false,
							"internalType": "address",
							"name": "airlineAddress",
							"type": "address"
						}
					],
					"name": "AirlineRegistered",
					"type": "event"
				},
				{
					"anonymous": false,
					"inputs": [
						{
							"indexed": true,
							"internalType": "address",
							"name": "dataSource",
							"type": "address"
						}
					],
					"name": "DataSourceAdded",
					"type": "event"
				},
				{
					"anonymous": false,
					"inputs": [
						{
							"indexed": true,
							"internalType": "address",
							"name": "dataSource",
							"type": "address"
						}
					],
					"name": "DataSourceRemoved",
					"type": "event"
				},
				{
					"anonymous": false,
					"inputs": [
						{
							"indexed": true,
							"internalType": "address",
							"name": "newLiquidityPool",
							"type": "address"
						}
					],
					"name": "LiquidityPoolUpdated",
					"type": "event"
				},
				{
					"anonymous": false,
					"inputs": [
						{
							"indexed": true,
							"internalType": "address",
							"name": "newPolicyContract",
							"type": "address"
						}
					],
					"name": "PolicyContractUpdated",
					"type": "event"
				},
				{
					"anonymous": false,
					"inputs": [
						{
							"indexed": true,
							"internalType": "address",
							"name": "newTokenContract",
							"type": "address"
						}
					],
					"name": "TokenContractUpdated",
					"type": "event"
				},
				{
					"inputs": [
						{
							"internalType": "address",
							"name": "_dataSource",
							"type": "address"
						}
					],
					"name": "addTrustedDataSource",
					"outputs": [],
					"stateMutability": "nonpayable",
					"type": "function"
				},
				{
					"inputs": [
						{
							"internalType": "string",
							"name": "_airlineCode",
							"type": "string"
						}
					],
					"name": "getAirlineAddress",
					"outputs": [
						{
							"internalType": "address",
							"name": "",
							"type": "address"
						}
					],
					"stateMutability": "view",
					"type": "function"
				},
				{
					"inputs": [
						{
							"internalType": "address",
							"name": "_dataSource",
							"type": "address"
						}
					],
					"name": "isDataSourceTrusted",
					"outputs": [
						{
							"internalType": "bool",
							"name": "",
							"type": "bool"
						}
					],
					"stateMutability": "view",
					"type": "function"
				},
				{
					"inputs": [],
					"name": "liquidityPoolContract",
					"outputs": [
						{
							"internalType": "address",
							"name": "",
							"type": "address"
						}
					],
					"stateMutability": "view",
					"type": "function"
				},
				{
					"inputs": [],
					"name": "owner",
					"outputs": [
						{
							"internalType": "address",
							"name": "",
							"type": "address"
						}
					],
					"stateMutability": "view",
					"type": "function"
				},
				{
					"inputs": [],
					"name": "policyContract",
					"outputs": [
						{
							"internalType": "address",
							"name": "",
							"type": "address"
						}
					],
					"stateMutability": "view",
					"type": "function"
				},
				{
					"inputs": [
						{
							"internalType": "string",
							"name": "_airlineCode",
							"type": "string"
						},
						{
							"internalType": "address",
							"name": "_airlineAddress",
							"type": "address"
						}
					],
					"name": "registerAirline",
					"outputs": [],
					"stateMutability": "nonpayable",
					"type": "function"
				},
				{
					"inputs": [
						{
							"internalType": "string",
							"name": "",
							"type": "string"
						}
					],
					"name": "registeredAirlines",
					"outputs": [
						{
							"internalType": "address",
							"name": "",
							"type": "address"
						}
					],
					"stateMutability": "view",
					"type": "function"
				},
				{
					"inputs": [
						{
							"internalType": "address",
							"name": "_dataSource",
							"type": "address"
						}
					],
					"name": "removeTrustedDataSource",
					"outputs": [],
					"stateMutability": "nonpayable",
					"type": "function"
				},
				{
					"inputs": [
						{
							"internalType": "address",
							"name": "_liquidityPoolContract",
							"type": "address"
						}
					],
					"name": "setLiquidityPool",
					"outputs": [],
					"stateMutability": "nonpayable",
					"type": "function"
				},
				{
					"inputs": [
						{
							"internalType": "address",
							"name": "_policyContract",
							"type": "address"
						}
					],
					"name": "setPolicyContract",
					"outputs": [],
					"stateMutability": "nonpayable",
					"type": "function"
				},
				{
					"inputs": [
						{
							"internalType": "address",
							"name": "_tokenContract",
							"type": "address"
						}
					],
					"name": "setTokenContract",
					"outputs": [],
					"stateMutability": "nonpayable",
					"type": "function"
				},
				{
					"inputs": [],
					"name": "tokenContract",
					"outputs": [
						{
							"internalType": "address",
							"name": "",
							"type": "address"
						}
					],
					"stateMutability": "view",
					"type": "function"
				},
				{
					"inputs": [
						{
							"internalType": "address",
							"name": "_newOwner",
							"type": "address"
						}
					],
					"name": "transferOwnership",
					"outputs": [],
					"stateMutability": "nonpayable",
					"type": "function"
				},
				{
					"inputs": [
						{
							"internalType": "address",
							"name": "",
							"type": "address"
						}
					],
					"name": "trustedDataSources",
					"outputs": [
						{
							"internalType": "bool",
							"name": "",
							"type": "bool"
						}
					],
					"stateMutability": "view",
					"type": "function"
				}
			],
			"devdoc": {
				"details": "Coordinates the different components of the FlightGuard ecosystem",
				"kind": "dev",
				"methods": {
					"addTrustedDataSource(address)": {
						"details": "Add a trusted data source for flight information",
						"params": {
							"_dataSource": "Address of the oracle or data provider"
						}
					},
					"constructor": {
						"details": "Constructor sets initial owner"
					},
					"getAirlineAddress(string)": {
						"details": "Get the airline address for a specific airline code",
						"params": {
							"_airlineCode": "IATA code for the airline"
						},
						"returns": {
							"_0": "The registered address for that airline"
						}
					},
					"isDataSourceTrusted(address)": {
						"details": "Check if a data source is trusted",
						"params": {
							"_dataSource": "Address to check"
						},
						"returns": {
							"_0": "True if the data source is trusted"
						}
					},
					"registerAirline(string,address)": {
						"details": "Register an airline in the system",
						"params": {
							"_airlineAddress": "Contract address or wallet for the airline",
							"_airlineCode": "IATA code for the airline (e.g., \"AA\" for American Airlines)"
						}
					},
					"removeTrustedDataSource(address)": {
						"details": "Remove a trusted data source",
						"params": {
							"_dataSource": "Address of the oracle or data provider to remove"
						}
					},
					"setLiquidityPool(address)": {
						"details": "Set the liquidity pool contract address",
						"params": {
							"_liquidityPoolContract": "Address of the LiquidityPool contract"
						}
					},
					"setPolicyContract(address)": {
						"details": "Set the policy contract address",
						"params": {
							"_policyContract": "Address of the FlightGuardPolicy contract"
						}
					},
					"setTokenContract(address)": {
						"details": "Set the token contract address",
						"params": {
							"_tokenContract": "Address of the FlightGuardToken contract"
						}
					},
					"transferOwnership(address)": {
						"details": "Transfer ownership of the registry",
						"params": {
							"_newOwner": "Address of the new owner"
						}
					}
				},
				"title": "FlightGuardRegistry",
				"version": 1
			},
			"evm": {
				"assembly": "    /* \"FlightGuard/contracts/FlightGuardRegistry.sol\":178:4385  contract FlightGuardRegistry {... */\n  mstore(0x40, 0x80)\n    /* \"FlightGuard/contracts/FlightGuardRegistry.sol\":1044:1095  constructor() {... */\n  callvalue\n  dup1\n  iszero\n  tag_1\n  jumpi\n  0x00\n  dup1\n  revert\ntag_1:\n  pop\n    /* \"FlightGuard/contracts/FlightGuardRegistry.sol\":1077:1087  msg.sender */\n  caller\n    /* \"FlightGuard/contracts/FlightGuardRegistry.sol\":1069:1074  owner */\n  0x03\n  0x00\n    /* \"FlightGuard/contracts/FlightGuardRegistry.sol\":1069:1087  owner = msg.sender */\n  0x0100\n  exp\n  dup2\n  sload\n  dup2\n  0xffffffffffffffffffffffffffffffffffffffff\n  mul\n  not\n  and\n  swap1\n  dup4\n  0xffffffffffffffffffffffffffffffffffffffff\n  and\n  mul\n  or\n  swap1\n  sstore\n  pop\n    /* \"FlightGuard/contracts/FlightGuardRegistry.sol\":178:4385  contract FlightGuardRegistry {... */\n  dataSize(sub_0)\n  dup1\n  dataOffset(sub_0)\n  0x00\n  codecopy\n  0x00\n  return\nstop\n\nsub_0: assembly {\n        /* \"FlightGuard/contracts/FlightGuardRegistry.sol\":178:4385  contract FlightGuardRegistry {... */\n      mstore(0x40, 0x80)\n      callvalue\n      dup1\n      iszero\n      tag_1\n      jumpi\n      0x00\n      dup1\n      revert\n    tag_1:\n      pop\n      jumpi(tag_2, lt(calldatasize, 0x04))\n      shr(0xe0, calldataload(0x00))\n      dup1\n      0x85c896c0\n      gt\n      tag_18\n      jumpi\n      dup1\n      0xbbcd5bbe\n      gt\n      tag_19\n      jumpi\n      dup1\n      0xbbcd5bbe\n      eq\n      tag_14\n      jumpi\n      dup1\n      0xd8cc7b1e\n      eq\n      tag_15\n      jumpi\n      dup1\n      0xeef2671a\n      eq\n      tag_16\n      jumpi\n      dup1\n      0xf2fde38b\n      eq\n      tag_17\n      jumpi\n      jump(tag_2)\n    tag_19:\n      dup1\n      0x85c896c0\n      eq\n      tag_10\n      jumpi\n      dup1\n      0x8da5cb5b\n      eq\n      tag_11\n      jumpi\n      dup1\n      0x8e30d199\n      eq\n      tag_12\n      jumpi\n      dup1\n      0xb546230d\n      eq\n      tag_13\n      jumpi\n      jump(tag_2)\n    tag_18:\n      dup1\n      0x100e3c69\n      gt\n      tag_20\n      jumpi\n      dup1\n      0x100e3c69\n      eq\n      tag_6\n      jumpi\n      dup1\n      0x1d8ef0fe\n      eq\n      tag_7\n      jumpi\n      dup1\n      0x55a373d6\n      eq\n      tag_8\n      jumpi\n      dup1\n      0x7ff06357\n      eq\n      tag_9\n      jumpi\n      jump(tag_2)\n    tag_20:\n      dup1\n      0x01877020\n      eq\n      tag_3\n      jumpi\n      dup1\n      0x09ca5009\n      eq\n      tag_4\n      jumpi\n      dup1\n      0x0e2c4129\n      eq\n      tag_5\n      jumpi\n    tag_2:\n      0x00\n      dup1\n      revert\n        /* \"FlightGuard/contracts/FlightGuardRegistry.sol\":2090:2292  function setLiquidityPool(address _liquidityPoolContract) external onlyOwner {... */\n    tag_3:\n      tag_21\n      0x04\n      dup1\n      calldatasize\n      sub\n      dup2\n      add\n      swap1\n      tag_22\n      swap2\n      swap1\n      tag_23\n      jump\t// in\n    tag_22:\n      tag_24\n      jump\t// in\n    tag_21:\n      stop\n        /* \"FlightGuard/contracts/FlightGuardRegistry.sol\":3588:3724  function isDataSourceTrusted(address _dataSource) external view returns (bool) {... */\n    tag_4:\n      tag_25\n      0x04\n      dup1\n      calldatasize\n      sub\n      dup2\n      add\n      swap1\n      tag_26\n      swap2\n      swap1\n      tag_23\n      jump\t// in\n    tag_26:\n      tag_27\n      jump\t// in\n    tag_25:\n      mload(0x40)\n      tag_28\n      swap2\n      swap1\n      tag_29\n      jump\t// in\n    tag_28:\n      mload(0x40)\n      dup1\n      swap2\n      sub\n      swap1\n      return\n        /* \"FlightGuard/contracts/FlightGuardRegistry.sol\":2532:2762  function registerAirline(string memory _airlineCode, address _airlineAddress) external onlyOwner {... */\n    tag_5:\n      tag_30\n      0x04\n      dup1\n      calldatasize\n      sub\n      dup2\n      add\n      swap1\n      tag_31\n      swap2\n      swap1\n      tag_32\n      jump\t// in\n    tag_31:\n      tag_33\n      jump\t// in\n    tag_30:\n      stop\n        /* \"FlightGuard/contracts/FlightGuardRegistry.sol\":2920:3091  function addTrustedDataSource(address _dataSource) external onlyOwner {... */\n    tag_6:\n      tag_34\n      0x04\n      dup1\n      calldatasize\n      sub\n      dup2\n      add\n      swap1\n      tag_35\n      swap2\n      swap1\n      tag_23\n      jump\t// in\n    tag_35:\n      tag_36\n      jump\t// in\n    tag_34:\n      stop\n        /* \"FlightGuard/contracts/FlightGuardRegistry.sol\":309:345  address public liquidityPoolContract */\n    tag_7:\n      tag_37\n      tag_38\n      jump\t// in\n    tag_37:\n      mload(0x40)\n      tag_39\n      swap2\n      swap1\n      tag_40\n      jump\t// in\n    tag_39:\n      mload(0x40)\n      dup1\n      swap2\n      sub\n      swap1\n      return\n        /* \"FlightGuard/contracts/FlightGuardRegistry.sol\":274:302  address public tokenContract */\n    tag_8:\n      tag_41\n      tag_42\n      jump\t// in\n    tag_41:\n      mload(0x40)\n      tag_43\n      swap2\n      swap1\n      tag_40\n      jump\t// in\n    tag_43:\n      mload(0x40)\n      dup1\n      swap2\n      sub\n      swap1\n      return\n        /* \"FlightGuard/contracts/FlightGuardRegistry.sol\":238:267  address public policyContract */\n    tag_9:\n      tag_44\n      tag_45\n      jump\t// in\n    tag_44:\n      mload(0x40)\n      tag_46\n      swap2\n      swap1\n      tag_40\n      jump\t// in\n    tag_46:\n      mload(0x40)\n      dup1\n      swap2\n      sub\n      swap1\n      return\n        /* \"FlightGuard/contracts/FlightGuardRegistry.sol\":1440:1616  function setPolicyContract(address _policyContract) external onlyOwner {... */\n    tag_10:\n      tag_47\n      0x04\n      dup1\n      calldatasize\n      sub\n      dup2\n      add\n      swap1\n      tag_48\n      swap2\n      swap1\n      tag_23\n      jump\t// in\n    tag_48:\n      tag_49\n      jump\t// in\n    tag_47:\n      stop\n        /* \"FlightGuard/contracts/FlightGuardRegistry.sol\":352:372  address public owner */\n    tag_11:\n      tag_50\n      tag_51\n      jump\t// in\n    tag_50:\n      mload(0x40)\n      tag_52\n      swap2\n      swap1\n      tag_40\n      jump\t// in\n    tag_52:\n      mload(0x40)\n      dup1\n      swap2\n      sub\n      swap1\n      return\n        /* \"FlightGuard/contracts/FlightGuardRegistry.sol\":413:465  mapping(string => address) public registeredAirlines */\n    tag_12:\n      tag_53\n      0x04\n      dup1\n      calldatasize\n      sub\n      dup2\n      add\n      swap1\n      tag_54\n      swap2\n      swap1\n      tag_55\n      jump\t// in\n    tag_54:\n      tag_56\n      jump\t// in\n    tag_53:\n      mload(0x40)\n      tag_57\n      swap2\n      swap1\n      tag_40\n      jump\t// in\n    tag_57:\n      mload(0x40)\n      dup1\n      swap2\n      sub\n      swap1\n      return\n        /* \"FlightGuard/contracts/FlightGuardRegistry.sol\":507:557  mapping(address => bool) public trustedDataSources */\n    tag_13:\n      tag_58\n      0x04\n      dup1\n      calldatasize\n      sub\n      dup2\n      add\n      swap1\n      tag_59\n      swap2\n      swap1\n      tag_23\n      jump\t// in\n    tag_59:\n      tag_60\n      jump\t// in\n    tag_58:\n      mload(0x40)\n      tag_61\n      swap2\n      swap1\n      tag_29\n      jump\t// in\n    tag_61:\n      mload(0x40)\n      dup1\n      swap2\n      sub\n      swap1\n      return\n        /* \"FlightGuard/contracts/FlightGuardRegistry.sol\":1761:1931  function setTokenContract(address _tokenContract) external onlyOwner {... */\n    tag_14:\n      tag_62\n      0x04\n      dup1\n      calldatasize\n      sub\n      dup2\n      add\n      swap1\n      tag_63\n      swap2\n      swap1\n      tag_23\n      jump\t// in\n    tag_63:\n      tag_64\n      jump\t// in\n    tag_62:\n      stop\n        /* \"FlightGuard/contracts/FlightGuardRegistry.sol\":3239:3416  function removeTrustedDataSource(address _dataSource) external onlyOwner {... */\n    tag_15:\n      tag_65\n      0x04\n      dup1\n      calldatasize\n      sub\n      dup2\n      add\n      swap1\n      tag_66\n      swap2\n      swap1\n      tag_23\n      jump\t// in\n    tag_66:\n      tag_67\n      jump\t// in\n    tag_65:\n      stop\n        /* \"FlightGuard/contracts/FlightGuardRegistry.sol\":4237:4382  function getAirlineAddress(string memory _airlineCode) external view returns (address) {... */\n    tag_16:\n      tag_68\n      0x04\n      dup1\n      calldatasize\n      sub\n      dup2\n      add\n      swap1\n      tag_69\n      swap2\n      swap1\n      tag_55\n      jump\t// in\n    tag_69:\n      tag_70\n      jump\t// in\n    tag_68:\n      mload(0x40)\n      tag_71\n      swap2\n      swap1\n      tag_40\n      jump\t// in\n    tag_71:\n      mload(0x40)\n      dup1\n      swap2\n      sub\n      swap1\n      return\n        /* \"FlightGuard/contracts/FlightGuardRegistry.sol\":3852:4032  function transferOwnership(address _newOwner) external onlyOwner {... */\n    tag_17:\n      tag_72\n      0x04\n      dup1\n      calldatasize\n      sub\n      dup2\n      add\n      swap1\n      tag_73\n      swap2\n      swap1\n      tag_23\n      jump\t// in\n    tag_73:\n      tag_74\n      jump\t// in\n    tag_72:\n      stop\n        /* \"FlightGuard/contracts/FlightGuardRegistry.sol\":2090:2292  function setLiquidityPool(address _liquidityPoolContract) external onlyOwner {... */\n    tag_24:\n        /* \"FlightGuard/contracts/FlightGuardRegistry.sol\":1229:1234  owner */\n      0x03\n      0x00\n      swap1\n      sload\n      swap1\n      0x0100\n      exp\n      swap1\n      div\n      0xffffffffffffffffffffffffffffffffffffffff\n      and\n        /* \"FlightGuard/contracts/FlightGuardRegistry.sol\":1215:1234  msg.sender == owner */\n      0xffffffffffffffffffffffffffffffffffffffff\n      and\n        /* \"FlightGuard/contracts/FlightGuardRegistry.sol\":1215:1225  msg.sender */\n      caller\n        /* \"FlightGuard/contracts/FlightGuardRegistry.sol\":1215:1234  msg.sender == owner */\n      0xffffffffffffffffffffffffffffffffffffffff\n      and\n      eq\n        /* \"FlightGuard/contracts/FlightGuardRegistry.sol\":1207:1272  require(msg.sender == owner, \"Only owner can call this function\") */\n      tag_76\n      jumpi\n      mload(0x40)\n      0x08c379a000000000000000000000000000000000000000000000000000000000\n      dup2\n      mstore\n      0x04\n      add\n      tag_77\n      swap1\n      tag_78\n      jump\t// in\n    tag_77:\n      mload(0x40)\n      dup1\n      swap2\n      sub\n      swap1\n      revert\n    tag_76:\n        /* \"FlightGuard/contracts/FlightGuardRegistry.sol\":2202:2224  _liquidityPoolContract */\n      dup1\n        /* \"FlightGuard/contracts/FlightGuardRegistry.sol\":2178:2199  liquidityPoolContract */\n      0x02\n      0x00\n        /* \"FlightGuard/contracts/FlightGuardRegistry.sol\":2178:2224  liquidityPoolContract = _liquidityPoolContract */\n      0x0100\n      exp\n      dup2\n      sload\n      dup2\n      0xffffffffffffffffffffffffffffffffffffffff\n      mul\n      not\n      and\n      swap1\n      dup4\n      0xffffffffffffffffffffffffffffffffffffffff\n      and\n      mul\n      or\n      swap1\n      sstore\n      pop\n        /* \"FlightGuard/contracts/FlightGuardRegistry.sol\":2261:2283  _liquidityPoolContract */\n      dup1\n        /* \"FlightGuard/contracts/FlightGuardRegistry.sol\":2240:2284  LiquidityPoolUpdated(_liquidityPoolContract) */\n      0xffffffffffffffffffffffffffffffffffffffff\n      and\n      0xedf1a035d265f6321083031b40acf4e5e06cd3e2e2025192fd308409b13b44c6\n      mload(0x40)\n      mload(0x40)\n      dup1\n      swap2\n      sub\n      swap1\n      log2\n        /* \"FlightGuard/contracts/FlightGuardRegistry.sol\":2090:2292  function setLiquidityPool(address _liquidityPoolContract) external onlyOwner {... */\n      pop\n      jump\t// out\n        /* \"FlightGuard/contracts/FlightGuardRegistry.sol\":3588:3724  function isDataSourceTrusted(address _dataSource) external view returns (bool) {... */\n    tag_27:\n        /* \"FlightGuard/contracts/FlightGuardRegistry.sol\":3661:3665  bool */\n      0x00\n        /* \"FlightGuard/contracts/FlightGuardRegistry.sol\":3685:3703  trustedDataSources */\n      0x05\n        /* \"FlightGuard/contracts/FlightGuardRegistry.sol\":3685:3716  trustedDataSources[_dataSource] */\n      0x00\n        /* \"FlightGuard/contracts/FlightGuardRegistry.sol\":3704:3715  _dataSource */\n      dup4\n        /* \"FlightGuard/contracts/FlightGuardRegistry.sol\":3685:3716  trustedDataSources[_dataSource] */\n      0xffffffffffffffffffffffffffffffffffffffff\n      and\n      0xffffffffffffffffffffffffffffffffffffffff\n      and\n      dup2\n      mstore\n      0x20\n      add\n      swap1\n      dup2\n      mstore\n      0x20\n      add\n      0x00\n      keccak256\n      0x00\n      swap1\n      sload\n      swap1\n      0x0100\n      exp\n      swap1\n      div\n      0xff\n      and\n        /* \"FlightGuard/contracts/FlightGuardRegistry.sol\":3678:3716  return trustedDataSources[_dataSource] */\n      swap1\n      pop\n        /* \"FlightGuard/contracts/FlightGuardRegistry.sol\":3588:3724  function isDataSourceTrusted(address _dataSource) external view returns (bool) {... */\n      swap2\n      swap1\n      pop\n      jump\t// out\n        /* \"FlightGuard/contracts/FlightGuardRegistry.sol\":2532:2762  function registerAirline(string memory _airlineCode, address _airlineAddress) external onlyOwner {... */\n    tag_33:\n        /* \"FlightGuard/contracts/FlightGuardRegistry.sol\":1229:1234  owner */\n      0x03\n      0x00\n      swap1\n      sload\n      swap1\n      0x0100\n      exp\n      swap1\n      div\n      0xffffffffffffffffffffffffffffffffffffffff\n      and\n        /* \"FlightGuard/contracts/FlightGuardRegistry.sol\":1215:1234  msg.sender == owner */\n      0xffffffffffffffffffffffffffffffffffffffff\n      and\n        /* \"FlightGuard/contracts/FlightGuardRegistry.sol\":1215:1225  msg.sender */\n      caller\n        /* \"FlightGuard/contracts/FlightGuardRegistry.sol\":1215:1234  msg.sender == owner */\n      0xffffffffffffffffffffffffffffffffffffffff\n      and\n      eq\n        /* \"FlightGuard/contracts/FlightGuardRegistry.sol\":1207:1272  require(msg.sender == owner, \"Only owner can call this function\") */\n      tag_82\n      jumpi\n      mload(0x40)\n      0x08c379a000000000000000000000000000000000000000000000000000000000\n      dup2\n      mstore\n      0x04\n      add\n      tag_83\n      swap1\n      tag_78\n      jump\t// in\n    tag_83:\n      mload(0x40)\n      dup1\n      swap2\n      sub\n      swap1\n      revert\n    tag_82:\n        /* \"FlightGuard/contracts/FlightGuardRegistry.sol\":2675:2690  _airlineAddress */\n      dup1\n        /* \"FlightGuard/contracts/FlightGuardRegistry.sol\":2640:2658  registeredAirlines */\n      0x04\n        /* \"FlightGuard/contracts/FlightGuardRegistry.sol\":2659:2671  _airlineCode */\n      dup4\n        /* \"FlightGuard/contracts/FlightGuardRegistry.sol\":2640:2672  registeredAirlines[_airlineCode] */\n      mload(0x40)\n      tag_85\n      swap2\n      swap1\n      tag_86\n      jump\t// in\n    tag_85:\n      swap1\n      dup2\n      mstore\n      0x20\n      add\n      mload(0x40)\n      dup1\n      swap2\n      sub\n      swap1\n      keccak256\n      0x00\n        /* \"FlightGuard/contracts/FlightGuardRegistry.sol\":2640:2690  registeredAirlines[_airlineCode] = _airlineAddress */\n      0x0100\n      exp\n      dup2\n      sload\n      dup2\n      0xffffffffffffffffffffffffffffffffffffffff\n      mul\n      not\n      and\n      swap1\n      dup4\n      0xffffffffffffffffffffffffffffffffffffffff\n      and\n      mul\n      or\n      swap1\n      sstore\n      pop\n        /* \"FlightGuard/contracts/FlightGuardRegistry.sol\":2706:2754  AirlineRegistered(_airlineCode, _airlineAddress) */\n      0x4389233d1d7e817e3a41447176300b89c596c24ed4d58896d501ddb378abe2c4\n        /* \"FlightGuard/contracts/FlightGuardRegistry.sol\":2724:2736  _airlineCode */\n      dup3\n        /* \"FlightGuard/contracts/FlightGuardRegistry.sol\":2738:2753  _airlineAddress */\n      dup3\n        /* \"FlightGuard/contracts/FlightGuardRegistry.sol\":2706:2754  AirlineRegistered(_airlineCode, _airlineAddress) */\n      mload(0x40)\n      tag_87\n      swap3\n      swap2\n      swap1\n      tag_88\n      jump\t// in\n    tag_87:\n      mload(0x40)\n      dup1\n      swap2\n      sub\n      swap1\n      log1\n        /* \"FlightGuard/contracts/FlightGuardRegistry.sol\":2532:2762  function registerAirline(string memory _airlineCode, address _airlineAddress) external onlyOwner {... */\n      pop\n      pop\n      jump\t// out\n        /* \"FlightGuard/contracts/FlightGuardRegistry.sol\":2920:3091  function addTrustedDataSource(address _dataSource) external onlyOwner {... */\n    tag_36:\n        /* \"FlightGuard/contracts/FlightGuardRegistry.sol\":1229:1234  owner */\n      0x03\n      0x00\n      swap1\n      sload\n      swap1\n      0x0100\n      exp\n      swap1\n      div\n      0xffffffffffffffffffffffffffffffffffffffff\n      and\n        /* \"FlightGuard/contracts/FlightGuardRegistry.sol\":1215:1234  msg.sender == owner */\n      0xffffffffffffffffffffffffffffffffffffffff\n      and\n        /* \"FlightGuard/contracts/FlightGuardRegistry.sol\":1215:1225  msg.sender */\n      caller\n        /* \"FlightGuard/contracts/FlightGuardRegistry.sol\":1215:1234  msg.sender == owner */\n      0xffffffffffffffffffffffffffffffffffffffff\n      and\n      eq\n        /* \"FlightGuard/contracts/FlightGuardRegistry.sol\":1207:1272  require(msg.sender == owner, \"Only owner can call this function\") */\n      tag_90\n      jumpi\n      mload(0x40)\n      0x08c379a000000000000000000000000000000000000000000000000000000000\n      dup2\n      mstore\n      0x04\n      add\n      tag_91\n      swap1\n      tag_78\n      jump\t// in\n    tag_91:\n      mload(0x40)\n      dup1\n      swap2\n      sub\n      swap1\n      revert\n    tag_90:\n        /* \"FlightGuard/contracts/FlightGuardRegistry.sol\":3035:3039  true */\n      0x01\n        /* \"FlightGuard/contracts/FlightGuardRegistry.sol\":3001:3019  trustedDataSources */\n      0x05\n        /* \"FlightGuard/contracts/FlightGuardRegistry.sol\":3001:3032  trustedDataSources[_dataSource] */\n      0x00\n        /* \"FlightGuard/contracts/FlightGuardRegistry.sol\":3020:3031  _dataSource */\n      dup4\n        /* \"FlightGuard/contracts/FlightGuardRegistry.sol\":3001:3032  trustedDataSources[_dataSource] */\n      0xffffffffffffffffffffffffffffffffffffffff\n      and\n      0xffffffffffffffffffffffffffffffffffffffff\n      and\n      dup2\n      mstore\n      0x20\n      add\n      swap1\n      dup2\n      mstore\n      0x20\n      add\n      0x00\n      keccak256\n      0x00\n        /* \"FlightGuard/contracts/FlightGuardRegistry.sol\":3001:3039  trustedDataSources[_dataSource] = true */\n      0x0100\n      exp\n      dup2\n      sload\n      dup2\n      0xff\n      mul\n      not\n      and\n      swap1\n      dup4\n      iszero\n      iszero\n      mul\n      or\n      swap1\n      sstore\n      pop\n        /* \"FlightGuard/contracts/FlightGuardRegistry.sol\":3071:3082  _dataSource */\n      dup1\n        /* \"FlightGuard/contracts/FlightGuardRegistry.sol\":3055:3083  DataSourceAdded(_dataSource) */\n      0xffffffffffffffffffffffffffffffffffffffff\n      and\n      0xfe2e4eb88c03ccd5fb359dad5ee18023085e2f7c126b9b38986b4873527035f0\n      mload(0x40)\n      mload(0x40)\n      dup1\n      swap2\n      sub\n      swap1\n      log2\n        /* \"FlightGuard/contracts/FlightGuardRegistry.sol\":2920:3091  function addTrustedDataSource(address _dataSource) external onlyOwner {... */\n      pop\n      jump\t// out\n        /* \"FlightGuard/contracts/FlightGuardRegistry.sol\":309:345  address public liquidityPoolContract */\n    tag_38:\n      0x02\n      0x00\n      swap1\n      sload\n      swap1\n      0x0100\n      exp\n      swap1\n      div\n      0xffffffffffffffffffffffffffffffffffffffff\n      and\n      dup2\n      jump\t// out\n        /* \"FlightGuard/contracts/FlightGuardRegistry.sol\":274:302  address public tokenContract */\n    tag_42:\n      0x01\n      0x00\n      swap1\n      sload\n      swap1\n      0x0100\n      exp\n      swap1\n      div\n      0xffffffffffffffffffffffffffffffffffffffff\n      and\n      dup2\n      jump\t// out\n        /* \"FlightGuard/contracts/FlightGuardRegistry.sol\":238:267  address public policyContract */\n    tag_45:\n      0x00\n      dup1\n      sload\n      swap1\n      0x0100\n      exp\n      swap1\n      div\n      0xffffffffffffffffffffffffffffffffffffffff\n      and\n      dup2\n      jump\t// out\n        /* \"FlightGuard/contracts/FlightGuardRegistry.sol\":1440:1616  function setPolicyContract(address _policyContract) external onlyOwner {... */\n    tag_49:\n        /* \"FlightGuard/contracts/FlightGuardRegistry.sol\":1229:1234  owner */\n      0x03\n      0x00\n      swap1\n      sload\n      swap1\n      0x0100\n      exp\n      swap1\n      div\n      0xffffffffffffffffffffffffffffffffffffffff\n      and\n        /* \"FlightGuard/contracts/FlightGuardRegistry.sol\":1215:1234  msg.sender == owner */\n      0xffffffffffffffffffffffffffffffffffffffff\n      and\n        /* \"FlightGuard/contracts/FlightGuardRegistry.sol\":1215:1225  msg.sender */\n      caller\n        /* \"FlightGuard/contracts/FlightGuardRegistry.sol\":1215:1234  msg.sender == owner */\n      0xffffffffffffffffffffffffffffffffffffffff\n      and\n      eq\n        /* \"FlightGuard/contracts/FlightGuardRegistry.sol\":1207:1272  require(msg.sender == owner, \"Only owner can call this function\") */\n      tag_94\n      jumpi\n      mload(0x40)\n      0x08c379a000000000000000000000000000000000000000000000000000000000\n      dup2\n      mstore\n      0x04\n      add\n      tag_95\n      swap1\n      tag_78\n      jump\t// in\n    tag_95:\n      mload(0x40)\n      dup1\n      swap2\n      sub\n      swap1\n      revert\n    tag_94:\n        /* \"FlightGuard/contracts/FlightGuardRegistry.sol\":1539:1554  _policyContract */\n      dup1\n        /* \"FlightGuard/contracts/FlightGuardRegistry.sol\":1522:1536  policyContract */\n      0x00\n      dup1\n        /* \"FlightGuard/contracts/FlightGuardRegistry.sol\":1522:1554  policyContract = _policyContract */\n      0x0100\n      exp\n      dup2\n      sload\n      dup2\n      0xffffffffffffffffffffffffffffffffffffffff\n      mul\n      not\n      and\n      swap1\n      dup4\n      0xffffffffffffffffffffffffffffffffffffffff\n      and\n      mul\n      or\n      swap1\n      sstore\n      pop\n        /* \"FlightGuard/contracts/FlightGuardRegistry.sol\":1592:1607  _policyContract */\n      dup1\n        /* \"FlightGuard/contracts/FlightGuardRegistry.sol\":1570:1608  PolicyContractUpdated(_policyContract) */\n      0xffffffffffffffffffffffffffffffffffffffff\n      and\n      0x5611697d580ee62038b9c5dfd31bb9a5e15f50015ffb5b52ea242502b9c541c2\n      mload(0x40)\n      mload(0x40)\n      dup1\n      swap2\n      sub\n      swap1\n      log2\n        /* \"FlightGuard/contracts/FlightGuardRegistry.sol\":1440:1616  function setPolicyContract(address _policyContract) external onlyOwner {... */\n      pop\n      jump\t// out\n        /* \"FlightGuard/contracts/FlightGuardRegistry.sol\":352:372  address public owner */\n    tag_51:\n      0x03\n      0x00\n      swap1\n      sload\n      swap1\n      0x0100\n      exp\n      swap1\n      div\n      0xffffffffffffffffffffffffffffffffffffffff\n      and\n      dup2\n      jump\t// out\n        /* \"FlightGuard/contracts/FlightGuardRegistry.sol\":413:465  mapping(string => address) public registeredAirlines */\n    tag_56:\n      0x04\n      dup2\n      dup1\n      mload\n      0x20\n      dup2\n      add\n      dup3\n      add\n      dup1\n      mload\n      dup5\n      dup3\n      mstore\n      0x20\n      dup4\n      add\n      0x20\n      dup6\n      add\n      keccak256\n      dup2\n      dup4\n      mstore\n      dup1\n      swap6\n      pop\n      pop\n      pop\n      pop\n      pop\n      pop\n      0x00\n      swap2\n      pop\n      sload\n      swap1\n      0x0100\n      exp\n      swap1\n      div\n      0xffffffffffffffffffffffffffffffffffffffff\n      and\n      dup2\n      jump\t// out\n        /* \"FlightGuard/contracts/FlightGuardRegistry.sol\":507:557  mapping(address => bool) public trustedDataSources */\n    tag_60:\n      mstore(0x20, 0x05)\n      dup1\n      0x00\n      mstore\n      keccak256(0x00, 0x40)\n      0x00\n      swap2\n      pop\n      sload\n      swap1\n      0x0100\n      exp\n      swap1\n      div\n      0xff\n      and\n      dup2\n      jump\t// out\n        /* \"FlightGuard/contracts/FlightGuardRegistry.sol\":1761:1931  function setTokenContract(address _tokenContract) external onlyOwner {... */\n    tag_64:\n        /* \"FlightGuard/contracts/FlightGuardRegistry.sol\":1229:1234  owner */\n      0x03\n      0x00\n      swap1\n      sload\n      swap1\n      0x0100\n      exp\n      swap1\n      div\n      0xffffffffffffffffffffffffffffffffffffffff\n      and\n        /* \"FlightGuard/contracts/FlightGuardRegistry.sol\":1215:1234  msg.sender == owner */\n      0xffffffffffffffffffffffffffffffffffffffff\n      and\n        /* \"FlightGuard/contracts/FlightGuardRegistry.sol\":1215:1225  msg.sender */\n      caller\n        /* \"FlightGuard/contracts/FlightGuardRegistry.sol\":1215:1234  msg.sender == owner */\n      0xffffffffffffffffffffffffffffffffffffffff\n      and\n      eq\n        /* \"FlightGuard/contracts/FlightGuardRegistry.sol\":1207:1272  require(msg.sender == owner, \"Only owner can call this function\") */\n      tag_98\n      jumpi\n      mload(0x40)\n      0x08c379a000000000000000000000000000000000000000000000000000000000\n      dup2\n      mstore\n      0x04\n      add\n      tag_99\n      swap1\n      tag_78\n      jump\t// in\n    tag_99:\n      mload(0x40)\n      dup1\n      swap2\n      sub\n      swap1\n      revert\n    tag_98:\n        /* \"FlightGuard/contracts/FlightGuardRegistry.sol\":1857:1871  _tokenContract */\n      dup1\n        /* \"FlightGuard/contracts/FlightGuardRegistry.sol\":1841:1854  tokenContract */\n      0x01\n      0x00\n        /* \"FlightGuard/contracts/FlightGuardRegistry.sol\":1841:1871  tokenContract = _tokenContract */\n      0x0100\n      exp\n      dup2\n      sload\n      dup2\n      0xffffffffffffffffffffffffffffffffffffffff\n      mul\n      not\n      and\n      swap1\n      dup4\n      0xffffffffffffffffffffffffffffffffffffffff\n      and\n      mul\n      or\n      swap1\n      sstore\n      pop\n        /* \"FlightGuard/contracts/FlightGuardRegistry.sol\":1908:1922  _tokenContract */\n      dup1\n        /* \"FlightGuard/contracts/FlightGuardRegistry.sol\":1887:1923  TokenContractUpdated(_tokenContract) */\n      0xffffffffffffffffffffffffffffffffffffffff\n      and\n      0x23d5823548e4652c04b1d029323232659612a32681d27872dd94b8d6b97ce6b1\n      mload(0x40)\n      mload(0x40)\n      dup1\n      swap2\n      sub\n      swap1\n      log2\n        /* \"FlightGuard/contracts/FlightGuardRegistry.sol\":1761:1931  function setTokenContract(address _tokenContract) external onlyOwner {... */\n      pop\n      jump\t// out\n        /* \"FlightGuard/contracts/FlightGuardRegistry.sol\":3239:3416  function removeTrustedDataSource(address _dataSource) external onlyOwner {... */\n    tag_67:\n        /* \"FlightGuard/contracts/FlightGuardRegistry.sol\":1229:1234  owner */\n      0x03\n      0x00\n      swap1\n      sload\n      swap1\n      0x0100\n      exp\n      swap1\n      div\n      0xffffffffffffffffffffffffffffffffffffffff\n      and\n        /* \"FlightGuard/contracts/FlightGuardRegistry.sol\":1215:1234  msg.sender == owner */\n      0xffffffffffffffffffffffffffffffffffffffff\n      and\n        /* \"FlightGuard/contracts/FlightGuardRegistry.sol\":1215:1225  msg.sender */\n      caller\n        /* \"FlightGuard/contracts/FlightGuardRegistry.sol\":1215:1234  msg.sender == owner */\n      0xffffffffffffffffffffffffffffffffffffffff\n      and\n      eq\n        /* \"FlightGuard/contracts/FlightGuardRegistry.sol\":1207:1272  require(msg.sender == owner, \"Only owner can call this function\") */\n      tag_102\n      jumpi\n      mload(0x40)\n      0x08c379a000000000000000000000000000000000000000000000000000000000\n      dup2\n      mstore\n      0x04\n      add\n      tag_103\n      swap1\n      tag_78\n      jump\t// in\n    tag_103:\n      mload(0x40)\n      dup1\n      swap2\n      sub\n      swap1\n      revert\n    tag_102:\n        /* \"FlightGuard/contracts/FlightGuardRegistry.sol\":3357:3362  false */\n      0x00\n        /* \"FlightGuard/contracts/FlightGuardRegistry.sol\":3323:3341  trustedDataSources */\n      0x05\n        /* \"FlightGuard/contracts/FlightGuardRegistry.sol\":3323:3354  trustedDataSources[_dataSource] */\n      0x00\n        /* \"FlightGuard/contracts/FlightGuardRegistry.sol\":3342:3353  _dataSource */\n      dup4\n        /* \"FlightGuard/contracts/FlightGuardRegistry.sol\":3323:3354  trustedDataSources[_dataSource] */\n      0xffffffffffffffffffffffffffffffffffffffff\n      and\n      0xffffffffffffffffffffffffffffffffffffffff\n      and\n      dup2\n      mstore\n      0x20\n      add\n      swap1\n      dup2\n      mstore\n      0x20\n      add\n      0x00\n      keccak256\n      0x00\n        /* \"FlightGuard/contracts/FlightGuardRegistry.sol\":3323:3362  trustedDataSources[_dataSource] = false */\n      0x0100\n      exp\n      dup2\n      sload\n      dup2\n      0xff\n      mul\n      not\n      and\n      swap1\n      dup4\n      iszero\n      iszero\n      mul\n      or\n      swap1\n      sstore\n      pop\n        /* \"FlightGuard/contracts/FlightGuardRegistry.sol\":3396:3407  _dataSource */\n      dup1\n        /* \"FlightGuard/contracts/FlightGuardRegistry.sol\":3378:3408  DataSourceRemoved(_dataSource) */\n      0xffffffffffffffffffffffffffffffffffffffff\n      and\n      0x3ce717c8af1cdbd087f73a2fd3985608199a50791fcc8dc25bc05365c6ef0885\n      mload(0x40)\n      mload(0x40)\n      dup1\n      swap2\n      sub\n      swap1\n      log2\n        /* \"FlightGuard/contracts/FlightGuardRegistry.sol\":3239:3416  function removeTrustedDataSource(address _dataSource) external onlyOwner {... */\n      pop\n      jump\t// out\n        /* \"FlightGuard/contracts/FlightGuardRegistry.sol\":4237:4382  function getAirlineAddress(string memory _airlineCode) external view returns (address) {... */\n    tag_70:\n        /* \"FlightGuard/contracts/FlightGuardRegistry.sol\":4315:4322  address */\n      0x00\n        /* \"FlightGuard/contracts/FlightGuardRegistry.sol\":4342:4360  registeredAirlines */\n      0x04\n        /* \"FlightGuard/contracts/FlightGuardRegistry.sol\":4361:4373  _airlineCode */\n      dup3\n        /* \"FlightGuard/contracts/FlightGuardRegistry.sol\":4342:4374  registeredAirlines[_airlineCode] */\n      mload(0x40)\n      tag_106\n      swap2\n      swap1\n      tag_86\n      jump\t// in\n    tag_106:\n      swap1\n      dup2\n      mstore\n      0x20\n      add\n      mload(0x40)\n      dup1\n      swap2\n      sub\n      swap1\n      keccak256\n      0x00\n      swap1\n      sload\n      swap1\n      0x0100\n      exp\n      swap1\n      div\n      0xffffffffffffffffffffffffffffffffffffffff\n      and\n        /* \"FlightGuard/contracts/FlightGuardRegistry.sol\":4335:4374  return registeredAirlines[_airlineCode] */\n      swap1\n      pop\n        /* \"FlightGuard/contracts/FlightGuardRegistry.sol\":4237:4382  function getAirlineAddress(string memory _airlineCode) external view returns (address) {... */\n      swap2\n      swap1\n      pop\n      jump\t// out\n        /* \"FlightGuard/contracts/FlightGuardRegistry.sol\":3852:4032  function transferOwnership(address _newOwner) external onlyOwner {... */\n    tag_74:\n        /* \"FlightGuard/contracts/FlightGuardRegistry.sol\":1229:1234  owner */\n      0x03\n      0x00\n      swap1\n      sload\n      swap1\n      0x0100\n      exp\n      swap1\n      div\n      0xffffffffffffffffffffffffffffffffffffffff\n      and\n        /* \"FlightGuard/contracts/FlightGuardRegistry.sol\":1215:1234  msg.sender == owner */\n      0xffffffffffffffffffffffffffffffffffffffff\n      and\n        /* \"FlightGuard/contracts/FlightGuardRegistry.sol\":1215:1225  msg.sender */\n      caller\n        /* \"FlightGuard/contracts/FlightGuardRegistry.sol\":1215:1234  msg.sender == owner */\n      0xffffffffffffffffffffffffffffffffffffffff\n      and\n      eq\n        /* \"FlightGuard/contracts/FlightGuardRegistry.sol\":1207:1272  require(msg.sender == owner, \"Only owner can call this function\") */\n      tag_108\n      jumpi\n      mload(0x40)\n      0x08c379a000000000000000000000000000000000000000000000000000000000\n      dup2\n      mstore\n      0x04\n      add\n      tag_109\n      swap1\n      tag_78\n      jump\t// in\n    tag_109:\n      mload(0x40)\n      dup1\n      swap2\n      sub\n      swap1\n      revert\n    tag_108:\n        /* \"FlightGuard/contracts/FlightGuardRegistry.sol\":3957:3958  0 */\n      0x00\n        /* \"FlightGuard/contracts/FlightGuardRegistry.sol\":3936:3959  _newOwner != address(0) */\n      0xffffffffffffffffffffffffffffffffffffffff\n      and\n        /* \"FlightGuard/contracts/FlightGuardRegistry.sol\":3936:3945  _newOwner */\n      dup2\n        /* \"FlightGuard/contracts/FlightGuardRegistry.sol\":3936:3959  _newOwner != address(0) */\n      0xffffffffffffffffffffffffffffffffffffffff\n      and\n      sub\n        /* \"FlightGuard/contracts/FlightGuardRegistry.sol\":3928:3996  require(_newOwner != address(0), \"New owner cannot be zero address\") */\n      tag_111\n      jumpi\n      mload(0x40)\n      0x08c379a000000000000000000000000000000000000000000000000000000000\n      dup2\n      mstore\n      0x04\n      add\n      tag_112\n      swap1\n      tag_113\n      jump\t// in\n    tag_112:\n      mload(0x40)\n      dup1\n      swap2\n      sub\n      swap1\n      revert\n    tag_111:\n        /* \"FlightGuard/contracts/FlightGuardRegistry.sol\":4015:4024  _newOwner */\n      dup1\n        /* \"FlightGuard/contracts/FlightGuardRegistry.sol\":4007:4012  owner */\n      0x03\n      0x00\n        /* \"FlightGuard/contracts/FlightGuardRegistry.sol\":4007:4024  owner = _newOwner */\n      0x0100\n      exp\n      dup2\n      sload\n      dup2\n      0xffffffffffffffffffffffffffffffffffffffff\n      mul\n      not\n      and\n      swap1\n      dup4\n      0xffffffffffffffffffffffffffffffffffffffff\n      and\n      mul\n      or\n      swap1\n      sstore\n      pop\n        /* \"FlightGuard/contracts/FlightGuardRegistry.sol\":3852:4032  function transferOwnership(address _newOwner) external onlyOwner {... */\n      pop\n      jump\t// out\n        /* \"#utility.yul\":7:82   */\n    tag_114:\n        /* \"#utility.yul\":40:46   */\n      0x00\n        /* \"#utility.yul\":73:75   */\n      0x40\n        /* \"#utility.yul\":67:76   */\n      mload\n        /* \"#utility.yul\":57:76   */\n      swap1\n      pop\n        /* \"#utility.yul\":7:82   */\n      swap1\n      jump\t// out\n        /* \"#utility.yul\":88:205   */\n    tag_115:\n        /* \"#utility.yul\":197:198   */\n      0x00\n        /* \"#utility.yul\":194:195   */\n      dup1\n        /* \"#utility.yul\":187:199   */\n      revert\n        /* \"#utility.yul\":211:328   */\n    tag_116:\n        /* \"#utility.yul\":320:321   */\n      0x00\n        /* \"#utility.yul\":317:318   */\n      dup1\n        /* \"#utility.yul\":310:322   */\n      revert\n        /* \"#utility.yul\":334:460   */\n    tag_117:\n        /* \"#utility.yul\":371:378   */\n      0x00\n        /* \"#utility.yul\":411:453   */\n      0xffffffffffffffffffffffffffffffffffffffff\n        /* \"#utility.yul\":404:409   */\n      dup3\n        /* \"#utility.yul\":400:454   */\n      and\n        /* \"#utility.yul\":389:454   */\n      swap1\n      pop\n        /* \"#utility.yul\":334:460   */\n      swap2\n      swap1\n      pop\n      jump\t// out\n        /* \"#utility.yul\":466:562   */\n    tag_118:\n        /* \"#utility.yul\":503:510   */\n      0x00\n        /* \"#utility.yul\":532:556   */\n      tag_150\n        /* \"#utility.yul\":550:555   */\n      dup3\n        /* \"#utility.yul\":532:556   */\n      tag_117\n      jump\t// in\n    tag_150:\n        /* \"#utility.yul\":521:556   */\n      swap1\n      pop\n        /* \"#utility.yul\":466:562   */\n      swap2\n      swap1\n      pop\n      jump\t// out\n        /* \"#utility.yul\":568:690   */\n    tag_119:\n        /* \"#utility.yul\":641:665   */\n      tag_152\n        /* \"#utility.yul\":659:664   */\n      dup2\n        /* \"#utility.yul\":641:665   */\n      tag_118\n      jump\t// in\n    tag_152:\n        /* \"#utility.yul\":634:639   */\n      dup2\n        /* \"#utility.yul\":631:666   */\n      eq\n        /* \"#utility.yul\":621:684   */\n      tag_153\n      jumpi\n        /* \"#utility.yul\":680:681   */\n      0x00\n        /* \"#utility.yul\":677:678   */\n      dup1\n        /* \"#utility.yul\":670:682   */\n      revert\n        /* \"#utility.yul\":621:684   */\n    tag_153:\n        /* \"#utility.yul\":568:690   */\n      pop\n      jump\t// out\n        /* \"#utility.yul\":696:835   */\n    tag_120:\n        /* \"#utility.yul\":742:747   */\n      0x00\n        /* \"#utility.yul\":780:786   */\n      dup2\n        /* \"#utility.yul\":767:787   */\n      calldataload\n        /* \"#utility.yul\":758:787   */\n      swap1\n      pop\n        /* \"#utility.yul\":796:829   */\n      tag_155\n        /* \"#utility.yul\":823:828   */\n      dup2\n        /* \"#utility.yul\":796:829   */\n      tag_119\n      jump\t// in\n    tag_155:\n        /* \"#utility.yul\":696:835   */\n      swap3\n      swap2\n      pop\n      pop\n      jump\t// out\n        /* \"#utility.yul\":841:1170   */\n    tag_23:\n        /* \"#utility.yul\":900:906   */\n      0x00\n        /* \"#utility.yul\":949:951   */\n      0x20\n        /* \"#utility.yul\":937:946   */\n      dup3\n        /* \"#utility.yul\":928:935   */\n      dup5\n        /* \"#utility.yul\":924:947   */\n      sub\n        /* \"#utility.yul\":920:952   */\n      slt\n        /* \"#utility.yul\":917:1036   */\n      iszero\n      tag_157\n      jumpi\n        /* \"#utility.yul\":955:1034   */\n      tag_158\n      tag_115\n      jump\t// in\n    tag_158:\n        /* \"#utility.yul\":917:1036   */\n    tag_157:\n        /* \"#utility.yul\":1075:1076   */\n      0x00\n        /* \"#utility.yul\":1100:1153   */\n      tag_159\n        /* \"#utility.yul\":1145:1152   */\n      dup5\n        /* \"#utility.yul\":1136:1142   */\n      dup3\n        /* \"#utility.yul\":1125:1134   */\n      dup6\n        /* \"#utility.yul\":1121:1143   */\n      add\n        /* \"#utility.yul\":1100:1153   */\n      tag_120\n      jump\t// in\n    tag_159:\n        /* \"#utility.yul\":1090:1153   */\n      swap2\n      pop\n        /* \"#utility.yul\":1046:1163   */\n      pop\n        /* \"#utility.yul\":841:1170   */\n      swap3\n      swap2\n      pop\n      pop\n      jump\t// out\n        /* \"#utility.yul\":1176:1266   */\n    tag_121:\n        /* \"#utility.yul\":1210:1217   */\n      0x00\n        /* \"#utility.yul\":1253:1258   */\n      dup2\n        /* \"#utility.yul\":1246:1259   */\n      iszero\n        /* \"#utility.yul\":1239:1260   */\n      iszero\n        /* \"#utility.yul\":1228:1260   */\n      swap1\n      pop\n        /* \"#utility.yul\":1176:1266   */\n      swap2\n      swap1\n      pop\n      jump\t// out\n        /* \"#utility.yul\":1272:1381   */\n    tag_122:\n        /* \"#utility.yul\":1353:1374   */\n      tag_162\n        /* \"#utility.yul\":1368:1373   */\n      dup2\n        /* \"#utility.yul\":1353:1374   */\n      tag_121\n      jump\t// in\n    tag_162:\n        /* \"#utility.yul\":1348:1351   */\n      dup3\n        /* \"#utility.yul\":1341:1375   */\n      mstore\n        /* \"#utility.yul\":1272:1381   */\n      pop\n      pop\n      jump\t// out\n        /* \"#utility.yul\":1387:1597   */\n    tag_29:\n        /* \"#utility.yul\":1474:1478   */\n      0x00\n        /* \"#utility.yul\":1512:1514   */\n      0x20\n        /* \"#utility.yul\":1501:1510   */\n      dup3\n        /* \"#utility.yul\":1497:1515   */\n      add\n        /* \"#utility.yul\":1489:1515   */\n      swap1\n      pop\n        /* \"#utility.yul\":1525:1590   */\n      tag_164\n        /* \"#utility.yul\":1587:1588   */\n      0x00\n        /* \"#utility.yul\":1576:1585   */\n      dup4\n        /* \"#utility.yul\":1572:1589   */\n      add\n        /* \"#utility.yul\":1563:1569   */\n      dup5\n        /* \"#utility.yul\":1525:1590   */\n      tag_122\n      jump\t// in\n    tag_164:\n        /* \"#utility.yul\":1387:1597   */\n      swap3\n      swap2\n      pop\n      pop\n      jump\t// out\n        /* \"#utility.yul\":1603:1720   */\n    tag_123:\n        /* \"#utility.yul\":1712:1713   */\n      0x00\n        /* \"#utility.yul\":1709:1710   */\n      dup1\n        /* \"#utility.yul\":1702:1714   */\n      revert\n        /* \"#utility.yul\":1726:1843   */\n    tag_124:\n        /* \"#utility.yul\":1835:1836   */\n      0x00\n        /* \"#utility.yul\":1832:1833   */\n      dup1\n        /* \"#utility.yul\":1825:1837   */\n      revert\n        /* \"#utility.yul\":1849:1951   */\n    tag_125:\n        /* \"#utility.yul\":1890:1896   */\n      0x00\n        /* \"#utility.yul\":1941:1943   */\n      0x1f\n        /* \"#utility.yul\":1937:1944   */\n      not\n        /* \"#utility.yul\":1932:1934   */\n      0x1f\n        /* \"#utility.yul\":1925:1930   */\n      dup4\n        /* \"#utility.yul\":1921:1935   */\n      add\n        /* \"#utility.yul\":1917:1945   */\n      and\n        /* \"#utility.yul\":1907:1945   */\n      swap1\n      pop\n        /* \"#utility.yul\":1849:1951   */\n      swap2\n      swap1\n      pop\n      jump\t// out\n        /* \"#utility.yul\":1957:2137   */\n    tag_126:\n        /* \"#utility.yul\":2005:2082   */\n      0x4e487b7100000000000000000000000000000000000000000000000000000000\n        /* \"#utility.yul\":2002:2003   */\n      0x00\n        /* \"#utility.yul\":1995:2083   */\n      mstore\n        /* \"#utility.yul\":2102:2106   */\n      0x41\n        /* \"#utility.yul\":2099:2100   */\n      0x04\n        /* \"#utility.yul\":2092:2107   */\n      mstore\n        /* \"#utility.yul\":2126:2130   */\n      0x24\n        /* \"#utility.yul\":2123:2124   */\n      0x00\n        /* \"#utility.yul\":2116:2131   */\n      revert\n        /* \"#utility.yul\":2143:2424   */\n    tag_127:\n        /* \"#utility.yul\":2226:2253   */\n      tag_170\n        /* \"#utility.yul\":2248:2252   */\n      dup3\n        /* \"#utility.yul\":2226:2253   */\n      tag_125\n      jump\t// in\n    tag_170:\n        /* \"#utility.yul\":2218:2224   */\n      dup2\n        /* \"#utility.yul\":2214:2254   */\n      add\n        /* \"#utility.yul\":2356:2362   */\n      dup2\n        /* \"#utility.yul\":2344:2354   */\n      dup2\n        /* \"#utility.yul\":2341:2363   */\n      lt\n        /* \"#utility.yul\":2320:2338   */\n      0xffffffffffffffff\n        /* \"#utility.yul\":2308:2318   */\n      dup3\n        /* \"#utility.yul\":2305:2339   */\n      gt\n        /* \"#utility.yul\":2302:2364   */\n      or\n        /* \"#utility.yul\":2299:2387   */\n      iszero\n      tag_171\n      jumpi\n        /* \"#utility.yul\":2367:2385   */\n      tag_172\n      tag_126\n      jump\t// in\n    tag_172:\n        /* \"#utility.yul\":2299:2387   */\n    tag_171:\n        /* \"#utility.yul\":2407:2417   */\n      dup1\n        /* \"#utility.yul\":2403:2405   */\n      0x40\n        /* \"#utility.yul\":2396:2418   */\n      mstore\n        /* \"#utility.yul\":2186:2424   */\n      pop\n        /* \"#utility.yul\":2143:2424   */\n      pop\n      pop\n      jump\t// out\n        /* \"#utility.yul\":2430:2559   */\n    tag_128:\n        /* \"#utility.yul\":2464:2470   */\n      0x00\n        /* \"#utility.yul\":2491:2511   */\n      tag_174\n      tag_114\n      jump\t// in\n    tag_174:\n        /* \"#utility.yul\":2481:2511   */\n      swap1\n      pop\n        /* \"#utility.yul\":2520:2553   */\n      tag_175\n        /* \"#utility.yul\":2548:2552   */\n      dup3\n        /* \"#utility.yul\":2540:2546   */\n      dup3\n        /* \"#utility.yul\":2520:2553   */\n      tag_127\n      jump\t// in\n    tag_175:\n        /* \"#utility.yul\":2430:2559   */\n      swap2\n      swap1\n      pop\n      jump\t// out\n        /* \"#utility.yul\":2565:2873   */\n    tag_129:\n        /* \"#utility.yul\":2627:2631   */\n      0x00\n        /* \"#utility.yul\":2717:2735   */\n      0xffffffffffffffff\n        /* \"#utility.yul\":2709:2715   */\n      dup3\n        /* \"#utility.yul\":2706:2736   */\n      gt\n        /* \"#utility.yul\":2703:2759   */\n      iszero\n      tag_177\n      jumpi\n        /* \"#utility.yul\":2739:2757   */\n      tag_178\n      tag_126\n      jump\t// in\n    tag_178:\n        /* \"#utility.yul\":2703:2759   */\n    tag_177:\n        /* \"#utility.yul\":2777:2806   */\n      tag_179\n        /* \"#utility.yul\":2799:2805   */\n      dup3\n        /* \"#utility.yul\":2777:2806   */\n      tag_125\n      jump\t// in\n    tag_179:\n        /* \"#utility.yul\":2769:2806   */\n      swap1\n      pop\n        /* \"#utility.yul\":2861:2865   */\n      0x20\n        /* \"#utility.yul\":2855:2859   */\n      dup2\n        /* \"#utility.yul\":2851:2866   */\n      add\n        /* \"#utility.yul\":2843:2866   */\n      swap1\n      pop\n        /* \"#utility.yul\":2565:2873   */\n      swap2\n      swap1\n      pop\n      jump\t// out\n        /* \"#utility.yul\":2879:3027   */\n    tag_130:\n        /* \"#utility.yul\":2977:2983   */\n      dup3\n        /* \"#utility.yul\":2972:2975   */\n      dup2\n        /* \"#utility.yul\":2967:2970   */\n      dup4\n        /* \"#utility.yul\":2954:2984   */\n      calldatacopy\n        /* \"#utility.yul\":3018:3019   */\n      0x00\n        /* \"#utility.yul\":3009:3015   */\n      dup4\n        /* \"#utility.yul\":3004:3007   */\n      dup4\n        /* \"#utility.yul\":3000:3016   */\n      add\n        /* \"#utility.yul\":2993:3020   */\n      mstore\n        /* \"#utility.yul\":2879:3027   */\n      pop\n      pop\n      pop\n      jump\t// out\n        /* \"#utility.yul\":3033:3458   */\n    tag_131:\n        /* \"#utility.yul\":3111:3116   */\n      0x00\n        /* \"#utility.yul\":3136:3202   */\n      tag_182\n        /* \"#utility.yul\":3152:3201   */\n      tag_183\n        /* \"#utility.yul\":3194:3200   */\n      dup5\n        /* \"#utility.yul\":3152:3201   */\n      tag_129\n      jump\t// in\n    tag_183:\n        /* \"#utility.yul\":3136:3202   */\n      tag_128\n      jump\t// in\n    tag_182:\n        /* \"#utility.yul\":3127:3202   */\n      swap1\n      pop\n        /* \"#utility.yul\":3225:3231   */\n      dup3\n        /* \"#utility.yul\":3218:3223   */\n      dup2\n        /* \"#utility.yul\":3211:3232   */\n      mstore\n        /* \"#utility.yul\":3263:3267   */\n      0x20\n        /* \"#utility.yul\":3256:3261   */\n      dup2\n        /* \"#utility.yul\":3252:3268   */\n      add\n        /* \"#utility.yul\":3301:3304   */\n      dup5\n        /* \"#utility.yul\":3292:3298   */\n      dup5\n        /* \"#utility.yul\":3287:3290   */\n      dup5\n        /* \"#utility.yul\":3283:3299   */\n      add\n        /* \"#utility.yul\":3280:3305   */\n      gt\n        /* \"#utility.yul\":3277:3389   */\n      iszero\n      tag_184\n      jumpi\n        /* \"#utility.yul\":3308:3387   */\n      tag_185\n      tag_124\n      jump\t// in\n    tag_185:\n        /* \"#utility.yul\":3277:3389   */\n    tag_184:\n        /* \"#utility.yul\":3398:3452   */\n      tag_186\n        /* \"#utility.yul\":3445:3451   */\n      dup5\n        /* \"#utility.yul\":3440:3443   */\n      dup3\n        /* \"#utility.yul\":3435:3438   */\n      dup6\n        /* \"#utility.yul\":3398:3452   */\n      tag_130\n      jump\t// in\n    tag_186:\n        /* \"#utility.yul\":3117:3458   */\n      pop\n        /* \"#utility.yul\":3033:3458   */\n      swap4\n      swap3\n      pop\n      pop\n      pop\n      jump\t// out\n        /* \"#utility.yul\":3478:3818   */\n    tag_132:\n        /* \"#utility.yul\":3534:3539   */\n      0x00\n        /* \"#utility.yul\":3583:3586   */\n      dup3\n        /* \"#utility.yul\":3576:3580   */\n      0x1f\n        /* \"#utility.yul\":3568:3574   */\n      dup4\n        /* \"#utility.yul\":3564:3581   */\n      add\n        /* \"#utility.yul\":3560:3587   */\n      slt\n        /* \"#utility.yul\":3550:3672   */\n      tag_188\n      jumpi\n        /* \"#utility.yul\":3591:3670   */\n      tag_189\n      tag_123\n      jump\t// in\n    tag_189:\n        /* \"#utility.yul\":3550:3672   */\n    tag_188:\n        /* \"#utility.yul\":3708:3714   */\n      dup2\n        /* \"#utility.yul\":3695:3715   */\n      calldataload\n        /* \"#utility.yul\":3733:3812   */\n      tag_190\n        /* \"#utility.yul\":3808:3811   */\n      dup5\n        /* \"#utility.yul\":3800:3806   */\n      dup3\n        /* \"#utility.yul\":3793:3797   */\n      0x20\n        /* \"#utility.yul\":3785:3791   */\n      dup7\n        /* \"#utility.yul\":3781:3798   */\n      add\n        /* \"#utility.yul\":3733:3812   */\n      tag_131\n      jump\t// in\n    tag_190:\n        /* \"#utility.yul\":3724:3812   */\n      swap2\n      pop\n        /* \"#utility.yul\":3540:3818   */\n      pop\n        /* \"#utility.yul\":3478:3818   */\n      swap3\n      swap2\n      pop\n      pop\n      jump\t// out\n        /* \"#utility.yul\":3824:4478   */\n    tag_32:\n        /* \"#utility.yul\":3902:3908   */\n      0x00\n        /* \"#utility.yul\":3910:3916   */\n      dup1\n        /* \"#utility.yul\":3959:3961   */\n      0x40\n        /* \"#utility.yul\":3947:3956   */\n      dup4\n        /* \"#utility.yul\":3938:3945   */\n      dup6\n        /* \"#utility.yul\":3934:3957   */\n      sub\n        /* \"#utility.yul\":3930:3962   */\n      slt\n        /* \"#utility.yul\":3927:4046   */\n      iszero\n      tag_192\n      jumpi\n        /* \"#utility.yul\":3965:4044   */\n      tag_193\n      tag_115\n      jump\t// in\n    tag_193:\n        /* \"#utility.yul\":3927:4046   */\n    tag_192:\n        /* \"#utility.yul\":4113:4114   */\n      0x00\n        /* \"#utility.yul\":4102:4111   */\n      dup4\n        /* \"#utility.yul\":4098:4115   */\n      add\n        /* \"#utility.yul\":4085:4116   */\n      calldataload\n        /* \"#utility.yul\":4143:4161   */\n      0xffffffffffffffff\n        /* \"#utility.yul\":4135:4141   */\n      dup2\n        /* \"#utility.yul\":4132:4162   */\n      gt\n        /* \"#utility.yul\":4129:4246   */\n      iszero\n      tag_194\n      jumpi\n        /* \"#utility.yul\":4165:4244   */\n      tag_195\n      tag_116\n      jump\t// in\n    tag_195:\n        /* \"#utility.yul\":4129:4246   */\n    tag_194:\n        /* \"#utility.yul\":4270:4333   */\n      tag_196\n        /* \"#utility.yul\":4325:4332   */\n      dup6\n        /* \"#utility.yul\":4316:4322   */\n      dup3\n        /* \"#utility.yul\":4305:4314   */\n      dup7\n        /* \"#utility.yul\":4301:4323   */\n      add\n        /* \"#utility.yul\":4270:4333   */\n      tag_132\n      jump\t// in\n    tag_196:\n        /* \"#utility.yul\":4260:4333   */\n      swap3\n      pop\n        /* \"#utility.yul\":4056:4343   */\n      pop\n        /* \"#utility.yul\":4382:4384   */\n      0x20\n        /* \"#utility.yul\":4408:4461   */\n      tag_197\n        /* \"#utility.yul\":4453:4460   */\n      dup6\n        /* \"#utility.yul\":4444:4450   */\n      dup3\n        /* \"#utility.yul\":4433:4442   */\n      dup7\n        /* \"#utility.yul\":4429:4451   */\n      add\n        /* \"#utility.yul\":4408:4461   */\n      tag_120\n      jump\t// in\n    tag_197:\n        /* \"#utility.yul\":4398:4461   */\n      swap2\n      pop\n        /* \"#utility.yul\":4353:4471   */\n      pop\n        /* \"#utility.yul\":3824:4478   */\n      swap3\n      pop\n      swap3\n      swap1\n      pop\n      jump\t// out\n        /* \"#utility.yul\":4484:4602   */\n    tag_133:\n        /* \"#utility.yul\":4571:4595   */\n      tag_199\n        /* \"#utility.yul\":4589:4594   */\n      dup2\n        /* \"#utility.yul\":4571:4595   */\n      tag_118\n      jump\t// in\n    tag_199:\n        /* \"#utility.yul\":4566:4569   */\n      dup3\n        /* \"#utility.yul\":4559:4596   */\n      mstore\n        /* \"#utility.yul\":4484:4602   */\n      pop\n      pop\n      jump\t// out\n        /* \"#utility.yul\":4608:4830   */\n    tag_40:\n        /* \"#utility.yul\":4701:4705   */\n      0x00\n        /* \"#utility.yul\":4739:4741   */\n      0x20\n        /* \"#utility.yul\":4728:4737   */\n      dup3\n        /* \"#utility.yul\":4724:4742   */\n      add\n        /* \"#utility.yul\":4716:4742   */\n      swap1\n      pop\n        /* \"#utility.yul\":4752:4823   */\n      tag_201\n        /* \"#utility.yul\":4820:4821   */\n      0x00\n        /* \"#utility.yul\":4809:4818   */\n      dup4\n        /* \"#utility.yul\":4805:4822   */\n      add\n        /* \"#utility.yul\":4796:4802   */\n      dup5\n        /* \"#utility.yul\":4752:4823   */\n      tag_133\n      jump\t// in\n    tag_201:\n        /* \"#utility.yul\":4608:4830   */\n      swap3\n      swap2\n      pop\n      pop\n      jump\t// out\n        /* \"#utility.yul\":4836:5345   */\n    tag_55:\n        /* \"#utility.yul\":4905:4911   */\n      0x00\n        /* \"#utility.yul\":4954:4956   */\n      0x20\n        /* \"#utility.yul\":4942:4951   */\n      dup3\n        /* \"#utility.yul\":4933:4940   */\n      dup5\n        /* \"#utility.yul\":4929:4952   */\n      sub\n        /* \"#utility.yul\":4925:4957   */\n      slt\n        /* \"#utility.yul\":4922:5041   */\n      iszero\n      tag_203\n      jumpi\n        /* \"#utility.yul\":4960:5039   */\n      tag_204\n      tag_115\n      jump\t// in\n    tag_204:\n        /* \"#utility.yul\":4922:5041   */\n    tag_203:\n        /* \"#utility.yul\":5108:5109   */\n      0x00\n        /* \"#utility.yul\":5097:5106   */\n      dup3\n        /* \"#utility.yul\":5093:5110   */\n      add\n        /* \"#utility.yul\":5080:5111   */\n      calldataload\n        /* \"#utility.yul\":5138:5156   */\n      0xffffffffffffffff\n        /* \"#utility.yul\":5130:5136   */\n      dup2\n        /* \"#utility.yul\":5127:5157   */\n      gt\n        /* \"#utility.yul\":5124:5241   */\n      iszero\n      tag_205\n      jumpi\n        /* \"#utility.yul\":5160:5239   */\n      tag_206\n      tag_116\n      jump\t// in\n    tag_206:\n        /* \"#utility.yul\":5124:5241   */\n    tag_205:\n        /* \"#utility.yul\":5265:5328   */\n      tag_207\n        /* \"#utility.yul\":5320:5327   */\n      dup5\n        /* \"#utility.yul\":5311:5317   */\n      dup3\n        /* \"#utility.yul\":5300:5309   */\n      dup6\n        /* \"#utility.yul\":5296:5318   */\n      add\n        /* \"#utility.yul\":5265:5328   */\n      tag_132\n      jump\t// in\n    tag_207:\n        /* \"#utility.yul\":5255:5328   */\n      swap2\n      pop\n        /* \"#utility.yul\":5051:5338   */\n      pop\n        /* \"#utility.yul\":4836:5345   */\n      swap3\n      swap2\n      pop\n      pop\n      jump\t// out\n        /* \"#utility.yul\":5351:5520   */\n    tag_134:\n        /* \"#utility.yul\":5435:5446   */\n      0x00\n        /* \"#utility.yul\":5469:5475   */\n      dup3\n        /* \"#utility.yul\":5464:5467   */\n      dup3\n        /* \"#utility.yul\":5457:5476   */\n      mstore\n        /* \"#utility.yul\":5509:5513   */\n      0x20\n        /* \"#utility.yul\":5504:5507   */\n      dup3\n        /* \"#utility.yul\":5500:5514   */\n      add\n        /* \"#utility.yul\":5485:5514   */\n      swap1\n      pop\n        /* \"#utility.yul\":5351:5520   */\n      swap3\n      swap2\n      pop\n      pop\n      jump\t// out\n        /* \"#utility.yul\":5526:5746   */\n    tag_135:\n        /* \"#utility.yul\":5666:5700   */\n      0x4f6e6c79206f776e65722063616e2063616c6c20746869732066756e6374696f\n        /* \"#utility.yul\":5662:5663   */\n      0x00\n        /* \"#utility.yul\":5654:5660   */\n      dup3\n        /* \"#utility.yul\":5650:5664   */\n      add\n        /* \"#utility.yul\":5643:5701   */\n      mstore\n        /* \"#utility.yul\":5735:5738   */\n      0x6e00000000000000000000000000000000000000000000000000000000000000\n        /* \"#utility.yul\":5730:5732   */\n      0x20\n        /* \"#utility.yul\":5722:5728   */\n      dup3\n        /* \"#utility.yul\":5718:5733   */\n      add\n        /* \"#utility.yul\":5711:5739   */\n      mstore\n        /* \"#utility.yul\":5526:5746   */\n      pop\n      jump\t// out\n        /* \"#utility.yul\":5752:6118   */\n    tag_136:\n        /* \"#utility.yul\":5894:5897   */\n      0x00\n        /* \"#utility.yul\":5915:5982   */\n      tag_211\n        /* \"#utility.yul\":5979:5981   */\n      0x21\n        /* \"#utility.yul\":5974:5977   */\n      dup4\n        /* \"#utility.yul\":5915:5982   */\n      tag_134\n      jump\t// in\n    tag_211:\n        /* \"#utility.yul\":5908:5982   */\n      swap2\n      pop\n        /* \"#utility.yul\":5991:6084   */\n      tag_212\n        /* \"#utility.yul\":6080:6083   */\n      dup3\n        /* \"#utility.yul\":5991:6084   */\n      tag_135\n      jump\t// in\n    tag_212:\n        /* \"#utility.yul\":6109:6111   */\n      0x40\n        /* \"#utility.yul\":6104:6107   */\n      dup3\n        /* \"#utility.yul\":6100:6112   */\n      add\n        /* \"#utility.yul\":6093:6112   */\n      swap1\n      pop\n        /* \"#utility.yul\":5752:6118   */\n      swap2\n      swap1\n      pop\n      jump\t// out\n        /* \"#utility.yul\":6124:6543   */\n    tag_78:\n        /* \"#utility.yul\":6290:6294   */\n      0x00\n        /* \"#utility.yul\":6328:6330   */\n      0x20\n        /* \"#utility.yul\":6317:6326   */\n      dup3\n        /* \"#utility.yul\":6313:6331   */\n      add\n        /* \"#utility.yul\":6305:6331   */\n      swap1\n      pop\n        /* \"#utility.yul\":6377:6386   */\n      dup2\n        /* \"#utility.yul\":6371:6375   */\n      dup2\n        /* \"#utility.yul\":6367:6387   */\n      sub\n        /* \"#utility.yul\":6363:6364   */\n      0x00\n        /* \"#utility.yul\":6352:6361   */\n      dup4\n        /* \"#utility.yul\":6348:6365   */\n      add\n        /* \"#utility.yul\":6341:6388   */\n      mstore\n        /* \"#utility.yul\":6405:6536   */\n      tag_214\n        /* \"#utility.yul\":6531:6535   */\n      dup2\n        /* \"#utility.yul\":6405:6536   */\n      tag_136\n      jump\t// in\n    tag_214:\n        /* \"#utility.yul\":6397:6536   */\n      swap1\n      pop\n        /* \"#utility.yul\":6124:6543   */\n      swap2\n      swap1\n      pop\n      jump\t// out\n        /* \"#utility.yul\":6549:6648   */\n    tag_137:\n        /* \"#utility.yul\":6601:6607   */\n      0x00\n        /* \"#utility.yul\":6635:6640   */\n      dup2\n        /* \"#utility.yul\":6629:6641   */\n      mload\n        /* \"#utility.yul\":6619:6641   */\n      swap1\n      pop\n        /* \"#utility.yul\":6549:6648   */\n      swap2\n      swap1\n      pop\n      jump\t// out\n        /* \"#utility.yul\":6654:6802   */\n    tag_138:\n        /* \"#utility.yul\":6756:6767   */\n      0x00\n        /* \"#utility.yul\":6793:6796   */\n      dup2\n        /* \"#utility.yul\":6778:6796   */\n      swap1\n      pop\n        /* \"#utility.yul\":6654:6802   */\n      swap3\n      swap2\n      pop\n      pop\n      jump\t// out\n        /* \"#utility.yul\":6808:6947   */\n    tag_139:\n        /* \"#utility.yul\":6897:6903   */\n      dup3\n        /* \"#utility.yul\":6892:6895   */\n      dup2\n        /* \"#utility.yul\":6887:6890   */\n      dup4\n        /* \"#utility.yul\":6881:6904   */\n      mcopy\n        /* \"#utility.yul\":6938:6939   */\n      0x00\n        /* \"#utility.yul\":6929:6935   */\n      dup4\n        /* \"#utility.yul\":6924:6927   */\n      dup4\n        /* \"#utility.yul\":6920:6936   */\n      add\n        /* \"#utility.yul\":6913:6940   */\n      mstore\n        /* \"#utility.yul\":6808:6947   */\n      pop\n      pop\n      pop\n      jump\t// out\n        /* \"#utility.yul\":6953:7343   */\n    tag_140:\n        /* \"#utility.yul\":7059:7062   */\n      0x00\n        /* \"#utility.yul\":7087:7126   */\n      tag_219\n        /* \"#utility.yul\":7120:7125   */\n      dup3\n        /* \"#utility.yul\":7087:7126   */\n      tag_137\n      jump\t// in\n    tag_219:\n        /* \"#utility.yul\":7142:7231   */\n      tag_220\n        /* \"#utility.yul\":7224:7230   */\n      dup2\n        /* \"#utility.yul\":7219:7222   */\n      dup6\n        /* \"#utility.yul\":7142:7231   */\n      tag_138\n      jump\t// in\n    tag_220:\n        /* \"#utility.yul\":7135:7231   */\n      swap4\n      pop\n        /* \"#utility.yul\":7240:7305   */\n      tag_221\n        /* \"#utility.yul\":7298:7304   */\n      dup2\n        /* \"#utility.yul\":7293:7296   */\n      dup6\n        /* \"#utility.yul\":7286:7290   */\n      0x20\n        /* \"#utility.yul\":7279:7284   */\n      dup7\n        /* \"#utility.yul\":7275:7291   */\n      add\n        /* \"#utility.yul\":7240:7305   */\n      tag_139\n      jump\t// in\n    tag_221:\n        /* \"#utility.yul\":7330:7336   */\n      dup1\n        /* \"#utility.yul\":7325:7328   */\n      dup5\n        /* \"#utility.yul\":7321:7337   */\n      add\n        /* \"#utility.yul\":7314:7337   */\n      swap2\n      pop\n        /* \"#utility.yul\":7063:7343   */\n      pop\n        /* \"#utility.yul\":6953:7343   */\n      swap3\n      swap2\n      pop\n      pop\n      jump\t// out\n        /* \"#utility.yul\":7349:7624   */\n    tag_86:\n        /* \"#utility.yul\":7481:7484   */\n      0x00\n        /* \"#utility.yul\":7503:7598   */\n      tag_223\n        /* \"#utility.yul\":7594:7597   */\n      dup3\n        /* \"#utility.yul\":7585:7591   */\n      dup5\n        /* \"#utility.yul\":7503:7598   */\n      tag_140\n      jump\t// in\n    tag_223:\n        /* \"#utility.yul\":7496:7598   */\n      swap2\n      pop\n        /* \"#utility.yul\":7615:7618   */\n      dup2\n        /* \"#utility.yul\":7608:7618   */\n      swap1\n      pop\n        /* \"#utility.yul\":7349:7624   */\n      swap3\n      swap2\n      pop\n      pop\n      jump\t// out\n        /* \"#utility.yul\":7630:8007   */\n    tag_141:\n        /* \"#utility.yul\":7718:7721   */\n      0x00\n        /* \"#utility.yul\":7746:7785   */\n      tag_225\n        /* \"#utility.yul\":7779:7784   */\n      dup3\n        /* \"#utility.yul\":7746:7785   */\n      tag_137\n      jump\t// in\n    tag_225:\n        /* \"#utility.yul\":7801:7872   */\n      tag_226\n        /* \"#utility.yul\":7865:7871   */\n      dup2\n        /* \"#utility.yul\":7860:7863   */\n      dup6\n        /* \"#utility.yul\":7801:7872   */\n      tag_134\n      jump\t// in\n    tag_226:\n        /* \"#utility.yul\":7794:7872   */\n      swap4\n      pop\n        /* \"#utility.yul\":7881:7946   */\n      tag_227\n        /* \"#utility.yul\":7939:7945   */\n      dup2\n        /* \"#utility.yul\":7934:7937   */\n      dup6\n        /* \"#utility.yul\":7927:7931   */\n      0x20\n        /* \"#utility.yul\":7920:7925   */\n      dup7\n        /* \"#utility.yul\":7916:7932   */\n      add\n        /* \"#utility.yul\":7881:7946   */\n      tag_139\n      jump\t// in\n    tag_227:\n        /* \"#utility.yul\":7971:8000   */\n      tag_228\n        /* \"#utility.yul\":7993:7999   */\n      dup2\n        /* \"#utility.yul\":7971:8000   */\n      tag_125\n      jump\t// in\n    tag_228:\n        /* \"#utility.yul\":7966:7969   */\n      dup5\n        /* \"#utility.yul\":7962:8001   */\n      add\n        /* \"#utility.yul\":7955:8001   */\n      swap2\n      pop\n        /* \"#utility.yul\":7722:8007   */\n      pop\n        /* \"#utility.yul\":7630:8007   */\n      swap3\n      swap2\n      pop\n      pop\n      jump\t// out\n        /* \"#utility.yul\":8013:8436   */\n    tag_88:\n        /* \"#utility.yul\":8154:8158   */\n      0x00\n        /* \"#utility.yul\":8192:8194   */\n      0x40\n        /* \"#utility.yul\":8181:8190   */\n      dup3\n        /* \"#utility.yul\":8177:8195   */\n      add\n        /* \"#utility.yul\":8169:8195   */\n      swap1\n      pop\n        /* \"#utility.yul\":8241:8250   */\n      dup2\n        /* \"#utility.yul\":8235:8239   */\n      dup2\n        /* \"#utility.yul\":8231:8251   */\n      sub\n        /* \"#utility.yul\":8227:8228   */\n      0x00\n        /* \"#utility.yul\":8216:8225   */\n      dup4\n        /* \"#utility.yul\":8212:8229   */\n      add\n        /* \"#utility.yul\":8205:8252   */\n      mstore\n        /* \"#utility.yul\":8269:8347   */\n      tag_230\n        /* \"#utility.yul\":8342:8346   */\n      dup2\n        /* \"#utility.yul\":8333:8339   */\n      dup6\n        /* \"#utility.yul\":8269:8347   */\n      tag_141\n      jump\t// in\n    tag_230:\n        /* \"#utility.yul\":8261:8347   */\n      swap1\n      pop\n        /* \"#utility.yul\":8357:8429   */\n      tag_231\n        /* \"#utility.yul\":8425:8427   */\n      0x20\n        /* \"#utility.yul\":8414:8423   */\n      dup4\n        /* \"#utility.yul\":8410:8428   */\n      add\n        /* \"#utility.yul\":8401:8407   */\n      dup5\n        /* \"#utility.yul\":8357:8429   */\n      tag_133\n      jump\t// in\n    tag_231:\n        /* \"#utility.yul\":8013:8436   */\n      swap4\n      swap3\n      pop\n      pop\n      pop\n      jump\t// out\n        /* \"#utility.yul\":8442:8624   */\n    tag_142:\n        /* \"#utility.yul\":8582:8616   */\n      0x4e6577206f776e65722063616e6e6f74206265207a65726f2061646472657373\n        /* \"#utility.yul\":8578:8579   */\n      0x00\n        /* \"#utility.yul\":8570:8576   */\n      dup3\n        /* \"#utility.yul\":8566:8580   */\n      add\n        /* \"#utility.yul\":8559:8617   */\n      mstore\n        /* \"#utility.yul\":8442:8624   */\n      pop\n      jump\t// out\n        /* \"#utility.yul\":8630:8996   */\n    tag_143:\n        /* \"#utility.yul\":8772:8775   */\n      0x00\n        /* \"#utility.yul\":8793:8860   */\n      tag_234\n        /* \"#utility.yul\":8857:8859   */\n      0x20\n        /* \"#utility.yul\":8852:8855   */\n      dup4\n        /* \"#utility.yul\":8793:8860   */\n      tag_134\n      jump\t// in\n    tag_234:\n        /* \"#utility.yul\":8786:8860   */\n      swap2\n      pop\n        /* \"#utility.yul\":8869:8962   */\n      tag_235\n        /* \"#utility.yul\":8958:8961   */\n      dup3\n        /* \"#utility.yul\":8869:8962   */\n      tag_142\n      jump\t// in\n    tag_235:\n        /* \"#utility.yul\":8987:8989   */\n      0x20\n        /* \"#utility.yul\":8982:8985   */\n      dup3\n        /* \"#utility.yul\":8978:8990   */\n      add\n        /* \"#utility.yul\":8971:8990   */\n      swap1\n      pop\n        /* \"#utility.yul\":8630:8996   */\n      swap2\n      swap1\n      pop\n      jump\t// out\n        /* \"#utility.yul\":9002:9421   */\n    tag_113:\n        /* \"#utility.yul\":9168:9172   */\n      0x00\n        /* \"#utility.yul\":9206:9208   */\n      0x20\n        /* \"#utility.yul\":9195:9204   */\n      dup3\n        /* \"#utility.yul\":9191:9209   */\n      add\n        /* \"#utility.yul\":9183:9209   */\n      swap1\n      pop\n        /* \"#utility.yul\":9255:9264   */\n      dup2\n        /* \"#utility.yul\":9249:9253   */\n      dup2\n        /* \"#utility.yul\":9245:9265   */\n      sub\n        /* \"#utility.yul\":9241:9242   */\n      0x00\n        /* \"#utility.yul\":9230:9239   */\n      dup4\n        /* \"#utility.yul\":9226:9243   */\n      add\n        /* \"#utility.yul\":9219:9266   */\n      mstore\n        /* \"#utility.yul\":9283:9414   */\n      tag_237\n        /* \"#utility.yul\":9409:9413   */\n      dup2\n        /* \"#utility.yul\":9283:9414   */\n      tag_143\n      jump\t// in\n    tag_237:\n        /* \"#utility.yul\":9275:9414   */\n      swap1\n      pop\n        /* \"#utility.yul\":9002:9421   */\n      swap2\n      swap1\n      pop\n      jump\t// out\n\n    auxdata: 0xa26469706673582212206c535bf1aeb4f6fc520a63120160534c313e4135b935e21529db71702f55507b64736f6c634300081a0033\n}\n",
				"bytecode": {
					"linkReferences": {},
					"object": "6080604052348015600e575f80fd5b503360035f6101000a81548173ffffffffffffffffffffffffffffffffffffffff021916908373ffffffffffffffffffffffffffffffffffffffff1602179055506111538061005c5f395ff3fe608060405234801561000f575f80fd5b50600436106100f3575f3560e01c806385c896c011610095578063bbcd5bbe11610064578063bbcd5bbe1461026f578063d8cc7b1e1461028b578063eef2671a146102a7578063f2fde38b146102d7576100f3565b806385c896c0146101d55780638da5cb5b146101f15780638e30d1991461020f578063b546230d1461023f576100f3565b8063100e3c69116100d1578063100e3c691461015f5780631d8ef0fe1461017b57806355a373d6146101995780637ff06357146101b7576100f3565b806301877020146100f757806309ca5009146101135780630e2c412914610143575b5f80fd5b610111600480360381019061010c9190610ce6565b6102f3565b005b61012d60048036038101906101289190610ce6565b610408565b60405161013a9190610d2b565b60405180910390f35b61015d60048036038101906101589190610e80565b61045a565b005b61017960048036038101906101749190610ce6565b610582565b005b6101836106ac565b6040516101909190610ee9565b60405180910390f35b6101a16106d1565b6040516101ae9190610ee9565b60405180910390f35b6101bf6106f6565b6040516101cc9190610ee9565b60405180910390f35b6101ef60048036038101906101ea9190610ce6565b610719565b005b6101f961082d565b6040516102069190610ee9565b60405180910390f35b61022960048036038101906102249190610f02565b610852565b6040516102369190610ee9565b60405180910390f35b61025960048036038101906102549190610ce6565b61089a565b6040516102669190610d2b565b60405180910390f35b61028960048036038101906102849190610ce6565b6108b7565b005b6102a560048036038101906102a09190610ce6565b6109cc565b005b6102c160048036038101906102bc9190610f02565b610af5565b6040516102ce9190610ee9565b60405180910390f35b6102f160048036038101906102ec9190610ce6565b610b3b565b005b60035f9054906101000a900473ffffffffffffffffffffffffffffffffffffffff1673ffffffffffffffffffffffffffffffffffffffff163373ffffffffffffffffffffffffffffffffffffffff1614610382576040517f08c379a000000000000000000000000000000000000000000000000000000000815260040161037990610fc9565b60405180910390fd5b8060025f6101000a81548173ffffffffffffffffffffffffffffffffffffffff021916908373ffffffffffffffffffffffffffffffffffffffff1602179055508073ffffffffffffffffffffffffffffffffffffffff167fedf1a035d265f6321083031b40acf4e5e06cd3e2e2025192fd308409b13b44c660405160405180910390a250565b5f60055f8373ffffffffffffffffffffffffffffffffffffffff1673ffffffffffffffffffffffffffffffffffffffff1681526020019081526020015f205f9054906101000a900460ff169050919050565b60035f9054906101000a900473ffffffffffffffffffffffffffffffffffffffff1673ffffffffffffffffffffffffffffffffffffffff163373ffffffffffffffffffffffffffffffffffffffff16146104e9576040517f08c379a00000000000000000000000000000000000000000000000000000000081526004016104e090610fc9565b60405180910390fd5b806004836040516104fa9190611039565b90815260200160405180910390205f6101000a81548173ffffffffffffffffffffffffffffffffffffffff021916908373ffffffffffffffffffffffffffffffffffffffff1602179055507f4389233d1d7e817e3a41447176300b89c596c24ed4d58896d501ddb378abe2c48282604051610576929190611087565b60405180910390a15050565b60035f9054906101000a900473ffffffffffffffffffffffffffffffffffffffff1673ffffffffffffffffffffffffffffffffffffffff163373ffffffffffffffffffffffffffffffffffffffff1614610611576040517f08c379a000000000000000000000000000000000000000000000000000000000815260040161060890610fc9565b60405180910390fd5b600160055f8373ffffffffffffffffffffffffffffffffffffffff1673ffffffffffffffffffffffffffffffffffffffff1681526020019081526020015f205f6101000a81548160ff0219169083151502179055508073ffffffffffffffffffffffffffffffffffffffff167ffe2e4eb88c03ccd5fb359dad5ee18023085e2f7c126b9b38986b4873527035f060405160405180910390a250565b60025f9054906101000a900473ffffffffffffffffffffffffffffffffffffffff1681565b60015f9054906101000a900473ffffffffffffffffffffffffffffffffffffffff1681565b5f8054906101000a900473ffffffffffffffffffffffffffffffffffffffff1681565b60035f9054906101000a900473ffffffffffffffffffffffffffffffffffffffff1673ffffffffffffffffffffffffffffffffffffffff163373ffffffffffffffffffffffffffffffffffffffff16146107a8576040517f08c379a000000000000000000000000000000000000000000000000000000000815260040161079f90610fc9565b60405180910390fd5b805f806101000a81548173ffffffffffffffffffffffffffffffffffffffff021916908373ffffffffffffffffffffffffffffffffffffffff1602179055508073ffffffffffffffffffffffffffffffffffffffff167f5611697d580ee62038b9c5dfd31bb9a5e15f50015ffb5b52ea242502b9c541c260405160405180910390a250565b60035f9054906101000a900473ffffffffffffffffffffffffffffffffffffffff1681565b6004818051602081018201805184825260208301602085012081835280955050505050505f915054906101000a900473ffffffffffffffffffffffffffffffffffffffff1681565b6005602052805f5260405f205f915054906101000a900460ff1681565b60035f9054906101000a900473ffffffffffffffffffffffffffffffffffffffff1673ffffffffffffffffffffffffffffffffffffffff163373ffffffffffffffffffffffffffffffffffffffff1614610946576040517f08c379a000000000000000000000000000000000000000000000000000000000815260040161093d90610fc9565b60405180910390fd5b8060015f6101000a81548173ffffffffffffffffffffffffffffffffffffffff021916908373ffffffffffffffffffffffffffffffffffffffff1602179055508073ffffffffffffffffffffffffffffffffffffffff167f23d5823548e4652c04b1d029323232659612a32681d27872dd94b8d6b97ce6b160405160405180910390a250565b60035f9054906101000a900473ffffffffffffffffffffffffffffffffffffffff1673ffffffffffffffffffffffffffffffffffffffff163373ffffffffffffffffffffffffffffffffffffffff1614610a5b576040517f08c379a0000000000000000000000000000000000000000000000000000000008152600401610a5290610fc9565b60405180910390fd5b5f60055f8373ffffffffffffffffffffffffffffffffffffffff1673ffffffffffffffffffffffffffffffffffffffff1681526020019081526020015f205f6101000a81548160ff0219169083151502179055508073ffffffffffffffffffffffffffffffffffffffff167f3ce717c8af1cdbd087f73a2fd3985608199a50791fcc8dc25bc05365c6ef088560405160405180910390a250565b5f600482604051610b069190611039565b90815260200160405180910390205f9054906101000a900473ffffffffffffffffffffffffffffffffffffffff169050919050565b60035f9054906101000a900473ffffffffffffffffffffffffffffffffffffffff1673ffffffffffffffffffffffffffffffffffffffff163373ffffffffffffffffffffffffffffffffffffffff1614610bca576040517f08c379a0000000000000000000000000000000000000000000000000000000008152600401610bc190610fc9565b60405180910390fd5b5f73ffffffffffffffffffffffffffffffffffffffff168173ffffffffffffffffffffffffffffffffffffffff1603610c38576040517f08c379a0000000000000000000000000000000000000000000000000000000008152600401610c2f906110ff565b60405180910390fd5b8060035f6101000a81548173ffffffffffffffffffffffffffffffffffffffff021916908373ffffffffffffffffffffffffffffffffffffffff16021790555050565b5f604051905090565b5f80fd5b5f80fd5b5f73ffffffffffffffffffffffffffffffffffffffff82169050919050565b5f610cb582610c8c565b9050919050565b610cc581610cab565b8114610ccf575f80fd5b50565b5f81359050610ce081610cbc565b92915050565b5f60208284031215610cfb57610cfa610c84565b5b5f610d0884828501610cd2565b91505092915050565b5f8115159050919050565b610d2581610d11565b82525050565b5f602082019050610d3e5f830184610d1c565b92915050565b5f80fd5b5f80fd5b5f601f19601f8301169050919050565b7f4e487b71000000000000000000000000000000000000000000000000000000005f52604160045260245ffd5b610d9282610d4c565b810181811067ffffffffffffffff82111715610db157610db0610d5c565b5b80604052505050565b5f610dc3610c7b565b9050610dcf8282610d89565b919050565b5f67ffffffffffffffff821115610dee57610ded610d5c565b5b610df782610d4c565b9050602081019050919050565b828183375f83830152505050565b5f610e24610e1f84610dd4565b610dba565b905082815260208101848484011115610e4057610e3f610d48565b5b610e4b848285610e04565b509392505050565b5f82601f830112610e6757610e66610d44565b5b8135610e77848260208601610e12565b91505092915050565b5f8060408385031215610e9657610e95610c84565b5b5f83013567ffffffffffffffff811115610eb357610eb2610c88565b5b610ebf85828601610e53565b9250506020610ed085828601610cd2565b9150509250929050565b610ee381610cab565b82525050565b5f602082019050610efc5f830184610eda565b92915050565b5f60208284031215610f1757610f16610c84565b5b5f82013567ffffffffffffffff811115610f3457610f33610c88565b5b610f4084828501610e53565b91505092915050565b5f82825260208201905092915050565b7f4f6e6c79206f776e65722063616e2063616c6c20746869732066756e6374696f5f8201527f6e00000000000000000000000000000000000000000000000000000000000000602082015250565b5f610fb3602183610f49565b9150610fbe82610f59565b604082019050919050565b5f6020820190508181035f830152610fe081610fa7565b9050919050565b5f81519050919050565b5f81905092915050565b8281835e5f83830152505050565b5f61101382610fe7565b61101d8185610ff1565b935061102d818560208601610ffb565b80840191505092915050565b5f6110448284611009565b915081905092915050565b5f61105982610fe7565b6110638185610f49565b9350611073818560208601610ffb565b61107c81610d4c565b840191505092915050565b5f6040820190508181035f83015261109f818561104f565b90506110ae6020830184610eda565b9392505050565b7f4e6577206f776e65722063616e6e6f74206265207a65726f20616464726573735f82015250565b5f6110e9602083610f49565b91506110f4826110b5565b602082019050919050565b5f6020820190508181035f830152611116816110dd565b905091905056fea26469706673582212206c535bf1aeb4f6fc520a63120160534c313e4135b935e21529db71702f55507b64736f6c634300081a0033",
					"opcodes": "PUSH1 0x80 PUSH1 0x40 MSTORE CALLVALUE DUP1 ISZERO PUSH1 0xE JUMPI PUSH0 DUP1 REVERT JUMPDEST POP CALLER PUSH1 0x3 PUSH0 PUSH2 0x100 EXP DUP2 SLOAD DUP2 PUSH20 0xFFFFFFFFFFFFFFFFFFFFFFFFFFFFFFFFFFFFFFFF MUL NOT AND SWAP1 DUP4 PUSH20 0xFFFFFFFFFFFFFFFFFFFFFFFFFFFFFFFFFFFFFFFF AND MUL OR SWAP1 SSTORE POP PUSH2 0x1153 DUP1 PUSH2 0x5C PUSH0 CODECOPY PUSH0 RETURN INVALID PUSH1 0x80 PUSH1 0x40 MSTORE CALLVALUE DUP1 ISZERO PUSH2 0xF JUMPI PUSH0 DUP1 REVERT JUMPDEST POP PUSH1 0x4 CALLDATASIZE LT PUSH2 0xF3 JUMPI PUSH0 CALLDATALOAD PUSH1 0xE0 SHR DUP1 PUSH4 0x85C896C0 GT PUSH2 0x95 JUMPI DUP1 PUSH4 0xBBCD5BBE GT PUSH2 0x64 JUMPI DUP1 PUSH4 0xBBCD5BBE EQ PUSH2 0x26F JUMPI DUP1 PUSH4 0xD8CC7B1E EQ PUSH2 0x28B JUMPI DUP1 PUSH4 0xEEF2671A EQ PUSH2 0x2A7 JUMPI DUP1 PUSH4 0xF2FDE38B EQ PUSH2 0x2D7 JUMPI PUSH2 0xF3 JUMP JUMPDEST DUP1 PUSH4 0x85C896C0 EQ PUSH2 0x1D5 JUMPI DUP1 PUSH4 0x8DA5CB5B EQ PUSH2 0x1F1 JUMPI DUP1 PUSH4 0x8E30D199 EQ PUSH2 0x20F JUMPI DUP1 PUSH4 0xB546230D EQ PUSH2 0x23F JUMPI PUSH2 0xF3 JUMP JUMPDEST DUP1 PUSH4 0x100E3C69 GT PUSH2 0xD1 JUMPI DUP1 PUSH4 0x100E3C69 EQ PUSH2 0x15F JUMPI DUP1 PUSH4 0x1D8EF0FE EQ PUSH2 0x17B JUMPI DUP1 PUSH4 0x55A373D6 EQ PUSH2 0x199 JUMPI DUP1 PUSH4 0x7FF06357 EQ PUSH2 0x1B7 JUMPI PUSH2 0xF3 JUMP JUMPDEST DUP1 PUSH4 0x1877020 EQ PUSH2 0xF7 JUMPI DUP1 PUSH4 0x9CA5009 EQ PUSH2 0x113 JUMPI DUP1 PUSH4 0xE2C4129 EQ PUSH2 0x143 JUMPI JUMPDEST PUSH0 DUP1 REVERT JUMPDEST PUSH2 0x111 PUSH1 0x4 DUP1 CALLDATASIZE SUB DUP2 ADD SWAP1 PUSH2 0x10C SWAP2 SWAP1 PUSH2 0xCE6 JUMP JUMPDEST PUSH2 0x2F3 JUMP JUMPDEST STOP JUMPDEST PUSH2 0x12D PUSH1 0x4 DUP1 CALLDATASIZE SUB DUP2 ADD SWAP1 PUSH2 0x128 SWAP2 SWAP1 PUSH2 0xCE6 JUMP JUMPDEST PUSH2 0x408 JUMP JUMPDEST PUSH1 0x40 MLOAD PUSH2 0x13A SWAP2 SWAP1 PUSH2 0xD2B JUMP JUMPDEST PUSH1 0x40 MLOAD DUP1 SWAP2 SUB SWAP1 RETURN JUMPDEST PUSH2 0x15D PUSH1 0x4 DUP1 CALLDATASIZE SUB DUP2 ADD SWAP1 PUSH2 0x158 SWAP2 SWAP1 PUSH2 0xE80 JUMP JUMPDEST PUSH2 0x45A JUMP JUMPDEST STOP JUMPDEST PUSH2 0x179 PUSH1 0x4 DUP1 CALLDATASIZE SUB DUP2 ADD SWAP1 PUSH2 0x174 SWAP2 SWAP1 PUSH2 0xCE6 JUMP JUMPDEST PUSH2 0x582 JUMP JUMPDEST STOP JUMPDEST PUSH2 0x183 PUSH2 0x6AC JUMP JUMPDEST PUSH1 0x40 MLOAD PUSH2 0x190 SWAP2 SWAP1 PUSH2 0xEE9 JUMP JUMPDEST PUSH1 0x40 MLOAD DUP1 SWAP2 SUB SWAP1 RETURN JUMPDEST PUSH2 0x1A1 PUSH2 0x6D1 JUMP JUMPDEST PUSH1 0x40 MLOAD PUSH2 0x1AE SWAP2 SWAP1 PUSH2 0xEE9 JUMP JUMPDEST PUSH1 0x40 MLOAD DUP1 SWAP2 SUB SWAP1 RETURN JUMPDEST PUSH2 0x1BF PUSH2 0x6F6 JUMP JUMPDEST PUSH1 0x40 MLOAD PUSH2 0x1CC SWAP2 SWAP1 PUSH2 0xEE9 JUMP JUMPDEST PUSH1 0x40 MLOAD DUP1 SWAP2 SUB SWAP1 RETURN JUMPDEST PUSH2 0x1EF PUSH1 0x4 DUP1 CALLDATASIZE SUB DUP2 ADD SWAP1 PUSH2 0x1EA SWAP2 SWAP1 PUSH2 0xCE6 JUMP JUMPDEST PUSH2 0x719 JUMP JUMPDEST STOP JUMPDEST PUSH2 0x1F9 PUSH2 0x82D JUMP JUMPDEST PUSH1 0x40 MLOAD PUSH2 0x206 SWAP2 SWAP1 PUSH2 0xEE9 JUMP JUMPDEST PUSH1 0x40 MLOAD DUP1 SWAP2 SUB SWAP1 RETURN JUMPDEST PUSH2 0x229 PUSH1 0x4 DUP1 CALLDATASIZE SUB DUP2 ADD SWAP1 PUSH2 0x224 SWAP2 SWAP1 PUSH2 0xF02 JUMP JUMPDEST PUSH2 0x852 JUMP JUMPDEST PUSH1 0x40 MLOAD PUSH2 0x236 SWAP2 SWAP1 PUSH2 0xEE9 JUMP JUMPDEST PUSH1 0x40 MLOAD DUP1 SWAP2 SUB SWAP1 RETURN JUMPDEST PUSH2 0x259 PUSH1 0x4 DUP1 CALLDATASIZE SUB DUP2 ADD SWAP1 PUSH2 0x254 SWAP2 SWAP1 PUSH2 0xCE6 JUMP JUMPDEST PUSH2 0x89A JUMP JUMPDEST PUSH1 0x40 MLOAD PUSH2 0x266 SWAP2 SWAP1 PUSH2 0xD2B JUMP JUMPDEST PUSH1 0x40 MLOAD DUP1 SWAP2 SUB SWAP1 RETURN JUMPDEST PUSH2 0x289 PUSH1 0x4 DUP1 CALLDATASIZE SUB DUP2 ADD SWAP1 PUSH2 0x284 SWAP2 SWAP1 PUSH2 0xCE6 JUMP JUMPDEST PUSH2 0x8B7 JUMP JUMPDEST STOP JUMPDEST PUSH2 0x2A5 PUSH1 0x4 DUP1 CALLDATASIZE SUB DUP2 ADD SWAP1 PUSH2 0x2A0 SWAP2 SWAP1 PUSH2 0xCE6 JUMP JUMPDEST PUSH2 0x9CC JUMP JUMPDEST STOP JUMPDEST PUSH2 0x2C1 PUSH1 0x4 DUP1 CALLDATASIZE SUB DUP2 ADD SWAP1 PUSH2 0x2BC SWAP2 SWAP1 PUSH2 0xF02 JUMP JUMPDEST PUSH2 0xAF5 JUMP JUMPDEST PUSH1 0x40 MLOAD PUSH2 0x2CE SWAP2 SWAP1 PUSH2 0xEE9 JUMP JUMPDEST PUSH1 0x40 MLOAD DUP1 SWAP2 SUB SWAP1 RETURN JUMPDEST PUSH2 0x2F1 PUSH1 0x4 DUP1 CALLDATASIZE SUB DUP2 ADD SWAP1 PUSH2 0x2EC SWAP2 SWAP1 PUSH2 0xCE6 JUMP JUMPDEST PUSH2 0xB3B JUMP JUMPDEST STOP JUMPDEST PUSH1 0x3 PUSH0 SWAP1 SLOAD SWAP1 PUSH2 0x100 EXP SWAP1 DIV PUSH20 0xFFFFFFFFFFFFFFFFFFFFFFFFFFFFFFFFFFFFFFFF AND PUSH20 0xFFFFFFFFFFFFFFFFFFFFFFFFFFFFFFFFFFFFFFFF AND CALLER PUSH20 0xFFFFFFFFFFFFFFFFFFFFFFFFFFFFFFFFFFFFFFFF AND EQ PUSH2 0x382 JUMPI PUSH1 0x40 MLOAD PUSH32 0x8C379A000000000000000000000000000000000000000000000000000000000 DUP2 MSTORE PUSH1 0x4 ADD PUSH2 0x379 SWAP1 PUSH2 0xFC9 JUMP JUMPDEST PUSH1 0x40 MLOAD DUP1 SWAP2 SUB SWAP1 REVERT JUMPDEST DUP1 PUSH1 0x2 PUSH0 PUSH2 0x100 EXP DUP2 SLOAD DUP2 PUSH20 0xFFFFFFFFFFFFFFFFFFFFFFFFFFFFFFFFFFFFFFFF MUL NOT AND SWAP1 DUP4 PUSH20 0xFFFFFFFFFFFFFFFFFFFFFFFFFFFFFFFFFFFFFFFF AND MUL OR SWAP1 SSTORE POP DUP1 PUSH20 0xFFFFFFFFFFFFFFFFFFFFFFFFFFFFFFFFFFFFFFFF AND PUSH32 0xEDF1A035D265F6321083031B40ACF4E5E06CD3E2E2025192FD308409B13B44C6 PUSH1 0x40 MLOAD PUSH1 0x40 MLOAD DUP1 SWAP2 SUB SWAP1 LOG2 POP JUMP JUMPDEST PUSH0 PUSH1 0x5 PUSH0 DUP4 PUSH20 0xFFFFFFFFFFFFFFFFFFFFFFFFFFFFFFFFFFFFFFFF AND PUSH20 0xFFFFFFFFFFFFFFFFFFFFFFFFFFFFFFFFFFFFFFFF AND DUP2 MSTORE PUSH1 0x20 ADD SWAP1 DUP2 MSTORE PUSH1 0x20 ADD PUSH0 KECCAK256 PUSH0 SWAP1 SLOAD SWAP1 PUSH2 0x100 EXP SWAP1 DIV PUSH1 0xFF AND SWAP1 POP SWAP2 SWAP1 POP JUMP JUMPDEST PUSH1 0x3 PUSH0 SWAP1 SLOAD SWAP1 PUSH2 0x100 EXP SWAP1 DIV PUSH20 0xFFFFFFFFFFFFFFFFFFFFFFFFFFFFFFFFFFFFFFFF AND PUSH20 0xFFFFFFFFFFFFFFFFFFFFFFFFFFFFFFFFFFFFFFFF AND CALLER PUSH20 0xFFFFFFFFFFFFFFFFFFFFFFFFFFFFFFFFFFFFFFFF AND EQ PUSH2 0x4E9 JUMPI PUSH1 0x40 MLOAD PUSH32 0x8C379A000000000000000000000000000000000000000000000000000000000 DUP2 MSTORE PUSH1 0x4 ADD PUSH2 0x4E0 SWAP1 PUSH2 0xFC9 JUMP JUMPDEST PUSH1 0x40 MLOAD DUP1 SWAP2 SUB SWAP1 REVERT JUMPDEST DUP1 PUSH1 0x4 DUP4 PUSH1 0x40 MLOAD PUSH2 0x4FA SWAP2 SWAP1 PUSH2 0x1039 JUMP JUMPDEST SWAP1 DUP2 MSTORE PUSH1 0x20 ADD PUSH1 0x40 MLOAD DUP1 SWAP2 SUB SWAP1 KECCAK256 PUSH0 PUSH2 0x100 EXP DUP2 SLOAD DUP2 PUSH20 0xFFFFFFFFFFFFFFFFFFFFFFFFFFFFFFFFFFFFFFFF MUL NOT AND SWAP1 DUP4 PUSH20 0xFFFFFFFFFFFFFFFFFFFFFFFFFFFFFFFFFFFFFFFF AND MUL OR SWAP1 SSTORE POP PUSH32 0x4389233D1D7E817E3A41447176300B89C596C24ED4D58896D501DDB378ABE2C4 DUP3 DUP3 PUSH1 0x40 MLOAD PUSH2 0x576 SWAP3 SWAP2 SWAP1 PUSH2 0x1087 JUMP JUMPDEST PUSH1 0x40 MLOAD DUP1 SWAP2 SUB SWAP1 LOG1 POP POP JUMP JUMPDEST PUSH1 0x3 PUSH0 SWAP1 SLOAD SWAP1 PUSH2 0x100 EXP SWAP1 DIV PUSH20 0xFFFFFFFFFFFFFFFFFFFFFFFFFFFFFFFFFFFFFFFF AND PUSH20 0xFFFFFFFFFFFFFFFFFFFFFFFFFFFFFFFFFFFFFFFF AND CALLER PUSH20 0xFFFFFFFFFFFFFFFFFFFFFFFFFFFFFFFFFFFFFFFF AND EQ PUSH2 0x611 JUMPI PUSH1 0x40 MLOAD PUSH32 0x8C379A000000000000000000000000000000000000000000000000000000000 DUP2 MSTORE PUSH1 0x4 ADD PUSH2 0x608 SWAP1 PUSH2 0xFC9 JUMP JUMPDEST PUSH1 0x40 MLOAD DUP1 SWAP2 SUB SWAP1 REVERT JUMPDEST PUSH1 0x1 PUSH1 0x5 PUSH0 DUP4 PUSH20 0xFFFFFFFFFFFFFFFFFFFFFFFFFFFFFFFFFFFFFFFF AND PUSH20 0xFFFFFFFFFFFFFFFFFFFFFFFFFFFFFFFFFFFFFFFF AND DUP2 MSTORE PUSH1 0x20 ADD SWAP1 DUP2 MSTORE PUSH1 0x20 ADD PUSH0 KECCAK256 PUSH0 PUSH2 0x100 EXP DUP2 SLOAD DUP2 PUSH1 0xFF MUL NOT AND SWAP1 DUP4 ISZERO ISZERO MUL OR SWAP1 SSTORE POP DUP1 PUSH20 0xFFFFFFFFFFFFFFFFFFFFFFFFFFFFFFFFFFFFFFFF AND PUSH32 0xFE2E4EB88C03CCD5FB359DAD5EE18023085E2F7C126B9B38986B4873527035F0 PUSH1 0x40 MLOAD PUSH1 0x40 MLOAD DUP1 SWAP2 SUB SWAP1 LOG2 POP JUMP JUMPDEST PUSH1 0x2 PUSH0 SWAP1 SLOAD SWAP1 PUSH2 0x100 EXP SWAP1 DIV PUSH20 0xFFFFFFFFFFFFFFFFFFFFFFFFFFFFFFFFFFFFFFFF AND DUP2 JUMP JUMPDEST PUSH1 0x1 PUSH0 SWAP1 SLOAD SWAP1 PUSH2 0x100 EXP SWAP1 DIV PUSH20 0xFFFFFFFFFFFFFFFFFFFFFFFFFFFFFFFFFFFFFFFF AND DUP2 JUMP JUMPDEST PUSH0 DUP1 SLOAD SWAP1 PUSH2 0x100 EXP SWAP1 DIV PUSH20 0xFFFFFFFFFFFFFFFFFFFFFFFFFFFFFFFFFFFFFFFF AND DUP2 JUMP JUMPDEST PUSH1 0x3 PUSH0 SWAP1 SLOAD SWAP1 PUSH2 0x100 EXP SWAP1 DIV PUSH20 0xFFFFFFFFFFFFFFFFFFFFFFFFFFFFFFFFFFFFFFFF AND PUSH20 0xFFFFFFFFFFFFFFFFFFFFFFFFFFFFFFFFFFFFFFFF AND CALLER PUSH20 0xFFFFFFFFFFFFFFFFFFFFFFFFFFFFFFFFFFFFFFFF AND EQ PUSH2 0x7A8 JUMPI PUSH1 0x40 MLOAD PUSH32 0x8C379A000000000000000000000000000000000000000000000000000000000 DUP2 MSTORE PUSH1 0x4 ADD PUSH2 0x79F SWAP1 PUSH2 0xFC9 JUMP JUMPDEST PUSH1 0x40 MLOAD DUP1 SWAP2 SUB SWAP1 REVERT JUMPDEST DUP1 PUSH0 DUP1 PUSH2 0x100 EXP DUP2 SLOAD DUP2 PUSH20 0xFFFFFFFFFFFFFFFFFFFFFFFFFFFFFFFFFFFFFFFF MUL NOT AND SWAP1 DUP4 PUSH20 0xFFFFFFFFFFFFFFFFFFFFFFFFFFFFFFFFFFFFFFFF AND MUL OR SWAP1 SSTORE POP DUP1 PUSH20 0xFFFFFFFFFFFFFFFFFFFFFFFFFFFFFFFFFFFFFFFF AND PUSH32 0x5611697D580EE62038B9C5DFD31BB9A5E15F50015FFB5B52EA242502B9C541C2 PUSH1 0x40 MLOAD PUSH1 0x40 MLOAD DUP1 SWAP2 SUB SWAP1 LOG2 POP JUMP JUMPDEST PUSH1 0x3 PUSH0 SWAP1 SLOAD SWAP1 PUSH2 0x100 EXP SWAP1 DIV PUSH20 0xFFFFFFFFFFFFFFFFFFFFFFFFFFFFFFFFFFFFFFFF AND DUP2 JUMP JUMPDEST PUSH1 0x4 DUP2 DUP1 MLOAD PUSH1 0x20 DUP2 ADD DUP3 ADD DUP1 MLOAD DUP5 DUP3 MSTORE PUSH1 0x20 DUP4 ADD PUSH1 0x20 DUP6 ADD KECCAK256 DUP2 DUP4 MSTORE DUP1 SWAP6 POP POP POP POP POP POP PUSH0 SWAP2 POP SLOAD SWAP1 PUSH2 0x100 EXP SWAP1 DIV PUSH20 0xFFFFFFFFFFFFFFFFFFFFFFFFFFFFFFFFFFFFFFFF AND DUP2 JUMP JUMPDEST PUSH1 0x5 PUSH1 0x20 MSTORE DUP1 PUSH0 MSTORE PUSH1 0x40 PUSH0 KECCAK256 PUSH0 SWAP2 POP SLOAD SWAP1 PUSH2 0x100 EXP SWAP1 DIV PUSH1 0xFF AND DUP2 JUMP JUMPDEST PUSH1 0x3 PUSH0 SWAP1 SLOAD SWAP1 PUSH2 0x100 EXP SWAP1 DIV PUSH20 0xFFFFFFFFFFFFFFFFFFFFFFFFFFFFFFFFFFFFFFFF AND PUSH20 0xFFFFFFFFFFFFFFFFFFFFFFFFFFFFFFFFFFFFFFFF AND CALLER PUSH20 0xFFFFFFFFFFFFFFFFFFFFFFFFFFFFFFFFFFFFFFFF AND EQ PUSH2 0x946 JUMPI PUSH1 0x40 MLOAD PUSH32 0x8C379A000000000000000000000000000000000000000000000000000000000 DUP2 MSTORE PUSH1 0x4 ADD PUSH2 0x93D SWAP1 PUSH2 0xFC9 JUMP JUMPDEST PUSH1 0x40 MLOAD DUP1 SWAP2 SUB SWAP1 REVERT JUMPDEST DUP1 PUSH1 0x1 PUSH0 PUSH2 0x100 EXP DUP2 SLOAD DUP2 PUSH20 0xFFFFFFFFFFFFFFFFFFFFFFFFFFFFFFFFFFFFFFFF MUL NOT AND SWAP1 DUP4 PUSH20 0xFFFFFFFFFFFFFFFFFFFFFFFFFFFFFFFFFFFFFFFF AND MUL OR SWAP1 SSTORE POP DUP1 PUSH20 0xFFFFFFFFFFFFFFFFFFFFFFFFFFFFFFFFFFFFFFFF AND PUSH32 0x23D5823548E4652C04B1D029323232659612A32681D27872DD94B8D6B97CE6B1 PUSH1 0x40 MLOAD PUSH1 0x40 MLOAD DUP1 SWAP2 SUB SWAP1 LOG2 POP JUMP JUMPDEST PUSH1 0x3 PUSH0 SWAP1 SLOAD SWAP1 PUSH2 0x100 EXP SWAP1 DIV PUSH20 0xFFFFFFFFFFFFFFFFFFFFFFFFFFFFFFFFFFFFFFFF AND PUSH20 0xFFFFFFFFFFFFFFFFFFFFFFFFFFFFFFFFFFFFFFFF AND CALLER PUSH20 0xFFFFFFFFFFFFFFFFFFFFFFFFFFFFFFFFFFFFFFFF AND EQ PUSH2 0xA5B JUMPI PUSH1 0x40 MLOAD PUSH32 0x8C379A000000000000000000000000000000000000000000000000000000000 DUP2 MSTORE PUSH1 0x4 ADD PUSH2 0xA52 SWAP1 PUSH2 0xFC9 JUMP JUMPDEST PUSH1 0x40 MLOAD DUP1 SWAP2 SUB SWAP1 REVERT JUMPDEST PUSH0 PUSH1 0x5 PUSH0 DUP4 PUSH20 0xFFFFFFFFFFFFFFFFFFFFFFFFFFFFFFFFFFFFFFFF AND PUSH20 0xFFFFFFFFFFFFFFFFFFFFFFFFFFFFFFFFFFFFFFFF AND DUP2 MSTORE PUSH1 0x20 ADD SWAP1 DUP2 MSTORE PUSH1 0x20 ADD PUSH0 KECCAK256 PUSH0 PUSH2 0x100 EXP DUP2 SLOAD DUP2 PUSH1 0xFF MUL NOT AND SWAP1 DUP4 ISZERO ISZERO MUL OR SWAP1 SSTORE POP DUP1 PUSH20 0xFFFFFFFFFFFFFFFFFFFFFFFFFFFFFFFFFFFFFFFF AND PUSH32 0x3CE717C8AF1CDBD087F73A2FD3985608199A50791FCC8DC25BC05365C6EF0885 PUSH1 0x40 MLOAD PUSH1 0x40 MLOAD DUP1 SWAP2 SUB SWAP1 LOG2 POP JUMP JUMPDEST PUSH0 PUSH1 0x4 DUP3 PUSH1 0x40 MLOAD PUSH2 0xB06 SWAP2 SWAP1 PUSH2 0x1039 JUMP JUMPDEST SWAP1 DUP2 MSTORE PUSH1 0x20 ADD PUSH1 0x40 MLOAD DUP1 SWAP2 SUB SWAP1 KECCAK256 PUSH0 SWAP1 SLOAD SWAP1 PUSH2 0x100 EXP SWAP1 DIV PUSH20 0xFFFFFFFFFFFFFFFFFFFFFFFFFFFFFFFFFFFFFFFF AND SWAP1 POP SWAP2 SWAP1 POP JUMP JUMPDEST PUSH1 0x3 PUSH0 SWAP1 SLOAD SWAP1 PUSH2 0x100 EXP SWAP1 DIV PUSH20 0xFFFFFFFFFFFFFFFFFFFFFFFFFFFFFFFFFFFFFFFF AND PUSH20 0xFFFFFFFFFFFFFFFFFFFFFFFFFFFFFFFFFFFFFFFF AND CALLER PUSH20 0xFFFFFFFFFFFFFFFFFFFFFFFFFFFFFFFFFFFFFFFF AND EQ PUSH2 0xBCA JUMPI PUSH1 0x40 MLOAD PUSH32 0x8C379A000000000000000000000000000000000000000000000000000000000 DUP2 MSTORE PUSH1 0x4 ADD PUSH2 0xBC1 SWAP1 PUSH2 0xFC9 JUMP JUMPDEST PUSH1 0x40 MLOAD DUP1 SWAP2 SUB SWAP1 REVERT JUMPDEST PUSH0 PUSH20 0xFFFFFFFFFFFFFFFFFFFFFFFFFFFFFFFFFFFFFFFF AND DUP2 PUSH20 0xFFFFFFFFFFFFFFFFFFFFFFFFFFFFFFFFFFFFFFFF AND SUB PUSH2 0xC38 JUMPI PUSH1 0x40 MLOAD PUSH32 0x8C379A000000000000000000000000000000000000000000000000000000000 DUP2 MSTORE PUSH1 0x4 ADD PUSH2 0xC2F SWAP1 PUSH2 0x10FF JUMP JUMPDEST PUSH1 0x40 MLOAD DUP1 SWAP2 SUB SWAP1 REVERT JUMPDEST DUP1 PUSH1 0x3 PUSH0 PUSH2 0x100 EXP DUP2 SLOAD DUP2 PUSH20 0xFFFFFFFFFFFFFFFFFFFFFFFFFFFFFFFFFFFFFFFF MUL NOT AND SWAP1 DUP4 PUSH20 0xFFFFFFFFFFFFFFFFFFFFFFFFFFFFFFFFFFFFFFFF AND MUL OR SWAP1 SSTORE POP POP JUMP JUMPDEST PUSH0 PUSH1 0x40 MLOAD SWAP1 POP SWAP1 JUMP JUMPDEST PUSH0 DUP1 REVERT JUMPDEST PUSH0 DUP1 REVERT JUMPDEST PUSH0 PUSH20 0xFFFFFFFFFFFFFFFFFFFFFFFFFFFFFFFFFFFFFFFF DUP3 AND SWAP1 POP SWAP2 SWAP1 POP JUMP JUMPDEST PUSH0 PUSH2 0xCB5 DUP3 PUSH2 0xC8C JUMP JUMPDEST SWAP1 POP SWAP2 SWAP1 POP JUMP JUMPDEST PUSH2 0xCC5 DUP2 PUSH2 0xCAB JUMP JUMPDEST DUP2 EQ PUSH2 0xCCF JUMPI PUSH0 DUP1 REVERT JUMPDEST POP JUMP JUMPDEST PUSH0 DUP2 CALLDATALOAD SWAP1 POP PUSH2 0xCE0 DUP2 PUSH2 0xCBC JUMP JUMPDEST SWAP3 SWAP2 POP POP JUMP JUMPDEST PUSH0 PUSH1 0x20 DUP3 DUP5 SUB SLT ISZERO PUSH2 0xCFB JUMPI PUSH2 0xCFA PUSH2 0xC84 JUMP JUMPDEST JUMPDEST PUSH0 PUSH2 0xD08 DUP5 DUP3 DUP6 ADD PUSH2 0xCD2 JUMP JUMPDEST SWAP2 POP POP SWAP3 SWAP2 POP POP JUMP JUMPDEST PUSH0 DUP2 ISZERO ISZERO SWAP1 POP SWAP2 SWAP1 POP JUMP JUMPDEST PUSH2 0xD25 DUP2 PUSH2 0xD11 JUMP JUMPDEST DUP3 MSTORE POP POP JUMP JUMPDEST PUSH0 PUSH1 0x20 DUP3 ADD SWAP1 POP PUSH2 0xD3E PUSH0 DUP4 ADD DUP5 PUSH2 0xD1C JUMP JUMPDEST SWAP3 SWAP2 POP POP JUMP JUMPDEST PUSH0 DUP1 REVERT JUMPDEST PUSH0 DUP1 REVERT JUMPDEST PUSH0 PUSH1 0x1F NOT PUSH1 0x1F DUP4 ADD AND SWAP1 POP SWAP2 SWAP1 POP JUMP JUMPDEST PUSH32 0x4E487B7100000000000000000000000000000000000000000000000000000000 PUSH0 MSTORE PUSH1 0x41 PUSH1 0x4 MSTORE PUSH1 0x24 PUSH0 REVERT JUMPDEST PUSH2 0xD92 DUP3 PUSH2 0xD4C JUMP JUMPDEST DUP2 ADD DUP2 DUP2 LT PUSH8 0xFFFFFFFFFFFFFFFF DUP3 GT OR ISZERO PUSH2 0xDB1 JUMPI PUSH2 0xDB0 PUSH2 0xD5C JUMP JUMPDEST JUMPDEST DUP1 PUSH1 0x40 MSTORE POP POP POP JUMP JUMPDEST PUSH0 PUSH2 0xDC3 PUSH2 0xC7B JUMP JUMPDEST SWAP1 POP PUSH2 0xDCF DUP3 DUP3 PUSH2 0xD89 JUMP JUMPDEST SWAP2 SWAP1 POP JUMP JUMPDEST PUSH0 PUSH8 0xFFFFFFFFFFFFFFFF DUP3 GT ISZERO PUSH2 0xDEE JUMPI PUSH2 0xDED PUSH2 0xD5C JUMP JUMPDEST JUMPDEST PUSH2 0xDF7 DUP3 PUSH2 0xD4C JUMP JUMPDEST SWAP1 POP PUSH1 0x20 DUP2 ADD SWAP1 POP SWAP2 SWAP1 POP JUMP JUMPDEST DUP3 DUP2 DUP4 CALLDATACOPY PUSH0 DUP4 DUP4 ADD MSTORE POP POP POP JUMP JUMPDEST PUSH0 PUSH2 0xE24 PUSH2 0xE1F DUP5 PUSH2 0xDD4 JUMP JUMPDEST PUSH2 0xDBA JUMP JUMPDEST SWAP1 POP DUP3 DUP2 MSTORE PUSH1 0x20 DUP2 ADD DUP5 DUP5 DUP5 ADD GT ISZERO PUSH2 0xE40 JUMPI PUSH2 0xE3F PUSH2 0xD48 JUMP JUMPDEST JUMPDEST PUSH2 0xE4B DUP5 DUP3 DUP6 PUSH2 0xE04 JUMP JUMPDEST POP SWAP4 SWAP3 POP POP POP JUMP JUMPDEST PUSH0 DUP3 PUSH1 0x1F DUP4 ADD SLT PUSH2 0xE67 JUMPI PUSH2 0xE66 PUSH2 0xD44 JUMP JUMPDEST JUMPDEST DUP2 CALLDATALOAD PUSH2 0xE77 DUP5 DUP3 PUSH1 0x20 DUP7 ADD PUSH2 0xE12 JUMP JUMPDEST SWAP2 POP POP SWAP3 SWAP2 POP POP JUMP JUMPDEST PUSH0 DUP1 PUSH1 0x40 DUP4 DUP6 SUB SLT ISZERO PUSH2 0xE96 JUMPI PUSH2 0xE95 PUSH2 0xC84 JUMP JUMPDEST JUMPDEST PUSH0 DUP4 ADD CALLDATALOAD PUSH8 0xFFFFFFFFFFFFFFFF DUP2 GT ISZERO PUSH2 0xEB3 JUMPI PUSH2 0xEB2 PUSH2 0xC88 JUMP JUMPDEST JUMPDEST PUSH2 0xEBF DUP6 DUP3 DUP7 ADD PUSH2 0xE53 JUMP JUMPDEST SWAP3 POP POP PUSH1 0x20 PUSH2 0xED0 DUP6 DUP3 DUP7 ADD PUSH2 0xCD2 JUMP JUMPDEST SWAP2 POP POP SWAP3 POP SWAP3 SWAP1 POP JUMP JUMPDEST PUSH2 0xEE3 DUP2 PUSH2 0xCAB JUMP JUMPDEST DUP3 MSTORE POP POP JUMP JUMPDEST PUSH0 PUSH1 0x20 DUP3 ADD SWAP1 POP PUSH2 0xEFC PUSH0 DUP4 ADD DUP5 PUSH2 0xEDA JUMP JUMPDEST SWAP3 SWAP2 POP POP JUMP JUMPDEST PUSH0 PUSH1 0x20 DUP3 DUP5 SUB SLT ISZERO PUSH2 0xF17 JUMPI PUSH2 0xF16 PUSH2 0xC84 JUMP JUMPDEST JUMPDEST PUSH0 DUP3 ADD CALLDATALOAD PUSH8 0xFFFFFFFFFFFFFFFF DUP2 GT ISZERO PUSH2 0xF34 JUMPI PUSH2 0xF33 PUSH2 0xC88 JUMP JUMPDEST JUMPDEST PUSH2 0xF40 DUP5 DUP3 DUP6 ADD PUSH2 0xE53 JUMP JUMPDEST SWAP2 POP POP SWAP3 SWAP2 POP POP JUMP JUMPDEST PUSH0 DUP3 DUP3 MSTORE PUSH1 0x20 DUP3 ADD SWAP1 POP SWAP3 SWAP2 POP POP JUMP JUMPDEST PUSH32 0x4F6E6C79206F776E65722063616E2063616C6C20746869732066756E6374696F PUSH0 DUP3 ADD MSTORE PUSH32 0x6E00000000000000000000000000000000000000000000000000000000000000 PUSH1 0x20 DUP3 ADD MSTORE POP JUMP JUMPDEST PUSH0 PUSH2 0xFB3 PUSH1 0x21 DUP4 PUSH2 0xF49 JUMP JUMPDEST SWAP2 POP PUSH2 0xFBE DUP3 PUSH2 0xF59 JUMP JUMPDEST PUSH1 0x40 DUP3 ADD SWAP1 POP SWAP2 SWAP1 POP JUMP JUMPDEST PUSH0 PUSH1 0x20 DUP3 ADD SWAP1 POP DUP2 DUP2 SUB PUSH0 DUP4 ADD MSTORE PUSH2 0xFE0 DUP2 PUSH2 0xFA7 JUMP JUMPDEST SWAP1 POP SWAP2 SWAP1 POP JUMP JUMPDEST PUSH0 DUP2 MLOAD SWAP1 POP SWAP2 SWAP1 POP JUMP JUMPDEST PUSH0 DUP2 SWAP1 POP SWAP3 SWAP2 POP POP JUMP JUMPDEST DUP3 DUP2 DUP4 MCOPY PUSH0 DUP4 DUP4 ADD MSTORE POP POP POP JUMP JUMPDEST PUSH0 PUSH2 0x1013 DUP3 PUSH2 0xFE7 JUMP JUMPDEST PUSH2 0x101D DUP2 DUP6 PUSH2 0xFF1 JUMP JUMPDEST SWAP4 POP PUSH2 0x102D DUP2 DUP6 PUSH1 0x20 DUP7 ADD PUSH2 0xFFB JUMP JUMPDEST DUP1 DUP5 ADD SWAP2 POP POP SWAP3 SWAP2 POP POP JUMP JUMPDEST PUSH0 PUSH2 0x1044 DUP3 DUP5 PUSH2 0x1009 JUMP JUMPDEST SWAP2 POP DUP2 SWAP1 POP SWAP3 SWAP2 POP POP JUMP JUMPDEST PUSH0 PUSH2 0x1059 DUP3 PUSH2 0xFE7 JUMP JUMPDEST PUSH2 0x1063 DUP2 DUP6 PUSH2 0xF49 JUMP JUMPDEST SWAP4 POP PUSH2 0x1073 DUP2 DUP6 PUSH1 0x20 DUP7 ADD PUSH2 0xFFB JUMP JUMPDEST PUSH2 0x107C DUP2 PUSH2 0xD4C JUMP JUMPDEST DUP5 ADD SWAP2 POP POP SWAP3 SWAP2 POP POP JUMP JUMPDEST PUSH0 PUSH1 0x40 DUP3 ADD SWAP1 POP DUP2 DUP2 SUB PUSH0 DUP4 ADD MSTORE PUSH2 0x109F DUP2 DUP6 PUSH2 0x104F JUMP JUMPDEST SWAP1 POP PUSH2 0x10AE PUSH1 0x20 DUP4 ADD DUP5 PUSH2 0xEDA JUMP JUMPDEST SWAP4 SWAP3 POP POP POP JUMP JUMPDEST PUSH32 0x4E6577206F776E65722063616E6E6F74206265207A65726F2061646472657373 PUSH0 DUP3 ADD MSTORE POP JUMP JUMPDEST PUSH0 PUSH2 0x10E9 PUSH1 0x20 DUP4 PUSH2 0xF49 JUMP JUMPDEST SWAP2 POP PUSH2 0x10F4 DUP3 PUSH2 0x10B5 JUMP JUMPDEST PUSH1 0x20 DUP3 ADD SWAP1 POP SWAP2 SWAP1 POP JUMP JUMPDEST PUSH0 PUSH1 0x20 DUP3 ADD SWAP1 POP DUP2 DUP2 SUB PUSH0 DUP4 ADD MSTORE PUSH2 0x1116 DUP2 PUSH2 0x10DD JUMP JUMPDEST SWAP1 POP SWAP2 SWAP1 POP JUMP INVALID LOG2 PUSH5 0x6970667358 0x22 SLT KECCAK256 PUSH13 0x535BF1AEB4F6FC520A63120160 MSTORE8 0x4C BALANCE RETURNDATACOPY COINBASE CALLDATALOAD 0xB9 CALLDATALOAD 0xE2 ISZERO 0x29 0xDB PUSH18 0x702F55507B64736F6C634300081A00330000 "
				},
				"gasEstimates": {
					"creation": {
						"codeDepositCost": "887000",
						"executionCost": "25185",
						"totalCost": "912185"
					},
					"external": {
						"addTrustedDataSource(address)": "28156",
						"getAirlineAddress(string)": "infinite",
						"isDataSourceTrusted(address)": "2916",
						"liquidityPoolContract()": "2553",
						"owner()": "2553",
						"policyContract()": "2594",
						"registerAirline(string,address)": "infinite",
						"registeredAirlines(string)": "infinite",
						"removeTrustedDataSource(address)": "28176",
						"setLiquidityPool(address)": "28069",
						"setPolicyContract(address)": "28068",
						"setTokenContract(address)": "28067",
						"tokenContract()": "2575",
						"transferOwnership(address)": "27006",
						"trustedDataSources(address)": "2922"
					}
				},
				"methodIdentifiers": {
					"addTrustedDataSource(address)": "100e3c69",
					"getAirlineAddress(string)": "eef2671a",
					"isDataSourceTrusted(address)": "09ca5009",
					"liquidityPoolContract()": "1d8ef0fe",
					"owner()": "8da5cb5b",
					"policyContract()": "7ff06357",
					"registerAirline(string,address)": "0e2c4129",
					"registeredAirlines(string)": "8e30d199",
					"removeTrustedDataSource(address)": "d8cc7b1e",
					"setLiquidityPool(address)": "01877020",
					"setPolicyContract(address)": "85c896c0",
					"setTokenContract(address)": "bbcd5bbe",
					"tokenContract()": "55a373d6",
					"transferOwnership(address)": "f2fde38b",
					"trustedDataSources(address)": "b546230d"
				}
			},
			"storageLayout": {
				"storage": [
					{
						"astId": 4,
						"contract": "FlightGuard/contracts/FlightGuardRegistry.sol:FlightGuardRegistry",
						"label": "policyContract",
						"offset": 0,
						"slot": "0",
						"type": "t_address"
					},
					{
						"astId": 6,
						"contract": "FlightGuard/contracts/FlightGuardRegistry.sol:FlightGuardRegistry",
						"label": "tokenContract",
						"offset": 0,
						"slot": "1",
						"type": "t_address"
					},
					{
						"astId": 8,
						"contract": "FlightGuard/contracts/FlightGuardRegistry.sol:FlightGuardRegistry",
						"label": "liquidityPoolContract",
						"offset": 0,
						"slot": "2",
						"type": "t_address"
					},
					{
						"astId": 10,
						"contract": "FlightGuard/contracts/FlightGuardRegistry.sol:FlightGuardRegistry",
						"label": "owner",
						"offset": 0,
						"slot": "3",
						"type": "t_address"
					},
					{
						"astId": 14,
						"contract": "FlightGuard/contracts/FlightGuardRegistry.sol:FlightGuardRegistry",
						"label": "registeredAirlines",
						"offset": 0,
						"slot": "4",
						"type": "t_mapping(t_string_memory_ptr,t_address)"
					},
					{
						"astId": 18,
						"contract": "FlightGuard/contracts/FlightGuardRegistry.sol:FlightGuardRegistry",
						"label": "trustedDataSources",
						"offset": 0,
						"slot": "5",
						"type": "t_mapping(t_address,t_bool)"
					}
				],
				"types": {
					"t_address": {
						"encoding": "inplace",
						"label": "address",
						"numberOfBytes": "20"
					},
					"t_bool": {
						"encoding": "inplace",
						"label": "bool",
						"numberOfBytes": "1"
					},
					"t_mapping(t_address,t_bool)": {
						"encoding": "mapping",
						"key": "t_address",
						"label": "mapping(address => bool)",
						"numberOfBytes": "32",
						"value": "t_bool"
					},
					"t_mapping(t_string_memory_ptr,t_address)": {
						"encoding": "mapping",
						"key": "t_string_memory_ptr",
						"label": "mapping(string => address)",
						"numberOfBytes": "32",
						"value": "t_address"
					},
					"t_string_memory_ptr": {
						"encoding": "bytes",
						"label": "string",
						"numberOfBytes": "32"
					}
				}
			},
			"userdoc": {
				"kind": "user",
				"methods": {},
				"version": 1
			}
		}
	}
}