{
	"FlightGuard/contracts/LiquidityPool.sol": {
		"LiquidityPool": {
			"abi": [
				{
					"inputs": [
						{
							"internalType": "address",
							"name": "_tokenAddress",
							"type": "address"
						},
						{
							"internalType": "address",
							"name": "_policyAddress",
							"type": "address"
						}
					],
					"stateMutability": "nonpayable",
					"type": "constructor"
				},
				{
					"anonymous": false,
					"inputs": [
						{
							"indexed": false,
							"internalType": "uint256",
							"name": "amount",
							"type": "uint256"
						}
					],
					"name": "PremiumReceived",
					"type": "event"
				},
				{
					"anonymous": false,
					"inputs": [
						{
							"indexed": true,
							"internalType": "address",
							"name": "user",
							"type": "address"
						},
						{
							"indexed": false,
							"internalType": "uint256",
							"name": "amount",
							"type": "uint256"
						}
					],
					"name": "RewardsClaimed",
					"type": "event"
				},
				{
					"anonymous": false,
					"inputs": [
						{
							"indexed": false,
							"internalType": "uint256",
							"name": "totalAmount",
							"type": "uint256"
						}
					],
					"name": "RewardsDistributed",
					"type": "event"
				},
				{
					"anonymous": false,
					"inputs": [
						{
							"indexed": true,
							"internalType": "address",
							"name": "user",
							"type": "address"
						},
						{
							"indexed": false,
							"internalType": "uint256",
							"name": "amount",
							"type": "uint256"
						}
					],
					"name": "Staked",
					"type": "event"
				},
				{
					"anonymous": false,
					"inputs": [
						{
							"indexed": true,
							"internalType": "address",
							"name": "user",
							"type": "address"
						},
						{
							"indexed": false,
							"internalType": "uint256",
							"name": "amount",
							"type": "uint256"
						}
					],
					"name": "Unstaked",
					"type": "event"
				},
				{
					"inputs": [],
					"name": "claimRewards",
					"outputs": [],
					"stateMutability": "nonpayable",
					"type": "function"
				},
				{
					"inputs": [],
					"name": "distributeRewards",
					"outputs": [],
					"stateMutability": "nonpayable",
					"type": "function"
				},
				{
					"inputs": [],
					"name": "distributionInterval",
					"outputs": [
						{
							"internalType": "uint256",
							"name": "",
							"type": "uint256"
						}
					],
					"stateMutability": "view",
					"type": "function"
				},
				{
					"inputs": [
						{
							"internalType": "address payable",
							"name": "_to",
							"type": "address"
						},
						{
							"internalType": "uint256",
							"name": "_amount",
							"type": "uint256"
						}
					],
					"name": "emergencyRelease",
					"outputs": [],
					"stateMutability": "nonpayable",
					"type": "function"
				},
				{
					"inputs": [
						{
							"internalType": "address",
							"name": "_user",
							"type": "address"
						}
					],
					"name": "getStakingInfo",
					"outputs": [
						{
							"internalType": "uint256",
							"name": "stakeAmount",
							"type": "uint256"
						},
						{
							"internalType": "uint256",
							"name": "share",
							"type": "uint256"
						}
					],
					"stateMutability": "view",
					"type": "function"
				},
				{
					"inputs": [
						{
							"internalType": "address",
							"name": "",
							"type": "address"
						}
					],
					"name": "lastClaimTime",
					"outputs": [
						{
							"internalType": "uint256",
							"name": "",
							"type": "uint256"
						}
					],
					"stateMutability": "view",
					"type": "function"
				},
				{
					"inputs": [],
					"name": "lastDistributionTime",
					"outputs": [
						{
							"internalType": "uint256",
							"name": "",
							"type": "uint256"
						}
					],
					"stateMutability": "view",
					"type": "function"
				},
				{
					"inputs": [],
					"name": "policyContract",
					"outputs": [
						{
							"internalType": "contract IFlightGuardPolicy",
							"name": "",
							"type": "address"
						}
					],
					"stateMutability": "view",
					"type": "function"
				},
				{
					"inputs": [],
					"name": "premiumsCollected",
					"outputs": [
						{
							"internalType": "uint256",
							"name": "",
							"type": "uint256"
						}
					],
					"stateMutability": "view",
					"type": "function"
				},
				{
					"inputs": [],
					"name": "receivePremium",
					"outputs": [],
					"stateMutability": "payable",
					"type": "function"
				},
				{
					"inputs": [
						{
							"internalType": "uint256",
							"name": "_amount",
							"type": "uint256"
						}
					],
					"name": "stake",
					"outputs": [],
					"stateMutability": "nonpayable",
					"type": "function"
				},
				{
					"inputs": [],
					"name": "token",
					"outputs": [
						{
							"internalType": "contract IFlightGuardToken",
							"name": "",
							"type": "address"
						}
					],
					"stateMutability": "view",
					"type": "function"
				},
				{
					"inputs": [],
					"name": "totalStaked",
					"outputs": [
						{
							"internalType": "uint256",
							"name": "",
							"type": "uint256"
						}
					],
					"stateMutability": "view",
					"type": "function"
				},
				{
					"inputs": [
						{
							"internalType": "uint256",
							"name": "_amount",
							"type": "uint256"
						}
					],
					"name": "unstake",
					"outputs": [],
					"stateMutability": "nonpayable",
					"type": "function"
				},
				{
					"inputs": [
						{
							"internalType": "address",
							"name": "",
							"type": "address"
						}
					],
					"name": "userStake",
					"outputs": [
						{
							"internalType": "uint256",
							"name": "",
							"type": "uint256"
						}
					],
					"stateMutability": "view",
					"type": "function"
				},
				{
					"stateMutability": "payable",
					"type": "receive"
				}
			],
			"devdoc": {
				"details": "Manages the insurance liquidity pool for FlightGuard policies",
				"kind": "dev",
				"methods": {
					"claimRewards()": {
						"details": "Claim pending rewards based on stake"
					},
					"constructor": {
						"details": "Constructor sets the token and policy contract addresses"
					},
					"distributeRewards()": {
						"details": "Distribute rewards to stakers"
					},
					"emergencyRelease(address,uint256)": {
						"details": "Emergency fund release for claim payouts",
						"params": {
							"_amount": "Amount to send",
							"_to": "Address to send funds to"
						}
					},
					"getStakingInfo(address)": {
						"details": "Get staking info for a user",
						"params": {
							"_user": "Address of the user"
						},
						"returns": {
							"share": "Percentage share of the pool (as a number out of 10000)",
							"stakeAmount": "Amount staked"
						}
					},
					"receivePremium()": {
						"details": "Receive premium from policy contract"
					},
					"stake(uint256)": {
						"details": "Stake tokens into the liquidity pool",
						"params": {
							"_amount": "Amount of tokens to stake"
						}
					},
					"unstake(uint256)": {
						"details": "Unstake tokens from the liquidity pool",
						"params": {
							"_amount": "Amount of tokens to unstake"
						}
					}
				},
				"title": "LiquidityPool",
				"version": 1
			},
			"evm": {
				"assembly": "    /* \"FlightGuard/contracts/LiquidityPool.sol\":590:5811  contract LiquidityPool {... */\n  mstore(0x40, 0x80)\n    /* \"FlightGuard/contracts/LiquidityPool.sol\":892:898  7 days */\n  0x093a80\n    /* \"FlightGuard/contracts/LiquidityPool.sol\":854:898  uint256 public distributionInterval = 7 days */\n  0x05\n  sstore\n    /* \"FlightGuard/contracts/LiquidityPool.sol\":1433:1662  constructor(address _tokenAddress, address _policyAddress) {... */\n  callvalue\n  dup1\n  iszero\n  tag_1\n  jumpi\n  0x00\n  dup1\n  revert\ntag_1:\n  pop\n  mload(0x40)\n  sub(codesize, bytecodeSize)\n  dup1\n  bytecodeSize\n  dup4\n  codecopy\n  dup2\n  dup2\n  add\n  0x40\n  mstore\n  dup2\n  add\n  swap1\n  tag_2\n  swap2\n  swap1\n  tag_3\n  jump\t// in\ntag_2:\n    /* \"FlightGuard/contracts/LiquidityPool.sol\":1529:1542  _tokenAddress */\n  dup2\n    /* \"FlightGuard/contracts/LiquidityPool.sol\":1503:1508  token */\n  0x00\n  dup1\n    /* \"FlightGuard/contracts/LiquidityPool.sol\":1503:1543  token = IFlightGuardToken(_tokenAddress) */\n  0x0100\n  exp\n  dup2\n  sload\n  dup2\n  0xffffffffffffffffffffffffffffffffffffffff\n  mul\n  not\n  and\n  swap1\n  dup4\n  0xffffffffffffffffffffffffffffffffffffffff\n  and\n  mul\n  or\n  swap1\n  sstore\n  pop\n    /* \"FlightGuard/contracts/LiquidityPool.sol\":1590:1604  _policyAddress */\n  dup1\n    /* \"FlightGuard/contracts/LiquidityPool.sol\":1554:1568  policyContract */\n  0x01\n  0x00\n    /* \"FlightGuard/contracts/LiquidityPool.sol\":1554:1605  policyContract = IFlightGuardPolicy(_policyAddress) */\n  0x0100\n  exp\n  dup2\n  sload\n  dup2\n  0xffffffffffffffffffffffffffffffffffffffff\n  mul\n  not\n  and\n  swap1\n  dup4\n  0xffffffffffffffffffffffffffffffffffffffff\n  and\n  mul\n  or\n  swap1\n  sstore\n  pop\n    /* \"FlightGuard/contracts/LiquidityPool.sol\":1639:1654  block.timestamp */\n  timestamp\n    /* \"FlightGuard/contracts/LiquidityPool.sol\":1616:1636  lastDistributionTime */\n  0x04\n    /* \"FlightGuard/contracts/LiquidityPool.sol\":1616:1654  lastDistributionTime = block.timestamp */\n  dup2\n  swap1\n  sstore\n  pop\n    /* \"FlightGuard/contracts/LiquidityPool.sol\":1433:1662  constructor(address _tokenAddress, address _policyAddress) {... */\n  pop\n  pop\n    /* \"FlightGuard/contracts/LiquidityPool.sol\":590:5811  contract LiquidityPool {... */\n  jump(tag_6)\n    /* \"#utility.yul\":88:205   */\ntag_8:\n    /* \"#utility.yul\":197:198   */\n  0x00\n    /* \"#utility.yul\":194:195   */\n  dup1\n    /* \"#utility.yul\":187:199   */\n  revert\n    /* \"#utility.yul\":334:460   */\ntag_10:\n    /* \"#utility.yul\":371:378   */\n  0x00\n    /* \"#utility.yul\":411:453   */\n  0xffffffffffffffffffffffffffffffffffffffff\n    /* \"#utility.yul\":404:409   */\n  dup3\n    /* \"#utility.yul\":400:454   */\n  and\n    /* \"#utility.yul\":389:454   */\n  swap1\n  pop\n    /* \"#utility.yul\":334:460   */\n  swap2\n  swap1\n  pop\n  jump\t// out\n    /* \"#utility.yul\":466:562   */\ntag_11:\n    /* \"#utility.yul\":503:510   */\n  0x00\n    /* \"#utility.yul\":532:556   */\n  tag_20\n    /* \"#utility.yul\":550:555   */\n  dup3\n    /* \"#utility.yul\":532:556   */\n  tag_10\n  jump\t// in\ntag_20:\n    /* \"#utility.yul\":521:556   */\n  swap1\n  pop\n    /* \"#utility.yul\":466:562   */\n  swap2\n  swap1\n  pop\n  jump\t// out\n    /* \"#utility.yul\":568:690   */\ntag_12:\n    /* \"#utility.yul\":641:665   */\n  tag_22\n    /* \"#utility.yul\":659:664   */\n  dup2\n    /* \"#utility.yul\":641:665   */\n  tag_11\n  jump\t// in\ntag_22:\n    /* \"#utility.yul\":634:639   */\n  dup2\n    /* \"#utility.yul\":631:666   */\n  eq\n    /* \"#utility.yul\":621:684   */\n  tag_23\n  jumpi\n    /* \"#utility.yul\":680:681   */\n  0x00\n    /* \"#utility.yul\":677:678   */\n  dup1\n    /* \"#utility.yul\":670:682   */\n  revert\n    /* \"#utility.yul\":621:684   */\ntag_23:\n    /* \"#utility.yul\":568:690   */\n  pop\n  jump\t// out\n    /* \"#utility.yul\":696:839   */\ntag_13:\n    /* \"#utility.yul\":753:758   */\n  0x00\n    /* \"#utility.yul\":784:790   */\n  dup2\n    /* \"#utility.yul\":778:791   */\n  mload\n    /* \"#utility.yul\":769:791   */\n  swap1\n  pop\n    /* \"#utility.yul\":800:833   */\n  tag_25\n    /* \"#utility.yul\":827:832   */\n  dup2\n    /* \"#utility.yul\":800:833   */\n  tag_12\n  jump\t// in\ntag_25:\n    /* \"#utility.yul\":696:839   */\n  swap3\n  swap2\n  pop\n  pop\n  jump\t// out\n    /* \"#utility.yul\":845:1352   */\ntag_3:\n    /* \"#utility.yul\":924:930   */\n  0x00\n    /* \"#utility.yul\":932:938   */\n  dup1\n    /* \"#utility.yul\":981:983   */\n  0x40\n    /* \"#utility.yul\":969:978   */\n  dup4\n    /* \"#utility.yul\":960:967   */\n  dup6\n    /* \"#utility.yul\":956:979   */\n  sub\n    /* \"#utility.yul\":952:984   */\n  slt\n    /* \"#utility.yul\":949:1068   */\n  iszero\n  tag_27\n  jumpi\n    /* \"#utility.yul\":987:1066   */\n  tag_28\n  tag_8\n  jump\t// in\ntag_28:\n    /* \"#utility.yul\":949:1068   */\ntag_27:\n    /* \"#utility.yul\":1107:1108   */\n  0x00\n    /* \"#utility.yul\":1132:1196   */\n  tag_29\n    /* \"#utility.yul\":1188:1195   */\n  dup6\n    /* \"#utility.yul\":1179:1185   */\n  dup3\n    /* \"#utility.yul\":1168:1177   */\n  dup7\n    /* \"#utility.yul\":1164:1186   */\n  add\n    /* \"#utility.yul\":1132:1196   */\n  tag_13\n  jump\t// in\ntag_29:\n    /* \"#utility.yul\":1122:1196   */\n  swap3\n  pop\n    /* \"#utility.yul\":1078:1206   */\n  pop\n    /* \"#utility.yul\":1245:1247   */\n  0x20\n    /* \"#utility.yul\":1271:1335   */\n  tag_30\n    /* \"#utility.yul\":1327:1334   */\n  dup6\n    /* \"#utility.yul\":1318:1324   */\n  dup3\n    /* \"#utility.yul\":1307:1316   */\n  dup7\n    /* \"#utility.yul\":1303:1325   */\n  add\n    /* \"#utility.yul\":1271:1335   */\n  tag_13\n  jump\t// in\ntag_30:\n    /* \"#utility.yul\":1261:1335   */\n  swap2\n  pop\n    /* \"#utility.yul\":1216:1345   */\n  pop\n    /* \"#utility.yul\":845:1352   */\n  swap3\n  pop\n  swap3\n  swap1\n  pop\n  jump\t// out\n    /* \"FlightGuard/contracts/LiquidityPool.sol\":590:5811  contract LiquidityPool {... */\ntag_6:\n  dataSize(sub_0)\n  dup1\n  dataOffset(sub_0)\n  0x00\n  codecopy\n  0x00\n  return\nstop\n\nsub_0: assembly {\n        /* \"FlightGuard/contracts/LiquidityPool.sol\":590:5811  contract LiquidityPool {... */\n      mstore(0x40, 0x80)\n      jumpi(tag_1, lt(calldatasize, 0x04))\n      shr(0xe0, calldataload(0x00))\n      dup1\n      0x7ff06357\n      gt\n      tag_18\n      jumpi\n      dup1\n      0xaa4704f3\n      gt\n      tag_19\n      jumpi\n      dup1\n      0xaa4704f3\n      eq\n      tag_14\n      jumpi\n      dup1\n      0xb77cf9c6\n      eq\n      tag_15\n      jumpi\n      dup1\n      0xe4c731a4\n      eq\n      tag_16\n      jumpi\n      dup1\n      0xfc0c546a\n      eq\n      tag_17\n      jumpi\n      jump(tag_2)\n    tag_19:\n      dup1\n      0x7ff06357\n      eq\n      tag_10\n      jumpi\n      dup1\n      0x817b1cd2\n      eq\n      tag_11\n      jumpi\n      dup1\n      0x915fc94d\n      eq\n      tag_12\n      jumpi\n      dup1\n      0xa694fc3a\n      eq\n      tag_13\n      jumpi\n      jump(tag_2)\n    tag_18:\n      dup1\n      0x68e5585d\n      gt\n      tag_20\n      jumpi\n      dup1\n      0x68e5585d\n      eq\n      tag_6\n      jumpi\n      dup1\n      0x6f4a2cd0\n      eq\n      tag_7\n      jumpi\n      dup1\n      0x71201a0e\n      eq\n      tag_8\n      jumpi\n      dup1\n      0x75b17350\n      eq\n      tag_9\n      jumpi\n      jump(tag_2)\n    tag_20:\n      dup1\n      0x06a21efc\n      eq\n      tag_3\n      jumpi\n      dup1\n      0x2e17de78\n      eq\n      tag_4\n      jumpi\n      dup1\n      0x372500ab\n      eq\n      tag_5\n      jumpi\n      jump(tag_2)\n    tag_1:\n      jumpi(tag_2, calldatasize)\n        /* \"FlightGuard/contracts/LiquidityPool.sol\":5749:5758  msg.value */\n      callvalue\n        /* \"FlightGuard/contracts/LiquidityPool.sol\":5728:5745  premiumsCollected */\n      0x03\n      0x00\n        /* \"FlightGuard/contracts/LiquidityPool.sol\":5728:5758  premiumsCollected += msg.value */\n      dup3\n      dup3\n      sload\n      tag_23\n      swap2\n      swap1\n      tag_24\n      jump\t// in\n    tag_23:\n      swap3\n      pop\n      pop\n      dup2\n      swap1\n      sstore\n      pop\n        /* \"FlightGuard/contracts/LiquidityPool.sol\":5774:5800  PremiumReceived(msg.value) */\n      0x426fde376ad06cb3d6079fd86f5696a4de5382bccf98c90ed6b935014588fd78\n        /* \"FlightGuard/contracts/LiquidityPool.sol\":5790:5799  msg.value */\n      callvalue\n        /* \"FlightGuard/contracts/LiquidityPool.sol\":5774:5800  PremiumReceived(msg.value) */\n      mload(0x40)\n      tag_25\n      swap2\n      swap1\n      tag_26\n      jump\t// in\n    tag_25:\n      mload(0x40)\n      dup1\n      swap2\n      sub\n      swap1\n      log1\n        /* \"FlightGuard/contracts/LiquidityPool.sol\":590:5811  contract LiquidityPool {... */\n      stop\n    tag_2:\n      0x00\n      dup1\n      revert\n        /* \"FlightGuard/contracts/LiquidityPool.sol\":773:805  uint256 public premiumsCollected */\n    tag_3:\n      callvalue\n      dup1\n      iszero\n      tag_27\n      jumpi\n      0x00\n      dup1\n      revert\n    tag_27:\n      pop\n      tag_28\n      tag_29\n      jump\t// in\n    tag_28:\n      mload(0x40)\n      tag_30\n      swap2\n      swap1\n      tag_26\n      jump\t// in\n    tag_30:\n      mload(0x40)\n      dup1\n      swap2\n      sub\n      swap1\n      return\n        /* \"FlightGuard/contracts/LiquidityPool.sol\":2769:3350  function unstake(uint256 _amount) external {... */\n    tag_4:\n      callvalue\n      dup1\n      iszero\n      tag_31\n      jumpi\n      0x00\n      dup1\n      revert\n    tag_31:\n      pop\n      tag_32\n      0x04\n      dup1\n      calldatasize\n      sub\n      dup2\n      add\n      swap1\n      tag_33\n      swap2\n      swap1\n      tag_34\n      jump\t// in\n    tag_33:\n      tag_35\n      jump\t// in\n    tag_32:\n      stop\n        /* \"FlightGuard/contracts/LiquidityPool.sol\":3430:4041  function claimRewards() public {... */\n    tag_5:\n      callvalue\n      dup1\n      iszero\n      tag_36\n      jumpi\n      0x00\n      dup1\n      revert\n    tag_36:\n      pop\n      tag_37\n      tag_38\n      jump\t// in\n    tag_37:\n      stop\n        /* \"FlightGuard/contracts/LiquidityPool.sol\":935:979  mapping(address => uint256) public userStake */\n    tag_6:\n      callvalue\n      dup1\n      iszero\n      tag_39\n      jumpi\n      0x00\n      dup1\n      revert\n    tag_39:\n      pop\n      tag_40\n      0x04\n      dup1\n      calldatasize\n      sub\n      dup2\n      add\n      swap1\n      tag_41\n      swap2\n      swap1\n      tag_42\n      jump\t// in\n    tag_41:\n      tag_43\n      jump\t// in\n    tag_40:\n      mload(0x40)\n      tag_44\n      swap2\n      swap1\n      tag_26\n      jump\t// in\n    tag_44:\n      mload(0x40)\n      dup1\n      swap2\n      sub\n      swap1\n      return\n        /* \"FlightGuard/contracts/LiquidityPool.sol\":4346:4798  function distributeRewards() external {... */\n    tag_7:\n      callvalue\n      dup1\n      iszero\n      tag_45\n      jumpi\n      0x00\n      dup1\n      revert\n    tag_45:\n      pop\n      tag_46\n      tag_47\n      jump\t// in\n    tag_46:\n      stop\n        /* \"FlightGuard/contracts/LiquidityPool.sol\":854:898  uint256 public distributionInterval = 7 days */\n    tag_8:\n      callvalue\n      dup1\n      iszero\n      tag_48\n      jumpi\n      0x00\n      dup1\n      revert\n    tag_48:\n      pop\n      tag_49\n      tag_50\n      jump\t// in\n    tag_49:\n      mload(0x40)\n      tag_51\n      swap2\n      swap1\n      tag_26\n      jump\t// in\n    tag_51:\n      mload(0x40)\n      dup1\n      swap2\n      sub\n      swap1\n      return\n        /* \"FlightGuard/contracts/LiquidityPool.sol\":812:847  uint256 public lastDistributionTime */\n    tag_9:\n      callvalue\n      dup1\n      iszero\n      tag_52\n      jumpi\n      0x00\n      dup1\n      revert\n    tag_52:\n      pop\n      tag_53\n      tag_54\n      jump\t// in\n    tag_53:\n      mload(0x40)\n      tag_55\n      swap2\n      swap1\n      tag_26\n      jump\t// in\n    tag_55:\n      mload(0x40)\n      dup1\n      swap2\n      sub\n      swap1\n      return\n        /* \"FlightGuard/contracts/LiquidityPool.sol\":687:727  IFlightGuardPolicy public policyContract */\n    tag_10:\n      callvalue\n      dup1\n      iszero\n      tag_56\n      jumpi\n      0x00\n      dup1\n      revert\n    tag_56:\n      pop\n      tag_57\n      tag_58\n      jump\t// in\n    tag_57:\n      mload(0x40)\n      tag_59\n      swap2\n      swap1\n      tag_60\n      jump\t// in\n    tag_59:\n      mload(0x40)\n      dup1\n      swap2\n      sub\n      swap1\n      return\n        /* \"FlightGuard/contracts/LiquidityPool.sol\":740:766  uint256 public totalStaked */\n    tag_11:\n      callvalue\n      dup1\n      iszero\n      tag_61\n      jumpi\n      0x00\n      dup1\n      revert\n    tag_61:\n      pop\n      tag_62\n      tag_63\n      jump\t// in\n    tag_62:\n      mload(0x40)\n      tag_64\n      swap2\n      swap1\n      tag_26\n      jump\t// in\n    tag_64:\n      mload(0x40)\n      dup1\n      swap2\n      sub\n      swap1\n      return\n        /* \"FlightGuard/contracts/LiquidityPool.sol\":4121:4273  function receivePremium() external payable onlyPolicyOrOwner {... */\n    tag_12:\n      tag_65\n      tag_66\n      jump\t// in\n    tag_65:\n      stop\n        /* \"FlightGuard/contracts/LiquidityPool.sol\":2108:2636  function stake(uint256 _amount) external {... */\n    tag_13:\n      callvalue\n      dup1\n      iszero\n      tag_67\n      jumpi\n      0x00\n      dup1\n      revert\n    tag_67:\n      pop\n      tag_68\n      0x04\n      dup1\n      calldatasize\n      sub\n      dup2\n      add\n      swap1\n      tag_69\n      swap2\n      swap1\n      tag_34\n      jump\t// in\n    tag_69:\n      tag_70\n      jump\t// in\n    tag_68:\n      stop\n        /* \"FlightGuard/contracts/LiquidityPool.sol\":5030:5253  function getStakingInfo(address _user) external view returns (uint256 stakeAmount, uint256 share) {... */\n    tag_14:\n      callvalue\n      dup1\n      iszero\n      tag_71\n      jumpi\n      0x00\n      dup1\n      revert\n    tag_71:\n      pop\n      tag_72\n      0x04\n      dup1\n      calldatasize\n      sub\n      dup2\n      add\n      swap1\n      tag_73\n      swap2\n      swap1\n      tag_42\n      jump\t// in\n    tag_73:\n      tag_74\n      jump\t// in\n    tag_72:\n      mload(0x40)\n      tag_75\n      swap3\n      swap2\n      swap1\n      tag_76\n      jump\t// in\n    tag_75:\n      mload(0x40)\n      dup1\n      swap2\n      sub\n      swap1\n      return\n        /* \"FlightGuard/contracts/LiquidityPool.sol\":986:1034  mapping(address => uint256) public lastClaimTime */\n    tag_15:\n      callvalue\n      dup1\n      iszero\n      tag_77\n      jumpi\n      0x00\n      dup1\n      revert\n    tag_77:\n      pop\n      tag_78\n      0x04\n      dup1\n      calldatasize\n      sub\n      dup2\n      add\n      swap1\n      tag_79\n      swap2\n      swap1\n      tag_42\n      jump\t// in\n    tag_79:\n      tag_80\n      jump\t// in\n    tag_78:\n      mload(0x40)\n      tag_81\n      swap2\n      swap1\n      tag_26\n      jump\t// in\n    tag_81:\n      mload(0x40)\n      dup1\n      swap2\n      sub\n      swap1\n      return\n        /* \"FlightGuard/contracts/LiquidityPool.sol\":5419:5626  function emergencyRelease(address payable _to, uint256 _amount) external onlyPolicyOrOwner {... */\n    tag_16:\n      callvalue\n      dup1\n      iszero\n      tag_82\n      jumpi\n      0x00\n      dup1\n      revert\n    tag_82:\n      pop\n      tag_83\n      0x04\n      dup1\n      calldatasize\n      sub\n      dup2\n      add\n      swap1\n      tag_84\n      swap2\n      swap1\n      tag_85\n      jump\t// in\n    tag_84:\n      tag_86\n      jump\t// in\n    tag_83:\n      stop\n        /* \"FlightGuard/contracts/LiquidityPool.sol\":650:680  IFlightGuardToken public token */\n    tag_17:\n      callvalue\n      dup1\n      iszero\n      tag_87\n      jumpi\n      0x00\n      dup1\n      revert\n    tag_87:\n      pop\n      tag_88\n      tag_89\n      jump\t// in\n    tag_88:\n      mload(0x40)\n      tag_90\n      swap2\n      swap1\n      tag_91\n      jump\t// in\n    tag_90:\n      mload(0x40)\n      dup1\n      swap2\n      sub\n      swap1\n      return\n        /* \"FlightGuard/contracts/LiquidityPool.sol\":773:805  uint256 public premiumsCollected */\n    tag_29:\n      sload(0x03)\n      dup2\n      jump\t// out\n        /* \"FlightGuard/contracts/LiquidityPool.sol\":2769:3350  function unstake(uint256 _amount) external {... */\n    tag_35:\n        /* \"FlightGuard/contracts/LiquidityPool.sol\":2841:2842  0 */\n      0x00\n        /* \"FlightGuard/contracts/LiquidityPool.sol\":2831:2838  _amount */\n      dup2\n        /* \"FlightGuard/contracts/LiquidityPool.sol\":2831:2842  _amount > 0 */\n      gt\n        /* \"FlightGuard/contracts/LiquidityPool.sol\":2823:2879  require(_amount > 0, \"Amount must be greater than zero\") */\n      tag_93\n      jumpi\n      mload(0x40)\n      0x08c379a000000000000000000000000000000000000000000000000000000000\n      dup2\n      mstore\n      0x04\n      add\n      tag_94\n      swap1\n      tag_95\n      jump\t// in\n    tag_94:\n      mload(0x40)\n      dup1\n      swap2\n      sub\n      swap1\n      revert\n    tag_93:\n        /* \"FlightGuard/contracts/LiquidityPool.sol\":2923:2930  _amount */\n      dup1\n        /* \"FlightGuard/contracts/LiquidityPool.sol\":2898:2907  userStake */\n      0x06\n        /* \"FlightGuard/contracts/LiquidityPool.sol\":2898:2919  userStake[msg.sender] */\n      0x00\n        /* \"FlightGuard/contracts/LiquidityPool.sol\":2908:2918  msg.sender */\n      caller\n        /* \"FlightGuard/contracts/LiquidityPool.sol\":2898:2919  userStake[msg.sender] */\n      0xffffffffffffffffffffffffffffffffffffffff\n      and\n      0xffffffffffffffffffffffffffffffffffffffff\n      and\n      dup2\n      mstore\n      0x20\n      add\n      swap1\n      dup2\n      mstore\n      0x20\n      add\n      0x00\n      keccak256\n      sload\n        /* \"FlightGuard/contracts/LiquidityPool.sol\":2898:2930  userStake[msg.sender] >= _amount */\n      lt\n      iszero\n        /* \"FlightGuard/contracts/LiquidityPool.sol\":2890:2961  require(userStake[msg.sender] >= _amount, \"Insufficient staked amount\") */\n      tag_96\n      jumpi\n      mload(0x40)\n      0x08c379a000000000000000000000000000000000000000000000000000000000\n      dup2\n      mstore\n      0x04\n      add\n      tag_97\n      swap1\n      tag_98\n      jump\t// in\n    tag_97:\n      mload(0x40)\n      dup1\n      swap2\n      sub\n      swap1\n      revert\n    tag_96:\n        /* \"FlightGuard/contracts/LiquidityPool.sol\":3026:3040  claimRewards() */\n      tag_99\n        /* \"FlightGuard/contracts/LiquidityPool.sol\":3026:3038  claimRewards */\n      tag_38\n        /* \"FlightGuard/contracts/LiquidityPool.sol\":3026:3040  claimRewards() */\n      jump\t// in\n    tag_99:\n        /* \"FlightGuard/contracts/LiquidityPool.sol\":3116:3123  _amount */\n      dup1\n        /* \"FlightGuard/contracts/LiquidityPool.sol\":3091:3100  userStake */\n      0x06\n        /* \"FlightGuard/contracts/LiquidityPool.sol\":3091:3112  userStake[msg.sender] */\n      0x00\n        /* \"FlightGuard/contracts/LiquidityPool.sol\":3101:3111  msg.sender */\n      caller\n        /* \"FlightGuard/contracts/LiquidityPool.sol\":3091:3112  userStake[msg.sender] */\n      0xffffffffffffffffffffffffffffffffffffffff\n      and\n      0xffffffffffffffffffffffffffffffffffffffff\n      and\n      dup2\n      mstore\n      0x20\n      add\n      swap1\n      dup2\n      mstore\n      0x20\n      add\n      0x00\n      keccak256\n      0x00\n        /* \"FlightGuard/contracts/LiquidityPool.sol\":3091:3123  userStake[msg.sender] -= _amount */\n      dup3\n      dup3\n      sload\n      tag_100\n      swap2\n      swap1\n      tag_101\n      jump\t// in\n    tag_100:\n      swap3\n      pop\n      pop\n      dup2\n      swap1\n      sstore\n      pop\n        /* \"FlightGuard/contracts/LiquidityPool.sol\":3149:3156  _amount */\n      dup1\n        /* \"FlightGuard/contracts/LiquidityPool.sol\":3134:3145  totalStaked */\n      0x02\n      0x00\n        /* \"FlightGuard/contracts/LiquidityPool.sol\":3134:3156  totalStaked -= _amount */\n      dup3\n      dup3\n      sload\n      tag_102\n      swap2\n      swap1\n      tag_101\n      jump\t// in\n    tag_102:\n      swap3\n      pop\n      pop\n      dup2\n      swap1\n      sstore\n      pop\n        /* \"FlightGuard/contracts/LiquidityPool.sol\":3226:3231  token */\n      0x00\n      dup1\n      sload\n      swap1\n      0x0100\n      exp\n      swap1\n      div\n      0xffffffffffffffffffffffffffffffffffffffff\n      and\n        /* \"FlightGuard/contracts/LiquidityPool.sol\":3226:3240  token.transfer */\n      0xffffffffffffffffffffffffffffffffffffffff\n      and\n      0xa9059cbb\n        /* \"FlightGuard/contracts/LiquidityPool.sol\":3241:3251  msg.sender */\n      caller\n        /* \"FlightGuard/contracts/LiquidityPool.sol\":3253:3260  _amount */\n      dup4\n        /* \"FlightGuard/contracts/LiquidityPool.sol\":3226:3261  token.transfer(msg.sender, _amount) */\n      mload(0x40)\n      dup4\n      0xffffffff\n      and\n      0xe0\n      shl\n      dup2\n      mstore\n      0x04\n      add\n      tag_103\n      swap3\n      swap2\n      swap1\n      tag_104\n      jump\t// in\n    tag_103:\n      0x20\n      mload(0x40)\n      dup1\n      dup4\n      sub\n      dup2\n      0x00\n      dup8\n      gas\n      call\n      iszero\n      dup1\n      iszero\n      tag_106\n      jumpi\n      returndatasize\n      0x00\n      dup1\n      returndatacopy\n      revert(0x00, returndatasize)\n    tag_106:\n      pop\n      pop\n      pop\n      pop\n      mload(0x40)\n      returndatasize\n      not(0x1f)\n      0x1f\n      dup3\n      add\n      and\n      dup3\n      add\n      dup1\n      0x40\n      mstore\n      pop\n      dup2\n      add\n      swap1\n      tag_107\n      swap2\n      swap1\n      tag_108\n      jump\t// in\n    tag_107:\n        /* \"FlightGuard/contracts/LiquidityPool.sol\":3218:3287  require(token.transfer(msg.sender, _amount), \"Token transfer failed\") */\n      tag_109\n      jumpi\n      mload(0x40)\n      0x08c379a000000000000000000000000000000000000000000000000000000000\n      dup2\n      mstore\n      0x04\n      add\n      tag_110\n      swap1\n      tag_111\n      jump\t// in\n    tag_110:\n      mload(0x40)\n      dup1\n      swap2\n      sub\n      swap1\n      revert\n    tag_109:\n        /* \"FlightGuard/contracts/LiquidityPool.sol\":3322:3332  msg.sender */\n      caller\n        /* \"FlightGuard/contracts/LiquidityPool.sol\":3313:3342  Unstaked(msg.sender, _amount) */\n      0xffffffffffffffffffffffffffffffffffffffff\n      and\n      0x0f5bb82176feb1b5e747e28471aa92156a04d9f3ab9f45f28e2d704232b93f75\n        /* \"FlightGuard/contracts/LiquidityPool.sol\":3334:3341  _amount */\n      dup3\n        /* \"FlightGuard/contracts/LiquidityPool.sol\":3313:3342  Unstaked(msg.sender, _amount) */\n      mload(0x40)\n      tag_112\n      swap2\n      swap1\n      tag_26\n      jump\t// in\n    tag_112:\n      mload(0x40)\n      dup1\n      swap2\n      sub\n      swap1\n      log2\n        /* \"FlightGuard/contracts/LiquidityPool.sol\":2769:3350  function unstake(uint256 _amount) external {... */\n      pop\n      jump\t// out\n        /* \"FlightGuard/contracts/LiquidityPool.sol\":3430:4041  function claimRewards() public {... */\n    tag_38:\n        /* \"FlightGuard/contracts/LiquidityPool.sol\":3491:3492  0 */\n      0x00\n        /* \"FlightGuard/contracts/LiquidityPool.sol\":3476:3487  totalStaked */\n      sload(0x02)\n        /* \"FlightGuard/contracts/LiquidityPool.sol\":3476:3492  totalStaked == 0 */\n      sub\n        /* \"FlightGuard/contracts/LiquidityPool.sol\":3472:3501  if (totalStaked == 0) return; */\n      iszero\n        /* \"FlightGuard/contracts/LiquidityPool.sol\":3494:3501  return; */\n      tag_113\n        /* \"FlightGuard/contracts/LiquidityPool.sol\":3472:3501  if (totalStaked == 0) return; */\n      jumpi\n        /* \"FlightGuard/contracts/LiquidityPool.sol\":3521:3538  uint256 userShare */\n      0x00\n        /* \"FlightGuard/contracts/LiquidityPool.sol\":3541:3550  userStake */\n      0x06\n        /* \"FlightGuard/contracts/LiquidityPool.sol\":3541:3562  userStake[msg.sender] */\n      0x00\n        /* \"FlightGuard/contracts/LiquidityPool.sol\":3551:3561  msg.sender */\n      caller\n        /* \"FlightGuard/contracts/LiquidityPool.sol\":3541:3562  userStake[msg.sender] */\n      0xffffffffffffffffffffffffffffffffffffffff\n      and\n      0xffffffffffffffffffffffffffffffffffffffff\n      and\n      dup2\n      mstore\n      0x20\n      add\n      swap1\n      dup2\n      mstore\n      0x20\n      add\n      0x00\n      keccak256\n      sload\n        /* \"FlightGuard/contracts/LiquidityPool.sol\":3521:3562  uint256 userShare = userStake[msg.sender] */\n      swap1\n      pop\n        /* \"FlightGuard/contracts/LiquidityPool.sol\":3590:3591  0 */\n      0x00\n        /* \"FlightGuard/contracts/LiquidityPool.sol\":3577:3586  userShare */\n      dup2\n        /* \"FlightGuard/contracts/LiquidityPool.sol\":3577:3591  userShare == 0 */\n      sub\n        /* \"FlightGuard/contracts/LiquidityPool.sol\":3573:3600  if (userShare == 0) return; */\n      tag_115\n      jumpi\n        /* \"FlightGuard/contracts/LiquidityPool.sol\":3593:3600  return; */\n      pop\n      jump(tag_113)\n        /* \"FlightGuard/contracts/LiquidityPool.sol\":3573:3600  if (userShare == 0) return; */\n    tag_115:\n        /* \"FlightGuard/contracts/LiquidityPool.sol\":3620:3642  uint256 pendingRewards */\n      0x00\n        /* \"FlightGuard/contracts/LiquidityPool.sol\":3679:3690  totalStaked */\n      sload(0x02)\n        /* \"FlightGuard/contracts/LiquidityPool.sol\":3666:3675  userShare */\n      dup3\n        /* \"FlightGuard/contracts/LiquidityPool.sol\":3646:3663  premiumsCollected */\n      sload(0x03)\n        /* \"FlightGuard/contracts/LiquidityPool.sol\":3646:3675  premiumsCollected * userShare */\n      tag_116\n      swap2\n      swap1\n      tag_117\n      jump\t// in\n    tag_116:\n        /* \"FlightGuard/contracts/LiquidityPool.sol\":3645:3690  (premiumsCollected * userShare) / totalStaked */\n      tag_118\n      swap2\n      swap1\n      tag_119\n      jump\t// in\n    tag_118:\n        /* \"FlightGuard/contracts/LiquidityPool.sol\":3620:3690  uint256 pendingRewards = (premiumsCollected * userShare) / totalStaked */\n      swap1\n      pop\n        /* \"FlightGuard/contracts/LiquidityPool.sol\":3723:3724  0 */\n      0x00\n        /* \"FlightGuard/contracts/LiquidityPool.sol\":3705:3719  pendingRewards */\n      dup2\n        /* \"FlightGuard/contracts/LiquidityPool.sol\":3705:3724  pendingRewards == 0 */\n      sub\n        /* \"FlightGuard/contracts/LiquidityPool.sol\":3701:3733  if (pendingRewards == 0) return; */\n      tag_120\n      jumpi\n        /* \"FlightGuard/contracts/LiquidityPool.sol\":3726:3733  return; */\n      pop\n      pop\n      jump(tag_113)\n        /* \"FlightGuard/contracts/LiquidityPool.sol\":3701:3733  if (pendingRewards == 0) return; */\n    tag_120:\n        /* \"FlightGuard/contracts/LiquidityPool.sol\":3816:3831  block.timestamp */\n      timestamp\n        /* \"FlightGuard/contracts/LiquidityPool.sol\":3788:3801  lastClaimTime */\n      0x07\n        /* \"FlightGuard/contracts/LiquidityPool.sol\":3788:3813  lastClaimTime[msg.sender] */\n      0x00\n        /* \"FlightGuard/contracts/LiquidityPool.sol\":3802:3812  msg.sender */\n      caller\n        /* \"FlightGuard/contracts/LiquidityPool.sol\":3788:3813  lastClaimTime[msg.sender] */\n      0xffffffffffffffffffffffffffffffffffffffff\n      and\n      0xffffffffffffffffffffffffffffffffffffffff\n      and\n      dup2\n      mstore\n      0x20\n      add\n      swap1\n      dup2\n      mstore\n      0x20\n      add\n      0x00\n      keccak256\n        /* \"FlightGuard/contracts/LiquidityPool.sol\":3788:3831  lastClaimTime[msg.sender] = block.timestamp */\n      dup2\n      swap1\n      sstore\n      pop\n        /* \"FlightGuard/contracts/LiquidityPool.sol\":3897:3902  token */\n      0x00\n      dup1\n      sload\n      swap1\n      0x0100\n      exp\n      swap1\n      div\n      0xffffffffffffffffffffffffffffffffffffffff\n      and\n        /* \"FlightGuard/contracts/LiquidityPool.sol\":3897:3911  token.transfer */\n      0xffffffffffffffffffffffffffffffffffffffff\n      and\n      0xa9059cbb\n        /* \"FlightGuard/contracts/LiquidityPool.sol\":3912:3922  msg.sender */\n      caller\n        /* \"FlightGuard/contracts/LiquidityPool.sol\":3924:3938  pendingRewards */\n      dup4\n        /* \"FlightGuard/contracts/LiquidityPool.sol\":3897:3939  token.transfer(msg.sender, pendingRewards) */\n      mload(0x40)\n      dup4\n      0xffffffff\n      and\n      0xe0\n      shl\n      dup2\n      mstore\n      0x04\n      add\n      tag_121\n      swap3\n      swap2\n      swap1\n      tag_104\n      jump\t// in\n    tag_121:\n      0x20\n      mload(0x40)\n      dup1\n      dup4\n      sub\n      dup2\n      0x00\n      dup8\n      gas\n      call\n      iszero\n      dup1\n      iszero\n      tag_123\n      jumpi\n      returndatasize\n      0x00\n      dup1\n      returndatacopy\n      revert(0x00, returndatasize)\n    tag_123:\n      pop\n      pop\n      pop\n      pop\n      mload(0x40)\n      returndatasize\n      not(0x1f)\n      0x1f\n      dup3\n      add\n      and\n      dup3\n      add\n      dup1\n      0x40\n      mstore\n      pop\n      dup2\n      add\n      swap1\n      tag_124\n      swap2\n      swap1\n      tag_108\n      jump\t// in\n    tag_124:\n        /* \"FlightGuard/contracts/LiquidityPool.sol\":3889:3965  require(token.transfer(msg.sender, pendingRewards), \"Token transfer failed\") */\n      tag_125\n      jumpi\n      mload(0x40)\n      0x08c379a000000000000000000000000000000000000000000000000000000000\n      dup2\n      mstore\n      0x04\n      add\n      tag_126\n      swap1\n      tag_111\n      jump\t// in\n    tag_126:\n      mload(0x40)\n      dup1\n      swap2\n      sub\n      swap1\n      revert\n    tag_125:\n        /* \"FlightGuard/contracts/LiquidityPool.sol\":4006:4016  msg.sender */\n      caller\n        /* \"FlightGuard/contracts/LiquidityPool.sol\":3991:4033  RewardsClaimed(msg.sender, pendingRewards) */\n      0xffffffffffffffffffffffffffffffffffffffff\n      and\n      0xfc30cddea38e2bf4d6ea7d3f9ed3b6ad7f176419f4963bd81318067a4aee73fe\n        /* \"FlightGuard/contracts/LiquidityPool.sol\":4018:4032  pendingRewards */\n      dup3\n        /* \"FlightGuard/contracts/LiquidityPool.sol\":3991:4033  RewardsClaimed(msg.sender, pendingRewards) */\n      mload(0x40)\n      tag_127\n      swap2\n      swap1\n      tag_26\n      jump\t// in\n    tag_127:\n      mload(0x40)\n      dup1\n      swap2\n      sub\n      swap1\n      log2\n        /* \"FlightGuard/contracts/LiquidityPool.sol\":3461:4041  {... */\n      pop\n      pop\n        /* \"FlightGuard/contracts/LiquidityPool.sol\":3430:4041  function claimRewards() public {... */\n    tag_113:\n      jump\t// out\n        /* \"FlightGuard/contracts/LiquidityPool.sol\":935:979  mapping(address => uint256) public userStake */\n    tag_43:\n      mstore(0x20, 0x06)\n      dup1\n      0x00\n      mstore\n      keccak256(0x00, 0x40)\n      0x00\n      swap2\n      pop\n      swap1\n      pop\n      sload\n      dup2\n      jump\t// out\n        /* \"FlightGuard/contracts/LiquidityPool.sol\":4346:4798  function distributeRewards() external {... */\n    tag_47:\n        /* \"FlightGuard/contracts/LiquidityPool.sol\":4445:4465  distributionInterval */\n      sload(0x05)\n        /* \"FlightGuard/contracts/LiquidityPool.sol\":4422:4442  lastDistributionTime */\n      sload(0x04)\n        /* \"FlightGuard/contracts/LiquidityPool.sol\":4422:4465  lastDistributionTime + distributionInterval */\n      tag_129\n      swap2\n      swap1\n      tag_24\n      jump\t// in\n    tag_129:\n        /* \"FlightGuard/contracts/LiquidityPool.sol\":4403:4418  block.timestamp */\n      timestamp\n        /* \"FlightGuard/contracts/LiquidityPool.sol\":4403:4465  block.timestamp >= lastDistributionTime + distributionInterval */\n      lt\n      iszero\n        /* \"FlightGuard/contracts/LiquidityPool.sol\":4395:4503  require(block.timestamp >= lastDistributionTime + distributionInterval, \"Distribution interval not reached\") */\n      tag_130\n      jumpi\n      mload(0x40)\n      0x08c379a000000000000000000000000000000000000000000000000000000000\n      dup2\n      mstore\n      0x04\n      add\n      tag_131\n      swap1\n      tag_132\n      jump\t// in\n    tag_131:\n      mload(0x40)\n      dup1\n      swap2\n      sub\n      swap1\n      revert\n    tag_130:\n        /* \"FlightGuard/contracts/LiquidityPool.sol\":4547:4562  block.timestamp */\n      timestamp\n        /* \"FlightGuard/contracts/LiquidityPool.sol\":4524:4544  lastDistributionTime */\n      0x04\n        /* \"FlightGuard/contracts/LiquidityPool.sol\":4524:4562  lastDistributionTime = block.timestamp */\n      dup2\n      swap1\n      sstore\n      pop\n        /* \"FlightGuard/contracts/LiquidityPool.sol\":4602:4603  0 */\n      0x00\n        /* \"FlightGuard/contracts/LiquidityPool.sol\":4587:4598  totalStaked */\n      sload(0x02)\n        /* \"FlightGuard/contracts/LiquidityPool.sol\":4587:4603  totalStaked == 0 */\n      eq\n        /* \"FlightGuard/contracts/LiquidityPool.sol\":4587:4629  totalStaked == 0 || premiumsCollected == 0 */\n      dup1\n      tag_133\n      jumpi\n      pop\n        /* \"FlightGuard/contracts/LiquidityPool.sol\":4628:4629  0 */\n      0x00\n        /* \"FlightGuard/contracts/LiquidityPool.sol\":4607:4624  premiumsCollected */\n      sload(0x03)\n        /* \"FlightGuard/contracts/LiquidityPool.sol\":4607:4629  premiumsCollected == 0 */\n      eq\n        /* \"FlightGuard/contracts/LiquidityPool.sol\":4587:4629  totalStaked == 0 || premiumsCollected == 0 */\n    tag_133:\n        /* \"FlightGuard/contracts/LiquidityPool.sol\":4631:4638  return; */\n      tag_128\n        /* \"FlightGuard/contracts/LiquidityPool.sol\":4583:4638  if (totalStaked == 0 || premiumsCollected == 0) return; */\n      jumpi\n        /* \"FlightGuard/contracts/LiquidityPool.sol\":4658:4679  uint256 rewardsAmount */\n      0x00\n        /* \"FlightGuard/contracts/LiquidityPool.sol\":4682:4699  premiumsCollected */\n      sload(0x03)\n        /* \"FlightGuard/contracts/LiquidityPool.sol\":4658:4699  uint256 rewardsAmount = premiumsCollected */\n      swap1\n      pop\n        /* \"FlightGuard/contracts/LiquidityPool.sol\":4730:4731  0 */\n      0x00\n        /* \"FlightGuard/contracts/LiquidityPool.sol\":4710:4727  premiumsCollected */\n      0x03\n        /* \"FlightGuard/contracts/LiquidityPool.sol\":4710:4731  premiumsCollected = 0 */\n      dup2\n      swap1\n      sstore\n      pop\n        /* \"FlightGuard/contracts/LiquidityPool.sol\":4757:4790  RewardsDistributed(rewardsAmount) */\n      0x6d1c76d614228b523baa4dcd9539e2c713b54ff4ab3ff2d1627e7f6cd32be442\n        /* \"FlightGuard/contracts/LiquidityPool.sol\":4776:4789  rewardsAmount */\n      dup2\n        /* \"FlightGuard/contracts/LiquidityPool.sol\":4757:4790  RewardsDistributed(rewardsAmount) */\n      mload(0x40)\n      tag_135\n      swap2\n      swap1\n      tag_26\n      jump\t// in\n    tag_135:\n      mload(0x40)\n      dup1\n      swap2\n      sub\n      swap1\n      log1\n        /* \"FlightGuard/contracts/LiquidityPool.sol\":4384:4798  {... */\n      pop\n        /* \"FlightGuard/contracts/LiquidityPool.sol\":4346:4798  function distributeRewards() external {... */\n    tag_128:\n      jump\t// out\n        /* \"FlightGuard/contracts/LiquidityPool.sol\":854:898  uint256 public distributionInterval = 7 days */\n    tag_50:\n      sload(0x05)\n      dup2\n      jump\t// out\n        /* \"FlightGuard/contracts/LiquidityPool.sol\":812:847  uint256 public lastDistributionTime */\n    tag_54:\n      sload(0x04)\n      dup2\n      jump\t// out\n        /* \"FlightGuard/contracts/LiquidityPool.sol\":687:727  IFlightGuardPolicy public policyContract */\n    tag_58:\n      0x01\n      0x00\n      swap1\n      sload\n      swap1\n      0x0100\n      exp\n      swap1\n      div\n      0xffffffffffffffffffffffffffffffffffffffff\n      and\n      dup2\n      jump\t// out\n        /* \"FlightGuard/contracts/LiquidityPool.sol\":740:766  uint256 public totalStaked */\n    tag_63:\n      sload(0x02)\n      dup2\n      jump\t// out\n        /* \"FlightGuard/contracts/LiquidityPool.sol\":4121:4273  function receivePremium() external payable onlyPolicyOrOwner {... */\n    tag_66:\n        /* \"FlightGuard/contracts/LiquidityPool.sol\":1848:1862  policyContract */\n      0x01\n      0x00\n      swap1\n      sload\n      swap1\n      0x0100\n      exp\n      swap1\n      div\n      0xffffffffffffffffffffffffffffffffffffffff\n      and\n        /* \"FlightGuard/contracts/LiquidityPool.sol\":1826:1863  msg.sender == address(policyContract) */\n      0xffffffffffffffffffffffffffffffffffffffff\n      and\n        /* \"FlightGuard/contracts/LiquidityPool.sol\":1826:1836  msg.sender */\n      caller\n        /* \"FlightGuard/contracts/LiquidityPool.sol\":1826:1863  msg.sender == address(policyContract) */\n      0xffffffffffffffffffffffffffffffffffffffff\n      and\n      eq\n        /* \"FlightGuard/contracts/LiquidityPool.sol\":1826:1917  msg.sender == address(policyContract) || ... */\n      dup1\n      tag_137\n      jumpi\n      pop\n        /* \"FlightGuard/contracts/LiquidityPool.sol\":1895:1909  policyContract */\n      0x01\n      0x00\n      swap1\n      sload\n      swap1\n      0x0100\n      exp\n      swap1\n      div\n      0xffffffffffffffffffffffffffffffffffffffff\n      and\n        /* \"FlightGuard/contracts/LiquidityPool.sol\":1895:1915  policyContract.owner */\n      0xffffffffffffffffffffffffffffffffffffffff\n      and\n      0x8da5cb5b\n        /* \"FlightGuard/contracts/LiquidityPool.sol\":1895:1917  policyContract.owner() */\n      mload(0x40)\n      dup2\n      0xffffffff\n      and\n      0xe0\n      shl\n      dup2\n      mstore\n      0x04\n      add\n      0x20\n      mload(0x40)\n      dup1\n      dup4\n      sub\n      dup2\n      dup7\n      gas\n      staticcall\n      iszero\n      dup1\n      iszero\n      tag_139\n      jumpi\n      returndatasize\n      0x00\n      dup1\n      returndatacopy\n      revert(0x00, returndatasize)\n    tag_139:\n      pop\n      pop\n      pop\n      pop\n      mload(0x40)\n      returndatasize\n      not(0x1f)\n      0x1f\n      dup3\n      add\n      and\n      dup3\n      add\n      dup1\n      0x40\n      mstore\n      pop\n      dup2\n      add\n      swap1\n      tag_140\n      swap2\n      swap1\n      tag_141\n      jump\t// in\n    tag_140:\n        /* \"FlightGuard/contracts/LiquidityPool.sol\":1881:1917  msg.sender == policyContract.owner() */\n      0xffffffffffffffffffffffffffffffffffffffff\n      and\n        /* \"FlightGuard/contracts/LiquidityPool.sol\":1881:1891  msg.sender */\n      caller\n        /* \"FlightGuard/contracts/LiquidityPool.sol\":1881:1917  msg.sender == policyContract.owner() */\n      0xffffffffffffffffffffffffffffffffffffffff\n      and\n      eq\n        /* \"FlightGuard/contracts/LiquidityPool.sol\":1826:1917  msg.sender == address(policyContract) || ... */\n    tag_137:\n        /* \"FlightGuard/contracts/LiquidityPool.sol\":1804:1959  require(... */\n      tag_142\n      jumpi\n      mload(0x40)\n      0x08c379a000000000000000000000000000000000000000000000000000000000\n      dup2\n      mstore\n      0x04\n      add\n      tag_143\n      swap1\n      tag_144\n      jump\t// in\n    tag_143:\n      mload(0x40)\n      dup1\n      swap2\n      sub\n      swap1\n      revert\n    tag_142:\n        /* \"FlightGuard/contracts/LiquidityPool.sol\":4214:4223  msg.value */\n      callvalue\n        /* \"FlightGuard/contracts/LiquidityPool.sol\":4193:4210  premiumsCollected */\n      0x03\n      0x00\n        /* \"FlightGuard/contracts/LiquidityPool.sol\":4193:4223  premiumsCollected += msg.value */\n      dup3\n      dup3\n      sload\n      tag_146\n      swap2\n      swap1\n      tag_24\n      jump\t// in\n    tag_146:\n      swap3\n      pop\n      pop\n      dup2\n      swap1\n      sstore\n      pop\n        /* \"FlightGuard/contracts/LiquidityPool.sol\":4239:4265  PremiumReceived(msg.value) */\n      0x426fde376ad06cb3d6079fd86f5696a4de5382bccf98c90ed6b935014588fd78\n        /* \"FlightGuard/contracts/LiquidityPool.sol\":4255:4264  msg.value */\n      callvalue\n        /* \"FlightGuard/contracts/LiquidityPool.sol\":4239:4265  PremiumReceived(msg.value) */\n      mload(0x40)\n      tag_147\n      swap2\n      swap1\n      tag_26\n      jump\t// in\n    tag_147:\n      mload(0x40)\n      dup1\n      swap2\n      sub\n      swap1\n      log1\n        /* \"FlightGuard/contracts/LiquidityPool.sol\":4121:4273  function receivePremium() external payable onlyPolicyOrOwner {... */\n      jump\t// out\n        /* \"FlightGuard/contracts/LiquidityPool.sol\":2108:2636  function stake(uint256 _amount) external {... */\n    tag_70:\n        /* \"FlightGuard/contracts/LiquidityPool.sol\":2178:2179  0 */\n      0x00\n        /* \"FlightGuard/contracts/LiquidityPool.sol\":2168:2175  _amount */\n      dup2\n        /* \"FlightGuard/contracts/LiquidityPool.sol\":2168:2179  _amount > 0 */\n      gt\n        /* \"FlightGuard/contracts/LiquidityPool.sol\":2160:2216  require(_amount > 0, \"Amount must be greater than zero\") */\n      tag_149\n      jumpi\n      mload(0x40)\n      0x08c379a000000000000000000000000000000000000000000000000000000000\n      dup2\n      mstore\n      0x04\n      add\n      tag_150\n      swap1\n      tag_95\n      jump\t// in\n    tag_150:\n      mload(0x40)\n      dup1\n      swap2\n      sub\n      swap1\n      revert\n    tag_149:\n        /* \"FlightGuard/contracts/LiquidityPool.sol\":2281:2295  claimRewards() */\n      tag_151\n        /* \"FlightGuard/contracts/LiquidityPool.sol\":2281:2293  claimRewards */\n      tag_38\n        /* \"FlightGuard/contracts/LiquidityPool.sol\":2281:2295  claimRewards() */\n      jump\t// in\n    tag_151:\n        /* \"FlightGuard/contracts/LiquidityPool.sol\":2379:2384  token */\n      0x00\n      dup1\n      sload\n      swap1\n      0x0100\n      exp\n      swap1\n      div\n      0xffffffffffffffffffffffffffffffffffffffff\n      and\n        /* \"FlightGuard/contracts/LiquidityPool.sol\":2379:2397  token.transferFrom */\n      0xffffffffffffffffffffffffffffffffffffffff\n      and\n      0x23b872dd\n        /* \"FlightGuard/contracts/LiquidityPool.sol\":2398:2408  msg.sender */\n      caller\n        /* \"FlightGuard/contracts/LiquidityPool.sol\":2418:2422  this */\n      address\n        /* \"FlightGuard/contracts/LiquidityPool.sol\":2425:2432  _amount */\n      dup5\n        /* \"FlightGuard/contracts/LiquidityPool.sol\":2379:2433  token.transferFrom(msg.sender, address(this), _amount) */\n      mload(0x40)\n      dup5\n      0xffffffff\n      and\n      0xe0\n      shl\n      dup2\n      mstore\n      0x04\n      add\n      tag_152\n      swap4\n      swap3\n      swap2\n      swap1\n      tag_153\n      jump\t// in\n    tag_152:\n      0x20\n      mload(0x40)\n      dup1\n      dup4\n      sub\n      dup2\n      0x00\n      dup8\n      gas\n      call\n      iszero\n      dup1\n      iszero\n      tag_155\n      jumpi\n      returndatasize\n      0x00\n      dup1\n      returndatacopy\n      revert(0x00, returndatasize)\n    tag_155:\n      pop\n      pop\n      pop\n      pop\n      mload(0x40)\n      returndatasize\n      not(0x1f)\n      0x1f\n      dup3\n      add\n      and\n      dup3\n      add\n      dup1\n      0x40\n      mstore\n      pop\n      dup2\n      add\n      swap1\n      tag_156\n      swap2\n      swap1\n      tag_108\n      jump\t// in\n    tag_156:\n        /* \"FlightGuard/contracts/LiquidityPool.sol\":2371:2459  require(token.transferFrom(msg.sender, address(this), _amount), \"Token transfer failed\") */\n      tag_157\n      jumpi\n      mload(0x40)\n      0x08c379a000000000000000000000000000000000000000000000000000000000\n      dup2\n      mstore\n      0x04\n      add\n      tag_158\n      swap1\n      tag_111\n      jump\t// in\n    tag_158:\n      mload(0x40)\n      dup1\n      swap2\n      sub\n      swap1\n      revert\n    tag_157:\n        /* \"FlightGuard/contracts/LiquidityPool.sol\":2535:2542  _amount */\n      dup1\n        /* \"FlightGuard/contracts/LiquidityPool.sol\":2510:2519  userStake */\n      0x06\n        /* \"FlightGuard/contracts/LiquidityPool.sol\":2510:2531  userStake[msg.sender] */\n      0x00\n        /* \"FlightGuard/contracts/LiquidityPool.sol\":2520:2530  msg.sender */\n      caller\n        /* \"FlightGuard/contracts/LiquidityPool.sol\":2510:2531  userStake[msg.sender] */\n      0xffffffffffffffffffffffffffffffffffffffff\n      and\n      0xffffffffffffffffffffffffffffffffffffffff\n      and\n      dup2\n      mstore\n      0x20\n      add\n      swap1\n      dup2\n      mstore\n      0x20\n      add\n      0x00\n      keccak256\n      0x00\n        /* \"FlightGuard/contracts/LiquidityPool.sol\":2510:2542  userStake[msg.sender] += _amount */\n      dup3\n      dup3\n      sload\n      tag_159\n      swap2\n      swap1\n      tag_24\n      jump\t// in\n    tag_159:\n      swap3\n      pop\n      pop\n      dup2\n      swap1\n      sstore\n      pop\n        /* \"FlightGuard/contracts/LiquidityPool.sol\":2568:2575  _amount */\n      dup1\n        /* \"FlightGuard/contracts/LiquidityPool.sol\":2553:2564  totalStaked */\n      0x02\n      0x00\n        /* \"FlightGuard/contracts/LiquidityPool.sol\":2553:2575  totalStaked += _amount */\n      dup3\n      dup3\n      sload\n      tag_160\n      swap2\n      swap1\n      tag_24\n      jump\t// in\n    tag_160:\n      swap3\n      pop\n      pop\n      dup2\n      swap1\n      sstore\n      pop\n        /* \"FlightGuard/contracts/LiquidityPool.sol\":2608:2618  msg.sender */\n      caller\n        /* \"FlightGuard/contracts/LiquidityPool.sol\":2601:2628  Staked(msg.sender, _amount) */\n      0xffffffffffffffffffffffffffffffffffffffff\n      and\n      0x9e71bc8eea02a63969f509818f2dafb9254532904319f9dbda79b67bd34a5f3d\n        /* \"FlightGuard/contracts/LiquidityPool.sol\":2620:2627  _amount */\n      dup3\n        /* \"FlightGuard/contracts/LiquidityPool.sol\":2601:2628  Staked(msg.sender, _amount) */\n      mload(0x40)\n      tag_161\n      swap2\n      swap1\n      tag_26\n      jump\t// in\n    tag_161:\n      mload(0x40)\n      dup1\n      swap2\n      sub\n      swap1\n      log2\n        /* \"FlightGuard/contracts/LiquidityPool.sol\":2108:2636  function stake(uint256 _amount) external {... */\n      pop\n      jump\t// out\n        /* \"FlightGuard/contracts/LiquidityPool.sol\":5030:5253  function getStakingInfo(address _user) external view returns (uint256 stakeAmount, uint256 share) {... */\n    tag_74:\n        /* \"FlightGuard/contracts/LiquidityPool.sol\":5092:5111  uint256 stakeAmount */\n      0x00\n        /* \"FlightGuard/contracts/LiquidityPool.sol\":5113:5126  uint256 share */\n      dup1\n        /* \"FlightGuard/contracts/LiquidityPool.sol\":5153:5162  userStake */\n      0x06\n        /* \"FlightGuard/contracts/LiquidityPool.sol\":5153:5169  userStake[_user] */\n      0x00\n        /* \"FlightGuard/contracts/LiquidityPool.sol\":5163:5168  _user */\n      dup5\n        /* \"FlightGuard/contracts/LiquidityPool.sol\":5153:5169  userStake[_user] */\n      0xffffffffffffffffffffffffffffffffffffffff\n      and\n      0xffffffffffffffffffffffffffffffffffffffff\n      and\n      dup2\n      mstore\n      0x20\n      add\n      swap1\n      dup2\n      mstore\n      0x20\n      add\n      0x00\n      keccak256\n      sload\n        /* \"FlightGuard/contracts/LiquidityPool.sol\":5139:5169  stakeAmount = userStake[_user] */\n      swap2\n      pop\n        /* \"FlightGuard/contracts/LiquidityPool.sol\":5202:5203  0 */\n      0x00\n        /* \"FlightGuard/contracts/LiquidityPool.sol\":5188:5199  totalStaked */\n      sload(0x02)\n        /* \"FlightGuard/contracts/LiquidityPool.sol\":5188:5203  totalStaked > 0 */\n      gt\n        /* \"FlightGuard/contracts/LiquidityPool.sol\":5188:5245  totalStaked > 0 ? (stakeAmount * 10000) / totalStaked : 0 */\n      tag_163\n      jumpi\n        /* \"FlightGuard/contracts/LiquidityPool.sol\":5244:5245  0 */\n      0x00\n        /* \"FlightGuard/contracts/LiquidityPool.sol\":5188:5245  totalStaked > 0 ? (stakeAmount * 10000) / totalStaked : 0 */\n      jump(tag_164)\n    tag_163:\n        /* \"FlightGuard/contracts/LiquidityPool.sol\":5230:5241  totalStaked */\n      sload(0x02)\n        /* \"FlightGuard/contracts/LiquidityPool.sol\":5221:5226  10000 */\n      0x2710\n        /* \"FlightGuard/contracts/LiquidityPool.sol\":5207:5218  stakeAmount */\n      dup4\n        /* \"FlightGuard/contracts/LiquidityPool.sol\":5207:5226  stakeAmount * 10000 */\n      tag_165\n      swap2\n      swap1\n      tag_117\n      jump\t// in\n    tag_165:\n        /* \"FlightGuard/contracts/LiquidityPool.sol\":5206:5241  (stakeAmount * 10000) / totalStaked */\n      tag_166\n      swap2\n      swap1\n      tag_119\n      jump\t// in\n    tag_166:\n        /* \"FlightGuard/contracts/LiquidityPool.sol\":5188:5245  totalStaked > 0 ? (stakeAmount * 10000) / totalStaked : 0 */\n    tag_164:\n        /* \"FlightGuard/contracts/LiquidityPool.sol\":5180:5245  share = totalStaked > 0 ? (stakeAmount * 10000) / totalStaked : 0 */\n      swap1\n      pop\n        /* \"FlightGuard/contracts/LiquidityPool.sol\":5030:5253  function getStakingInfo(address _user) external view returns (uint256 stakeAmount, uint256 share) {... */\n      swap2\n      pop\n      swap2\n      jump\t// out\n        /* \"FlightGuard/contracts/LiquidityPool.sol\":986:1034  mapping(address => uint256) public lastClaimTime */\n    tag_80:\n      mstore(0x20, 0x07)\n      dup1\n      0x00\n      mstore\n      keccak256(0x00, 0x40)\n      0x00\n      swap2\n      pop\n      swap1\n      pop\n      sload\n      dup2\n      jump\t// out\n        /* \"FlightGuard/contracts/LiquidityPool.sol\":5419:5626  function emergencyRelease(address payable _to, uint256 _amount) external onlyPolicyOrOwner {... */\n    tag_86:\n        /* \"FlightGuard/contracts/LiquidityPool.sol\":1848:1862  policyContract */\n      0x01\n      0x00\n      swap1\n      sload\n      swap1\n      0x0100\n      exp\n      swap1\n      div\n      0xffffffffffffffffffffffffffffffffffffffff\n      and\n        /* \"FlightGuard/contracts/LiquidityPool.sol\":1826:1863  msg.sender == address(policyContract) */\n      0xffffffffffffffffffffffffffffffffffffffff\n      and\n        /* \"FlightGuard/contracts/LiquidityPool.sol\":1826:1836  msg.sender */\n      caller\n        /* \"FlightGuard/contracts/LiquidityPool.sol\":1826:1863  msg.sender == address(policyContract) */\n      0xffffffffffffffffffffffffffffffffffffffff\n      and\n      eq\n        /* \"FlightGuard/contracts/LiquidityPool.sol\":1826:1917  msg.sender == address(policyContract) || ... */\n      dup1\n      tag_168\n      jumpi\n      pop\n        /* \"FlightGuard/contracts/LiquidityPool.sol\":1895:1909  policyContract */\n      0x01\n      0x00\n      swap1\n      sload\n      swap1\n      0x0100\n      exp\n      swap1\n      div\n      0xffffffffffffffffffffffffffffffffffffffff\n      and\n        /* \"FlightGuard/contracts/LiquidityPool.sol\":1895:1915  policyContract.owner */\n      0xffffffffffffffffffffffffffffffffffffffff\n      and\n      0x8da5cb5b\n        /* \"FlightGuard/contracts/LiquidityPool.sol\":1895:1917  policyContract.owner() */\n      mload(0x40)\n      dup2\n      0xffffffff\n      and\n      0xe0\n      shl\n      dup2\n      mstore\n      0x04\n      add\n      0x20\n      mload(0x40)\n      dup1\n      dup4\n      sub\n      dup2\n      dup7\n      gas\n      staticcall\n      iszero\n      dup1\n      iszero\n      tag_170\n      jumpi\n      returndatasize\n      0x00\n      dup1\n      returndatacopy\n      revert(0x00, returndatasize)\n    tag_170:\n      pop\n      pop\n      pop\n      pop\n      mload(0x40)\n      returndatasize\n      not(0x1f)\n      0x1f\n      dup3\n      add\n      and\n      dup3\n      add\n      dup1\n      0x40\n      mstore\n      pop\n      dup2\n      add\n      swap1\n      tag_171\n      swap2\n      swap1\n      tag_141\n      jump\t// in\n    tag_171:\n        /* \"FlightGuard/contracts/LiquidityPool.sol\":1881:1917  msg.sender == policyContract.owner() */\n      0xffffffffffffffffffffffffffffffffffffffff\n      and\n        /* \"FlightGuard/contracts/LiquidityPool.sol\":1881:1891  msg.sender */\n      caller\n        /* \"FlightGuard/contracts/LiquidityPool.sol\":1881:1917  msg.sender == policyContract.owner() */\n      0xffffffffffffffffffffffffffffffffffffffff\n      and\n      eq\n        /* \"FlightGuard/contracts/LiquidityPool.sol\":1826:1917  msg.sender == address(policyContract) || ... */\n    tag_168:\n        /* \"FlightGuard/contracts/LiquidityPool.sol\":1804:1959  require(... */\n      tag_172\n      jumpi\n      mload(0x40)\n      0x08c379a000000000000000000000000000000000000000000000000000000000\n      dup2\n      mstore\n      0x04\n      add\n      tag_173\n      swap1\n      tag_144\n      jump\t// in\n    tag_173:\n      mload(0x40)\n      dup1\n      swap2\n      sub\n      swap1\n      revert\n    tag_172:\n        /* \"FlightGuard/contracts/LiquidityPool.sol\":5540:5561  address(this).balance */\n      selfbalance\n        /* \"FlightGuard/contracts/LiquidityPool.sol\":5529:5536  _amount */\n      dup2\n        /* \"FlightGuard/contracts/LiquidityPool.sol\":5529:5561  _amount <= address(this).balance */\n      gt\n      iszero\n        /* \"FlightGuard/contracts/LiquidityPool.sol\":5521:5586  require(_amount <= address(this).balance, \"Insufficient balance\") */\n      tag_175\n      jumpi\n      mload(0x40)\n      0x08c379a000000000000000000000000000000000000000000000000000000000\n      dup2\n      mstore\n      0x04\n      add\n      tag_176\n      swap1\n      tag_177\n      jump\t// in\n    tag_176:\n      mload(0x40)\n      dup1\n      swap2\n      sub\n      swap1\n      revert\n    tag_175:\n        /* \"FlightGuard/contracts/LiquidityPool.sol\":5597:5600  _to */\n      dup2\n        /* \"FlightGuard/contracts/LiquidityPool.sol\":5597:5609  _to.transfer */\n      0xffffffffffffffffffffffffffffffffffffffff\n      and\n        /* \"FlightGuard/contracts/LiquidityPool.sol\":5597:5618  _to.transfer(_amount) */\n      0x08fc\n        /* \"FlightGuard/contracts/LiquidityPool.sol\":5610:5617  _amount */\n      dup3\n        /* \"FlightGuard/contracts/LiquidityPool.sol\":5597:5618  _to.transfer(_amount) */\n      swap1\n      dup2\n      iszero\n      mul\n      swap1\n      mload(0x40)\n      0x00\n      mload(0x40)\n      dup1\n      dup4\n      sub\n      dup2\n      dup6\n      dup9\n      dup9\n      call\n      swap4\n      pop\n      pop\n      pop\n      pop\n      iszero\n      dup1\n      iszero\n      tag_179\n      jumpi\n      returndatasize\n      0x00\n      dup1\n      returndatacopy\n      revert(0x00, returndatasize)\n    tag_179:\n      pop\n        /* \"FlightGuard/contracts/LiquidityPool.sol\":5419:5626  function emergencyRelease(address payable _to, uint256 _amount) external onlyPolicyOrOwner {... */\n      pop\n      pop\n      jump\t// out\n        /* \"FlightGuard/contracts/LiquidityPool.sol\":650:680  IFlightGuardToken public token */\n    tag_89:\n      0x00\n      dup1\n      sload\n      swap1\n      0x0100\n      exp\n      swap1\n      div\n      0xffffffffffffffffffffffffffffffffffffffff\n      and\n      dup2\n      jump\t// out\n        /* \"#utility.yul\":7:84   */\n    tag_180:\n        /* \"#utility.yul\":44:51   */\n      0x00\n        /* \"#utility.yul\":73:78   */\n      dup2\n        /* \"#utility.yul\":62:78   */\n      swap1\n      pop\n        /* \"#utility.yul\":7:84   */\n      swap2\n      swap1\n      pop\n      jump\t// out\n        /* \"#utility.yul\":90:270   */\n    tag_181:\n        /* \"#utility.yul\":138:215   */\n      0x4e487b7100000000000000000000000000000000000000000000000000000000\n        /* \"#utility.yul\":135:136   */\n      0x00\n        /* \"#utility.yul\":128:216   */\n      mstore\n        /* \"#utility.yul\":235:239   */\n      0x11\n        /* \"#utility.yul\":232:233   */\n      0x04\n        /* \"#utility.yul\":225:240   */\n      mstore\n        /* \"#utility.yul\":259:263   */\n      0x24\n        /* \"#utility.yul\":256:257   */\n      0x00\n        /* \"#utility.yul\":249:264   */\n      revert\n        /* \"#utility.yul\":276:467   */\n    tag_24:\n        /* \"#utility.yul\":316:319   */\n      0x00\n        /* \"#utility.yul\":335:355   */\n      tag_225\n        /* \"#utility.yul\":353:354   */\n      dup3\n        /* \"#utility.yul\":335:355   */\n      tag_180\n      jump\t// in\n    tag_225:\n        /* \"#utility.yul\":330:355   */\n      swap2\n      pop\n        /* \"#utility.yul\":369:389   */\n      tag_226\n        /* \"#utility.yul\":387:388   */\n      dup4\n        /* \"#utility.yul\":369:389   */\n      tag_180\n      jump\t// in\n    tag_226:\n        /* \"#utility.yul\":364:389   */\n      swap3\n      pop\n        /* \"#utility.yul\":412:413   */\n      dup3\n        /* \"#utility.yul\":409:410   */\n      dup3\n        /* \"#utility.yul\":405:414   */\n      add\n        /* \"#utility.yul\":398:414   */\n      swap1\n      pop\n        /* \"#utility.yul\":433:436   */\n      dup1\n        /* \"#utility.yul\":430:431   */\n      dup3\n        /* \"#utility.yul\":427:437   */\n      gt\n        /* \"#utility.yul\":424:460   */\n      iszero\n      tag_227\n      jumpi\n        /* \"#utility.yul\":440:458   */\n      tag_228\n      tag_181\n      jump\t// in\n    tag_228:\n        /* \"#utility.yul\":424:460   */\n    tag_227:\n        /* \"#utility.yul\":276:467   */\n      swap3\n      swap2\n      pop\n      pop\n      jump\t// out\n        /* \"#utility.yul\":473:591   */\n    tag_182:\n        /* \"#utility.yul\":560:584   */\n      tag_230\n        /* \"#utility.yul\":578:583   */\n      dup2\n        /* \"#utility.yul\":560:584   */\n      tag_180\n      jump\t// in\n    tag_230:\n        /* \"#utility.yul\":555:558   */\n      dup3\n        /* \"#utility.yul\":548:585   */\n      mstore\n        /* \"#utility.yul\":473:591   */\n      pop\n      pop\n      jump\t// out\n        /* \"#utility.yul\":597:819   */\n    tag_26:\n        /* \"#utility.yul\":690:694   */\n      0x00\n        /* \"#utility.yul\":728:730   */\n      0x20\n        /* \"#utility.yul\":717:726   */\n      dup3\n        /* \"#utility.yul\":713:731   */\n      add\n        /* \"#utility.yul\":705:731   */\n      swap1\n      pop\n        /* \"#utility.yul\":741:812   */\n      tag_232\n        /* \"#utility.yul\":809:810   */\n      0x00\n        /* \"#utility.yul\":798:807   */\n      dup4\n        /* \"#utility.yul\":794:811   */\n      add\n        /* \"#utility.yul\":785:791   */\n      dup5\n        /* \"#utility.yul\":741:812   */\n      tag_182\n      jump\t// in\n    tag_232:\n        /* \"#utility.yul\":597:819   */\n      swap3\n      swap2\n      pop\n      pop\n      jump\t// out\n        /* \"#utility.yul\":906:1023   */\n    tag_184:\n        /* \"#utility.yul\":1015:1016   */\n      0x00\n        /* \"#utility.yul\":1012:1013   */\n      dup1\n        /* \"#utility.yul\":1005:1017   */\n      revert\n        /* \"#utility.yul\":1152:1274   */\n    tag_186:\n        /* \"#utility.yul\":1225:1249   */\n      tag_237\n        /* \"#utility.yul\":1243:1248   */\n      dup2\n        /* \"#utility.yul\":1225:1249   */\n      tag_180\n      jump\t// in\n    tag_237:\n        /* \"#utility.yul\":1218:1223   */\n      dup2\n        /* \"#utility.yul\":1215:1250   */\n      eq\n        /* \"#utility.yul\":1205:1268   */\n      tag_238\n      jumpi\n        /* \"#utility.yul\":1264:1265   */\n      0x00\n        /* \"#utility.yul\":1261:1262   */\n      dup1\n        /* \"#utility.yul\":1254:1266   */\n      revert\n        /* \"#utility.yul\":1205:1268   */\n    tag_238:\n        /* \"#utility.yul\":1152:1274   */\n      pop\n      jump\t// out\n        /* \"#utility.yul\":1280:1419   */\n    tag_187:\n        /* \"#utility.yul\":1326:1331   */\n      0x00\n        /* \"#utility.yul\":1364:1370   */\n      dup2\n        /* \"#utility.yul\":1351:1371   */\n      calldataload\n        /* \"#utility.yul\":1342:1371   */\n      swap1\n      pop\n        /* \"#utility.yul\":1380:1413   */\n      tag_240\n        /* \"#utility.yul\":1407:1412   */\n      dup2\n        /* \"#utility.yul\":1380:1413   */\n      tag_186\n      jump\t// in\n    tag_240:\n        /* \"#utility.yul\":1280:1419   */\n      swap3\n      swap2\n      pop\n      pop\n      jump\t// out\n        /* \"#utility.yul\":1425:1754   */\n    tag_34:\n        /* \"#utility.yul\":1484:1490   */\n      0x00\n        /* \"#utility.yul\":1533:1535   */\n      0x20\n        /* \"#utility.yul\":1521:1530   */\n      dup3\n        /* \"#utility.yul\":1512:1519   */\n      dup5\n        /* \"#utility.yul\":1508:1531   */\n      sub\n        /* \"#utility.yul\":1504:1536   */\n      slt\n        /* \"#utility.yul\":1501:1620   */\n      iszero\n      tag_242\n      jumpi\n        /* \"#utility.yul\":1539:1618   */\n      tag_243\n      tag_184\n      jump\t// in\n    tag_243:\n        /* \"#utility.yul\":1501:1620   */\n    tag_242:\n        /* \"#utility.yul\":1659:1660   */\n      0x00\n        /* \"#utility.yul\":1684:1737   */\n      tag_244\n        /* \"#utility.yul\":1729:1736   */\n      dup5\n        /* \"#utility.yul\":1720:1726   */\n      dup3\n        /* \"#utility.yul\":1709:1718   */\n      dup6\n        /* \"#utility.yul\":1705:1727   */\n      add\n        /* \"#utility.yul\":1684:1737   */\n      tag_187\n      jump\t// in\n    tag_244:\n        /* \"#utility.yul\":1674:1737   */\n      swap2\n      pop\n        /* \"#utility.yul\":1630:1747   */\n      pop\n        /* \"#utility.yul\":1425:1754   */\n      swap3\n      swap2\n      pop\n      pop\n      jump\t// out\n        /* \"#utility.yul\":1760:1886   */\n    tag_188:\n        /* \"#utility.yul\":1797:1804   */\n      0x00\n        /* \"#utility.yul\":1837:1879   */\n      0xffffffffffffffffffffffffffffffffffffffff\n        /* \"#utility.yul\":1830:1835   */\n      dup3\n        /* \"#utility.yul\":1826:1880   */\n      and\n        /* \"#utility.yul\":1815:1880   */\n      swap1\n      pop\n        /* \"#utility.yul\":1760:1886   */\n      swap2\n      swap1\n      pop\n      jump\t// out\n        /* \"#utility.yul\":1892:1988   */\n    tag_189:\n        /* \"#utility.yul\":1929:1936   */\n      0x00\n        /* \"#utility.yul\":1958:1982   */\n      tag_247\n        /* \"#utility.yul\":1976:1981   */\n      dup3\n        /* \"#utility.yul\":1958:1982   */\n      tag_188\n      jump\t// in\n    tag_247:\n        /* \"#utility.yul\":1947:1982   */\n      swap1\n      pop\n        /* \"#utility.yul\":1892:1988   */\n      swap2\n      swap1\n      pop\n      jump\t// out\n        /* \"#utility.yul\":1994:2116   */\n    tag_190:\n        /* \"#utility.yul\":2067:2091   */\n      tag_249\n        /* \"#utility.yul\":2085:2090   */\n      dup2\n        /* \"#utility.yul\":2067:2091   */\n      tag_189\n      jump\t// in\n    tag_249:\n        /* \"#utility.yul\":2060:2065   */\n      dup2\n        /* \"#utility.yul\":2057:2092   */\n      eq\n        /* \"#utility.yul\":2047:2110   */\n      tag_250\n      jumpi\n        /* \"#utility.yul\":2106:2107   */\n      0x00\n        /* \"#utility.yul\":2103:2104   */\n      dup1\n        /* \"#utility.yul\":2096:2108   */\n      revert\n        /* \"#utility.yul\":2047:2110   */\n    tag_250:\n        /* \"#utility.yul\":1994:2116   */\n      pop\n      jump\t// out\n        /* \"#utility.yul\":2122:2261   */\n    tag_191:\n        /* \"#utility.yul\":2168:2173   */\n      0x00\n        /* \"#utility.yul\":2206:2212   */\n      dup2\n        /* \"#utility.yul\":2193:2213   */\n      calldataload\n        /* \"#utility.yul\":2184:2213   */\n      swap1\n      pop\n        /* \"#utility.yul\":2222:2255   */\n      tag_252\n        /* \"#utility.yul\":2249:2254   */\n      dup2\n        /* \"#utility.yul\":2222:2255   */\n      tag_190\n      jump\t// in\n    tag_252:\n        /* \"#utility.yul\":2122:2261   */\n      swap3\n      swap2\n      pop\n      pop\n      jump\t// out\n        /* \"#utility.yul\":2267:2596   */\n    tag_42:\n        /* \"#utility.yul\":2326:2332   */\n      0x00\n        /* \"#utility.yul\":2375:2377   */\n      0x20\n        /* \"#utility.yul\":2363:2372   */\n      dup3\n        /* \"#utility.yul\":2354:2361   */\n      dup5\n        /* \"#utility.yul\":2350:2373   */\n      sub\n        /* \"#utility.yul\":2346:2378   */\n      slt\n        /* \"#utility.yul\":2343:2462   */\n      iszero\n      tag_254\n      jumpi\n        /* \"#utility.yul\":2381:2460   */\n      tag_255\n      tag_184\n      jump\t// in\n    tag_255:\n        /* \"#utility.yul\":2343:2462   */\n    tag_254:\n        /* \"#utility.yul\":2501:2502   */\n      0x00\n        /* \"#utility.yul\":2526:2579   */\n      tag_256\n        /* \"#utility.yul\":2571:2578   */\n      dup5\n        /* \"#utility.yul\":2562:2568   */\n      dup3\n        /* \"#utility.yul\":2551:2560   */\n      dup6\n        /* \"#utility.yul\":2547:2569   */\n      add\n        /* \"#utility.yul\":2526:2579   */\n      tag_191\n      jump\t// in\n    tag_256:\n        /* \"#utility.yul\":2516:2579   */\n      swap2\n      pop\n        /* \"#utility.yul\":2472:2589   */\n      pop\n        /* \"#utility.yul\":2267:2596   */\n      swap3\n      swap2\n      pop\n      pop\n      jump\t// out\n        /* \"#utility.yul\":2602:2662   */\n    tag_192:\n        /* \"#utility.yul\":2630:2633   */\n      0x00\n        /* \"#utility.yul\":2651:2656   */\n      dup2\n        /* \"#utility.yul\":2644:2656   */\n      swap1\n      pop\n        /* \"#utility.yul\":2602:2662   */\n      swap2\n      swap1\n      pop\n      jump\t// out\n        /* \"#utility.yul\":2668:2810   */\n    tag_193:\n        /* \"#utility.yul\":2718:2727   */\n      0x00\n        /* \"#utility.yul\":2751:2804   */\n      tag_259\n        /* \"#utility.yul\":2769:2803   */\n      tag_260\n        /* \"#utility.yul\":2778:2802   */\n      tag_261\n        /* \"#utility.yul\":2796:2801   */\n      dup5\n        /* \"#utility.yul\":2778:2802   */\n      tag_188\n      jump\t// in\n    tag_261:\n        /* \"#utility.yul\":2769:2803   */\n      tag_192\n      jump\t// in\n    tag_260:\n        /* \"#utility.yul\":2751:2804   */\n      tag_188\n      jump\t// in\n    tag_259:\n        /* \"#utility.yul\":2738:2804   */\n      swap1\n      pop\n        /* \"#utility.yul\":2668:2810   */\n      swap2\n      swap1\n      pop\n      jump\t// out\n        /* \"#utility.yul\":2816:2942   */\n    tag_194:\n        /* \"#utility.yul\":2866:2875   */\n      0x00\n        /* \"#utility.yul\":2899:2936   */\n      tag_263\n        /* \"#utility.yul\":2930:2935   */\n      dup3\n        /* \"#utility.yul\":2899:2936   */\n      tag_193\n      jump\t// in\n    tag_263:\n        /* \"#utility.yul\":2886:2936   */\n      swap1\n      pop\n        /* \"#utility.yul\":2816:2942   */\n      swap2\n      swap1\n      pop\n      jump\t// out\n        /* \"#utility.yul\":2948:3099   */\n    tag_195:\n        /* \"#utility.yul\":3023:3032   */\n      0x00\n        /* \"#utility.yul\":3056:3093   */\n      tag_265\n        /* \"#utility.yul\":3087:3092   */\n      dup3\n        /* \"#utility.yul\":3056:3093   */\n      tag_194\n      jump\t// in\n    tag_265:\n        /* \"#utility.yul\":3043:3093   */\n      swap1\n      pop\n        /* \"#utility.yul\":2948:3099   */\n      swap2\n      swap1\n      pop\n      jump\t// out\n        /* \"#utility.yul\":3105:3286   */\n    tag_196:\n        /* \"#utility.yul\":3217:3279   */\n      tag_267\n        /* \"#utility.yul\":3273:3278   */\n      dup2\n        /* \"#utility.yul\":3217:3279   */\n      tag_195\n      jump\t// in\n    tag_267:\n        /* \"#utility.yul\":3212:3215   */\n      dup3\n        /* \"#utility.yul\":3205:3280   */\n      mstore\n        /* \"#utility.yul\":3105:3286   */\n      pop\n      pop\n      jump\t// out\n        /* \"#utility.yul\":3292:3564   */\n    tag_60:\n        /* \"#utility.yul\":3410:3414   */\n      0x00\n        /* \"#utility.yul\":3448:3450   */\n      0x20\n        /* \"#utility.yul\":3437:3446   */\n      dup3\n        /* \"#utility.yul\":3433:3451   */\n      add\n        /* \"#utility.yul\":3425:3451   */\n      swap1\n      pop\n        /* \"#utility.yul\":3461:3557   */\n      tag_269\n        /* \"#utility.yul\":3554:3555   */\n      0x00\n        /* \"#utility.yul\":3543:3552   */\n      dup4\n        /* \"#utility.yul\":3539:3556   */\n      add\n        /* \"#utility.yul\":3530:3536   */\n      dup5\n        /* \"#utility.yul\":3461:3557   */\n      tag_196\n      jump\t// in\n    tag_269:\n        /* \"#utility.yul\":3292:3564   */\n      swap3\n      swap2\n      pop\n      pop\n      jump\t// out\n        /* \"#utility.yul\":3570:3902   */\n    tag_76:\n        /* \"#utility.yul\":3691:3695   */\n      0x00\n        /* \"#utility.yul\":3729:3731   */\n      0x40\n        /* \"#utility.yul\":3718:3727   */\n      dup3\n        /* \"#utility.yul\":3714:3732   */\n      add\n        /* \"#utility.yul\":3706:3732   */\n      swap1\n      pop\n        /* \"#utility.yul\":3742:3813   */\n      tag_271\n        /* \"#utility.yul\":3810:3811   */\n      0x00\n        /* \"#utility.yul\":3799:3808   */\n      dup4\n        /* \"#utility.yul\":3795:3812   */\n      add\n        /* \"#utility.yul\":3786:3792   */\n      dup6\n        /* \"#utility.yul\":3742:3813   */\n      tag_182\n      jump\t// in\n    tag_271:\n        /* \"#utility.yul\":3823:3895   */\n      tag_272\n        /* \"#utility.yul\":3891:3893   */\n      0x20\n        /* \"#utility.yul\":3880:3889   */\n      dup4\n        /* \"#utility.yul\":3876:3894   */\n      add\n        /* \"#utility.yul\":3867:3873   */\n      dup5\n        /* \"#utility.yul\":3823:3895   */\n      tag_182\n      jump\t// in\n    tag_272:\n        /* \"#utility.yul\":3570:3902   */\n      swap4\n      swap3\n      pop\n      pop\n      pop\n      jump\t// out\n        /* \"#utility.yul\":3908:4012   */\n    tag_197:\n        /* \"#utility.yul\":3953:3960   */\n      0x00\n        /* \"#utility.yul\":3982:4006   */\n      tag_274\n        /* \"#utility.yul\":4000:4005   */\n      dup3\n        /* \"#utility.yul\":3982:4006   */\n      tag_188\n      jump\t// in\n    tag_274:\n        /* \"#utility.yul\":3971:4006   */\n      swap1\n      pop\n        /* \"#utility.yul\":3908:4012   */\n      swap2\n      swap1\n      pop\n      jump\t// out\n        /* \"#utility.yul\":4018:4156   */\n    tag_198:\n        /* \"#utility.yul\":4099:4131   */\n      tag_276\n        /* \"#utility.yul\":4125:4130   */\n      dup2\n        /* \"#utility.yul\":4099:4131   */\n      tag_197\n      jump\t// in\n    tag_276:\n        /* \"#utility.yul\":4092:4097   */\n      dup2\n        /* \"#utility.yul\":4089:4132   */\n      eq\n        /* \"#utility.yul\":4079:4150   */\n      tag_277\n      jumpi\n        /* \"#utility.yul\":4146:4147   */\n      0x00\n        /* \"#utility.yul\":4143:4144   */\n      dup1\n        /* \"#utility.yul\":4136:4148   */\n      revert\n        /* \"#utility.yul\":4079:4150   */\n    tag_277:\n        /* \"#utility.yul\":4018:4156   */\n      pop\n      jump\t// out\n        /* \"#utility.yul\":4162:4317   */\n    tag_199:\n        /* \"#utility.yul\":4216:4221   */\n      0x00\n        /* \"#utility.yul\":4254:4260   */\n      dup2\n        /* \"#utility.yul\":4241:4261   */\n      calldataload\n        /* \"#utility.yul\":4232:4261   */\n      swap1\n      pop\n        /* \"#utility.yul\":4270:4311   */\n      tag_279\n        /* \"#utility.yul\":4305:4310   */\n      dup2\n        /* \"#utility.yul\":4270:4311   */\n      tag_198\n      jump\t// in\n    tag_279:\n        /* \"#utility.yul\":4162:4317   */\n      swap3\n      swap2\n      pop\n      pop\n      jump\t// out\n        /* \"#utility.yul\":4323:4813   */\n    tag_85:\n        /* \"#utility.yul\":4399:4405   */\n      0x00\n        /* \"#utility.yul\":4407:4413   */\n      dup1\n        /* \"#utility.yul\":4456:4458   */\n      0x40\n        /* \"#utility.yul\":4444:4453   */\n      dup4\n        /* \"#utility.yul\":4435:4442   */\n      dup6\n        /* \"#utility.yul\":4431:4454   */\n      sub\n        /* \"#utility.yul\":4427:4459   */\n      slt\n        /* \"#utility.yul\":4424:4543   */\n      iszero\n      tag_281\n      jumpi\n        /* \"#utility.yul\":4462:4541   */\n      tag_282\n      tag_184\n      jump\t// in\n    tag_282:\n        /* \"#utility.yul\":4424:4543   */\n    tag_281:\n        /* \"#utility.yul\":4582:4583   */\n      0x00\n        /* \"#utility.yul\":4607:4668   */\n      tag_283\n        /* \"#utility.yul\":4660:4667   */\n      dup6\n        /* \"#utility.yul\":4651:4657   */\n      dup3\n        /* \"#utility.yul\":4640:4649   */\n      dup7\n        /* \"#utility.yul\":4636:4658   */\n      add\n        /* \"#utility.yul\":4607:4668   */\n      tag_199\n      jump\t// in\n    tag_283:\n        /* \"#utility.yul\":4597:4668   */\n      swap3\n      pop\n        /* \"#utility.yul\":4553:4678   */\n      pop\n        /* \"#utility.yul\":4717:4719   */\n      0x20\n        /* \"#utility.yul\":4743:4796   */\n      tag_284\n        /* \"#utility.yul\":4788:4795   */\n      dup6\n        /* \"#utility.yul\":4779:4785   */\n      dup3\n        /* \"#utility.yul\":4768:4777   */\n      dup7\n        /* \"#utility.yul\":4764:4786   */\n      add\n        /* \"#utility.yul\":4743:4796   */\n      tag_187\n      jump\t// in\n    tag_284:\n        /* \"#utility.yul\":4733:4796   */\n      swap2\n      pop\n        /* \"#utility.yul\":4688:4806   */\n      pop\n        /* \"#utility.yul\":4323:4813   */\n      swap3\n      pop\n      swap3\n      swap1\n      pop\n      jump\t// out\n        /* \"#utility.yul\":4819:4969   */\n    tag_200:\n        /* \"#utility.yul\":4893:4902   */\n      0x00\n        /* \"#utility.yul\":4926:4963   */\n      tag_286\n        /* \"#utility.yul\":4957:4962   */\n      dup3\n        /* \"#utility.yul\":4926:4963   */\n      tag_194\n      jump\t// in\n    tag_286:\n        /* \"#utility.yul\":4913:4963   */\n      swap1\n      pop\n        /* \"#utility.yul\":4819:4969   */\n      swap2\n      swap1\n      pop\n      jump\t// out\n        /* \"#utility.yul\":4975:5154   */\n    tag_201:\n        /* \"#utility.yul\":5086:5147   */\n      tag_288\n        /* \"#utility.yul\":5141:5146   */\n      dup2\n        /* \"#utility.yul\":5086:5147   */\n      tag_200\n      jump\t// in\n    tag_288:\n        /* \"#utility.yul\":5081:5084   */\n      dup3\n        /* \"#utility.yul\":5074:5148   */\n      mstore\n        /* \"#utility.yul\":4975:5154   */\n      pop\n      pop\n      jump\t// out\n        /* \"#utility.yul\":5160:5430   */\n    tag_91:\n        /* \"#utility.yul\":5277:5281   */\n      0x00\n        /* \"#utility.yul\":5315:5317   */\n      0x20\n        /* \"#utility.yul\":5304:5313   */\n      dup3\n        /* \"#utility.yul\":5300:5318   */\n      add\n        /* \"#utility.yul\":5292:5318   */\n      swap1\n      pop\n        /* \"#utility.yul\":5328:5423   */\n      tag_290\n        /* \"#utility.yul\":5420:5421   */\n      0x00\n        /* \"#utility.yul\":5409:5418   */\n      dup4\n        /* \"#utility.yul\":5405:5422   */\n      add\n        /* \"#utility.yul\":5396:5402   */\n      dup5\n        /* \"#utility.yul\":5328:5423   */\n      tag_201\n      jump\t// in\n    tag_290:\n        /* \"#utility.yul\":5160:5430   */\n      swap3\n      swap2\n      pop\n      pop\n      jump\t// out\n        /* \"#utility.yul\":5436:5605   */\n    tag_202:\n        /* \"#utility.yul\":5520:5531   */\n      0x00\n        /* \"#utility.yul\":5554:5560   */\n      dup3\n        /* \"#utility.yul\":5549:5552   */\n      dup3\n        /* \"#utility.yul\":5542:5561   */\n      mstore\n        /* \"#utility.yul\":5594:5598   */\n      0x20\n        /* \"#utility.yul\":5589:5592   */\n      dup3\n        /* \"#utility.yul\":5585:5599   */\n      add\n        /* \"#utility.yul\":5570:5599   */\n      swap1\n      pop\n        /* \"#utility.yul\":5436:5605   */\n      swap3\n      swap2\n      pop\n      pop\n      jump\t// out\n        /* \"#utility.yul\":5611:5793   */\n    tag_203:\n        /* \"#utility.yul\":5751:5785   */\n      0x416d6f756e74206d7573742062652067726561746572207468616e207a65726f\n        /* \"#utility.yul\":5747:5748   */\n      0x00\n        /* \"#utility.yul\":5739:5745   */\n      dup3\n        /* \"#utility.yul\":5735:5749   */\n      add\n        /* \"#utility.yul\":5728:5786   */\n      mstore\n        /* \"#utility.yul\":5611:5793   */\n      pop\n      jump\t// out\n        /* \"#utility.yul\":5799:6165   */\n    tag_204:\n        /* \"#utility.yul\":5941:5944   */\n      0x00\n        /* \"#utility.yul\":5962:6029   */\n      tag_294\n        /* \"#utility.yul\":6026:6028   */\n      0x20\n        /* \"#utility.yul\":6021:6024   */\n      dup4\n        /* \"#utility.yul\":5962:6029   */\n      tag_202\n      jump\t// in\n    tag_294:\n        /* \"#utility.yul\":5955:6029   */\n      swap2\n      pop\n        /* \"#utility.yul\":6038:6131   */\n      tag_295\n        /* \"#utility.yul\":6127:6130   */\n      dup3\n        /* \"#utility.yul\":6038:6131   */\n      tag_203\n      jump\t// in\n    tag_295:\n        /* \"#utility.yul\":6156:6158   */\n      0x20\n        /* \"#utility.yul\":6151:6154   */\n      dup3\n        /* \"#utility.yul\":6147:6159   */\n      add\n        /* \"#utility.yul\":6140:6159   */\n      swap1\n      pop\n        /* \"#utility.yul\":5799:6165   */\n      swap2\n      swap1\n      pop\n      jump\t// out\n        /* \"#utility.yul\":6171:6590   */\n    tag_95:\n        /* \"#utility.yul\":6337:6341   */\n      0x00\n        /* \"#utility.yul\":6375:6377   */\n      0x20\n        /* \"#utility.yul\":6364:6373   */\n      dup3\n        /* \"#utility.yul\":6360:6378   */\n      add\n        /* \"#utility.yul\":6352:6378   */\n      swap1\n      pop\n        /* \"#utility.yul\":6424:6433   */\n      dup2\n        /* \"#utility.yul\":6418:6422   */\n      dup2\n        /* \"#utility.yul\":6414:6434   */\n      sub\n        /* \"#utility.yul\":6410:6411   */\n      0x00\n        /* \"#utility.yul\":6399:6408   */\n      dup4\n        /* \"#utility.yul\":6395:6412   */\n      add\n        /* \"#utility.yul\":6388:6435   */\n      mstore\n        /* \"#utility.yul\":6452:6583   */\n      tag_297\n        /* \"#utility.yul\":6578:6582   */\n      dup2\n        /* \"#utility.yul\":6452:6583   */\n      tag_204\n      jump\t// in\n    tag_297:\n        /* \"#utility.yul\":6444:6583   */\n      swap1\n      pop\n        /* \"#utility.yul\":6171:6590   */\n      swap2\n      swap1\n      pop\n      jump\t// out\n        /* \"#utility.yul\":6596:6772   */\n    tag_205:\n        /* \"#utility.yul\":6736:6764   */\n      0x496e73756666696369656e74207374616b656420616d6f756e74000000000000\n        /* \"#utility.yul\":6732:6733   */\n      0x00\n        /* \"#utility.yul\":6724:6730   */\n      dup3\n        /* \"#utility.yul\":6720:6734   */\n      add\n        /* \"#utility.yul\":6713:6765   */\n      mstore\n        /* \"#utility.yul\":6596:6772   */\n      pop\n      jump\t// out\n        /* \"#utility.yul\":6778:7144   */\n    tag_206:\n        /* \"#utility.yul\":6920:6923   */\n      0x00\n        /* \"#utility.yul\":6941:7008   */\n      tag_300\n        /* \"#utility.yul\":7005:7007   */\n      0x1a\n        /* \"#utility.yul\":7000:7003   */\n      dup4\n        /* \"#utility.yul\":6941:7008   */\n      tag_202\n      jump\t// in\n    tag_300:\n        /* \"#utility.yul\":6934:7008   */\n      swap2\n      pop\n        /* \"#utility.yul\":7017:7110   */\n      tag_301\n        /* \"#utility.yul\":7106:7109   */\n      dup3\n        /* \"#utility.yul\":7017:7110   */\n      tag_205\n      jump\t// in\n    tag_301:\n        /* \"#utility.yul\":7135:7137   */\n      0x20\n        /* \"#utility.yul\":7130:7133   */\n      dup3\n        /* \"#utility.yul\":7126:7138   */\n      add\n        /* \"#utility.yul\":7119:7138   */\n      swap1\n      pop\n        /* \"#utility.yul\":6778:7144   */\n      swap2\n      swap1\n      pop\n      jump\t// out\n        /* \"#utility.yul\":7150:7569   */\n    tag_98:\n        /* \"#utility.yul\":7316:7320   */\n      0x00\n        /* \"#utility.yul\":7354:7356   */\n      0x20\n        /* \"#utility.yul\":7343:7352   */\n      dup3\n        /* \"#utility.yul\":7339:7357   */\n      add\n        /* \"#utility.yul\":7331:7357   */\n      swap1\n      pop\n        /* \"#utility.yul\":7403:7412   */\n      dup2\n        /* \"#utility.yul\":7397:7401   */\n      dup2\n        /* \"#utility.yul\":7393:7413   */\n      sub\n        /* \"#utility.yul\":7389:7390   */\n      0x00\n        /* \"#utility.yul\":7378:7387   */\n      dup4\n        /* \"#utility.yul\":7374:7391   */\n      add\n        /* \"#utility.yul\":7367:7414   */\n      mstore\n        /* \"#utility.yul\":7431:7562   */\n      tag_303\n        /* \"#utility.yul\":7557:7561   */\n      dup2\n        /* \"#utility.yul\":7431:7562   */\n      tag_206\n      jump\t// in\n    tag_303:\n        /* \"#utility.yul\":7423:7562   */\n      swap1\n      pop\n        /* \"#utility.yul\":7150:7569   */\n      swap2\n      swap1\n      pop\n      jump\t// out\n        /* \"#utility.yul\":7575:7769   */\n    tag_101:\n        /* \"#utility.yul\":7615:7619   */\n      0x00\n        /* \"#utility.yul\":7635:7655   */\n      tag_305\n        /* \"#utility.yul\":7653:7654   */\n      dup3\n        /* \"#utility.yul\":7635:7655   */\n      tag_180\n      jump\t// in\n    tag_305:\n        /* \"#utility.yul\":7630:7655   */\n      swap2\n      pop\n        /* \"#utility.yul\":7669:7689   */\n      tag_306\n        /* \"#utility.yul\":7687:7688   */\n      dup4\n        /* \"#utility.yul\":7669:7689   */\n      tag_180\n      jump\t// in\n    tag_306:\n        /* \"#utility.yul\":7664:7689   */\n      swap3\n      pop\n        /* \"#utility.yul\":7713:7714   */\n      dup3\n        /* \"#utility.yul\":7710:7711   */\n      dup3\n        /* \"#utility.yul\":7706:7715   */\n      sub\n        /* \"#utility.yul\":7698:7715   */\n      swap1\n      pop\n        /* \"#utility.yul\":7737:7738   */\n      dup2\n        /* \"#utility.yul\":7731:7735   */\n      dup2\n        /* \"#utility.yul\":7728:7739   */\n      gt\n        /* \"#utility.yul\":7725:7762   */\n      iszero\n      tag_307\n      jumpi\n        /* \"#utility.yul\":7742:7760   */\n      tag_308\n      tag_181\n      jump\t// in\n    tag_308:\n        /* \"#utility.yul\":7725:7762   */\n    tag_307:\n        /* \"#utility.yul\":7575:7769   */\n      swap3\n      swap2\n      pop\n      pop\n      jump\t// out\n        /* \"#utility.yul\":7775:7893   */\n    tag_207:\n        /* \"#utility.yul\":7862:7886   */\n      tag_310\n        /* \"#utility.yul\":7880:7885   */\n      dup2\n        /* \"#utility.yul\":7862:7886   */\n      tag_189\n      jump\t// in\n    tag_310:\n        /* \"#utility.yul\":7857:7860   */\n      dup3\n        /* \"#utility.yul\":7850:7887   */\n      mstore\n        /* \"#utility.yul\":7775:7893   */\n      pop\n      pop\n      jump\t// out\n        /* \"#utility.yul\":7899:8231   */\n    tag_104:\n        /* \"#utility.yul\":8020:8024   */\n      0x00\n        /* \"#utility.yul\":8058:8060   */\n      0x40\n        /* \"#utility.yul\":8047:8056   */\n      dup3\n        /* \"#utility.yul\":8043:8061   */\n      add\n        /* \"#utility.yul\":8035:8061   */\n      swap1\n      pop\n        /* \"#utility.yul\":8071:8142   */\n      tag_312\n        /* \"#utility.yul\":8139:8140   */\n      0x00\n        /* \"#utility.yul\":8128:8137   */\n      dup4\n        /* \"#utility.yul\":8124:8141   */\n      add\n        /* \"#utility.yul\":8115:8121   */\n      dup6\n        /* \"#utility.yul\":8071:8142   */\n      tag_207\n      jump\t// in\n    tag_312:\n        /* \"#utility.yul\":8152:8224   */\n      tag_313\n        /* \"#utility.yul\":8220:8222   */\n      0x20\n        /* \"#utility.yul\":8209:8218   */\n      dup4\n        /* \"#utility.yul\":8205:8223   */\n      add\n        /* \"#utility.yul\":8196:8202   */\n      dup5\n        /* \"#utility.yul\":8152:8224   */\n      tag_182\n      jump\t// in\n    tag_313:\n        /* \"#utility.yul\":7899:8231   */\n      swap4\n      swap3\n      pop\n      pop\n      pop\n      jump\t// out\n        /* \"#utility.yul\":8237:8327   */\n    tag_208:\n        /* \"#utility.yul\":8271:8278   */\n      0x00\n        /* \"#utility.yul\":8314:8319   */\n      dup2\n        /* \"#utility.yul\":8307:8320   */\n      iszero\n        /* \"#utility.yul\":8300:8321   */\n      iszero\n        /* \"#utility.yul\":8289:8321   */\n      swap1\n      pop\n        /* \"#utility.yul\":8237:8327   */\n      swap2\n      swap1\n      pop\n      jump\t// out\n        /* \"#utility.yul\":8333:8449   */\n    tag_209:\n        /* \"#utility.yul\":8403:8424   */\n      tag_316\n        /* \"#utility.yul\":8418:8423   */\n      dup2\n        /* \"#utility.yul\":8403:8424   */\n      tag_208\n      jump\t// in\n    tag_316:\n        /* \"#utility.yul\":8396:8401   */\n      dup2\n        /* \"#utility.yul\":8393:8425   */\n      eq\n        /* \"#utility.yul\":8383:8443   */\n      tag_317\n      jumpi\n        /* \"#utility.yul\":8439:8440   */\n      0x00\n        /* \"#utility.yul\":8436:8437   */\n      dup1\n        /* \"#utility.yul\":8429:8441   */\n      revert\n        /* \"#utility.yul\":8383:8443   */\n    tag_317:\n        /* \"#utility.yul\":8333:8449   */\n      pop\n      jump\t// out\n        /* \"#utility.yul\":8455:8592   */\n    tag_210:\n        /* \"#utility.yul\":8509:8514   */\n      0x00\n        /* \"#utility.yul\":8540:8546   */\n      dup2\n        /* \"#utility.yul\":8534:8547   */\n      mload\n        /* \"#utility.yul\":8525:8547   */\n      swap1\n      pop\n        /* \"#utility.yul\":8556:8586   */\n      tag_319\n        /* \"#utility.yul\":8580:8585   */\n      dup2\n        /* \"#utility.yul\":8556:8586   */\n      tag_209\n      jump\t// in\n    tag_319:\n        /* \"#utility.yul\":8455:8592   */\n      swap3\n      swap2\n      pop\n      pop\n      jump\t// out\n        /* \"#utility.yul\":8598:8943   */\n    tag_108:\n        /* \"#utility.yul\":8665:8671   */\n      0x00\n        /* \"#utility.yul\":8714:8716   */\n      0x20\n        /* \"#utility.yul\":8702:8711   */\n      dup3\n        /* \"#utility.yul\":8693:8700   */\n      dup5\n        /* \"#utility.yul\":8689:8712   */\n      sub\n        /* \"#utility.yul\":8685:8717   */\n      slt\n        /* \"#utility.yul\":8682:8801   */\n      iszero\n      tag_321\n      jumpi\n        /* \"#utility.yul\":8720:8799   */\n      tag_322\n      tag_184\n      jump\t// in\n    tag_322:\n        /* \"#utility.yul\":8682:8801   */\n    tag_321:\n        /* \"#utility.yul\":8840:8841   */\n      0x00\n        /* \"#utility.yul\":8865:8926   */\n      tag_323\n        /* \"#utility.yul\":8918:8925   */\n      dup5\n        /* \"#utility.yul\":8909:8915   */\n      dup3\n        /* \"#utility.yul\":8898:8907   */\n      dup6\n        /* \"#utility.yul\":8894:8916   */\n      add\n        /* \"#utility.yul\":8865:8926   */\n      tag_210\n      jump\t// in\n    tag_323:\n        /* \"#utility.yul\":8855:8926   */\n      swap2\n      pop\n        /* \"#utility.yul\":8811:8936   */\n      pop\n        /* \"#utility.yul\":8598:8943   */\n      swap3\n      swap2\n      pop\n      pop\n      jump\t// out\n        /* \"#utility.yul\":8949:9120   */\n    tag_211:\n        /* \"#utility.yul\":9089:9112   */\n      0x546f6b656e207472616e73666572206661696c65640000000000000000000000\n        /* \"#utility.yul\":9085:9086   */\n      0x00\n        /* \"#utility.yul\":9077:9083   */\n      dup3\n        /* \"#utility.yul\":9073:9087   */\n      add\n        /* \"#utility.yul\":9066:9113   */\n      mstore\n        /* \"#utility.yul\":8949:9120   */\n      pop\n      jump\t// out\n        /* \"#utility.yul\":9126:9492   */\n    tag_212:\n        /* \"#utility.yul\":9268:9271   */\n      0x00\n        /* \"#utility.yul\":9289:9356   */\n      tag_326\n        /* \"#utility.yul\":9353:9355   */\n      0x15\n        /* \"#utility.yul\":9348:9351   */\n      dup4\n        /* \"#utility.yul\":9289:9356   */\n      tag_202\n      jump\t// in\n    tag_326:\n        /* \"#utility.yul\":9282:9356   */\n      swap2\n      pop\n        /* \"#utility.yul\":9365:9458   */\n      tag_327\n        /* \"#utility.yul\":9454:9457   */\n      dup3\n        /* \"#utility.yul\":9365:9458   */\n      tag_211\n      jump\t// in\n    tag_327:\n        /* \"#utility.yul\":9483:9485   */\n      0x20\n        /* \"#utility.yul\":9478:9481   */\n      dup3\n        /* \"#utility.yul\":9474:9486   */\n      add\n        /* \"#utility.yul\":9467:9486   */\n      swap1\n      pop\n        /* \"#utility.yul\":9126:9492   */\n      swap2\n      swap1\n      pop\n      jump\t// out\n        /* \"#utility.yul\":9498:9917   */\n    tag_111:\n        /* \"#utility.yul\":9664:9668   */\n      0x00\n        /* \"#utility.yul\":9702:9704   */\n      0x20\n        /* \"#utility.yul\":9691:9700   */\n      dup3\n        /* \"#utility.yul\":9687:9705   */\n      add\n        /* \"#utility.yul\":9679:9705   */\n      swap1\n      pop\n        /* \"#utility.yul\":9751:9760   */\n      dup2\n        /* \"#utility.yul\":9745:9749   */\n      dup2\n        /* \"#utility.yul\":9741:9761   */\n      sub\n        /* \"#utility.yul\":9737:9738   */\n      0x00\n        /* \"#utility.yul\":9726:9735   */\n      dup4\n        /* \"#utility.yul\":9722:9739   */\n      add\n        /* \"#utility.yul\":9715:9762   */\n      mstore\n        /* \"#utility.yul\":9779:9910   */\n      tag_329\n        /* \"#utility.yul\":9905:9909   */\n      dup2\n        /* \"#utility.yul\":9779:9910   */\n      tag_212\n      jump\t// in\n    tag_329:\n        /* \"#utility.yul\":9771:9910   */\n      swap1\n      pop\n        /* \"#utility.yul\":9498:9917   */\n      swap2\n      swap1\n      pop\n      jump\t// out\n        /* \"#utility.yul\":9923:10333   */\n    tag_117:\n        /* \"#utility.yul\":9963:9970   */\n      0x00\n        /* \"#utility.yul\":9986:10006   */\n      tag_331\n        /* \"#utility.yul\":10004:10005   */\n      dup3\n        /* \"#utility.yul\":9986:10006   */\n      tag_180\n      jump\t// in\n    tag_331:\n        /* \"#utility.yul\":9981:10006   */\n      swap2\n      pop\n        /* \"#utility.yul\":10020:10040   */\n      tag_332\n        /* \"#utility.yul\":10038:10039   */\n      dup4\n        /* \"#utility.yul\":10020:10040   */\n      tag_180\n      jump\t// in\n    tag_332:\n        /* \"#utility.yul\":10015:10040   */\n      swap3\n      pop\n        /* \"#utility.yul\":10075:10076   */\n      dup3\n        /* \"#utility.yul\":10072:10073   */\n      dup3\n        /* \"#utility.yul\":10068:10077   */\n      mul\n        /* \"#utility.yul\":10097:10127   */\n      tag_333\n        /* \"#utility.yul\":10115:10126   */\n      dup2\n        /* \"#utility.yul\":10097:10127   */\n      tag_180\n      jump\t// in\n    tag_333:\n        /* \"#utility.yul\":10086:10127   */\n      swap2\n      pop\n        /* \"#utility.yul\":10276:10277   */\n      dup3\n        /* \"#utility.yul\":10267:10274   */\n      dup3\n        /* \"#utility.yul\":10263:10278   */\n      div\n        /* \"#utility.yul\":10260:10261   */\n      dup5\n        /* \"#utility.yul\":10257:10279   */\n      eq\n        /* \"#utility.yul\":10237:10238   */\n      dup4\n        /* \"#utility.yul\":10230:10239   */\n      iszero\n        /* \"#utility.yul\":10210:10293   */\n      or\n        /* \"#utility.yul\":10187:10326   */\n      tag_334\n      jumpi\n        /* \"#utility.yul\":10306:10324   */\n      tag_335\n      tag_181\n      jump\t// in\n    tag_335:\n        /* \"#utility.yul\":10187:10326   */\n    tag_334:\n        /* \"#utility.yul\":9971:10333   */\n      pop\n        /* \"#utility.yul\":9923:10333   */\n      swap3\n      swap2\n      pop\n      pop\n      jump\t// out\n        /* \"#utility.yul\":10339:10519   */\n    tag_213:\n        /* \"#utility.yul\":10387:10464   */\n      0x4e487b7100000000000000000000000000000000000000000000000000000000\n        /* \"#utility.yul\":10384:10385   */\n      0x00\n        /* \"#utility.yul\":10377:10465   */\n      mstore\n        /* \"#utility.yul\":10484:10488   */\n      0x12\n        /* \"#utility.yul\":10481:10482   */\n      0x04\n        /* \"#utility.yul\":10474:10489   */\n      mstore\n        /* \"#utility.yul\":10508:10512   */\n      0x24\n        /* \"#utility.yul\":10505:10506   */\n      0x00\n        /* \"#utility.yul\":10498:10513   */\n      revert\n        /* \"#utility.yul\":10525:10710   */\n    tag_119:\n        /* \"#utility.yul\":10565:10566   */\n      0x00\n        /* \"#utility.yul\":10582:10602   */\n      tag_338\n        /* \"#utility.yul\":10600:10601   */\n      dup3\n        /* \"#utility.yul\":10582:10602   */\n      tag_180\n      jump\t// in\n    tag_338:\n        /* \"#utility.yul\":10577:10602   */\n      swap2\n      pop\n        /* \"#utility.yul\":10616:10636   */\n      tag_339\n        /* \"#utility.yul\":10634:10635   */\n      dup4\n        /* \"#utility.yul\":10616:10636   */\n      tag_180\n      jump\t// in\n    tag_339:\n        /* \"#utility.yul\":10611:10636   */\n      swap3\n      pop\n        /* \"#utility.yul\":10655:10656   */\n      dup3\n        /* \"#utility.yul\":10645:10680   */\n      tag_340\n      jumpi\n        /* \"#utility.yul\":10660:10678   */\n      tag_341\n      tag_213\n      jump\t// in\n    tag_341:\n        /* \"#utility.yul\":10645:10680   */\n    tag_340:\n        /* \"#utility.yul\":10702:10703   */\n      dup3\n        /* \"#utility.yul\":10699:10700   */\n      dup3\n        /* \"#utility.yul\":10695:10704   */\n      div\n        /* \"#utility.yul\":10690:10704   */\n      swap1\n      pop\n        /* \"#utility.yul\":10525:10710   */\n      swap3\n      swap2\n      pop\n      pop\n      jump\t// out\n        /* \"#utility.yul\":10716:10936   */\n    tag_214:\n        /* \"#utility.yul\":10856:10890   */\n      0x446973747269627574696f6e20696e74657276616c206e6f7420726561636865\n        /* \"#utility.yul\":10852:10853   */\n      0x00\n        /* \"#utility.yul\":10844:10850   */\n      dup3\n        /* \"#utility.yul\":10840:10854   */\n      add\n        /* \"#utility.yul\":10833:10891   */\n      mstore\n        /* \"#utility.yul\":10925:10928   */\n      0x6400000000000000000000000000000000000000000000000000000000000000\n        /* \"#utility.yul\":10920:10922   */\n      0x20\n        /* \"#utility.yul\":10912:10918   */\n      dup3\n        /* \"#utility.yul\":10908:10923   */\n      add\n        /* \"#utility.yul\":10901:10929   */\n      mstore\n        /* \"#utility.yul\":10716:10936   */\n      pop\n      jump\t// out\n        /* \"#utility.yul\":10942:11308   */\n    tag_215:\n        /* \"#utility.yul\":11084:11087   */\n      0x00\n        /* \"#utility.yul\":11105:11172   */\n      tag_344\n        /* \"#utility.yul\":11169:11171   */\n      0x21\n        /* \"#utility.yul\":11164:11167   */\n      dup4\n        /* \"#utility.yul\":11105:11172   */\n      tag_202\n      jump\t// in\n    tag_344:\n        /* \"#utility.yul\":11098:11172   */\n      swap2\n      pop\n        /* \"#utility.yul\":11181:11274   */\n      tag_345\n        /* \"#utility.yul\":11270:11273   */\n      dup3\n        /* \"#utility.yul\":11181:11274   */\n      tag_214\n      jump\t// in\n    tag_345:\n        /* \"#utility.yul\":11299:11301   */\n      0x40\n        /* \"#utility.yul\":11294:11297   */\n      dup3\n        /* \"#utility.yul\":11290:11302   */\n      add\n        /* \"#utility.yul\":11283:11302   */\n      swap1\n      pop\n        /* \"#utility.yul\":10942:11308   */\n      swap2\n      swap1\n      pop\n      jump\t// out\n        /* \"#utility.yul\":11314:11733   */\n    tag_132:\n        /* \"#utility.yul\":11480:11484   */\n      0x00\n        /* \"#utility.yul\":11518:11520   */\n      0x20\n        /* \"#utility.yul\":11507:11516   */\n      dup3\n        /* \"#utility.yul\":11503:11521   */\n      add\n        /* \"#utility.yul\":11495:11521   */\n      swap1\n      pop\n        /* \"#utility.yul\":11567:11576   */\n      dup2\n        /* \"#utility.yul\":11561:11565   */\n      dup2\n        /* \"#utility.yul\":11557:11577   */\n      sub\n        /* \"#utility.yul\":11553:11554   */\n      0x00\n        /* \"#utility.yul\":11542:11551   */\n      dup4\n        /* \"#utility.yul\":11538:11555   */\n      add\n        /* \"#utility.yul\":11531:11578   */\n      mstore\n        /* \"#utility.yul\":11595:11726   */\n      tag_347\n        /* \"#utility.yul\":11721:11725   */\n      dup2\n        /* \"#utility.yul\":11595:11726   */\n      tag_215\n      jump\t// in\n    tag_347:\n        /* \"#utility.yul\":11587:11726   */\n      swap1\n      pop\n        /* \"#utility.yul\":11314:11733   */\n      swap2\n      swap1\n      pop\n      jump\t// out\n        /* \"#utility.yul\":11739:11882   */\n    tag_216:\n        /* \"#utility.yul\":11796:11801   */\n      0x00\n        /* \"#utility.yul\":11827:11833   */\n      dup2\n        /* \"#utility.yul\":11821:11834   */\n      mload\n        /* \"#utility.yul\":11812:11834   */\n      swap1\n      pop\n        /* \"#utility.yul\":11843:11876   */\n      tag_349\n        /* \"#utility.yul\":11870:11875   */\n      dup2\n        /* \"#utility.yul\":11843:11876   */\n      tag_190\n      jump\t// in\n    tag_349:\n        /* \"#utility.yul\":11739:11882   */\n      swap3\n      swap2\n      pop\n      pop\n      jump\t// out\n        /* \"#utility.yul\":11888:12239   */\n    tag_141:\n        /* \"#utility.yul\":11958:11964   */\n      0x00\n        /* \"#utility.yul\":12007:12009   */\n      0x20\n        /* \"#utility.yul\":11995:12004   */\n      dup3\n        /* \"#utility.yul\":11986:11993   */\n      dup5\n        /* \"#utility.yul\":11982:12005   */\n      sub\n        /* \"#utility.yul\":11978:12010   */\n      slt\n        /* \"#utility.yul\":11975:12094   */\n      iszero\n      tag_351\n      jumpi\n        /* \"#utility.yul\":12013:12092   */\n      tag_352\n      tag_184\n      jump\t// in\n    tag_352:\n        /* \"#utility.yul\":11975:12094   */\n    tag_351:\n        /* \"#utility.yul\":12133:12134   */\n      0x00\n        /* \"#utility.yul\":12158:12222   */\n      tag_353\n        /* \"#utility.yul\":12214:12221   */\n      dup5\n        /* \"#utility.yul\":12205:12211   */\n      dup3\n        /* \"#utility.yul\":12194:12203   */\n      dup6\n        /* \"#utility.yul\":12190:12212   */\n      add\n        /* \"#utility.yul\":12158:12222   */\n      tag_216\n      jump\t// in\n    tag_353:\n        /* \"#utility.yul\":12148:12222   */\n      swap2\n      pop\n        /* \"#utility.yul\":12104:12232   */\n      pop\n        /* \"#utility.yul\":11888:12239   */\n      swap3\n      swap2\n      pop\n      pop\n      jump\t// out\n        /* \"#utility.yul\":12245:12409   */\n    tag_217:\n        /* \"#utility.yul\":12385:12401   */\n      0x4e6f7420617574686f72697a6564000000000000000000000000000000000000\n        /* \"#utility.yul\":12381:12382   */\n      0x00\n        /* \"#utility.yul\":12373:12379   */\n      dup3\n        /* \"#utility.yul\":12369:12383   */\n      add\n        /* \"#utility.yul\":12362:12402   */\n      mstore\n        /* \"#utility.yul\":12245:12409   */\n      pop\n      jump\t// out\n        /* \"#utility.yul\":12415:12781   */\n    tag_218:\n        /* \"#utility.yul\":12557:12560   */\n      0x00\n        /* \"#utility.yul\":12578:12645   */\n      tag_356\n        /* \"#utility.yul\":12642:12644   */\n      0x0e\n        /* \"#utility.yul\":12637:12640   */\n      dup4\n        /* \"#utility.yul\":12578:12645   */\n      tag_202\n      jump\t// in\n    tag_356:\n        /* \"#utility.yul\":12571:12645   */\n      swap2\n      pop\n        /* \"#utility.yul\":12654:12747   */\n      tag_357\n        /* \"#utility.yul\":12743:12746   */\n      dup3\n        /* \"#utility.yul\":12654:12747   */\n      tag_217\n      jump\t// in\n    tag_357:\n        /* \"#utility.yul\":12772:12774   */\n      0x20\n        /* \"#utility.yul\":12767:12770   */\n      dup3\n        /* \"#utility.yul\":12763:12775   */\n      add\n        /* \"#utility.yul\":12756:12775   */\n      swap1\n      pop\n        /* \"#utility.yul\":12415:12781   */\n      swap2\n      swap1\n      pop\n      jump\t// out\n        /* \"#utility.yul\":12787:13206   */\n    tag_144:\n        /* \"#utility.yul\":12953:12957   */\n      0x00\n        /* \"#utility.yul\":12991:12993   */\n      0x20\n        /* \"#utility.yul\":12980:12989   */\n      dup3\n        /* \"#utility.yul\":12976:12994   */\n      add\n        /* \"#utility.yul\":12968:12994   */\n      swap1\n      pop\n        /* \"#utility.yul\":13040:13049   */\n      dup2\n        /* \"#utility.yul\":13034:13038   */\n      dup2\n        /* \"#utility.yul\":13030:13050   */\n      sub\n        /* \"#utility.yul\":13026:13027   */\n      0x00\n        /* \"#utility.yul\":13015:13024   */\n      dup4\n        /* \"#utility.yul\":13011:13028   */\n      add\n        /* \"#utility.yul\":13004:13051   */\n      mstore\n        /* \"#utility.yul\":13068:13199   */\n      tag_359\n        /* \"#utility.yul\":13194:13198   */\n      dup2\n        /* \"#utility.yul\":13068:13199   */\n      tag_218\n      jump\t// in\n    tag_359:\n        /* \"#utility.yul\":13060:13199   */\n      swap1\n      pop\n        /* \"#utility.yul\":12787:13206   */\n      swap2\n      swap1\n      pop\n      jump\t// out\n        /* \"#utility.yul\":13212:13654   */\n    tag_153:\n        /* \"#utility.yul\":13361:13365   */\n      0x00\n        /* \"#utility.yul\":13399:13401   */\n      0x60\n        /* \"#utility.yul\":13388:13397   */\n      dup3\n        /* \"#utility.yul\":13384:13402   */\n      add\n        /* \"#utility.yul\":13376:13402   */\n      swap1\n      pop\n        /* \"#utility.yul\":13412:13483   */\n      tag_361\n        /* \"#utility.yul\":13480:13481   */\n      0x00\n        /* \"#utility.yul\":13469:13478   */\n      dup4\n        /* \"#utility.yul\":13465:13482   */\n      add\n        /* \"#utility.yul\":13456:13462   */\n      dup7\n        /* \"#utility.yul\":13412:13483   */\n      tag_207\n      jump\t// in\n    tag_361:\n        /* \"#utility.yul\":13493:13565   */\n      tag_362\n        /* \"#utility.yul\":13561:13563   */\n      0x20\n        /* \"#utility.yul\":13550:13559   */\n      dup4\n        /* \"#utility.yul\":13546:13564   */\n      add\n        /* \"#utility.yul\":13537:13543   */\n      dup6\n        /* \"#utility.yul\":13493:13565   */\n      tag_207\n      jump\t// in\n    tag_362:\n        /* \"#utility.yul\":13575:13647   */\n      tag_363\n        /* \"#utility.yul\":13643:13645   */\n      0x40\n        /* \"#utility.yul\":13632:13641   */\n      dup4\n        /* \"#utility.yul\":13628:13646   */\n      add\n        /* \"#utility.yul\":13619:13625   */\n      dup5\n        /* \"#utility.yul\":13575:13647   */\n      tag_182\n      jump\t// in\n    tag_363:\n        /* \"#utility.yul\":13212:13654   */\n      swap5\n      swap4\n      pop\n      pop\n      pop\n      pop\n      jump\t// out\n        /* \"#utility.yul\":13660:13830   */\n    tag_219:\n        /* \"#utility.yul\":13800:13822   */\n      0x496e73756666696369656e742062616c616e6365000000000000000000000000\n        /* \"#utility.yul\":13796:13797   */\n      0x00\n        /* \"#utility.yul\":13788:13794   */\n      dup3\n        /* \"#utility.yul\":13784:13798   */\n      add\n        /* \"#utility.yul\":13777:13823   */\n      mstore\n        /* \"#utility.yul\":13660:13830   */\n      pop\n      jump\t// out\n        /* \"#utility.yul\":13836:14202   */\n    tag_220:\n        /* \"#utility.yul\":13978:13981   */\n      0x00\n        /* \"#utility.yul\":13999:14066   */\n      tag_366\n        /* \"#utility.yul\":14063:14065   */\n      0x14\n        /* \"#utility.yul\":14058:14061   */\n      dup4\n        /* \"#utility.yul\":13999:14066   */\n      tag_202\n      jump\t// in\n    tag_366:\n        /* \"#utility.yul\":13992:14066   */\n      swap2\n      pop\n        /* \"#utility.yul\":14075:14168   */\n      tag_367\n        /* \"#utility.yul\":14164:14167   */\n      dup3\n        /* \"#utility.yul\":14075:14168   */\n      tag_219\n      jump\t// in\n    tag_367:\n        /* \"#utility.yul\":14193:14195   */\n      0x20\n        /* \"#utility.yul\":14188:14191   */\n      dup3\n        /* \"#utility.yul\":14184:14196   */\n      add\n        /* \"#utility.yul\":14177:14196   */\n      swap1\n      pop\n        /* \"#utility.yul\":13836:14202   */\n      swap2\n      swap1\n      pop\n      jump\t// out\n        /* \"#utility.yul\":14208:14627   */\n    tag_177:\n        /* \"#utility.yul\":14374:14378   */\n      0x00\n        /* \"#utility.yul\":14412:14414   */\n      0x20\n        /* \"#utility.yul\":14401:14410   */\n      dup3\n        /* \"#utility.yul\":14397:14415   */\n      add\n        /* \"#utility.yul\":14389:14415   */\n      swap1\n      pop\n        /* \"#utility.yul\":14461:14470   */\n      dup2\n        /* \"#utility.yul\":14455:14459   */\n      dup2\n        /* \"#utility.yul\":14451:14471   */\n      sub\n        /* \"#utility.yul\":14447:14448   */\n      0x00\n        /* \"#utility.yul\":14436:14445   */\n      dup4\n        /* \"#utility.yul\":14432:14449   */\n      add\n        /* \"#utility.yul\":14425:14472   */\n      mstore\n        /* \"#utility.yul\":14489:14620   */\n      tag_369\n        /* \"#utility.yul\":14615:14619   */\n      dup2\n        /* \"#utility.yul\":14489:14620   */\n      tag_220\n      jump\t// in\n    tag_369:\n        /* \"#utility.yul\":14481:14620   */\n      swap1\n      pop\n        /* \"#utility.yul\":14208:14627   */\n      swap2\n      swap1\n      pop\n      jump\t// out\n\n    auxdata: 0xa26469706673582212201fa23997b51be7ada0963ad5f39d5ee00aa78e7b3178f807fe8d097c712d9cd764736f6c634300081a0033\n}\n",
				"bytecode": {
					"linkReferences": {},
					"object": "608060405262093a80600555348015610016575f80fd5b506040516117eb3803806117eb83398181016040528101906100389190610123565b815f806101000a81548173ffffffffffffffffffffffffffffffffffffffff021916908373ffffffffffffffffffffffffffffffffffffffff1602179055508060015f6101000a81548173ffffffffffffffffffffffffffffffffffffffff021916908373ffffffffffffffffffffffffffffffffffffffff160217905550426004819055505050610161565b5f80fd5b5f73ffffffffffffffffffffffffffffffffffffffff82169050919050565b5f6100f2826100c9565b9050919050565b610102816100e8565b811461010c575f80fd5b50565b5f8151905061011d816100f9565b92915050565b5f8060408385031215610139576101386100c5565b5b5f6101468582860161010f565b92505060206101578582860161010f565b9150509250929050565b61167d8061016e5f395ff3fe6080604052600436106100eb575f3560e01c80637ff0635711610089578063aa4704f311610058578063aa4704f3146102d9578063b77cf9c614610316578063e4c731a414610352578063fc0c546a1461037a57610141565b80637ff0635714610253578063817b1cd21461027d578063915fc94d146102a7578063a694fc3a146102b157610141565b806368e5585d116100c557806368e5585d146101ad5780636f4a2cd0146101e957806371201a0e146101ff57806375b173501461022957610141565b806306a21efc146101455780632e17de781461016f578063372500ab1461019757610141565b36610141573460035f8282546101019190610f40565b925050819055507f426fde376ad06cb3d6079fd86f5696a4de5382bccf98c90ed6b935014588fd78346040516101379190610f82565b60405180910390a1005b5f80fd5b348015610150575f80fd5b506101596103a4565b6040516101669190610f82565b60405180910390f35b34801561017a575f80fd5b5061019560048036038101906101909190610fc9565b6103aa565b005b3480156101a2575f80fd5b506101ab610609565b005b3480156101b8575f80fd5b506101d360048036038101906101ce919061104e565b6107fb565b6040516101e09190610f82565b60405180910390f35b3480156101f4575f80fd5b506101fd610810565b005b34801561020a575f80fd5b506102136108c6565b6040516102209190610f82565b60405180910390f35b348015610234575f80fd5b5061023d6108cc565b60405161024a9190610f82565b60405180910390f35b34801561025e575f80fd5b506102676108d2565b60405161027491906110d4565b60405180910390f35b348015610288575f80fd5b506102916108f7565b60405161029e9190610f82565b60405180910390f35b6102af6108fd565b005b3480156102bc575f80fd5b506102d760048036038101906102d29190610fc9565b610aa0565b005b3480156102e4575f80fd5b506102ff60048036038101906102fa919061104e565b610c81565b60405161030d9291906110ed565b60405180910390f35b348015610321575f80fd5b5061033c6004803603810190610337919061104e565b610cf5565b6040516103499190610f82565b60405180910390f35b34801561035d575f80fd5b506103786004803603810190610373919061114f565b610d0a565b005b348015610385575f80fd5b5061038e610ee7565b60405161039b91906111ad565b60405180910390f35b60035481565b5f81116103ec576040517f08c379a00000000000000000000000000000000000000000000000000000000081526004016103e390611220565b60405180910390fd5b8060065f3373ffffffffffffffffffffffffffffffffffffffff1673ffffffffffffffffffffffffffffffffffffffff1681526020019081526020015f2054101561046c576040517f08c379a000000000000000000000000000000000000000000000000000000000815260040161046390611288565b60405180910390fd5b610474610609565b8060065f3373ffffffffffffffffffffffffffffffffffffffff1673ffffffffffffffffffffffffffffffffffffffff1681526020019081526020015f205f8282546104c091906112a6565b925050819055508060025f8282546104d891906112a6565b925050819055505f8054906101000a900473ffffffffffffffffffffffffffffffffffffffff1673ffffffffffffffffffffffffffffffffffffffff1663a9059cbb33836040518363ffffffff1660e01b81526004016105399291906112e8565b6020604051808303815f875af1158015610555573d5f803e3d5ffd5b505050506040513d601f19601f820116820180604052508101906105799190611344565b6105b8576040517f08c379a00000000000000000000000000000000000000000000000000000000081526004016105af906113b9565b60405180910390fd5b3373ffffffffffffffffffffffffffffffffffffffff167f0f5bb82176feb1b5e747e28471aa92156a04d9f3ab9f45f28e2d704232b93f75826040516105fe9190610f82565b60405180910390a250565b5f60025403156107f9575f60065f3373ffffffffffffffffffffffffffffffffffffffff1673ffffffffffffffffffffffffffffffffffffffff1681526020019081526020015f205490505f810361066157506107f9565b5f6002548260035461067391906113d7565b61067d9190611445565b90505f810361068d5750506107f9565b4260075f3373ffffffffffffffffffffffffffffffffffffffff1673ffffffffffffffffffffffffffffffffffffffff1681526020019081526020015f20819055505f8054906101000a900473ffffffffffffffffffffffffffffffffffffffff1673ffffffffffffffffffffffffffffffffffffffff1663a9059cbb33836040518363ffffffff1660e01b81526004016107299291906112e8565b6020604051808303815f875af1158015610745573d5f803e3d5ffd5b505050506040513d601f19601f820116820180604052508101906107699190611344565b6107a8576040517f08c379a000000000000000000000000000000000000000000000000000000000815260040161079f906113b9565b60405180910390fd5b3373ffffffffffffffffffffffffffffffffffffffff167ffc30cddea38e2bf4d6ea7d3f9ed3b6ad7f176419f4963bd81318067a4aee73fe826040516107ee9190610f82565b60405180910390a250505b565b6006602052805f5260405f205f915090505481565b6005546004546108209190610f40565b421015610862576040517f08c379a0000000000000000000000000000000000000000000000000000000008152600401610859906114e5565b60405180910390fd5b426004819055505f600254148061087a57505f600354145b6108c4575f60035490505f6003819055507f6d1c76d614228b523baa4dcd9539e2c713b54ff4ab3ff2d1627e7f6cd32be442816040516108ba9190610f82565b60405180910390a1505b565b60055481565b60045481565b60015f9054906101000a900473ffffffffffffffffffffffffffffffffffffffff1681565b60025481565b60015f9054906101000a900473ffffffffffffffffffffffffffffffffffffffff1673ffffffffffffffffffffffffffffffffffffffff163373ffffffffffffffffffffffffffffffffffffffff161480610a10575060015f9054906101000a900473ffffffffffffffffffffffffffffffffffffffff1673ffffffffffffffffffffffffffffffffffffffff16638da5cb5b6040518163ffffffff1660e01b8152600401602060405180830381865afa1580156109bd573d5f803e3d5ffd5b505050506040513d601f19601f820116820180604052508101906109e19190611517565b73ffffffffffffffffffffffffffffffffffffffff163373ffffffffffffffffffffffffffffffffffffffff16145b610a4f576040517f08c379a0000000000000000000000000000000000000000000000000000000008152600401610a469061158c565b60405180910390fd5b3460035f828254610a609190610f40565b925050819055507f426fde376ad06cb3d6079fd86f5696a4de5382bccf98c90ed6b935014588fd7834604051610a969190610f82565b60405180910390a1565b5f8111610ae2576040517f08c379a0000000000000000000000000000000000000000000000000000000008152600401610ad990611220565b60405180910390fd5b610aea610609565b5f8054906101000a900473ffffffffffffffffffffffffffffffffffffffff1673ffffffffffffffffffffffffffffffffffffffff166323b872dd3330846040518463ffffffff1660e01b8152600401610b46939291906115aa565b6020604051808303815f875af1158015610b62573d5f803e3d5ffd5b505050506040513d601f19601f82011682018060405250810190610b869190611344565b610bc5576040517f08c379a0000000000000000000000000000000000000000000000000000000008152600401610bbc906113b9565b60405180910390fd5b8060065f3373ffffffffffffffffffffffffffffffffffffffff1673ffffffffffffffffffffffffffffffffffffffff1681526020019081526020015f205f828254610c119190610f40565b925050819055508060025f828254610c299190610f40565b925050819055503373ffffffffffffffffffffffffffffffffffffffff167f9e71bc8eea02a63969f509818f2dafb9254532904319f9dbda79b67bd34a5f3d82604051610c769190610f82565b60405180910390a250565b5f8060065f8473ffffffffffffffffffffffffffffffffffffffff1673ffffffffffffffffffffffffffffffffffffffff1681526020019081526020015f205491505f60025411610cd2575f610cee565b60025461271083610ce391906113d7565b610ced9190611445565b5b9050915091565b6007602052805f5260405f205f915090505481565b60015f9054906101000a900473ffffffffffffffffffffffffffffffffffffffff1673ffffffffffffffffffffffffffffffffffffffff163373ffffffffffffffffffffffffffffffffffffffff161480610e1d575060015f9054906101000a900473ffffffffffffffffffffffffffffffffffffffff1673ffffffffffffffffffffffffffffffffffffffff16638da5cb5b6040518163ffffffff1660e01b8152600401602060405180830381865afa158015610dca573d5f803e3d5ffd5b505050506040513d601f19601f82011682018060405250810190610dee9190611517565b73ffffffffffffffffffffffffffffffffffffffff163373ffffffffffffffffffffffffffffffffffffffff16145b610e5c576040517f08c379a0000000000000000000000000000000000000000000000000000000008152600401610e539061158c565b60405180910390fd5b47811115610e9f576040517f08c379a0000000000000000000000000000000000000000000000000000000008152600401610e9690611629565b60405180910390fd5b8173ffffffffffffffffffffffffffffffffffffffff166108fc8290811502906040515f60405180830381858888f19350505050158015610ee2573d5f803e3d5ffd5b505050565b5f8054906101000a900473ffffffffffffffffffffffffffffffffffffffff1681565b5f819050919050565b7f4e487b71000000000000000000000000000000000000000000000000000000005f52601160045260245ffd5b5f610f4a82610f0a565b9150610f5583610f0a565b9250828201905080821115610f6d57610f6c610f13565b5b92915050565b610f7c81610f0a565b82525050565b5f602082019050610f955f830184610f73565b92915050565b5f80fd5b610fa881610f0a565b8114610fb2575f80fd5b50565b5f81359050610fc381610f9f565b92915050565b5f60208284031215610fde57610fdd610f9b565b5b5f610feb84828501610fb5565b91505092915050565b5f73ffffffffffffffffffffffffffffffffffffffff82169050919050565b5f61101d82610ff4565b9050919050565b61102d81611013565b8114611037575f80fd5b50565b5f8135905061104881611024565b92915050565b5f6020828403121561106357611062610f9b565b5b5f6110708482850161103a565b91505092915050565b5f819050919050565b5f61109c61109761109284610ff4565b611079565b610ff4565b9050919050565b5f6110ad82611082565b9050919050565b5f6110be826110a3565b9050919050565b6110ce816110b4565b82525050565b5f6020820190506110e75f8301846110c5565b92915050565b5f6040820190506111005f830185610f73565b61110d6020830184610f73565b9392505050565b5f61111e82610ff4565b9050919050565b61112e81611114565b8114611138575f80fd5b50565b5f8135905061114981611125565b92915050565b5f806040838503121561116557611164610f9b565b5b5f6111728582860161113b565b925050602061118385828601610fb5565b9150509250929050565b5f611197826110a3565b9050919050565b6111a78161118d565b82525050565b5f6020820190506111c05f83018461119e565b92915050565b5f82825260208201905092915050565b7f416d6f756e74206d7573742062652067726561746572207468616e207a65726f5f82015250565b5f61120a6020836111c6565b9150611215826111d6565b602082019050919050565b5f6020820190508181035f830152611237816111fe565b9050919050565b7f496e73756666696369656e74207374616b656420616d6f756e740000000000005f82015250565b5f611272601a836111c6565b915061127d8261123e565b602082019050919050565b5f6020820190508181035f83015261129f81611266565b9050919050565b5f6112b082610f0a565b91506112bb83610f0a565b92508282039050818111156112d3576112d2610f13565b5b92915050565b6112e281611013565b82525050565b5f6040820190506112fb5f8301856112d9565b6113086020830184610f73565b9392505050565b5f8115159050919050565b6113238161130f565b811461132d575f80fd5b50565b5f8151905061133e8161131a565b92915050565b5f6020828403121561135957611358610f9b565b5b5f61136684828501611330565b91505092915050565b7f546f6b656e207472616e73666572206661696c656400000000000000000000005f82015250565b5f6113a36015836111c6565b91506113ae8261136f565b602082019050919050565b5f6020820190508181035f8301526113d081611397565b9050919050565b5f6113e182610f0a565b91506113ec83610f0a565b92508282026113fa81610f0a565b9150828204841483151761141157611410610f13565b5b5092915050565b7f4e487b71000000000000000000000000000000000000000000000000000000005f52601260045260245ffd5b5f61144f82610f0a565b915061145a83610f0a565b92508261146a57611469611418565b5b828204905092915050565b7f446973747269627574696f6e20696e74657276616c206e6f74207265616368655f8201527f6400000000000000000000000000000000000000000000000000000000000000602082015250565b5f6114cf6021836111c6565b91506114da82611475565b604082019050919050565b5f6020820190508181035f8301526114fc816114c3565b9050919050565b5f8151905061151181611024565b92915050565b5f6020828403121561152c5761152b610f9b565b5b5f61153984828501611503565b91505092915050565b7f4e6f7420617574686f72697a65640000000000000000000000000000000000005f82015250565b5f611576600e836111c6565b915061158182611542565b602082019050919050565b5f6020820190508181035f8301526115a38161156a565b9050919050565b5f6060820190506115bd5f8301866112d9565b6115ca60208301856112d9565b6115d76040830184610f73565b949350505050565b7f496e73756666696369656e742062616c616e63650000000000000000000000005f82015250565b5f6116136014836111c6565b915061161e826115df565b602082019050919050565b5f6020820190508181035f83015261164081611607565b905091905056fea26469706673582212201fa23997b51be7ada0963ad5f39d5ee00aa78e7b3178f807fe8d097c712d9cd764736f6c634300081a0033",
					"opcodes": "PUSH1 0x80 PUSH1 0x40 MSTORE PUSH3 0x93A80 PUSH1 0x5 SSTORE CALLVALUE DUP1 ISZERO PUSH2 0x16 JUMPI PUSH0 DUP1 REVERT JUMPDEST POP PUSH1 0x40 MLOAD PUSH2 0x17EB CODESIZE SUB DUP1 PUSH2 0x17EB DUP4 CODECOPY DUP2 DUP2 ADD PUSH1 0x40 MSTORE DUP2 ADD SWAP1 PUSH2 0x38 SWAP2 SWAP1 PUSH2 0x123 JUMP JUMPDEST DUP2 PUSH0 DUP1 PUSH2 0x100 EXP DUP2 SLOAD DUP2 PUSH20 0xFFFFFFFFFFFFFFFFFFFFFFFFFFFFFFFFFFFFFFFF MUL NOT AND SWAP1 DUP4 PUSH20 0xFFFFFFFFFFFFFFFFFFFFFFFFFFFFFFFFFFFFFFFF AND MUL OR SWAP1 SSTORE POP DUP1 PUSH1 0x1 PUSH0 PUSH2 0x100 EXP DUP2 SLOAD DUP2 PUSH20 0xFFFFFFFFFFFFFFFFFFFFFFFFFFFFFFFFFFFFFFFF MUL NOT AND SWAP1 DUP4 PUSH20 0xFFFFFFFFFFFFFFFFFFFFFFFFFFFFFFFFFFFFFFFF AND MUL OR SWAP1 SSTORE POP TIMESTAMP PUSH1 0x4 DUP2 SWAP1 SSTORE POP POP POP PUSH2 0x161 JUMP JUMPDEST PUSH0 DUP1 REVERT JUMPDEST PUSH0 PUSH20 0xFFFFFFFFFFFFFFFFFFFFFFFFFFFFFFFFFFFFFFFF DUP3 AND SWAP1 POP SWAP2 SWAP1 POP JUMP JUMPDEST PUSH0 PUSH2 0xF2 DUP3 PUSH2 0xC9 JUMP JUMPDEST SWAP1 POP SWAP2 SWAP1 POP JUMP JUMPDEST PUSH2 0x102 DUP2 PUSH2 0xE8 JUMP JUMPDEST DUP2 EQ PUSH2 0x10C JUMPI PUSH0 DUP1 REVERT JUMPDEST POP JUMP JUMPDEST PUSH0 DUP2 MLOAD SWAP1 POP PUSH2 0x11D DUP2 PUSH2 0xF9 JUMP JUMPDEST SWAP3 SWAP2 POP POP JUMP JUMPDEST PUSH0 DUP1 PUSH1 0x40 DUP4 DUP6 SUB SLT ISZERO PUSH2 0x139 JUMPI PUSH2 0x138 PUSH2 0xC5 JUMP JUMPDEST JUMPDEST PUSH0 PUSH2 0x146 DUP6 DUP3 DUP7 ADD PUSH2 0x10F JUMP JUMPDEST SWAP3 POP POP PUSH1 0x20 PUSH2 0x157 DUP6 DUP3 DUP7 ADD PUSH2 0x10F JUMP JUMPDEST SWAP2 POP POP SWAP3 POP SWAP3 SWAP1 POP JUMP JUMPDEST PUSH2 0x167D DUP1 PUSH2 0x16E PUSH0 CODECOPY PUSH0 RETURN INVALID PUSH1 0x80 PUSH1 0x40 MSTORE PUSH1 0x4 CALLDATASIZE LT PUSH2 0xEB JUMPI PUSH0 CALLDATALOAD PUSH1 0xE0 SHR DUP1 PUSH4 0x7FF06357 GT PUSH2 0x89 JUMPI DUP1 PUSH4 0xAA4704F3 GT PUSH2 0x58 JUMPI DUP1 PUSH4 0xAA4704F3 EQ PUSH2 0x2D9 JUMPI DUP1 PUSH4 0xB77CF9C6 EQ PUSH2 0x316 JUMPI DUP1 PUSH4 0xE4C731A4 EQ PUSH2 0x352 JUMPI DUP1 PUSH4 0xFC0C546A EQ PUSH2 0x37A JUMPI PUSH2 0x141 JUMP JUMPDEST DUP1 PUSH4 0x7FF06357 EQ PUSH2 0x253 JUMPI DUP1 PUSH4 0x817B1CD2 EQ PUSH2 0x27D JUMPI DUP1 PUSH4 0x915FC94D EQ PUSH2 0x2A7 JUMPI DUP1 PUSH4 0xA694FC3A EQ PUSH2 0x2B1 JUMPI PUSH2 0x141 JUMP JUMPDEST DUP1 PUSH4 0x68E5585D GT PUSH2 0xC5 JUMPI DUP1 PUSH4 0x68E5585D EQ PUSH2 0x1AD JUMPI DUP1 PUSH4 0x6F4A2CD0 EQ PUSH2 0x1E9 JUMPI DUP1 PUSH4 0x71201A0E EQ PUSH2 0x1FF JUMPI DUP1 PUSH4 0x75B17350 EQ PUSH2 0x229 JUMPI PUSH2 0x141 JUMP JUMPDEST DUP1 PUSH4 0x6A21EFC EQ PUSH2 0x145 JUMPI DUP1 PUSH4 0x2E17DE78 EQ PUSH2 0x16F JUMPI DUP1 PUSH4 0x372500AB EQ PUSH2 0x197 JUMPI PUSH2 0x141 JUMP JUMPDEST CALLDATASIZE PUSH2 0x141 JUMPI CALLVALUE PUSH1 0x3 PUSH0 DUP3 DUP3 SLOAD PUSH2 0x101 SWAP2 SWAP1 PUSH2 0xF40 JUMP JUMPDEST SWAP3 POP POP DUP2 SWAP1 SSTORE POP PUSH32 0x426FDE376AD06CB3D6079FD86F5696A4DE5382BCCF98C90ED6B935014588FD78 CALLVALUE PUSH1 0x40 MLOAD PUSH2 0x137 SWAP2 SWAP1 PUSH2 0xF82 JUMP JUMPDEST PUSH1 0x40 MLOAD DUP1 SWAP2 SUB SWAP1 LOG1 STOP JUMPDEST PUSH0 DUP1 REVERT JUMPDEST CALLVALUE DUP1 ISZERO PUSH2 0x150 JUMPI PUSH0 DUP1 REVERT JUMPDEST POP PUSH2 0x159 PUSH2 0x3A4 JUMP JUMPDEST PUSH1 0x40 MLOAD PUSH2 0x166 SWAP2 SWAP1 PUSH2 0xF82 JUMP JUMPDEST PUSH1 0x40 MLOAD DUP1 SWAP2 SUB SWAP1 RETURN JUMPDEST CALLVALUE DUP1 ISZERO PUSH2 0x17A JUMPI PUSH0 DUP1 REVERT JUMPDEST POP PUSH2 0x195 PUSH1 0x4 DUP1 CALLDATASIZE SUB DUP2 ADD SWAP1 PUSH2 0x190 SWAP2 SWAP1 PUSH2 0xFC9 JUMP JUMPDEST PUSH2 0x3AA JUMP JUMPDEST STOP JUMPDEST CALLVALUE DUP1 ISZERO PUSH2 0x1A2 JUMPI PUSH0 DUP1 REVERT JUMPDEST POP PUSH2 0x1AB PUSH2 0x609 JUMP JUMPDEST STOP JUMPDEST CALLVALUE DUP1 ISZERO PUSH2 0x1B8 JUMPI PUSH0 DUP1 REVERT JUMPDEST POP PUSH2 0x1D3 PUSH1 0x4 DUP1 CALLDATASIZE SUB DUP2 ADD SWAP1 PUSH2 0x1CE SWAP2 SWAP1 PUSH2 0x104E JUMP JUMPDEST PUSH2 0x7FB JUMP JUMPDEST PUSH1 0x40 MLOAD PUSH2 0x1E0 SWAP2 SWAP1 PUSH2 0xF82 JUMP JUMPDEST PUSH1 0x40 MLOAD DUP1 SWAP2 SUB SWAP1 RETURN JUMPDEST CALLVALUE DUP1 ISZERO PUSH2 0x1F4 JUMPI PUSH0 DUP1 REVERT JUMPDEST POP PUSH2 0x1FD PUSH2 0x810 JUMP JUMPDEST STOP JUMPDEST CALLVALUE DUP1 ISZERO PUSH2 0x20A JUMPI PUSH0 DUP1 REVERT JUMPDEST POP PUSH2 0x213 PUSH2 0x8C6 JUMP JUMPDEST PUSH1 0x40 MLOAD PUSH2 0x220 SWAP2 SWAP1 PUSH2 0xF82 JUMP JUMPDEST PUSH1 0x40 MLOAD DUP1 SWAP2 SUB SWAP1 RETURN JUMPDEST CALLVALUE DUP1 ISZERO PUSH2 0x234 JUMPI PUSH0 DUP1 REVERT JUMPDEST POP PUSH2 0x23D PUSH2 0x8CC JUMP JUMPDEST PUSH1 0x40 MLOAD PUSH2 0x24A SWAP2 SWAP1 PUSH2 0xF82 JUMP JUMPDEST PUSH1 0x40 MLOAD DUP1 SWAP2 SUB SWAP1 RETURN JUMPDEST CALLVALUE DUP1 ISZERO PUSH2 0x25E JUMPI PUSH0 DUP1 REVERT JUMPDEST POP PUSH2 0x267 PUSH2 0x8D2 JUMP JUMPDEST PUSH1 0x40 MLOAD PUSH2 0x274 SWAP2 SWAP1 PUSH2 0x10D4 JUMP JUMPDEST PUSH1 0x40 MLOAD DUP1 SWAP2 SUB SWAP1 RETURN JUMPDEST CALLVALUE DUP1 ISZERO PUSH2 0x288 JUMPI PUSH0 DUP1 REVERT JUMPDEST POP PUSH2 0x291 PUSH2 0x8F7 JUMP JUMPDEST PUSH1 0x40 MLOAD PUSH2 0x29E SWAP2 SWAP1 PUSH2 0xF82 JUMP JUMPDEST PUSH1 0x40 MLOAD DUP1 SWAP2 SUB SWAP1 RETURN JUMPDEST PUSH2 0x2AF PUSH2 0x8FD JUMP JUMPDEST STOP JUMPDEST CALLVALUE DUP1 ISZERO PUSH2 0x2BC JUMPI PUSH0 DUP1 REVERT JUMPDEST POP PUSH2 0x2D7 PUSH1 0x4 DUP1 CALLDATASIZE SUB DUP2 ADD SWAP1 PUSH2 0x2D2 SWAP2 SWAP1 PUSH2 0xFC9 JUMP JUMPDEST PUSH2 0xAA0 JUMP JUMPDEST STOP JUMPDEST CALLVALUE DUP1 ISZERO PUSH2 0x2E4 JUMPI PUSH0 DUP1 REVERT JUMPDEST POP PUSH2 0x2FF PUSH1 0x4 DUP1 CALLDATASIZE SUB DUP2 ADD SWAP1 PUSH2 0x2FA SWAP2 SWAP1 PUSH2 0x104E JUMP JUMPDEST PUSH2 0xC81 JUMP JUMPDEST PUSH1 0x40 MLOAD PUSH2 0x30D SWAP3 SWAP2 SWAP1 PUSH2 0x10ED JUMP JUMPDEST PUSH1 0x40 MLOAD DUP1 SWAP2 SUB SWAP1 RETURN JUMPDEST CALLVALUE DUP1 ISZERO PUSH2 0x321 JUMPI PUSH0 DUP1 REVERT JUMPDEST POP PUSH2 0x33C PUSH1 0x4 DUP1 CALLDATASIZE SUB DUP2 ADD SWAP1 PUSH2 0x337 SWAP2 SWAP1 PUSH2 0x104E JUMP JUMPDEST PUSH2 0xCF5 JUMP JUMPDEST PUSH1 0x40 MLOAD PUSH2 0x349 SWAP2 SWAP1 PUSH2 0xF82 JUMP JUMPDEST PUSH1 0x40 MLOAD DUP1 SWAP2 SUB SWAP1 RETURN JUMPDEST CALLVALUE DUP1 ISZERO PUSH2 0x35D JUMPI PUSH0 DUP1 REVERT JUMPDEST POP PUSH2 0x378 PUSH1 0x4 DUP1 CALLDATASIZE SUB DUP2 ADD SWAP1 PUSH2 0x373 SWAP2 SWAP1 PUSH2 0x114F JUMP JUMPDEST PUSH2 0xD0A JUMP JUMPDEST STOP JUMPDEST CALLVALUE DUP1 ISZERO PUSH2 0x385 JUMPI PUSH0 DUP1 REVERT JUMPDEST POP PUSH2 0x38E PUSH2 0xEE7 JUMP JUMPDEST PUSH1 0x40 MLOAD PUSH2 0x39B SWAP2 SWAP1 PUSH2 0x11AD JUMP JUMPDEST PUSH1 0x40 MLOAD DUP1 SWAP2 SUB SWAP1 RETURN JUMPDEST PUSH1 0x3 SLOAD DUP2 JUMP JUMPDEST PUSH0 DUP2 GT PUSH2 0x3EC JUMPI PUSH1 0x40 MLOAD PUSH32 0x8C379A000000000000000000000000000000000000000000000000000000000 DUP2 MSTORE PUSH1 0x4 ADD PUSH2 0x3E3 SWAP1 PUSH2 0x1220 JUMP JUMPDEST PUSH1 0x40 MLOAD DUP1 SWAP2 SUB SWAP1 REVERT JUMPDEST DUP1 PUSH1 0x6 PUSH0 CALLER PUSH20 0xFFFFFFFFFFFFFFFFFFFFFFFFFFFFFFFFFFFFFFFF AND PUSH20 0xFFFFFFFFFFFFFFFFFFFFFFFFFFFFFFFFFFFFFFFF AND DUP2 MSTORE PUSH1 0x20 ADD SWAP1 DUP2 MSTORE PUSH1 0x20 ADD PUSH0 KECCAK256 SLOAD LT ISZERO PUSH2 0x46C JUMPI PUSH1 0x40 MLOAD PUSH32 0x8C379A000000000000000000000000000000000000000000000000000000000 DUP2 MSTORE PUSH1 0x4 ADD PUSH2 0x463 SWAP1 PUSH2 0x1288 JUMP JUMPDEST PUSH1 0x40 MLOAD DUP1 SWAP2 SUB SWAP1 REVERT JUMPDEST PUSH2 0x474 PUSH2 0x609 JUMP JUMPDEST DUP1 PUSH1 0x6 PUSH0 CALLER PUSH20 0xFFFFFFFFFFFFFFFFFFFFFFFFFFFFFFFFFFFFFFFF AND PUSH20 0xFFFFFFFFFFFFFFFFFFFFFFFFFFFFFFFFFFFFFFFF AND DUP2 MSTORE PUSH1 0x20 ADD SWAP1 DUP2 MSTORE PUSH1 0x20 ADD PUSH0 KECCAK256 PUSH0 DUP3 DUP3 SLOAD PUSH2 0x4C0 SWAP2 SWAP1 PUSH2 0x12A6 JUMP JUMPDEST SWAP3 POP POP DUP2 SWAP1 SSTORE POP DUP1 PUSH1 0x2 PUSH0 DUP3 DUP3 SLOAD PUSH2 0x4D8 SWAP2 SWAP1 PUSH2 0x12A6 JUMP JUMPDEST SWAP3 POP POP DUP2 SWAP1 SSTORE POP PUSH0 DUP1 SLOAD SWAP1 PUSH2 0x100 EXP SWAP1 DIV PUSH20 0xFFFFFFFFFFFFFFFFFFFFFFFFFFFFFFFFFFFFFFFF AND PUSH20 0xFFFFFFFFFFFFFFFFFFFFFFFFFFFFFFFFFFFFFFFF AND PUSH4 0xA9059CBB CALLER DUP4 PUSH1 0x40 MLOAD DUP4 PUSH4 0xFFFFFFFF AND PUSH1 0xE0 SHL DUP2 MSTORE PUSH1 0x4 ADD PUSH2 0x539 SWAP3 SWAP2 SWAP1 PUSH2 0x12E8 JUMP JUMPDEST PUSH1 0x20 PUSH1 0x40 MLOAD DUP1 DUP4 SUB DUP2 PUSH0 DUP8 GAS CALL ISZERO DUP1 ISZERO PUSH2 0x555 JUMPI RETURNDATASIZE PUSH0 DUP1 RETURNDATACOPY RETURNDATASIZE PUSH0 REVERT JUMPDEST POP POP POP POP PUSH1 0x40 MLOAD RETURNDATASIZE PUSH1 0x1F NOT PUSH1 0x1F DUP3 ADD AND DUP3 ADD DUP1 PUSH1 0x40 MSTORE POP DUP2 ADD SWAP1 PUSH2 0x579 SWAP2 SWAP1 PUSH2 0x1344 JUMP JUMPDEST PUSH2 0x5B8 JUMPI PUSH1 0x40 MLOAD PUSH32 0x8C379A000000000000000000000000000000000000000000000000000000000 DUP2 MSTORE PUSH1 0x4 ADD PUSH2 0x5AF SWAP1 PUSH2 0x13B9 JUMP JUMPDEST PUSH1 0x40 MLOAD DUP1 SWAP2 SUB SWAP1 REVERT JUMPDEST CALLER PUSH20 0xFFFFFFFFFFFFFFFFFFFFFFFFFFFFFFFFFFFFFFFF AND PUSH32 0xF5BB82176FEB1B5E747E28471AA92156A04D9F3AB9F45F28E2D704232B93F75 DUP3 PUSH1 0x40 MLOAD PUSH2 0x5FE SWAP2 SWAP1 PUSH2 0xF82 JUMP JUMPDEST PUSH1 0x40 MLOAD DUP1 SWAP2 SUB SWAP1 LOG2 POP JUMP JUMPDEST PUSH0 PUSH1 0x2 SLOAD SUB ISZERO PUSH2 0x7F9 JUMPI PUSH0 PUSH1 0x6 PUSH0 CALLER PUSH20 0xFFFFFFFFFFFFFFFFFFFFFFFFFFFFFFFFFFFFFFFF AND PUSH20 0xFFFFFFFFFFFFFFFFFFFFFFFFFFFFFFFFFFFFFFFF AND DUP2 MSTORE PUSH1 0x20 ADD SWAP1 DUP2 MSTORE PUSH1 0x20 ADD PUSH0 KECCAK256 SLOAD SWAP1 POP PUSH0 DUP2 SUB PUSH2 0x661 JUMPI POP PUSH2 0x7F9 JUMP JUMPDEST PUSH0 PUSH1 0x2 SLOAD DUP3 PUSH1 0x3 SLOAD PUSH2 0x673 SWAP2 SWAP1 PUSH2 0x13D7 JUMP JUMPDEST PUSH2 0x67D SWAP2 SWAP1 PUSH2 0x1445 JUMP JUMPDEST SWAP1 POP PUSH0 DUP2 SUB PUSH2 0x68D JUMPI POP POP PUSH2 0x7F9 JUMP JUMPDEST TIMESTAMP PUSH1 0x7 PUSH0 CALLER PUSH20 0xFFFFFFFFFFFFFFFFFFFFFFFFFFFFFFFFFFFFFFFF AND PUSH20 0xFFFFFFFFFFFFFFFFFFFFFFFFFFFFFFFFFFFFFFFF AND DUP2 MSTORE PUSH1 0x20 ADD SWAP1 DUP2 MSTORE PUSH1 0x20 ADD PUSH0 KECCAK256 DUP2 SWAP1 SSTORE POP PUSH0 DUP1 SLOAD SWAP1 PUSH2 0x100 EXP SWAP1 DIV PUSH20 0xFFFFFFFFFFFFFFFFFFFFFFFFFFFFFFFFFFFFFFFF AND PUSH20 0xFFFFFFFFFFFFFFFFFFFFFFFFFFFFFFFFFFFFFFFF AND PUSH4 0xA9059CBB CALLER DUP4 PUSH1 0x40 MLOAD DUP4 PUSH4 0xFFFFFFFF AND PUSH1 0xE0 SHL DUP2 MSTORE PUSH1 0x4 ADD PUSH2 0x729 SWAP3 SWAP2 SWAP1 PUSH2 0x12E8 JUMP JUMPDEST PUSH1 0x20 PUSH1 0x40 MLOAD DUP1 DUP4 SUB DUP2 PUSH0 DUP8 GAS CALL ISZERO DUP1 ISZERO PUSH2 0x745 JUMPI RETURNDATASIZE PUSH0 DUP1 RETURNDATACOPY RETURNDATASIZE PUSH0 REVERT JUMPDEST POP POP POP POP PUSH1 0x40 MLOAD RETURNDATASIZE PUSH1 0x1F NOT PUSH1 0x1F DUP3 ADD AND DUP3 ADD DUP1 PUSH1 0x40 MSTORE POP DUP2 ADD SWAP1 PUSH2 0x769 SWAP2 SWAP1 PUSH2 0x1344 JUMP JUMPDEST PUSH2 0x7A8 JUMPI PUSH1 0x40 MLOAD PUSH32 0x8C379A000000000000000000000000000000000000000000000000000000000 DUP2 MSTORE PUSH1 0x4 ADD PUSH2 0x79F SWAP1 PUSH2 0x13B9 JUMP JUMPDEST PUSH1 0x40 MLOAD DUP1 SWAP2 SUB SWAP1 REVERT JUMPDEST CALLER PUSH20 0xFFFFFFFFFFFFFFFFFFFFFFFFFFFFFFFFFFFFFFFF AND PUSH32 0xFC30CDDEA38E2BF4D6EA7D3F9ED3B6AD7F176419F4963BD81318067A4AEE73FE DUP3 PUSH1 0x40 MLOAD PUSH2 0x7EE SWAP2 SWAP1 PUSH2 0xF82 JUMP JUMPDEST PUSH1 0x40 MLOAD DUP1 SWAP2 SUB SWAP1 LOG2 POP POP JUMPDEST JUMP JUMPDEST PUSH1 0x6 PUSH1 0x20 MSTORE DUP1 PUSH0 MSTORE PUSH1 0x40 PUSH0 KECCAK256 PUSH0 SWAP2 POP SWAP1 POP SLOAD DUP2 JUMP JUMPDEST PUSH1 0x5 SLOAD PUSH1 0x4 SLOAD PUSH2 0x820 SWAP2 SWAP1 PUSH2 0xF40 JUMP JUMPDEST TIMESTAMP LT ISZERO PUSH2 0x862 JUMPI PUSH1 0x40 MLOAD PUSH32 0x8C379A000000000000000000000000000000000000000000000000000000000 DUP2 MSTORE PUSH1 0x4 ADD PUSH2 0x859 SWAP1 PUSH2 0x14E5 JUMP JUMPDEST PUSH1 0x40 MLOAD DUP1 SWAP2 SUB SWAP1 REVERT JUMPDEST TIMESTAMP PUSH1 0x4 DUP2 SWAP1 SSTORE POP PUSH0 PUSH1 0x2 SLOAD EQ DUP1 PUSH2 0x87A JUMPI POP PUSH0 PUSH1 0x3 SLOAD EQ JUMPDEST PUSH2 0x8C4 JUMPI PUSH0 PUSH1 0x3 SLOAD SWAP1 POP PUSH0 PUSH1 0x3 DUP2 SWAP1 SSTORE POP PUSH32 0x6D1C76D614228B523BAA4DCD9539E2C713B54FF4AB3FF2D1627E7F6CD32BE442 DUP2 PUSH1 0x40 MLOAD PUSH2 0x8BA SWAP2 SWAP1 PUSH2 0xF82 JUMP JUMPDEST PUSH1 0x40 MLOAD DUP1 SWAP2 SUB SWAP1 LOG1 POP JUMPDEST JUMP JUMPDEST PUSH1 0x5 SLOAD DUP2 JUMP JUMPDEST PUSH1 0x4 SLOAD DUP2 JUMP JUMPDEST PUSH1 0x1 PUSH0 SWAP1 SLOAD SWAP1 PUSH2 0x100 EXP SWAP1 DIV PUSH20 0xFFFFFFFFFFFFFFFFFFFFFFFFFFFFFFFFFFFFFFFF AND DUP2 JUMP JUMPDEST PUSH1 0x2 SLOAD DUP2 JUMP JUMPDEST PUSH1 0x1 PUSH0 SWAP1 SLOAD SWAP1 PUSH2 0x100 EXP SWAP1 DIV PUSH20 0xFFFFFFFFFFFFFFFFFFFFFFFFFFFFFFFFFFFFFFFF AND PUSH20 0xFFFFFFFFFFFFFFFFFFFFFFFFFFFFFFFFFFFFFFFF AND CALLER PUSH20 0xFFFFFFFFFFFFFFFFFFFFFFFFFFFFFFFFFFFFFFFF AND EQ DUP1 PUSH2 0xA10 JUMPI POP PUSH1 0x1 PUSH0 SWAP1 SLOAD SWAP1 PUSH2 0x100 EXP SWAP1 DIV PUSH20 0xFFFFFFFFFFFFFFFFFFFFFFFFFFFFFFFFFFFFFFFF AND PUSH20 0xFFFFFFFFFFFFFFFFFFFFFFFFFFFFFFFFFFFFFFFF AND PUSH4 0x8DA5CB5B PUSH1 0x40 MLOAD DUP2 PUSH4 0xFFFFFFFF AND PUSH1 0xE0 SHL DUP2 MSTORE PUSH1 0x4 ADD PUSH1 0x20 PUSH1 0x40 MLOAD DUP1 DUP4 SUB DUP2 DUP7 GAS STATICCALL ISZERO DUP1 ISZERO PUSH2 0x9BD JUMPI RETURNDATASIZE PUSH0 DUP1 RETURNDATACOPY RETURNDATASIZE PUSH0 REVERT JUMPDEST POP POP POP POP PUSH1 0x40 MLOAD RETURNDATASIZE PUSH1 0x1F NOT PUSH1 0x1F DUP3 ADD AND DUP3 ADD DUP1 PUSH1 0x40 MSTORE POP DUP2 ADD SWAP1 PUSH2 0x9E1 SWAP2 SWAP1 PUSH2 0x1517 JUMP JUMPDEST PUSH20 0xFFFFFFFFFFFFFFFFFFFFFFFFFFFFFFFFFFFFFFFF AND CALLER PUSH20 0xFFFFFFFFFFFFFFFFFFFFFFFFFFFFFFFFFFFFFFFF AND EQ JUMPDEST PUSH2 0xA4F JUMPI PUSH1 0x40 MLOAD PUSH32 0x8C379A000000000000000000000000000000000000000000000000000000000 DUP2 MSTORE PUSH1 0x4 ADD PUSH2 0xA46 SWAP1 PUSH2 0x158C JUMP JUMPDEST PUSH1 0x40 MLOAD DUP1 SWAP2 SUB SWAP1 REVERT JUMPDEST CALLVALUE PUSH1 0x3 PUSH0 DUP3 DUP3 SLOAD PUSH2 0xA60 SWAP2 SWAP1 PUSH2 0xF40 JUMP JUMPDEST SWAP3 POP POP DUP2 SWAP1 SSTORE POP PUSH32 0x426FDE376AD06CB3D6079FD86F5696A4DE5382BCCF98C90ED6B935014588FD78 CALLVALUE PUSH1 0x40 MLOAD PUSH2 0xA96 SWAP2 SWAP1 PUSH2 0xF82 JUMP JUMPDEST PUSH1 0x40 MLOAD DUP1 SWAP2 SUB SWAP1 LOG1 JUMP JUMPDEST PUSH0 DUP2 GT PUSH2 0xAE2 JUMPI PUSH1 0x40 MLOAD PUSH32 0x8C379A000000000000000000000000000000000000000000000000000000000 DUP2 MSTORE PUSH1 0x4 ADD PUSH2 0xAD9 SWAP1 PUSH2 0x1220 JUMP JUMPDEST PUSH1 0x40 MLOAD DUP1 SWAP2 SUB SWAP1 REVERT JUMPDEST PUSH2 0xAEA PUSH2 0x609 JUMP JUMPDEST PUSH0 DUP1 SLOAD SWAP1 PUSH2 0x100 EXP SWAP1 DIV PUSH20 0xFFFFFFFFFFFFFFFFFFFFFFFFFFFFFFFFFFFFFFFF AND PUSH20 0xFFFFFFFFFFFFFFFFFFFFFFFFFFFFFFFFFFFFFFFF AND PUSH4 0x23B872DD CALLER ADDRESS DUP5 PUSH1 0x40 MLOAD DUP5 PUSH4 0xFFFFFFFF AND PUSH1 0xE0 SHL DUP2 MSTORE PUSH1 0x4 ADD PUSH2 0xB46 SWAP4 SWAP3 SWAP2 SWAP1 PUSH2 0x15AA JUMP JUMPDEST PUSH1 0x20 PUSH1 0x40 MLOAD DUP1 DUP4 SUB DUP2 PUSH0 DUP8 GAS CALL ISZERO DUP1 ISZERO PUSH2 0xB62 JUMPI RETURNDATASIZE PUSH0 DUP1 RETURNDATACOPY RETURNDATASIZE PUSH0 REVERT JUMPDEST POP POP POP POP PUSH1 0x40 MLOAD RETURNDATASIZE PUSH1 0x1F NOT PUSH1 0x1F DUP3 ADD AND DUP3 ADD DUP1 PUSH1 0x40 MSTORE POP DUP2 ADD SWAP1 PUSH2 0xB86 SWAP2 SWAP1 PUSH2 0x1344 JUMP JUMPDEST PUSH2 0xBC5 JUMPI PUSH1 0x40 MLOAD PUSH32 0x8C379A000000000000000000000000000000000000000000000000000000000 DUP2 MSTORE PUSH1 0x4 ADD PUSH2 0xBBC SWAP1 PUSH2 0x13B9 JUMP JUMPDEST PUSH1 0x40 MLOAD DUP1 SWAP2 SUB SWAP1 REVERT JUMPDEST DUP1 PUSH1 0x6 PUSH0 CALLER PUSH20 0xFFFFFFFFFFFFFFFFFFFFFFFFFFFFFFFFFFFFFFFF AND PUSH20 0xFFFFFFFFFFFFFFFFFFFFFFFFFFFFFFFFFFFFFFFF AND DUP2 MSTORE PUSH1 0x20 ADD SWAP1 DUP2 MSTORE PUSH1 0x20 ADD PUSH0 KECCAK256 PUSH0 DUP3 DUP3 SLOAD PUSH2 0xC11 SWAP2 SWAP1 PUSH2 0xF40 JUMP JUMPDEST SWAP3 POP POP DUP2 SWAP1 SSTORE POP DUP1 PUSH1 0x2 PUSH0 DUP3 DUP3 SLOAD PUSH2 0xC29 SWAP2 SWAP1 PUSH2 0xF40 JUMP JUMPDEST SWAP3 POP POP DUP2 SWAP1 SSTORE POP CALLER PUSH20 0xFFFFFFFFFFFFFFFFFFFFFFFFFFFFFFFFFFFFFFFF AND PUSH32 0x9E71BC8EEA02A63969F509818F2DAFB9254532904319F9DBDA79B67BD34A5F3D DUP3 PUSH1 0x40 MLOAD PUSH2 0xC76 SWAP2 SWAP1 PUSH2 0xF82 JUMP JUMPDEST PUSH1 0x40 MLOAD DUP1 SWAP2 SUB SWAP1 LOG2 POP JUMP JUMPDEST PUSH0 DUP1 PUSH1 0x6 PUSH0 DUP5 PUSH20 0xFFFFFFFFFFFFFFFFFFFFFFFFFFFFFFFFFFFFFFFF AND PUSH20 0xFFFFFFFFFFFFFFFFFFFFFFFFFFFFFFFFFFFFFFFF AND DUP2 MSTORE PUSH1 0x20 ADD SWAP1 DUP2 MSTORE PUSH1 0x20 ADD PUSH0 KECCAK256 SLOAD SWAP2 POP PUSH0 PUSH1 0x2 SLOAD GT PUSH2 0xCD2 JUMPI PUSH0 PUSH2 0xCEE JUMP JUMPDEST PUSH1 0x2 SLOAD PUSH2 0x2710 DUP4 PUSH2 0xCE3 SWAP2 SWAP1 PUSH2 0x13D7 JUMP JUMPDEST PUSH2 0xCED SWAP2 SWAP1 PUSH2 0x1445 JUMP JUMPDEST JUMPDEST SWAP1 POP SWAP2 POP SWAP2 JUMP JUMPDEST PUSH1 0x7 PUSH1 0x20 MSTORE DUP1 PUSH0 MSTORE PUSH1 0x40 PUSH0 KECCAK256 PUSH0 SWAP2 POP SWAP1 POP SLOAD DUP2 JUMP JUMPDEST PUSH1 0x1 PUSH0 SWAP1 SLOAD SWAP1 PUSH2 0x100 EXP SWAP1 DIV PUSH20 0xFFFFFFFFFFFFFFFFFFFFFFFFFFFFFFFFFFFFFFFF AND PUSH20 0xFFFFFFFFFFFFFFFFFFFFFFFFFFFFFFFFFFFFFFFF AND CALLER PUSH20 0xFFFFFFFFFFFFFFFFFFFFFFFFFFFFFFFFFFFFFFFF AND EQ DUP1 PUSH2 0xE1D JUMPI POP PUSH1 0x1 PUSH0 SWAP1 SLOAD SWAP1 PUSH2 0x100 EXP SWAP1 DIV PUSH20 0xFFFFFFFFFFFFFFFFFFFFFFFFFFFFFFFFFFFFFFFF AND PUSH20 0xFFFFFFFFFFFFFFFFFFFFFFFFFFFFFFFFFFFFFFFF AND PUSH4 0x8DA5CB5B PUSH1 0x40 MLOAD DUP2 PUSH4 0xFFFFFFFF AND PUSH1 0xE0 SHL DUP2 MSTORE PUSH1 0x4 ADD PUSH1 0x20 PUSH1 0x40 MLOAD DUP1 DUP4 SUB DUP2 DUP7 GAS STATICCALL ISZERO DUP1 ISZERO PUSH2 0xDCA JUMPI RETURNDATASIZE PUSH0 DUP1 RETURNDATACOPY RETURNDATASIZE PUSH0 REVERT JUMPDEST POP POP POP POP PUSH1 0x40 MLOAD RETURNDATASIZE PUSH1 0x1F NOT PUSH1 0x1F DUP3 ADD AND DUP3 ADD DUP1 PUSH1 0x40 MSTORE POP DUP2 ADD SWAP1 PUSH2 0xDEE SWAP2 SWAP1 PUSH2 0x1517 JUMP JUMPDEST PUSH20 0xFFFFFFFFFFFFFFFFFFFFFFFFFFFFFFFFFFFFFFFF AND CALLER PUSH20 0xFFFFFFFFFFFFFFFFFFFFFFFFFFFFFFFFFFFFFFFF AND EQ JUMPDEST PUSH2 0xE5C JUMPI PUSH1 0x40 MLOAD PUSH32 0x8C379A000000000000000000000000000000000000000000000000000000000 DUP2 MSTORE PUSH1 0x4 ADD PUSH2 0xE53 SWAP1 PUSH2 0x158C JUMP JUMPDEST PUSH1 0x40 MLOAD DUP1 SWAP2 SUB SWAP1 REVERT JUMPDEST SELFBALANCE DUP2 GT ISZERO PUSH2 0xE9F JUMPI PUSH1 0x40 MLOAD PUSH32 0x8C379A000000000000000000000000000000000000000000000000000000000 DUP2 MSTORE PUSH1 0x4 ADD PUSH2 0xE96 SWAP1 PUSH2 0x1629 JUMP JUMPDEST PUSH1 0x40 MLOAD DUP1 SWAP2 SUB SWAP1 REVERT JUMPDEST DUP2 PUSH20 0xFFFFFFFFFFFFFFFFFFFFFFFFFFFFFFFFFFFFFFFF AND PUSH2 0x8FC DUP3 SWAP1 DUP2 ISZERO MUL SWAP1 PUSH1 0x40 MLOAD PUSH0 PUSH1 0x40 MLOAD DUP1 DUP4 SUB DUP2 DUP6 DUP9 DUP9 CALL SWAP4 POP POP POP POP ISZERO DUP1 ISZERO PUSH2 0xEE2 JUMPI RETURNDATASIZE PUSH0 DUP1 RETURNDATACOPY RETURNDATASIZE PUSH0 REVERT JUMPDEST POP POP POP JUMP JUMPDEST PUSH0 DUP1 SLOAD SWAP1 PUSH2 0x100 EXP SWAP1 DIV PUSH20 0xFFFFFFFFFFFFFFFFFFFFFFFFFFFFFFFFFFFFFFFF AND DUP2 JUMP JUMPDEST PUSH0 DUP2 SWAP1 POP SWAP2 SWAP1 POP JUMP JUMPDEST PUSH32 0x4E487B7100000000000000000000000000000000000000000000000000000000 PUSH0 MSTORE PUSH1 0x11 PUSH1 0x4 MSTORE PUSH1 0x24 PUSH0 REVERT JUMPDEST PUSH0 PUSH2 0xF4A DUP3 PUSH2 0xF0A JUMP JUMPDEST SWAP2 POP PUSH2 0xF55 DUP4 PUSH2 0xF0A JUMP JUMPDEST SWAP3 POP DUP3 DUP3 ADD SWAP1 POP DUP1 DUP3 GT ISZERO PUSH2 0xF6D JUMPI PUSH2 0xF6C PUSH2 0xF13 JUMP JUMPDEST JUMPDEST SWAP3 SWAP2 POP POP JUMP JUMPDEST PUSH2 0xF7C DUP2 PUSH2 0xF0A JUMP JUMPDEST DUP3 MSTORE POP POP JUMP JUMPDEST PUSH0 PUSH1 0x20 DUP3 ADD SWAP1 POP PUSH2 0xF95 PUSH0 DUP4 ADD DUP5 PUSH2 0xF73 JUMP JUMPDEST SWAP3 SWAP2 POP POP JUMP JUMPDEST PUSH0 DUP1 REVERT JUMPDEST PUSH2 0xFA8 DUP2 PUSH2 0xF0A JUMP JUMPDEST DUP2 EQ PUSH2 0xFB2 JUMPI PUSH0 DUP1 REVERT JUMPDEST POP JUMP JUMPDEST PUSH0 DUP2 CALLDATALOAD SWAP1 POP PUSH2 0xFC3 DUP2 PUSH2 0xF9F JUMP JUMPDEST SWAP3 SWAP2 POP POP JUMP JUMPDEST PUSH0 PUSH1 0x20 DUP3 DUP5 SUB SLT ISZERO PUSH2 0xFDE JUMPI PUSH2 0xFDD PUSH2 0xF9B JUMP JUMPDEST JUMPDEST PUSH0 PUSH2 0xFEB DUP5 DUP3 DUP6 ADD PUSH2 0xFB5 JUMP JUMPDEST SWAP2 POP POP SWAP3 SWAP2 POP POP JUMP JUMPDEST PUSH0 PUSH20 0xFFFFFFFFFFFFFFFFFFFFFFFFFFFFFFFFFFFFFFFF DUP3 AND SWAP1 POP SWAP2 SWAP1 POP JUMP JUMPDEST PUSH0 PUSH2 0x101D DUP3 PUSH2 0xFF4 JUMP JUMPDEST SWAP1 POP SWAP2 SWAP1 POP JUMP JUMPDEST PUSH2 0x102D DUP2 PUSH2 0x1013 JUMP JUMPDEST DUP2 EQ PUSH2 0x1037 JUMPI PUSH0 DUP1 REVERT JUMPDEST POP JUMP JUMPDEST PUSH0 DUP2 CALLDATALOAD SWAP1 POP PUSH2 0x1048 DUP2 PUSH2 0x1024 JUMP JUMPDEST SWAP3 SWAP2 POP POP JUMP JUMPDEST PUSH0 PUSH1 0x20 DUP3 DUP5 SUB SLT ISZERO PUSH2 0x1063 JUMPI PUSH2 0x1062 PUSH2 0xF9B JUMP JUMPDEST JUMPDEST PUSH0 PUSH2 0x1070 DUP5 DUP3 DUP6 ADD PUSH2 0x103A JUMP JUMPDEST SWAP2 POP POP SWAP3 SWAP2 POP POP JUMP JUMPDEST PUSH0 DUP2 SWAP1 POP SWAP2 SWAP1 POP JUMP JUMPDEST PUSH0 PUSH2 0x109C PUSH2 0x1097 PUSH2 0x1092 DUP5 PUSH2 0xFF4 JUMP JUMPDEST PUSH2 0x1079 JUMP JUMPDEST PUSH2 0xFF4 JUMP JUMPDEST SWAP1 POP SWAP2 SWAP1 POP JUMP JUMPDEST PUSH0 PUSH2 0x10AD DUP3 PUSH2 0x1082 JUMP JUMPDEST SWAP1 POP SWAP2 SWAP1 POP JUMP JUMPDEST PUSH0 PUSH2 0x10BE DUP3 PUSH2 0x10A3 JUMP JUMPDEST SWAP1 POP SWAP2 SWAP1 POP JUMP JUMPDEST PUSH2 0x10CE DUP2 PUSH2 0x10B4 JUMP JUMPDEST DUP3 MSTORE POP POP JUMP JUMPDEST PUSH0 PUSH1 0x20 DUP3 ADD SWAP1 POP PUSH2 0x10E7 PUSH0 DUP4 ADD DUP5 PUSH2 0x10C5 JUMP JUMPDEST SWAP3 SWAP2 POP POP JUMP JUMPDEST PUSH0 PUSH1 0x40 DUP3 ADD SWAP1 POP PUSH2 0x1100 PUSH0 DUP4 ADD DUP6 PUSH2 0xF73 JUMP JUMPDEST PUSH2 0x110D PUSH1 0x20 DUP4 ADD DUP5 PUSH2 0xF73 JUMP JUMPDEST SWAP4 SWAP3 POP POP POP JUMP JUMPDEST PUSH0 PUSH2 0x111E DUP3 PUSH2 0xFF4 JUMP JUMPDEST SWAP1 POP SWAP2 SWAP1 POP JUMP JUMPDEST PUSH2 0x112E DUP2 PUSH2 0x1114 JUMP JUMPDEST DUP2 EQ PUSH2 0x1138 JUMPI PUSH0 DUP1 REVERT JUMPDEST POP JUMP JUMPDEST PUSH0 DUP2 CALLDATALOAD SWAP1 POP PUSH2 0x1149 DUP2 PUSH2 0x1125 JUMP JUMPDEST SWAP3 SWAP2 POP POP JUMP JUMPDEST PUSH0 DUP1 PUSH1 0x40 DUP4 DUP6 SUB SLT ISZERO PUSH2 0x1165 JUMPI PUSH2 0x1164 PUSH2 0xF9B JUMP JUMPDEST JUMPDEST PUSH0 PUSH2 0x1172 DUP6 DUP3 DUP7 ADD PUSH2 0x113B JUMP JUMPDEST SWAP3 POP POP PUSH1 0x20 PUSH2 0x1183 DUP6 DUP3 DUP7 ADD PUSH2 0xFB5 JUMP JUMPDEST SWAP2 POP POP SWAP3 POP SWAP3 SWAP1 POP JUMP JUMPDEST PUSH0 PUSH2 0x1197 DUP3 PUSH2 0x10A3 JUMP JUMPDEST SWAP1 POP SWAP2 SWAP1 POP JUMP JUMPDEST PUSH2 0x11A7 DUP2 PUSH2 0x118D JUMP JUMPDEST DUP3 MSTORE POP POP JUMP JUMPDEST PUSH0 PUSH1 0x20 DUP3 ADD SWAP1 POP PUSH2 0x11C0 PUSH0 DUP4 ADD DUP5 PUSH2 0x119E JUMP JUMPDEST SWAP3 SWAP2 POP POP JUMP JUMPDEST PUSH0 DUP3 DUP3 MSTORE PUSH1 0x20 DUP3 ADD SWAP1 POP SWAP3 SWAP2 POP POP JUMP JUMPDEST PUSH32 0x416D6F756E74206D7573742062652067726561746572207468616E207A65726F PUSH0 DUP3 ADD MSTORE POP JUMP JUMPDEST PUSH0 PUSH2 0x120A PUSH1 0x20 DUP4 PUSH2 0x11C6 JUMP JUMPDEST SWAP2 POP PUSH2 0x1215 DUP3 PUSH2 0x11D6 JUMP JUMPDEST PUSH1 0x20 DUP3 ADD SWAP1 POP SWAP2 SWAP1 POP JUMP JUMPDEST PUSH0 PUSH1 0x20 DUP3 ADD SWAP1 POP DUP2 DUP2 SUB PUSH0 DUP4 ADD MSTORE PUSH2 0x1237 DUP2 PUSH2 0x11FE JUMP JUMPDEST SWAP1 POP SWAP2 SWAP1 POP JUMP JUMPDEST PUSH32 0x496E73756666696369656E74207374616B656420616D6F756E74000000000000 PUSH0 DUP3 ADD MSTORE POP JUMP JUMPDEST PUSH0 PUSH2 0x1272 PUSH1 0x1A DUP4 PUSH2 0x11C6 JUMP JUMPDEST SWAP2 POP PUSH2 0x127D DUP3 PUSH2 0x123E JUMP JUMPDEST PUSH1 0x20 DUP3 ADD SWAP1 POP SWAP2 SWAP1 POP JUMP JUMPDEST PUSH0 PUSH1 0x20 DUP3 ADD SWAP1 POP DUP2 DUP2 SUB PUSH0 DUP4 ADD MSTORE PUSH2 0x129F DUP2 PUSH2 0x1266 JUMP JUMPDEST SWAP1 POP SWAP2 SWAP1 POP JUMP JUMPDEST PUSH0 PUSH2 0x12B0 DUP3 PUSH2 0xF0A JUMP JUMPDEST SWAP2 POP PUSH2 0x12BB DUP4 PUSH2 0xF0A JUMP JUMPDEST SWAP3 POP DUP3 DUP3 SUB SWAP1 POP DUP2 DUP2 GT ISZERO PUSH2 0x12D3 JUMPI PUSH2 0x12D2 PUSH2 0xF13 JUMP JUMPDEST JUMPDEST SWAP3 SWAP2 POP POP JUMP JUMPDEST PUSH2 0x12E2 DUP2 PUSH2 0x1013 JUMP JUMPDEST DUP3 MSTORE POP POP JUMP JUMPDEST PUSH0 PUSH1 0x40 DUP3 ADD SWAP1 POP PUSH2 0x12FB PUSH0 DUP4 ADD DUP6 PUSH2 0x12D9 JUMP JUMPDEST PUSH2 0x1308 PUSH1 0x20 DUP4 ADD DUP5 PUSH2 0xF73 JUMP JUMPDEST SWAP4 SWAP3 POP POP POP JUMP JUMPDEST PUSH0 DUP2 ISZERO ISZERO SWAP1 POP SWAP2 SWAP1 POP JUMP JUMPDEST PUSH2 0x1323 DUP2 PUSH2 0x130F JUMP JUMPDEST DUP2 EQ PUSH2 0x132D JUMPI PUSH0 DUP1 REVERT JUMPDEST POP JUMP JUMPDEST PUSH0 DUP2 MLOAD SWAP1 POP PUSH2 0x133E DUP2 PUSH2 0x131A JUMP JUMPDEST SWAP3 SWAP2 POP POP JUMP JUMPDEST PUSH0 PUSH1 0x20 DUP3 DUP5 SUB SLT ISZERO PUSH2 0x1359 JUMPI PUSH2 0x1358 PUSH2 0xF9B JUMP JUMPDEST JUMPDEST PUSH0 PUSH2 0x1366 DUP5 DUP3 DUP6 ADD PUSH2 0x1330 JUMP JUMPDEST SWAP2 POP POP SWAP3 SWAP2 POP POP JUMP JUMPDEST PUSH32 0x546F6B656E207472616E73666572206661696C65640000000000000000000000 PUSH0 DUP3 ADD MSTORE POP JUMP JUMPDEST PUSH0 PUSH2 0x13A3 PUSH1 0x15 DUP4 PUSH2 0x11C6 JUMP JUMPDEST SWAP2 POP PUSH2 0x13AE DUP3 PUSH2 0x136F JUMP JUMPDEST PUSH1 0x20 DUP3 ADD SWAP1 POP SWAP2 SWAP1 POP JUMP JUMPDEST PUSH0 PUSH1 0x20 DUP3 ADD SWAP1 POP DUP2 DUP2 SUB PUSH0 DUP4 ADD MSTORE PUSH2 0x13D0 DUP2 PUSH2 0x1397 JUMP JUMPDEST SWAP1 POP SWAP2 SWAP1 POP JUMP JUMPDEST PUSH0 PUSH2 0x13E1 DUP3 PUSH2 0xF0A JUMP JUMPDEST SWAP2 POP PUSH2 0x13EC DUP4 PUSH2 0xF0A JUMP JUMPDEST SWAP3 POP DUP3 DUP3 MUL PUSH2 0x13FA DUP2 PUSH2 0xF0A JUMP JUMPDEST SWAP2 POP DUP3 DUP3 DIV DUP5 EQ DUP4 ISZERO OR PUSH2 0x1411 JUMPI PUSH2 0x1410 PUSH2 0xF13 JUMP JUMPDEST JUMPDEST POP SWAP3 SWAP2 POP POP JUMP JUMPDEST PUSH32 0x4E487B7100000000000000000000000000000000000000000000000000000000 PUSH0 MSTORE PUSH1 0x12 PUSH1 0x4 MSTORE PUSH1 0x24 PUSH0 REVERT JUMPDEST PUSH0 PUSH2 0x144F DUP3 PUSH2 0xF0A JUMP JUMPDEST SWAP2 POP PUSH2 0x145A DUP4 PUSH2 0xF0A JUMP JUMPDEST SWAP3 POP DUP3 PUSH2 0x146A JUMPI PUSH2 0x1469 PUSH2 0x1418 JUMP JUMPDEST JUMPDEST DUP3 DUP3 DIV SWAP1 POP SWAP3 SWAP2 POP POP JUMP JUMPDEST PUSH32 0x446973747269627574696F6E20696E74657276616C206E6F7420726561636865 PUSH0 DUP3 ADD MSTORE PUSH32 0x6400000000000000000000000000000000000000000000000000000000000000 PUSH1 0x20 DUP3 ADD MSTORE POP JUMP JUMPDEST PUSH0 PUSH2 0x14CF PUSH1 0x21 DUP4 PUSH2 0x11C6 JUMP JUMPDEST SWAP2 POP PUSH2 0x14DA DUP3 PUSH2 0x1475 JUMP JUMPDEST PUSH1 0x40 DUP3 ADD SWAP1 POP SWAP2 SWAP1 POP JUMP JUMPDEST PUSH0 PUSH1 0x20 DUP3 ADD SWAP1 POP DUP2 DUP2 SUB PUSH0 DUP4 ADD MSTORE PUSH2 0x14FC DUP2 PUSH2 0x14C3 JUMP JUMPDEST SWAP1 POP SWAP2 SWAP1 POP JUMP JUMPDEST PUSH0 DUP2 MLOAD SWAP1 POP PUSH2 0x1511 DUP2 PUSH2 0x1024 JUMP JUMPDEST SWAP3 SWAP2 POP POP JUMP JUMPDEST PUSH0 PUSH1 0x20 DUP3 DUP5 SUB SLT ISZERO PUSH2 0x152C JUMPI PUSH2 0x152B PUSH2 0xF9B JUMP JUMPDEST JUMPDEST PUSH0 PUSH2 0x1539 DUP5 DUP3 DUP6 ADD PUSH2 0x1503 JUMP JUMPDEST SWAP2 POP POP SWAP3 SWAP2 POP POP JUMP JUMPDEST PUSH32 0x4E6F7420617574686F72697A6564000000000000000000000000000000000000 PUSH0 DUP3 ADD MSTORE POP JUMP JUMPDEST PUSH0 PUSH2 0x1576 PUSH1 0xE DUP4 PUSH2 0x11C6 JUMP JUMPDEST SWAP2 POP PUSH2 0x1581 DUP3 PUSH2 0x1542 JUMP JUMPDEST PUSH1 0x20 DUP3 ADD SWAP1 POP SWAP2 SWAP1 POP JUMP JUMPDEST PUSH0 PUSH1 0x20 DUP3 ADD SWAP1 POP DUP2 DUP2 SUB PUSH0 DUP4 ADD MSTORE PUSH2 0x15A3 DUP2 PUSH2 0x156A JUMP JUMPDEST SWAP1 POP SWAP2 SWAP1 POP JUMP JUMPDEST PUSH0 PUSH1 0x60 DUP3 ADD SWAP1 POP PUSH2 0x15BD PUSH0 DUP4 ADD DUP7 PUSH2 0x12D9 JUMP JUMPDEST PUSH2 0x15CA PUSH1 0x20 DUP4 ADD DUP6 PUSH2 0x12D9 JUMP JUMPDEST PUSH2 0x15D7 PUSH1 0x40 DUP4 ADD DUP5 PUSH2 0xF73 JUMP JUMPDEST SWAP5 SWAP4 POP POP POP POP JUMP JUMPDEST PUSH32 0x496E73756666696369656E742062616C616E6365000000000000000000000000 PUSH0 DUP3 ADD MSTORE POP JUMP JUMPDEST PUSH0 PUSH2 0x1613 PUSH1 0x14 DUP4 PUSH2 0x11C6 JUMP JUMPDEST SWAP2 POP PUSH2 0x161E DUP3 PUSH2 0x15DF JUMP JUMPDEST PUSH1 0x20 DUP3 ADD SWAP1 POP SWAP2 SWAP1 POP JUMP JUMPDEST PUSH0 PUSH1 0x20 DUP3 ADD SWAP1 POP DUP2 DUP2 SUB PUSH0 DUP4 ADD MSTORE PUSH2 0x1640 DUP2 PUSH2 0x1607 JUMP JUMPDEST SWAP1 POP SWAP2 SWAP1 POP JUMP INVALID LOG2 PUSH5 0x6970667358 0x22 SLT KECCAK256 0x1F LOG2 CODECOPY SWAP8 0xB5 SHL 0xE7 0xAD LOG0 SWAP7 GASPRICE 0xD5 RETURN SWAP14 MCOPY 0xE0 EXP 0xA7 DUP15 PUSH28 0x3178F807FE8D097C712D9CD764736F6C634300081A00330000000000 "
				},
				"gasEstimates": {
					"creation": {
						"codeDepositCost": "1151400",
						"executionCost": "infinite",
						"totalCost": "infinite"
					},
					"external": {
						"claimRewards()": "infinite",
						"distributeRewards()": "infinite",
						"distributionInterval()": "2492",
						"emergencyRelease(address,uint256)": "infinite",
						"getStakingInfo(address)": "infinite",
						"lastClaimTime(address)": "2846",
						"lastDistributionTime()": "2514",
						"policyContract()": "infinite",
						"premiumsCollected()": "2449",
						"receivePremium()": "infinite",
						"stake(uint256)": "infinite",
						"token()": "infinite",
						"totalStaked()": "2470",
						"unstake(uint256)": "infinite",
						"userStake(address)": "2825"
					}
				},
				"methodIdentifiers": {
					"claimRewards()": "372500ab",
					"distributeRewards()": "6f4a2cd0",
					"distributionInterval()": "71201a0e",
					"emergencyRelease(address,uint256)": "e4c731a4",
					"getStakingInfo(address)": "aa4704f3",
					"lastClaimTime(address)": "b77cf9c6",
					"lastDistributionTime()": "75b17350",
					"policyContract()": "7ff06357",
					"premiumsCollected()": "06a21efc",
					"receivePremium()": "915fc94d",
					"stake(uint256)": "a694fc3a",
					"token()": "fc0c546a",
					"totalStaked()": "817b1cd2",
					"unstake(uint256)": "2e17de78",
					"userStake(address)": "68e5585d"
				}
			},
			"storageLayout": {
				"storage": [
					{
						"astId": 39,
						"contract": "FlightGuard/contracts/LiquidityPool.sol:LiquidityPool",
						"label": "token",
						"offset": 0,
						"slot": "0",
						"type": "t_contract(IFlightGuardToken)29"
					},
					{
						"astId": 42,
						"contract": "FlightGuard/contracts/LiquidityPool.sol:LiquidityPool",
						"label": "policyContract",
						"offset": 0,
						"slot": "1",
						"type": "t_contract(IFlightGuardPolicy)35"
					},
					{
						"astId": 44,
						"contract": "FlightGuard/contracts/LiquidityPool.sol:LiquidityPool",
						"label": "totalStaked",
						"offset": 0,
						"slot": "2",
						"type": "t_uint256"
					},
					{
						"astId": 46,
						"contract": "FlightGuard/contracts/LiquidityPool.sol:LiquidityPool",
						"label": "premiumsCollected",
						"offset": 0,
						"slot": "3",
						"type": "t_uint256"
					},
					{
						"astId": 48,
						"contract": "FlightGuard/contracts/LiquidityPool.sol:LiquidityPool",
						"label": "lastDistributionTime",
						"offset": 0,
						"slot": "4",
						"type": "t_uint256"
					},
					{
						"astId": 51,
						"contract": "FlightGuard/contracts/LiquidityPool.sol:LiquidityPool",
						"label": "distributionInterval",
						"offset": 0,
						"slot": "5",
						"type": "t_uint256"
					},
					{
						"astId": 55,
						"contract": "FlightGuard/contracts/LiquidityPool.sol:LiquidityPool",
						"label": "userStake",
						"offset": 0,
						"slot": "6",
						"type": "t_mapping(t_address,t_uint256)"
					},
					{
						"astId": 59,
						"contract": "FlightGuard/contracts/LiquidityPool.sol:LiquidityPool",
						"label": "lastClaimTime",
						"offset": 0,
						"slot": "7",
						"type": "t_mapping(t_address,t_uint256)"
					}
				],
				"types": {
					"t_address": {
						"encoding": "inplace",
						"label": "address",
						"numberOfBytes": "20"
					},
					"t_contract(IFlightGuardPolicy)35": {
						"encoding": "inplace",
						"label": "contract IFlightGuardPolicy",
						"numberOfBytes": "20"
					},
					"t_contract(IFlightGuardToken)29": {
						"encoding": "inplace",
						"label": "contract IFlightGuardToken",
						"numberOfBytes": "20"
					},
					"t_mapping(t_address,t_uint256)": {
						"encoding": "mapping",
						"key": "t_address",
						"label": "mapping(address => uint256)",
						"numberOfBytes": "32",
						"value": "t_uint256"
					},
					"t_uint256": {
						"encoding": "inplace",
						"label": "uint256",
						"numberOfBytes": "32"
					}
				}
			},
			"userdoc": {
				"kind": "user",
				"methods": {},
				"version": 1
			}
		}
	}
}