{
	"data": {
		"bytecode": {
			"linkReferences": {},
			"object": "60806040526001600455348015610014575f80fd5b5033805f8073ffffffffffffffffffffffffffffffffffffffff168273ffffffffffffffffffffffffffffffffffffffff1603610086576040517f08c379a000000000000000000000000000000000000000000000000000000000815260040161007d9061039f565b60405180910390fd5b8160065f6101000a81548173ffffffffffffffffffffffffffffffffffffffff021916908373ffffffffffffffffffffffffffffffffffffffff1602179055505f73ffffffffffffffffffffffffffffffffffffffff168173ffffffffffffffffffffffffffffffffffffffff161461010957610108816101d660201b60201c565b5b50505061012f73779877a7b0d9e8603169ddbd7836e478b462478961030260201b60201c565b736090149792daaee9d1d568c9f9a6f6b46aa29efd600b5f6101000a81548173ffffffffffffffffffffffffffffffffffffffff021916908373ffffffffffffffffffffffffffffffffffffffff1602179055507f6361393833363663633733313439353762386330313263373266303561656562600c81905550600a670de0b6b3a764000060016101c191906103f3565b6101cb9190610461565b600d819055506104f9565b3373ffffffffffffffffffffffffffffffffffffffff168173ffffffffffffffffffffffffffffffffffffffff1603610244576040517f08c379a000000000000000000000000000000000000000000000000000000000815260040161023b906104db565b60405180910390fd5b8060075f6101000a81548173ffffffffffffffffffffffffffffffffffffffff021916908373ffffffffffffffffffffffffffffffffffffffff1602179055508073ffffffffffffffffffffffffffffffffffffffff1660065f9054906101000a900473ffffffffffffffffffffffffffffffffffffffff1673ffffffffffffffffffffffffffffffffffffffff167fed8889f560326eb138920d842192f0eb3dd22b4f139c87a2c57538e05bae127860405160405180910390a350565b8060025f6101000a81548173ffffffffffffffffffffffffffffffffffffffff021916908373ffffffffffffffffffffffffffffffffffffffff16021790555050565b5f82825260208201905092915050565b7f43616e6e6f7420736574206f776e657220746f207a65726f00000000000000005f82015250565b5f610389601883610345565b915061039482610355565b602082019050919050565b5f6020820190508181035f8301526103b68161037d565b9050919050565b5f819050919050565b7f4e487b71000000000000000000000000000000000000000000000000000000005f52601160045260245ffd5b5f6103fd826103bd565b9150610408836103bd565b9250828202610416816103bd565b9150828204841483151761042d5761042c6103c6565b5b5092915050565b7f4e487b71000000000000000000000000000000000000000000000000000000005f52601260045260245ffd5b5f61046b826103bd565b9150610476836103bd565b92508261048657610485610434565b5b828204905092915050565b7f43616e6e6f74207472616e7366657220746f2073656c660000000000000000005f82015250565b5f6104c5601783610345565b91506104d082610491565b602082019050919050565b5f6020820190508181035f8301526104f2816104b9565b9050919050565b6135d4806105065f395ff3fe608060405260043610610108575f3560e01c8063642ce35511610094578063d3e8948311610063578063d3e8948314610306578063de54d4291461034a578063e086e5ec14610374578063e9ef9d1d1461038a578063f2fde38b146103c657610108565b8063642ce3551461028657806379ba5097146102b05780638da5cb5b146102c65780638dc654a2146102f057610108565b80631f43e4fb116100db5780631f43e4fb146101a4578063201c04f5146101cc5780632220faaa146101f657806334790e441461022057806342dfac721461025c57610108565b806307b31c481461010c578063086d2c87146101345780630b31ee611461015e5780630ffa89721461017a575b5f80fd5b348015610117575f80fd5b50610132600480360381019061012d919061210b565b6103ee565b005b34801561013f575f80fd5b50610148610449565b6040516101559190612176565b60405180910390f35b610178600480360381019061017391906122f5565b61044e565b005b348015610185575f80fd5b5061018e61070e565b60405161019b9190612176565b60405180910390f35b3480156101af575f80fd5b506101ca60048036038101906101c59190612361565b610713565b005b3480156101d7575f80fd5b506101e06108b0565b6040516101ed9190612176565b60405180910390f35b348015610201575f80fd5b5061020a6108b5565b6040516102179190612176565b60405180910390f35b34801561022b575f80fd5b506102466004803603810190610241919061239f565b6108ba565b6040516102539190612481565b60405180910390f35b348015610267575f80fd5b50610270610a51565b60405161027d9190612176565b60405180910390f35b348015610291575f80fd5b5061029a610a56565b6040516102a79190612176565b60405180910390f35b3480156102bb575f80fd5b506102c4610a5b565b005b3480156102d1575f80fd5b506102da610bec565b6040516102e791906124b0565b60405180910390f35b3480156102fb575f80fd5b50610304610c14565b005b348015610311575f80fd5b5061032c600480360381019061032791906124c9565b610d5b565b6040516103419998979695949392919061257d565b60405180910390f35b348015610355575f80fd5b5061035e610e7d565b60405161036b919061260f565b60405180910390f35b34801561037f575f80fd5b50610388610e83565b005b348015610395575f80fd5b506103b060048036038101906103ab91906124c9565b610ed8565b6040516103bd9190612637565b60405180910390f35b3480156103d1575f80fd5b506103ec60048036038101906103e7919061239f565b611178565b005b6103f661118c565b82600b5f6101000a81548173ffffffffffffffffffffffffffffffffffffffff021916908373ffffffffffffffffffffffffffffffffffffffff16021790555081600c8190555080600d81905550505050565b600281565b5f3411610490576040517f08c379a00000000000000000000000000000000000000000000000000000000081526004016104879061269a565b60405180910390fd5b60018160ff16101580156104a8575060038160ff1611155b6104e7576040517f08c379a00000000000000000000000000000000000000000000000000000000081526004016104de90612702565b60405180910390fd5b428211610529576040517f08c379a000000000000000000000000000000000000000000000000000000000815260040161052090612790565b60405180910390fd5b5f610534348361121d565b90505f61054083611272565b90505f600a5f815480929190610555906127db565b9190505590506040518061012001604052803373ffffffffffffffffffffffffffffffffffffffff1681526020018781526020018681526020013481526020018481526020018360ff1681526020015f151581526020016001151581526020018560ff1681525060095f8381526020019081526020015f205f820151815f015f6101000a81548173ffffffffffffffffffffffffffffffffffffffff021916908373ffffffffffffffffffffffffffffffffffffffff16021790555060208201518160010190816106269190612a1c565b5060408201518160020155606082015181600301556080820151816004015560a0820151816005015f6101000a81548160ff021916908360ff16021790555060c08201518160050160016101000a81548160ff02191690831515021790555060e08201518160050160026101000a81548160ff0219169083151502179055506101008201518160050160036101000a81548160ff021916908360ff160217905550905050807f42242dca1b9244398ea83e7a8f17a0b763666b747d5b4534138c8a0eb8a6a67e3388346040516106fe93929190612aeb565b60405180910390a2505050505050565b606481565b8160055f8281526020019081526020015f205f9054906101000a900473ffffffffffffffffffffffffffffffffffffffff1673ffffffffffffffffffffffffffffffffffffffff163373ffffffffffffffffffffffffffffffffffffffff16146107b2576040517f08c379a00000000000000000000000000000000000000000000000000000000081526004016107a990612b97565b60405180910390fd5b60055f8281526020019081526020015f205f6101000a81549073ffffffffffffffffffffffffffffffffffffffff0219169055807f7cc135e0cebb02c3480ae5d74d377283180a2601f8f644edf7987b009316c63a60405160405180910390a25f60085f8581526020019081526020015f205490505f60095f8381526020019081526020015f209050847f929defe9c1d9365db5456a875a719ed5fd79142a86396d5bec9bc6aefb6f4d918560405161086b919061260f565b60405180910390a25f603c856108819190612be2565b9050816005015f9054906101000a900460ff1660ff1681106108a8576108a783826112a5565b5b505050505050565b601981565b603281565b60605f805b600a5481101561094a578373ffffffffffffffffffffffffffffffffffffffff1660095f8381526020019081526020015f205f015f9054906101000a900473ffffffffffffffffffffffffffffffffffffffff1673ffffffffffffffffffffffffffffffffffffffff160361093d578180610939906127db565b9250505b80806001019150506108bf565b505f8167ffffffffffffffff811115610966576109656121a7565b5b6040519080825280602002602001820160405280156109945781602001602082028036833780820191505090505b5090505f805b600a54811015610a45578573ffffffffffffffffffffffffffffffffffffffff1660095f8381526020019081526020015f205f015f9054906101000a900473ffffffffffffffffffffffffffffffffffffffff1673ffffffffffffffffffffffffffffffffffffffff1603610a385780838381518110610a1d57610a1c612c12565b5b6020026020010181815250508180610a34906127db565b9250505b808060010191505061099a565b50819350505050919050565b600381565b600181565b60075f9054906101000a900473ffffffffffffffffffffffffffffffffffffffff1673ffffffffffffffffffffffffffffffffffffffff163373ffffffffffffffffffffffffffffffffffffffff1614610aea576040517f08c379a0000000000000000000000000000000000000000000000000000000008152600401610ae190612c89565b60405180910390fd5b5f60065f9054906101000a900473ffffffffffffffffffffffffffffffffffffffff1690503360065f6101000a81548173ffffffffffffffffffffffffffffffffffffffff021916908373ffffffffffffffffffffffffffffffffffffffff1602179055505f60075f6101000a81548173ffffffffffffffffffffffffffffffffffffffff021916908373ffffffffffffffffffffffffffffffffffffffff1602179055503373ffffffffffffffffffffffffffffffffffffffff168173ffffffffffffffffffffffffffffffffffffffff167f8be0079c531659141344cd1fd0a4f28419497f9722a3daafe3b4186f6b6457e060405160405180910390a350565b5f60065f9054906101000a900473ffffffffffffffffffffffffffffffffffffffff16905090565b610c1c61118c565b5f610c25611576565b90508073ffffffffffffffffffffffffffffffffffffffff1663a9059cbb338373ffffffffffffffffffffffffffffffffffffffff166370a08231306040518263ffffffff1660e01b8152600401610c7d91906124b0565b602060405180830381865afa158015610c98573d5f803e3d5ffd5b505050506040513d601f19601f82011682018060405250810190610cbc9190612cbb565b6040518363ffffffff1660e01b8152600401610cd9929190612ce6565b6020604051808303815f875af1158015610cf5573d5f803e3d5ffd5b505050506040513d601f19601f82011682018060405250810190610d199190612d37565b610d58576040517f08c379a0000000000000000000000000000000000000000000000000000000008152600401610d4f90612dac565b60405180910390fd5b50565b6009602052805f5260405f205f91509050805f015f9054906101000a900473ffffffffffffffffffffffffffffffffffffffff1690806001018054610d9f9061284f565b80601f0160208091040260200160405190810160405280929190818152602001828054610dcb9061284f565b8015610e165780601f10610ded57610100808354040283529160200191610e16565b820191905f5260205f20905b815481529060010190602001808311610df957829003601f168201915b505050505090806002015490806003015490806004015490806005015f9054906101000a900460ff16908060050160019054906101000a900460ff16908060050160029054906101000a900460ff16908060050160039054906101000a900460ff16905089565b600a5481565b610e8b61118c565b610e93610bec565b73ffffffffffffffffffffffffffffffffffffffff166108fc4790811502906040515f60405180830381858888f19350505050158015610ed5573d5f803e3d5ffd5b50565b5f8060095f8481526020019081526020015f2090508060050160029054906101000a900460ff16610f3e576040517f08c379a0000000000000000000000000000000000000000000000000000000008152600401610f3590612e14565b60405180910390fd5b8060050160019054906101000a900460ff1615610f90576040517f08c379a0000000000000000000000000000000000000000000000000000000008152600401610f8790612e7c565b60405180910390fd5b8060020154421015610fd7576040517f08c379a0000000000000000000000000000000000000000000000000000000008152600401610fce90612ee4565b60405180910390fd5b5f610fec600c5430631f43e4fb60e01b61159e565b90506110c26040518060400160405280600c81526020017f666c696768744e756d62657200000000000000000000000000000000000000008152508360010180546110369061284f565b80601f01602080910402602001604051908101604052809291908181526020018280546110629061284f565b80156110ad5780601f10611084576101008083540402835291602001916110ad565b820191905f5260205f20905b81548152906001019060200180831161109057829003601f168201915b5050505050836115cf9092919063ffffffff16565b6111106040518060400160405280600d81526020017f64657061727475726554696d65000000000000000000000000000000000000008152508360020154836116029092919063ffffffff16565b5f61111d82600d54611635565b90508460085f8381526020019081526020015f2081905550807f389ceb2478884c31373e66589e2147abce7100e6e7dec9aec54ad4cf32ebd4df86604051611165919061260f565b60405180910390a2809350505050919050565b61118061118c565b6111898161166a565b50565b60065f9054906101000a900473ffffffffffffffffffffffffffffffffffffffff1673ffffffffffffffffffffffffffffffffffffffff163373ffffffffffffffffffffffffffffffffffffffff161461121b576040517f08c379a000000000000000000000000000000000000000000000000000000000815260040161121290612f4c565b60405180910390fd5b565b5f60018260ff160361123d576002836112369190612f6a565b905061126c565b60028260ff160361125c576003836112559190612f6a565b905061126c565b6004836112699190612f6a565b90505b92915050565b5f60018260ff160361128757600190506112a0565b60028260ff160361129b57600290506112a0565b600390505b919050565b5f60095f8481526020019081526020015f2090508060050160029054906101000a900460ff1661130a576040517f08c379a000000000000000000000000000000000000000000000000000000000815260040161130190612e14565b60405180910390fd5b8060050160019054906101000a900460ff161561135c576040517f08c379a000000000000000000000000000000000000000000000000000000000815260040161135390612e7c565b60405180910390fd5b60018160050160016101000a81548160ff0219169083151502179055505f8160050160026101000a81548160ff0219169083151502179055505f600360ff1683106113c75760648060ff1683600401546113b69190612f6a565b6113c09190612be2565b9050611429565b600260ff1683106113f9576064603260ff1683600401546113e89190612f6a565b6113f29190612be2565b9050611428565b600160ff168310611427576064601960ff16836004015461141a9190612f6a565b6114249190612be2565b90505b5b5b5f811161146b576040517f08c379a000000000000000000000000000000000000000000000000000000000815260040161146290612ff5565b60405180910390fd5b804710156114ae576040517f08c379a00000000000000000000000000000000000000000000000000000000081526004016114a59061305d565b60405180910390fd5b815f015f9054906101000a900473ffffffffffffffffffffffffffffffffffffffff1673ffffffffffffffffffffffffffffffffffffffff166108fc8290811502906040515f60405180830381858888f19350505050158015611513573d5f803e3d5ffd5b50837f786e090d783caced3baddcb29bd555ffb93faf484529ab87feab4ec4c48a81e1835f015f9054906101000a900473ffffffffffffffffffffffffffffffffffffffff1683604051611568929190612ce6565b60405180910390a250505050565b5f60025f9054906101000a900473ffffffffffffffffffffffffffffffffffffffff16905090565b6115a6611fb8565b6115ae611fb8565b6115c585858584611796909392919063ffffffff16565b9150509392505050565b6115e682846080015161184590919063ffffffff16565b6115fd81846080015161184590919063ffffffff16565b505050565b61161982846080015161184590919063ffffffff16565b61163081846080015161186a90919063ffffffff16565b505050565b5f61166260035f9054906101000a900473ffffffffffffffffffffffffffffffffffffffff168484611899565b905092915050565b3373ffffffffffffffffffffffffffffffffffffffff168173ffffffffffffffffffffffffffffffffffffffff16036116d8576040517f08c379a00000000000000000000000000000000000000000000000000000000081526004016116cf906130c5565b60405180910390fd5b8060075f6101000a81548173ffffffffffffffffffffffffffffffffffffffff021916908373ffffffffffffffffffffffffffffffffffffffff1602179055508073ffffffffffffffffffffffffffffffffffffffff1660065f9054906101000a900473ffffffffffffffffffffffffffffffffffffffff1673ffffffffffffffffffffffffffffffffffffffff167fed8889f560326eb138920d842192f0eb3dd22b4f139c87a2c57538e05bae127860405160405180910390a350565b61179e611fb8565b6117ae8560800151610100611960565b5083855f01818152505082856020019073ffffffffffffffffffffffffffffffffffffffff16908173ffffffffffffffffffffffffffffffffffffffff16815250508185604001907bffffffffffffffffffffffffffffffffffffffffffffffffffffffff191690817bffffffffffffffffffffffffffffffffffffffffffffffffffffffff191681525050849050949350505050565b61185282600383516119c8565b6118658183611b4d90919063ffffffff16565b505050565b67ffffffffffffffff811115611889576118848282611b6e565b611895565b611894825f836119c8565b5b5050565b5f8060045490506001816118ad91906130e3565b6004819055505f634042994660e01b5f80875f01513089604001518760018c608001515f01516040516024016118ea9897969594939291906131a2565b604051602081830303815290604052907bffffffffffffffffffffffffffffffffffffffffffffffffffffffff19166020820180517bffffffffffffffffffffffffffffffffffffffffffffffffffffffff8381831617835250505050905061195586838684611bba565b925050509392505050565b611968612021565b5f6020836119769190613225565b146119a2576020826119889190613225565b60206119949190613255565b8261199f91906130e3565b91505b818360200181815250506040518084525f81528281016020016040525082905092915050565b60178167ffffffffffffffff16116119ff576119f98160058460ff16901b60ff161784611d4790919063ffffffff16565b50611b48565b60ff8167ffffffffffffffff1611611a5557611a2e601860058460ff16901b1784611d4790919063ffffffff16565b50611a4f8167ffffffffffffffff16600185611d669092919063ffffffff16565b50611b47565b61ffff8167ffffffffffffffff1611611aac57611a85601960058460ff16901b1784611d4790919063ffffffff16565b50611aa68167ffffffffffffffff16600285611d669092919063ffffffff16565b50611b46565b63ffffffff8167ffffffffffffffff1611611b0557611ade601a60058460ff16901b1784611d4790919063ffffffff16565b50611aff8167ffffffffffffffff16600485611d669092919063ffffffff16565b50611b45565b611b22601b60058460ff16901b1784611d4790919063ffffffff16565b50611b438167ffffffffffffffff16600885611d669092919063ffffffff16565b505b5b5b5b505050565b611b55612021565b611b6683845f015151848551611d87565b905092915050565b611b8c60026005600660ff16901b1783611d4790919063ffffffff16565b50611bb68282604051602001611ba2919061260f565b604051602081830303815290604052611e73565b5050565b5f3084604051602001611bce929190613330565b6040516020818303038152906040528051906020012090508460055f8381526020019081526020015f205f6101000a81548173ffffffffffffffffffffffffffffffffffffffff021916908373ffffffffffffffffffffffffffffffffffffffff160217905550807fb5e6e01e79f91267dc17b4e6314d5d4d03593d2ceee0fbb452b750bd70ea5af960405160405180910390a260025f9054906101000a900473ffffffffffffffffffffffffffffffffffffffff1673ffffffffffffffffffffffffffffffffffffffff16634000aea08685856040518463ffffffff1660e01b8152600401611cc09392919061335b565b6020604051808303815f875af1158015611cdc573d5f803e3d5ffd5b505050506040513d601f19601f82011682018060405250810190611d009190612d37565b611d3f576040517f08c379a0000000000000000000000000000000000000000000000000000000008152600401611d3690613407565b60405180910390fd5b949350505050565b611d4f612021565b611d5e83845f01515184611e98565b905092915050565b611d6e612021565b611d7e84855f0151518585611eee565b90509392505050565b611d8f612021565b8251821115611d9c575f80fd5b84602001518285611dad91906130e3565b1115611de257611de1856002611dd288602001518887611dcd91906130e3565b611f7b565b611ddc9190612f6a565b611f96565b5b5f80865180518760208301019350808887011115611e005787860182525b60208701925050505b60208410611e475780518252602082611e2291906130e3565b9150602081611e3191906130e3565b9050602084611e409190613255565b9350611e09565b5f6001856020036101000a03905080198251168184511681811785525050508692505050949350505050565b611e8082600283516119c8565b611e938183611b4d90919063ffffffff16565b505050565b611ea0612021565b83602001518310611ec657611ec58460028660200151611ec09190612f6a565b611f96565b5b83518051602085830101848153818603611ee1576001820183525b5050508390509392505050565b611ef6612021565b84602001518483611f0791906130e3565b1115611f2f57611f2e8560028685611f1f91906130e3565b611f299190612f6a565b611f96565b5b5f600183610100611f409190613554565b611f4a9190613255565b90508551838682010185831982511617815281518588011115611f6d5784870182525b505085915050949350505050565b5f81831115611f8c57829050611f90565b8190505b92915050565b5f825f01519050611fa78383611960565b50611fb28382611b4d565b50505050565b6040518060a001604052805f80191681526020015f73ffffffffffffffffffffffffffffffffffffffff1681526020015f7bffffffffffffffffffffffffffffffffffffffffffffffffffffffff191681526020015f815260200161201b612021565b81525090565b6040518060400160405280606081526020015f81525090565b5f604051905090565b5f80fd5b5f80fd5b5f73ffffffffffffffffffffffffffffffffffffffff82169050919050565b5f6120748261204b565b9050919050565b6120848161206a565b811461208e575f80fd5b50565b5f8135905061209f8161207b565b92915050565b5f819050919050565b6120b7816120a5565b81146120c1575f80fd5b50565b5f813590506120d2816120ae565b92915050565b5f819050919050565b6120ea816120d8565b81146120f4575f80fd5b50565b5f81359050612105816120e1565b92915050565b5f805f6060848603121561212257612121612043565b5b5f61212f86828701612091565b9350506020612140868287016120c4565b9250506040612151868287016120f7565b9150509250925092565b5f60ff82169050919050565b6121708161215b565b82525050565b5f6020820190506121895f830184612167565b92915050565b5f80fd5b5f80fd5b5f601f19601f8301169050919050565b7f4e487b71000000000000000000000000000000000000000000000000000000005f52604160045260245ffd5b6121dd82612197565b810181811067ffffffffffffffff821117156121fc576121fb6121a7565b5b80604052505050565b5f61220e61203a565b905061221a82826121d4565b919050565b5f67ffffffffffffffff821115612239576122386121a7565b5b61224282612197565b9050602081019050919050565b828183375f83830152505050565b5f61226f61226a8461221f565b612205565b90508281526020810184848401111561228b5761228a612193565b5b61229684828561224f565b509392505050565b5f82601f8301126122b2576122b161218f565b5b81356122c284826020860161225d565b91505092915050565b6122d48161215b565b81146122de575f80fd5b50565b5f813590506122ef816122cb565b92915050565b5f805f6060848603121561230c5761230b612043565b5b5f84013567ffffffffffffffff81111561232957612328612047565b5b6123358682870161229e565b9350506020612346868287016120f7565b9250506040612357868287016122e1565b9150509250925092565b5f806040838503121561237757612376612043565b5b5f612384858286016120c4565b9250506020612395858286016120f7565b9150509250929050565b5f602082840312156123b4576123b3612043565b5b5f6123c184828501612091565b91505092915050565b5f81519050919050565b5f82825260208201905092915050565b5f819050602082019050919050565b6123fc816120d8565b82525050565b5f61240d83836123f3565b60208301905092915050565b5f602082019050919050565b5f61242f826123ca565b61243981856123d4565b9350612444836123e4565b805f5b8381101561247457815161245b8882612402565b975061246683612419565b925050600181019050612447565b5085935050505092915050565b5f6020820190508181035f8301526124998184612425565b905092915050565b6124aa8161206a565b82525050565b5f6020820190506124c35f8301846124a1565b92915050565b5f602082840312156124de576124dd612043565b5b5f6124eb848285016120f7565b91505092915050565b5f81519050919050565b5f82825260208201905092915050565b8281835e5f83830152505050565b5f612526826124f4565b61253081856124fe565b935061254081856020860161250e565b61254981612197565b840191505092915050565b61255d816120d8565b82525050565b5f8115159050919050565b61257781612563565b82525050565b5f610120820190506125915f83018c6124a1565b81810360208301526125a3818b61251c565b90506125b2604083018a612554565b6125bf6060830189612554565b6125cc6080830188612554565b6125d960a0830187612167565b6125e660c083018661256e565b6125f360e083018561256e565b612601610100830184612167565b9a9950505050505050505050565b5f6020820190506126225f830184612554565b92915050565b612631816120a5565b82525050565b5f60208201905061264a5f830184612628565b92915050565b7f5072656d69756d206d7573742062652067726561746572207468616e203000005f82015250565b5f612684601e836124fe565b915061268f82612650565b602082019050919050565b5f6020820190508181035f8301526126b181612678565b9050919050565b7f496e76616c69642074696572206c6576656c00000000000000000000000000005f82015250565b5f6126ec6012836124fe565b91506126f7826126b8565b602082019050919050565b5f6020820190508181035f830152612719816126e0565b9050919050565b7f4465706172747572652074696d65206d75737420626520696e207468652066755f8201527f7475726500000000000000000000000000000000000000000000000000000000602082015250565b5f61277a6024836124fe565b915061278582612720565b604082019050919050565b5f6020820190508181035f8301526127a78161276e565b9050919050565b7f4e487b71000000000000000000000000000000000000000000000000000000005f52601160045260245ffd5b5f6127e5826120d8565b91507fffffffffffffffffffffffffffffffffffffffffffffffffffffffffffffffff8203612817576128166127ae565b5b600182019050919050565b7f4e487b71000000000000000000000000000000000000000000000000000000005f52602260045260245ffd5b5f600282049050600182168061286657607f821691505b60208210810361287957612878612822565b5b50919050565b5f819050815f5260205f209050919050565b5f6020601f8301049050919050565b5f82821b905092915050565b5f600883026128db7fffffffffffffffffffffffffffffffffffffffffffffffffffffffffffffffff826128a0565b6128e586836128a0565b95508019841693508086168417925050509392505050565b5f819050919050565b5f61292061291b612916846120d8565b6128fd565b6120d8565b9050919050565b5f819050919050565b61293983612906565b61294d61294582612927565b8484546128ac565b825550505050565b5f90565b612961612955565b61296c818484612930565b505050565b5b8181101561298f576129845f82612959565b600181019050612972565b5050565b601f8211156129d4576129a58161287f565b6129ae84612891565b810160208510156129bd578190505b6129d16129c985612891565b830182612971565b50505b505050565b5f82821c905092915050565b5f6129f45f19846008026129d9565b1980831691505092915050565b5f612a0c83836129e5565b9150826002028217905092915050565b612a25826124f4565b67ffffffffffffffff811115612a3e57612a3d6121a7565b5b612a48825461284f565b612a53828285612993565b5f60209050601f831160018114612a84575f8415612a72578287015190505b612a7c8582612a01565b865550612ae3565b601f198416612a928661287f565b5f5b82811015612ab957848901518255600182019150602085019450602081019050612a94565b86831015612ad65784890151612ad2601f8916826129e5565b8355505b6001600288020188555050505b505050505050565b5f606082019050612afe5f8301866124a1565b8181036020830152612b10818561251c565b9050612b1f6040830184612554565b949350505050565b7f536f75726365206d75737420626520746865206f7261636c65206f66207468655f8201527f2072657175657374000000000000000000000000000000000000000000000000602082015250565b5f612b816028836124fe565b9150612b8c82612b27565b604082019050919050565b5f6020820190508181035f830152612bae81612b75565b9050919050565b7f4e487b71000000000000000000000000000000000000000000000000000000005f52601260045260245ffd5b5f612bec826120d8565b9150612bf7836120d8565b925082612c0757612c06612bb5565b5b828204905092915050565b7f4e487b71000000000000000000000000000000000000000000000000000000005f52603260045260245ffd5b7f4d7573742062652070726f706f736564206f776e6572000000000000000000005f82015250565b5f612c736016836124fe565b9150612c7e82612c3f565b602082019050919050565b5f6020820190508181035f830152612ca081612c67565b9050919050565b5f81519050612cb5816120e1565b92915050565b5f60208284031215612cd057612ccf612043565b5b5f612cdd84828501612ca7565b91505092915050565b5f604082019050612cf95f8301856124a1565b612d066020830184612554565b9392505050565b612d1681612563565b8114612d20575f80fd5b50565b5f81519050612d3181612d0d565b92915050565b5f60208284031215612d4c57612d4b612043565b5b5f612d5984828501612d23565b91505092915050565b7f556e61626c6520746f207472616e7366657200000000000000000000000000005f82015250565b5f612d966012836124fe565b9150612da182612d62565b602082019050919050565b5f6020820190508181035f830152612dc381612d8a565b9050919050565b7f506f6c696379206973206e6f74206163746976650000000000000000000000005f82015250565b5f612dfe6014836124fe565b9150612e0982612dca565b602082019050919050565b5f6020820190508181035f830152612e2b81612df2565b9050919050565b7f506f6c69637920616c726561647920636c61696d6564000000000000000000005f82015250565b5f612e666016836124fe565b9150612e7182612e32565b602082019050919050565b5f6020820190508181035f830152612e9381612e5a565b9050919050565b7f466c6967687420686173206e6f742064657061727465642079657400000000005f82015250565b5f612ece601b836124fe565b9150612ed982612e9a565b602082019050919050565b5f6020820190508181035f830152612efb81612ec2565b9050919050565b7f4f6e6c792063616c6c61626c65206279206f776e6572000000000000000000005f82015250565b5f612f366016836124fe565b9150612f4182612f02565b602082019050919050565b5f6020820190508181035f830152612f6381612f2a565b9050919050565b5f612f74826120d8565b9150612f7f836120d8565b9250828202612f8d816120d8565b91508282048414831517612fa457612fa36127ae565b5b5092915050565b7f4e6f207061796f757420647565000000000000000000000000000000000000005f82015250565b5f612fdf600d836124fe565b9150612fea82612fab565b602082019050919050565b5f6020820190508181035f83015261300c81612fd3565b9050919050565b7f496e73756666696369656e7420636f6e74726163742062616c616e63650000005f82015250565b5f613047601d836124fe565b915061305282613013565b602082019050919050565b5f6020820190508181035f8301526130748161303b565b9050919050565b7f43616e6e6f74207472616e7366657220746f2073656c660000000000000000005f82015250565b5f6130af6017836124fe565b91506130ba8261307b565b602082019050919050565b5f6020820190508181035f8301526130dc816130a3565b9050919050565b5f6130ed826120d8565b91506130f8836120d8565b92508282019050808211156131105761310f6127ae565b5b92915050565b5f7fffffffff0000000000000000000000000000000000000000000000000000000082169050919050565b61314a81613116565b82525050565b5f81519050919050565b5f82825260208201905092915050565b5f61317482613150565b61317e818561315a565b935061318e81856020860161250e565b61319781612197565b840191505092915050565b5f610100820190506131b65f83018b6124a1565b6131c3602083018a612554565b6131d06040830189612628565b6131dd60608301886124a1565b6131ea6080830187613141565b6131f760a0830186612554565b61320460c0830185612554565b81810360e0830152613216818461316a565b90509998505050505050505050565b5f61322f826120d8565b915061323a836120d8565b92508261324a57613249612bb5565b5b828206905092915050565b5f61325f826120d8565b915061326a836120d8565b9250828203905081811115613282576132816127ae565b5b92915050565b5f6132a261329d6132988461204b565b6128fd565b61204b565b9050919050565b5f6132b382613288565b9050919050565b5f6132c4826132a9565b9050919050565b5f8160601b9050919050565b5f6132e1826132cb565b9050919050565b5f6132f2826132d7565b9050919050565b61330a613305826132ba565b6132e8565b82525050565b5f819050919050565b61332a613325826120d8565b613310565b82525050565b5f61333b82856132f9565b60148201915061334b8284613319565b6020820191508190509392505050565b5f60608201905061336e5f8301866124a1565b61337b6020830185612554565b818103604083015261338d818461316a565b9050949350505050565b7f756e61626c6520746f207472616e73666572416e6443616c6c20746f206f72615f8201527f636c650000000000000000000000000000000000000000000000000000000000602082015250565b5f6133f16023836124fe565b91506133fc82613397565b604082019050919050565b5f6020820190508181035f83015261341e816133e5565b9050919050565b5f8160011c9050919050565b5f808291508390505b600185111561347a57808604811115613456576134556127ae565b5b60018516156134655780820291505b808102905061347385613425565b945061343a565b94509492505050565b5f82613492576001905061354d565b8161349f575f905061354d565b81600181146134b557600281146134bf576134ee565b600191505061354d565b60ff8411156134d1576134d06127ae565b5b8360020a9150848211156134e8576134e76127ae565b5b5061354d565b5060208310610133831016604e8410600b84101617156135235782820a90508381111561351e5761351d6127ae565b5b61354d565b6135308484846001613431565b92509050818404811115613547576135466127ae565b5b81810290505b9392505050565b5f61355e826120d8565b9150613569836120d8565b92506135967fffffffffffffffffffffffffffffffffffffffffffffffffffffffffffffffff8484613483565b90509291505056fea2646970667358221220ae50b929eedd853fb75efeb05db9adaf689ea00419961cf46e9784a69fb2959164736f6c634300081a0033",
			"opcodes": "PUSH1 0x80 PUSH1 0x40 MSTORE PUSH1 0x1 PUSH1 0x4 SSTORE CALLVALUE DUP1 ISZERO PUSH2 0x14 JUMPI PUSH0 DUP1 REVERT JUMPDEST POP CALLER DUP1 PUSH0 DUP1 PUSH20 0xFFFFFFFFFFFFFFFFFFFFFFFFFFFFFFFFFFFFFFFF AND DUP3 PUSH20 0xFFFFFFFFFFFFFFFFFFFFFFFFFFFFFFFFFFFFFFFF AND SUB PUSH2 0x86 JUMPI PUSH1 0x40 MLOAD PUSH32 0x8C379A000000000000000000000000000000000000000000000000000000000 DUP2 MSTORE PUSH1 0x4 ADD PUSH2 0x7D SWAP1 PUSH2 0x39F JUMP JUMPDEST PUSH1 0x40 MLOAD DUP1 SWAP2 SUB SWAP1 REVERT JUMPDEST DUP2 PUSH1 0x6 PUSH0 PUSH2 0x100 EXP DUP2 SLOAD DUP2 PUSH20 0xFFFFFFFFFFFFFFFFFFFFFFFFFFFFFFFFFFFFFFFF MUL NOT AND SWAP1 DUP4 PUSH20 0xFFFFFFFFFFFFFFFFFFFFFFFFFFFFFFFFFFFFFFFF AND MUL OR SWAP1 SSTORE POP PUSH0 PUSH20 0xFFFFFFFFFFFFFFFFFFFFFFFFFFFFFFFFFFFFFFFF AND DUP2 PUSH20 0xFFFFFFFFFFFFFFFFFFFFFFFFFFFFFFFFFFFFFFFF AND EQ PUSH2 0x109 JUMPI PUSH2 0x108 DUP2 PUSH2 0x1D6 PUSH1 0x20 SHL PUSH1 0x20 SHR JUMP JUMPDEST JUMPDEST POP POP POP PUSH2 0x12F PUSH20 0x779877A7B0D9E8603169DDBD7836E478B4624789 PUSH2 0x302 PUSH1 0x20 SHL PUSH1 0x20 SHR JUMP JUMPDEST PUSH20 0x6090149792DAAEE9D1D568C9F9A6F6B46AA29EFD PUSH1 0xB PUSH0 PUSH2 0x100 EXP DUP2 SLOAD DUP2 PUSH20 0xFFFFFFFFFFFFFFFFFFFFFFFFFFFFFFFFFFFFFFFF MUL NOT AND SWAP1 DUP4 PUSH20 0xFFFFFFFFFFFFFFFFFFFFFFFFFFFFFFFFFFFFFFFF AND MUL OR SWAP1 SSTORE POP PUSH32 0x6361393833363663633733313439353762386330313263373266303561656562 PUSH1 0xC DUP2 SWAP1 SSTORE POP PUSH1 0xA PUSH8 0xDE0B6B3A7640000 PUSH1 0x1 PUSH2 0x1C1 SWAP2 SWAP1 PUSH2 0x3F3 JUMP JUMPDEST PUSH2 0x1CB SWAP2 SWAP1 PUSH2 0x461 JUMP JUMPDEST PUSH1 0xD DUP2 SWAP1 SSTORE POP PUSH2 0x4F9 JUMP JUMPDEST CALLER PUSH20 0xFFFFFFFFFFFFFFFFFFFFFFFFFFFFFFFFFFFFFFFF AND DUP2 PUSH20 0xFFFFFFFFFFFFFFFFFFFFFFFFFFFFFFFFFFFFFFFF AND SUB PUSH2 0x244 JUMPI PUSH1 0x40 MLOAD PUSH32 0x8C379A000000000000000000000000000000000000000000000000000000000 DUP2 MSTORE PUSH1 0x4 ADD PUSH2 0x23B SWAP1 PUSH2 0x4DB JUMP JUMPDEST PUSH1 0x40 MLOAD DUP1 SWAP2 SUB SWAP1 REVERT JUMPDEST DUP1 PUSH1 0x7 PUSH0 PUSH2 0x100 EXP DUP2 SLOAD DUP2 PUSH20 0xFFFFFFFFFFFFFFFFFFFFFFFFFFFFFFFFFFFFFFFF MUL NOT AND SWAP1 DUP4 PUSH20 0xFFFFFFFFFFFFFFFFFFFFFFFFFFFFFFFFFFFFFFFF AND MUL OR SWAP1 SSTORE POP DUP1 PUSH20 0xFFFFFFFFFFFFFFFFFFFFFFFFFFFFFFFFFFFFFFFF AND PUSH1 0x6 PUSH0 SWAP1 SLOAD SWAP1 PUSH2 0x100 EXP SWAP1 DIV PUSH20 0xFFFFFFFFFFFFFFFFFFFFFFFFFFFFFFFFFFFFFFFF AND PUSH20 0xFFFFFFFFFFFFFFFFFFFFFFFFFFFFFFFFFFFFFFFF AND PUSH32 0xED8889F560326EB138920D842192F0EB3DD22B4F139C87A2C57538E05BAE1278 PUSH1 0x40 MLOAD PUSH1 0x40 MLOAD DUP1 SWAP2 SUB SWAP1 LOG3 POP JUMP JUMPDEST DUP1 PUSH1 0x2 PUSH0 PUSH2 0x100 EXP DUP2 SLOAD DUP2 PUSH20 0xFFFFFFFFFFFFFFFFFFFFFFFFFFFFFFFFFFFFFFFF MUL NOT AND SWAP1 DUP4 PUSH20 0xFFFFFFFFFFFFFFFFFFFFFFFFFFFFFFFFFFFFFFFF AND MUL OR SWAP1 SSTORE POP POP JUMP JUMPDEST PUSH0 DUP3 DUP3 MSTORE PUSH1 0x20 DUP3 ADD SWAP1 POP SWAP3 SWAP2 POP POP JUMP JUMPDEST PUSH32 0x43616E6E6F7420736574206F776E657220746F207A65726F0000000000000000 PUSH0 DUP3 ADD MSTORE POP JUMP JUMPDEST PUSH0 PUSH2 0x389 PUSH1 0x18 DUP4 PUSH2 0x345 JUMP JUMPDEST SWAP2 POP PUSH2 0x394 DUP3 PUSH2 0x355 JUMP JUMPDEST PUSH1 0x20 DUP3 ADD SWAP1 POP SWAP2 SWAP1 POP JUMP JUMPDEST PUSH0 PUSH1 0x20 DUP3 ADD SWAP1 POP DUP2 DUP2 SUB PUSH0 DUP4 ADD MSTORE PUSH2 0x3B6 DUP2 PUSH2 0x37D JUMP JUMPDEST SWAP1 POP SWAP2 SWAP1 POP JUMP JUMPDEST PUSH0 DUP2 SWAP1 POP SWAP2 SWAP1 POP JUMP JUMPDEST PUSH32 0x4E487B7100000000000000000000000000000000000000000000000000000000 PUSH0 MSTORE PUSH1 0x11 PUSH1 0x4 MSTORE PUSH1 0x24 PUSH0 REVERT JUMPDEST PUSH0 PUSH2 0x3FD DUP3 PUSH2 0x3BD JUMP JUMPDEST SWAP2 POP PUSH2 0x408 DUP4 PUSH2 0x3BD JUMP JUMPDEST SWAP3 POP DUP3 DUP3 MUL PUSH2 0x416 DUP2 PUSH2 0x3BD JUMP JUMPDEST SWAP2 POP DUP3 DUP3 DIV DUP5 EQ DUP4 ISZERO OR PUSH2 0x42D JUMPI PUSH2 0x42C PUSH2 0x3C6 JUMP JUMPDEST JUMPDEST POP SWAP3 SWAP2 POP POP JUMP JUMPDEST PUSH32 0x4E487B7100000000000000000000000000000000000000000000000000000000 PUSH0 MSTORE PUSH1 0x12 PUSH1 0x4 MSTORE PUSH1 0x24 PUSH0 REVERT JUMPDEST PUSH0 PUSH2 0x46B DUP3 PUSH2 0x3BD JUMP JUMPDEST SWAP2 POP PUSH2 0x476 DUP4 PUSH2 0x3BD JUMP JUMPDEST SWAP3 POP DUP3 PUSH2 0x486 JUMPI PUSH2 0x485 PUSH2 0x434 JUMP JUMPDEST JUMPDEST DUP3 DUP3 DIV SWAP1 POP SWAP3 SWAP2 POP POP JUMP JUMPDEST PUSH32 0x43616E6E6F74207472616E7366657220746F2073656C66000000000000000000 PUSH0 DUP3 ADD MSTORE POP JUMP JUMPDEST PUSH0 PUSH2 0x4C5 PUSH1 0x17 DUP4 PUSH2 0x345 JUMP JUMPDEST SWAP2 POP PUSH2 0x4D0 DUP3 PUSH2 0x491 JUMP JUMPDEST PUSH1 0x20 DUP3 ADD SWAP1 POP SWAP2 SWAP1 POP JUMP JUMPDEST PUSH0 PUSH1 0x20 DUP3 ADD SWAP1 POP DUP2 DUP2 SUB PUSH0 DUP4 ADD MSTORE PUSH2 0x4F2 DUP2 PUSH2 0x4B9 JUMP JUMPDEST SWAP1 POP SWAP2 SWAP1 POP JUMP JUMPDEST PUSH2 0x35D4 DUP1 PUSH2 0x506 PUSH0 CODECOPY PUSH0 RETURN INVALID PUSH1 0x80 PUSH1 0x40 MSTORE PUSH1 0x4 CALLDATASIZE LT PUSH2 0x108 JUMPI PUSH0 CALLDATALOAD PUSH1 0xE0 SHR DUP1 PUSH4 0x642CE355 GT PUSH2 0x94 JUMPI DUP1 PUSH4 0xD3E89483 GT PUSH2 0x63 JUMPI DUP1 PUSH4 0xD3E89483 EQ PUSH2 0x306 JUMPI DUP1 PUSH4 0xDE54D429 EQ PUSH2 0x34A JUMPI DUP1 PUSH4 0xE086E5EC EQ PUSH2 0x374 JUMPI DUP1 PUSH4 0xE9EF9D1D EQ PUSH2 0x38A JUMPI DUP1 PUSH4 0xF2FDE38B EQ PUSH2 0x3C6 JUMPI PUSH2 0x108 JUMP JUMPDEST DUP1 PUSH4 0x642CE355 EQ PUSH2 0x286 JUMPI DUP1 PUSH4 0x79BA5097 EQ PUSH2 0x2B0 JUMPI DUP1 PUSH4 0x8DA5CB5B EQ PUSH2 0x2C6 JUMPI DUP1 PUSH4 0x8DC654A2 EQ PUSH2 0x2F0 JUMPI PUSH2 0x108 JUMP JUMPDEST DUP1 PUSH4 0x1F43E4FB GT PUSH2 0xDB JUMPI DUP1 PUSH4 0x1F43E4FB EQ PUSH2 0x1A4 JUMPI DUP1 PUSH4 0x201C04F5 EQ PUSH2 0x1CC JUMPI DUP1 PUSH4 0x2220FAAA EQ PUSH2 0x1F6 JUMPI DUP1 PUSH4 0x34790E44 EQ PUSH2 0x220 JUMPI DUP1 PUSH4 0x42DFAC72 EQ PUSH2 0x25C JUMPI PUSH2 0x108 JUMP JUMPDEST DUP1 PUSH4 0x7B31C48 EQ PUSH2 0x10C JUMPI DUP1 PUSH4 0x86D2C87 EQ PUSH2 0x134 JUMPI DUP1 PUSH4 0xB31EE61 EQ PUSH2 0x15E JUMPI DUP1 PUSH4 0xFFA8972 EQ PUSH2 0x17A JUMPI JUMPDEST PUSH0 DUP1 REVERT JUMPDEST CALLVALUE DUP1 ISZERO PUSH2 0x117 JUMPI PUSH0 DUP1 REVERT JUMPDEST POP PUSH2 0x132 PUSH1 0x4 DUP1 CALLDATASIZE SUB DUP2 ADD SWAP1 PUSH2 0x12D SWAP2 SWAP1 PUSH2 0x210B JUMP JUMPDEST PUSH2 0x3EE JUMP JUMPDEST STOP JUMPDEST CALLVALUE DUP1 ISZERO PUSH2 0x13F JUMPI PUSH0 DUP1 REVERT JUMPDEST POP PUSH2 0x148 PUSH2 0x449 JUMP JUMPDEST PUSH1 0x40 MLOAD PUSH2 0x155 SWAP2 SWAP1 PUSH2 0x2176 JUMP JUMPDEST PUSH1 0x40 MLOAD DUP1 SWAP2 SUB SWAP1 RETURN JUMPDEST PUSH2 0x178 PUSH1 0x4 DUP1 CALLDATASIZE SUB DUP2 ADD SWAP1 PUSH2 0x173 SWAP2 SWAP1 PUSH2 0x22F5 JUMP JUMPDEST PUSH2 0x44E JUMP JUMPDEST STOP JUMPDEST CALLVALUE DUP1 ISZERO PUSH2 0x185 JUMPI PUSH0 DUP1 REVERT JUMPDEST POP PUSH2 0x18E PUSH2 0x70E JUMP JUMPDEST PUSH1 0x40 MLOAD PUSH2 0x19B SWAP2 SWAP1 PUSH2 0x2176 JUMP JUMPDEST PUSH1 0x40 MLOAD DUP1 SWAP2 SUB SWAP1 RETURN JUMPDEST CALLVALUE DUP1 ISZERO PUSH2 0x1AF JUMPI PUSH0 DUP1 REVERT JUMPDEST POP PUSH2 0x1CA PUSH1 0x4 DUP1 CALLDATASIZE SUB DUP2 ADD SWAP1 PUSH2 0x1C5 SWAP2 SWAP1 PUSH2 0x2361 JUMP JUMPDEST PUSH2 0x713 JUMP JUMPDEST STOP JUMPDEST CALLVALUE DUP1 ISZERO PUSH2 0x1D7 JUMPI PUSH0 DUP1 REVERT JUMPDEST POP PUSH2 0x1E0 PUSH2 0x8B0 JUMP JUMPDEST PUSH1 0x40 MLOAD PUSH2 0x1ED SWAP2 SWAP1 PUSH2 0x2176 JUMP JUMPDEST PUSH1 0x40 MLOAD DUP1 SWAP2 SUB SWAP1 RETURN JUMPDEST CALLVALUE DUP1 ISZERO PUSH2 0x201 JUMPI PUSH0 DUP1 REVERT JUMPDEST POP PUSH2 0x20A PUSH2 0x8B5 JUMP JUMPDEST PUSH1 0x40 MLOAD PUSH2 0x217 SWAP2 SWAP1 PUSH2 0x2176 JUMP JUMPDEST PUSH1 0x40 MLOAD DUP1 SWAP2 SUB SWAP1 RETURN JUMPDEST CALLVALUE DUP1 ISZERO PUSH2 0x22B JUMPI PUSH0 DUP1 REVERT JUMPDEST POP PUSH2 0x246 PUSH1 0x4 DUP1 CALLDATASIZE SUB DUP2 ADD SWAP1 PUSH2 0x241 SWAP2 SWAP1 PUSH2 0x239F JUMP JUMPDEST PUSH2 0x8BA JUMP JUMPDEST PUSH1 0x40 MLOAD PUSH2 0x253 SWAP2 SWAP1 PUSH2 0x2481 JUMP JUMPDEST PUSH1 0x40 MLOAD DUP1 SWAP2 SUB SWAP1 RETURN JUMPDEST CALLVALUE DUP1 ISZERO PUSH2 0x267 JUMPI PUSH0 DUP1 REVERT JUMPDEST POP PUSH2 0x270 PUSH2 0xA51 JUMP JUMPDEST PUSH1 0x40 MLOAD PUSH2 0x27D SWAP2 SWAP1 PUSH2 0x2176 JUMP JUMPDEST PUSH1 0x40 MLOAD DUP1 SWAP2 SUB SWAP1 RETURN JUMPDEST CALLVALUE DUP1 ISZERO PUSH2 0x291 JUMPI PUSH0 DUP1 REVERT JUMPDEST POP PUSH2 0x29A PUSH2 0xA56 JUMP JUMPDEST PUSH1 0x40 MLOAD PUSH2 0x2A7 SWAP2 SWAP1 PUSH2 0x2176 JUMP JUMPDEST PUSH1 0x40 MLOAD DUP1 SWAP2 SUB SWAP1 RETURN JUMPDEST CALLVALUE DUP1 ISZERO PUSH2 0x2BB JUMPI PUSH0 DUP1 REVERT JUMPDEST POP PUSH2 0x2C4 PUSH2 0xA5B JUMP JUMPDEST STOP JUMPDEST CALLVALUE DUP1 ISZERO PUSH2 0x2D1 JUMPI PUSH0 DUP1 REVERT JUMPDEST POP PUSH2 0x2DA PUSH2 0xBEC JUMP JUMPDEST PUSH1 0x40 MLOAD PUSH2 0x2E7 SWAP2 SWAP1 PUSH2 0x24B0 JUMP JUMPDEST PUSH1 0x40 MLOAD DUP1 SWAP2 SUB SWAP1 RETURN JUMPDEST CALLVALUE DUP1 ISZERO PUSH2 0x2FB JUMPI PUSH0 DUP1 REVERT JUMPDEST POP PUSH2 0x304 PUSH2 0xC14 JUMP JUMPDEST STOP JUMPDEST CALLVALUE DUP1 ISZERO PUSH2 0x311 JUMPI PUSH0 DUP1 REVERT JUMPDEST POP PUSH2 0x32C PUSH1 0x4 DUP1 CALLDATASIZE SUB DUP2 ADD SWAP1 PUSH2 0x327 SWAP2 SWAP1 PUSH2 0x24C9 JUMP JUMPDEST PUSH2 0xD5B JUMP JUMPDEST PUSH1 0x40 MLOAD PUSH2 0x341 SWAP10 SWAP9 SWAP8 SWAP7 SWAP6 SWAP5 SWAP4 SWAP3 SWAP2 SWAP1 PUSH2 0x257D JUMP JUMPDEST PUSH1 0x40 MLOAD DUP1 SWAP2 SUB SWAP1 RETURN JUMPDEST CALLVALUE DUP1 ISZERO PUSH2 0x355 JUMPI PUSH0 DUP1 REVERT JUMPDEST POP PUSH2 0x35E PUSH2 0xE7D JUMP JUMPDEST PUSH1 0x40 MLOAD PUSH2 0x36B SWAP2 SWAP1 PUSH2 0x260F JUMP JUMPDEST PUSH1 0x40 MLOAD DUP1 SWAP2 SUB SWAP1 RETURN JUMPDEST CALLVALUE DUP1 ISZERO PUSH2 0x37F JUMPI PUSH0 DUP1 REVERT JUMPDEST POP PUSH2 0x388 PUSH2 0xE83 JUMP JUMPDEST STOP JUMPDEST CALLVALUE DUP1 ISZERO PUSH2 0x395 JUMPI PUSH0 DUP1 REVERT JUMPDEST POP PUSH2 0x3B0 PUSH1 0x4 DUP1 CALLDATASIZE SUB DUP2 ADD SWAP1 PUSH2 0x3AB SWAP2 SWAP1 PUSH2 0x24C9 JUMP JUMPDEST PUSH2 0xED8 JUMP JUMPDEST PUSH1 0x40 MLOAD PUSH2 0x3BD SWAP2 SWAP1 PUSH2 0x2637 JUMP JUMPDEST PUSH1 0x40 MLOAD DUP1 SWAP2 SUB SWAP1 RETURN JUMPDEST CALLVALUE DUP1 ISZERO PUSH2 0x3D1 JUMPI PUSH0 DUP1 REVERT JUMPDEST POP PUSH2 0x3EC PUSH1 0x4 DUP1 CALLDATASIZE SUB DUP2 ADD SWAP1 PUSH2 0x3E7 SWAP2 SWAP1 PUSH2 0x239F JUMP JUMPDEST PUSH2 0x1178 JUMP JUMPDEST STOP JUMPDEST PUSH2 0x3F6 PUSH2 0x118C JUMP JUMPDEST DUP3 PUSH1 0xB PUSH0 PUSH2 0x100 EXP DUP2 SLOAD DUP2 PUSH20 0xFFFFFFFFFFFFFFFFFFFFFFFFFFFFFFFFFFFFFFFF MUL NOT AND SWAP1 DUP4 PUSH20 0xFFFFFFFFFFFFFFFFFFFFFFFFFFFFFFFFFFFFFFFF AND MUL OR SWAP1 SSTORE POP DUP2 PUSH1 0xC DUP2 SWAP1 SSTORE POP DUP1 PUSH1 0xD DUP2 SWAP1 SSTORE POP POP POP POP JUMP JUMPDEST PUSH1 0x2 DUP2 JUMP JUMPDEST PUSH0 CALLVALUE GT PUSH2 0x490 JUMPI PUSH1 0x40 MLOAD PUSH32 0x8C379A000000000000000000000000000000000000000000000000000000000 DUP2 MSTORE PUSH1 0x4 ADD PUSH2 0x487 SWAP1 PUSH2 0x269A JUMP JUMPDEST PUSH1 0x40 MLOAD DUP1 SWAP2 SUB SWAP1 REVERT JUMPDEST PUSH1 0x1 DUP2 PUSH1 0xFF AND LT ISZERO DUP1 ISZERO PUSH2 0x4A8 JUMPI POP PUSH1 0x3 DUP2 PUSH1 0xFF AND GT ISZERO JUMPDEST PUSH2 0x4E7 JUMPI PUSH1 0x40 MLOAD PUSH32 0x8C379A000000000000000000000000000000000000000000000000000000000 DUP2 MSTORE PUSH1 0x4 ADD PUSH2 0x4DE SWAP1 PUSH2 0x2702 JUMP JUMPDEST PUSH1 0x40 MLOAD DUP1 SWAP2 SUB SWAP1 REVERT JUMPDEST TIMESTAMP DUP3 GT PUSH2 0x529 JUMPI PUSH1 0x40 MLOAD PUSH32 0x8C379A000000000000000000000000000000000000000000000000000000000 DUP2 MSTORE PUSH1 0x4 ADD PUSH2 0x520 SWAP1 PUSH2 0x2790 JUMP JUMPDEST PUSH1 0x40 MLOAD DUP1 SWAP2 SUB SWAP1 REVERT JUMPDEST PUSH0 PUSH2 0x534 CALLVALUE DUP4 PUSH2 0x121D JUMP JUMPDEST SWAP1 POP PUSH0 PUSH2 0x540 DUP4 PUSH2 0x1272 JUMP JUMPDEST SWAP1 POP PUSH0 PUSH1 0xA PUSH0 DUP2 SLOAD DUP1 SWAP3 SWAP2 SWAP1 PUSH2 0x555 SWAP1 PUSH2 0x27DB JUMP JUMPDEST SWAP2 SWAP1 POP SSTORE SWAP1 POP PUSH1 0x40 MLOAD DUP1 PUSH2 0x120 ADD PUSH1 0x40 MSTORE DUP1 CALLER PUSH20 0xFFFFFFFFFFFFFFFFFFFFFFFFFFFFFFFFFFFFFFFF AND DUP2 MSTORE PUSH1 0x20 ADD DUP8 DUP2 MSTORE PUSH1 0x20 ADD DUP7 DUP2 MSTORE PUSH1 0x20 ADD CALLVALUE DUP2 MSTORE PUSH1 0x20 ADD DUP5 DUP2 MSTORE PUSH1 0x20 ADD DUP4 PUSH1 0xFF AND DUP2 MSTORE PUSH1 0x20 ADD PUSH0 ISZERO ISZERO DUP2 MSTORE PUSH1 0x20 ADD PUSH1 0x1 ISZERO ISZERO DUP2 MSTORE PUSH1 0x20 ADD DUP6 PUSH1 0xFF AND DUP2 MSTORE POP PUSH1 0x9 PUSH0 DUP4 DUP2 MSTORE PUSH1 0x20 ADD SWAP1 DUP2 MSTORE PUSH1 0x20 ADD PUSH0 KECCAK256 PUSH0 DUP3 ADD MLOAD DUP2 PUSH0 ADD PUSH0 PUSH2 0x100 EXP DUP2 SLOAD DUP2 PUSH20 0xFFFFFFFFFFFFFFFFFFFFFFFFFFFFFFFFFFFFFFFF MUL NOT AND SWAP1 DUP4 PUSH20 0xFFFFFFFFFFFFFFFFFFFFFFFFFFFFFFFFFFFFFFFF AND MUL OR SWAP1 SSTORE POP PUSH1 0x20 DUP3 ADD MLOAD DUP2 PUSH1 0x1 ADD SWAP1 DUP2 PUSH2 0x626 SWAP2 SWAP1 PUSH2 0x2A1C JUMP JUMPDEST POP PUSH1 0x40 DUP3 ADD MLOAD DUP2 PUSH1 0x2 ADD SSTORE PUSH1 0x60 DUP3 ADD MLOAD DUP2 PUSH1 0x3 ADD SSTORE PUSH1 0x80 DUP3 ADD MLOAD DUP2 PUSH1 0x4 ADD SSTORE PUSH1 0xA0 DUP3 ADD MLOAD DUP2 PUSH1 0x5 ADD PUSH0 PUSH2 0x100 EXP DUP2 SLOAD DUP2 PUSH1 0xFF MUL NOT AND SWAP1 DUP4 PUSH1 0xFF AND MUL OR SWAP1 SSTORE POP PUSH1 0xC0 DUP3 ADD MLOAD DUP2 PUSH1 0x5 ADD PUSH1 0x1 PUSH2 0x100 EXP DUP2 SLOAD DUP2 PUSH1 0xFF MUL NOT AND SWAP1 DUP4 ISZERO ISZERO MUL OR SWAP1 SSTORE POP PUSH1 0xE0 DUP3 ADD MLOAD DUP2 PUSH1 0x5 ADD PUSH1 0x2 PUSH2 0x100 EXP DUP2 SLOAD DUP2 PUSH1 0xFF MUL NOT AND SWAP1 DUP4 ISZERO ISZERO MUL OR SWAP1 SSTORE POP PUSH2 0x100 DUP3 ADD MLOAD DUP2 PUSH1 0x5 ADD PUSH1 0x3 PUSH2 0x100 EXP DUP2 SLOAD DUP2 PUSH1 0xFF MUL NOT AND SWAP1 DUP4 PUSH1 0xFF AND MUL OR SWAP1 SSTORE POP SWAP1 POP POP DUP1 PUSH32 0x42242DCA1B9244398EA83E7A8F17A0B763666B747D5B4534138C8A0EB8A6A67E CALLER DUP9 CALLVALUE PUSH1 0x40 MLOAD PUSH2 0x6FE SWAP4 SWAP3 SWAP2 SWAP1 PUSH2 0x2AEB JUMP JUMPDEST PUSH1 0x40 MLOAD DUP1 SWAP2 SUB SWAP1 LOG2 POP POP POP POP POP POP JUMP JUMPDEST PUSH1 0x64 DUP2 JUMP JUMPDEST DUP2 PUSH1 0x5 PUSH0 DUP3 DUP2 MSTORE PUSH1 0x20 ADD SWAP1 DUP2 MSTORE PUSH1 0x20 ADD PUSH0 KECCAK256 PUSH0 SWAP1 SLOAD SWAP1 PUSH2 0x100 EXP SWAP1 DIV PUSH20 0xFFFFFFFFFFFFFFFFFFFFFFFFFFFFFFFFFFFFFFFF AND PUSH20 0xFFFFFFFFFFFFFFFFFFFFFFFFFFFFFFFFFFFFFFFF AND CALLER PUSH20 0xFFFFFFFFFFFFFFFFFFFFFFFFFFFFFFFFFFFFFFFF AND EQ PUSH2 0x7B2 JUMPI PUSH1 0x40 MLOAD PUSH32 0x8C379A000000000000000000000000000000000000000000000000000000000 DUP2 MSTORE PUSH1 0x4 ADD PUSH2 0x7A9 SWAP1 PUSH2 0x2B97 JUMP JUMPDEST PUSH1 0x40 MLOAD DUP1 SWAP2 SUB SWAP1 REVERT JUMPDEST PUSH1 0x5 PUSH0 DUP3 DUP2 MSTORE PUSH1 0x20 ADD SWAP1 DUP2 MSTORE PUSH1 0x20 ADD PUSH0 KECCAK256 PUSH0 PUSH2 0x100 EXP DUP2 SLOAD SWAP1 PUSH20 0xFFFFFFFFFFFFFFFFFFFFFFFFFFFFFFFFFFFFFFFF MUL NOT AND SWAP1 SSTORE DUP1 PUSH32 0x7CC135E0CEBB02C3480AE5D74D377283180A2601F8F644EDF7987B009316C63A PUSH1 0x40 MLOAD PUSH1 0x40 MLOAD DUP1 SWAP2 SUB SWAP1 LOG2 PUSH0 PUSH1 0x8 PUSH0 DUP6 DUP2 MSTORE PUSH1 0x20 ADD SWAP1 DUP2 MSTORE PUSH1 0x20 ADD PUSH0 KECCAK256 SLOAD SWAP1 POP PUSH0 PUSH1 0x9 PUSH0 DUP4 DUP2 MSTORE PUSH1 0x20 ADD SWAP1 DUP2 MSTORE PUSH1 0x20 ADD PUSH0 KECCAK256 SWAP1 POP DUP5 PUSH32 0x929DEFE9C1D9365DB5456A875A719ED5FD79142A86396D5BEC9BC6AEFB6F4D91 DUP6 PUSH1 0x40 MLOAD PUSH2 0x86B SWAP2 SWAP1 PUSH2 0x260F JUMP JUMPDEST PUSH1 0x40 MLOAD DUP1 SWAP2 SUB SWAP1 LOG2 PUSH0 PUSH1 0x3C DUP6 PUSH2 0x881 SWAP2 SWAP1 PUSH2 0x2BE2 JUMP JUMPDEST SWAP1 POP DUP2 PUSH1 0x5 ADD PUSH0 SWAP1 SLOAD SWAP1 PUSH2 0x100 EXP SWAP1 DIV PUSH1 0xFF AND PUSH1 0xFF AND DUP2 LT PUSH2 0x8A8 JUMPI PUSH2 0x8A7 DUP4 DUP3 PUSH2 0x12A5 JUMP JUMPDEST JUMPDEST POP POP POP POP POP POP JUMP JUMPDEST PUSH1 0x19 DUP2 JUMP JUMPDEST PUSH1 0x32 DUP2 JUMP JUMPDEST PUSH1 0x60 PUSH0 DUP1 JUMPDEST PUSH1 0xA SLOAD DUP2 LT ISZERO PUSH2 0x94A JUMPI DUP4 PUSH20 0xFFFFFFFFFFFFFFFFFFFFFFFFFFFFFFFFFFFFFFFF AND PUSH1 0x9 PUSH0 DUP4 DUP2 MSTORE PUSH1 0x20 ADD SWAP1 DUP2 MSTORE PUSH1 0x20 ADD PUSH0 KECCAK256 PUSH0 ADD PUSH0 SWAP1 SLOAD SWAP1 PUSH2 0x100 EXP SWAP1 DIV PUSH20 0xFFFFFFFFFFFFFFFFFFFFFFFFFFFFFFFFFFFFFFFF AND PUSH20 0xFFFFFFFFFFFFFFFFFFFFFFFFFFFFFFFFFFFFFFFF AND SUB PUSH2 0x93D JUMPI DUP2 DUP1 PUSH2 0x939 SWAP1 PUSH2 0x27DB JUMP JUMPDEST SWAP3 POP POP JUMPDEST DUP1 DUP1 PUSH1 0x1 ADD SWAP2 POP POP PUSH2 0x8BF JUMP JUMPDEST POP PUSH0 DUP2 PUSH8 0xFFFFFFFFFFFFFFFF DUP2 GT ISZERO PUSH2 0x966 JUMPI PUSH2 0x965 PUSH2 0x21A7 JUMP JUMPDEST JUMPDEST PUSH1 0x40 MLOAD SWAP1 DUP1 DUP3 MSTORE DUP1 PUSH1 0x20 MUL PUSH1 0x20 ADD DUP3 ADD PUSH1 0x40 MSTORE DUP1 ISZERO PUSH2 0x994 JUMPI DUP2 PUSH1 0x20 ADD PUSH1 0x20 DUP3 MUL DUP1 CALLDATASIZE DUP4 CALLDATACOPY DUP1 DUP3 ADD SWAP2 POP POP SWAP1 POP JUMPDEST POP SWAP1 POP PUSH0 DUP1 JUMPDEST PUSH1 0xA SLOAD DUP2 LT ISZERO PUSH2 0xA45 JUMPI DUP6 PUSH20 0xFFFFFFFFFFFFFFFFFFFFFFFFFFFFFFFFFFFFFFFF AND PUSH1 0x9 PUSH0 DUP4 DUP2 MSTORE PUSH1 0x20 ADD SWAP1 DUP2 MSTORE PUSH1 0x20 ADD PUSH0 KECCAK256 PUSH0 ADD PUSH0 SWAP1 SLOAD SWAP1 PUSH2 0x100 EXP SWAP1 DIV PUSH20 0xFFFFFFFFFFFFFFFFFFFFFFFFFFFFFFFFFFFFFFFF AND PUSH20 0xFFFFFFFFFFFFFFFFFFFFFFFFFFFFFFFFFFFFFFFF AND SUB PUSH2 0xA38 JUMPI DUP1 DUP4 DUP4 DUP2 MLOAD DUP2 LT PUSH2 0xA1D JUMPI PUSH2 0xA1C PUSH2 0x2C12 JUMP JUMPDEST JUMPDEST PUSH1 0x20 MUL PUSH1 0x20 ADD ADD DUP2 DUP2 MSTORE POP POP DUP2 DUP1 PUSH2 0xA34 SWAP1 PUSH2 0x27DB JUMP JUMPDEST SWAP3 POP POP JUMPDEST DUP1 DUP1 PUSH1 0x1 ADD SWAP2 POP POP PUSH2 0x99A JUMP JUMPDEST POP DUP2 SWAP4 POP POP POP POP SWAP2 SWAP1 POP JUMP JUMPDEST PUSH1 0x3 DUP2 JUMP JUMPDEST PUSH1 0x1 DUP2 JUMP JUMPDEST PUSH1 0x7 PUSH0 SWAP1 SLOAD SWAP1 PUSH2 0x100 EXP SWAP1 DIV PUSH20 0xFFFFFFFFFFFFFFFFFFFFFFFFFFFFFFFFFFFFFFFF AND PUSH20 0xFFFFFFFFFFFFFFFFFFFFFFFFFFFFFFFFFFFFFFFF AND CALLER PUSH20 0xFFFFFFFFFFFFFFFFFFFFFFFFFFFFFFFFFFFFFFFF AND EQ PUSH2 0xAEA JUMPI PUSH1 0x40 MLOAD PUSH32 0x8C379A000000000000000000000000000000000000000000000000000000000 DUP2 MSTORE PUSH1 0x4 ADD PUSH2 0xAE1 SWAP1 PUSH2 0x2C89 JUMP JUMPDEST PUSH1 0x40 MLOAD DUP1 SWAP2 SUB SWAP1 REVERT JUMPDEST PUSH0 PUSH1 0x6 PUSH0 SWAP1 SLOAD SWAP1 PUSH2 0x100 EXP SWAP1 DIV PUSH20 0xFFFFFFFFFFFFFFFFFFFFFFFFFFFFFFFFFFFFFFFF AND SWAP1 POP CALLER PUSH1 0x6 PUSH0 PUSH2 0x100 EXP DUP2 SLOAD DUP2 PUSH20 0xFFFFFFFFFFFFFFFFFFFFFFFFFFFFFFFFFFFFFFFF MUL NOT AND SWAP1 DUP4 PUSH20 0xFFFFFFFFFFFFFFFFFFFFFFFFFFFFFFFFFFFFFFFF AND MUL OR SWAP1 SSTORE POP PUSH0 PUSH1 0x7 PUSH0 PUSH2 0x100 EXP DUP2 SLOAD DUP2 PUSH20 0xFFFFFFFFFFFFFFFFFFFFFFFFFFFFFFFFFFFFFFFF MUL NOT AND SWAP1 DUP4 PUSH20 0xFFFFFFFFFFFFFFFFFFFFFFFFFFFFFFFFFFFFFFFF AND MUL OR SWAP1 SSTORE POP CALLER PUSH20 0xFFFFFFFFFFFFFFFFFFFFFFFFFFFFFFFFFFFFFFFF AND DUP2 PUSH20 0xFFFFFFFFFFFFFFFFFFFFFFFFFFFFFFFFFFFFFFFF AND PUSH32 0x8BE0079C531659141344CD1FD0A4F28419497F9722A3DAAFE3B4186F6B6457E0 PUSH1 0x40 MLOAD PUSH1 0x40 MLOAD DUP1 SWAP2 SUB SWAP1 LOG3 POP JUMP JUMPDEST PUSH0 PUSH1 0x6 PUSH0 SWAP1 SLOAD SWAP1 PUSH2 0x100 EXP SWAP1 DIV PUSH20 0xFFFFFFFFFFFFFFFFFFFFFFFFFFFFFFFFFFFFFFFF AND SWAP1 POP SWAP1 JUMP JUMPDEST PUSH2 0xC1C PUSH2 0x118C JUMP JUMPDEST PUSH0 PUSH2 0xC25 PUSH2 0x1576 JUMP JUMPDEST SWAP1 POP DUP1 PUSH20 0xFFFFFFFFFFFFFFFFFFFFFFFFFFFFFFFFFFFFFFFF AND PUSH4 0xA9059CBB CALLER DUP4 PUSH20 0xFFFFFFFFFFFFFFFFFFFFFFFFFFFFFFFFFFFFFFFF AND PUSH4 0x70A08231 ADDRESS PUSH1 0x40 MLOAD DUP3 PUSH4 0xFFFFFFFF AND PUSH1 0xE0 SHL DUP2 MSTORE PUSH1 0x4 ADD PUSH2 0xC7D SWAP2 SWAP1 PUSH2 0x24B0 JUMP JUMPDEST PUSH1 0x20 PUSH1 0x40 MLOAD DUP1 DUP4 SUB DUP2 DUP7 GAS STATICCALL ISZERO DUP1 ISZERO PUSH2 0xC98 JUMPI RETURNDATASIZE PUSH0 DUP1 RETURNDATACOPY RETURNDATASIZE PUSH0 REVERT JUMPDEST POP POP POP POP PUSH1 0x40 MLOAD RETURNDATASIZE PUSH1 0x1F NOT PUSH1 0x1F DUP3 ADD AND DUP3 ADD DUP1 PUSH1 0x40 MSTORE POP DUP2 ADD SWAP1 PUSH2 0xCBC SWAP2 SWAP1 PUSH2 0x2CBB JUMP JUMPDEST PUSH1 0x40 MLOAD DUP4 PUSH4 0xFFFFFFFF AND PUSH1 0xE0 SHL DUP2 MSTORE PUSH1 0x4 ADD PUSH2 0xCD9 SWAP3 SWAP2 SWAP1 PUSH2 0x2CE6 JUMP JUMPDEST PUSH1 0x20 PUSH1 0x40 MLOAD DUP1 DUP4 SUB DUP2 PUSH0 DUP8 GAS CALL ISZERO DUP1 ISZERO PUSH2 0xCF5 JUMPI RETURNDATASIZE PUSH0 DUP1 RETURNDATACOPY RETURNDATASIZE PUSH0 REVERT JUMPDEST POP POP POP POP PUSH1 0x40 MLOAD RETURNDATASIZE PUSH1 0x1F NOT PUSH1 0x1F DUP3 ADD AND DUP3 ADD DUP1 PUSH1 0x40 MSTORE POP DUP2 ADD SWAP1 PUSH2 0xD19 SWAP2 SWAP1 PUSH2 0x2D37 JUMP JUMPDEST PUSH2 0xD58 JUMPI PUSH1 0x40 MLOAD PUSH32 0x8C379A000000000000000000000000000000000000000000000000000000000 DUP2 MSTORE PUSH1 0x4 ADD PUSH2 0xD4F SWAP1 PUSH2 0x2DAC JUMP JUMPDEST PUSH1 0x40 MLOAD DUP1 SWAP2 SUB SWAP1 REVERT JUMPDEST POP JUMP JUMPDEST PUSH1 0x9 PUSH1 0x20 MSTORE DUP1 PUSH0 MSTORE PUSH1 0x40 PUSH0 KECCAK256 PUSH0 SWAP2 POP SWAP1 POP DUP1 PUSH0 ADD PUSH0 SWAP1 SLOAD SWAP1 PUSH2 0x100 EXP SWAP1 DIV PUSH20 0xFFFFFFFFFFFFFFFFFFFFFFFFFFFFFFFFFFFFFFFF AND SWAP1 DUP1 PUSH1 0x1 ADD DUP1 SLOAD PUSH2 0xD9F SWAP1 PUSH2 0x284F JUMP JUMPDEST DUP1 PUSH1 0x1F ADD PUSH1 0x20 DUP1 SWAP2 DIV MUL PUSH1 0x20 ADD PUSH1 0x40 MLOAD SWAP1 DUP2 ADD PUSH1 0x40 MSTORE DUP1 SWAP3 SWAP2 SWAP1 DUP2 DUP2 MSTORE PUSH1 0x20 ADD DUP3 DUP1 SLOAD PUSH2 0xDCB SWAP1 PUSH2 0x284F JUMP JUMPDEST DUP1 ISZERO PUSH2 0xE16 JUMPI DUP1 PUSH1 0x1F LT PUSH2 0xDED JUMPI PUSH2 0x100 DUP1 DUP4 SLOAD DIV MUL DUP4 MSTORE SWAP2 PUSH1 0x20 ADD SWAP2 PUSH2 0xE16 JUMP JUMPDEST DUP3 ADD SWAP2 SWAP1 PUSH0 MSTORE PUSH1 0x20 PUSH0 KECCAK256 SWAP1 JUMPDEST DUP2 SLOAD DUP2 MSTORE SWAP1 PUSH1 0x1 ADD SWAP1 PUSH1 0x20 ADD DUP1 DUP4 GT PUSH2 0xDF9 JUMPI DUP3 SWAP1 SUB PUSH1 0x1F AND DUP3 ADD SWAP2 JUMPDEST POP POP POP POP POP SWAP1 DUP1 PUSH1 0x2 ADD SLOAD SWAP1 DUP1 PUSH1 0x3 ADD SLOAD SWAP1 DUP1 PUSH1 0x4 ADD SLOAD SWAP1 DUP1 PUSH1 0x5 ADD PUSH0 SWAP1 SLOAD SWAP1 PUSH2 0x100 EXP SWAP1 DIV PUSH1 0xFF AND SWAP1 DUP1 PUSH1 0x5 ADD PUSH1 0x1 SWAP1 SLOAD SWAP1 PUSH2 0x100 EXP SWAP1 DIV PUSH1 0xFF AND SWAP1 DUP1 PUSH1 0x5 ADD PUSH1 0x2 SWAP1 SLOAD SWAP1 PUSH2 0x100 EXP SWAP1 DIV PUSH1 0xFF AND SWAP1 DUP1 PUSH1 0x5 ADD PUSH1 0x3 SWAP1 SLOAD SWAP1 PUSH2 0x100 EXP SWAP1 DIV PUSH1 0xFF AND SWAP1 POP DUP10 JUMP JUMPDEST PUSH1 0xA SLOAD DUP2 JUMP JUMPDEST PUSH2 0xE8B PUSH2 0x118C JUMP JUMPDEST PUSH2 0xE93 PUSH2 0xBEC JUMP JUMPDEST PUSH20 0xFFFFFFFFFFFFFFFFFFFFFFFFFFFFFFFFFFFFFFFF AND PUSH2 0x8FC SELFBALANCE SWAP1 DUP2 ISZERO MUL SWAP1 PUSH1 0x40 MLOAD PUSH0 PUSH1 0x40 MLOAD DUP1 DUP4 SUB DUP2 DUP6 DUP9 DUP9 CALL SWAP4 POP POP POP POP ISZERO DUP1 ISZERO PUSH2 0xED5 JUMPI RETURNDATASIZE PUSH0 DUP1 RETURNDATACOPY RETURNDATASIZE PUSH0 REVERT JUMPDEST POP JUMP JUMPDEST PUSH0 DUP1 PUSH1 0x9 PUSH0 DUP5 DUP2 MSTORE PUSH1 0x20 ADD SWAP1 DUP2 MSTORE PUSH1 0x20 ADD PUSH0 KECCAK256 SWAP1 POP DUP1 PUSH1 0x5 ADD PUSH1 0x2 SWAP1 SLOAD SWAP1 PUSH2 0x100 EXP SWAP1 DIV PUSH1 0xFF AND PUSH2 0xF3E JUMPI PUSH1 0x40 MLOAD PUSH32 0x8C379A000000000000000000000000000000000000000000000000000000000 DUP2 MSTORE PUSH1 0x4 ADD PUSH2 0xF35 SWAP1 PUSH2 0x2E14 JUMP JUMPDEST PUSH1 0x40 MLOAD DUP1 SWAP2 SUB SWAP1 REVERT JUMPDEST DUP1 PUSH1 0x5 ADD PUSH1 0x1 SWAP1 SLOAD SWAP1 PUSH2 0x100 EXP SWAP1 DIV PUSH1 0xFF AND ISZERO PUSH2 0xF90 JUMPI PUSH1 0x40 MLOAD PUSH32 0x8C379A000000000000000000000000000000000000000000000000000000000 DUP2 MSTORE PUSH1 0x4 ADD PUSH2 0xF87 SWAP1 PUSH2 0x2E7C JUMP JUMPDEST PUSH1 0x40 MLOAD DUP1 SWAP2 SUB SWAP1 REVERT JUMPDEST DUP1 PUSH1 0x2 ADD SLOAD TIMESTAMP LT ISZERO PUSH2 0xFD7 JUMPI PUSH1 0x40 MLOAD PUSH32 0x8C379A000000000000000000000000000000000000000000000000000000000 DUP2 MSTORE PUSH1 0x4 ADD PUSH2 0xFCE SWAP1 PUSH2 0x2EE4 JUMP JUMPDEST PUSH1 0x40 MLOAD DUP1 SWAP2 SUB SWAP1 REVERT JUMPDEST PUSH0 PUSH2 0xFEC PUSH1 0xC SLOAD ADDRESS PUSH4 0x1F43E4FB PUSH1 0xE0 SHL PUSH2 0x159E JUMP JUMPDEST SWAP1 POP PUSH2 0x10C2 PUSH1 0x40 MLOAD DUP1 PUSH1 0x40 ADD PUSH1 0x40 MSTORE DUP1 PUSH1 0xC DUP2 MSTORE PUSH1 0x20 ADD PUSH32 0x666C696768744E756D6265720000000000000000000000000000000000000000 DUP2 MSTORE POP DUP4 PUSH1 0x1 ADD DUP1 SLOAD PUSH2 0x1036 SWAP1 PUSH2 0x284F JUMP JUMPDEST DUP1 PUSH1 0x1F ADD PUSH1 0x20 DUP1 SWAP2 DIV MUL PUSH1 0x20 ADD PUSH1 0x40 MLOAD SWAP1 DUP2 ADD PUSH1 0x40 MSTORE DUP1 SWAP3 SWAP2 SWAP1 DUP2 DUP2 MSTORE PUSH1 0x20 ADD DUP3 DUP1 SLOAD PUSH2 0x1062 SWAP1 PUSH2 0x284F JUMP JUMPDEST DUP1 ISZERO PUSH2 0x10AD JUMPI DUP1 PUSH1 0x1F LT PUSH2 0x1084 JUMPI PUSH2 0x100 DUP1 DUP4 SLOAD DIV MUL DUP4 MSTORE SWAP2 PUSH1 0x20 ADD SWAP2 PUSH2 0x10AD JUMP JUMPDEST DUP3 ADD SWAP2 SWAP1 PUSH0 MSTORE PUSH1 0x20 PUSH0 KECCAK256 SWAP1 JUMPDEST DUP2 SLOAD DUP2 MSTORE SWAP1 PUSH1 0x1 ADD SWAP1 PUSH1 0x20 ADD DUP1 DUP4 GT PUSH2 0x1090 JUMPI DUP3 SWAP1 SUB PUSH1 0x1F AND DUP3 ADD SWAP2 JUMPDEST POP POP POP POP POP DUP4 PUSH2 0x15CF SWAP1 SWAP3 SWAP2 SWAP1 PUSH4 0xFFFFFFFF AND JUMP JUMPDEST PUSH2 0x1110 PUSH1 0x40 MLOAD DUP1 PUSH1 0x40 ADD PUSH1 0x40 MSTORE DUP1 PUSH1 0xD DUP2 MSTORE PUSH1 0x20 ADD PUSH32 0x64657061727475726554696D6500000000000000000000000000000000000000 DUP2 MSTORE POP DUP4 PUSH1 0x2 ADD SLOAD DUP4 PUSH2 0x1602 SWAP1 SWAP3 SWAP2 SWAP1 PUSH4 0xFFFFFFFF AND JUMP JUMPDEST PUSH0 PUSH2 0x111D DUP3 PUSH1 0xD SLOAD PUSH2 0x1635 JUMP JUMPDEST SWAP1 POP DUP5 PUSH1 0x8 PUSH0 DUP4 DUP2 MSTORE PUSH1 0x20 ADD SWAP1 DUP2 MSTORE PUSH1 0x20 ADD PUSH0 KECCAK256 DUP2 SWAP1 SSTORE POP DUP1 PUSH32 0x389CEB2478884C31373E66589E2147ABCE7100E6E7DEC9AEC54AD4CF32EBD4DF DUP7 PUSH1 0x40 MLOAD PUSH2 0x1165 SWAP2 SWAP1 PUSH2 0x260F JUMP JUMPDEST PUSH1 0x40 MLOAD DUP1 SWAP2 SUB SWAP1 LOG2 DUP1 SWAP4 POP POP POP POP SWAP2 SWAP1 POP JUMP JUMPDEST PUSH2 0x1180 PUSH2 0x118C JUMP JUMPDEST PUSH2 0x1189 DUP2 PUSH2 0x166A JUMP JUMPDEST POP JUMP JUMPDEST PUSH1 0x6 PUSH0 SWAP1 SLOAD SWAP1 PUSH2 0x100 EXP SWAP1 DIV PUSH20 0xFFFFFFFFFFFFFFFFFFFFFFFFFFFFFFFFFFFFFFFF AND PUSH20 0xFFFFFFFFFFFFFFFFFFFFFFFFFFFFFFFFFFFFFFFF AND CALLER PUSH20 0xFFFFFFFFFFFFFFFFFFFFFFFFFFFFFFFFFFFFFFFF AND EQ PUSH2 0x121B JUMPI PUSH1 0x40 MLOAD PUSH32 0x8C379A000000000000000000000000000000000000000000000000000000000 DUP2 MSTORE PUSH1 0x4 ADD PUSH2 0x1212 SWAP1 PUSH2 0x2F4C JUMP JUMPDEST PUSH1 0x40 MLOAD DUP1 SWAP2 SUB SWAP1 REVERT JUMPDEST JUMP JUMPDEST PUSH0 PUSH1 0x1 DUP3 PUSH1 0xFF AND SUB PUSH2 0x123D JUMPI PUSH1 0x2 DUP4 PUSH2 0x1236 SWAP2 SWAP1 PUSH2 0x2F6A JUMP JUMPDEST SWAP1 POP PUSH2 0x126C JUMP JUMPDEST PUSH1 0x2 DUP3 PUSH1 0xFF AND SUB PUSH2 0x125C JUMPI PUSH1 0x3 DUP4 PUSH2 0x1255 SWAP2 SWAP1 PUSH2 0x2F6A JUMP JUMPDEST SWAP1 POP PUSH2 0x126C JUMP JUMPDEST PUSH1 0x4 DUP4 PUSH2 0x1269 SWAP2 SWAP1 PUSH2 0x2F6A JUMP JUMPDEST SWAP1 POP JUMPDEST SWAP3 SWAP2 POP POP JUMP JUMPDEST PUSH0 PUSH1 0x1 DUP3 PUSH1 0xFF AND SUB PUSH2 0x1287 JUMPI PUSH1 0x1 SWAP1 POP PUSH2 0x12A0 JUMP JUMPDEST PUSH1 0x2 DUP3 PUSH1 0xFF AND SUB PUSH2 0x129B JUMPI PUSH1 0x2 SWAP1 POP PUSH2 0x12A0 JUMP JUMPDEST PUSH1 0x3 SWAP1 POP JUMPDEST SWAP2 SWAP1 POP JUMP JUMPDEST PUSH0 PUSH1 0x9 PUSH0 DUP5 DUP2 MSTORE PUSH1 0x20 ADD SWAP1 DUP2 MSTORE PUSH1 0x20 ADD PUSH0 KECCAK256 SWAP1 POP DUP1 PUSH1 0x5 ADD PUSH1 0x2 SWAP1 SLOAD SWAP1 PUSH2 0x100 EXP SWAP1 DIV PUSH1 0xFF AND PUSH2 0x130A JUMPI PUSH1 0x40 MLOAD PUSH32 0x8C379A000000000000000000000000000000000000000000000000000000000 DUP2 MSTORE PUSH1 0x4 ADD PUSH2 0x1301 SWAP1 PUSH2 0x2E14 JUMP JUMPDEST PUSH1 0x40 MLOAD DUP1 SWAP2 SUB SWAP1 REVERT JUMPDEST DUP1 PUSH1 0x5 ADD PUSH1 0x1 SWAP1 SLOAD SWAP1 PUSH2 0x100 EXP SWAP1 DIV PUSH1 0xFF AND ISZERO PUSH2 0x135C JUMPI PUSH1 0x40 MLOAD PUSH32 0x8C379A000000000000000000000000000000000000000000000000000000000 DUP2 MSTORE PUSH1 0x4 ADD PUSH2 0x1353 SWAP1 PUSH2 0x2E7C JUMP JUMPDEST PUSH1 0x40 MLOAD DUP1 SWAP2 SUB SWAP1 REVERT JUMPDEST PUSH1 0x1 DUP2 PUSH1 0x5 ADD PUSH1 0x1 PUSH2 0x100 EXP DUP2 SLOAD DUP2 PUSH1 0xFF MUL NOT AND SWAP1 DUP4 ISZERO ISZERO MUL OR SWAP1 SSTORE POP PUSH0 DUP2 PUSH1 0x5 ADD PUSH1 0x2 PUSH2 0x100 EXP DUP2 SLOAD DUP2 PUSH1 0xFF MUL NOT AND SWAP1 DUP4 ISZERO ISZERO MUL OR SWAP1 SSTORE POP PUSH0 PUSH1 0x3 PUSH1 0xFF AND DUP4 LT PUSH2 0x13C7 JUMPI PUSH1 0x64 DUP1 PUSH1 0xFF AND DUP4 PUSH1 0x4 ADD SLOAD PUSH2 0x13B6 SWAP2 SWAP1 PUSH2 0x2F6A JUMP JUMPDEST PUSH2 0x13C0 SWAP2 SWAP1 PUSH2 0x2BE2 JUMP JUMPDEST SWAP1 POP PUSH2 0x1429 JUMP JUMPDEST PUSH1 0x2 PUSH1 0xFF AND DUP4 LT PUSH2 0x13F9 JUMPI PUSH1 0x64 PUSH1 0x32 PUSH1 0xFF AND DUP4 PUSH1 0x4 ADD SLOAD PUSH2 0x13E8 SWAP2 SWAP1 PUSH2 0x2F6A JUMP JUMPDEST PUSH2 0x13F2 SWAP2 SWAP1 PUSH2 0x2BE2 JUMP JUMPDEST SWAP1 POP PUSH2 0x1428 JUMP JUMPDEST PUSH1 0x1 PUSH1 0xFF AND DUP4 LT PUSH2 0x1427 JUMPI PUSH1 0x64 PUSH1 0x19 PUSH1 0xFF AND DUP4 PUSH1 0x4 ADD SLOAD PUSH2 0x141A SWAP2 SWAP1 PUSH2 0x2F6A JUMP JUMPDEST PUSH2 0x1424 SWAP2 SWAP1 PUSH2 0x2BE2 JUMP JUMPDEST SWAP1 POP JUMPDEST JUMPDEST JUMPDEST PUSH0 DUP2 GT PUSH2 0x146B JUMPI PUSH1 0x40 MLOAD PUSH32 0x8C379A000000000000000000000000000000000000000000000000000000000 DUP2 MSTORE PUSH1 0x4 ADD PUSH2 0x1462 SWAP1 PUSH2 0x2FF5 JUMP JUMPDEST PUSH1 0x40 MLOAD DUP1 SWAP2 SUB SWAP1 REVERT JUMPDEST DUP1 SELFBALANCE LT ISZERO PUSH2 0x14AE JUMPI PUSH1 0x40 MLOAD PUSH32 0x8C379A000000000000000000000000000000000000000000000000000000000 DUP2 MSTORE PUSH1 0x4 ADD PUSH2 0x14A5 SWAP1 PUSH2 0x305D JUMP JUMPDEST PUSH1 0x40 MLOAD DUP1 SWAP2 SUB SWAP1 REVERT JUMPDEST DUP2 PUSH0 ADD PUSH0 SWAP1 SLOAD SWAP1 PUSH2 0x100 EXP SWAP1 DIV PUSH20 0xFFFFFFFFFFFFFFFFFFFFFFFFFFFFFFFFFFFFFFFF AND PUSH20 0xFFFFFFFFFFFFFFFFFFFFFFFFFFFFFFFFFFFFFFFF AND PUSH2 0x8FC DUP3 SWAP1 DUP2 ISZERO MUL SWAP1 PUSH1 0x40 MLOAD PUSH0 PUSH1 0x40 MLOAD DUP1 DUP4 SUB DUP2 DUP6 DUP9 DUP9 CALL SWAP4 POP POP POP POP ISZERO DUP1 ISZERO PUSH2 0x1513 JUMPI RETURNDATASIZE PUSH0 DUP1 RETURNDATACOPY RETURNDATASIZE PUSH0 REVERT JUMPDEST POP DUP4 PUSH32 0x786E090D783CACED3BADDCB29BD555FFB93FAF484529AB87FEAB4EC4C48A81E1 DUP4 PUSH0 ADD PUSH0 SWAP1 SLOAD SWAP1 PUSH2 0x100 EXP SWAP1 DIV PUSH20 0xFFFFFFFFFFFFFFFFFFFFFFFFFFFFFFFFFFFFFFFF AND DUP4 PUSH1 0x40 MLOAD PUSH2 0x1568 SWAP3 SWAP2 SWAP1 PUSH2 0x2CE6 JUMP JUMPDEST PUSH1 0x40 MLOAD DUP1 SWAP2 SUB SWAP1 LOG2 POP POP POP POP JUMP JUMPDEST PUSH0 PUSH1 0x2 PUSH0 SWAP1 SLOAD SWAP1 PUSH2 0x100 EXP SWAP1 DIV PUSH20 0xFFFFFFFFFFFFFFFFFFFFFFFFFFFFFFFFFFFFFFFF AND SWAP1 POP SWAP1 JUMP JUMPDEST PUSH2 0x15A6 PUSH2 0x1FB8 JUMP JUMPDEST PUSH2 0x15AE PUSH2 0x1FB8 JUMP JUMPDEST PUSH2 0x15C5 DUP6 DUP6 DUP6 DUP5 PUSH2 0x1796 SWAP1 SWAP4 SWAP3 SWAP2 SWAP1 PUSH4 0xFFFFFFFF AND JUMP JUMPDEST SWAP2 POP POP SWAP4 SWAP3 POP POP POP JUMP JUMPDEST PUSH2 0x15E6 DUP3 DUP5 PUSH1 0x80 ADD MLOAD PUSH2 0x1845 SWAP1 SWAP2 SWAP1 PUSH4 0xFFFFFFFF AND JUMP JUMPDEST PUSH2 0x15FD DUP2 DUP5 PUSH1 0x80 ADD MLOAD PUSH2 0x1845 SWAP1 SWAP2 SWAP1 PUSH4 0xFFFFFFFF AND JUMP JUMPDEST POP POP POP JUMP JUMPDEST PUSH2 0x1619 DUP3 DUP5 PUSH1 0x80 ADD MLOAD PUSH2 0x1845 SWAP1 SWAP2 SWAP1 PUSH4 0xFFFFFFFF AND JUMP JUMPDEST PUSH2 0x1630 DUP2 DUP5 PUSH1 0x80 ADD MLOAD PUSH2 0x186A SWAP1 SWAP2 SWAP1 PUSH4 0xFFFFFFFF AND JUMP JUMPDEST POP POP POP JUMP JUMPDEST PUSH0 PUSH2 0x1662 PUSH1 0x3 PUSH0 SWAP1 SLOAD SWAP1 PUSH2 0x100 EXP SWAP1 DIV PUSH20 0xFFFFFFFFFFFFFFFFFFFFFFFFFFFFFFFFFFFFFFFF AND DUP5 DUP5 PUSH2 0x1899 JUMP JUMPDEST SWAP1 POP SWAP3 SWAP2 POP POP JUMP JUMPDEST CALLER PUSH20 0xFFFFFFFFFFFFFFFFFFFFFFFFFFFFFFFFFFFFFFFF AND DUP2 PUSH20 0xFFFFFFFFFFFFFFFFFFFFFFFFFFFFFFFFFFFFFFFF AND SUB PUSH2 0x16D8 JUMPI PUSH1 0x40 MLOAD PUSH32 0x8C379A000000000000000000000000000000000000000000000000000000000 DUP2 MSTORE PUSH1 0x4 ADD PUSH2 0x16CF SWAP1 PUSH2 0x30C5 JUMP JUMPDEST PUSH1 0x40 MLOAD DUP1 SWAP2 SUB SWAP1 REVERT JUMPDEST DUP1 PUSH1 0x7 PUSH0 PUSH2 0x100 EXP DUP2 SLOAD DUP2 PUSH20 0xFFFFFFFFFFFFFFFFFFFFFFFFFFFFFFFFFFFFFFFF MUL NOT AND SWAP1 DUP4 PUSH20 0xFFFFFFFFFFFFFFFFFFFFFFFFFFFFFFFFFFFFFFFF AND MUL OR SWAP1 SSTORE POP DUP1 PUSH20 0xFFFFFFFFFFFFFFFFFFFFFFFFFFFFFFFFFFFFFFFF AND PUSH1 0x6 PUSH0 SWAP1 SLOAD SWAP1 PUSH2 0x100 EXP SWAP1 DIV PUSH20 0xFFFFFFFFFFFFFFFFFFFFFFFFFFFFFFFFFFFFFFFF AND PUSH20 0xFFFFFFFFFFFFFFFFFFFFFFFFFFFFFFFFFFFFFFFF AND PUSH32 0xED8889F560326EB138920D842192F0EB3DD22B4F139C87A2C57538E05BAE1278 PUSH1 0x40 MLOAD PUSH1 0x40 MLOAD DUP1 SWAP2 SUB SWAP1 LOG3 POP JUMP JUMPDEST PUSH2 0x179E PUSH2 0x1FB8 JUMP JUMPDEST PUSH2 0x17AE DUP6 PUSH1 0x80 ADD MLOAD PUSH2 0x100 PUSH2 0x1960 JUMP JUMPDEST POP DUP4 DUP6 PUSH0 ADD DUP2 DUP2 MSTORE POP POP DUP3 DUP6 PUSH1 0x20 ADD SWAP1 PUSH20 0xFFFFFFFFFFFFFFFFFFFFFFFFFFFFFFFFFFFFFFFF AND SWAP1 DUP2 PUSH20 0xFFFFFFFFFFFFFFFFFFFFFFFFFFFFFFFFFFFFFFFF AND DUP2 MSTORE POP POP DUP2 DUP6 PUSH1 0x40 ADD SWAP1 PUSH28 0xFFFFFFFFFFFFFFFFFFFFFFFFFFFFFFFFFFFFFFFFFFFFFFFFFFFFFFFF NOT AND SWAP1 DUP2 PUSH28 0xFFFFFFFFFFFFFFFFFFFFFFFFFFFFFFFFFFFFFFFFFFFFFFFFFFFFFFFF NOT AND DUP2 MSTORE POP POP DUP5 SWAP1 POP SWAP5 SWAP4 POP POP POP POP JUMP JUMPDEST PUSH2 0x1852 DUP3 PUSH1 0x3 DUP4 MLOAD PUSH2 0x19C8 JUMP JUMPDEST PUSH2 0x1865 DUP2 DUP4 PUSH2 0x1B4D SWAP1 SWAP2 SWAP1 PUSH4 0xFFFFFFFF AND JUMP JUMPDEST POP POP POP JUMP JUMPDEST PUSH8 0xFFFFFFFFFFFFFFFF DUP2 GT ISZERO PUSH2 0x1889 JUMPI PUSH2 0x1884 DUP3 DUP3 PUSH2 0x1B6E JUMP JUMPDEST PUSH2 0x1895 JUMP JUMPDEST PUSH2 0x1894 DUP3 PUSH0 DUP4 PUSH2 0x19C8 JUMP JUMPDEST JUMPDEST POP POP JUMP JUMPDEST PUSH0 DUP1 PUSH1 0x4 SLOAD SWAP1 POP PUSH1 0x1 DUP2 PUSH2 0x18AD SWAP2 SWAP1 PUSH2 0x30E3 JUMP JUMPDEST PUSH1 0x4 DUP2 SWAP1 SSTORE POP PUSH0 PUSH4 0x40429946 PUSH1 0xE0 SHL PUSH0 DUP1 DUP8 PUSH0 ADD MLOAD ADDRESS DUP10 PUSH1 0x40 ADD MLOAD DUP8 PUSH1 0x1 DUP13 PUSH1 0x80 ADD MLOAD PUSH0 ADD MLOAD PUSH1 0x40 MLOAD PUSH1 0x24 ADD PUSH2 0x18EA SWAP9 SWAP8 SWAP7 SWAP6 SWAP5 SWAP4 SWAP3 SWAP2 SWAP1 PUSH2 0x31A2 JUMP JUMPDEST PUSH1 0x40 MLOAD PUSH1 0x20 DUP2 DUP4 SUB SUB DUP2 MSTORE SWAP1 PUSH1 0x40 MSTORE SWAP1 PUSH28 0xFFFFFFFFFFFFFFFFFFFFFFFFFFFFFFFFFFFFFFFFFFFFFFFFFFFFFFFF NOT AND PUSH1 0x20 DUP3 ADD DUP1 MLOAD PUSH28 0xFFFFFFFFFFFFFFFFFFFFFFFFFFFFFFFFFFFFFFFFFFFFFFFFFFFFFFFF DUP4 DUP2 DUP4 AND OR DUP4 MSTORE POP POP POP POP SWAP1 POP PUSH2 0x1955 DUP7 DUP4 DUP7 DUP5 PUSH2 0x1BBA JUMP JUMPDEST SWAP3 POP POP POP SWAP4 SWAP3 POP POP POP JUMP JUMPDEST PUSH2 0x1968 PUSH2 0x2021 JUMP JUMPDEST PUSH0 PUSH1 0x20 DUP4 PUSH2 0x1976 SWAP2 SWAP1 PUSH2 0x3225 JUMP JUMPDEST EQ PUSH2 0x19A2 JUMPI PUSH1 0x20 DUP3 PUSH2 0x1988 SWAP2 SWAP1 PUSH2 0x3225 JUMP JUMPDEST PUSH1 0x20 PUSH2 0x1994 SWAP2 SWAP1 PUSH2 0x3255 JUMP JUMPDEST DUP3 PUSH2 0x199F SWAP2 SWAP1 PUSH2 0x30E3 JUMP JUMPDEST SWAP2 POP JUMPDEST DUP2 DUP4 PUSH1 0x20 ADD DUP2 DUP2 MSTORE POP POP PUSH1 0x40 MLOAD DUP1 DUP5 MSTORE PUSH0 DUP2 MSTORE DUP3 DUP2 ADD PUSH1 0x20 ADD PUSH1 0x40 MSTORE POP DUP3 SWAP1 POP SWAP3 SWAP2 POP POP JUMP JUMPDEST PUSH1 0x17 DUP2 PUSH8 0xFFFFFFFFFFFFFFFF AND GT PUSH2 0x19FF JUMPI PUSH2 0x19F9 DUP2 PUSH1 0x5 DUP5 PUSH1 0xFF AND SWAP1 SHL PUSH1 0xFF AND OR DUP5 PUSH2 0x1D47 SWAP1 SWAP2 SWAP1 PUSH4 0xFFFFFFFF AND JUMP JUMPDEST POP PUSH2 0x1B48 JUMP JUMPDEST PUSH1 0xFF DUP2 PUSH8 0xFFFFFFFFFFFFFFFF AND GT PUSH2 0x1A55 JUMPI PUSH2 0x1A2E PUSH1 0x18 PUSH1 0x5 DUP5 PUSH1 0xFF AND SWAP1 SHL OR DUP5 PUSH2 0x1D47 SWAP1 SWAP2 SWAP1 PUSH4 0xFFFFFFFF AND JUMP JUMPDEST POP PUSH2 0x1A4F DUP2 PUSH8 0xFFFFFFFFFFFFFFFF AND PUSH1 0x1 DUP6 PUSH2 0x1D66 SWAP1 SWAP3 SWAP2 SWAP1 PUSH4 0xFFFFFFFF AND JUMP JUMPDEST POP PUSH2 0x1B47 JUMP JUMPDEST PUSH2 0xFFFF DUP2 PUSH8 0xFFFFFFFFFFFFFFFF AND GT PUSH2 0x1AAC JUMPI PUSH2 0x1A85 PUSH1 0x19 PUSH1 0x5 DUP5 PUSH1 0xFF AND SWAP1 SHL OR DUP5 PUSH2 0x1D47 SWAP1 SWAP2 SWAP1 PUSH4 0xFFFFFFFF AND JUMP JUMPDEST POP PUSH2 0x1AA6 DUP2 PUSH8 0xFFFFFFFFFFFFFFFF AND PUSH1 0x2 DUP6 PUSH2 0x1D66 SWAP1 SWAP3 SWAP2 SWAP1 PUSH4 0xFFFFFFFF AND JUMP JUMPDEST POP PUSH2 0x1B46 JUMP JUMPDEST PUSH4 0xFFFFFFFF DUP2 PUSH8 0xFFFFFFFFFFFFFFFF AND GT PUSH2 0x1B05 JUMPI PUSH2 0x1ADE PUSH1 0x1A PUSH1 0x5 DUP5 PUSH1 0xFF AND SWAP1 SHL OR DUP5 PUSH2 0x1D47 SWAP1 SWAP2 SWAP1 PUSH4 0xFFFFFFFF AND JUMP JUMPDEST POP PUSH2 0x1AFF DUP2 PUSH8 0xFFFFFFFFFFFFFFFF AND PUSH1 0x4 DUP6 PUSH2 0x1D66 SWAP1 SWAP3 SWAP2 SWAP1 PUSH4 0xFFFFFFFF AND JUMP JUMPDEST POP PUSH2 0x1B45 JUMP JUMPDEST PUSH2 0x1B22 PUSH1 0x1B PUSH1 0x5 DUP5 PUSH1 0xFF AND SWAP1 SHL OR DUP5 PUSH2 0x1D47 SWAP1 SWAP2 SWAP1 PUSH4 0xFFFFFFFF AND JUMP JUMPDEST POP PUSH2 0x1B43 DUP2 PUSH8 0xFFFFFFFFFFFFFFFF AND PUSH1 0x8 DUP6 PUSH2 0x1D66 SWAP1 SWAP3 SWAP2 SWAP1 PUSH4 0xFFFFFFFF AND JUMP JUMPDEST POP JUMPDEST JUMPDEST JUMPDEST JUMPDEST POP POP POP JUMP JUMPDEST PUSH2 0x1B55 PUSH2 0x2021 JUMP JUMPDEST PUSH2 0x1B66 DUP4 DUP5 PUSH0 ADD MLOAD MLOAD DUP5 DUP6 MLOAD PUSH2 0x1D87 JUMP JUMPDEST SWAP1 POP SWAP3 SWAP2 POP POP JUMP JUMPDEST PUSH2 0x1B8C PUSH1 0x2 PUSH1 0x5 PUSH1 0x6 PUSH1 0xFF AND SWAP1 SHL OR DUP4 PUSH2 0x1D47 SWAP1 SWAP2 SWAP1 PUSH4 0xFFFFFFFF AND JUMP JUMPDEST POP PUSH2 0x1BB6 DUP3 DUP3 PUSH1 0x40 MLOAD PUSH1 0x20 ADD PUSH2 0x1BA2 SWAP2 SWAP1 PUSH2 0x260F JUMP JUMPDEST PUSH1 0x40 MLOAD PUSH1 0x20 DUP2 DUP4 SUB SUB DUP2 MSTORE SWAP1 PUSH1 0x40 MSTORE PUSH2 0x1E73 JUMP JUMPDEST POP POP JUMP JUMPDEST PUSH0 ADDRESS DUP5 PUSH1 0x40 MLOAD PUSH1 0x20 ADD PUSH2 0x1BCE SWAP3 SWAP2 SWAP1 PUSH2 0x3330 JUMP JUMPDEST PUSH1 0x40 MLOAD PUSH1 0x20 DUP2 DUP4 SUB SUB DUP2 MSTORE SWAP1 PUSH1 0x40 MSTORE DUP1 MLOAD SWAP1 PUSH1 0x20 ADD KECCAK256 SWAP1 POP DUP5 PUSH1 0x5 PUSH0 DUP4 DUP2 MSTORE PUSH1 0x20 ADD SWAP1 DUP2 MSTORE PUSH1 0x20 ADD PUSH0 KECCAK256 PUSH0 PUSH2 0x100 EXP DUP2 SLOAD DUP2 PUSH20 0xFFFFFFFFFFFFFFFFFFFFFFFFFFFFFFFFFFFFFFFF MUL NOT AND SWAP1 DUP4 PUSH20 0xFFFFFFFFFFFFFFFFFFFFFFFFFFFFFFFFFFFFFFFF AND MUL OR SWAP1 SSTORE POP DUP1 PUSH32 0xB5E6E01E79F91267DC17B4E6314D5D4D03593D2CEEE0FBB452B750BD70EA5AF9 PUSH1 0x40 MLOAD PUSH1 0x40 MLOAD DUP1 SWAP2 SUB SWAP1 LOG2 PUSH1 0x2 PUSH0 SWAP1 SLOAD SWAP1 PUSH2 0x100 EXP SWAP1 DIV PUSH20 0xFFFFFFFFFFFFFFFFFFFFFFFFFFFFFFFFFFFFFFFF AND PUSH20 0xFFFFFFFFFFFFFFFFFFFFFFFFFFFFFFFFFFFFFFFF AND PUSH4 0x4000AEA0 DUP7 DUP6 DUP6 PUSH1 0x40 MLOAD DUP5 PUSH4 0xFFFFFFFF AND PUSH1 0xE0 SHL DUP2 MSTORE PUSH1 0x4 ADD PUSH2 0x1CC0 SWAP4 SWAP3 SWAP2 SWAP1 PUSH2 0x335B JUMP JUMPDEST PUSH1 0x20 PUSH1 0x40 MLOAD DUP1 DUP4 SUB DUP2 PUSH0 DUP8 GAS CALL ISZERO DUP1 ISZERO PUSH2 0x1CDC JUMPI RETURNDATASIZE PUSH0 DUP1 RETURNDATACOPY RETURNDATASIZE PUSH0 REVERT JUMPDEST POP POP POP POP PUSH1 0x40 MLOAD RETURNDATASIZE PUSH1 0x1F NOT PUSH1 0x1F DUP3 ADD AND DUP3 ADD DUP1 PUSH1 0x40 MSTORE POP DUP2 ADD SWAP1 PUSH2 0x1D00 SWAP2 SWAP1 PUSH2 0x2D37 JUMP JUMPDEST PUSH2 0x1D3F JUMPI PUSH1 0x40 MLOAD PUSH32 0x8C379A000000000000000000000000000000000000000000000000000000000 DUP2 MSTORE PUSH1 0x4 ADD PUSH2 0x1D36 SWAP1 PUSH2 0x3407 JUMP JUMPDEST PUSH1 0x40 MLOAD DUP1 SWAP2 SUB SWAP1 REVERT JUMPDEST SWAP5 SWAP4 POP POP POP POP JUMP JUMPDEST PUSH2 0x1D4F PUSH2 0x2021 JUMP JUMPDEST PUSH2 0x1D5E DUP4 DUP5 PUSH0 ADD MLOAD MLOAD DUP5 PUSH2 0x1E98 JUMP JUMPDEST SWAP1 POP SWAP3 SWAP2 POP POP JUMP JUMPDEST PUSH2 0x1D6E PUSH2 0x2021 JUMP JUMPDEST PUSH2 0x1D7E DUP5 DUP6 PUSH0 ADD MLOAD MLOAD DUP6 DUP6 PUSH2 0x1EEE JUMP JUMPDEST SWAP1 POP SWAP4 SWAP3 POP POP POP JUMP JUMPDEST PUSH2 0x1D8F PUSH2 0x2021 JUMP JUMPDEST DUP3 MLOAD DUP3 GT ISZERO PUSH2 0x1D9C JUMPI PUSH0 DUP1 REVERT JUMPDEST DUP5 PUSH1 0x20 ADD MLOAD DUP3 DUP6 PUSH2 0x1DAD SWAP2 SWAP1 PUSH2 0x30E3 JUMP JUMPDEST GT ISZERO PUSH2 0x1DE2 JUMPI PUSH2 0x1DE1 DUP6 PUSH1 0x2 PUSH2 0x1DD2 DUP9 PUSH1 0x20 ADD MLOAD DUP9 DUP8 PUSH2 0x1DCD SWAP2 SWAP1 PUSH2 0x30E3 JUMP JUMPDEST PUSH2 0x1F7B JUMP JUMPDEST PUSH2 0x1DDC SWAP2 SWAP1 PUSH2 0x2F6A JUMP JUMPDEST PUSH2 0x1F96 JUMP JUMPDEST JUMPDEST PUSH0 DUP1 DUP7 MLOAD DUP1 MLOAD DUP8 PUSH1 0x20 DUP4 ADD ADD SWAP4 POP DUP1 DUP9 DUP8 ADD GT ISZERO PUSH2 0x1E00 JUMPI DUP8 DUP7 ADD DUP3 MSTORE JUMPDEST PUSH1 0x20 DUP8 ADD SWAP3 POP POP POP JUMPDEST PUSH1 0x20 DUP5 LT PUSH2 0x1E47 JUMPI DUP1 MLOAD DUP3 MSTORE PUSH1 0x20 DUP3 PUSH2 0x1E22 SWAP2 SWAP1 PUSH2 0x30E3 JUMP JUMPDEST SWAP2 POP PUSH1 0x20 DUP2 PUSH2 0x1E31 SWAP2 SWAP1 PUSH2 0x30E3 JUMP JUMPDEST SWAP1 POP PUSH1 0x20 DUP5 PUSH2 0x1E40 SWAP2 SWAP1 PUSH2 0x3255 JUMP JUMPDEST SWAP4 POP PUSH2 0x1E09 JUMP JUMPDEST PUSH0 PUSH1 0x1 DUP6 PUSH1 0x20 SUB PUSH2 0x100 EXP SUB SWAP1 POP DUP1 NOT DUP3 MLOAD AND DUP2 DUP5 MLOAD AND DUP2 DUP2 OR DUP6 MSTORE POP POP POP DUP7 SWAP3 POP POP POP SWAP5 SWAP4 POP POP POP POP JUMP JUMPDEST PUSH2 0x1E80 DUP3 PUSH1 0x2 DUP4 MLOAD PUSH2 0x19C8 JUMP JUMPDEST PUSH2 0x1E93 DUP2 DUP4 PUSH2 0x1B4D SWAP1 SWAP2 SWAP1 PUSH4 0xFFFFFFFF AND JUMP JUMPDEST POP POP POP JUMP JUMPDEST PUSH2 0x1EA0 PUSH2 0x2021 JUMP JUMPDEST DUP4 PUSH1 0x20 ADD MLOAD DUP4 LT PUSH2 0x1EC6 JUMPI PUSH2 0x1EC5 DUP5 PUSH1 0x2 DUP7 PUSH1 0x20 ADD MLOAD PUSH2 0x1EC0 SWAP2 SWAP1 PUSH2 0x2F6A JUMP JUMPDEST PUSH2 0x1F96 JUMP JUMPDEST JUMPDEST DUP4 MLOAD DUP1 MLOAD PUSH1 0x20 DUP6 DUP4 ADD ADD DUP5 DUP2 MSTORE8 DUP2 DUP7 SUB PUSH2 0x1EE1 JUMPI PUSH1 0x1 DUP3 ADD DUP4 MSTORE JUMPDEST POP POP POP DUP4 SWAP1 POP SWAP4 SWAP3 POP POP POP JUMP JUMPDEST PUSH2 0x1EF6 PUSH2 0x2021 JUMP JUMPDEST DUP5 PUSH1 0x20 ADD MLOAD DUP5 DUP4 PUSH2 0x1F07 SWAP2 SWAP1 PUSH2 0x30E3 JUMP JUMPDEST GT ISZERO PUSH2 0x1F2F JUMPI PUSH2 0x1F2E DUP6 PUSH1 0x2 DUP7 DUP6 PUSH2 0x1F1F SWAP2 SWAP1 PUSH2 0x30E3 JUMP JUMPDEST PUSH2 0x1F29 SWAP2 SWAP1 PUSH2 0x2F6A JUMP JUMPDEST PUSH2 0x1F96 JUMP JUMPDEST JUMPDEST PUSH0 PUSH1 0x1 DUP4 PUSH2 0x100 PUSH2 0x1F40 SWAP2 SWAP1 PUSH2 0x3554 JUMP JUMPDEST PUSH2 0x1F4A SWAP2 SWAP1 PUSH2 0x3255 JUMP JUMPDEST SWAP1 POP DUP6 MLOAD DUP4 DUP7 DUP3 ADD ADD DUP6 DUP4 NOT DUP3 MLOAD AND OR DUP2 MSTORE DUP2 MLOAD DUP6 DUP9 ADD GT ISZERO PUSH2 0x1F6D JUMPI DUP5 DUP8 ADD DUP3 MSTORE JUMPDEST POP POP DUP6 SWAP2 POP POP SWAP5 SWAP4 POP POP POP POP JUMP JUMPDEST PUSH0 DUP2 DUP4 GT ISZERO PUSH2 0x1F8C JUMPI DUP3 SWAP1 POP PUSH2 0x1F90 JUMP JUMPDEST DUP2 SWAP1 POP JUMPDEST SWAP3 SWAP2 POP POP JUMP JUMPDEST PUSH0 DUP3 PUSH0 ADD MLOAD SWAP1 POP PUSH2 0x1FA7 DUP4 DUP4 PUSH2 0x1960 JUMP JUMPDEST POP PUSH2 0x1FB2 DUP4 DUP3 PUSH2 0x1B4D JUMP JUMPDEST POP POP POP POP JUMP JUMPDEST PUSH1 0x40 MLOAD DUP1 PUSH1 0xA0 ADD PUSH1 0x40 MSTORE DUP1 PUSH0 DUP1 NOT AND DUP2 MSTORE PUSH1 0x20 ADD PUSH0 PUSH20 0xFFFFFFFFFFFFFFFFFFFFFFFFFFFFFFFFFFFFFFFF AND DUP2 MSTORE PUSH1 0x20 ADD PUSH0 PUSH28 0xFFFFFFFFFFFFFFFFFFFFFFFFFFFFFFFFFFFFFFFFFFFFFFFFFFFFFFFF NOT AND DUP2 MSTORE PUSH1 0x20 ADD PUSH0 DUP2 MSTORE PUSH1 0x20 ADD PUSH2 0x201B PUSH2 0x2021 JUMP JUMPDEST DUP2 MSTORE POP SWAP1 JUMP JUMPDEST PUSH1 0x40 MLOAD DUP1 PUSH1 0x40 ADD PUSH1 0x40 MSTORE DUP1 PUSH1 0x60 DUP2 MSTORE PUSH1 0x20 ADD PUSH0 DUP2 MSTORE POP SWAP1 JUMP JUMPDEST PUSH0 PUSH1 0x40 MLOAD SWAP1 POP SWAP1 JUMP JUMPDEST PUSH0 DUP1 REVERT JUMPDEST PUSH0 DUP1 REVERT JUMPDEST PUSH0 PUSH20 0xFFFFFFFFFFFFFFFFFFFFFFFFFFFFFFFFFFFFFFFF DUP3 AND SWAP1 POP SWAP2 SWAP1 POP JUMP JUMPDEST PUSH0 PUSH2 0x2074 DUP3 PUSH2 0x204B JUMP JUMPDEST SWAP1 POP SWAP2 SWAP1 POP JUMP JUMPDEST PUSH2 0x2084 DUP2 PUSH2 0x206A JUMP JUMPDEST DUP2 EQ PUSH2 0x208E JUMPI PUSH0 DUP1 REVERT JUMPDEST POP JUMP JUMPDEST PUSH0 DUP2 CALLDATALOAD SWAP1 POP PUSH2 0x209F DUP2 PUSH2 0x207B JUMP JUMPDEST SWAP3 SWAP2 POP POP JUMP JUMPDEST PUSH0 DUP2 SWAP1 POP SWAP2 SWAP1 POP JUMP JUMPDEST PUSH2 0x20B7 DUP2 PUSH2 0x20A5 JUMP JUMPDEST DUP2 EQ PUSH2 0x20C1 JUMPI PUSH0 DUP1 REVERT JUMPDEST POP JUMP JUMPDEST PUSH0 DUP2 CALLDATALOAD SWAP1 POP PUSH2 0x20D2 DUP2 PUSH2 0x20AE JUMP JUMPDEST SWAP3 SWAP2 POP POP JUMP JUMPDEST PUSH0 DUP2 SWAP1 POP SWAP2 SWAP1 POP JUMP JUMPDEST PUSH2 0x20EA DUP2 PUSH2 0x20D8 JUMP JUMPDEST DUP2 EQ PUSH2 0x20F4 JUMPI PUSH0 DUP1 REVERT JUMPDEST POP JUMP JUMPDEST PUSH0 DUP2 CALLDATALOAD SWAP1 POP PUSH2 0x2105 DUP2 PUSH2 0x20E1 JUMP JUMPDEST SWAP3 SWAP2 POP POP JUMP JUMPDEST PUSH0 DUP1 PUSH0 PUSH1 0x60 DUP5 DUP7 SUB SLT ISZERO PUSH2 0x2122 JUMPI PUSH2 0x2121 PUSH2 0x2043 JUMP JUMPDEST JUMPDEST PUSH0 PUSH2 0x212F DUP7 DUP3 DUP8 ADD PUSH2 0x2091 JUMP JUMPDEST SWAP4 POP POP PUSH1 0x20 PUSH2 0x2140 DUP7 DUP3 DUP8 ADD PUSH2 0x20C4 JUMP JUMPDEST SWAP3 POP POP PUSH1 0x40 PUSH2 0x2151 DUP7 DUP3 DUP8 ADD PUSH2 0x20F7 JUMP JUMPDEST SWAP2 POP POP SWAP3 POP SWAP3 POP SWAP3 JUMP JUMPDEST PUSH0 PUSH1 0xFF DUP3 AND SWAP1 POP SWAP2 SWAP1 POP JUMP JUMPDEST PUSH2 0x2170 DUP2 PUSH2 0x215B JUMP JUMPDEST DUP3 MSTORE POP POP JUMP JUMPDEST PUSH0 PUSH1 0x20 DUP3 ADD SWAP1 POP PUSH2 0x2189 PUSH0 DUP4 ADD DUP5 PUSH2 0x2167 JUMP JUMPDEST SWAP3 SWAP2 POP POP JUMP JUMPDEST PUSH0 DUP1 REVERT JUMPDEST PUSH0 DUP1 REVERT JUMPDEST PUSH0 PUSH1 0x1F NOT PUSH1 0x1F DUP4 ADD AND SWAP1 POP SWAP2 SWAP1 POP JUMP JUMPDEST PUSH32 0x4E487B7100000000000000000000000000000000000000000000000000000000 PUSH0 MSTORE PUSH1 0x41 PUSH1 0x4 MSTORE PUSH1 0x24 PUSH0 REVERT JUMPDEST PUSH2 0x21DD DUP3 PUSH2 0x2197 JUMP JUMPDEST DUP2 ADD DUP2 DUP2 LT PUSH8 0xFFFFFFFFFFFFFFFF DUP3 GT OR ISZERO PUSH2 0x21FC JUMPI PUSH2 0x21FB PUSH2 0x21A7 JUMP JUMPDEST JUMPDEST DUP1 PUSH1 0x40 MSTORE POP POP POP JUMP JUMPDEST PUSH0 PUSH2 0x220E PUSH2 0x203A JUMP JUMPDEST SWAP1 POP PUSH2 0x221A DUP3 DUP3 PUSH2 0x21D4 JUMP JUMPDEST SWAP2 SWAP1 POP JUMP JUMPDEST PUSH0 PUSH8 0xFFFFFFFFFFFFFFFF DUP3 GT ISZERO PUSH2 0x2239 JUMPI PUSH2 0x2238 PUSH2 0x21A7 JUMP JUMPDEST JUMPDEST PUSH2 0x2242 DUP3 PUSH2 0x2197 JUMP JUMPDEST SWAP1 POP PUSH1 0x20 DUP2 ADD SWAP1 POP SWAP2 SWAP1 POP JUMP JUMPDEST DUP3 DUP2 DUP4 CALLDATACOPY PUSH0 DUP4 DUP4 ADD MSTORE POP POP POP JUMP JUMPDEST PUSH0 PUSH2 0x226F PUSH2 0x226A DUP5 PUSH2 0x221F JUMP JUMPDEST PUSH2 0x2205 JUMP JUMPDEST SWAP1 POP DUP3 DUP2 MSTORE PUSH1 0x20 DUP2 ADD DUP5 DUP5 DUP5 ADD GT ISZERO PUSH2 0x228B JUMPI PUSH2 0x228A PUSH2 0x2193 JUMP JUMPDEST JUMPDEST PUSH2 0x2296 DUP5 DUP3 DUP6 PUSH2 0x224F JUMP JUMPDEST POP SWAP4 SWAP3 POP POP POP JUMP JUMPDEST PUSH0 DUP3 PUSH1 0x1F DUP4 ADD SLT PUSH2 0x22B2 JUMPI PUSH2 0x22B1 PUSH2 0x218F JUMP JUMPDEST JUMPDEST DUP2 CALLDATALOAD PUSH2 0x22C2 DUP5 DUP3 PUSH1 0x20 DUP7 ADD PUSH2 0x225D JUMP JUMPDEST SWAP2 POP POP SWAP3 SWAP2 POP POP JUMP JUMPDEST PUSH2 0x22D4 DUP2 PUSH2 0x215B JUMP JUMPDEST DUP2 EQ PUSH2 0x22DE JUMPI PUSH0 DUP1 REVERT JUMPDEST POP JUMP JUMPDEST PUSH0 DUP2 CALLDATALOAD SWAP1 POP PUSH2 0x22EF DUP2 PUSH2 0x22CB JUMP JUMPDEST SWAP3 SWAP2 POP POP JUMP JUMPDEST PUSH0 DUP1 PUSH0 PUSH1 0x60 DUP5 DUP7 SUB SLT ISZERO PUSH2 0x230C JUMPI PUSH2 0x230B PUSH2 0x2043 JUMP JUMPDEST JUMPDEST PUSH0 DUP5 ADD CALLDATALOAD PUSH8 0xFFFFFFFFFFFFFFFF DUP2 GT ISZERO PUSH2 0x2329 JUMPI PUSH2 0x2328 PUSH2 0x2047 JUMP JUMPDEST JUMPDEST PUSH2 0x2335 DUP7 DUP3 DUP8 ADD PUSH2 0x229E JUMP JUMPDEST SWAP4 POP POP PUSH1 0x20 PUSH2 0x2346 DUP7 DUP3 DUP8 ADD PUSH2 0x20F7 JUMP JUMPDEST SWAP3 POP POP PUSH1 0x40 PUSH2 0x2357 DUP7 DUP3 DUP8 ADD PUSH2 0x22E1 JUMP JUMPDEST SWAP2 POP POP SWAP3 POP SWAP3 POP SWAP3 JUMP JUMPDEST PUSH0 DUP1 PUSH1 0x40 DUP4 DUP6 SUB SLT ISZERO PUSH2 0x2377 JUMPI PUSH2 0x2376 PUSH2 0x2043 JUMP JUMPDEST JUMPDEST PUSH0 PUSH2 0x2384 DUP6 DUP3 DUP7 ADD PUSH2 0x20C4 JUMP JUMPDEST SWAP3 POP POP PUSH1 0x20 PUSH2 0x2395 DUP6 DUP3 DUP7 ADD PUSH2 0x20F7 JUMP JUMPDEST SWAP2 POP POP SWAP3 POP SWAP3 SWAP1 POP JUMP JUMPDEST PUSH0 PUSH1 0x20 DUP3 DUP5 SUB SLT ISZERO PUSH2 0x23B4 JUMPI PUSH2 0x23B3 PUSH2 0x2043 JUMP JUMPDEST JUMPDEST PUSH0 PUSH2 0x23C1 DUP5 DUP3 DUP6 ADD PUSH2 0x2091 JUMP JUMPDEST SWAP2 POP POP SWAP3 SWAP2 POP POP JUMP JUMPDEST PUSH0 DUP2 MLOAD SWAP1 POP SWAP2 SWAP1 POP JUMP JUMPDEST PUSH0 DUP3 DUP3 MSTORE PUSH1 0x20 DUP3 ADD SWAP1 POP SWAP3 SWAP2 POP POP JUMP JUMPDEST PUSH0 DUP2 SWAP1 POP PUSH1 0x20 DUP3 ADD SWAP1 POP SWAP2 SWAP1 POP JUMP JUMPDEST PUSH2 0x23FC DUP2 PUSH2 0x20D8 JUMP JUMPDEST DUP3 MSTORE POP POP JUMP JUMPDEST PUSH0 PUSH2 0x240D DUP4 DUP4 PUSH2 0x23F3 JUMP JUMPDEST PUSH1 0x20 DUP4 ADD SWAP1 POP SWAP3 SWAP2 POP POP JUMP JUMPDEST PUSH0 PUSH1 0x20 DUP3 ADD SWAP1 POP SWAP2 SWAP1 POP JUMP JUMPDEST PUSH0 PUSH2 0x242F DUP3 PUSH2 0x23CA JUMP JUMPDEST PUSH2 0x2439 DUP2 DUP6 PUSH2 0x23D4 JUMP JUMPDEST SWAP4 POP PUSH2 0x2444 DUP4 PUSH2 0x23E4 JUMP JUMPDEST DUP1 PUSH0 JUMPDEST DUP4 DUP2 LT ISZERO PUSH2 0x2474 JUMPI DUP2 MLOAD PUSH2 0x245B DUP9 DUP3 PUSH2 0x2402 JUMP JUMPDEST SWAP8 POP PUSH2 0x2466 DUP4 PUSH2 0x2419 JUMP JUMPDEST SWAP3 POP POP PUSH1 0x1 DUP2 ADD SWAP1 POP PUSH2 0x2447 JUMP JUMPDEST POP DUP6 SWAP4 POP POP POP POP SWAP3 SWAP2 POP POP JUMP JUMPDEST PUSH0 PUSH1 0x20 DUP3 ADD SWAP1 POP DUP2 DUP2 SUB PUSH0 DUP4 ADD MSTORE PUSH2 0x2499 DUP2 DUP5 PUSH2 0x2425 JUMP JUMPDEST SWAP1 POP SWAP3 SWAP2 POP POP JUMP JUMPDEST PUSH2 0x24AA DUP2 PUSH2 0x206A JUMP JUMPDEST DUP3 MSTORE POP POP JUMP JUMPDEST PUSH0 PUSH1 0x20 DUP3 ADD SWAP1 POP PUSH2 0x24C3 PUSH0 DUP4 ADD DUP5 PUSH2 0x24A1 JUMP JUMPDEST SWAP3 SWAP2 POP POP JUMP JUMPDEST PUSH0 PUSH1 0x20 DUP3 DUP5 SUB SLT ISZERO PUSH2 0x24DE JUMPI PUSH2 0x24DD PUSH2 0x2043 JUMP JUMPDEST JUMPDEST PUSH0 PUSH2 0x24EB DUP5 DUP3 DUP6 ADD PUSH2 0x20F7 JUMP JUMPDEST SWAP2 POP POP SWAP3 SWAP2 POP POP JUMP JUMPDEST PUSH0 DUP2 MLOAD SWAP1 POP SWAP2 SWAP1 POP JUMP JUMPDEST PUSH0 DUP3 DUP3 MSTORE PUSH1 0x20 DUP3 ADD SWAP1 POP SWAP3 SWAP2 POP POP JUMP JUMPDEST DUP3 DUP2 DUP4 MCOPY PUSH0 DUP4 DUP4 ADD MSTORE POP POP POP JUMP JUMPDEST PUSH0 PUSH2 0x2526 DUP3 PUSH2 0x24F4 JUMP JUMPDEST PUSH2 0x2530 DUP2 DUP6 PUSH2 0x24FE JUMP JUMPDEST SWAP4 POP PUSH2 0x2540 DUP2 DUP6 PUSH1 0x20 DUP7 ADD PUSH2 0x250E JUMP JUMPDEST PUSH2 0x2549 DUP2 PUSH2 0x2197 JUMP JUMPDEST DUP5 ADD SWAP2 POP POP SWAP3 SWAP2 POP POP JUMP JUMPDEST PUSH2 0x255D DUP2 PUSH2 0x20D8 JUMP JUMPDEST DUP3 MSTORE POP POP JUMP JUMPDEST PUSH0 DUP2 ISZERO ISZERO SWAP1 POP SWAP2 SWAP1 POP JUMP JUMPDEST PUSH2 0x2577 DUP2 PUSH2 0x2563 JUMP JUMPDEST DUP3 MSTORE POP POP JUMP JUMPDEST PUSH0 PUSH2 0x120 DUP3 ADD SWAP1 POP PUSH2 0x2591 PUSH0 DUP4 ADD DUP13 PUSH2 0x24A1 JUMP JUMPDEST DUP2 DUP2 SUB PUSH1 0x20 DUP4 ADD MSTORE PUSH2 0x25A3 DUP2 DUP12 PUSH2 0x251C JUMP JUMPDEST SWAP1 POP PUSH2 0x25B2 PUSH1 0x40 DUP4 ADD DUP11 PUSH2 0x2554 JUMP JUMPDEST PUSH2 0x25BF PUSH1 0x60 DUP4 ADD DUP10 PUSH2 0x2554 JUMP JUMPDEST PUSH2 0x25CC PUSH1 0x80 DUP4 ADD DUP9 PUSH2 0x2554 JUMP JUMPDEST PUSH2 0x25D9 PUSH1 0xA0 DUP4 ADD DUP8 PUSH2 0x2167 JUMP JUMPDEST PUSH2 0x25E6 PUSH1 0xC0 DUP4 ADD DUP7 PUSH2 0x256E JUMP JUMPDEST PUSH2 0x25F3 PUSH1 0xE0 DUP4 ADD DUP6 PUSH2 0x256E JUMP JUMPDEST PUSH2 0x2601 PUSH2 0x100 DUP4 ADD DUP5 PUSH2 0x2167 JUMP JUMPDEST SWAP11 SWAP10 POP POP POP POP POP POP POP POP POP POP JUMP JUMPDEST PUSH0 PUSH1 0x20 DUP3 ADD SWAP1 POP PUSH2 0x2622 PUSH0 DUP4 ADD DUP5 PUSH2 0x2554 JUMP JUMPDEST SWAP3 SWAP2 POP POP JUMP JUMPDEST PUSH2 0x2631 DUP2 PUSH2 0x20A5 JUMP JUMPDEST DUP3 MSTORE POP POP JUMP JUMPDEST PUSH0 PUSH1 0x20 DUP3 ADD SWAP1 POP PUSH2 0x264A PUSH0 DUP4 ADD DUP5 PUSH2 0x2628 JUMP JUMPDEST SWAP3 SWAP2 POP POP JUMP JUMPDEST PUSH32 0x5072656D69756D206D7573742062652067726561746572207468616E20300000 PUSH0 DUP3 ADD MSTORE POP JUMP JUMPDEST PUSH0 PUSH2 0x2684 PUSH1 0x1E DUP4 PUSH2 0x24FE JUMP JUMPDEST SWAP2 POP PUSH2 0x268F DUP3 PUSH2 0x2650 JUMP JUMPDEST PUSH1 0x20 DUP3 ADD SWAP1 POP SWAP2 SWAP1 POP JUMP JUMPDEST PUSH0 PUSH1 0x20 DUP3 ADD SWAP1 POP DUP2 DUP2 SUB PUSH0 DUP4 ADD MSTORE PUSH2 0x26B1 DUP2 PUSH2 0x2678 JUMP JUMPDEST SWAP1 POP SWAP2 SWAP1 POP JUMP JUMPDEST PUSH32 0x496E76616C69642074696572206C6576656C0000000000000000000000000000 PUSH0 DUP3 ADD MSTORE POP JUMP JUMPDEST PUSH0 PUSH2 0x26EC PUSH1 0x12 DUP4 PUSH2 0x24FE JUMP JUMPDEST SWAP2 POP PUSH2 0x26F7 DUP3 PUSH2 0x26B8 JUMP JUMPDEST PUSH1 0x20 DUP3 ADD SWAP1 POP SWAP2 SWAP1 POP JUMP JUMPDEST PUSH0 PUSH1 0x20 DUP3 ADD SWAP1 POP DUP2 DUP2 SUB PUSH0 DUP4 ADD MSTORE PUSH2 0x2719 DUP2 PUSH2 0x26E0 JUMP JUMPDEST SWAP1 POP SWAP2 SWAP1 POP JUMP JUMPDEST PUSH32 0x4465706172747572652074696D65206D75737420626520696E20746865206675 PUSH0 DUP3 ADD MSTORE PUSH32 0x7475726500000000000000000000000000000000000000000000000000000000 PUSH1 0x20 DUP3 ADD MSTORE POP JUMP JUMPDEST PUSH0 PUSH2 0x277A PUSH1 0x24 DUP4 PUSH2 0x24FE JUMP JUMPDEST SWAP2 POP PUSH2 0x2785 DUP3 PUSH2 0x2720 JUMP JUMPDEST PUSH1 0x40 DUP3 ADD SWAP1 POP SWAP2 SWAP1 POP JUMP JUMPDEST PUSH0 PUSH1 0x20 DUP3 ADD SWAP1 POP DUP2 DUP2 SUB PUSH0 DUP4 ADD MSTORE PUSH2 0x27A7 DUP2 PUSH2 0x276E JUMP JUMPDEST SWAP1 POP SWAP2 SWAP1 POP JUMP JUMPDEST PUSH32 0x4E487B7100000000000000000000000000000000000000000000000000000000 PUSH0 MSTORE PUSH1 0x11 PUSH1 0x4 MSTORE PUSH1 0x24 PUSH0 REVERT JUMPDEST PUSH0 PUSH2 0x27E5 DUP3 PUSH2 0x20D8 JUMP JUMPDEST SWAP2 POP PUSH32 0xFFFFFFFFFFFFFFFFFFFFFFFFFFFFFFFFFFFFFFFFFFFFFFFFFFFFFFFFFFFFFFFF DUP3 SUB PUSH2 0x2817 JUMPI PUSH2 0x2816 PUSH2 0x27AE JUMP JUMPDEST JUMPDEST PUSH1 0x1 DUP3 ADD SWAP1 POP SWAP2 SWAP1 POP JUMP JUMPDEST PUSH32 0x4E487B7100000000000000000000000000000000000000000000000000000000 PUSH0 MSTORE PUSH1 0x22 PUSH1 0x4 MSTORE PUSH1 0x24 PUSH0 REVERT JUMPDEST PUSH0 PUSH1 0x2 DUP3 DIV SWAP1 POP PUSH1 0x1 DUP3 AND DUP1 PUSH2 0x2866 JUMPI PUSH1 0x7F DUP3 AND SWAP2 POP JUMPDEST PUSH1 0x20 DUP3 LT DUP2 SUB PUSH2 0x2879 JUMPI PUSH2 0x2878 PUSH2 0x2822 JUMP JUMPDEST JUMPDEST POP SWAP2 SWAP1 POP JUMP JUMPDEST PUSH0 DUP2 SWAP1 POP DUP2 PUSH0 MSTORE PUSH1 0x20 PUSH0 KECCAK256 SWAP1 POP SWAP2 SWAP1 POP JUMP JUMPDEST PUSH0 PUSH1 0x20 PUSH1 0x1F DUP4 ADD DIV SWAP1 POP SWAP2 SWAP1 POP JUMP JUMPDEST PUSH0 DUP3 DUP3 SHL SWAP1 POP SWAP3 SWAP2 POP POP JUMP JUMPDEST PUSH0 PUSH1 0x8 DUP4 MUL PUSH2 0x28DB PUSH32 0xFFFFFFFFFFFFFFFFFFFFFFFFFFFFFFFFFFFFFFFFFFFFFFFFFFFFFFFFFFFFFFFF DUP3 PUSH2 0x28A0 JUMP JUMPDEST PUSH2 0x28E5 DUP7 DUP4 PUSH2 0x28A0 JUMP JUMPDEST SWAP6 POP DUP1 NOT DUP5 AND SWAP4 POP DUP1 DUP7 AND DUP5 OR SWAP3 POP POP POP SWAP4 SWAP3 POP POP POP JUMP JUMPDEST PUSH0 DUP2 SWAP1 POP SWAP2 SWAP1 POP JUMP JUMPDEST PUSH0 PUSH2 0x2920 PUSH2 0x291B PUSH2 0x2916 DUP5 PUSH2 0x20D8 JUMP JUMPDEST PUSH2 0x28FD JUMP JUMPDEST PUSH2 0x20D8 JUMP JUMPDEST SWAP1 POP SWAP2 SWAP1 POP JUMP JUMPDEST PUSH0 DUP2 SWAP1 POP SWAP2 SWAP1 POP JUMP JUMPDEST PUSH2 0x2939 DUP4 PUSH2 0x2906 JUMP JUMPDEST PUSH2 0x294D PUSH2 0x2945 DUP3 PUSH2 0x2927 JUMP JUMPDEST DUP5 DUP5 SLOAD PUSH2 0x28AC JUMP JUMPDEST DUP3 SSTORE POP POP POP POP JUMP JUMPDEST PUSH0 SWAP1 JUMP JUMPDEST PUSH2 0x2961 PUSH2 0x2955 JUMP JUMPDEST PUSH2 0x296C DUP2 DUP5 DUP5 PUSH2 0x2930 JUMP JUMPDEST POP POP POP JUMP JUMPDEST JUMPDEST DUP2 DUP2 LT ISZERO PUSH2 0x298F JUMPI PUSH2 0x2984 PUSH0 DUP3 PUSH2 0x2959 JUMP JUMPDEST PUSH1 0x1 DUP2 ADD SWAP1 POP PUSH2 0x2972 JUMP JUMPDEST POP POP JUMP JUMPDEST PUSH1 0x1F DUP3 GT ISZERO PUSH2 0x29D4 JUMPI PUSH2 0x29A5 DUP2 PUSH2 0x287F JUMP JUMPDEST PUSH2 0x29AE DUP5 PUSH2 0x2891 JUMP JUMPDEST DUP2 ADD PUSH1 0x20 DUP6 LT ISZERO PUSH2 0x29BD JUMPI DUP2 SWAP1 POP JUMPDEST PUSH2 0x29D1 PUSH2 0x29C9 DUP6 PUSH2 0x2891 JUMP JUMPDEST DUP4 ADD DUP3 PUSH2 0x2971 JUMP JUMPDEST POP POP JUMPDEST POP POP POP JUMP JUMPDEST PUSH0 DUP3 DUP3 SHR SWAP1 POP SWAP3 SWAP2 POP POP JUMP JUMPDEST PUSH0 PUSH2 0x29F4 PUSH0 NOT DUP5 PUSH1 0x8 MUL PUSH2 0x29D9 JUMP JUMPDEST NOT DUP1 DUP4 AND SWAP2 POP POP SWAP3 SWAP2 POP POP JUMP JUMPDEST PUSH0 PUSH2 0x2A0C DUP4 DUP4 PUSH2 0x29E5 JUMP JUMPDEST SWAP2 POP DUP3 PUSH1 0x2 MUL DUP3 OR SWAP1 POP SWAP3 SWAP2 POP POP JUMP JUMPDEST PUSH2 0x2A25 DUP3 PUSH2 0x24F4 JUMP JUMPDEST PUSH8 0xFFFFFFFFFFFFFFFF DUP2 GT ISZERO PUSH2 0x2A3E JUMPI PUSH2 0x2A3D PUSH2 0x21A7 JUMP JUMPDEST JUMPDEST PUSH2 0x2A48 DUP3 SLOAD PUSH2 0x284F JUMP JUMPDEST PUSH2 0x2A53 DUP3 DUP3 DUP6 PUSH2 0x2993 JUMP JUMPDEST PUSH0 PUSH1 0x20 SWAP1 POP PUSH1 0x1F DUP4 GT PUSH1 0x1 DUP2 EQ PUSH2 0x2A84 JUMPI PUSH0 DUP5 ISZERO PUSH2 0x2A72 JUMPI DUP3 DUP8 ADD MLOAD SWAP1 POP JUMPDEST PUSH2 0x2A7C DUP6 DUP3 PUSH2 0x2A01 JUMP JUMPDEST DUP7 SSTORE POP PUSH2 0x2AE3 JUMP JUMPDEST PUSH1 0x1F NOT DUP5 AND PUSH2 0x2A92 DUP7 PUSH2 0x287F JUMP JUMPDEST PUSH0 JUMPDEST DUP3 DUP2 LT ISZERO PUSH2 0x2AB9 JUMPI DUP5 DUP10 ADD MLOAD DUP3 SSTORE PUSH1 0x1 DUP3 ADD SWAP2 POP PUSH1 0x20 DUP6 ADD SWAP5 POP PUSH1 0x20 DUP2 ADD SWAP1 POP PUSH2 0x2A94 JUMP JUMPDEST DUP7 DUP4 LT ISZERO PUSH2 0x2AD6 JUMPI DUP5 DUP10 ADD MLOAD PUSH2 0x2AD2 PUSH1 0x1F DUP10 AND DUP3 PUSH2 0x29E5 JUMP JUMPDEST DUP4 SSTORE POP JUMPDEST PUSH1 0x1 PUSH1 0x2 DUP9 MUL ADD DUP9 SSTORE POP POP POP JUMPDEST POP POP POP POP POP POP JUMP JUMPDEST PUSH0 PUSH1 0x60 DUP3 ADD SWAP1 POP PUSH2 0x2AFE PUSH0 DUP4 ADD DUP7 PUSH2 0x24A1 JUMP JUMPDEST DUP2 DUP2 SUB PUSH1 0x20 DUP4 ADD MSTORE PUSH2 0x2B10 DUP2 DUP6 PUSH2 0x251C JUMP JUMPDEST SWAP1 POP PUSH2 0x2B1F PUSH1 0x40 DUP4 ADD DUP5 PUSH2 0x2554 JUMP JUMPDEST SWAP5 SWAP4 POP POP POP POP JUMP JUMPDEST PUSH32 0x536F75726365206D75737420626520746865206F7261636C65206F6620746865 PUSH0 DUP3 ADD MSTORE PUSH32 0x2072657175657374000000000000000000000000000000000000000000000000 PUSH1 0x20 DUP3 ADD MSTORE POP JUMP JUMPDEST PUSH0 PUSH2 0x2B81 PUSH1 0x28 DUP4 PUSH2 0x24FE JUMP JUMPDEST SWAP2 POP PUSH2 0x2B8C DUP3 PUSH2 0x2B27 JUMP JUMPDEST PUSH1 0x40 DUP3 ADD SWAP1 POP SWAP2 SWAP1 POP JUMP JUMPDEST PUSH0 PUSH1 0x20 DUP3 ADD SWAP1 POP DUP2 DUP2 SUB PUSH0 DUP4 ADD MSTORE PUSH2 0x2BAE DUP2 PUSH2 0x2B75 JUMP JUMPDEST SWAP1 POP SWAP2 SWAP1 POP JUMP JUMPDEST PUSH32 0x4E487B7100000000000000000000000000000000000000000000000000000000 PUSH0 MSTORE PUSH1 0x12 PUSH1 0x4 MSTORE PUSH1 0x24 PUSH0 REVERT JUMPDEST PUSH0 PUSH2 0x2BEC DUP3 PUSH2 0x20D8 JUMP JUMPDEST SWAP2 POP PUSH2 0x2BF7 DUP4 PUSH2 0x20D8 JUMP JUMPDEST SWAP3 POP DUP3 PUSH2 0x2C07 JUMPI PUSH2 0x2C06 PUSH2 0x2BB5 JUMP JUMPDEST JUMPDEST DUP3 DUP3 DIV SWAP1 POP SWAP3 SWAP2 POP POP JUMP JUMPDEST PUSH32 0x4E487B7100000000000000000000000000000000000000000000000000000000 PUSH0 MSTORE PUSH1 0x32 PUSH1 0x4 MSTORE PUSH1 0x24 PUSH0 REVERT JUMPDEST PUSH32 0x4D7573742062652070726F706F736564206F776E657200000000000000000000 PUSH0 DUP3 ADD MSTORE POP JUMP JUMPDEST PUSH0 PUSH2 0x2C73 PUSH1 0x16 DUP4 PUSH2 0x24FE JUMP JUMPDEST SWAP2 POP PUSH2 0x2C7E DUP3 PUSH2 0x2C3F JUMP JUMPDEST PUSH1 0x20 DUP3 ADD SWAP1 POP SWAP2 SWAP1 POP JUMP JUMPDEST PUSH0 PUSH1 0x20 DUP3 ADD SWAP1 POP DUP2 DUP2 SUB PUSH0 DUP4 ADD MSTORE PUSH2 0x2CA0 DUP2 PUSH2 0x2C67 JUMP JUMPDEST SWAP1 POP SWAP2 SWAP1 POP JUMP JUMPDEST PUSH0 DUP2 MLOAD SWAP1 POP PUSH2 0x2CB5 DUP2 PUSH2 0x20E1 JUMP JUMPDEST SWAP3 SWAP2 POP POP JUMP JUMPDEST PUSH0 PUSH1 0x20 DUP3 DUP5 SUB SLT ISZERO PUSH2 0x2CD0 JUMPI PUSH2 0x2CCF PUSH2 0x2043 JUMP JUMPDEST JUMPDEST PUSH0 PUSH2 0x2CDD DUP5 DUP3 DUP6 ADD PUSH2 0x2CA7 JUMP JUMPDEST SWAP2 POP POP SWAP3 SWAP2 POP POP JUMP JUMPDEST PUSH0 PUSH1 0x40 DUP3 ADD SWAP1 POP PUSH2 0x2CF9 PUSH0 DUP4 ADD DUP6 PUSH2 0x24A1 JUMP JUMPDEST PUSH2 0x2D06 PUSH1 0x20 DUP4 ADD DUP5 PUSH2 0x2554 JUMP JUMPDEST SWAP4 SWAP3 POP POP POP JUMP JUMPDEST PUSH2 0x2D16 DUP2 PUSH2 0x2563 JUMP JUMPDEST DUP2 EQ PUSH2 0x2D20 JUMPI PUSH0 DUP1 REVERT JUMPDEST POP JUMP JUMPDEST PUSH0 DUP2 MLOAD SWAP1 POP PUSH2 0x2D31 DUP2 PUSH2 0x2D0D JUMP JUMPDEST SWAP3 SWAP2 POP POP JUMP JUMPDEST PUSH0 PUSH1 0x20 DUP3 DUP5 SUB SLT ISZERO PUSH2 0x2D4C JUMPI PUSH2 0x2D4B PUSH2 0x2043 JUMP JUMPDEST JUMPDEST PUSH0 PUSH2 0x2D59 DUP5 DUP3 DUP6 ADD PUSH2 0x2D23 JUMP JUMPDEST SWAP2 POP POP SWAP3 SWAP2 POP POP JUMP JUMPDEST PUSH32 0x556E61626C6520746F207472616E736665720000000000000000000000000000 PUSH0 DUP3 ADD MSTORE POP JUMP JUMPDEST PUSH0 PUSH2 0x2D96 PUSH1 0x12 DUP4 PUSH2 0x24FE JUMP JUMPDEST SWAP2 POP PUSH2 0x2DA1 DUP3 PUSH2 0x2D62 JUMP JUMPDEST PUSH1 0x20 DUP3 ADD SWAP1 POP SWAP2 SWAP1 POP JUMP JUMPDEST PUSH0 PUSH1 0x20 DUP3 ADD SWAP1 POP DUP2 DUP2 SUB PUSH0 DUP4 ADD MSTORE PUSH2 0x2DC3 DUP2 PUSH2 0x2D8A JUMP JUMPDEST SWAP1 POP SWAP2 SWAP1 POP JUMP JUMPDEST PUSH32 0x506F6C696379206973206E6F7420616374697665000000000000000000000000 PUSH0 DUP3 ADD MSTORE POP JUMP JUMPDEST PUSH0 PUSH2 0x2DFE PUSH1 0x14 DUP4 PUSH2 0x24FE JUMP JUMPDEST SWAP2 POP PUSH2 0x2E09 DUP3 PUSH2 0x2DCA JUMP JUMPDEST PUSH1 0x20 DUP3 ADD SWAP1 POP SWAP2 SWAP1 POP JUMP JUMPDEST PUSH0 PUSH1 0x20 DUP3 ADD SWAP1 POP DUP2 DUP2 SUB PUSH0 DUP4 ADD MSTORE PUSH2 0x2E2B DUP2 PUSH2 0x2DF2 JUMP JUMPDEST SWAP1 POP SWAP2 SWAP1 POP JUMP JUMPDEST PUSH32 0x506F6C69637920616C726561647920636C61696D656400000000000000000000 PUSH0 DUP3 ADD MSTORE POP JUMP JUMPDEST PUSH0 PUSH2 0x2E66 PUSH1 0x16 DUP4 PUSH2 0x24FE JUMP JUMPDEST SWAP2 POP PUSH2 0x2E71 DUP3 PUSH2 0x2E32 JUMP JUMPDEST PUSH1 0x20 DUP3 ADD SWAP1 POP SWAP2 SWAP1 POP JUMP JUMPDEST PUSH0 PUSH1 0x20 DUP3 ADD SWAP1 POP DUP2 DUP2 SUB PUSH0 DUP4 ADD MSTORE PUSH2 0x2E93 DUP2 PUSH2 0x2E5A JUMP JUMPDEST SWAP1 POP SWAP2 SWAP1 POP JUMP JUMPDEST PUSH32 0x466C6967687420686173206E6F74206465706172746564207965740000000000 PUSH0 DUP3 ADD MSTORE POP JUMP JUMPDEST PUSH0 PUSH2 0x2ECE PUSH1 0x1B DUP4 PUSH2 0x24FE JUMP JUMPDEST SWAP2 POP PUSH2 0x2ED9 DUP3 PUSH2 0x2E9A JUMP JUMPDEST PUSH1 0x20 DUP3 ADD SWAP1 POP SWAP2 SWAP1 POP JUMP JUMPDEST PUSH0 PUSH1 0x20 DUP3 ADD SWAP1 POP DUP2 DUP2 SUB PUSH0 DUP4 ADD MSTORE PUSH2 0x2EFB DUP2 PUSH2 0x2EC2 JUMP JUMPDEST SWAP1 POP SWAP2 SWAP1 POP JUMP JUMPDEST PUSH32 0x4F6E6C792063616C6C61626C65206279206F776E657200000000000000000000 PUSH0 DUP3 ADD MSTORE POP JUMP JUMPDEST PUSH0 PUSH2 0x2F36 PUSH1 0x16 DUP4 PUSH2 0x24FE JUMP JUMPDEST SWAP2 POP PUSH2 0x2F41 DUP3 PUSH2 0x2F02 JUMP JUMPDEST PUSH1 0x20 DUP3 ADD SWAP1 POP SWAP2 SWAP1 POP JUMP JUMPDEST PUSH0 PUSH1 0x20 DUP3 ADD SWAP1 POP DUP2 DUP2 SUB PUSH0 DUP4 ADD MSTORE PUSH2 0x2F63 DUP2 PUSH2 0x2F2A JUMP JUMPDEST SWAP1 POP SWAP2 SWAP1 POP JUMP JUMPDEST PUSH0 PUSH2 0x2F74 DUP3 PUSH2 0x20D8 JUMP JUMPDEST SWAP2 POP PUSH2 0x2F7F DUP4 PUSH2 0x20D8 JUMP JUMPDEST SWAP3 POP DUP3 DUP3 MUL PUSH2 0x2F8D DUP2 PUSH2 0x20D8 JUMP JUMPDEST SWAP2 POP DUP3 DUP3 DIV DUP5 EQ DUP4 ISZERO OR PUSH2 0x2FA4 JUMPI PUSH2 0x2FA3 PUSH2 0x27AE JUMP JUMPDEST JUMPDEST POP SWAP3 SWAP2 POP POP JUMP JUMPDEST PUSH32 0x4E6F207061796F75742064756500000000000000000000000000000000000000 PUSH0 DUP3 ADD MSTORE POP JUMP JUMPDEST PUSH0 PUSH2 0x2FDF PUSH1 0xD DUP4 PUSH2 0x24FE JUMP JUMPDEST SWAP2 POP PUSH2 0x2FEA DUP3 PUSH2 0x2FAB JUMP JUMPDEST PUSH1 0x20 DUP3 ADD SWAP1 POP SWAP2 SWAP1 POP JUMP JUMPDEST PUSH0 PUSH1 0x20 DUP3 ADD SWAP1 POP DUP2 DUP2 SUB PUSH0 DUP4 ADD MSTORE PUSH2 0x300C DUP2 PUSH2 0x2FD3 JUMP JUMPDEST SWAP1 POP SWAP2 SWAP1 POP JUMP JUMPDEST PUSH32 0x496E73756666696369656E7420636F6E74726163742062616C616E6365000000 PUSH0 DUP3 ADD MSTORE POP JUMP JUMPDEST PUSH0 PUSH2 0x3047 PUSH1 0x1D DUP4 PUSH2 0x24FE JUMP JUMPDEST SWAP2 POP PUSH2 0x3052 DUP3 PUSH2 0x3013 JUMP JUMPDEST PUSH1 0x20 DUP3 ADD SWAP1 POP SWAP2 SWAP1 POP JUMP JUMPDEST PUSH0 PUSH1 0x20 DUP3 ADD SWAP1 POP DUP2 DUP2 SUB PUSH0 DUP4 ADD MSTORE PUSH2 0x3074 DUP2 PUSH2 0x303B JUMP JUMPDEST SWAP1 POP SWAP2 SWAP1 POP JUMP JUMPDEST PUSH32 0x43616E6E6F74207472616E7366657220746F2073656C66000000000000000000 PUSH0 DUP3 ADD MSTORE POP JUMP JUMPDEST PUSH0 PUSH2 0x30AF PUSH1 0x17 DUP4 PUSH2 0x24FE JUMP JUMPDEST SWAP2 POP PUSH2 0x30BA DUP3 PUSH2 0x307B JUMP JUMPDEST PUSH1 0x20 DUP3 ADD SWAP1 POP SWAP2 SWAP1 POP JUMP JUMPDEST PUSH0 PUSH1 0x20 DUP3 ADD SWAP1 POP DUP2 DUP2 SUB PUSH0 DUP4 ADD MSTORE PUSH2 0x30DC DUP2 PUSH2 0x30A3 JUMP JUMPDEST SWAP1 POP SWAP2 SWAP1 POP JUMP JUMPDEST PUSH0 PUSH2 0x30ED DUP3 PUSH2 0x20D8 JUMP JUMPDEST SWAP2 POP PUSH2 0x30F8 DUP4 PUSH2 0x20D8 JUMP JUMPDEST SWAP3 POP DUP3 DUP3 ADD SWAP1 POP DUP1 DUP3 GT ISZERO PUSH2 0x3110 JUMPI PUSH2 0x310F PUSH2 0x27AE JUMP JUMPDEST JUMPDEST SWAP3 SWAP2 POP POP JUMP JUMPDEST PUSH0 PUSH32 0xFFFFFFFF00000000000000000000000000000000000000000000000000000000 DUP3 AND SWAP1 POP SWAP2 SWAP1 POP JUMP JUMPDEST PUSH2 0x314A DUP2 PUSH2 0x3116 JUMP JUMPDEST DUP3 MSTORE POP POP JUMP JUMPDEST PUSH0 DUP2 MLOAD SWAP1 POP SWAP2 SWAP1 POP JUMP JUMPDEST PUSH0 DUP3 DUP3 MSTORE PUSH1 0x20 DUP3 ADD SWAP1 POP SWAP3 SWAP2 POP POP JUMP JUMPDEST PUSH0 PUSH2 0x3174 DUP3 PUSH2 0x3150 JUMP JUMPDEST PUSH2 0x317E DUP2 DUP6 PUSH2 0x315A JUMP JUMPDEST SWAP4 POP PUSH2 0x318E DUP2 DUP6 PUSH1 0x20 DUP7 ADD PUSH2 0x250E JUMP JUMPDEST PUSH2 0x3197 DUP2 PUSH2 0x2197 JUMP JUMPDEST DUP5 ADD SWAP2 POP POP SWAP3 SWAP2 POP POP JUMP JUMPDEST PUSH0 PUSH2 0x100 DUP3 ADD SWAP1 POP PUSH2 0x31B6 PUSH0 DUP4 ADD DUP12 PUSH2 0x24A1 JUMP JUMPDEST PUSH2 0x31C3 PUSH1 0x20 DUP4 ADD DUP11 PUSH2 0x2554 JUMP JUMPDEST PUSH2 0x31D0 PUSH1 0x40 DUP4 ADD DUP10 PUSH2 0x2628 JUMP JUMPDEST PUSH2 0x31DD PUSH1 0x60 DUP4 ADD DUP9 PUSH2 0x24A1 JUMP JUMPDEST PUSH2 0x31EA PUSH1 0x80 DUP4 ADD DUP8 PUSH2 0x3141 JUMP JUMPDEST PUSH2 0x31F7 PUSH1 0xA0 DUP4 ADD DUP7 PUSH2 0x2554 JUMP JUMPDEST PUSH2 0x3204 PUSH1 0xC0 DUP4 ADD DUP6 PUSH2 0x2554 JUMP JUMPDEST DUP2 DUP2 SUB PUSH1 0xE0 DUP4 ADD MSTORE PUSH2 0x3216 DUP2 DUP5 PUSH2 0x316A JUMP JUMPDEST SWAP1 POP SWAP10 SWAP9 POP POP POP POP POP POP POP POP POP JUMP JUMPDEST PUSH0 PUSH2 0x322F DUP3 PUSH2 0x20D8 JUMP JUMPDEST SWAP2 POP PUSH2 0x323A DUP4 PUSH2 0x20D8 JUMP JUMPDEST SWAP3 POP DUP3 PUSH2 0x324A JUMPI PUSH2 0x3249 PUSH2 0x2BB5 JUMP JUMPDEST JUMPDEST DUP3 DUP3 MOD SWAP1 POP SWAP3 SWAP2 POP POP JUMP JUMPDEST PUSH0 PUSH2 0x325F DUP3 PUSH2 0x20D8 JUMP JUMPDEST SWAP2 POP PUSH2 0x326A DUP4 PUSH2 0x20D8 JUMP JUMPDEST SWAP3 POP DUP3 DUP3 SUB SWAP1 POP DUP2 DUP2 GT ISZERO PUSH2 0x3282 JUMPI PUSH2 0x3281 PUSH2 0x27AE JUMP JUMPDEST JUMPDEST SWAP3 SWAP2 POP POP JUMP JUMPDEST PUSH0 PUSH2 0x32A2 PUSH2 0x329D PUSH2 0x3298 DUP5 PUSH2 0x204B JUMP JUMPDEST PUSH2 0x28FD JUMP JUMPDEST PUSH2 0x204B JUMP JUMPDEST SWAP1 POP SWAP2 SWAP1 POP JUMP JUMPDEST PUSH0 PUSH2 0x32B3 DUP3 PUSH2 0x3288 JUMP JUMPDEST SWAP1 POP SWAP2 SWAP1 POP JUMP JUMPDEST PUSH0 PUSH2 0x32C4 DUP3 PUSH2 0x32A9 JUMP JUMPDEST SWAP1 POP SWAP2 SWAP1 POP JUMP JUMPDEST PUSH0 DUP2 PUSH1 0x60 SHL SWAP1 POP SWAP2 SWAP1 POP JUMP JUMPDEST PUSH0 PUSH2 0x32E1 DUP3 PUSH2 0x32CB JUMP JUMPDEST SWAP1 POP SWAP2 SWAP1 POP JUMP JUMPDEST PUSH0 PUSH2 0x32F2 DUP3 PUSH2 0x32D7 JUMP JUMPDEST SWAP1 POP SWAP2 SWAP1 POP JUMP JUMPDEST PUSH2 0x330A PUSH2 0x3305 DUP3 PUSH2 0x32BA JUMP JUMPDEST PUSH2 0x32E8 JUMP JUMPDEST DUP3 MSTORE POP POP JUMP JUMPDEST PUSH0 DUP2 SWAP1 POP SWAP2 SWAP1 POP JUMP JUMPDEST PUSH2 0x332A PUSH2 0x3325 DUP3 PUSH2 0x20D8 JUMP JUMPDEST PUSH2 0x3310 JUMP JUMPDEST DUP3 MSTORE POP POP JUMP JUMPDEST PUSH0 PUSH2 0x333B DUP3 DUP6 PUSH2 0x32F9 JUMP JUMPDEST PUSH1 0x14 DUP3 ADD SWAP2 POP PUSH2 0x334B DUP3 DUP5 PUSH2 0x3319 JUMP JUMPDEST PUSH1 0x20 DUP3 ADD SWAP2 POP DUP2 SWAP1 POP SWAP4 SWAP3 POP POP POP JUMP JUMPDEST PUSH0 PUSH1 0x60 DUP3 ADD SWAP1 POP PUSH2 0x336E PUSH0 DUP4 ADD DUP7 PUSH2 0x24A1 JUMP JUMPDEST PUSH2 0x337B PUSH1 0x20 DUP4 ADD DUP6 PUSH2 0x2554 JUMP JUMPDEST DUP2 DUP2 SUB PUSH1 0x40 DUP4 ADD MSTORE PUSH2 0x338D DUP2 DUP5 PUSH2 0x316A JUMP JUMPDEST SWAP1 POP SWAP5 SWAP4 POP POP POP POP JUMP JUMPDEST PUSH32 0x756E61626C6520746F207472616E73666572416E6443616C6C20746F206F7261 PUSH0 DUP3 ADD MSTORE PUSH32 0x636C650000000000000000000000000000000000000000000000000000000000 PUSH1 0x20 DUP3 ADD MSTORE POP JUMP JUMPDEST PUSH0 PUSH2 0x33F1 PUSH1 0x23 DUP4 PUSH2 0x24FE JUMP JUMPDEST SWAP2 POP PUSH2 0x33FC DUP3 PUSH2 0x3397 JUMP JUMPDEST PUSH1 0x40 DUP3 ADD SWAP1 POP SWAP2 SWAP1 POP JUMP JUMPDEST PUSH0 PUSH1 0x20 DUP3 ADD SWAP1 POP DUP2 DUP2 SUB PUSH0 DUP4 ADD MSTORE PUSH2 0x341E DUP2 PUSH2 0x33E5 JUMP JUMPDEST SWAP1 POP SWAP2 SWAP1 POP JUMP JUMPDEST PUSH0 DUP2 PUSH1 0x1 SHR SWAP1 POP SWAP2 SWAP1 POP JUMP JUMPDEST PUSH0 DUP1 DUP3 SWAP2 POP DUP4 SWAP1 POP JUMPDEST PUSH1 0x1 DUP6 GT ISZERO PUSH2 0x347A JUMPI DUP1 DUP7 DIV DUP2 GT ISZERO PUSH2 0x3456 JUMPI PUSH2 0x3455 PUSH2 0x27AE JUMP JUMPDEST JUMPDEST PUSH1 0x1 DUP6 AND ISZERO PUSH2 0x3465 JUMPI DUP1 DUP3 MUL SWAP2 POP JUMPDEST DUP1 DUP2 MUL SWAP1 POP PUSH2 0x3473 DUP6 PUSH2 0x3425 JUMP JUMPDEST SWAP5 POP PUSH2 0x343A JUMP JUMPDEST SWAP5 POP SWAP5 SWAP3 POP POP POP JUMP JUMPDEST PUSH0 DUP3 PUSH2 0x3492 JUMPI PUSH1 0x1 SWAP1 POP PUSH2 0x354D JUMP JUMPDEST DUP2 PUSH2 0x349F JUMPI PUSH0 SWAP1 POP PUSH2 0x354D JUMP JUMPDEST DUP2 PUSH1 0x1 DUP2 EQ PUSH2 0x34B5 JUMPI PUSH1 0x2 DUP2 EQ PUSH2 0x34BF JUMPI PUSH2 0x34EE JUMP JUMPDEST PUSH1 0x1 SWAP2 POP POP PUSH2 0x354D JUMP JUMPDEST PUSH1 0xFF DUP5 GT ISZERO PUSH2 0x34D1 JUMPI PUSH2 0x34D0 PUSH2 0x27AE JUMP JUMPDEST JUMPDEST DUP4 PUSH1 0x2 EXP SWAP2 POP DUP5 DUP3 GT ISZERO PUSH2 0x34E8 JUMPI PUSH2 0x34E7 PUSH2 0x27AE JUMP JUMPDEST JUMPDEST POP PUSH2 0x354D JUMP JUMPDEST POP PUSH1 0x20 DUP4 LT PUSH2 0x133 DUP4 LT AND PUSH1 0x4E DUP5 LT PUSH1 0xB DUP5 LT AND OR ISZERO PUSH2 0x3523 JUMPI DUP3 DUP3 EXP SWAP1 POP DUP4 DUP2 GT ISZERO PUSH2 0x351E JUMPI PUSH2 0x351D PUSH2 0x27AE JUMP JUMPDEST JUMPDEST PUSH2 0x354D JUMP JUMPDEST PUSH2 0x3530 DUP5 DUP5 DUP5 PUSH1 0x1 PUSH2 0x3431 JUMP JUMPDEST SWAP3 POP SWAP1 POP DUP2 DUP5 DIV DUP2 GT ISZERO PUSH2 0x3547 JUMPI PUSH2 0x3546 PUSH2 0x27AE JUMP JUMPDEST JUMPDEST DUP2 DUP2 MUL SWAP1 POP JUMPDEST SWAP4 SWAP3 POP POP POP JUMP JUMPDEST PUSH0 PUSH2 0x355E DUP3 PUSH2 0x20D8 JUMP JUMPDEST SWAP2 POP PUSH2 0x3569 DUP4 PUSH2 0x20D8 JUMP JUMPDEST SWAP3 POP PUSH2 0x3596 PUSH32 0xFFFFFFFFFFFFFFFFFFFFFFFFFFFFFFFFFFFFFFFFFFFFFFFFFFFFFFFFFFFFFFFF DUP5 DUP5 PUSH2 0x3483 JUMP JUMPDEST SWAP1 POP SWAP3 SWAP2 POP POP JUMP INVALID LOG2 PUSH5 0x6970667358 0x22 SLT KECCAK256 0xAE POP 0xB9 0x29 0xEE 0xDD DUP6 EXTCODEHASH 0xB7 MCOPY INVALID 0xB0 TSTORE 0xB9 0xAD 0xAF PUSH9 0x9EA00419961CF46E97 DUP5 0xA6 SWAP16 0xB2 SWAP6 SWAP2 PUSH5 0x736F6C6343 STOP ADDMOD BYTE STOP CALLER "
		},
		"gasEstimates": {
			"creation": {
				"codeDepositCost": "2756000",
				"executionCost": "infinite",
				"totalCost": "infinite"
			},
			"external": {
				"TIER1_PAYOUT_PERCENT()": "376",
				"TIER1_THRESHOLD()": "354",
				"TIER2_PAYOUT_PERCENT()": "398",
				"TIER2_THRESHOLD()": "377",
				"TIER3_PAYOUT_PERCENT()": "421",
				"TIER3_THRESHOLD()": "442",
				"acceptOwnership()": "54578",
				"checkFlightStatus(uint256)": "infinite",
				"fulfillFlightStatus(bytes32,uint256)": "infinite",
				"getPoliciesByHolder(address)": "infinite",
				"owner()": "2582",
				"policies(uint256)": "infinite",
				"policyCount()": "2469",
				"purchasePolicy(string,uint256,uint8)": "infinite",
				"transferOwnership(address)": "30761",
				"updateOracleSettings(address,bytes32,uint256)": "71498",
				"withdrawETH()": "infinite",
				"withdrawLink()": "infinite"
			},
			"internal": {
				"calculatePayout(uint256,uint8)": "infinite",
				"getTierThreshold(uint8)": "96",
				"processPayoutTiered(uint256,uint256)": "infinite"
			}
		},
		"methodIdentifiers": {
			"TIER1_PAYOUT_PERCENT()": "201c04f5",
			"TIER1_THRESHOLD()": "642ce355",
			"TIER2_PAYOUT_PERCENT()": "2220faaa",
			"TIER2_THRESHOLD()": "086d2c87",
			"TIER3_PAYOUT_PERCENT()": "0ffa8972",
			"TIER3_THRESHOLD()": "42dfac72",
			"acceptOwnership()": "79ba5097",
			"checkFlightStatus(uint256)": "e9ef9d1d",
			"fulfillFlightStatus(bytes32,uint256)": "1f43e4fb",
			"getPoliciesByHolder(address)": "34790e44",
			"owner()": "8da5cb5b",
			"policies(uint256)": "d3e89483",
			"policyCount()": "de54d429",
			"purchasePolicy(string,uint256,uint8)": "0b31ee61",
			"transferOwnership(address)": "f2fde38b",
			"updateOracleSettings(address,bytes32,uint256)": "07b31c48",
			"withdrawETH()": "e086e5ec",
			"withdrawLink()": "8dc654a2"
		}
	},
	"abi": [
		{
			"inputs": [],
			"stateMutability": "nonpayable",
			"type": "constructor"
		},
		{
			"anonymous": false,
			"inputs": [
				{
					"indexed": true,
					"internalType": "bytes32",
					"name": "id",
					"type": "bytes32"
				}
			],
			"name": "ChainlinkCancelled",
			"type": "event"
		},
		{
			"anonymous": false,
			"inputs": [
				{
					"indexed": true,
					"internalType": "bytes32",
					"name": "id",
					"type": "bytes32"
				}
			],
			"name": "ChainlinkFulfilled",
			"type": "event"
		},
		{
			"anonymous": false,
			"inputs": [
				{
					"indexed": true,
					"internalType": "bytes32",
					"name": "id",
					"type": "bytes32"
				}
			],
			"name": "ChainlinkRequested",
			"type": "event"
		},
		{
			"anonymous": false,
			"inputs": [
				{
					"indexed": true,
					"internalType": "uint256",
					"name": "policyId",
					"type": "uint256"
				},
				{
					"indexed": false,
					"internalType": "address",
					"name": "policyholder",
					"type": "address"
				},
				{
					"indexed": false,
					"internalType": "uint256",
					"name": "payoutAmount",
					"type": "uint256"
				}
			],
			"name": "ClaimProcessed",
			"type": "event"
		},
		{
			"anonymous": false,
			"inputs": [
				{
					"indexed": true,
					"internalType": "bytes32",
					"name": "requestId",
					"type": "bytes32"
				},
				{
					"indexed": false,
					"internalType": "uint256",
					"name": "delayMinutes",
					"type": "uint256"
				}
			],
			"name": "FlightDelayDataReceived",
			"type": "event"
		},
		{
			"anonymous": false,
			"inputs": [
				{
					"indexed": true,
					"internalType": "bytes32",
					"name": "requestId",
					"type": "bytes32"
				},
				{
					"indexed": false,
					"internalType": "uint256",
					"name": "policyId",
					"type": "uint256"
				}
			],
			"name": "OracleRequestSent",
			"type": "event"
		},
		{
			"anonymous": false,
			"inputs": [
				{
					"indexed": true,
					"internalType": "address",
					"name": "from",
					"type": "address"
				},
				{
					"indexed": true,
					"internalType": "address",
					"name": "to",
					"type": "address"
				}
			],
			"name": "OwnershipTransferRequested",
			"type": "event"
		},
		{
			"anonymous": false,
			"inputs": [
				{
					"indexed": true,
					"internalType": "address",
					"name": "from",
					"type": "address"
				},
				{
					"indexed": true,
					"internalType": "address",
					"name": "to",
					"type": "address"
				}
			],
			"name": "OwnershipTransferred",
			"type": "event"
		},
		{
			"anonymous": false,
			"inputs": [
				{
					"indexed": true,
					"internalType": "uint256",
					"name": "policyId",
					"type": "uint256"
				},
				{
					"indexed": false,
					"internalType": "address",
					"name": "policyholder",
					"type": "address"
				},
				{
					"indexed": false,
					"internalType": "string",
					"name": "flightNumber",
					"type": "string"
				},
				{
					"indexed": false,
					"internalType": "uint256",
					"name": "premium",
					"type": "uint256"
				}
			],
			"name": "PolicyPurchased",
			"type": "event"
		},
		{
			"inputs": [],
			"name": "TIER1_PAYOUT_PERCENT",
			"outputs": [
				{
					"internalType": "uint8",
					"name": "",
					"type": "uint8"
				}
			],
			"stateMutability": "view",
			"type": "function"
		},
		{
			"inputs": [],
			"name": "TIER1_THRESHOLD",
			"outputs": [
				{
					"internalType": "uint8",
					"name": "",
					"type": "uint8"
				}
			],
			"stateMutability": "view",
			"type": "function"
		},
		{
			"inputs": [],
			"name": "TIER2_PAYOUT_PERCENT",
			"outputs": [
				{
					"internalType": "uint8",
					"name": "",
					"type": "uint8"
				}
			],
			"stateMutability": "view",
			"type": "function"
		},
		{
			"inputs": [],
			"name": "TIER2_THRESHOLD",
			"outputs": [
				{
					"internalType": "uint8",
					"name": "",
					"type": "uint8"
				}
			],
			"stateMutability": "view",
			"type": "function"
		},
		{
			"inputs": [],
			"name": "TIER3_PAYOUT_PERCENT",
			"outputs": [
				{
					"internalType": "uint8",
					"name": "",
					"type": "uint8"
				}
			],
			"stateMutability": "view",
			"type": "function"
		},
		{
			"inputs": [],
			"name": "TIER3_THRESHOLD",
			"outputs": [
				{
					"internalType": "uint8",
					"name": "",
					"type": "uint8"
				}
			],
			"stateMutability": "view",
			"type": "function"
		},
		{
			"inputs": [],
			"name": "acceptOwnership",
			"outputs": [],
			"stateMutability": "nonpayable",
			"type": "function"
		},
		{
			"inputs": [
				{
					"internalType": "uint256",
					"name": "_policyId",
					"type": "uint256"
				}
			],
			"name": "checkFlightStatus",
			"outputs": [
				{
					"internalType": "bytes32",
					"name": "",
					"type": "bytes32"
				}
			],
			"stateMutability": "nonpayable",
			"type": "function"
		},
		{
			"inputs": [
				{
					"internalType": "bytes32",
					"name": "_requestId",
					"type": "bytes32"
				},
				{
					"internalType": "uint256",
					"name": "_delayMinutes",
					"type": "uint256"
				}
			],
			"name": "fulfillFlightStatus",
			"outputs": [],
			"stateMutability": "nonpayable",
			"type": "function"
		},
		{
			"inputs": [
				{
					"internalType": "address",
					"name": "_policyholder",
					"type": "address"
				}
			],
			"name": "getPoliciesByHolder",
			"outputs": [
				{
					"internalType": "uint256[]",
					"name": "",
					"type": "uint256[]"
				}
			],
			"stateMutability": "view",
			"type": "function"
		},
		{
			"inputs": [],
			"name": "owner",
			"outputs": [
				{
					"internalType": "address",
					"name": "",
					"type": "address"
				}
			],
			"stateMutability": "view",
			"type": "function"
		},
		{
			"inputs": [
				{
					"internalType": "uint256",
					"name": "",
					"type": "uint256"
				}
			],
			"name": "policies",
			"outputs": [
				{
					"internalType": "address",
					"name": "policyholder",
					"type": "address"
				},
				{
					"internalType": "string",
					"name": "flightNumber",
					"type": "string"
				},
				{
					"internalType": "uint256",
					"name": "departureTime",
					"type": "uint256"
				},
				{
					"internalType": "uint256",
					"name": "premium",
					"type": "uint256"
				},
				{
					"internalType": "uint256",
					"name": "payoutAmount",
					"type": "uint256"
				},
				{
					"internalType": "uint8",
					"name": "delayThreshold",
					"type": "uint8"
				},
				{
					"internalType": "bool",
					"name": "claimed",
					"type": "bool"
				},
				{
					"internalType": "bool",
					"name": "active",
					"type": "bool"
				},
				{
					"internalType": "uint8",
					"name": "tierLevel",
					"type": "uint8"
				}
			],
			"stateMutability": "view",
			"type": "function"
		},
		{
			"inputs": [],
			"name": "policyCount",
			"outputs": [
				{
					"internalType": "uint256",
					"name": "",
					"type": "uint256"
				}
			],
			"stateMutability": "view",
			"type": "function"
		},
		{
			"inputs": [
				{
					"internalType": "string",
					"name": "_flightNumber",
					"type": "string"
				},
				{
					"internalType": "uint256",
					"name": "_departureTime",
					"type": "uint256"
				},
				{
					"internalType": "uint8",
					"name": "_tierLevel",
					"type": "uint8"
				}
			],
			"name": "purchasePolicy",
			"outputs": [],
			"stateMutability": "payable",
			"type": "function"
		},
		{
			"inputs": [
				{
					"internalType": "address",
					"name": "to",
					"type": "address"
				}
			],
			"name": "transferOwnership",
			"outputs": [],
			"stateMutability": "nonpayable",
			"type": "function"
		},
		{
			"inputs": [
				{
					"internalType": "address",
					"name": "_oracle",
					"type": "address"
				},
				{
					"internalType": "bytes32",
					"name": "_jobId",
					"type": "bytes32"
				},
				{
					"internalType": "uint256",
					"name": "_fee",
					"type": "uint256"
				}
			],
			"name": "updateOracleSettings",
			"outputs": [],
			"stateMutability": "nonpayable",
			"type": "function"
		},
		{
			"inputs": [],
			"name": "withdrawETH",
			"outputs": [],
			"stateMutability": "nonpayable",
			"type": "function"
		},
		{
			"inputs": [],
			"name": "withdrawLink",
			"outputs": [],
			"stateMutability": "nonpayable",
			"type": "function"
		}
	]
}